{
  "data": {
    "bytecode": {
      "linkReferences": {},
      "object": "6080604052600080556000600155600060025530600460006101000a81548173ffffffffffffffffffffffffffffffffffffffff021916908373ffffffffffffffffffffffffffffffffffffffff160217905550615c6f806100626000396000f3fe608060405260043610620000555760003560e01c806359ec60061462000062578063bd6985451462000098578063e6952ddd14620000dc578063f18d03cc1462000112578063f84419b11462000156576200005d565b366200005d57005b600080fd5b6200008060048036038101906200007a9190620042a9565b6200018d565b6040516200008f919062004eaf565b60405180910390f35b348015620000a557600080fd5b50620000c46004803603810190620000be919062004184565b620002f4565b604051620000d3919062004f78565b60405180910390f35b620000fa6004803603810190620000f49190620043b3565b62000ae0565b60405162000109919062004f9c565b60405180910390f35b3480156200011f57600080fd5b506200013e600480360381019062000138919062004237565b62001a50565b6040516200014d919062004f78565b60405180910390f35b6200017460048036038101906200016e919062004381565b62001add565b6040516200018492919062004e82565b60405180910390f35b60608282905067ffffffffffffffff811115620001af57620001ae62005610565b5b604051908082528060200260200182016040528015620001ec57816020015b620001d862003976565b815260200190600190039081620001ce5790505b50905060005b83839050811015620002ed573073ffffffffffffffffffffffffffffffffffffffff1663e6952ddd85858481811062000230576200022f620055e1565b5b905060e002016040518263ffffffff1660e01b815260040162000254919062004f5b565b600060405180830381600087803b1580156200026f57600080fd5b505af1925050508015620002a857506040513d6000823e3d601f19601f82011682018060405250810190620002a5919062004436565b60015b620002b357620002d7565b80838381518110620002ca57620002c9620055e1565b5b6020026020010181905250505b8080620002e49062005506565b915050620001f2565b5092915050565b620002fe620039db565b6001816000019060028111156200031a5762000319620055b2565b5b90816002811115620003315762000330620055b2565b5b815250505a81602001818152505060008873ffffffffffffffffffffffffffffffffffffffff1663c45a01556040518163ffffffff1660e01b815260040160206040518083038186803b1580156200038857600080fd5b505afa1580156200039d573d6000803e3d6000fd5b505050506040513d601f19601f82011682018060405250810190620003c3919062004152565b73ffffffffffffffffffffffffffffffffffffffff1663e6a4390589896040518363ffffffff1660e01b8152600401620003ff92919062004cd1565b60206040518083038186803b1580156200041857600080fd5b505afa1580156200042d573d6000803e3d6000fd5b505050506040513d601f19601f8201168201806040525081019062000453919062004152565b9050600073ffffffffffffffffffffffffffffffffffffffff168173ffffffffffffffffffffffffffffffffffffffff161415620004c8576040517f08c379a0000000000000000000000000000000000000000000000000000000008152600401620004bf9062004ef5565b60405180910390fd5b600081905060008990506000600267ffffffffffffffff811115620004f257620004f162005610565b5b604051908082528060200260200182016040528015620005215781602001602082028036833780820191505090505b5090508a816000815181106200053c576200053b620055e1565b5b602002602001019073ffffffffffffffffffffffffffffffffffffffff16908173ffffffffffffffffffffffffffffffffffffffff168152505089816001815181106200058e576200058d620055e1565b5b602002602001019073ffffffffffffffffffffffffffffffffffffffff16908173ffffffffffffffffffffffffffffffffffffffff1681525050600087148015620005da575060008614155b1562000697578b73ffffffffffffffffffffffffffffffffffffffff16631f00ca7487836040518363ffffffff1660e01b81526004016200061d92919062004fc0565b60006040518083038186803b1580156200063657600080fd5b505afa1580156200064b573d6000803e3d6000fd5b505050506040513d6000823e3d601f19601f82011682018060405250810190620006769190620042fe565b6000815181106200068c576200068b620055e1565b5b602002602001015196505b60008711620006dd576040517f08c379a0000000000000000000000000000000000000000000000000000000008152600401620006d49062004ed3565b60405180910390fd5b61271061270f8373ffffffffffffffffffffffffffffffffffffffff166370a08231876040518263ffffffff1660e01b81526004016200071e919062004cb4565b60206040518083038186803b1580156200073757600080fd5b505afa1580156200074c573d6000803e3d6000fd5b505050506040513d601f19601f82011682018060405250810190620007729190620044e3565b6200077e9190620052a5565b6200078a91906200526d565b871115620008425761271061270f8373ffffffffffffffffffffffffffffffffffffffff166370a08231876040518263ffffffff1660e01b8152600401620007d3919062004cb4565b60206040518083038186803b158015620007ec57600080fd5b505afa15801562000801573d6000803e3d6000fd5b505050506040513d601f19601f82011682018060405250810190620008279190620044e3565b620008339190620052a5565b6200083f91906200526d565b96505b620008528b8a868a6001620021bb565b85604001819052506000808c73ffffffffffffffffffffffffffffffffffffffff168573ffffffffffffffffffffffffffffffffffffffff16630dfe16816040518163ffffffff1660e01b815260040160206040518083038186803b158015620008bb57600080fd5b505afa158015620008d0573d6000803e3d6000fd5b505050506040513d601f19601f82011682018060405250810190620008f6919062004152565b73ffffffffffffffffffffffffffffffffffffffff161415620009db578d73ffffffffffffffffffffffffffffffffffffffff1663d06ca61f886040015160c00151856040518363ffffffff1660e01b81526004016200095892919062004fc0565b60006040518083038186803b1580156200097157600080fd5b505afa15801562000986573d6000803e3d6000fd5b505050506040513d6000823e3d601f19601f82011682018060405250810190620009b19190620042fe565b600181518110620009c757620009c6620055e1565b5b602002602001015191506000905062000a9e565b8d73ffffffffffffffffffffffffffffffffffffffff1663d06ca61f886040015160c00151856040518363ffffffff1660e01b815260040162000a2092919062004fc0565b60006040518083038186803b15801562000a3957600080fd5b505afa15801562000a4e573d6000803e3d6000fd5b505050506040513d6000823e3d601f19601f8201168201806040525081019062000a799190620042fe565b60018151811062000a8f5762000a8e620055e1565b5b60200260200101519050600091505b62000aac8682848d620032ef565b87606001819052505a8760200181815162000ac89190620053a4565b91508181525050505050505050979650505050505050565b62000aea62003976565b60015443111562000b2057436001819055506000600281905550600160008082825462000b18919062005210565b925050819055505b60016002600082825462000b35919062005210565b9250508190555081600001602081019062000b51919062004120565b82602001602081019062000b66919062004120565b600047111562000ee15760008273ffffffffffffffffffffffffffffffffffffffff1663ad5c46486040518163ffffffff1660e01b815260040160206040518083038186803b15801562000bb957600080fd5b505afa15801562000bce573d6000803e3d6000fd5b505050506040513d601f19601f8201168201806040525081019062000bf4919062004152565b90508073ffffffffffffffffffffffffffffffffffffffff1663d0e30db0600460009054906101000a900473ffffffffffffffffffffffffffffffffffffffff1673ffffffffffffffffffffffffffffffffffffffff16316040518263ffffffff1660e01b81526004016000604051808303818588803b15801562000c7857600080fd5b505af115801562000c8d573d6000803e3d6000fd5b50505050508073ffffffffffffffffffffffffffffffffffffffff168273ffffffffffffffffffffffffffffffffffffffff161415801562000d7f575060008173ffffffffffffffffffffffffffffffffffffffff166370a08231600460009054906101000a900473ffffffffffffffffffffffffffffffffffffffff166040518263ffffffff1660e01b815260040162000d29919062004cb4565b60206040518083038186803b15801562000d4257600080fd5b505afa15801562000d57573d6000803e3d6000fd5b505050506040513d601f19601f8201168201806040525081019062000d7d9190620044e3565b115b1562000edf573073ffffffffffffffffffffffffffffffffffffffff1663bd69854584838530308773ffffffffffffffffffffffffffffffffffffffff166370a08231600460009054906101000a900473ffffffffffffffffffffffffffffffffffffffff166040518263ffffffff1660e01b815260040162000e03919062004cb4565b60206040518083038186803b15801562000e1c57600080fd5b505afa15801562000e31573d6000803e3d6000fd5b505050506040513d601f19601f8201168201806040525081019062000e579190620044e3565b60006040518863ffffffff1660e01b815260040162000e7d979695949392919062004d7b565b600060405180830381600087803b15801562000e9857600080fd5b505af192505050801562000ed157506040513d6000823e3d601f19601f8201168201806040525081019062000ece9190620043e5565b60015b62000edc5762000ede565b505b5b505b600054836000018181525050600254836020018181525050438360c0018181525050428360e00181815250506000600173ffffffffffffffffffffffffffffffffffffffff1685606001602081019062000f3c919062004120565b73ffffffffffffffffffffffffffffffffffffffff161462000f735784606001602081019062000f6d919062004120565b62000fa8565b62000fa785602001602081019062000f8c919062004120565b86604001602081019062000fa1919062004120565b620037e1565b5b9050600085602001602081019062000fc1919062004120565b9050600086604001602081019062000fda919062004120565b9050600080886080013511156200139a57600088600001602081019062001002919062004120565b73ffffffffffffffffffffffffffffffffffffffff1663c45a01556040518163ffffffff1660e01b815260040160206040518083038186803b1580156200104857600080fd5b505afa1580156200105d573d6000803e3d6000fd5b505050506040513d601f19601f8201168201806040525081019062001083919062004152565b73ffffffffffffffffffffffffffffffffffffffff1663e6a439058a6020016020810190620010b3919062004120565b8b6040016020810190620010c8919062004120565b6040518363ffffffff1660e01b8152600401620010e792919062004cd1565b60206040518083038186803b1580156200110057600080fd5b505afa15801562001115573d6000803e3d6000fd5b505050506040513d601f19601f820116820180604052508101906200113b919062004152565b905061271089608001358473ffffffffffffffffffffffffffffffffffffffff166370a08231846040518263ffffffff1660e01b815260040162001180919062004cb4565b60206040518083038186803b1580156200119957600080fd5b505afa158015620011ae573d6000803e3d6000fd5b505050506040513d601f19601f82011682018060405250810190620011d49190620044e3565b620011e09190620052a5565b620011ec91906200526d565b91503073ffffffffffffffffffffffffffffffffffffffff1663bd6985458a60000160208101906200121f919062004120565b8b602001602081019062001234919062004120565b8c604001602081019062001249919062004120565b308a6000896040518863ffffffff1660e01b815260040162001272979695949392919062004cfe565b600060405180830381600087803b1580156200128d57600080fd5b505af1925050508015620012c657506040513d6000823e3d601f19601f82011682018060405250810190620012c39190620043e5565b60015b6200138d57620012d56200563f565b806308c379a01415620013495750620012ed62005753565b80620012fa57506200134b565b600289604001516000019060028111156200131a5762001319620055b2565b5b90816002811115620013315762001330620055b2565b5b81525050808960400151608001819052505062001387565b505b600288604001516000019060028111156200136b576200136a620055b2565b5b90816002811115620013825762001381620055b2565b5b815250505b62001398565b808960400181905250505b505b600280811115620013b057620013af620055b2565b5b8760400151600001516002811115620013ce57620013cd620055b2565b5b14158015620013e1575060008860a00135115b1562001658578173ffffffffffffffffffffffffffffffffffffffff166370a0823160008a608001351462001417578562001419565b325b6040518263ffffffff1660e01b815260040162001437919062004cb4565b60206040518083038186803b1580156200145057600080fd5b505afa15801562001465573d6000803e3d6000fd5b505050506040513d601f19601f820116820180604052508101906200148b9190620044e3565b90503073ffffffffffffffffffffffffffffffffffffffff1663bd698545896000016020810190620014be919062004120565b8a6040016020810190620014d3919062004120565b8b6020016020810190620014e8919062004120565b88896127108f60a0013589620014ff9190620052a5565b6200150b91906200526d565b60006040518863ffffffff1660e01b815260040162001531979695949392919062004d7b565b600060405180830381600087803b1580156200154c57600080fd5b505af19250505080156200158557506040513d6000823e3d601f19601f82011682018060405250810190620015829190620043e5565b60015b6200164c57620015946200563f565b806308c379a01415620016085750620015ac62005753565b80620015b957506200160a565b60028860600151600001906002811115620015d957620015d8620055b2565b5b90816002811115620015f057620015ef620055b2565b5b81525050808860600151608001819052505062001646565b505b600287604001516000019060028111156200162a5762001629620055b2565b5b90816002811115620016415762001640620055b2565b5b815250505b62001657565b808860600181905250505b5b6002808111156200166e576200166d620055b2565b5b87604001516000015160028111156200168c576200168b620055b2565b5b141580156200169f575060008860c00135115b15620018f0578173ffffffffffffffffffffffffffffffffffffffff166370a0823160008a6080013514620016d55785620016d7565b325b6040518263ffffffff1660e01b8152600401620016f5919062004cb4565b60206040518083038186803b1580156200170e57600080fd5b505afa15801562001723573d6000803e3d6000fd5b505050506040513d601f19601f82011682018060405250810190620017499190620044e3565b90503073ffffffffffffffffffffffffffffffffffffffff1663f18d03cc8960400160208101906200177c919062004120565b8662001787620038f0565b6127108d60c00135876200179c9190620052a5565b620017a891906200526d565b6040518563ffffffff1660e01b8152600401620017c9949392919062004df8565b600060405180830381600087803b158015620017e457600080fd5b505af19250505080156200181d57506040513d6000823e3d601f19601f820116820180604052508101906200181a9190620043e5565b60015b620018e4576200182c6200563f565b806308c379a01415620018a057506200184462005753565b80620018515750620018a2565b60028860800151600001906002811115620018715762001870620055b2565b5b90816002811115620018885762001887620055b2565b5b815250508088608001516080018190525050620018de565b505b60028760400151600001906002811115620018c257620018c1620055b2565b5b90816002811115620018d957620018d8620055b2565b5b815250505b620018ef565b808860800181905250505b5b60405180606001604052808573ffffffffffffffffffffffffffffffffffffffff1681526020018473ffffffffffffffffffffffffffffffffffffffff166370a08231876040518263ffffffff1660e01b815260040162001952919062004cb4565b60206040518083038186803b1580156200196b57600080fd5b505afa15801562001980573d6000803e3d6000fd5b505050506040513d601f19601f82011682018060405250810190620019a69190620044e3565b81526020018373ffffffffffffffffffffffffffffffffffffffff166370a08231876040518263ffffffff1660e01b8152600401620019e6919062004cb4565b60206040518083038186803b158015620019ff57600080fd5b505afa15801562001a14573d6000803e3d6000fd5b505050506040513d601f19601f8201168201806040525081019062001a3a9190620044e3565b8152508760a00181905250505050505050919050565b62001a5a620039db565b60018160000190600281111562001a765762001a75620055b2565b5b9081600281111562001a8d5762001a8c620055b2565b5b815250505a81602001818152505062001aab858585856000620021bb565b8160600181905281604001819052505a8160200181815162001ace9190620053a4565b91508181525050949350505050565b60008082600001602081019062001af5919062004120565b83602001602081019062001b0a919062004120565b600047111562001e855760008273ffffffffffffffffffffffffffffffffffffffff1663ad5c46486040518163ffffffff1660e01b815260040160206040518083038186803b15801562001b5d57600080fd5b505afa15801562001b72573d6000803e3d6000fd5b505050506040513d601f19601f8201168201806040525081019062001b98919062004152565b90508073ffffffffffffffffffffffffffffffffffffffff1663d0e30db0600460009054906101000a900473ffffffffffffffffffffffffffffffffffffffff1673ffffffffffffffffffffffffffffffffffffffff16316040518263ffffffff1660e01b81526004016000604051808303818588803b15801562001c1c57600080fd5b505af115801562001c31573d6000803e3d6000fd5b50505050508073ffffffffffffffffffffffffffffffffffffffff168273ffffffffffffffffffffffffffffffffffffffff161415801562001d23575060008173ffffffffffffffffffffffffffffffffffffffff166370a08231600460009054906101000a900473ffffffffffffffffffffffffffffffffffffffff166040518263ffffffff1660e01b815260040162001ccd919062004cb4565b60206040518083038186803b15801562001ce657600080fd5b505afa15801562001cfb573d6000803e3d6000fd5b505050506040513d601f19601f8201168201806040525081019062001d219190620044e3565b115b1562001e83573073ffffffffffffffffffffffffffffffffffffffff1663bd69854584838530308773ffffffffffffffffffffffffffffffffffffffff166370a08231600460009054906101000a900473ffffffffffffffffffffffffffffffffffffffff166040518263ffffffff1660e01b815260040162001da7919062004cb4565b60206040518083038186803b15801562001dc057600080fd5b505afa15801562001dd5573d6000803e3d6000fd5b505050506040513d601f19601f8201168201806040525081019062001dfb9190620044e3565b60006040518863ffffffff1660e01b815260040162001e21979695949392919062004d7b565b600060405180830381600087803b15801562001e3c57600080fd5b505af192505050801562001e7557506040513d6000823e3d601f19601f8201168201806040525081019062001e729190620043e5565b60015b62001e805762001e82565b505b5b505b600085600001602081019062001e9c919062004120565b73ffffffffffffffffffffffffffffffffffffffff1663c45a01556040518163ffffffff1660e01b815260040160206040518083038186803b15801562001ee257600080fd5b505afa15801562001ef7573d6000803e3d6000fd5b505050506040513d601f19601f8201168201806040525081019062001f1d919062004152565b90508073ffffffffffffffffffffffffffffffffffffffff1663e6a4390587602001602081019062001f50919062004120565b88604001602081019062001f65919062004120565b6040518363ffffffff1660e01b815260040162001f8492919062004cd1565b60206040518083038186803b15801562001f9d57600080fd5b505afa15801562001fb2573d6000803e3d6000fd5b505050506040513d601f19601f8201168201806040525081019062001fd8919062004152565b9450600073ffffffffffffffffffffffffffffffffffffffff168573ffffffffffffffffffffffffffffffffffffffff161415620020ce578073ffffffffffffffffffffffffffffffffffffffff1663c9c6539687602001602081019062002041919062004120565b88604001602081019062002056919062004120565b6040518363ffffffff1660e01b81526004016200207592919062004cd1565b602060405180830381600087803b1580156200209057600080fd5b505af1158015620020a5573d6000803e3d6000fd5b505050506040513d601f19601f82011682018060405250810190620020cb919062004152565b94505b620020f6866020016020810190620020e7919062004120565b308789606001356000620021bb565b506200211f86604001602081019062002110919062004120565b328789608001356000620021bb565b508473ffffffffffffffffffffffffffffffffffffffff16636a627842306040518263ffffffff1660e01b81526004016200215b919062004cb4565b602060405180830381600087803b1580156200217657600080fd5b505af11580156200218b573d6000803e3d6000fd5b505050506040513d601f19601f82011682018060405250810190620021b19190620044e3565b9350505050915091565b620021c562003a2f565b60008690506000859050848360800181815250508173ffffffffffffffffffffffffffffffffffffffff166370a08231876040518263ffffffff1660e01b815260040162002214919062004cb4565b60206040518083038186803b1580156200222d57600080fd5b505afa15801562002242573d6000803e3d6000fd5b505050506040513d601f19601f82011682018060405250810190620022689190620044e3565b83604001818152505060008060008615620023b3578373ffffffffffffffffffffffffffffffffffffffff16630902f1ac6040518163ffffffff1660e01b815260040160606040518083038186803b158015620022c457600080fd5b505afa158015620022d9573d6000803e3d6000fd5b505050506040513d601f19601f82011682018060405250810190620022ff919062004487565b826dffffffffffffffffffffffffffff169250816dffffffffffffffffffffffffffff1691505080935081945050508373ffffffffffffffffffffffffffffffffffffffff166318160ddd6040518163ffffffff1660e01b815260040160206040518083038186803b1580156200237557600080fd5b505afa1580156200238a573d6000803e3d6000fd5b505050506040513d601f19601f82011682018060405250810190620023b09190620044e3565b90505b600460009054906101000a900473ffffffffffffffffffffffffffffffffffffffff1673ffffffffffffffffffffffffffffffffffffffff168a73ffffffffffffffffffffffffffffffffffffffff1614156200263c578473ffffffffffffffffffffffffffffffffffffffff166370a08231306040518263ffffffff1660e01b815260040162002445919062004cb4565b60206040518083038186803b1580156200245e57600080fd5b505afa15801562002473573d6000803e3d6000fd5b505050506040513d601f19601f82011682018060405250810190620024999190620044e3565b8660000181815250505a866101000181815250508473ffffffffffffffffffffffffffffffffffffffff1663a9059cbb8a8a6040518363ffffffff1660e01b8152600401620024ea92919062004e82565b602060405180830381600087803b1580156200250557600080fd5b505af11580156200251a573d6000803e3d6000fd5b505050506040513d601f19601f820116820180604052508101906200254091906200434f565b62002582576040517f08c379a0000000000000000000000000000000000000000000000000000000008152600401620025799062004f39565b60405180910390fd5b5a8661010001818151620025979190620053a4565b915081815250508473ffffffffffffffffffffffffffffffffffffffff166370a08231306040518263ffffffff1660e01b8152600401620025d9919062004cb4565b60206040518083038186803b158015620025f257600080fd5b505afa15801562002607573d6000803e3d6000fd5b505050506040513d601f19601f820116820180604052508101906200262d9190620044e3565b86602001818152505062002f81565b878573ffffffffffffffffffffffffffffffffffffffff1663dd62ed3e8c600460009054906101000a900473ffffffffffffffffffffffffffffffffffffffff166040518363ffffffff1660e01b81526004016200269c92919062004cd1565b60206040518083038186803b158015620026b557600080fd5b505afa158015620026ca573d6000803e3d6000fd5b505050506040513d601f19601f82011682018060405250810190620026f09190620044e3565b101580156200278d5750878573ffffffffffffffffffffffffffffffffffffffff166370a082318c6040518263ffffffff1660e01b815260040162002736919062004cb4565b60206040518083038186803b1580156200274f57600080fd5b505afa15801562002764573d6000803e3d6000fd5b505050506040513d601f19601f820116820180604052508101906200278a9190620044e3565b10155b15620029c7578473ffffffffffffffffffffffffffffffffffffffff166370a082318b6040518263ffffffff1660e01b8152600401620027ce919062004cb4565b60206040518083038186803b158015620027e757600080fd5b505afa158015620027fc573d6000803e3d6000fd5b505050506040513d601f19601f82011682018060405250810190620028229190620044e3565b8660000181815250505a866101000181815250508473ffffffffffffffffffffffffffffffffffffffff166323b872dd8b8b8b6040518463ffffffff1660e01b8152600401620028759392919062004e45565b602060405180830381600087803b1580156200289057600080fd5b505af1158015620028a5573d6000803e3d6000fd5b505050506040513d601f19601f82011682018060405250810190620028cb91906200434f565b6200290d576040517f08c379a0000000000000000000000000000000000000000000000000000000008152600401620029049062004f17565b60405180910390fd5b5a8661010001818151620029229190620053a4565b915081815250508473ffffffffffffffffffffffffffffffffffffffff166370a082318b6040518263ffffffff1660e01b815260040162002964919062004cb4565b60206040518083038186803b1580156200297d57600080fd5b505afa15801562002992573d6000803e3d6000fd5b505050506040513d601f19601f82011682018060405250810190620029b89190620044e3565b86602001818152505062002f80565b878573ffffffffffffffffffffffffffffffffffffffff1663dd62ed3e32600460009054906101000a900473ffffffffffffffffffffffffffffffffffffffff166040518363ffffffff1660e01b815260040162002a2792919062004cd1565b60206040518083038186803b15801562002a4057600080fd5b505afa15801562002a55573d6000803e3d6000fd5b505050506040513d601f19601f8201168201806040525081019062002a7b9190620044e3565b1015801562002b185750878573ffffffffffffffffffffffffffffffffffffffff166370a08231326040518263ffffffff1660e01b815260040162002ac1919062004cb4565b60206040518083038186803b15801562002ada57600080fd5b505afa15801562002aef573d6000803e3d6000fd5b505050506040513d601f19601f8201168201806040525081019062002b159190620044e3565b10155b1562002d52578473ffffffffffffffffffffffffffffffffffffffff166370a08231326040518263ffffffff1660e01b815260040162002b59919062004cb4565b60206040518083038186803b15801562002b7257600080fd5b505afa15801562002b87573d6000803e3d6000fd5b505050506040513d601f19601f8201168201806040525081019062002bad9190620044e3565b8660000181815250505a866101000181815250508473ffffffffffffffffffffffffffffffffffffffff166323b872dd328b8b6040518463ffffffff1660e01b815260040162002c009392919062004e45565b602060405180830381600087803b15801562002c1b57600080fd5b505af115801562002c30573d6000803e3d6000fd5b505050506040513d601f19601f8201168201806040525081019062002c5691906200434f565b62002c98576040517f08c379a000000000000000000000000000000000000000000000000000000000815260040162002c8f9062004f17565b60405180910390fd5b5a866101000181815162002cad9190620053a4565b915081815250508473ffffffffffffffffffffffffffffffffffffffff166370a08231326040518263ffffffff1660e01b815260040162002cef919062004cb4565b60206040518083038186803b15801562002d0857600080fd5b505afa15801562002d1d573d6000803e3d6000fd5b505050506040513d601f19601f8201168201806040525081019062002d439190620044e3565b86602001818152505062002f7f565b8473ffffffffffffffffffffffffffffffffffffffff166370a08231306040518263ffffffff1660e01b815260040162002d8d919062004cb4565b60206040518083038186803b15801562002da657600080fd5b505afa15801562002dbb573d6000803e3d6000fd5b505050506040513d601f19601f8201168201806040525081019062002de19190620044e3565b8660000181815250505a866101000181815250508473ffffffffffffffffffffffffffffffffffffffff1663a9059cbb8a8a6040518363ffffffff1660e01b815260040162002e3292919062004e82565b602060405180830381600087803b15801562002e4d57600080fd5b505af115801562002e62573d6000803e3d6000fd5b505050506040513d601f19601f8201168201806040525081019062002e8891906200434f565b62002eca576040517f08c379a000000000000000000000000000000000000000000000000000000000815260040162002ec19062004f39565b60405180910390fd5b5a866101000181815162002edf9190620053a4565b915081815250508473ffffffffffffffffffffffffffffffffffffffff166370a08231306040518263ffffffff1660e01b815260040162002f21919062004cb4565b60206040518083038186803b15801562002f3a57600080fd5b505afa15801562002f4f573d6000803e3d6000fd5b505050506040513d601f19601f8201168201806040525081019062002f759190620044e3565b8660200181815250505b5b5b8473ffffffffffffffffffffffffffffffffffffffff166370a082318a6040518263ffffffff1660e01b815260040162002fbc919062004cb4565b60206040518083038186803b15801562002fd557600080fd5b505afa15801562002fea573d6000803e3d6000fd5b505050506040513d601f19601f82011682018060405250810190620030109190620044e3565b86606001818152505086156200327f576000808573ffffffffffffffffffffffffffffffffffffffff16630902f1ac6040518163ffffffff1660e01b815260040160606040518083038186803b1580156200306a57600080fd5b505afa1580156200307f573d6000803e3d6000fd5b505050506040513d601f19601f82011682018060405250810190620030a5919062004487565b506dffffffffffffffffffffffffffff1691506dffffffffffffffffffffffffffff1691508c73ffffffffffffffffffffffffffffffffffffffff168673ffffffffffffffffffffffffffffffffffffffff16630dfe16816040518163ffffffff1660e01b815260040160206040518083038186803b1580156200312857600080fd5b505afa1580156200313d573d6000803e3d6000fd5b505050506040513d601f19601f8201168201806040525081019062003163919062004152565b73ffffffffffffffffffffffffffffffffffffffff161415620031b457818860600151620031929190620053a4565b8860c001818152505083811088610160019015159081151581525050620031e3565b808860600151620031c69190620053a4565b8860c0018181525050848210886101600190151590811515815250505b828673ffffffffffffffffffffffffffffffffffffffff166318160ddd6040518163ffffffff1660e01b815260040160206040518083038186803b1580156200322b57600080fd5b505afa15801562003240573d6000803e3d6000fd5b505050506040513d601f19601f82011682018060405250810190620032669190620044e3565b118861014001901515908115158152505050506200329f565b85604001518660600151620032959190620053a4565b8660c00181815250505b85602001518660000151038660a00181815250508560a0015188038660e0018181525050620032d78660c001518760a001516200392c565b86610120018181525050505050505095945050505050565b620032f962003a2f565b6000859050600080861462003390578173ffffffffffffffffffffffffffffffffffffffff16630dfe16816040518163ffffffff1660e01b815260040160206040518083038186803b1580156200334f57600080fd5b505afa15801562003364573d6000803e3d6000fd5b505050506040513d601f19601f820116820180604052508101906200338a919062004152565b62003413565b8173ffffffffffffffffffffffffffffffffffffffff1663d21220a76040518163ffffffff1660e01b815260040160206040518083038186803b158015620033d757600080fd5b505afa158015620033ec573d6000803e3d6000fd5b505050506040513d601f19601f8201168201806040525081019062003412919062004152565b5b90506000861462003425578562003427565b845b8360800181815250508073ffffffffffffffffffffffffffffffffffffffff166370a08231886040518263ffffffff1660e01b81526004016200346b919062004cb4565b60206040518083038186803b1580156200348457600080fd5b505afa15801562003499573d6000803e3d6000fd5b505050506040513d601f19601f82011682018060405250810190620034bf9190620044e3565b8360000181815250508073ffffffffffffffffffffffffffffffffffffffff166370a08231856040518263ffffffff1660e01b815260040162003503919062004cb4565b60206040518083038186803b1580156200351c57600080fd5b505afa15801562003531573d6000803e3d6000fd5b505050506040513d601f19601f82011682018060405250810190620035579190620044e3565b8360400181815250505a836101000181815250508173ffffffffffffffffffffffffffffffffffffffff1663022c0d9f878787600067ffffffffffffffff811115620035a857620035a762005610565b5b6040519080825280601f01601f191660200182016040528015620035db5781602001600182028036833780820191505090505b506040518563ffffffff1660e01b8152600401620035fd949392919062004ff4565b600060405180830381600087803b1580156200361857600080fd5b505af11580156200362d573d6000803e3d6000fd5b505050505a8361010001818151620036469190620053a4565b915081815250508073ffffffffffffffffffffffffffffffffffffffff166370a08231886040518263ffffffff1660e01b815260040162003688919062004cb4565b60206040518083038186803b158015620036a157600080fd5b505afa158015620036b6573d6000803e3d6000fd5b505050506040513d601f19601f82011682018060405250810190620036dc9190620044e3565b8360200181815250508073ffffffffffffffffffffffffffffffffffffffff166370a08231856040518263ffffffff1660e01b815260040162003720919062004cb4565b60206040518083038186803b1580156200373957600080fd5b505afa1580156200374e573d6000803e3d6000fd5b505050506040513d601f19601f82011682018060405250810190620037749190620044e3565b83606001818152505082604001518360600151038360c001818152505082602001518360000151038360a00181815250508260a001518360800151038360e0018181525050620037cd8360c001518460a001516200392c565b836101200181815250505050949350505050565b6000808383604051620037f49062003a94565b6200380192919062004cd1565b604051809103906000f0801580156200381e573d6000803e3d6000fd5b5090508073ffffffffffffffffffffffffffffffffffffffff166341c0e1b56040518163ffffffff1660e01b8152600401600060405180830381600087803b1580156200386a57600080fd5b505af11580156200387f573d6000803e3d6000fd5b505050506003819080600181540180825580915050600190039060005260206000200160009091909190916101000a81548173ffffffffffffffffffffffffffffffffffffffff021916908373ffffffffffffffffffffffffffffffffffffffff1602179055508091505092915050565b6000805460025443426040516020016200390e949392919062005048565b6040516020818303038152906040528051906020012060001c905090565b60008082141562003941576000905062003970565b8161271084620039529190620052a5565b6200395e91906200526d565b6127106200396d919062005306565b90505b92915050565b60405180610100016040528060008152602001600081526020016200399a620039db565b8152602001620039a9620039db565b8152602001620039b8620039db565b8152602001620039c762003aa2565b815260200160008152602001600081525090565b6040518060a0016040528060006002811115620039fd57620039fc620055b2565b5b81526020016000815260200162003a1362003a2f565b815260200162003a2262003a2f565b8152602001606081525090565b604051806101800160405280600081526020016000815260200160008152602001600081526020016000815260200160008152602001600081526020016000815260200160008152602001600081526020016000151581526020016000151581525090565b61038080620058ba83390190565b6040518060600160405280600073ffffffffffffffffffffffffffffffffffffffff16815260200160008152602001600081525090565b600062003af062003aea84620050be565b62005095565b9050808382526020820190508285602086028201111562003b165762003b156200567d565b5b60005b8581101562003b4a578162003b2f8882620040f2565b84526020840193506020830192505060018101905062003b19565b5050509392505050565b600062003b6b62003b6584620050ed565b62005095565b90508281526020810184848401111562003b8a5762003b8962005682565b5b62003b978482856200549a565b509392505050565b60008135905062003bb0816200580c565b92915050565b60008151905062003bc7816200580c565b92915050565b60008083601f84011262003be65762003be562005669565b5b8235905067ffffffffffffffff81111562003c065762003c0562005664565b5b6020830191508360e082028301111562003c255762003c246200567d565b5b9250929050565b600082601f83011262003c445762003c4362005669565b5b815162003c5684826020860162003ad9565b91505092915050565b60008151905062003c708162005826565b92915050565b60008151905062003c878162005840565b92915050565b60008151905062003c9e8162005851565b92915050565b600082601f83011262003cbc5762003cbb62005669565b5b815162003cce84826020860162003b54565b91505092915050565b60006060828403121562003cf05762003cef62005673565b5b62003cfc606062005095565b9050600062003d0e8482850162003bb6565b600083015250602062003d2484828501620040f2565b602083015250604062003d3a84828501620040f2565b60408301525092915050565b600060a0828403121562003d5f5762003d5e6200566e565b5b81905092915050565b6000610180828403121562003d825762003d8162005673565b5b62003d8f61018062005095565b9050600062003da184828501620040f2565b600083015250602062003db784828501620040f2565b602083015250604062003dcd84828501620040f2565b604083015250606062003de384828501620040f2565b606083015250608062003df984828501620040f2565b60808301525060a062003e0f84828501620040f2565b60a08301525060c062003e2584828501620040f2565b60c08301525060e062003e3b84828501620040f2565b60e08301525061010062003e5284828501620040f2565b6101008301525061012062003e6a8482850162003c8d565b6101208301525061014062003e828482850162003c5f565b6101408301525061016062003e9a8482850162003c5f565b6101608301525092915050565b600060e0828403121562003ec05762003ebf6200566e565b5b81905092915050565b6000610360828403121562003ee35762003ee262005673565b5b62003eef60a062005095565b9050600062003f018482850162003c76565b600083015250602062003f1784828501620040f2565b602083015250604062003f2d8482850162003d68565b6040830152506101c062003f448482850162003d68565b60608301525061034082015167ffffffffffffffff81111562003f6c5762003f6b62005678565b5b62003f7a8482850162003ca4565b60808301525092915050565b6000610140828403121562003fa05762003f9f62005673565b5b62003fad61010062005095565b9050600062003fbf84828501620040f2565b600083015250602062003fd584828501620040f2565b602083015250604082015167ffffffffffffffff81111562003ffc5762003ffb62005678565b5b6200400a8482850162003ec9565b604083015250606082015167ffffffffffffffff81111562004031576200403062005678565b5b6200403f8482850162003ec9565b606083015250608082015167ffffffffffffffff81111562004066576200406562005678565b5b620040748482850162003ec9565b60808301525060a06200408a8482850162003cd7565b60a083015250610100620040a184828501620040f2565b60c083015250610120620040b884828501620040f2565b60e08301525092915050565b600081519050620040d5816200586b565b92915050565b600081359050620040ec8162005885565b92915050565b600081519050620041038162005885565b92915050565b6000815190506200411a816200589f565b92915050565b6000602082840312156200413957620041386200568c565b5b6000620041498482850162003b9f565b91505092915050565b6000602082840312156200416b576200416a6200568c565b5b60006200417b8482850162003bb6565b91505092915050565b600080600080600080600060e0888a031215620041a657620041a56200568c565b5b6000620041b68a828b0162003b9f565b9750506020620041c98a828b0162003b9f565b9650506040620041dc8a828b0162003b9f565b9550506060620041ef8a828b0162003b9f565b9450506080620042028a828b0162003b9f565b93505060a0620042158a828b01620040db565b92505060c0620042288a828b01620040db565b91505092959891949750929550565b600080600080608085870312156200425457620042536200568c565b5b6000620042648782880162003b9f565b9450506020620042778782880162003b9f565b93505060406200428a8782880162003b9f565b92505060606200429d87828801620040db565b91505092959194509250565b60008060208385031215620042c357620042c26200568c565b5b600083013567ffffffffffffffff811115620042e457620042e362005687565b5b620042f28582860162003bcd565b92509250509250929050565b6000602082840312156200431757620043166200568c565b5b600082015167ffffffffffffffff81111562004338576200433762005687565b5b620043468482850162003c2c565b91505092915050565b6000602082840312156200436857620043676200568c565b5b6000620043788482850162003c5f565b91505092915050565b600060a082840312156200439a57620043996200568c565b5b6000620043aa8482850162003d46565b91505092915050565b600060e08284031215620043cc57620043cb6200568c565b5b6000620043dc8482850162003ea7565b91505092915050565b600060208284031215620043fe57620043fd6200568c565b5b600082015167ffffffffffffffff8111156200441f576200441e62005687565b5b6200442d8482850162003ec9565b91505092915050565b6000602082840312156200444f576200444e6200568c565b5b600082015167ffffffffffffffff81111562004470576200446f62005687565b5b6200447e8482850162003f86565b91505092915050565b600080600060608486031215620044a357620044a26200568c565b5b6000620044b386828701620040c4565b9350506020620044c686828701620040c4565b9250506040620044d98682870162004109565b9150509250925092565b600060208284031215620044fc57620044fb6200568c565b5b60006200450c84828501620040f2565b91505092915050565b600062004523838362004545565b60208301905092915050565b60006200453d838362004af2565b905092915050565b6200455081620053df565b82525050565b6200456181620053df565b82525050565b6000620045748262005143565b62004580818562005189565b93506200458d8362005123565b8060005b83811015620045c4578151620045a8888262004515565b9750620045b5836200516f565b92505060018101905062004591565b5085935050505092915050565b6000620045de826200514e565b620045ea81856200519a565b935083602082028501620045fe8562005133565b8060005b858110156200464057848403895281516200461e85826200452f565b94506200462b836200517c565b925060208a0199505060018101905062004602565b50829750879550505050505092915050565b6200465d81620053f3565b82525050565b6000620046708262005159565b6200467c8185620051ab565b93506200468e8185602086016200549a565b620046998162005691565b840191505092915050565b620046af8162005472565b82525050565b620046c08162005414565b82525050565b620046d18162005486565b82525050565b6000620046e48262005164565b620046f08185620051bc565b9350620047028185602086016200549a565b6200470d8162005691565b840191505092915050565b600062004727601383620051cd565b91506200473482620056af565b602082019050919050565b60006200474e601383620051cd565b91506200475b82620056d8565b602082019050919050565b600062004775601183620051cd565b9150620047828262005701565b602082019050919050565b60006200479c600d83620051cd565b9150620047a9826200572a565b602082019050919050565b606082016000820151620047cc600085018262004545565b506020820151620047e1602085018262004c92565b506040820151620047f6604085018262004c92565b50505050565b6101808201600082015162004815600085018262004c92565b5060208201516200482a602085018262004c92565b5060408201516200483f604085018262004c92565b50606082015162004854606085018262004c92565b50608082015162004869608085018262004c92565b5060a08201516200487e60a085018262004c92565b5060c08201516200489360c085018262004c92565b5060e0820151620048a860e085018262004c92565b50610100820151620048bf61010085018262004c92565b50610120820151620048d6610120850182620046b5565b50610140820151620048ed61014085018262004652565b506101608201516200490461016085018262004652565b50505050565b60e082016200491d6000830183620051de565b6200492c600085018262004545565b506200493c6020830183620051de565b6200494b602085018262004545565b506200495b6040830183620051de565b6200496a604085018262004545565b506200497a6060830183620051de565b62004989606085018262004545565b50620049996080830183620051f7565b620049a8608085018262004c92565b50620049b860a0830183620051f7565b620049c760a085018262004c92565b50620049d760c0830183620051f7565b620049e660c085018262004c92565b50505050565b60006103608301600083015162004a076000860182620046a4565b50602083015162004a1c602086018262004c92565b50604083015162004a316040860182620047fc565b50606083015162004a476101c0860182620047fc565b50608083015184820361034086015262004a628282620046d7565b9150508091505092915050565b60006103608301600083015162004a8a6000860182620046a4565b50602083015162004a9f602086018262004c92565b50604083015162004ab46040860182620047fc565b50606083015162004aca6101c0860182620047fc565b50608083015184820361034086015262004ae58282620046d7565b9150508091505092915050565b60006101408301600083015162004b0d600086018262004c92565b50602083015162004b22602086018262004c92565b506040830151848203604086015262004b3c8282620049ec565b9150506060830151848203606086015262004b588282620049ec565b9150506080830151848203608086015262004b748282620049ec565b91505060a083015162004b8b60a0860182620047b4565b5060c083015162004ba161010086018262004c92565b5060e083015162004bb761012086018262004c92565b508091505092915050565b60006101408301600083015162004bdd600086018262004c92565b50602083015162004bf2602086018262004c92565b506040830151848203604086015262004c0c8282620049ec565b9150506060830151848203606086015262004c288282620049ec565b9150506080830151848203608086015262004c448282620049ec565b91505060a083015162004c5b60a0860182620047b4565b5060c083015162004c7161010086018262004c92565b5060e083015162004c8761012086018262004c92565b508091505092915050565b62004c9d8162005458565b82525050565b62004cae8162005458565b82525050565b600060208201905062004ccb600083018462004556565b92915050565b600060408201905062004ce8600083018562004556565b62004cf7602083018462004556565b9392505050565b600060e08201905062004d15600083018a62004556565b62004d24602083018962004556565b62004d33604083018862004556565b62004d42606083018762004556565b62004d51608083018662004556565b62004d6060a0830185620046c6565b62004d6f60c083018462004ca3565b98975050505050505050565b600060e08201905062004d92600083018a62004556565b62004da1602083018962004556565b62004db0604083018862004556565b62004dbf606083018762004556565b62004dce608083018662004556565b62004ddd60a083018562004ca3565b62004dec60c0830184620046c6565b98975050505050505050565b600060808201905062004e0f600083018762004556565b62004e1e602083018662004556565b62004e2d604083018562004556565b62004e3c606083018462004ca3565b95945050505050565b600060608201905062004e5c600083018662004556565b62004e6b602083018562004556565b62004e7a604083018462004ca3565b949350505050565b600060408201905062004e99600083018562004556565b62004ea8602083018462004ca3565b9392505050565b6000602082019050818103600083015262004ecb8184620045d1565b905092915050565b6000602082019050818103600083015262004eee8162004718565b9050919050565b6000602082019050818103600083015262004f10816200473f565b9050919050565b6000602082019050818103600083015262004f328162004766565b9050919050565b6000602082019050818103600083015262004f54816200478d565b9050919050565b600060e08201905062004f7260008301846200490a565b92915050565b6000602082019050818103600083015262004f94818462004a6f565b905092915050565b6000602082019050818103600083015262004fb8818462004bc2565b905092915050565b600060408201905062004fd7600083018562004ca3565b818103602083015262004feb818462004567565b90509392505050565b60006080820190506200500b600083018762004ca3565b6200501a602083018662004ca3565b62005029604083018562004556565b81810360608301526200503d818462004663565b905095945050505050565b60006080820190506200505f600083018762004ca3565b6200506e602083018662004ca3565b6200507d604083018562004ca3565b6200508c606083018462004ca3565b95945050505050565b6000620050a1620050b4565b9050620050af8282620054d0565b919050565b6000604051905090565b600067ffffffffffffffff821115620050dc57620050db62005610565b5b602082029050602081019050919050565b600067ffffffffffffffff8211156200510b576200510a62005610565b5b620051168262005691565b9050602081019050919050565b6000819050602082019050919050565b6000819050602082019050919050565b600081519050919050565b600081519050919050565b600081519050919050565b600081519050919050565b6000602082019050919050565b6000602082019050919050565b600082825260208201905092915050565b600082825260208201905092915050565b600082825260208201905092915050565b600082825260208201905092915050565b600082825260208201905092915050565b6000620051ef602084018462003b9f565b905092915050565b6000620052086020840184620040db565b905092915050565b60006200521d8262005458565b91506200522a8362005458565b9250827fffffffffffffffffffffffffffffffffffffffffffffffffffffffffffffffff0382111562005262576200526162005554565b5b828201905092915050565b60006200527a8262005458565b9150620052878362005458565b9250826200529a576200529962005583565b5b828204905092915050565b6000620052b28262005458565b9150620052bf8362005458565b9250817fffffffffffffffffffffffffffffffffffffffffffffffffffffffffffffffff0483118215151615620052fb57620052fa62005554565b5b828202905092915050565b6000620053138262005414565b9150620053208362005414565b9250827f8000000000000000000000000000000000000000000000000000000000000000018212600084121516156200535e576200535d62005554565b5b827f7fffffffffffffffffffffffffffffffffffffffffffffffffffffffffffffff01821360008412161562005399576200539862005554565b5b828203905092915050565b6000620053b18262005458565b9150620053be8362005458565b925082821015620053d457620053d362005554565b5b828203905092915050565b6000620053ec8262005438565b9050919050565b60008115159050919050565b60008190506200540f82620057f5565b919050565b6000819050919050565b60006dffffffffffffffffffffffffffff82169050919050565b600073ffffffffffffffffffffffffffffffffffffffff82169050919050565b6000819050919050565b600063ffffffff82169050919050565b60006200547f82620053ff565b9050919050565b6000620054938262005458565b9050919050565b60005b83811015620054ba5780820151818401526020810190506200549d565b83811115620054ca576000848401525b50505050565b620054db8262005691565b810181811067ffffffffffffffff82111715620054fd57620054fc62005610565b5b80604052505050565b6000620055138262005458565b91507fffffffffffffffffffffffffffffffffffffffffffffffffffffffffffffffff82141562005549576200554862005554565b5b600182019050919050565b7f4e487b7100000000000000000000000000000000000000000000000000000000600052601160045260246000fd5b7f4e487b7100000000000000000000000000000000000000000000000000000000600052601260045260246000fd5b7f4e487b7100000000000000000000000000000000000000000000000000000000600052602160045260246000fd5b7f4e487b7100000000000000000000000000000000000000000000000000000000600052603260045260246000fd5b7f4e487b7100000000000000000000000000000000000000000000000000000000600052604160045260246000fd5b600060033d1115620056615760046000803e6200565e600051620056a2565b90505b90565b600080fd5b600080fd5b600080fd5b600080fd5b600080fd5b600080fd5b600080fd5b600080fd5b600080fd5b6000601f19601f8301169050919050565b60008160e01c9050919050565b7f746f6b656e496e206e6f74206265207a65726f00000000000000000000000000600082015250565b7f706f6f6c20646f6573206e6f7420657869737400000000000000000000000000600082015250565b7f7472616e7366657246726f6d206661696c000000000000000000000000000000600082015250565b7f7472616e73666572206661696c00000000000000000000000000000000000000600082015250565b600060443d10156200576557620057f2565b6200576f620050b4565b60043d036004823e80513d602482011167ffffffffffffffff8211171562005799575050620057f2565b808201805167ffffffffffffffff811115620057b95750505050620057f2565b80602083010160043d038501811115620057d8575050505050620057f2565b620057e982602001850186620054d0565b82955050505050505b90565b60038110620058095762005808620055b2565b5b50565b6200581781620053df565b81146200582357600080fd5b50565b6200583181620053f3565b81146200583d57600080fd5b50565b600381106200584e57600080fd5b50565b6200585c8162005414565b81146200586857600080fd5b50565b62005876816200541e565b81146200588257600080fd5b50565b620058908162005458565b81146200589c57600080fd5b50565b620058aa8162005462565b8114620058b657600080fd5b5056fe608060405234801561001057600080fd5b50604051610380380380610380833981810160405281019061003291906101bf565b8173ffffffffffffffffffffffffffffffffffffffff1663095ea7b3337fffffffffffffffffffffffffffffffffffffffffffffffffffffffffffffffff6040518363ffffffff1660e01b815260040161008d92919061024a565b602060405180830381600087803b1580156100a757600080fd5b505af11580156100bb573d6000803e3d6000fd5b505050506040513d601f19601f820116820180604052508101906100df91906101ff565b508073ffffffffffffffffffffffffffffffffffffffff1663095ea7b3337fffffffffffffffffffffffffffffffffffffffffffffffffffffffffffffffff6040518363ffffffff1660e01b815260040161013b92919061024a565b602060405180830381600087803b15801561015557600080fd5b505af1158015610169573d6000803e3d6000fd5b505050506040513d601f19601f8201168201806040525081019061018d91906101ff565b5050506102ee565b6000815190506101a4816102c0565b92915050565b6000815190506101b9816102d7565b92915050565b600080604083850312156101d6576101d56102bb565b5b60006101e485828601610195565b92505060206101f585828601610195565b9150509250929050565b600060208284031215610215576102146102bb565b5b6000610223848285016101aa565b91505092915050565b61023581610273565b82525050565b610244816102b1565b82525050565b600060408201905061025f600083018561022c565b61026c602083018461023b565b9392505050565b600061027e82610291565b9050919050565b60008115159050919050565b600073ffffffffffffffffffffffffffffffffffffffff82169050919050565b6000819050919050565b600080fd5b6102c981610273565b81146102d457600080fd5b50565b6102e081610285565b81146102eb57600080fd5b50565b6084806102fc6000396000f3fe6080604052348015600f57600080fd5b506004361060285760003560e01c806341c0e1b514602d575b600080fd5b60336035565b005b3373ffffffffffffffffffffffffffffffffffffffff16fffea2646970667358221220c9382fb1b8117591f27e2f3fb21fa077ff2e77d30aa294cb0fba690d058fb7c464736f6c63430008070033a26469706673582212209bdd0be3e47196ac8ac16439ac6d5053e257e996794f7b43cf80ae5de112861f64736f6c63430008070033",
      "opcodes": "PUSH1 0x80 PUSH1 0x40 MSTORE PUSH1 0x0 DUP1 SSTORE PUSH1 0x0 PUSH1 0x1 SSTORE PUSH1 0x0 PUSH1 0x2 SSTORE ADDRESS PUSH1 0x4 PUSH1 0x0 PUSH2 0x100 EXP DUP2 SLOAD DUP2 PUSH20 0xFFFFFFFFFFFFFFFFFFFFFFFFFFFFFFFFFFFFFFFF MUL NOT AND SWAP1 DUP4 PUSH20 0xFFFFFFFFFFFFFFFFFFFFFFFFFFFFFFFFFFFFFFFF AND MUL OR SWAP1 SSTORE POP PUSH2 0x5C6F DUP1 PUSH2 0x62 PUSH1 0x0 CODECOPY PUSH1 0x0 RETURN INVALID PUSH1 0x80 PUSH1 0x40 MSTORE PUSH1 0x4 CALLDATASIZE LT PUSH3 0x55 JUMPI PUSH1 0x0 CALLDATALOAD PUSH1 0xE0 SHR DUP1 PUSH4 0x59EC6006 EQ PUSH3 0x62 JUMPI DUP1 PUSH4 0xBD698545 EQ PUSH3 0x98 JUMPI DUP1 PUSH4 0xE6952DDD EQ PUSH3 0xDC JUMPI DUP1 PUSH4 0xF18D03CC EQ PUSH3 0x112 JUMPI DUP1 PUSH4 0xF84419B1 EQ PUSH3 0x156 JUMPI PUSH3 0x5D JUMP JUMPDEST CALLDATASIZE PUSH3 0x5D JUMPI STOP JUMPDEST PUSH1 0x0 DUP1 REVERT JUMPDEST PUSH3 0x80 PUSH1 0x4 DUP1 CALLDATASIZE SUB DUP2 ADD SWAP1 PUSH3 0x7A SWAP2 SWAP1 PUSH3 0x42A9 JUMP JUMPDEST PUSH3 0x18D JUMP JUMPDEST PUSH1 0x40 MLOAD PUSH3 0x8F SWAP2 SWAP1 PUSH3 0x4EAF JUMP JUMPDEST PUSH1 0x40 MLOAD DUP1 SWAP2 SUB SWAP1 RETURN JUMPDEST CALLVALUE DUP1 ISZERO PUSH3 0xA5 JUMPI PUSH1 0x0 DUP1 REVERT JUMPDEST POP PUSH3 0xC4 PUSH1 0x4 DUP1 CALLDATASIZE SUB DUP2 ADD SWAP1 PUSH3 0xBE SWAP2 SWAP1 PUSH3 0x4184 JUMP JUMPDEST PUSH3 0x2F4 JUMP JUMPDEST PUSH1 0x40 MLOAD PUSH3 0xD3 SWAP2 SWAP1 PUSH3 0x4F78 JUMP JUMPDEST PUSH1 0x40 MLOAD DUP1 SWAP2 SUB SWAP1 RETURN JUMPDEST PUSH3 0xFA PUSH1 0x4 DUP1 CALLDATASIZE SUB DUP2 ADD SWAP1 PUSH3 0xF4 SWAP2 SWAP1 PUSH3 0x43B3 JUMP JUMPDEST PUSH3 0xAE0 JUMP JUMPDEST PUSH1 0x40 MLOAD PUSH3 0x109 SWAP2 SWAP1 PUSH3 0x4F9C JUMP JUMPDEST PUSH1 0x40 MLOAD DUP1 SWAP2 SUB SWAP1 RETURN JUMPDEST CALLVALUE DUP1 ISZERO PUSH3 0x11F JUMPI PUSH1 0x0 DUP1 REVERT JUMPDEST POP PUSH3 0x13E PUSH1 0x4 DUP1 CALLDATASIZE SUB DUP2 ADD SWAP1 PUSH3 0x138 SWAP2 SWAP1 PUSH3 0x4237 JUMP JUMPDEST PUSH3 0x1A50 JUMP JUMPDEST PUSH1 0x40 MLOAD PUSH3 0x14D SWAP2 SWAP1 PUSH3 0x4F78 JUMP JUMPDEST PUSH1 0x40 MLOAD DUP1 SWAP2 SUB SWAP1 RETURN JUMPDEST PUSH3 0x174 PUSH1 0x4 DUP1 CALLDATASIZE SUB DUP2 ADD SWAP1 PUSH3 0x16E SWAP2 SWAP1 PUSH3 0x4381 JUMP JUMPDEST PUSH3 0x1ADD JUMP JUMPDEST PUSH1 0x40 MLOAD PUSH3 0x184 SWAP3 SWAP2 SWAP1 PUSH3 0x4E82 JUMP JUMPDEST PUSH1 0x40 MLOAD DUP1 SWAP2 SUB SWAP1 RETURN JUMPDEST PUSH1 0x60 DUP3 DUP3 SWAP1 POP PUSH8 0xFFFFFFFFFFFFFFFF DUP2 GT ISZERO PUSH3 0x1AF JUMPI PUSH3 0x1AE PUSH3 0x5610 JUMP JUMPDEST JUMPDEST PUSH1 0x40 MLOAD SWAP1 DUP1 DUP3 MSTORE DUP1 PUSH1 0x20 MUL PUSH1 0x20 ADD DUP3 ADD PUSH1 0x40 MSTORE DUP1 ISZERO PUSH3 0x1EC JUMPI DUP2 PUSH1 0x20 ADD JUMPDEST PUSH3 0x1D8 PUSH3 0x3976 JUMP JUMPDEST DUP2 MSTORE PUSH1 0x20 ADD SWAP1 PUSH1 0x1 SWAP1 SUB SWAP1 DUP2 PUSH3 0x1CE JUMPI SWAP1 POP JUMPDEST POP SWAP1 POP PUSH1 0x0 JUMPDEST DUP4 DUP4 SWAP1 POP DUP2 LT ISZERO PUSH3 0x2ED JUMPI ADDRESS PUSH20 0xFFFFFFFFFFFFFFFFFFFFFFFFFFFFFFFFFFFFFFFF AND PUSH4 0xE6952DDD DUP6 DUP6 DUP5 DUP2 DUP2 LT PUSH3 0x230 JUMPI PUSH3 0x22F PUSH3 0x55E1 JUMP JUMPDEST JUMPDEST SWAP1 POP PUSH1 0xE0 MUL ADD PUSH1 0x40 MLOAD DUP3 PUSH4 0xFFFFFFFF AND PUSH1 0xE0 SHL DUP2 MSTORE PUSH1 0x4 ADD PUSH3 0x254 SWAP2 SWAP1 PUSH3 0x4F5B JUMP JUMPDEST PUSH1 0x0 PUSH1 0x40 MLOAD DUP1 DUP4 SUB DUP2 PUSH1 0x0 DUP8 DUP1 EXTCODESIZE ISZERO DUP1 ISZERO PUSH3 0x26F JUMPI PUSH1 0x0 DUP1 REVERT JUMPDEST POP GAS CALL SWAP3 POP POP POP DUP1 ISZERO PUSH3 0x2A8 JUMPI POP PUSH1 0x40 MLOAD RETURNDATASIZE PUSH1 0x0 DUP3 RETURNDATACOPY RETURNDATASIZE PUSH1 0x1F NOT PUSH1 0x1F DUP3 ADD AND DUP3 ADD DUP1 PUSH1 0x40 MSTORE POP DUP2 ADD SWAP1 PUSH3 0x2A5 SWAP2 SWAP1 PUSH3 0x4436 JUMP JUMPDEST PUSH1 0x1 JUMPDEST PUSH3 0x2B3 JUMPI PUSH3 0x2D7 JUMP JUMPDEST DUP1 DUP4 DUP4 DUP2 MLOAD DUP2 LT PUSH3 0x2CA JUMPI PUSH3 0x2C9 PUSH3 0x55E1 JUMP JUMPDEST JUMPDEST PUSH1 0x20 MUL PUSH1 0x20 ADD ADD DUP2 SWAP1 MSTORE POP POP JUMPDEST DUP1 DUP1 PUSH3 0x2E4 SWAP1 PUSH3 0x5506 JUMP JUMPDEST SWAP2 POP POP PUSH3 0x1F2 JUMP JUMPDEST POP SWAP3 SWAP2 POP POP JUMP JUMPDEST PUSH3 0x2FE PUSH3 0x39DB JUMP JUMPDEST PUSH1 0x1 DUP2 PUSH1 0x0 ADD SWAP1 PUSH1 0x2 DUP2 GT ISZERO PUSH3 0x31A JUMPI PUSH3 0x319 PUSH3 0x55B2 JUMP JUMPDEST JUMPDEST SWAP1 DUP2 PUSH1 0x2 DUP2 GT ISZERO PUSH3 0x331 JUMPI PUSH3 0x330 PUSH3 0x55B2 JUMP JUMPDEST JUMPDEST DUP2 MSTORE POP POP GAS DUP2 PUSH1 0x20 ADD DUP2 DUP2 MSTORE POP POP PUSH1 0x0 DUP9 PUSH20 0xFFFFFFFFFFFFFFFFFFFFFFFFFFFFFFFFFFFFFFFF AND PUSH4 0xC45A0155 PUSH1 0x40 MLOAD DUP2 PUSH4 0xFFFFFFFF AND PUSH1 0xE0 SHL DUP2 MSTORE PUSH1 0x4 ADD PUSH1 0x20 PUSH1 0x40 MLOAD DUP1 DUP4 SUB DUP2 DUP7 DUP1 EXTCODESIZE ISZERO DUP1 ISZERO PUSH3 0x388 JUMPI PUSH1 0x0 DUP1 REVERT JUMPDEST POP GAS STATICCALL ISZERO DUP1 ISZERO PUSH3 0x39D JUMPI RETURNDATASIZE PUSH1 0x0 DUP1 RETURNDATACOPY RETURNDATASIZE PUSH1 0x0 REVERT JUMPDEST POP POP POP POP PUSH1 0x40 MLOAD RETURNDATASIZE PUSH1 0x1F NOT PUSH1 0x1F DUP3 ADD AND DUP3 ADD DUP1 PUSH1 0x40 MSTORE POP DUP2 ADD SWAP1 PUSH3 0x3C3 SWAP2 SWAP1 PUSH3 0x4152 JUMP JUMPDEST PUSH20 0xFFFFFFFFFFFFFFFFFFFFFFFFFFFFFFFFFFFFFFFF AND PUSH4 0xE6A43905 DUP10 DUP10 PUSH1 0x40 MLOAD DUP4 PUSH4 0xFFFFFFFF AND PUSH1 0xE0 SHL DUP2 MSTORE PUSH1 0x4 ADD PUSH3 0x3FF SWAP3 SWAP2 SWAP1 PUSH3 0x4CD1 JUMP JUMPDEST PUSH1 0x20 PUSH1 0x40 MLOAD DUP1 DUP4 SUB DUP2 DUP7 DUP1 EXTCODESIZE ISZERO DUP1 ISZERO PUSH3 0x418 JUMPI PUSH1 0x0 DUP1 REVERT JUMPDEST POP GAS STATICCALL ISZERO DUP1 ISZERO PUSH3 0x42D JUMPI RETURNDATASIZE PUSH1 0x0 DUP1 RETURNDATACOPY RETURNDATASIZE PUSH1 0x0 REVERT JUMPDEST POP POP POP POP PUSH1 0x40 MLOAD RETURNDATASIZE PUSH1 0x1F NOT PUSH1 0x1F DUP3 ADD AND DUP3 ADD DUP1 PUSH1 0x40 MSTORE POP DUP2 ADD SWAP1 PUSH3 0x453 SWAP2 SWAP1 PUSH3 0x4152 JUMP JUMPDEST SWAP1 POP PUSH1 0x0 PUSH20 0xFFFFFFFFFFFFFFFFFFFFFFFFFFFFFFFFFFFFFFFF AND DUP2 PUSH20 0xFFFFFFFFFFFFFFFFFFFFFFFFFFFFFFFFFFFFFFFF AND EQ ISZERO PUSH3 0x4C8 JUMPI PUSH1 0x40 MLOAD PUSH32 0x8C379A000000000000000000000000000000000000000000000000000000000 DUP2 MSTORE PUSH1 0x4 ADD PUSH3 0x4BF SWAP1 PUSH3 0x4EF5 JUMP JUMPDEST PUSH1 0x40 MLOAD DUP1 SWAP2 SUB SWAP1 REVERT JUMPDEST PUSH1 0x0 DUP2 SWAP1 POP PUSH1 0x0 DUP10 SWAP1 POP PUSH1 0x0 PUSH1 0x2 PUSH8 0xFFFFFFFFFFFFFFFF DUP2 GT ISZERO PUSH3 0x4F2 JUMPI PUSH3 0x4F1 PUSH3 0x5610 JUMP JUMPDEST JUMPDEST PUSH1 0x40 MLOAD SWAP1 DUP1 DUP3 MSTORE DUP1 PUSH1 0x20 MUL PUSH1 0x20 ADD DUP3 ADD PUSH1 0x40 MSTORE DUP1 ISZERO PUSH3 0x521 JUMPI DUP2 PUSH1 0x20 ADD PUSH1 0x20 DUP3 MUL DUP1 CALLDATASIZE DUP4 CALLDATACOPY DUP1 DUP3 ADD SWAP2 POP POP SWAP1 POP JUMPDEST POP SWAP1 POP DUP11 DUP2 PUSH1 0x0 DUP2 MLOAD DUP2 LT PUSH3 0x53C JUMPI PUSH3 0x53B PUSH3 0x55E1 JUMP JUMPDEST JUMPDEST PUSH1 0x20 MUL PUSH1 0x20 ADD ADD SWAP1 PUSH20 0xFFFFFFFFFFFFFFFFFFFFFFFFFFFFFFFFFFFFFFFF AND SWAP1 DUP2 PUSH20 0xFFFFFFFFFFFFFFFFFFFFFFFFFFFFFFFFFFFFFFFF AND DUP2 MSTORE POP POP DUP10 DUP2 PUSH1 0x1 DUP2 MLOAD DUP2 LT PUSH3 0x58E JUMPI PUSH3 0x58D PUSH3 0x55E1 JUMP JUMPDEST JUMPDEST PUSH1 0x20 MUL PUSH1 0x20 ADD ADD SWAP1 PUSH20 0xFFFFFFFFFFFFFFFFFFFFFFFFFFFFFFFFFFFFFFFF AND SWAP1 DUP2 PUSH20 0xFFFFFFFFFFFFFFFFFFFFFFFFFFFFFFFFFFFFFFFF AND DUP2 MSTORE POP POP PUSH1 0x0 DUP8 EQ DUP1 ISZERO PUSH3 0x5DA JUMPI POP PUSH1 0x0 DUP7 EQ ISZERO JUMPDEST ISZERO PUSH3 0x697 JUMPI DUP12 PUSH20 0xFFFFFFFFFFFFFFFFFFFFFFFFFFFFFFFFFFFFFFFF AND PUSH4 0x1F00CA74 DUP8 DUP4 PUSH1 0x40 MLOAD DUP4 PUSH4 0xFFFFFFFF AND PUSH1 0xE0 SHL DUP2 MSTORE PUSH1 0x4 ADD PUSH3 0x61D SWAP3 SWAP2 SWAP1 PUSH3 0x4FC0 JUMP JUMPDEST PUSH1 0x0 PUSH1 0x40 MLOAD DUP1 DUP4 SUB DUP2 DUP7 DUP1 EXTCODESIZE ISZERO DUP1 ISZERO PUSH3 0x636 JUMPI PUSH1 0x0 DUP1 REVERT JUMPDEST POP GAS STATICCALL ISZERO DUP1 ISZERO PUSH3 0x64B JUMPI RETURNDATASIZE PUSH1 0x0 DUP1 RETURNDATACOPY RETURNDATASIZE PUSH1 0x0 REVERT JUMPDEST POP POP POP POP PUSH1 0x40 MLOAD RETURNDATASIZE PUSH1 0x0 DUP3 RETURNDATACOPY RETURNDATASIZE PUSH1 0x1F NOT PUSH1 0x1F DUP3 ADD AND DUP3 ADD DUP1 PUSH1 0x40 MSTORE POP DUP2 ADD SWAP1 PUSH3 0x676 SWAP2 SWAP1 PUSH3 0x42FE JUMP JUMPDEST PUSH1 0x0 DUP2 MLOAD DUP2 LT PUSH3 0x68C JUMPI PUSH3 0x68B PUSH3 0x55E1 JUMP JUMPDEST JUMPDEST PUSH1 0x20 MUL PUSH1 0x20 ADD ADD MLOAD SWAP7 POP JUMPDEST PUSH1 0x0 DUP8 GT PUSH3 0x6DD JUMPI PUSH1 0x40 MLOAD PUSH32 0x8C379A000000000000000000000000000000000000000000000000000000000 DUP2 MSTORE PUSH1 0x4 ADD PUSH3 0x6D4 SWAP1 PUSH3 0x4ED3 JUMP JUMPDEST PUSH1 0x40 MLOAD DUP1 SWAP2 SUB SWAP1 REVERT JUMPDEST PUSH2 0x2710 PUSH2 0x270F DUP4 PUSH20 0xFFFFFFFFFFFFFFFFFFFFFFFFFFFFFFFFFFFFFFFF AND PUSH4 0x70A08231 DUP8 PUSH1 0x40 MLOAD DUP3 PUSH4 0xFFFFFFFF AND PUSH1 0xE0 SHL DUP2 MSTORE PUSH1 0x4 ADD PUSH3 0x71E SWAP2 SWAP1 PUSH3 0x4CB4 JUMP JUMPDEST PUSH1 0x20 PUSH1 0x40 MLOAD DUP1 DUP4 SUB DUP2 DUP7 DUP1 EXTCODESIZE ISZERO DUP1 ISZERO PUSH3 0x737 JUMPI PUSH1 0x0 DUP1 REVERT JUMPDEST POP GAS STATICCALL ISZERO DUP1 ISZERO PUSH3 0x74C JUMPI RETURNDATASIZE PUSH1 0x0 DUP1 RETURNDATACOPY RETURNDATASIZE PUSH1 0x0 REVERT JUMPDEST POP POP POP POP PUSH1 0x40 MLOAD RETURNDATASIZE PUSH1 0x1F NOT PUSH1 0x1F DUP3 ADD AND DUP3 ADD DUP1 PUSH1 0x40 MSTORE POP DUP2 ADD SWAP1 PUSH3 0x772 SWAP2 SWAP1 PUSH3 0x44E3 JUMP JUMPDEST PUSH3 0x77E SWAP2 SWAP1 PUSH3 0x52A5 JUMP JUMPDEST PUSH3 0x78A SWAP2 SWAP1 PUSH3 0x526D JUMP JUMPDEST DUP8 GT ISZERO PUSH3 0x842 JUMPI PUSH2 0x2710 PUSH2 0x270F DUP4 PUSH20 0xFFFFFFFFFFFFFFFFFFFFFFFFFFFFFFFFFFFFFFFF AND PUSH4 0x70A08231 DUP8 PUSH1 0x40 MLOAD DUP3 PUSH4 0xFFFFFFFF AND PUSH1 0xE0 SHL DUP2 MSTORE PUSH1 0x4 ADD PUSH3 0x7D3 SWAP2 SWAP1 PUSH3 0x4CB4 JUMP JUMPDEST PUSH1 0x20 PUSH1 0x40 MLOAD DUP1 DUP4 SUB DUP2 DUP7 DUP1 EXTCODESIZE ISZERO DUP1 ISZERO PUSH3 0x7EC JUMPI PUSH1 0x0 DUP1 REVERT JUMPDEST POP GAS STATICCALL ISZERO DUP1 ISZERO PUSH3 0x801 JUMPI RETURNDATASIZE PUSH1 0x0 DUP1 RETURNDATACOPY RETURNDATASIZE PUSH1 0x0 REVERT JUMPDEST POP POP POP POP PUSH1 0x40 MLOAD RETURNDATASIZE PUSH1 0x1F NOT PUSH1 0x1F DUP3 ADD AND DUP3 ADD DUP1 PUSH1 0x40 MSTORE POP DUP2 ADD SWAP1 PUSH3 0x827 SWAP2 SWAP1 PUSH3 0x44E3 JUMP JUMPDEST PUSH3 0x833 SWAP2 SWAP1 PUSH3 0x52A5 JUMP JUMPDEST PUSH3 0x83F SWAP2 SWAP1 PUSH3 0x526D JUMP JUMPDEST SWAP7 POP JUMPDEST PUSH3 0x852 DUP12 DUP11 DUP7 DUP11 PUSH1 0x1 PUSH3 0x21BB JUMP JUMPDEST DUP6 PUSH1 0x40 ADD DUP2 SWAP1 MSTORE POP PUSH1 0x0 DUP1 DUP13 PUSH20 0xFFFFFFFFFFFFFFFFFFFFFFFFFFFFFFFFFFFFFFFF AND DUP6 PUSH20 0xFFFFFFFFFFFFFFFFFFFFFFFFFFFFFFFFFFFFFFFF AND PUSH4 0xDFE1681 PUSH1 0x40 MLOAD DUP2 PUSH4 0xFFFFFFFF AND PUSH1 0xE0 SHL DUP2 MSTORE PUSH1 0x4 ADD PUSH1 0x20 PUSH1 0x40 MLOAD DUP1 DUP4 SUB DUP2 DUP7 DUP1 EXTCODESIZE ISZERO DUP1 ISZERO PUSH3 0x8BB JUMPI PUSH1 0x0 DUP1 REVERT JUMPDEST POP GAS STATICCALL ISZERO DUP1 ISZERO PUSH3 0x8D0 JUMPI RETURNDATASIZE PUSH1 0x0 DUP1 RETURNDATACOPY RETURNDATASIZE PUSH1 0x0 REVERT JUMPDEST POP POP POP POP PUSH1 0x40 MLOAD RETURNDATASIZE PUSH1 0x1F NOT PUSH1 0x1F DUP3 ADD AND DUP3 ADD DUP1 PUSH1 0x40 MSTORE POP DUP2 ADD SWAP1 PUSH3 0x8F6 SWAP2 SWAP1 PUSH3 0x4152 JUMP JUMPDEST PUSH20 0xFFFFFFFFFFFFFFFFFFFFFFFFFFFFFFFFFFFFFFFF AND EQ ISZERO PUSH3 0x9DB JUMPI DUP14 PUSH20 0xFFFFFFFFFFFFFFFFFFFFFFFFFFFFFFFFFFFFFFFF AND PUSH4 0xD06CA61F DUP9 PUSH1 0x40 ADD MLOAD PUSH1 0xC0 ADD MLOAD DUP6 PUSH1 0x40 MLOAD DUP4 PUSH4 0xFFFFFFFF AND PUSH1 0xE0 SHL DUP2 MSTORE PUSH1 0x4 ADD PUSH3 0x958 SWAP3 SWAP2 SWAP1 PUSH3 0x4FC0 JUMP JUMPDEST PUSH1 0x0 PUSH1 0x40 MLOAD DUP1 DUP4 SUB DUP2 DUP7 DUP1 EXTCODESIZE ISZERO DUP1 ISZERO PUSH3 0x971 JUMPI PUSH1 0x0 DUP1 REVERT JUMPDEST POP GAS STATICCALL ISZERO DUP1 ISZERO PUSH3 0x986 JUMPI RETURNDATASIZE PUSH1 0x0 DUP1 RETURNDATACOPY RETURNDATASIZE PUSH1 0x0 REVERT JUMPDEST POP POP POP POP PUSH1 0x40 MLOAD RETURNDATASIZE PUSH1 0x0 DUP3 RETURNDATACOPY RETURNDATASIZE PUSH1 0x1F NOT PUSH1 0x1F DUP3 ADD AND DUP3 ADD DUP1 PUSH1 0x40 MSTORE POP DUP2 ADD SWAP1 PUSH3 0x9B1 SWAP2 SWAP1 PUSH3 0x42FE JUMP JUMPDEST PUSH1 0x1 DUP2 MLOAD DUP2 LT PUSH3 0x9C7 JUMPI PUSH3 0x9C6 PUSH3 0x55E1 JUMP JUMPDEST JUMPDEST PUSH1 0x20 MUL PUSH1 0x20 ADD ADD MLOAD SWAP2 POP PUSH1 0x0 SWAP1 POP PUSH3 0xA9E JUMP JUMPDEST DUP14 PUSH20 0xFFFFFFFFFFFFFFFFFFFFFFFFFFFFFFFFFFFFFFFF AND PUSH4 0xD06CA61F DUP9 PUSH1 0x40 ADD MLOAD PUSH1 0xC0 ADD MLOAD DUP6 PUSH1 0x40 MLOAD DUP4 PUSH4 0xFFFFFFFF AND PUSH1 0xE0 SHL DUP2 MSTORE PUSH1 0x4 ADD PUSH3 0xA20 SWAP3 SWAP2 SWAP1 PUSH3 0x4FC0 JUMP JUMPDEST PUSH1 0x0 PUSH1 0x40 MLOAD DUP1 DUP4 SUB DUP2 DUP7 DUP1 EXTCODESIZE ISZERO DUP1 ISZERO PUSH3 0xA39 JUMPI PUSH1 0x0 DUP1 REVERT JUMPDEST POP GAS STATICCALL ISZERO DUP1 ISZERO PUSH3 0xA4E JUMPI RETURNDATASIZE PUSH1 0x0 DUP1 RETURNDATACOPY RETURNDATASIZE PUSH1 0x0 REVERT JUMPDEST POP POP POP POP PUSH1 0x40 MLOAD RETURNDATASIZE PUSH1 0x0 DUP3 RETURNDATACOPY RETURNDATASIZE PUSH1 0x1F NOT PUSH1 0x1F DUP3 ADD AND DUP3 ADD DUP1 PUSH1 0x40 MSTORE POP DUP2 ADD SWAP1 PUSH3 0xA79 SWAP2 SWAP1 PUSH3 0x42FE JUMP JUMPDEST PUSH1 0x1 DUP2 MLOAD DUP2 LT PUSH3 0xA8F JUMPI PUSH3 0xA8E PUSH3 0x55E1 JUMP JUMPDEST JUMPDEST PUSH1 0x20 MUL PUSH1 0x20 ADD ADD MLOAD SWAP1 POP PUSH1 0x0 SWAP2 POP JUMPDEST PUSH3 0xAAC DUP7 DUP3 DUP5 DUP14 PUSH3 0x32EF JUMP JUMPDEST DUP8 PUSH1 0x60 ADD DUP2 SWAP1 MSTORE POP GAS DUP8 PUSH1 0x20 ADD DUP2 DUP2 MLOAD PUSH3 0xAC8 SWAP2 SWAP1 PUSH3 0x53A4 JUMP JUMPDEST SWAP2 POP DUP2 DUP2 MSTORE POP POP POP POP POP POP POP POP SWAP8 SWAP7 POP POP POP POP POP POP POP JUMP JUMPDEST PUSH3 0xAEA PUSH3 0x3976 JUMP JUMPDEST PUSH1 0x1 SLOAD NUMBER GT ISZERO PUSH3 0xB20 JUMPI NUMBER PUSH1 0x1 DUP2 SWAP1 SSTORE POP PUSH1 0x0 PUSH1 0x2 DUP2 SWAP1 SSTORE POP PUSH1 0x1 PUSH1 0x0 DUP1 DUP3 DUP3 SLOAD PUSH3 0xB18 SWAP2 SWAP1 PUSH3 0x5210 JUMP JUMPDEST SWAP3 POP POP DUP2 SWAP1 SSTORE POP JUMPDEST PUSH1 0x1 PUSH1 0x2 PUSH1 0x0 DUP3 DUP3 SLOAD PUSH3 0xB35 SWAP2 SWAP1 PUSH3 0x5210 JUMP JUMPDEST SWAP3 POP POP DUP2 SWAP1 SSTORE POP DUP2 PUSH1 0x0 ADD PUSH1 0x20 DUP2 ADD SWAP1 PUSH3 0xB51 SWAP2 SWAP1 PUSH3 0x4120 JUMP JUMPDEST DUP3 PUSH1 0x20 ADD PUSH1 0x20 DUP2 ADD SWAP1 PUSH3 0xB66 SWAP2 SWAP1 PUSH3 0x4120 JUMP JUMPDEST PUSH1 0x0 SELFBALANCE GT ISZERO PUSH3 0xEE1 JUMPI PUSH1 0x0 DUP3 PUSH20 0xFFFFFFFFFFFFFFFFFFFFFFFFFFFFFFFFFFFFFFFF AND PUSH4 0xAD5C4648 PUSH1 0x40 MLOAD DUP2 PUSH4 0xFFFFFFFF AND PUSH1 0xE0 SHL DUP2 MSTORE PUSH1 0x4 ADD PUSH1 0x20 PUSH1 0x40 MLOAD DUP1 DUP4 SUB DUP2 DUP7 DUP1 EXTCODESIZE ISZERO DUP1 ISZERO PUSH3 0xBB9 JUMPI PUSH1 0x0 DUP1 REVERT JUMPDEST POP GAS STATICCALL ISZERO DUP1 ISZERO PUSH3 0xBCE JUMPI RETURNDATASIZE PUSH1 0x0 DUP1 RETURNDATACOPY RETURNDATASIZE PUSH1 0x0 REVERT JUMPDEST POP POP POP POP PUSH1 0x40 MLOAD RETURNDATASIZE PUSH1 0x1F NOT PUSH1 0x1F DUP3 ADD AND DUP3 ADD DUP1 PUSH1 0x40 MSTORE POP DUP2 ADD SWAP1 PUSH3 0xBF4 SWAP2 SWAP1 PUSH3 0x4152 JUMP JUMPDEST SWAP1 POP DUP1 PUSH20 0xFFFFFFFFFFFFFFFFFFFFFFFFFFFFFFFFFFFFFFFF AND PUSH4 0xD0E30DB0 PUSH1 0x4 PUSH1 0x0 SWAP1 SLOAD SWAP1 PUSH2 0x100 EXP SWAP1 DIV PUSH20 0xFFFFFFFFFFFFFFFFFFFFFFFFFFFFFFFFFFFFFFFF AND PUSH20 0xFFFFFFFFFFFFFFFFFFFFFFFFFFFFFFFFFFFFFFFF AND BALANCE PUSH1 0x40 MLOAD DUP3 PUSH4 0xFFFFFFFF AND PUSH1 0xE0 SHL DUP2 MSTORE PUSH1 0x4 ADD PUSH1 0x0 PUSH1 0x40 MLOAD DUP1 DUP4 SUB DUP2 DUP6 DUP9 DUP1 EXTCODESIZE ISZERO DUP1 ISZERO PUSH3 0xC78 JUMPI PUSH1 0x0 DUP1 REVERT JUMPDEST POP GAS CALL ISZERO DUP1 ISZERO PUSH3 0xC8D JUMPI RETURNDATASIZE PUSH1 0x0 DUP1 RETURNDATACOPY RETURNDATASIZE PUSH1 0x0 REVERT JUMPDEST POP POP POP POP POP DUP1 PUSH20 0xFFFFFFFFFFFFFFFFFFFFFFFFFFFFFFFFFFFFFFFF AND DUP3 PUSH20 0xFFFFFFFFFFFFFFFFFFFFFFFFFFFFFFFFFFFFFFFF AND EQ ISZERO DUP1 ISZERO PUSH3 0xD7F JUMPI POP PUSH1 0x0 DUP2 PUSH20 0xFFFFFFFFFFFFFFFFFFFFFFFFFFFFFFFFFFFFFFFF AND PUSH4 0x70A08231 PUSH1 0x4 PUSH1 0x0 SWAP1 SLOAD SWAP1 PUSH2 0x100 EXP SWAP1 DIV PUSH20 0xFFFFFFFFFFFFFFFFFFFFFFFFFFFFFFFFFFFFFFFF AND PUSH1 0x40 MLOAD DUP3 PUSH4 0xFFFFFFFF AND PUSH1 0xE0 SHL DUP2 MSTORE PUSH1 0x4 ADD PUSH3 0xD29 SWAP2 SWAP1 PUSH3 0x4CB4 JUMP JUMPDEST PUSH1 0x20 PUSH1 0x40 MLOAD DUP1 DUP4 SUB DUP2 DUP7 DUP1 EXTCODESIZE ISZERO DUP1 ISZERO PUSH3 0xD42 JUMPI PUSH1 0x0 DUP1 REVERT JUMPDEST POP GAS STATICCALL ISZERO DUP1 ISZERO PUSH3 0xD57 JUMPI RETURNDATASIZE PUSH1 0x0 DUP1 RETURNDATACOPY RETURNDATASIZE PUSH1 0x0 REVERT JUMPDEST POP POP POP POP PUSH1 0x40 MLOAD RETURNDATASIZE PUSH1 0x1F NOT PUSH1 0x1F DUP3 ADD AND DUP3 ADD DUP1 PUSH1 0x40 MSTORE POP DUP2 ADD SWAP1 PUSH3 0xD7D SWAP2 SWAP1 PUSH3 0x44E3 JUMP JUMPDEST GT JUMPDEST ISZERO PUSH3 0xEDF JUMPI ADDRESS PUSH20 0xFFFFFFFFFFFFFFFFFFFFFFFFFFFFFFFFFFFFFFFF AND PUSH4 0xBD698545 DUP5 DUP4 DUP6 ADDRESS ADDRESS DUP8 PUSH20 0xFFFFFFFFFFFFFFFFFFFFFFFFFFFFFFFFFFFFFFFF AND PUSH4 0x70A08231 PUSH1 0x4 PUSH1 0x0 SWAP1 SLOAD SWAP1 PUSH2 0x100 EXP SWAP1 DIV PUSH20 0xFFFFFFFFFFFFFFFFFFFFFFFFFFFFFFFFFFFFFFFF AND PUSH1 0x40 MLOAD DUP3 PUSH4 0xFFFFFFFF AND PUSH1 0xE0 SHL DUP2 MSTORE PUSH1 0x4 ADD PUSH3 0xE03 SWAP2 SWAP1 PUSH3 0x4CB4 JUMP JUMPDEST PUSH1 0x20 PUSH1 0x40 MLOAD DUP1 DUP4 SUB DUP2 DUP7 DUP1 EXTCODESIZE ISZERO DUP1 ISZERO PUSH3 0xE1C JUMPI PUSH1 0x0 DUP1 REVERT JUMPDEST POP GAS STATICCALL ISZERO DUP1 ISZERO PUSH3 0xE31 JUMPI RETURNDATASIZE PUSH1 0x0 DUP1 RETURNDATACOPY RETURNDATASIZE PUSH1 0x0 REVERT JUMPDEST POP POP POP POP PUSH1 0x40 MLOAD RETURNDATASIZE PUSH1 0x1F NOT PUSH1 0x1F DUP3 ADD AND DUP3 ADD DUP1 PUSH1 0x40 MSTORE POP DUP2 ADD SWAP1 PUSH3 0xE57 SWAP2 SWAP1 PUSH3 0x44E3 JUMP JUMPDEST PUSH1 0x0 PUSH1 0x40 MLOAD DUP9 PUSH4 0xFFFFFFFF AND PUSH1 0xE0 SHL DUP2 MSTORE PUSH1 0x4 ADD PUSH3 0xE7D SWAP8 SWAP7 SWAP6 SWAP5 SWAP4 SWAP3 SWAP2 SWAP1 PUSH3 0x4D7B JUMP JUMPDEST PUSH1 0x0 PUSH1 0x40 MLOAD DUP1 DUP4 SUB DUP2 PUSH1 0x0 DUP8 DUP1 EXTCODESIZE ISZERO DUP1 ISZERO PUSH3 0xE98 JUMPI PUSH1 0x0 DUP1 REVERT JUMPDEST POP GAS CALL SWAP3 POP POP POP DUP1 ISZERO PUSH3 0xED1 JUMPI POP PUSH1 0x40 MLOAD RETURNDATASIZE PUSH1 0x0 DUP3 RETURNDATACOPY RETURNDATASIZE PUSH1 0x1F NOT PUSH1 0x1F DUP3 ADD AND DUP3 ADD DUP1 PUSH1 0x40 MSTORE POP DUP2 ADD SWAP1 PUSH3 0xECE SWAP2 SWAP1 PUSH3 0x43E5 JUMP JUMPDEST PUSH1 0x1 JUMPDEST PUSH3 0xEDC JUMPI PUSH3 0xEDE JUMP JUMPDEST POP JUMPDEST JUMPDEST POP JUMPDEST PUSH1 0x0 SLOAD DUP4 PUSH1 0x0 ADD DUP2 DUP2 MSTORE POP POP PUSH1 0x2 SLOAD DUP4 PUSH1 0x20 ADD DUP2 DUP2 MSTORE POP POP NUMBER DUP4 PUSH1 0xC0 ADD DUP2 DUP2 MSTORE POP POP TIMESTAMP DUP4 PUSH1 0xE0 ADD DUP2 DUP2 MSTORE POP POP PUSH1 0x0 PUSH1 0x1 PUSH20 0xFFFFFFFFFFFFFFFFFFFFFFFFFFFFFFFFFFFFFFFF AND DUP6 PUSH1 0x60 ADD PUSH1 0x20 DUP2 ADD SWAP1 PUSH3 0xF3C SWAP2 SWAP1 PUSH3 0x4120 JUMP JUMPDEST PUSH20 0xFFFFFFFFFFFFFFFFFFFFFFFFFFFFFFFFFFFFFFFF AND EQ PUSH3 0xF73 JUMPI DUP5 PUSH1 0x60 ADD PUSH1 0x20 DUP2 ADD SWAP1 PUSH3 0xF6D SWAP2 SWAP1 PUSH3 0x4120 JUMP JUMPDEST PUSH3 0xFA8 JUMP JUMPDEST PUSH3 0xFA7 DUP6 PUSH1 0x20 ADD PUSH1 0x20 DUP2 ADD SWAP1 PUSH3 0xF8C SWAP2 SWAP1 PUSH3 0x4120 JUMP JUMPDEST DUP7 PUSH1 0x40 ADD PUSH1 0x20 DUP2 ADD SWAP1 PUSH3 0xFA1 SWAP2 SWAP1 PUSH3 0x4120 JUMP JUMPDEST PUSH3 0x37E1 JUMP JUMPDEST JUMPDEST SWAP1 POP PUSH1 0x0 DUP6 PUSH1 0x20 ADD PUSH1 0x20 DUP2 ADD SWAP1 PUSH3 0xFC1 SWAP2 SWAP1 PUSH3 0x4120 JUMP JUMPDEST SWAP1 POP PUSH1 0x0 DUP7 PUSH1 0x40 ADD PUSH1 0x20 DUP2 ADD SWAP1 PUSH3 0xFDA SWAP2 SWAP1 PUSH3 0x4120 JUMP JUMPDEST SWAP1 POP PUSH1 0x0 DUP1 DUP9 PUSH1 0x80 ADD CALLDATALOAD GT ISZERO PUSH3 0x139A JUMPI PUSH1 0x0 DUP9 PUSH1 0x0 ADD PUSH1 0x20 DUP2 ADD SWAP1 PUSH3 0x1002 SWAP2 SWAP1 PUSH3 0x4120 JUMP JUMPDEST PUSH20 0xFFFFFFFFFFFFFFFFFFFFFFFFFFFFFFFFFFFFFFFF AND PUSH4 0xC45A0155 PUSH1 0x40 MLOAD DUP2 PUSH4 0xFFFFFFFF AND PUSH1 0xE0 SHL DUP2 MSTORE PUSH1 0x4 ADD PUSH1 0x20 PUSH1 0x40 MLOAD DUP1 DUP4 SUB DUP2 DUP7 DUP1 EXTCODESIZE ISZERO DUP1 ISZERO PUSH3 0x1048 JUMPI PUSH1 0x0 DUP1 REVERT JUMPDEST POP GAS STATICCALL ISZERO DUP1 ISZERO PUSH3 0x105D JUMPI RETURNDATASIZE PUSH1 0x0 DUP1 RETURNDATACOPY RETURNDATASIZE PUSH1 0x0 REVERT JUMPDEST POP POP POP POP PUSH1 0x40 MLOAD RETURNDATASIZE PUSH1 0x1F NOT PUSH1 0x1F DUP3 ADD AND DUP3 ADD DUP1 PUSH1 0x40 MSTORE POP DUP2 ADD SWAP1 PUSH3 0x1083 SWAP2 SWAP1 PUSH3 0x4152 JUMP JUMPDEST PUSH20 0xFFFFFFFFFFFFFFFFFFFFFFFFFFFFFFFFFFFFFFFF AND PUSH4 0xE6A43905 DUP11 PUSH1 0x20 ADD PUSH1 0x20 DUP2 ADD SWAP1 PUSH3 0x10B3 SWAP2 SWAP1 PUSH3 0x4120 JUMP JUMPDEST DUP12 PUSH1 0x40 ADD PUSH1 0x20 DUP2 ADD SWAP1 PUSH3 0x10C8 SWAP2 SWAP1 PUSH3 0x4120 JUMP JUMPDEST PUSH1 0x40 MLOAD DUP4 PUSH4 0xFFFFFFFF AND PUSH1 0xE0 SHL DUP2 MSTORE PUSH1 0x4 ADD PUSH3 0x10E7 SWAP3 SWAP2 SWAP1 PUSH3 0x4CD1 JUMP JUMPDEST PUSH1 0x20 PUSH1 0x40 MLOAD DUP1 DUP4 SUB DUP2 DUP7 DUP1 EXTCODESIZE ISZERO DUP1 ISZERO PUSH3 0x1100 JUMPI PUSH1 0x0 DUP1 REVERT JUMPDEST POP GAS STATICCALL ISZERO DUP1 ISZERO PUSH3 0x1115 JUMPI RETURNDATASIZE PUSH1 0x0 DUP1 RETURNDATACOPY RETURNDATASIZE PUSH1 0x0 REVERT JUMPDEST POP POP POP POP PUSH1 0x40 MLOAD RETURNDATASIZE PUSH1 0x1F NOT PUSH1 0x1F DUP3 ADD AND DUP3 ADD DUP1 PUSH1 0x40 MSTORE POP DUP2 ADD SWAP1 PUSH3 0x113B SWAP2 SWAP1 PUSH3 0x4152 JUMP JUMPDEST SWAP1 POP PUSH2 0x2710 DUP10 PUSH1 0x80 ADD CALLDATALOAD DUP5 PUSH20 0xFFFFFFFFFFFFFFFFFFFFFFFFFFFFFFFFFFFFFFFF AND PUSH4 0x70A08231 DUP5 PUSH1 0x40 MLOAD DUP3 PUSH4 0xFFFFFFFF AND PUSH1 0xE0 SHL DUP2 MSTORE PUSH1 0x4 ADD PUSH3 0x1180 SWAP2 SWAP1 PUSH3 0x4CB4 JUMP JUMPDEST PUSH1 0x20 PUSH1 0x40 MLOAD DUP1 DUP4 SUB DUP2 DUP7 DUP1 EXTCODESIZE ISZERO DUP1 ISZERO PUSH3 0x1199 JUMPI PUSH1 0x0 DUP1 REVERT JUMPDEST POP GAS STATICCALL ISZERO DUP1 ISZERO PUSH3 0x11AE JUMPI RETURNDATASIZE PUSH1 0x0 DUP1 RETURNDATACOPY RETURNDATASIZE PUSH1 0x0 REVERT JUMPDEST POP POP POP POP PUSH1 0x40 MLOAD RETURNDATASIZE PUSH1 0x1F NOT PUSH1 0x1F DUP3 ADD AND DUP3 ADD DUP1 PUSH1 0x40 MSTORE POP DUP2 ADD SWAP1 PUSH3 0x11D4 SWAP2 SWAP1 PUSH3 0x44E3 JUMP JUMPDEST PUSH3 0x11E0 SWAP2 SWAP1 PUSH3 0x52A5 JUMP JUMPDEST PUSH3 0x11EC SWAP2 SWAP1 PUSH3 0x526D JUMP JUMPDEST SWAP2 POP ADDRESS PUSH20 0xFFFFFFFFFFFFFFFFFFFFFFFFFFFFFFFFFFFFFFFF AND PUSH4 0xBD698545 DUP11 PUSH1 0x0 ADD PUSH1 0x20 DUP2 ADD SWAP1 PUSH3 0x121F SWAP2 SWAP1 PUSH3 0x4120 JUMP JUMPDEST DUP12 PUSH1 0x20 ADD PUSH1 0x20 DUP2 ADD SWAP1 PUSH3 0x1234 SWAP2 SWAP1 PUSH3 0x4120 JUMP JUMPDEST DUP13 PUSH1 0x40 ADD PUSH1 0x20 DUP2 ADD SWAP1 PUSH3 0x1249 SWAP2 SWAP1 PUSH3 0x4120 JUMP JUMPDEST ADDRESS DUP11 PUSH1 0x0 DUP10 PUSH1 0x40 MLOAD DUP9 PUSH4 0xFFFFFFFF AND PUSH1 0xE0 SHL DUP2 MSTORE PUSH1 0x4 ADD PUSH3 0x1272 SWAP8 SWAP7 SWAP6 SWAP5 SWAP4 SWAP3 SWAP2 SWAP1 PUSH3 0x4CFE JUMP JUMPDEST PUSH1 0x0 PUSH1 0x40 MLOAD DUP1 DUP4 SUB DUP2 PUSH1 0x0 DUP8 DUP1 EXTCODESIZE ISZERO DUP1 ISZERO PUSH3 0x128D JUMPI PUSH1 0x0 DUP1 REVERT JUMPDEST POP GAS CALL SWAP3 POP POP POP DUP1 ISZERO PUSH3 0x12C6 JUMPI POP PUSH1 0x40 MLOAD RETURNDATASIZE PUSH1 0x0 DUP3 RETURNDATACOPY RETURNDATASIZE PUSH1 0x1F NOT PUSH1 0x1F DUP3 ADD AND DUP3 ADD DUP1 PUSH1 0x40 MSTORE POP DUP2 ADD SWAP1 PUSH3 0x12C3 SWAP2 SWAP1 PUSH3 0x43E5 JUMP JUMPDEST PUSH1 0x1 JUMPDEST PUSH3 0x138D JUMPI PUSH3 0x12D5 PUSH3 0x563F JUMP JUMPDEST DUP1 PUSH4 0x8C379A0 EQ ISZERO PUSH3 0x1349 JUMPI POP PUSH3 0x12ED PUSH3 0x5753 JUMP JUMPDEST DUP1 PUSH3 0x12FA JUMPI POP PUSH3 0x134B JUMP JUMPDEST PUSH1 0x2 DUP10 PUSH1 0x40 ADD MLOAD PUSH1 0x0 ADD SWAP1 PUSH1 0x2 DUP2 GT ISZERO PUSH3 0x131A JUMPI PUSH3 0x1319 PUSH3 0x55B2 JUMP JUMPDEST JUMPDEST SWAP1 DUP2 PUSH1 0x2 DUP2 GT ISZERO PUSH3 0x1331 JUMPI PUSH3 0x1330 PUSH3 0x55B2 JUMP JUMPDEST JUMPDEST DUP2 MSTORE POP POP DUP1 DUP10 PUSH1 0x40 ADD MLOAD PUSH1 0x80 ADD DUP2 SWAP1 MSTORE POP POP PUSH3 0x1387 JUMP JUMPDEST POP JUMPDEST PUSH1 0x2 DUP9 PUSH1 0x40 ADD MLOAD PUSH1 0x0 ADD SWAP1 PUSH1 0x2 DUP2 GT ISZERO PUSH3 0x136B JUMPI PUSH3 0x136A PUSH3 0x55B2 JUMP JUMPDEST JUMPDEST SWAP1 DUP2 PUSH1 0x2 DUP2 GT ISZERO PUSH3 0x1382 JUMPI PUSH3 0x1381 PUSH3 0x55B2 JUMP JUMPDEST JUMPDEST DUP2 MSTORE POP POP JUMPDEST PUSH3 0x1398 JUMP JUMPDEST DUP1 DUP10 PUSH1 0x40 ADD DUP2 SWAP1 MSTORE POP POP JUMPDEST POP JUMPDEST PUSH1 0x2 DUP1 DUP2 GT ISZERO PUSH3 0x13B0 JUMPI PUSH3 0x13AF PUSH3 0x55B2 JUMP JUMPDEST JUMPDEST DUP8 PUSH1 0x40 ADD MLOAD PUSH1 0x0 ADD MLOAD PUSH1 0x2 DUP2 GT ISZERO PUSH3 0x13CE JUMPI PUSH3 0x13CD PUSH3 0x55B2 JUMP JUMPDEST JUMPDEST EQ ISZERO DUP1 ISZERO PUSH3 0x13E1 JUMPI POP PUSH1 0x0 DUP9 PUSH1 0xA0 ADD CALLDATALOAD GT JUMPDEST ISZERO PUSH3 0x1658 JUMPI DUP2 PUSH20 0xFFFFFFFFFFFFFFFFFFFFFFFFFFFFFFFFFFFFFFFF AND PUSH4 0x70A08231 PUSH1 0x0 DUP11 PUSH1 0x80 ADD CALLDATALOAD EQ PUSH3 0x1417 JUMPI DUP6 PUSH3 0x1419 JUMP JUMPDEST ORIGIN JUMPDEST PUSH1 0x40 MLOAD DUP3 PUSH4 0xFFFFFFFF AND PUSH1 0xE0 SHL DUP2 MSTORE PUSH1 0x4 ADD PUSH3 0x1437 SWAP2 SWAP1 PUSH3 0x4CB4 JUMP JUMPDEST PUSH1 0x20 PUSH1 0x40 MLOAD DUP1 DUP4 SUB DUP2 DUP7 DUP1 EXTCODESIZE ISZERO DUP1 ISZERO PUSH3 0x1450 JUMPI PUSH1 0x0 DUP1 REVERT JUMPDEST POP GAS STATICCALL ISZERO DUP1 ISZERO PUSH3 0x1465 JUMPI RETURNDATASIZE PUSH1 0x0 DUP1 RETURNDATACOPY RETURNDATASIZE PUSH1 0x0 REVERT JUMPDEST POP POP POP POP PUSH1 0x40 MLOAD RETURNDATASIZE PUSH1 0x1F NOT PUSH1 0x1F DUP3 ADD AND DUP3 ADD DUP1 PUSH1 0x40 MSTORE POP DUP2 ADD SWAP1 PUSH3 0x148B SWAP2 SWAP1 PUSH3 0x44E3 JUMP JUMPDEST SWAP1 POP ADDRESS PUSH20 0xFFFFFFFFFFFFFFFFFFFFFFFFFFFFFFFFFFFFFFFF AND PUSH4 0xBD698545 DUP10 PUSH1 0x0 ADD PUSH1 0x20 DUP2 ADD SWAP1 PUSH3 0x14BE SWAP2 SWAP1 PUSH3 0x4120 JUMP JUMPDEST DUP11 PUSH1 0x40 ADD PUSH1 0x20 DUP2 ADD SWAP1 PUSH3 0x14D3 SWAP2 SWAP1 PUSH3 0x4120 JUMP JUMPDEST DUP12 PUSH1 0x20 ADD PUSH1 0x20 DUP2 ADD SWAP1 PUSH3 0x14E8 SWAP2 SWAP1 PUSH3 0x4120 JUMP JUMPDEST DUP9 DUP10 PUSH2 0x2710 DUP16 PUSH1 0xA0 ADD CALLDATALOAD DUP10 PUSH3 0x14FF SWAP2 SWAP1 PUSH3 0x52A5 JUMP JUMPDEST PUSH3 0x150B SWAP2 SWAP1 PUSH3 0x526D JUMP JUMPDEST PUSH1 0x0 PUSH1 0x40 MLOAD DUP9 PUSH4 0xFFFFFFFF AND PUSH1 0xE0 SHL DUP2 MSTORE PUSH1 0x4 ADD PUSH3 0x1531 SWAP8 SWAP7 SWAP6 SWAP5 SWAP4 SWAP3 SWAP2 SWAP1 PUSH3 0x4D7B JUMP JUMPDEST PUSH1 0x0 PUSH1 0x40 MLOAD DUP1 DUP4 SUB DUP2 PUSH1 0x0 DUP8 DUP1 EXTCODESIZE ISZERO DUP1 ISZERO PUSH3 0x154C JUMPI PUSH1 0x0 DUP1 REVERT JUMPDEST POP GAS CALL SWAP3 POP POP POP DUP1 ISZERO PUSH3 0x1585 JUMPI POP PUSH1 0x40 MLOAD RETURNDATASIZE PUSH1 0x0 DUP3 RETURNDATACOPY RETURNDATASIZE PUSH1 0x1F NOT PUSH1 0x1F DUP3 ADD AND DUP3 ADD DUP1 PUSH1 0x40 MSTORE POP DUP2 ADD SWAP1 PUSH3 0x1582 SWAP2 SWAP1 PUSH3 0x43E5 JUMP JUMPDEST PUSH1 0x1 JUMPDEST PUSH3 0x164C JUMPI PUSH3 0x1594 PUSH3 0x563F JUMP JUMPDEST DUP1 PUSH4 0x8C379A0 EQ ISZERO PUSH3 0x1608 JUMPI POP PUSH3 0x15AC PUSH3 0x5753 JUMP JUMPDEST DUP1 PUSH3 0x15B9 JUMPI POP PUSH3 0x160A JUMP JUMPDEST PUSH1 0x2 DUP9 PUSH1 0x60 ADD MLOAD PUSH1 0x0 ADD SWAP1 PUSH1 0x2 DUP2 GT ISZERO PUSH3 0x15D9 JUMPI PUSH3 0x15D8 PUSH3 0x55B2 JUMP JUMPDEST JUMPDEST SWAP1 DUP2 PUSH1 0x2 DUP2 GT ISZERO PUSH3 0x15F0 JUMPI PUSH3 0x15EF PUSH3 0x55B2 JUMP JUMPDEST JUMPDEST DUP2 MSTORE POP POP DUP1 DUP9 PUSH1 0x60 ADD MLOAD PUSH1 0x80 ADD DUP2 SWAP1 MSTORE POP POP PUSH3 0x1646 JUMP JUMPDEST POP JUMPDEST PUSH1 0x2 DUP8 PUSH1 0x40 ADD MLOAD PUSH1 0x0 ADD SWAP1 PUSH1 0x2 DUP2 GT ISZERO PUSH3 0x162A JUMPI PUSH3 0x1629 PUSH3 0x55B2 JUMP JUMPDEST JUMPDEST SWAP1 DUP2 PUSH1 0x2 DUP2 GT ISZERO PUSH3 0x1641 JUMPI PUSH3 0x1640 PUSH3 0x55B2 JUMP JUMPDEST JUMPDEST DUP2 MSTORE POP POP JUMPDEST PUSH3 0x1657 JUMP JUMPDEST DUP1 DUP9 PUSH1 0x60 ADD DUP2 SWAP1 MSTORE POP POP JUMPDEST JUMPDEST PUSH1 0x2 DUP1 DUP2 GT ISZERO PUSH3 0x166E JUMPI PUSH3 0x166D PUSH3 0x55B2 JUMP JUMPDEST JUMPDEST DUP8 PUSH1 0x40 ADD MLOAD PUSH1 0x0 ADD MLOAD PUSH1 0x2 DUP2 GT ISZERO PUSH3 0x168C JUMPI PUSH3 0x168B PUSH3 0x55B2 JUMP JUMPDEST JUMPDEST EQ ISZERO DUP1 ISZERO PUSH3 0x169F JUMPI POP PUSH1 0x0 DUP9 PUSH1 0xC0 ADD CALLDATALOAD GT JUMPDEST ISZERO PUSH3 0x18F0 JUMPI DUP2 PUSH20 0xFFFFFFFFFFFFFFFFFFFFFFFFFFFFFFFFFFFFFFFF AND PUSH4 0x70A08231 PUSH1 0x0 DUP11 PUSH1 0x80 ADD CALLDATALOAD EQ PUSH3 0x16D5 JUMPI DUP6 PUSH3 0x16D7 JUMP JUMPDEST ORIGIN JUMPDEST PUSH1 0x40 MLOAD DUP3 PUSH4 0xFFFFFFFF AND PUSH1 0xE0 SHL DUP2 MSTORE PUSH1 0x4 ADD PUSH3 0x16F5 SWAP2 SWAP1 PUSH3 0x4CB4 JUMP JUMPDEST PUSH1 0x20 PUSH1 0x40 MLOAD DUP1 DUP4 SUB DUP2 DUP7 DUP1 EXTCODESIZE ISZERO DUP1 ISZERO PUSH3 0x170E JUMPI PUSH1 0x0 DUP1 REVERT JUMPDEST POP GAS STATICCALL ISZERO DUP1 ISZERO PUSH3 0x1723 JUMPI RETURNDATASIZE PUSH1 0x0 DUP1 RETURNDATACOPY RETURNDATASIZE PUSH1 0x0 REVERT JUMPDEST POP POP POP POP PUSH1 0x40 MLOAD RETURNDATASIZE PUSH1 0x1F NOT PUSH1 0x1F DUP3 ADD AND DUP3 ADD DUP1 PUSH1 0x40 MSTORE POP DUP2 ADD SWAP1 PUSH3 0x1749 SWAP2 SWAP1 PUSH3 0x44E3 JUMP JUMPDEST SWAP1 POP ADDRESS PUSH20 0xFFFFFFFFFFFFFFFFFFFFFFFFFFFFFFFFFFFFFFFF AND PUSH4 0xF18D03CC DUP10 PUSH1 0x40 ADD PUSH1 0x20 DUP2 ADD SWAP1 PUSH3 0x177C SWAP2 SWAP1 PUSH3 0x4120 JUMP JUMPDEST DUP7 PUSH3 0x1787 PUSH3 0x38F0 JUMP JUMPDEST PUSH2 0x2710 DUP14 PUSH1 0xC0 ADD CALLDATALOAD DUP8 PUSH3 0x179C SWAP2 SWAP1 PUSH3 0x52A5 JUMP JUMPDEST PUSH3 0x17A8 SWAP2 SWAP1 PUSH3 0x526D JUMP JUMPDEST PUSH1 0x40 MLOAD DUP6 PUSH4 0xFFFFFFFF AND PUSH1 0xE0 SHL DUP2 MSTORE PUSH1 0x4 ADD PUSH3 0x17C9 SWAP5 SWAP4 SWAP3 SWAP2 SWAP1 PUSH3 0x4DF8 JUMP JUMPDEST PUSH1 0x0 PUSH1 0x40 MLOAD DUP1 DUP4 SUB DUP2 PUSH1 0x0 DUP8 DUP1 EXTCODESIZE ISZERO DUP1 ISZERO PUSH3 0x17E4 JUMPI PUSH1 0x0 DUP1 REVERT JUMPDEST POP GAS CALL SWAP3 POP POP POP DUP1 ISZERO PUSH3 0x181D JUMPI POP PUSH1 0x40 MLOAD RETURNDATASIZE PUSH1 0x0 DUP3 RETURNDATACOPY RETURNDATASIZE PUSH1 0x1F NOT PUSH1 0x1F DUP3 ADD AND DUP3 ADD DUP1 PUSH1 0x40 MSTORE POP DUP2 ADD SWAP1 PUSH3 0x181A SWAP2 SWAP1 PUSH3 0x43E5 JUMP JUMPDEST PUSH1 0x1 JUMPDEST PUSH3 0x18E4 JUMPI PUSH3 0x182C PUSH3 0x563F JUMP JUMPDEST DUP1 PUSH4 0x8C379A0 EQ ISZERO PUSH3 0x18A0 JUMPI POP PUSH3 0x1844 PUSH3 0x5753 JUMP JUMPDEST DUP1 PUSH3 0x1851 JUMPI POP PUSH3 0x18A2 JUMP JUMPDEST PUSH1 0x2 DUP9 PUSH1 0x80 ADD MLOAD PUSH1 0x0 ADD SWAP1 PUSH1 0x2 DUP2 GT ISZERO PUSH3 0x1871 JUMPI PUSH3 0x1870 PUSH3 0x55B2 JUMP JUMPDEST JUMPDEST SWAP1 DUP2 PUSH1 0x2 DUP2 GT ISZERO PUSH3 0x1888 JUMPI PUSH3 0x1887 PUSH3 0x55B2 JUMP JUMPDEST JUMPDEST DUP2 MSTORE POP POP DUP1 DUP9 PUSH1 0x80 ADD MLOAD PUSH1 0x80 ADD DUP2 SWAP1 MSTORE POP POP PUSH3 0x18DE JUMP JUMPDEST POP JUMPDEST PUSH1 0x2 DUP8 PUSH1 0x40 ADD MLOAD PUSH1 0x0 ADD SWAP1 PUSH1 0x2 DUP2 GT ISZERO PUSH3 0x18C2 JUMPI PUSH3 0x18C1 PUSH3 0x55B2 JUMP JUMPDEST JUMPDEST SWAP1 DUP2 PUSH1 0x2 DUP2 GT ISZERO PUSH3 0x18D9 JUMPI PUSH3 0x18D8 PUSH3 0x55B2 JUMP JUMPDEST JUMPDEST DUP2 MSTORE POP POP JUMPDEST PUSH3 0x18EF JUMP JUMPDEST DUP1 DUP9 PUSH1 0x80 ADD DUP2 SWAP1 MSTORE POP POP JUMPDEST JUMPDEST PUSH1 0x40 MLOAD DUP1 PUSH1 0x60 ADD PUSH1 0x40 MSTORE DUP1 DUP6 PUSH20 0xFFFFFFFFFFFFFFFFFFFFFFFFFFFFFFFFFFFFFFFF AND DUP2 MSTORE PUSH1 0x20 ADD DUP5 PUSH20 0xFFFFFFFFFFFFFFFFFFFFFFFFFFFFFFFFFFFFFFFF AND PUSH4 0x70A08231 DUP8 PUSH1 0x40 MLOAD DUP3 PUSH4 0xFFFFFFFF AND PUSH1 0xE0 SHL DUP2 MSTORE PUSH1 0x4 ADD PUSH3 0x1952 SWAP2 SWAP1 PUSH3 0x4CB4 JUMP JUMPDEST PUSH1 0x20 PUSH1 0x40 MLOAD DUP1 DUP4 SUB DUP2 DUP7 DUP1 EXTCODESIZE ISZERO DUP1 ISZERO PUSH3 0x196B JUMPI PUSH1 0x0 DUP1 REVERT JUMPDEST POP GAS STATICCALL ISZERO DUP1 ISZERO PUSH3 0x1980 JUMPI RETURNDATASIZE PUSH1 0x0 DUP1 RETURNDATACOPY RETURNDATASIZE PUSH1 0x0 REVERT JUMPDEST POP POP POP POP PUSH1 0x40 MLOAD RETURNDATASIZE PUSH1 0x1F NOT PUSH1 0x1F DUP3 ADD AND DUP3 ADD DUP1 PUSH1 0x40 MSTORE POP DUP2 ADD SWAP1 PUSH3 0x19A6 SWAP2 SWAP1 PUSH3 0x44E3 JUMP JUMPDEST DUP2 MSTORE PUSH1 0x20 ADD DUP4 PUSH20 0xFFFFFFFFFFFFFFFFFFFFFFFFFFFFFFFFFFFFFFFF AND PUSH4 0x70A08231 DUP8 PUSH1 0x40 MLOAD DUP3 PUSH4 0xFFFFFFFF AND PUSH1 0xE0 SHL DUP2 MSTORE PUSH1 0x4 ADD PUSH3 0x19E6 SWAP2 SWAP1 PUSH3 0x4CB4 JUMP JUMPDEST PUSH1 0x20 PUSH1 0x40 MLOAD DUP1 DUP4 SUB DUP2 DUP7 DUP1 EXTCODESIZE ISZERO DUP1 ISZERO PUSH3 0x19FF JUMPI PUSH1 0x0 DUP1 REVERT JUMPDEST POP GAS STATICCALL ISZERO DUP1 ISZERO PUSH3 0x1A14 JUMPI RETURNDATASIZE PUSH1 0x0 DUP1 RETURNDATACOPY RETURNDATASIZE PUSH1 0x0 REVERT JUMPDEST POP POP POP POP PUSH1 0x40 MLOAD RETURNDATASIZE PUSH1 0x1F NOT PUSH1 0x1F DUP3 ADD AND DUP3 ADD DUP1 PUSH1 0x40 MSTORE POP DUP2 ADD SWAP1 PUSH3 0x1A3A SWAP2 SWAP1 PUSH3 0x44E3 JUMP JUMPDEST DUP2 MSTORE POP DUP8 PUSH1 0xA0 ADD DUP2 SWAP1 MSTORE POP POP POP POP POP POP POP SWAP2 SWAP1 POP JUMP JUMPDEST PUSH3 0x1A5A PUSH3 0x39DB JUMP JUMPDEST PUSH1 0x1 DUP2 PUSH1 0x0 ADD SWAP1 PUSH1 0x2 DUP2 GT ISZERO PUSH3 0x1A76 JUMPI PUSH3 0x1A75 PUSH3 0x55B2 JUMP JUMPDEST JUMPDEST SWAP1 DUP2 PUSH1 0x2 DUP2 GT ISZERO PUSH3 0x1A8D JUMPI PUSH3 0x1A8C PUSH3 0x55B2 JUMP JUMPDEST JUMPDEST DUP2 MSTORE POP POP GAS DUP2 PUSH1 0x20 ADD DUP2 DUP2 MSTORE POP POP PUSH3 0x1AAB DUP6 DUP6 DUP6 DUP6 PUSH1 0x0 PUSH3 0x21BB JUMP JUMPDEST DUP2 PUSH1 0x60 ADD DUP2 SWAP1 MSTORE DUP2 PUSH1 0x40 ADD DUP2 SWAP1 MSTORE POP GAS DUP2 PUSH1 0x20 ADD DUP2 DUP2 MLOAD PUSH3 0x1ACE SWAP2 SWAP1 PUSH3 0x53A4 JUMP JUMPDEST SWAP2 POP DUP2 DUP2 MSTORE POP POP SWAP5 SWAP4 POP POP POP POP JUMP JUMPDEST PUSH1 0x0 DUP1 DUP3 PUSH1 0x0 ADD PUSH1 0x20 DUP2 ADD SWAP1 PUSH3 0x1AF5 SWAP2 SWAP1 PUSH3 0x4120 JUMP JUMPDEST DUP4 PUSH1 0x20 ADD PUSH1 0x20 DUP2 ADD SWAP1 PUSH3 0x1B0A SWAP2 SWAP1 PUSH3 0x4120 JUMP JUMPDEST PUSH1 0x0 SELFBALANCE GT ISZERO PUSH3 0x1E85 JUMPI PUSH1 0x0 DUP3 PUSH20 0xFFFFFFFFFFFFFFFFFFFFFFFFFFFFFFFFFFFFFFFF AND PUSH4 0xAD5C4648 PUSH1 0x40 MLOAD DUP2 PUSH4 0xFFFFFFFF AND PUSH1 0xE0 SHL DUP2 MSTORE PUSH1 0x4 ADD PUSH1 0x20 PUSH1 0x40 MLOAD DUP1 DUP4 SUB DUP2 DUP7 DUP1 EXTCODESIZE ISZERO DUP1 ISZERO PUSH3 0x1B5D JUMPI PUSH1 0x0 DUP1 REVERT JUMPDEST POP GAS STATICCALL ISZERO DUP1 ISZERO PUSH3 0x1B72 JUMPI RETURNDATASIZE PUSH1 0x0 DUP1 RETURNDATACOPY RETURNDATASIZE PUSH1 0x0 REVERT JUMPDEST POP POP POP POP PUSH1 0x40 MLOAD RETURNDATASIZE PUSH1 0x1F NOT PUSH1 0x1F DUP3 ADD AND DUP3 ADD DUP1 PUSH1 0x40 MSTORE POP DUP2 ADD SWAP1 PUSH3 0x1B98 SWAP2 SWAP1 PUSH3 0x4152 JUMP JUMPDEST SWAP1 POP DUP1 PUSH20 0xFFFFFFFFFFFFFFFFFFFFFFFFFFFFFFFFFFFFFFFF AND PUSH4 0xD0E30DB0 PUSH1 0x4 PUSH1 0x0 SWAP1 SLOAD SWAP1 PUSH2 0x100 EXP SWAP1 DIV PUSH20 0xFFFFFFFFFFFFFFFFFFFFFFFFFFFFFFFFFFFFFFFF AND PUSH20 0xFFFFFFFFFFFFFFFFFFFFFFFFFFFFFFFFFFFFFFFF AND BALANCE PUSH1 0x40 MLOAD DUP3 PUSH4 0xFFFFFFFF AND PUSH1 0xE0 SHL DUP2 MSTORE PUSH1 0x4 ADD PUSH1 0x0 PUSH1 0x40 MLOAD DUP1 DUP4 SUB DUP2 DUP6 DUP9 DUP1 EXTCODESIZE ISZERO DUP1 ISZERO PUSH3 0x1C1C JUMPI PUSH1 0x0 DUP1 REVERT JUMPDEST POP GAS CALL ISZERO DUP1 ISZERO PUSH3 0x1C31 JUMPI RETURNDATASIZE PUSH1 0x0 DUP1 RETURNDATACOPY RETURNDATASIZE PUSH1 0x0 REVERT JUMPDEST POP POP POP POP POP DUP1 PUSH20 0xFFFFFFFFFFFFFFFFFFFFFFFFFFFFFFFFFFFFFFFF AND DUP3 PUSH20 0xFFFFFFFFFFFFFFFFFFFFFFFFFFFFFFFFFFFFFFFF AND EQ ISZERO DUP1 ISZERO PUSH3 0x1D23 JUMPI POP PUSH1 0x0 DUP2 PUSH20 0xFFFFFFFFFFFFFFFFFFFFFFFFFFFFFFFFFFFFFFFF AND PUSH4 0x70A08231 PUSH1 0x4 PUSH1 0x0 SWAP1 SLOAD SWAP1 PUSH2 0x100 EXP SWAP1 DIV PUSH20 0xFFFFFFFFFFFFFFFFFFFFFFFFFFFFFFFFFFFFFFFF AND PUSH1 0x40 MLOAD DUP3 PUSH4 0xFFFFFFFF AND PUSH1 0xE0 SHL DUP2 MSTORE PUSH1 0x4 ADD PUSH3 0x1CCD SWAP2 SWAP1 PUSH3 0x4CB4 JUMP JUMPDEST PUSH1 0x20 PUSH1 0x40 MLOAD DUP1 DUP4 SUB DUP2 DUP7 DUP1 EXTCODESIZE ISZERO DUP1 ISZERO PUSH3 0x1CE6 JUMPI PUSH1 0x0 DUP1 REVERT JUMPDEST POP GAS STATICCALL ISZERO DUP1 ISZERO PUSH3 0x1CFB JUMPI RETURNDATASIZE PUSH1 0x0 DUP1 RETURNDATACOPY RETURNDATASIZE PUSH1 0x0 REVERT JUMPDEST POP POP POP POP PUSH1 0x40 MLOAD RETURNDATASIZE PUSH1 0x1F NOT PUSH1 0x1F DUP3 ADD AND DUP3 ADD DUP1 PUSH1 0x40 MSTORE POP DUP2 ADD SWAP1 PUSH3 0x1D21 SWAP2 SWAP1 PUSH3 0x44E3 JUMP JUMPDEST GT JUMPDEST ISZERO PUSH3 0x1E83 JUMPI ADDRESS PUSH20 0xFFFFFFFFFFFFFFFFFFFFFFFFFFFFFFFFFFFFFFFF AND PUSH4 0xBD698545 DUP5 DUP4 DUP6 ADDRESS ADDRESS DUP8 PUSH20 0xFFFFFFFFFFFFFFFFFFFFFFFFFFFFFFFFFFFFFFFF AND PUSH4 0x70A08231 PUSH1 0x4 PUSH1 0x0 SWAP1 SLOAD SWAP1 PUSH2 0x100 EXP SWAP1 DIV PUSH20 0xFFFFFFFFFFFFFFFFFFFFFFFFFFFFFFFFFFFFFFFF AND PUSH1 0x40 MLOAD DUP3 PUSH4 0xFFFFFFFF AND PUSH1 0xE0 SHL DUP2 MSTORE PUSH1 0x4 ADD PUSH3 0x1DA7 SWAP2 SWAP1 PUSH3 0x4CB4 JUMP JUMPDEST PUSH1 0x20 PUSH1 0x40 MLOAD DUP1 DUP4 SUB DUP2 DUP7 DUP1 EXTCODESIZE ISZERO DUP1 ISZERO PUSH3 0x1DC0 JUMPI PUSH1 0x0 DUP1 REVERT JUMPDEST POP GAS STATICCALL ISZERO DUP1 ISZERO PUSH3 0x1DD5 JUMPI RETURNDATASIZE PUSH1 0x0 DUP1 RETURNDATACOPY RETURNDATASIZE PUSH1 0x0 REVERT JUMPDEST POP POP POP POP PUSH1 0x40 MLOAD RETURNDATASIZE PUSH1 0x1F NOT PUSH1 0x1F DUP3 ADD AND DUP3 ADD DUP1 PUSH1 0x40 MSTORE POP DUP2 ADD SWAP1 PUSH3 0x1DFB SWAP2 SWAP1 PUSH3 0x44E3 JUMP JUMPDEST PUSH1 0x0 PUSH1 0x40 MLOAD DUP9 PUSH4 0xFFFFFFFF AND PUSH1 0xE0 SHL DUP2 MSTORE PUSH1 0x4 ADD PUSH3 0x1E21 SWAP8 SWAP7 SWAP6 SWAP5 SWAP4 SWAP3 SWAP2 SWAP1 PUSH3 0x4D7B JUMP JUMPDEST PUSH1 0x0 PUSH1 0x40 MLOAD DUP1 DUP4 SUB DUP2 PUSH1 0x0 DUP8 DUP1 EXTCODESIZE ISZERO DUP1 ISZERO PUSH3 0x1E3C JUMPI PUSH1 0x0 DUP1 REVERT JUMPDEST POP GAS CALL SWAP3 POP POP POP DUP1 ISZERO PUSH3 0x1E75 JUMPI POP PUSH1 0x40 MLOAD RETURNDATASIZE PUSH1 0x0 DUP3 RETURNDATACOPY RETURNDATASIZE PUSH1 0x1F NOT PUSH1 0x1F DUP3 ADD AND DUP3 ADD DUP1 PUSH1 0x40 MSTORE POP DUP2 ADD SWAP1 PUSH3 0x1E72 SWAP2 SWAP1 PUSH3 0x43E5 JUMP JUMPDEST PUSH1 0x1 JUMPDEST PUSH3 0x1E80 JUMPI PUSH3 0x1E82 JUMP JUMPDEST POP JUMPDEST JUMPDEST POP JUMPDEST PUSH1 0x0 DUP6 PUSH1 0x0 ADD PUSH1 0x20 DUP2 ADD SWAP1 PUSH3 0x1E9C SWAP2 SWAP1 PUSH3 0x4120 JUMP JUMPDEST PUSH20 0xFFFFFFFFFFFFFFFFFFFFFFFFFFFFFFFFFFFFFFFF AND PUSH4 0xC45A0155 PUSH1 0x40 MLOAD DUP2 PUSH4 0xFFFFFFFF AND PUSH1 0xE0 SHL DUP2 MSTORE PUSH1 0x4 ADD PUSH1 0x20 PUSH1 0x40 MLOAD DUP1 DUP4 SUB DUP2 DUP7 DUP1 EXTCODESIZE ISZERO DUP1 ISZERO PUSH3 0x1EE2 JUMPI PUSH1 0x0 DUP1 REVERT JUMPDEST POP GAS STATICCALL ISZERO DUP1 ISZERO PUSH3 0x1EF7 JUMPI RETURNDATASIZE PUSH1 0x0 DUP1 RETURNDATACOPY RETURNDATASIZE PUSH1 0x0 REVERT JUMPDEST POP POP POP POP PUSH1 0x40 MLOAD RETURNDATASIZE PUSH1 0x1F NOT PUSH1 0x1F DUP3 ADD AND DUP3 ADD DUP1 PUSH1 0x40 MSTORE POP DUP2 ADD SWAP1 PUSH3 0x1F1D SWAP2 SWAP1 PUSH3 0x4152 JUMP JUMPDEST SWAP1 POP DUP1 PUSH20 0xFFFFFFFFFFFFFFFFFFFFFFFFFFFFFFFFFFFFFFFF AND PUSH4 0xE6A43905 DUP8 PUSH1 0x20 ADD PUSH1 0x20 DUP2 ADD SWAP1 PUSH3 0x1F50 SWAP2 SWAP1 PUSH3 0x4120 JUMP JUMPDEST DUP9 PUSH1 0x40 ADD PUSH1 0x20 DUP2 ADD SWAP1 PUSH3 0x1F65 SWAP2 SWAP1 PUSH3 0x4120 JUMP JUMPDEST PUSH1 0x40 MLOAD DUP4 PUSH4 0xFFFFFFFF AND PUSH1 0xE0 SHL DUP2 MSTORE PUSH1 0x4 ADD PUSH3 0x1F84 SWAP3 SWAP2 SWAP1 PUSH3 0x4CD1 JUMP JUMPDEST PUSH1 0x20 PUSH1 0x40 MLOAD DUP1 DUP4 SUB DUP2 DUP7 DUP1 EXTCODESIZE ISZERO DUP1 ISZERO PUSH3 0x1F9D JUMPI PUSH1 0x0 DUP1 REVERT JUMPDEST POP GAS STATICCALL ISZERO DUP1 ISZERO PUSH3 0x1FB2 JUMPI RETURNDATASIZE PUSH1 0x0 DUP1 RETURNDATACOPY RETURNDATASIZE PUSH1 0x0 REVERT JUMPDEST POP POP POP POP PUSH1 0x40 MLOAD RETURNDATASIZE PUSH1 0x1F NOT PUSH1 0x1F DUP3 ADD AND DUP3 ADD DUP1 PUSH1 0x40 MSTORE POP DUP2 ADD SWAP1 PUSH3 0x1FD8 SWAP2 SWAP1 PUSH3 0x4152 JUMP JUMPDEST SWAP5 POP PUSH1 0x0 PUSH20 0xFFFFFFFFFFFFFFFFFFFFFFFFFFFFFFFFFFFFFFFF AND DUP6 PUSH20 0xFFFFFFFFFFFFFFFFFFFFFFFFFFFFFFFFFFFFFFFF AND EQ ISZERO PUSH3 0x20CE JUMPI DUP1 PUSH20 0xFFFFFFFFFFFFFFFFFFFFFFFFFFFFFFFFFFFFFFFF AND PUSH4 0xC9C65396 DUP8 PUSH1 0x20 ADD PUSH1 0x20 DUP2 ADD SWAP1 PUSH3 0x2041 SWAP2 SWAP1 PUSH3 0x4120 JUMP JUMPDEST DUP9 PUSH1 0x40 ADD PUSH1 0x20 DUP2 ADD SWAP1 PUSH3 0x2056 SWAP2 SWAP1 PUSH3 0x4120 JUMP JUMPDEST PUSH1 0x40 MLOAD DUP4 PUSH4 0xFFFFFFFF AND PUSH1 0xE0 SHL DUP2 MSTORE PUSH1 0x4 ADD PUSH3 0x2075 SWAP3 SWAP2 SWAP1 PUSH3 0x4CD1 JUMP JUMPDEST PUSH1 0x20 PUSH1 0x40 MLOAD DUP1 DUP4 SUB DUP2 PUSH1 0x0 DUP8 DUP1 EXTCODESIZE ISZERO DUP1 ISZERO PUSH3 0x2090 JUMPI PUSH1 0x0 DUP1 REVERT JUMPDEST POP GAS CALL ISZERO DUP1 ISZERO PUSH3 0x20A5 JUMPI RETURNDATASIZE PUSH1 0x0 DUP1 RETURNDATACOPY RETURNDATASIZE PUSH1 0x0 REVERT JUMPDEST POP POP POP POP PUSH1 0x40 MLOAD RETURNDATASIZE PUSH1 0x1F NOT PUSH1 0x1F DUP3 ADD AND DUP3 ADD DUP1 PUSH1 0x40 MSTORE POP DUP2 ADD SWAP1 PUSH3 0x20CB SWAP2 SWAP1 PUSH3 0x4152 JUMP JUMPDEST SWAP5 POP JUMPDEST PUSH3 0x20F6 DUP7 PUSH1 0x20 ADD PUSH1 0x20 DUP2 ADD SWAP1 PUSH3 0x20E7 SWAP2 SWAP1 PUSH3 0x4120 JUMP JUMPDEST ADDRESS DUP8 DUP10 PUSH1 0x60 ADD CALLDATALOAD PUSH1 0x0 PUSH3 0x21BB JUMP JUMPDEST POP PUSH3 0x211F DUP7 PUSH1 0x40 ADD PUSH1 0x20 DUP2 ADD SWAP1 PUSH3 0x2110 SWAP2 SWAP1 PUSH3 0x4120 JUMP JUMPDEST ORIGIN DUP8 DUP10 PUSH1 0x80 ADD CALLDATALOAD PUSH1 0x0 PUSH3 0x21BB JUMP JUMPDEST POP DUP5 PUSH20 0xFFFFFFFFFFFFFFFFFFFFFFFFFFFFFFFFFFFFFFFF AND PUSH4 0x6A627842 ADDRESS PUSH1 0x40 MLOAD DUP3 PUSH4 0xFFFFFFFF AND PUSH1 0xE0 SHL DUP2 MSTORE PUSH1 0x4 ADD PUSH3 0x215B SWAP2 SWAP1 PUSH3 0x4CB4 JUMP JUMPDEST PUSH1 0x20 PUSH1 0x40 MLOAD DUP1 DUP4 SUB DUP2 PUSH1 0x0 DUP8 DUP1 EXTCODESIZE ISZERO DUP1 ISZERO PUSH3 0x2176 JUMPI PUSH1 0x0 DUP1 REVERT JUMPDEST POP GAS CALL ISZERO DUP1 ISZERO PUSH3 0x218B JUMPI RETURNDATASIZE PUSH1 0x0 DUP1 RETURNDATACOPY RETURNDATASIZE PUSH1 0x0 REVERT JUMPDEST POP POP POP POP PUSH1 0x40 MLOAD RETURNDATASIZE PUSH1 0x1F NOT PUSH1 0x1F DUP3 ADD AND DUP3 ADD DUP1 PUSH1 0x40 MSTORE POP DUP2 ADD SWAP1 PUSH3 0x21B1 SWAP2 SWAP1 PUSH3 0x44E3 JUMP JUMPDEST SWAP4 POP POP POP POP SWAP2 POP SWAP2 JUMP JUMPDEST PUSH3 0x21C5 PUSH3 0x3A2F JUMP JUMPDEST PUSH1 0x0 DUP7 SWAP1 POP PUSH1 0x0 DUP6 SWAP1 POP DUP5 DUP4 PUSH1 0x80 ADD DUP2 DUP2 MSTORE POP POP DUP2 PUSH20 0xFFFFFFFFFFFFFFFFFFFFFFFFFFFFFFFFFFFFFFFF AND PUSH4 0x70A08231 DUP8 PUSH1 0x40 MLOAD DUP3 PUSH4 0xFFFFFFFF AND PUSH1 0xE0 SHL DUP2 MSTORE PUSH1 0x4 ADD PUSH3 0x2214 SWAP2 SWAP1 PUSH3 0x4CB4 JUMP JUMPDEST PUSH1 0x20 PUSH1 0x40 MLOAD DUP1 DUP4 SUB DUP2 DUP7 DUP1 EXTCODESIZE ISZERO DUP1 ISZERO PUSH3 0x222D JUMPI PUSH1 0x0 DUP1 REVERT JUMPDEST POP GAS STATICCALL ISZERO DUP1 ISZERO PUSH3 0x2242 JUMPI RETURNDATASIZE PUSH1 0x0 DUP1 RETURNDATACOPY RETURNDATASIZE PUSH1 0x0 REVERT JUMPDEST POP POP POP POP PUSH1 0x40 MLOAD RETURNDATASIZE PUSH1 0x1F NOT PUSH1 0x1F DUP3 ADD AND DUP3 ADD DUP1 PUSH1 0x40 MSTORE POP DUP2 ADD SWAP1 PUSH3 0x2268 SWAP2 SWAP1 PUSH3 0x44E3 JUMP JUMPDEST DUP4 PUSH1 0x40 ADD DUP2 DUP2 MSTORE POP POP PUSH1 0x0 DUP1 PUSH1 0x0 DUP7 ISZERO PUSH3 0x23B3 JUMPI DUP4 PUSH20 0xFFFFFFFFFFFFFFFFFFFFFFFFFFFFFFFFFFFFFFFF AND PUSH4 0x902F1AC PUSH1 0x40 MLOAD DUP2 PUSH4 0xFFFFFFFF AND PUSH1 0xE0 SHL DUP2 MSTORE PUSH1 0x4 ADD PUSH1 0x60 PUSH1 0x40 MLOAD DUP1 DUP4 SUB DUP2 DUP7 DUP1 EXTCODESIZE ISZERO DUP1 ISZERO PUSH3 0x22C4 JUMPI PUSH1 0x0 DUP1 REVERT JUMPDEST POP GAS STATICCALL ISZERO DUP1 ISZERO PUSH3 0x22D9 JUMPI RETURNDATASIZE PUSH1 0x0 DUP1 RETURNDATACOPY RETURNDATASIZE PUSH1 0x0 REVERT JUMPDEST POP POP POP POP PUSH1 0x40 MLOAD RETURNDATASIZE PUSH1 0x1F NOT PUSH1 0x1F DUP3 ADD AND DUP3 ADD DUP1 PUSH1 0x40 MSTORE POP DUP2 ADD SWAP1 PUSH3 0x22FF SWAP2 SWAP1 PUSH3 0x4487 JUMP JUMPDEST DUP3 PUSH14 0xFFFFFFFFFFFFFFFFFFFFFFFFFFFF AND SWAP3 POP DUP2 PUSH14 0xFFFFFFFFFFFFFFFFFFFFFFFFFFFF AND SWAP2 POP POP DUP1 SWAP4 POP DUP2 SWAP5 POP POP POP DUP4 PUSH20 0xFFFFFFFFFFFFFFFFFFFFFFFFFFFFFFFFFFFFFFFF AND PUSH4 0x18160DDD PUSH1 0x40 MLOAD DUP2 PUSH4 0xFFFFFFFF AND PUSH1 0xE0 SHL DUP2 MSTORE PUSH1 0x4 ADD PUSH1 0x20 PUSH1 0x40 MLOAD DUP1 DUP4 SUB DUP2 DUP7 DUP1 EXTCODESIZE ISZERO DUP1 ISZERO PUSH3 0x2375 JUMPI PUSH1 0x0 DUP1 REVERT JUMPDEST POP GAS STATICCALL ISZERO DUP1 ISZERO PUSH3 0x238A JUMPI RETURNDATASIZE PUSH1 0x0 DUP1 RETURNDATACOPY RETURNDATASIZE PUSH1 0x0 REVERT JUMPDEST POP POP POP POP PUSH1 0x40 MLOAD RETURNDATASIZE PUSH1 0x1F NOT PUSH1 0x1F DUP3 ADD AND DUP3 ADD DUP1 PUSH1 0x40 MSTORE POP DUP2 ADD SWAP1 PUSH3 0x23B0 SWAP2 SWAP1 PUSH3 0x44E3 JUMP JUMPDEST SWAP1 POP JUMPDEST PUSH1 0x4 PUSH1 0x0 SWAP1 SLOAD SWAP1 PUSH2 0x100 EXP SWAP1 DIV PUSH20 0xFFFFFFFFFFFFFFFFFFFFFFFFFFFFFFFFFFFFFFFF AND PUSH20 0xFFFFFFFFFFFFFFFFFFFFFFFFFFFFFFFFFFFFFFFF AND DUP11 PUSH20 0xFFFFFFFFFFFFFFFFFFFFFFFFFFFFFFFFFFFFFFFF AND EQ ISZERO PUSH3 0x263C JUMPI DUP5 PUSH20 0xFFFFFFFFFFFFFFFFFFFFFFFFFFFFFFFFFFFFFFFF AND PUSH4 0x70A08231 ADDRESS PUSH1 0x40 MLOAD DUP3 PUSH4 0xFFFFFFFF AND PUSH1 0xE0 SHL DUP2 MSTORE PUSH1 0x4 ADD PUSH3 0x2445 SWAP2 SWAP1 PUSH3 0x4CB4 JUMP JUMPDEST PUSH1 0x20 PUSH1 0x40 MLOAD DUP1 DUP4 SUB DUP2 DUP7 DUP1 EXTCODESIZE ISZERO DUP1 ISZERO PUSH3 0x245E JUMPI PUSH1 0x0 DUP1 REVERT JUMPDEST POP GAS STATICCALL ISZERO DUP1 ISZERO PUSH3 0x2473 JUMPI RETURNDATASIZE PUSH1 0x0 DUP1 RETURNDATACOPY RETURNDATASIZE PUSH1 0x0 REVERT JUMPDEST POP POP POP POP PUSH1 0x40 MLOAD RETURNDATASIZE PUSH1 0x1F NOT PUSH1 0x1F DUP3 ADD AND DUP3 ADD DUP1 PUSH1 0x40 MSTORE POP DUP2 ADD SWAP1 PUSH3 0x2499 SWAP2 SWAP1 PUSH3 0x44E3 JUMP JUMPDEST DUP7 PUSH1 0x0 ADD DUP2 DUP2 MSTORE POP POP GAS DUP7 PUSH2 0x100 ADD DUP2 DUP2 MSTORE POP POP DUP5 PUSH20 0xFFFFFFFFFFFFFFFFFFFFFFFFFFFFFFFFFFFFFFFF AND PUSH4 0xA9059CBB DUP11 DUP11 PUSH1 0x40 MLOAD DUP4 PUSH4 0xFFFFFFFF AND PUSH1 0xE0 SHL DUP2 MSTORE PUSH1 0x4 ADD PUSH3 0x24EA SWAP3 SWAP2 SWAP1 PUSH3 0x4E82 JUMP JUMPDEST PUSH1 0x20 PUSH1 0x40 MLOAD DUP1 DUP4 SUB DUP2 PUSH1 0x0 DUP8 DUP1 EXTCODESIZE ISZERO DUP1 ISZERO PUSH3 0x2505 JUMPI PUSH1 0x0 DUP1 REVERT JUMPDEST POP GAS CALL ISZERO DUP1 ISZERO PUSH3 0x251A JUMPI RETURNDATASIZE PUSH1 0x0 DUP1 RETURNDATACOPY RETURNDATASIZE PUSH1 0x0 REVERT JUMPDEST POP POP POP POP PUSH1 0x40 MLOAD RETURNDATASIZE PUSH1 0x1F NOT PUSH1 0x1F DUP3 ADD AND DUP3 ADD DUP1 PUSH1 0x40 MSTORE POP DUP2 ADD SWAP1 PUSH3 0x2540 SWAP2 SWAP1 PUSH3 0x434F JUMP JUMPDEST PUSH3 0x2582 JUMPI PUSH1 0x40 MLOAD PUSH32 0x8C379A000000000000000000000000000000000000000000000000000000000 DUP2 MSTORE PUSH1 0x4 ADD PUSH3 0x2579 SWAP1 PUSH3 0x4F39 JUMP JUMPDEST PUSH1 0x40 MLOAD DUP1 SWAP2 SUB SWAP1 REVERT JUMPDEST GAS DUP7 PUSH2 0x100 ADD DUP2 DUP2 MLOAD PUSH3 0x2597 SWAP2 SWAP1 PUSH3 0x53A4 JUMP JUMPDEST SWAP2 POP DUP2 DUP2 MSTORE POP POP DUP5 PUSH20 0xFFFFFFFFFFFFFFFFFFFFFFFFFFFFFFFFFFFFFFFF AND PUSH4 0x70A08231 ADDRESS PUSH1 0x40 MLOAD DUP3 PUSH4 0xFFFFFFFF AND PUSH1 0xE0 SHL DUP2 MSTORE PUSH1 0x4 ADD PUSH3 0x25D9 SWAP2 SWAP1 PUSH3 0x4CB4 JUMP JUMPDEST PUSH1 0x20 PUSH1 0x40 MLOAD DUP1 DUP4 SUB DUP2 DUP7 DUP1 EXTCODESIZE ISZERO DUP1 ISZERO PUSH3 0x25F2 JUMPI PUSH1 0x0 DUP1 REVERT JUMPDEST POP GAS STATICCALL ISZERO DUP1 ISZERO PUSH3 0x2607 JUMPI RETURNDATASIZE PUSH1 0x0 DUP1 RETURNDATACOPY RETURNDATASIZE PUSH1 0x0 REVERT JUMPDEST POP POP POP POP PUSH1 0x40 MLOAD RETURNDATASIZE PUSH1 0x1F NOT PUSH1 0x1F DUP3 ADD AND DUP3 ADD DUP1 PUSH1 0x40 MSTORE POP DUP2 ADD SWAP1 PUSH3 0x262D SWAP2 SWAP1 PUSH3 0x44E3 JUMP JUMPDEST DUP7 PUSH1 0x20 ADD DUP2 DUP2 MSTORE POP POP PUSH3 0x2F81 JUMP JUMPDEST DUP8 DUP6 PUSH20 0xFFFFFFFFFFFFFFFFFFFFFFFFFFFFFFFFFFFFFFFF AND PUSH4 0xDD62ED3E DUP13 PUSH1 0x4 PUSH1 0x0 SWAP1 SLOAD SWAP1 PUSH2 0x100 EXP SWAP1 DIV PUSH20 0xFFFFFFFFFFFFFFFFFFFFFFFFFFFFFFFFFFFFFFFF AND PUSH1 0x40 MLOAD DUP4 PUSH4 0xFFFFFFFF AND PUSH1 0xE0 SHL DUP2 MSTORE PUSH1 0x4 ADD PUSH3 0x269C SWAP3 SWAP2 SWAP1 PUSH3 0x4CD1 JUMP JUMPDEST PUSH1 0x20 PUSH1 0x40 MLOAD DUP1 DUP4 SUB DUP2 DUP7 DUP1 EXTCODESIZE ISZERO DUP1 ISZERO PUSH3 0x26B5 JUMPI PUSH1 0x0 DUP1 REVERT JUMPDEST POP GAS STATICCALL ISZERO DUP1 ISZERO PUSH3 0x26CA JUMPI RETURNDATASIZE PUSH1 0x0 DUP1 RETURNDATACOPY RETURNDATASIZE PUSH1 0x0 REVERT JUMPDEST POP POP POP POP PUSH1 0x40 MLOAD RETURNDATASIZE PUSH1 0x1F NOT PUSH1 0x1F DUP3 ADD AND DUP3 ADD DUP1 PUSH1 0x40 MSTORE POP DUP2 ADD SWAP1 PUSH3 0x26F0 SWAP2 SWAP1 PUSH3 0x44E3 JUMP JUMPDEST LT ISZERO DUP1 ISZERO PUSH3 0x278D JUMPI POP DUP8 DUP6 PUSH20 0xFFFFFFFFFFFFFFFFFFFFFFFFFFFFFFFFFFFFFFFF AND PUSH4 0x70A08231 DUP13 PUSH1 0x40 MLOAD DUP3 PUSH4 0xFFFFFFFF AND PUSH1 0xE0 SHL DUP2 MSTORE PUSH1 0x4 ADD PUSH3 0x2736 SWAP2 SWAP1 PUSH3 0x4CB4 JUMP JUMPDEST PUSH1 0x20 PUSH1 0x40 MLOAD DUP1 DUP4 SUB DUP2 DUP7 DUP1 EXTCODESIZE ISZERO DUP1 ISZERO PUSH3 0x274F JUMPI PUSH1 0x0 DUP1 REVERT JUMPDEST POP GAS STATICCALL ISZERO DUP1 ISZERO PUSH3 0x2764 JUMPI RETURNDATASIZE PUSH1 0x0 DUP1 RETURNDATACOPY RETURNDATASIZE PUSH1 0x0 REVERT JUMPDEST POP POP POP POP PUSH1 0x40 MLOAD RETURNDATASIZE PUSH1 0x1F NOT PUSH1 0x1F DUP3 ADD AND DUP3 ADD DUP1 PUSH1 0x40 MSTORE POP DUP2 ADD SWAP1 PUSH3 0x278A SWAP2 SWAP1 PUSH3 0x44E3 JUMP JUMPDEST LT ISZERO JUMPDEST ISZERO PUSH3 0x29C7 JUMPI DUP5 PUSH20 0xFFFFFFFFFFFFFFFFFFFFFFFFFFFFFFFFFFFFFFFF AND PUSH4 0x70A08231 DUP12 PUSH1 0x40 MLOAD DUP3 PUSH4 0xFFFFFFFF AND PUSH1 0xE0 SHL DUP2 MSTORE PUSH1 0x4 ADD PUSH3 0x27CE SWAP2 SWAP1 PUSH3 0x4CB4 JUMP JUMPDEST PUSH1 0x20 PUSH1 0x40 MLOAD DUP1 DUP4 SUB DUP2 DUP7 DUP1 EXTCODESIZE ISZERO DUP1 ISZERO PUSH3 0x27E7 JUMPI PUSH1 0x0 DUP1 REVERT JUMPDEST POP GAS STATICCALL ISZERO DUP1 ISZERO PUSH3 0x27FC JUMPI RETURNDATASIZE PUSH1 0x0 DUP1 RETURNDATACOPY RETURNDATASIZE PUSH1 0x0 REVERT JUMPDEST POP POP POP POP PUSH1 0x40 MLOAD RETURNDATASIZE PUSH1 0x1F NOT PUSH1 0x1F DUP3 ADD AND DUP3 ADD DUP1 PUSH1 0x40 MSTORE POP DUP2 ADD SWAP1 PUSH3 0x2822 SWAP2 SWAP1 PUSH3 0x44E3 JUMP JUMPDEST DUP7 PUSH1 0x0 ADD DUP2 DUP2 MSTORE POP POP GAS DUP7 PUSH2 0x100 ADD DUP2 DUP2 MSTORE POP POP DUP5 PUSH20 0xFFFFFFFFFFFFFFFFFFFFFFFFFFFFFFFFFFFFFFFF AND PUSH4 0x23B872DD DUP12 DUP12 DUP12 PUSH1 0x40 MLOAD DUP5 PUSH4 0xFFFFFFFF AND PUSH1 0xE0 SHL DUP2 MSTORE PUSH1 0x4 ADD PUSH3 0x2875 SWAP4 SWAP3 SWAP2 SWAP1 PUSH3 0x4E45 JUMP JUMPDEST PUSH1 0x20 PUSH1 0x40 MLOAD DUP1 DUP4 SUB DUP2 PUSH1 0x0 DUP8 DUP1 EXTCODESIZE ISZERO DUP1 ISZERO PUSH3 0x2890 JUMPI PUSH1 0x0 DUP1 REVERT JUMPDEST POP GAS CALL ISZERO DUP1 ISZERO PUSH3 0x28A5 JUMPI RETURNDATASIZE PUSH1 0x0 DUP1 RETURNDATACOPY RETURNDATASIZE PUSH1 0x0 REVERT JUMPDEST POP POP POP POP PUSH1 0x40 MLOAD RETURNDATASIZE PUSH1 0x1F NOT PUSH1 0x1F DUP3 ADD AND DUP3 ADD DUP1 PUSH1 0x40 MSTORE POP DUP2 ADD SWAP1 PUSH3 0x28CB SWAP2 SWAP1 PUSH3 0x434F JUMP JUMPDEST PUSH3 0x290D JUMPI PUSH1 0x40 MLOAD PUSH32 0x8C379A000000000000000000000000000000000000000000000000000000000 DUP2 MSTORE PUSH1 0x4 ADD PUSH3 0x2904 SWAP1 PUSH3 0x4F17 JUMP JUMPDEST PUSH1 0x40 MLOAD DUP1 SWAP2 SUB SWAP1 REVERT JUMPDEST GAS DUP7 PUSH2 0x100 ADD DUP2 DUP2 MLOAD PUSH3 0x2922 SWAP2 SWAP1 PUSH3 0x53A4 JUMP JUMPDEST SWAP2 POP DUP2 DUP2 MSTORE POP POP DUP5 PUSH20 0xFFFFFFFFFFFFFFFFFFFFFFFFFFFFFFFFFFFFFFFF AND PUSH4 0x70A08231 DUP12 PUSH1 0x40 MLOAD DUP3 PUSH4 0xFFFFFFFF AND PUSH1 0xE0 SHL DUP2 MSTORE PUSH1 0x4 ADD PUSH3 0x2964 SWAP2 SWAP1 PUSH3 0x4CB4 JUMP JUMPDEST PUSH1 0x20 PUSH1 0x40 MLOAD DUP1 DUP4 SUB DUP2 DUP7 DUP1 EXTCODESIZE ISZERO DUP1 ISZERO PUSH3 0x297D JUMPI PUSH1 0x0 DUP1 REVERT JUMPDEST POP GAS STATICCALL ISZERO DUP1 ISZERO PUSH3 0x2992 JUMPI RETURNDATASIZE PUSH1 0x0 DUP1 RETURNDATACOPY RETURNDATASIZE PUSH1 0x0 REVERT JUMPDEST POP POP POP POP PUSH1 0x40 MLOAD RETURNDATASIZE PUSH1 0x1F NOT PUSH1 0x1F DUP3 ADD AND DUP3 ADD DUP1 PUSH1 0x40 MSTORE POP DUP2 ADD SWAP1 PUSH3 0x29B8 SWAP2 SWAP1 PUSH3 0x44E3 JUMP JUMPDEST DUP7 PUSH1 0x20 ADD DUP2 DUP2 MSTORE POP POP PUSH3 0x2F80 JUMP JUMPDEST DUP8 DUP6 PUSH20 0xFFFFFFFFFFFFFFFFFFFFFFFFFFFFFFFFFFFFFFFF AND PUSH4 0xDD62ED3E ORIGIN PUSH1 0x4 PUSH1 0x0 SWAP1 SLOAD SWAP1 PUSH2 0x100 EXP SWAP1 DIV PUSH20 0xFFFFFFFFFFFFFFFFFFFFFFFFFFFFFFFFFFFFFFFF AND PUSH1 0x40 MLOAD DUP4 PUSH4 0xFFFFFFFF AND PUSH1 0xE0 SHL DUP2 MSTORE PUSH1 0x4 ADD PUSH3 0x2A27 SWAP3 SWAP2 SWAP1 PUSH3 0x4CD1 JUMP JUMPDEST PUSH1 0x20 PUSH1 0x40 MLOAD DUP1 DUP4 SUB DUP2 DUP7 DUP1 EXTCODESIZE ISZERO DUP1 ISZERO PUSH3 0x2A40 JUMPI PUSH1 0x0 DUP1 REVERT JUMPDEST POP GAS STATICCALL ISZERO DUP1 ISZERO PUSH3 0x2A55 JUMPI RETURNDATASIZE PUSH1 0x0 DUP1 RETURNDATACOPY RETURNDATASIZE PUSH1 0x0 REVERT JUMPDEST POP POP POP POP PUSH1 0x40 MLOAD RETURNDATASIZE PUSH1 0x1F NOT PUSH1 0x1F DUP3 ADD AND DUP3 ADD DUP1 PUSH1 0x40 MSTORE POP DUP2 ADD SWAP1 PUSH3 0x2A7B SWAP2 SWAP1 PUSH3 0x44E3 JUMP JUMPDEST LT ISZERO DUP1 ISZERO PUSH3 0x2B18 JUMPI POP DUP8 DUP6 PUSH20 0xFFFFFFFFFFFFFFFFFFFFFFFFFFFFFFFFFFFFFFFF AND PUSH4 0x70A08231 ORIGIN PUSH1 0x40 MLOAD DUP3 PUSH4 0xFFFFFFFF AND PUSH1 0xE0 SHL DUP2 MSTORE PUSH1 0x4 ADD PUSH3 0x2AC1 SWAP2 SWAP1 PUSH3 0x4CB4 JUMP JUMPDEST PUSH1 0x20 PUSH1 0x40 MLOAD DUP1 DUP4 SUB DUP2 DUP7 DUP1 EXTCODESIZE ISZERO DUP1 ISZERO PUSH3 0x2ADA JUMPI PUSH1 0x0 DUP1 REVERT JUMPDEST POP GAS STATICCALL ISZERO DUP1 ISZERO PUSH3 0x2AEF JUMPI RETURNDATASIZE PUSH1 0x0 DUP1 RETURNDATACOPY RETURNDATASIZE PUSH1 0x0 REVERT JUMPDEST POP POP POP POP PUSH1 0x40 MLOAD RETURNDATASIZE PUSH1 0x1F NOT PUSH1 0x1F DUP3 ADD AND DUP3 ADD DUP1 PUSH1 0x40 MSTORE POP DUP2 ADD SWAP1 PUSH3 0x2B15 SWAP2 SWAP1 PUSH3 0x44E3 JUMP JUMPDEST LT ISZERO JUMPDEST ISZERO PUSH3 0x2D52 JUMPI DUP5 PUSH20 0xFFFFFFFFFFFFFFFFFFFFFFFFFFFFFFFFFFFFFFFF AND PUSH4 0x70A08231 ORIGIN PUSH1 0x40 MLOAD DUP3 PUSH4 0xFFFFFFFF AND PUSH1 0xE0 SHL DUP2 MSTORE PUSH1 0x4 ADD PUSH3 0x2B59 SWAP2 SWAP1 PUSH3 0x4CB4 JUMP JUMPDEST PUSH1 0x20 PUSH1 0x40 MLOAD DUP1 DUP4 SUB DUP2 DUP7 DUP1 EXTCODESIZE ISZERO DUP1 ISZERO PUSH3 0x2B72 JUMPI PUSH1 0x0 DUP1 REVERT JUMPDEST POP GAS STATICCALL ISZERO DUP1 ISZERO PUSH3 0x2B87 JUMPI RETURNDATASIZE PUSH1 0x0 DUP1 RETURNDATACOPY RETURNDATASIZE PUSH1 0x0 REVERT JUMPDEST POP POP POP POP PUSH1 0x40 MLOAD RETURNDATASIZE PUSH1 0x1F NOT PUSH1 0x1F DUP3 ADD AND DUP3 ADD DUP1 PUSH1 0x40 MSTORE POP DUP2 ADD SWAP1 PUSH3 0x2BAD SWAP2 SWAP1 PUSH3 0x44E3 JUMP JUMPDEST DUP7 PUSH1 0x0 ADD DUP2 DUP2 MSTORE POP POP GAS DUP7 PUSH2 0x100 ADD DUP2 DUP2 MSTORE POP POP DUP5 PUSH20 0xFFFFFFFFFFFFFFFFFFFFFFFFFFFFFFFFFFFFFFFF AND PUSH4 0x23B872DD ORIGIN DUP12 DUP12 PUSH1 0x40 MLOAD DUP5 PUSH4 0xFFFFFFFF AND PUSH1 0xE0 SHL DUP2 MSTORE PUSH1 0x4 ADD PUSH3 0x2C00 SWAP4 SWAP3 SWAP2 SWAP1 PUSH3 0x4E45 JUMP JUMPDEST PUSH1 0x20 PUSH1 0x40 MLOAD DUP1 DUP4 SUB DUP2 PUSH1 0x0 DUP8 DUP1 EXTCODESIZE ISZERO DUP1 ISZERO PUSH3 0x2C1B JUMPI PUSH1 0x0 DUP1 REVERT JUMPDEST POP GAS CALL ISZERO DUP1 ISZERO PUSH3 0x2C30 JUMPI RETURNDATASIZE PUSH1 0x0 DUP1 RETURNDATACOPY RETURNDATASIZE PUSH1 0x0 REVERT JUMPDEST POP POP POP POP PUSH1 0x40 MLOAD RETURNDATASIZE PUSH1 0x1F NOT PUSH1 0x1F DUP3 ADD AND DUP3 ADD DUP1 PUSH1 0x40 MSTORE POP DUP2 ADD SWAP1 PUSH3 0x2C56 SWAP2 SWAP1 PUSH3 0x434F JUMP JUMPDEST PUSH3 0x2C98 JUMPI PUSH1 0x40 MLOAD PUSH32 0x8C379A000000000000000000000000000000000000000000000000000000000 DUP2 MSTORE PUSH1 0x4 ADD PUSH3 0x2C8F SWAP1 PUSH3 0x4F17 JUMP JUMPDEST PUSH1 0x40 MLOAD DUP1 SWAP2 SUB SWAP1 REVERT JUMPDEST GAS DUP7 PUSH2 0x100 ADD DUP2 DUP2 MLOAD PUSH3 0x2CAD SWAP2 SWAP1 PUSH3 0x53A4 JUMP JUMPDEST SWAP2 POP DUP2 DUP2 MSTORE POP POP DUP5 PUSH20 0xFFFFFFFFFFFFFFFFFFFFFFFFFFFFFFFFFFFFFFFF AND PUSH4 0x70A08231 ORIGIN PUSH1 0x40 MLOAD DUP3 PUSH4 0xFFFFFFFF AND PUSH1 0xE0 SHL DUP2 MSTORE PUSH1 0x4 ADD PUSH3 0x2CEF SWAP2 SWAP1 PUSH3 0x4CB4 JUMP JUMPDEST PUSH1 0x20 PUSH1 0x40 MLOAD DUP1 DUP4 SUB DUP2 DUP7 DUP1 EXTCODESIZE ISZERO DUP1 ISZERO PUSH3 0x2D08 JUMPI PUSH1 0x0 DUP1 REVERT JUMPDEST POP GAS STATICCALL ISZERO DUP1 ISZERO PUSH3 0x2D1D JUMPI RETURNDATASIZE PUSH1 0x0 DUP1 RETURNDATACOPY RETURNDATASIZE PUSH1 0x0 REVERT JUMPDEST POP POP POP POP PUSH1 0x40 MLOAD RETURNDATASIZE PUSH1 0x1F NOT PUSH1 0x1F DUP3 ADD AND DUP3 ADD DUP1 PUSH1 0x40 MSTORE POP DUP2 ADD SWAP1 PUSH3 0x2D43 SWAP2 SWAP1 PUSH3 0x44E3 JUMP JUMPDEST DUP7 PUSH1 0x20 ADD DUP2 DUP2 MSTORE POP POP PUSH3 0x2F7F JUMP JUMPDEST DUP5 PUSH20 0xFFFFFFFFFFFFFFFFFFFFFFFFFFFFFFFFFFFFFFFF AND PUSH4 0x70A08231 ADDRESS PUSH1 0x40 MLOAD DUP3 PUSH4 0xFFFFFFFF AND PUSH1 0xE0 SHL DUP2 MSTORE PUSH1 0x4 ADD PUSH3 0x2D8D SWAP2 SWAP1 PUSH3 0x4CB4 JUMP JUMPDEST PUSH1 0x20 PUSH1 0x40 MLOAD DUP1 DUP4 SUB DUP2 DUP7 DUP1 EXTCODESIZE ISZERO DUP1 ISZERO PUSH3 0x2DA6 JUMPI PUSH1 0x0 DUP1 REVERT JUMPDEST POP GAS STATICCALL ISZERO DUP1 ISZERO PUSH3 0x2DBB JUMPI RETURNDATASIZE PUSH1 0x0 DUP1 RETURNDATACOPY RETURNDATASIZE PUSH1 0x0 REVERT JUMPDEST POP POP POP POP PUSH1 0x40 MLOAD RETURNDATASIZE PUSH1 0x1F NOT PUSH1 0x1F DUP3 ADD AND DUP3 ADD DUP1 PUSH1 0x40 MSTORE POP DUP2 ADD SWAP1 PUSH3 0x2DE1 SWAP2 SWAP1 PUSH3 0x44E3 JUMP JUMPDEST DUP7 PUSH1 0x0 ADD DUP2 DUP2 MSTORE POP POP GAS DUP7 PUSH2 0x100 ADD DUP2 DUP2 MSTORE POP POP DUP5 PUSH20 0xFFFFFFFFFFFFFFFFFFFFFFFFFFFFFFFFFFFFFFFF AND PUSH4 0xA9059CBB DUP11 DUP11 PUSH1 0x40 MLOAD DUP4 PUSH4 0xFFFFFFFF AND PUSH1 0xE0 SHL DUP2 MSTORE PUSH1 0x4 ADD PUSH3 0x2E32 SWAP3 SWAP2 SWAP1 PUSH3 0x4E82 JUMP JUMPDEST PUSH1 0x20 PUSH1 0x40 MLOAD DUP1 DUP4 SUB DUP2 PUSH1 0x0 DUP8 DUP1 EXTCODESIZE ISZERO DUP1 ISZERO PUSH3 0x2E4D JUMPI PUSH1 0x0 DUP1 REVERT JUMPDEST POP GAS CALL ISZERO DUP1 ISZERO PUSH3 0x2E62 JUMPI RETURNDATASIZE PUSH1 0x0 DUP1 RETURNDATACOPY RETURNDATASIZE PUSH1 0x0 REVERT JUMPDEST POP POP POP POP PUSH1 0x40 MLOAD RETURNDATASIZE PUSH1 0x1F NOT PUSH1 0x1F DUP3 ADD AND DUP3 ADD DUP1 PUSH1 0x40 MSTORE POP DUP2 ADD SWAP1 PUSH3 0x2E88 SWAP2 SWAP1 PUSH3 0x434F JUMP JUMPDEST PUSH3 0x2ECA JUMPI PUSH1 0x40 MLOAD PUSH32 0x8C379A000000000000000000000000000000000000000000000000000000000 DUP2 MSTORE PUSH1 0x4 ADD PUSH3 0x2EC1 SWAP1 PUSH3 0x4F39 JUMP JUMPDEST PUSH1 0x40 MLOAD DUP1 SWAP2 SUB SWAP1 REVERT JUMPDEST GAS DUP7 PUSH2 0x100 ADD DUP2 DUP2 MLOAD PUSH3 0x2EDF SWAP2 SWAP1 PUSH3 0x53A4 JUMP JUMPDEST SWAP2 POP DUP2 DUP2 MSTORE POP POP DUP5 PUSH20 0xFFFFFFFFFFFFFFFFFFFFFFFFFFFFFFFFFFFFFFFF AND PUSH4 0x70A08231 ADDRESS PUSH1 0x40 MLOAD DUP3 PUSH4 0xFFFFFFFF AND PUSH1 0xE0 SHL DUP2 MSTORE PUSH1 0x4 ADD PUSH3 0x2F21 SWAP2 SWAP1 PUSH3 0x4CB4 JUMP JUMPDEST PUSH1 0x20 PUSH1 0x40 MLOAD DUP1 DUP4 SUB DUP2 DUP7 DUP1 EXTCODESIZE ISZERO DUP1 ISZERO PUSH3 0x2F3A JUMPI PUSH1 0x0 DUP1 REVERT JUMPDEST POP GAS STATICCALL ISZERO DUP1 ISZERO PUSH3 0x2F4F JUMPI RETURNDATASIZE PUSH1 0x0 DUP1 RETURNDATACOPY RETURNDATASIZE PUSH1 0x0 REVERT JUMPDEST POP POP POP POP PUSH1 0x40 MLOAD RETURNDATASIZE PUSH1 0x1F NOT PUSH1 0x1F DUP3 ADD AND DUP3 ADD DUP1 PUSH1 0x40 MSTORE POP DUP2 ADD SWAP1 PUSH3 0x2F75 SWAP2 SWAP1 PUSH3 0x44E3 JUMP JUMPDEST DUP7 PUSH1 0x20 ADD DUP2 DUP2 MSTORE POP POP JUMPDEST JUMPDEST JUMPDEST DUP5 PUSH20 0xFFFFFFFFFFFFFFFFFFFFFFFFFFFFFFFFFFFFFFFF AND PUSH4 0x70A08231 DUP11 PUSH1 0x40 MLOAD DUP3 PUSH4 0xFFFFFFFF AND PUSH1 0xE0 SHL DUP2 MSTORE PUSH1 0x4 ADD PUSH3 0x2FBC SWAP2 SWAP1 PUSH3 0x4CB4 JUMP JUMPDEST PUSH1 0x20 PUSH1 0x40 MLOAD DUP1 DUP4 SUB DUP2 DUP7 DUP1 EXTCODESIZE ISZERO DUP1 ISZERO PUSH3 0x2FD5 JUMPI PUSH1 0x0 DUP1 REVERT JUMPDEST POP GAS STATICCALL ISZERO DUP1 ISZERO PUSH3 0x2FEA JUMPI RETURNDATASIZE PUSH1 0x0 DUP1 RETURNDATACOPY RETURNDATASIZE PUSH1 0x0 REVERT JUMPDEST POP POP POP POP PUSH1 0x40 MLOAD RETURNDATASIZE PUSH1 0x1F NOT PUSH1 0x1F DUP3 ADD AND DUP3 ADD DUP1 PUSH1 0x40 MSTORE POP DUP2 ADD SWAP1 PUSH3 0x3010 SWAP2 SWAP1 PUSH3 0x44E3 JUMP JUMPDEST DUP7 PUSH1 0x60 ADD DUP2 DUP2 MSTORE POP POP DUP7 ISZERO PUSH3 0x327F JUMPI PUSH1 0x0 DUP1 DUP6 PUSH20 0xFFFFFFFFFFFFFFFFFFFFFFFFFFFFFFFFFFFFFFFF AND PUSH4 0x902F1AC PUSH1 0x40 MLOAD DUP2 PUSH4 0xFFFFFFFF AND PUSH1 0xE0 SHL DUP2 MSTORE PUSH1 0x4 ADD PUSH1 0x60 PUSH1 0x40 MLOAD DUP1 DUP4 SUB DUP2 DUP7 DUP1 EXTCODESIZE ISZERO DUP1 ISZERO PUSH3 0x306A JUMPI PUSH1 0x0 DUP1 REVERT JUMPDEST POP GAS STATICCALL ISZERO DUP1 ISZERO PUSH3 0x307F JUMPI RETURNDATASIZE PUSH1 0x0 DUP1 RETURNDATACOPY RETURNDATASIZE PUSH1 0x0 REVERT JUMPDEST POP POP POP POP PUSH1 0x40 MLOAD RETURNDATASIZE PUSH1 0x1F NOT PUSH1 0x1F DUP3 ADD AND DUP3 ADD DUP1 PUSH1 0x40 MSTORE POP DUP2 ADD SWAP1 PUSH3 0x30A5 SWAP2 SWAP1 PUSH3 0x4487 JUMP JUMPDEST POP PUSH14 0xFFFFFFFFFFFFFFFFFFFFFFFFFFFF AND SWAP2 POP PUSH14 0xFFFFFFFFFFFFFFFFFFFFFFFFFFFF AND SWAP2 POP DUP13 PUSH20 0xFFFFFFFFFFFFFFFFFFFFFFFFFFFFFFFFFFFFFFFF AND DUP7 PUSH20 0xFFFFFFFFFFFFFFFFFFFFFFFFFFFFFFFFFFFFFFFF AND PUSH4 0xDFE1681 PUSH1 0x40 MLOAD DUP2 PUSH4 0xFFFFFFFF AND PUSH1 0xE0 SHL DUP2 MSTORE PUSH1 0x4 ADD PUSH1 0x20 PUSH1 0x40 MLOAD DUP1 DUP4 SUB DUP2 DUP7 DUP1 EXTCODESIZE ISZERO DUP1 ISZERO PUSH3 0x3128 JUMPI PUSH1 0x0 DUP1 REVERT JUMPDEST POP GAS STATICCALL ISZERO DUP1 ISZERO PUSH3 0x313D JUMPI RETURNDATASIZE PUSH1 0x0 DUP1 RETURNDATACOPY RETURNDATASIZE PUSH1 0x0 REVERT JUMPDEST POP POP POP POP PUSH1 0x40 MLOAD RETURNDATASIZE PUSH1 0x1F NOT PUSH1 0x1F DUP3 ADD AND DUP3 ADD DUP1 PUSH1 0x40 MSTORE POP DUP2 ADD SWAP1 PUSH3 0x3163 SWAP2 SWAP1 PUSH3 0x4152 JUMP JUMPDEST PUSH20 0xFFFFFFFFFFFFFFFFFFFFFFFFFFFFFFFFFFFFFFFF AND EQ ISZERO PUSH3 0x31B4 JUMPI DUP2 DUP9 PUSH1 0x60 ADD MLOAD PUSH3 0x3192 SWAP2 SWAP1 PUSH3 0x53A4 JUMP JUMPDEST DUP9 PUSH1 0xC0 ADD DUP2 DUP2 MSTORE POP POP DUP4 DUP2 LT DUP9 PUSH2 0x160 ADD SWAP1 ISZERO ISZERO SWAP1 DUP2 ISZERO ISZERO DUP2 MSTORE POP POP PUSH3 0x31E3 JUMP JUMPDEST DUP1 DUP9 PUSH1 0x60 ADD MLOAD PUSH3 0x31C6 SWAP2 SWAP1 PUSH3 0x53A4 JUMP JUMPDEST DUP9 PUSH1 0xC0 ADD DUP2 DUP2 MSTORE POP POP DUP5 DUP3 LT DUP9 PUSH2 0x160 ADD SWAP1 ISZERO ISZERO SWAP1 DUP2 ISZERO ISZERO DUP2 MSTORE POP POP JUMPDEST DUP3 DUP7 PUSH20 0xFFFFFFFFFFFFFFFFFFFFFFFFFFFFFFFFFFFFFFFF AND PUSH4 0x18160DDD PUSH1 0x40 MLOAD DUP2 PUSH4 0xFFFFFFFF AND PUSH1 0xE0 SHL DUP2 MSTORE PUSH1 0x4 ADD PUSH1 0x20 PUSH1 0x40 MLOAD DUP1 DUP4 SUB DUP2 DUP7 DUP1 EXTCODESIZE ISZERO DUP1 ISZERO PUSH3 0x322B JUMPI PUSH1 0x0 DUP1 REVERT JUMPDEST POP GAS STATICCALL ISZERO DUP1 ISZERO PUSH3 0x3240 JUMPI RETURNDATASIZE PUSH1 0x0 DUP1 RETURNDATACOPY RETURNDATASIZE PUSH1 0x0 REVERT JUMPDEST POP POP POP POP PUSH1 0x40 MLOAD RETURNDATASIZE PUSH1 0x1F NOT PUSH1 0x1F DUP3 ADD AND DUP3 ADD DUP1 PUSH1 0x40 MSTORE POP DUP2 ADD SWAP1 PUSH3 0x3266 SWAP2 SWAP1 PUSH3 0x44E3 JUMP JUMPDEST GT DUP9 PUSH2 0x140 ADD SWAP1 ISZERO ISZERO SWAP1 DUP2 ISZERO ISZERO DUP2 MSTORE POP POP POP POP PUSH3 0x329F JUMP JUMPDEST DUP6 PUSH1 0x40 ADD MLOAD DUP7 PUSH1 0x60 ADD MLOAD PUSH3 0x3295 SWAP2 SWAP1 PUSH3 0x53A4 JUMP JUMPDEST DUP7 PUSH1 0xC0 ADD DUP2 DUP2 MSTORE POP POP JUMPDEST DUP6 PUSH1 0x20 ADD MLOAD DUP7 PUSH1 0x0 ADD MLOAD SUB DUP7 PUSH1 0xA0 ADD DUP2 DUP2 MSTORE POP POP DUP6 PUSH1 0xA0 ADD MLOAD DUP9 SUB DUP7 PUSH1 0xE0 ADD DUP2 DUP2 MSTORE POP POP PUSH3 0x32D7 DUP7 PUSH1 0xC0 ADD MLOAD DUP8 PUSH1 0xA0 ADD MLOAD PUSH3 0x392C JUMP JUMPDEST DUP7 PUSH2 0x120 ADD DUP2 DUP2 MSTORE POP POP POP POP POP POP POP SWAP6 SWAP5 POP POP POP POP POP JUMP JUMPDEST PUSH3 0x32F9 PUSH3 0x3A2F JUMP JUMPDEST PUSH1 0x0 DUP6 SWAP1 POP PUSH1 0x0 DUP1 DUP7 EQ PUSH3 0x3390 JUMPI DUP2 PUSH20 0xFFFFFFFFFFFFFFFFFFFFFFFFFFFFFFFFFFFFFFFF AND PUSH4 0xDFE1681 PUSH1 0x40 MLOAD DUP2 PUSH4 0xFFFFFFFF AND PUSH1 0xE0 SHL DUP2 MSTORE PUSH1 0x4 ADD PUSH1 0x20 PUSH1 0x40 MLOAD DUP1 DUP4 SUB DUP2 DUP7 DUP1 EXTCODESIZE ISZERO DUP1 ISZERO PUSH3 0x334F JUMPI PUSH1 0x0 DUP1 REVERT JUMPDEST POP GAS STATICCALL ISZERO DUP1 ISZERO PUSH3 0x3364 JUMPI RETURNDATASIZE PUSH1 0x0 DUP1 RETURNDATACOPY RETURNDATASIZE PUSH1 0x0 REVERT JUMPDEST POP POP POP POP PUSH1 0x40 MLOAD RETURNDATASIZE PUSH1 0x1F NOT PUSH1 0x1F DUP3 ADD AND DUP3 ADD DUP1 PUSH1 0x40 MSTORE POP DUP2 ADD SWAP1 PUSH3 0x338A SWAP2 SWAP1 PUSH3 0x4152 JUMP JUMPDEST PUSH3 0x3413 JUMP JUMPDEST DUP2 PUSH20 0xFFFFFFFFFFFFFFFFFFFFFFFFFFFFFFFFFFFFFFFF AND PUSH4 0xD21220A7 PUSH1 0x40 MLOAD DUP2 PUSH4 0xFFFFFFFF AND PUSH1 0xE0 SHL DUP2 MSTORE PUSH1 0x4 ADD PUSH1 0x20 PUSH1 0x40 MLOAD DUP1 DUP4 SUB DUP2 DUP7 DUP1 EXTCODESIZE ISZERO DUP1 ISZERO PUSH3 0x33D7 JUMPI PUSH1 0x0 DUP1 REVERT JUMPDEST POP GAS STATICCALL ISZERO DUP1 ISZERO PUSH3 0x33EC JUMPI RETURNDATASIZE PUSH1 0x0 DUP1 RETURNDATACOPY RETURNDATASIZE PUSH1 0x0 REVERT JUMPDEST POP POP POP POP PUSH1 0x40 MLOAD RETURNDATASIZE PUSH1 0x1F NOT PUSH1 0x1F DUP3 ADD AND DUP3 ADD DUP1 PUSH1 0x40 MSTORE POP DUP2 ADD SWAP1 PUSH3 0x3412 SWAP2 SWAP1 PUSH3 0x4152 JUMP JUMPDEST JUMPDEST SWAP1 POP PUSH1 0x0 DUP7 EQ PUSH3 0x3425 JUMPI DUP6 PUSH3 0x3427 JUMP JUMPDEST DUP5 JUMPDEST DUP4 PUSH1 0x80 ADD DUP2 DUP2 MSTORE POP POP DUP1 PUSH20 0xFFFFFFFFFFFFFFFFFFFFFFFFFFFFFFFFFFFFFFFF AND PUSH4 0x70A08231 DUP9 PUSH1 0x40 MLOAD DUP3 PUSH4 0xFFFFFFFF AND PUSH1 0xE0 SHL DUP2 MSTORE PUSH1 0x4 ADD PUSH3 0x346B SWAP2 SWAP1 PUSH3 0x4CB4 JUMP JUMPDEST PUSH1 0x20 PUSH1 0x40 MLOAD DUP1 DUP4 SUB DUP2 DUP7 DUP1 EXTCODESIZE ISZERO DUP1 ISZERO PUSH3 0x3484 JUMPI PUSH1 0x0 DUP1 REVERT JUMPDEST POP GAS STATICCALL ISZERO DUP1 ISZERO PUSH3 0x3499 JUMPI RETURNDATASIZE PUSH1 0x0 DUP1 RETURNDATACOPY RETURNDATASIZE PUSH1 0x0 REVERT JUMPDEST POP POP POP POP PUSH1 0x40 MLOAD RETURNDATASIZE PUSH1 0x1F NOT PUSH1 0x1F DUP3 ADD AND DUP3 ADD DUP1 PUSH1 0x40 MSTORE POP DUP2 ADD SWAP1 PUSH3 0x34BF SWAP2 SWAP1 PUSH3 0x44E3 JUMP JUMPDEST DUP4 PUSH1 0x0 ADD DUP2 DUP2 MSTORE POP POP DUP1 PUSH20 0xFFFFFFFFFFFFFFFFFFFFFFFFFFFFFFFFFFFFFFFF AND PUSH4 0x70A08231 DUP6 PUSH1 0x40 MLOAD DUP3 PUSH4 0xFFFFFFFF AND PUSH1 0xE0 SHL DUP2 MSTORE PUSH1 0x4 ADD PUSH3 0x3503 SWAP2 SWAP1 PUSH3 0x4CB4 JUMP JUMPDEST PUSH1 0x20 PUSH1 0x40 MLOAD DUP1 DUP4 SUB DUP2 DUP7 DUP1 EXTCODESIZE ISZERO DUP1 ISZERO PUSH3 0x351C JUMPI PUSH1 0x0 DUP1 REVERT JUMPDEST POP GAS STATICCALL ISZERO DUP1 ISZERO PUSH3 0x3531 JUMPI RETURNDATASIZE PUSH1 0x0 DUP1 RETURNDATACOPY RETURNDATASIZE PUSH1 0x0 REVERT JUMPDEST POP POP POP POP PUSH1 0x40 MLOAD RETURNDATASIZE PUSH1 0x1F NOT PUSH1 0x1F DUP3 ADD AND DUP3 ADD DUP1 PUSH1 0x40 MSTORE POP DUP2 ADD SWAP1 PUSH3 0x3557 SWAP2 SWAP1 PUSH3 0x44E3 JUMP JUMPDEST DUP4 PUSH1 0x40 ADD DUP2 DUP2 MSTORE POP POP GAS DUP4 PUSH2 0x100 ADD DUP2 DUP2 MSTORE POP POP DUP2 PUSH20 0xFFFFFFFFFFFFFFFFFFFFFFFFFFFFFFFFFFFFFFFF AND PUSH4 0x22C0D9F DUP8 DUP8 DUP8 PUSH1 0x0 PUSH8 0xFFFFFFFFFFFFFFFF DUP2 GT ISZERO PUSH3 0x35A8 JUMPI PUSH3 0x35A7 PUSH3 0x5610 JUMP JUMPDEST JUMPDEST PUSH1 0x40 MLOAD SWAP1 DUP1 DUP3 MSTORE DUP1 PUSH1 0x1F ADD PUSH1 0x1F NOT AND PUSH1 0x20 ADD DUP3 ADD PUSH1 0x40 MSTORE DUP1 ISZERO PUSH3 0x35DB JUMPI DUP2 PUSH1 0x20 ADD PUSH1 0x1 DUP3 MUL DUP1 CALLDATASIZE DUP4 CALLDATACOPY DUP1 DUP3 ADD SWAP2 POP POP SWAP1 POP JUMPDEST POP PUSH1 0x40 MLOAD DUP6 PUSH4 0xFFFFFFFF AND PUSH1 0xE0 SHL DUP2 MSTORE PUSH1 0x4 ADD PUSH3 0x35FD SWAP5 SWAP4 SWAP3 SWAP2 SWAP1 PUSH3 0x4FF4 JUMP JUMPDEST PUSH1 0x0 PUSH1 0x40 MLOAD DUP1 DUP4 SUB DUP2 PUSH1 0x0 DUP8 DUP1 EXTCODESIZE ISZERO DUP1 ISZERO PUSH3 0x3618 JUMPI PUSH1 0x0 DUP1 REVERT JUMPDEST POP GAS CALL ISZERO DUP1 ISZERO PUSH3 0x362D JUMPI RETURNDATASIZE PUSH1 0x0 DUP1 RETURNDATACOPY RETURNDATASIZE PUSH1 0x0 REVERT JUMPDEST POP POP POP POP GAS DUP4 PUSH2 0x100 ADD DUP2 DUP2 MLOAD PUSH3 0x3646 SWAP2 SWAP1 PUSH3 0x53A4 JUMP JUMPDEST SWAP2 POP DUP2 DUP2 MSTORE POP POP DUP1 PUSH20 0xFFFFFFFFFFFFFFFFFFFFFFFFFFFFFFFFFFFFFFFF AND PUSH4 0x70A08231 DUP9 PUSH1 0x40 MLOAD DUP3 PUSH4 0xFFFFFFFF AND PUSH1 0xE0 SHL DUP2 MSTORE PUSH1 0x4 ADD PUSH3 0x3688 SWAP2 SWAP1 PUSH3 0x4CB4 JUMP JUMPDEST PUSH1 0x20 PUSH1 0x40 MLOAD DUP1 DUP4 SUB DUP2 DUP7 DUP1 EXTCODESIZE ISZERO DUP1 ISZERO PUSH3 0x36A1 JUMPI PUSH1 0x0 DUP1 REVERT JUMPDEST POP GAS STATICCALL ISZERO DUP1 ISZERO PUSH3 0x36B6 JUMPI RETURNDATASIZE PUSH1 0x0 DUP1 RETURNDATACOPY RETURNDATASIZE PUSH1 0x0 REVERT JUMPDEST POP POP POP POP PUSH1 0x40 MLOAD RETURNDATASIZE PUSH1 0x1F NOT PUSH1 0x1F DUP3 ADD AND DUP3 ADD DUP1 PUSH1 0x40 MSTORE POP DUP2 ADD SWAP1 PUSH3 0x36DC SWAP2 SWAP1 PUSH3 0x44E3 JUMP JUMPDEST DUP4 PUSH1 0x20 ADD DUP2 DUP2 MSTORE POP POP DUP1 PUSH20 0xFFFFFFFFFFFFFFFFFFFFFFFFFFFFFFFFFFFFFFFF AND PUSH4 0x70A08231 DUP6 PUSH1 0x40 MLOAD DUP3 PUSH4 0xFFFFFFFF AND PUSH1 0xE0 SHL DUP2 MSTORE PUSH1 0x4 ADD PUSH3 0x3720 SWAP2 SWAP1 PUSH3 0x4CB4 JUMP JUMPDEST PUSH1 0x20 PUSH1 0x40 MLOAD DUP1 DUP4 SUB DUP2 DUP7 DUP1 EXTCODESIZE ISZERO DUP1 ISZERO PUSH3 0x3739 JUMPI PUSH1 0x0 DUP1 REVERT JUMPDEST POP GAS STATICCALL ISZERO DUP1 ISZERO PUSH3 0x374E JUMPI RETURNDATASIZE PUSH1 0x0 DUP1 RETURNDATACOPY RETURNDATASIZE PUSH1 0x0 REVERT JUMPDEST POP POP POP POP PUSH1 0x40 MLOAD RETURNDATASIZE PUSH1 0x1F NOT PUSH1 0x1F DUP3 ADD AND DUP3 ADD DUP1 PUSH1 0x40 MSTORE POP DUP2 ADD SWAP1 PUSH3 0x3774 SWAP2 SWAP1 PUSH3 0x44E3 JUMP JUMPDEST DUP4 PUSH1 0x60 ADD DUP2 DUP2 MSTORE POP POP DUP3 PUSH1 0x40 ADD MLOAD DUP4 PUSH1 0x60 ADD MLOAD SUB DUP4 PUSH1 0xC0 ADD DUP2 DUP2 MSTORE POP POP DUP3 PUSH1 0x20 ADD MLOAD DUP4 PUSH1 0x0 ADD MLOAD SUB DUP4 PUSH1 0xA0 ADD DUP2 DUP2 MSTORE POP POP DUP3 PUSH1 0xA0 ADD MLOAD DUP4 PUSH1 0x80 ADD MLOAD SUB DUP4 PUSH1 0xE0 ADD DUP2 DUP2 MSTORE POP POP PUSH3 0x37CD DUP4 PUSH1 0xC0 ADD MLOAD DUP5 PUSH1 0xA0 ADD MLOAD PUSH3 0x392C JUMP JUMPDEST DUP4 PUSH2 0x120 ADD DUP2 DUP2 MSTORE POP POP POP POP SWAP5 SWAP4 POP POP POP POP JUMP JUMPDEST PUSH1 0x0 DUP1 DUP4 DUP4 PUSH1 0x40 MLOAD PUSH3 0x37F4 SWAP1 PUSH3 0x3A94 JUMP JUMPDEST PUSH3 0x3801 SWAP3 SWAP2 SWAP1 PUSH3 0x4CD1 JUMP JUMPDEST PUSH1 0x40 MLOAD DUP1 SWAP2 SUB SWAP1 PUSH1 0x0 CREATE DUP1 ISZERO DUP1 ISZERO PUSH3 0x381E JUMPI RETURNDATASIZE PUSH1 0x0 DUP1 RETURNDATACOPY RETURNDATASIZE PUSH1 0x0 REVERT JUMPDEST POP SWAP1 POP DUP1 PUSH20 0xFFFFFFFFFFFFFFFFFFFFFFFFFFFFFFFFFFFFFFFF AND PUSH4 0x41C0E1B5 PUSH1 0x40 MLOAD DUP2 PUSH4 0xFFFFFFFF AND PUSH1 0xE0 SHL DUP2 MSTORE PUSH1 0x4 ADD PUSH1 0x0 PUSH1 0x40 MLOAD DUP1 DUP4 SUB DUP2 PUSH1 0x0 DUP8 DUP1 EXTCODESIZE ISZERO DUP1 ISZERO PUSH3 0x386A JUMPI PUSH1 0x0 DUP1 REVERT JUMPDEST POP GAS CALL ISZERO DUP1 ISZERO PUSH3 0x387F JUMPI RETURNDATASIZE PUSH1 0x0 DUP1 RETURNDATACOPY RETURNDATASIZE PUSH1 0x0 REVERT JUMPDEST POP POP POP POP PUSH1 0x3 DUP2 SWAP1 DUP1 PUSH1 0x1 DUP2 SLOAD ADD DUP1 DUP3 SSTORE DUP1 SWAP2 POP POP PUSH1 0x1 SWAP1 SUB SWAP1 PUSH1 0x0 MSTORE PUSH1 0x20 PUSH1 0x0 KECCAK256 ADD PUSH1 0x0 SWAP1 SWAP2 SWAP1 SWAP2 SWAP1 SWAP2 PUSH2 0x100 EXP DUP2 SLOAD DUP2 PUSH20 0xFFFFFFFFFFFFFFFFFFFFFFFFFFFFFFFFFFFFFFFF MUL NOT AND SWAP1 DUP4 PUSH20 0xFFFFFFFFFFFFFFFFFFFFFFFFFFFFFFFFFFFFFFFF AND MUL OR SWAP1 SSTORE POP DUP1 SWAP2 POP POP SWAP3 SWAP2 POP POP JUMP JUMPDEST PUSH1 0x0 DUP1 SLOAD PUSH1 0x2 SLOAD NUMBER TIMESTAMP PUSH1 0x40 MLOAD PUSH1 0x20 ADD PUSH3 0x390E SWAP5 SWAP4 SWAP3 SWAP2 SWAP1 PUSH3 0x5048 JUMP JUMPDEST PUSH1 0x40 MLOAD PUSH1 0x20 DUP2 DUP4 SUB SUB DUP2 MSTORE SWAP1 PUSH1 0x40 MSTORE DUP1 MLOAD SWAP1 PUSH1 0x20 ADD KECCAK256 PUSH1 0x0 SHR SWAP1 POP SWAP1 JUMP JUMPDEST PUSH1 0x0 DUP1 DUP3 EQ ISZERO PUSH3 0x3941 JUMPI PUSH1 0x0 SWAP1 POP PUSH3 0x3970 JUMP JUMPDEST DUP2 PUSH2 0x2710 DUP5 PUSH3 0x3952 SWAP2 SWAP1 PUSH3 0x52A5 JUMP JUMPDEST PUSH3 0x395E SWAP2 SWAP1 PUSH3 0x526D JUMP JUMPDEST PUSH2 0x2710 PUSH3 0x396D SWAP2 SWAP1 PUSH3 0x5306 JUMP JUMPDEST SWAP1 POP JUMPDEST SWAP3 SWAP2 POP POP JUMP JUMPDEST PUSH1 0x40 MLOAD DUP1 PUSH2 0x100 ADD PUSH1 0x40 MSTORE DUP1 PUSH1 0x0 DUP2 MSTORE PUSH1 0x20 ADD PUSH1 0x0 DUP2 MSTORE PUSH1 0x20 ADD PUSH3 0x399A PUSH3 0x39DB JUMP JUMPDEST DUP2 MSTORE PUSH1 0x20 ADD PUSH3 0x39A9 PUSH3 0x39DB JUMP JUMPDEST DUP2 MSTORE PUSH1 0x20 ADD PUSH3 0x39B8 PUSH3 0x39DB JUMP JUMPDEST DUP2 MSTORE PUSH1 0x20 ADD PUSH3 0x39C7 PUSH3 0x3AA2 JUMP JUMPDEST DUP2 MSTORE PUSH1 0x20 ADD PUSH1 0x0 DUP2 MSTORE PUSH1 0x20 ADD PUSH1 0x0 DUP2 MSTORE POP SWAP1 JUMP JUMPDEST PUSH1 0x40 MLOAD DUP1 PUSH1 0xA0 ADD PUSH1 0x40 MSTORE DUP1 PUSH1 0x0 PUSH1 0x2 DUP2 GT ISZERO PUSH3 0x39FD JUMPI PUSH3 0x39FC PUSH3 0x55B2 JUMP JUMPDEST JUMPDEST DUP2 MSTORE PUSH1 0x20 ADD PUSH1 0x0 DUP2 MSTORE PUSH1 0x20 ADD PUSH3 0x3A13 PUSH3 0x3A2F JUMP JUMPDEST DUP2 MSTORE PUSH1 0x20 ADD PUSH3 0x3A22 PUSH3 0x3A2F JUMP JUMPDEST DUP2 MSTORE PUSH1 0x20 ADD PUSH1 0x60 DUP2 MSTORE POP SWAP1 JUMP JUMPDEST PUSH1 0x40 MLOAD DUP1 PUSH2 0x180 ADD PUSH1 0x40 MSTORE DUP1 PUSH1 0x0 DUP2 MSTORE PUSH1 0x20 ADD PUSH1 0x0 DUP2 MSTORE PUSH1 0x20 ADD PUSH1 0x0 DUP2 MSTORE PUSH1 0x20 ADD PUSH1 0x0 DUP2 MSTORE PUSH1 0x20 ADD PUSH1 0x0 DUP2 MSTORE PUSH1 0x20 ADD PUSH1 0x0 DUP2 MSTORE PUSH1 0x20 ADD PUSH1 0x0 DUP2 MSTORE PUSH1 0x20 ADD PUSH1 0x0 DUP2 MSTORE PUSH1 0x20 ADD PUSH1 0x0 DUP2 MSTORE PUSH1 0x20 ADD PUSH1 0x0 DUP2 MSTORE PUSH1 0x20 ADD PUSH1 0x0 ISZERO ISZERO DUP2 MSTORE PUSH1 0x20 ADD PUSH1 0x0 ISZERO ISZERO DUP2 MSTORE POP SWAP1 JUMP JUMPDEST PUSH2 0x380 DUP1 PUSH3 0x58BA DUP4 CODECOPY ADD SWAP1 JUMP JUMPDEST PUSH1 0x40 MLOAD DUP1 PUSH1 0x60 ADD PUSH1 0x40 MSTORE DUP1 PUSH1 0x0 PUSH20 0xFFFFFFFFFFFFFFFFFFFFFFFFFFFFFFFFFFFFFFFF AND DUP2 MSTORE PUSH1 0x20 ADD PUSH1 0x0 DUP2 MSTORE PUSH1 0x20 ADD PUSH1 0x0 DUP2 MSTORE POP SWAP1 JUMP JUMPDEST PUSH1 0x0 PUSH3 0x3AF0 PUSH3 0x3AEA DUP5 PUSH3 0x50BE JUMP JUMPDEST PUSH3 0x5095 JUMP JUMPDEST SWAP1 POP DUP1 DUP4 DUP3 MSTORE PUSH1 0x20 DUP3 ADD SWAP1 POP DUP3 DUP6 PUSH1 0x20 DUP7 MUL DUP3 ADD GT ISZERO PUSH3 0x3B16 JUMPI PUSH3 0x3B15 PUSH3 0x567D JUMP JUMPDEST JUMPDEST PUSH1 0x0 JUMPDEST DUP6 DUP2 LT ISZERO PUSH3 0x3B4A JUMPI DUP2 PUSH3 0x3B2F DUP9 DUP3 PUSH3 0x40F2 JUMP JUMPDEST DUP5 MSTORE PUSH1 0x20 DUP5 ADD SWAP4 POP PUSH1 0x20 DUP4 ADD SWAP3 POP POP PUSH1 0x1 DUP2 ADD SWAP1 POP PUSH3 0x3B19 JUMP JUMPDEST POP POP POP SWAP4 SWAP3 POP POP POP JUMP JUMPDEST PUSH1 0x0 PUSH3 0x3B6B PUSH3 0x3B65 DUP5 PUSH3 0x50ED JUMP JUMPDEST PUSH3 0x5095 JUMP JUMPDEST SWAP1 POP DUP3 DUP2 MSTORE PUSH1 0x20 DUP2 ADD DUP5 DUP5 DUP5 ADD GT ISZERO PUSH3 0x3B8A JUMPI PUSH3 0x3B89 PUSH3 0x5682 JUMP JUMPDEST JUMPDEST PUSH3 0x3B97 DUP5 DUP3 DUP6 PUSH3 0x549A JUMP JUMPDEST POP SWAP4 SWAP3 POP POP POP JUMP JUMPDEST PUSH1 0x0 DUP2 CALLDATALOAD SWAP1 POP PUSH3 0x3BB0 DUP2 PUSH3 0x580C JUMP JUMPDEST SWAP3 SWAP2 POP POP JUMP JUMPDEST PUSH1 0x0 DUP2 MLOAD SWAP1 POP PUSH3 0x3BC7 DUP2 PUSH3 0x580C JUMP JUMPDEST SWAP3 SWAP2 POP POP JUMP JUMPDEST PUSH1 0x0 DUP1 DUP4 PUSH1 0x1F DUP5 ADD SLT PUSH3 0x3BE6 JUMPI PUSH3 0x3BE5 PUSH3 0x5669 JUMP JUMPDEST JUMPDEST DUP3 CALLDATALOAD SWAP1 POP PUSH8 0xFFFFFFFFFFFFFFFF DUP2 GT ISZERO PUSH3 0x3C06 JUMPI PUSH3 0x3C05 PUSH3 0x5664 JUMP JUMPDEST JUMPDEST PUSH1 0x20 DUP4 ADD SWAP2 POP DUP4 PUSH1 0xE0 DUP3 MUL DUP4 ADD GT ISZERO PUSH3 0x3C25 JUMPI PUSH3 0x3C24 PUSH3 0x567D JUMP JUMPDEST JUMPDEST SWAP3 POP SWAP3 SWAP1 POP JUMP JUMPDEST PUSH1 0x0 DUP3 PUSH1 0x1F DUP4 ADD SLT PUSH3 0x3C44 JUMPI PUSH3 0x3C43 PUSH3 0x5669 JUMP JUMPDEST JUMPDEST DUP2 MLOAD PUSH3 0x3C56 DUP5 DUP3 PUSH1 0x20 DUP7 ADD PUSH3 0x3AD9 JUMP JUMPDEST SWAP2 POP POP SWAP3 SWAP2 POP POP JUMP JUMPDEST PUSH1 0x0 DUP2 MLOAD SWAP1 POP PUSH3 0x3C70 DUP2 PUSH3 0x5826 JUMP JUMPDEST SWAP3 SWAP2 POP POP JUMP JUMPDEST PUSH1 0x0 DUP2 MLOAD SWAP1 POP PUSH3 0x3C87 DUP2 PUSH3 0x5840 JUMP JUMPDEST SWAP3 SWAP2 POP POP JUMP JUMPDEST PUSH1 0x0 DUP2 MLOAD SWAP1 POP PUSH3 0x3C9E DUP2 PUSH3 0x5851 JUMP JUMPDEST SWAP3 SWAP2 POP POP JUMP JUMPDEST PUSH1 0x0 DUP3 PUSH1 0x1F DUP4 ADD SLT PUSH3 0x3CBC JUMPI PUSH3 0x3CBB PUSH3 0x5669 JUMP JUMPDEST JUMPDEST DUP2 MLOAD PUSH3 0x3CCE DUP5 DUP3 PUSH1 0x20 DUP7 ADD PUSH3 0x3B54 JUMP JUMPDEST SWAP2 POP POP SWAP3 SWAP2 POP POP JUMP JUMPDEST PUSH1 0x0 PUSH1 0x60 DUP3 DUP5 SUB SLT ISZERO PUSH3 0x3CF0 JUMPI PUSH3 0x3CEF PUSH3 0x5673 JUMP JUMPDEST JUMPDEST PUSH3 0x3CFC PUSH1 0x60 PUSH3 0x5095 JUMP JUMPDEST SWAP1 POP PUSH1 0x0 PUSH3 0x3D0E DUP5 DUP3 DUP6 ADD PUSH3 0x3BB6 JUMP JUMPDEST PUSH1 0x0 DUP4 ADD MSTORE POP PUSH1 0x20 PUSH3 0x3D24 DUP5 DUP3 DUP6 ADD PUSH3 0x40F2 JUMP JUMPDEST PUSH1 0x20 DUP4 ADD MSTORE POP PUSH1 0x40 PUSH3 0x3D3A DUP5 DUP3 DUP6 ADD PUSH3 0x40F2 JUMP JUMPDEST PUSH1 0x40 DUP4 ADD MSTORE POP SWAP3 SWAP2 POP POP JUMP JUMPDEST PUSH1 0x0 PUSH1 0xA0 DUP3 DUP5 SUB SLT ISZERO PUSH3 0x3D5F JUMPI PUSH3 0x3D5E PUSH3 0x566E JUMP JUMPDEST JUMPDEST DUP2 SWAP1 POP SWAP3 SWAP2 POP POP JUMP JUMPDEST PUSH1 0x0 PUSH2 0x180 DUP3 DUP5 SUB SLT ISZERO PUSH3 0x3D82 JUMPI PUSH3 0x3D81 PUSH3 0x5673 JUMP JUMPDEST JUMPDEST PUSH3 0x3D8F PUSH2 0x180 PUSH3 0x5095 JUMP JUMPDEST SWAP1 POP PUSH1 0x0 PUSH3 0x3DA1 DUP5 DUP3 DUP6 ADD PUSH3 0x40F2 JUMP JUMPDEST PUSH1 0x0 DUP4 ADD MSTORE POP PUSH1 0x20 PUSH3 0x3DB7 DUP5 DUP3 DUP6 ADD PUSH3 0x40F2 JUMP JUMPDEST PUSH1 0x20 DUP4 ADD MSTORE POP PUSH1 0x40 PUSH3 0x3DCD DUP5 DUP3 DUP6 ADD PUSH3 0x40F2 JUMP JUMPDEST PUSH1 0x40 DUP4 ADD MSTORE POP PUSH1 0x60 PUSH3 0x3DE3 DUP5 DUP3 DUP6 ADD PUSH3 0x40F2 JUMP JUMPDEST PUSH1 0x60 DUP4 ADD MSTORE POP PUSH1 0x80 PUSH3 0x3DF9 DUP5 DUP3 DUP6 ADD PUSH3 0x40F2 JUMP JUMPDEST PUSH1 0x80 DUP4 ADD MSTORE POP PUSH1 0xA0 PUSH3 0x3E0F DUP5 DUP3 DUP6 ADD PUSH3 0x40F2 JUMP JUMPDEST PUSH1 0xA0 DUP4 ADD MSTORE POP PUSH1 0xC0 PUSH3 0x3E25 DUP5 DUP3 DUP6 ADD PUSH3 0x40F2 JUMP JUMPDEST PUSH1 0xC0 DUP4 ADD MSTORE POP PUSH1 0xE0 PUSH3 0x3E3B DUP5 DUP3 DUP6 ADD PUSH3 0x40F2 JUMP JUMPDEST PUSH1 0xE0 DUP4 ADD MSTORE POP PUSH2 0x100 PUSH3 0x3E52 DUP5 DUP3 DUP6 ADD PUSH3 0x40F2 JUMP JUMPDEST PUSH2 0x100 DUP4 ADD MSTORE POP PUSH2 0x120 PUSH3 0x3E6A DUP5 DUP3 DUP6 ADD PUSH3 0x3C8D JUMP JUMPDEST PUSH2 0x120 DUP4 ADD MSTORE POP PUSH2 0x140 PUSH3 0x3E82 DUP5 DUP3 DUP6 ADD PUSH3 0x3C5F JUMP JUMPDEST PUSH2 0x140 DUP4 ADD MSTORE POP PUSH2 0x160 PUSH3 0x3E9A DUP5 DUP3 DUP6 ADD PUSH3 0x3C5F JUMP JUMPDEST PUSH2 0x160 DUP4 ADD MSTORE POP SWAP3 SWAP2 POP POP JUMP JUMPDEST PUSH1 0x0 PUSH1 0xE0 DUP3 DUP5 SUB SLT ISZERO PUSH3 0x3EC0 JUMPI PUSH3 0x3EBF PUSH3 0x566E JUMP JUMPDEST JUMPDEST DUP2 SWAP1 POP SWAP3 SWAP2 POP POP JUMP JUMPDEST PUSH1 0x0 PUSH2 0x360 DUP3 DUP5 SUB SLT ISZERO PUSH3 0x3EE3 JUMPI PUSH3 0x3EE2 PUSH3 0x5673 JUMP JUMPDEST JUMPDEST PUSH3 0x3EEF PUSH1 0xA0 PUSH3 0x5095 JUMP JUMPDEST SWAP1 POP PUSH1 0x0 PUSH3 0x3F01 DUP5 DUP3 DUP6 ADD PUSH3 0x3C76 JUMP JUMPDEST PUSH1 0x0 DUP4 ADD MSTORE POP PUSH1 0x20 PUSH3 0x3F17 DUP5 DUP3 DUP6 ADD PUSH3 0x40F2 JUMP JUMPDEST PUSH1 0x20 DUP4 ADD MSTORE POP PUSH1 0x40 PUSH3 0x3F2D DUP5 DUP3 DUP6 ADD PUSH3 0x3D68 JUMP JUMPDEST PUSH1 0x40 DUP4 ADD MSTORE POP PUSH2 0x1C0 PUSH3 0x3F44 DUP5 DUP3 DUP6 ADD PUSH3 0x3D68 JUMP JUMPDEST PUSH1 0x60 DUP4 ADD MSTORE POP PUSH2 0x340 DUP3 ADD MLOAD PUSH8 0xFFFFFFFFFFFFFFFF DUP2 GT ISZERO PUSH3 0x3F6C JUMPI PUSH3 0x3F6B PUSH3 0x5678 JUMP JUMPDEST JUMPDEST PUSH3 0x3F7A DUP5 DUP3 DUP6 ADD PUSH3 0x3CA4 JUMP JUMPDEST PUSH1 0x80 DUP4 ADD MSTORE POP SWAP3 SWAP2 POP POP JUMP JUMPDEST PUSH1 0x0 PUSH2 0x140 DUP3 DUP5 SUB SLT ISZERO PUSH3 0x3FA0 JUMPI PUSH3 0x3F9F PUSH3 0x5673 JUMP JUMPDEST JUMPDEST PUSH3 0x3FAD PUSH2 0x100 PUSH3 0x5095 JUMP JUMPDEST SWAP1 POP PUSH1 0x0 PUSH3 0x3FBF DUP5 DUP3 DUP6 ADD PUSH3 0x40F2 JUMP JUMPDEST PUSH1 0x0 DUP4 ADD MSTORE POP PUSH1 0x20 PUSH3 0x3FD5 DUP5 DUP3 DUP6 ADD PUSH3 0x40F2 JUMP JUMPDEST PUSH1 0x20 DUP4 ADD MSTORE POP PUSH1 0x40 DUP3 ADD MLOAD PUSH8 0xFFFFFFFFFFFFFFFF DUP2 GT ISZERO PUSH3 0x3FFC JUMPI PUSH3 0x3FFB PUSH3 0x5678 JUMP JUMPDEST JUMPDEST PUSH3 0x400A DUP5 DUP3 DUP6 ADD PUSH3 0x3EC9 JUMP JUMPDEST PUSH1 0x40 DUP4 ADD MSTORE POP PUSH1 0x60 DUP3 ADD MLOAD PUSH8 0xFFFFFFFFFFFFFFFF DUP2 GT ISZERO PUSH3 0x4031 JUMPI PUSH3 0x4030 PUSH3 0x5678 JUMP JUMPDEST JUMPDEST PUSH3 0x403F DUP5 DUP3 DUP6 ADD PUSH3 0x3EC9 JUMP JUMPDEST PUSH1 0x60 DUP4 ADD MSTORE POP PUSH1 0x80 DUP3 ADD MLOAD PUSH8 0xFFFFFFFFFFFFFFFF DUP2 GT ISZERO PUSH3 0x4066 JUMPI PUSH3 0x4065 PUSH3 0x5678 JUMP JUMPDEST JUMPDEST PUSH3 0x4074 DUP5 DUP3 DUP6 ADD PUSH3 0x3EC9 JUMP JUMPDEST PUSH1 0x80 DUP4 ADD MSTORE POP PUSH1 0xA0 PUSH3 0x408A DUP5 DUP3 DUP6 ADD PUSH3 0x3CD7 JUMP JUMPDEST PUSH1 0xA0 DUP4 ADD MSTORE POP PUSH2 0x100 PUSH3 0x40A1 DUP5 DUP3 DUP6 ADD PUSH3 0x40F2 JUMP JUMPDEST PUSH1 0xC0 DUP4 ADD MSTORE POP PUSH2 0x120 PUSH3 0x40B8 DUP5 DUP3 DUP6 ADD PUSH3 0x40F2 JUMP JUMPDEST PUSH1 0xE0 DUP4 ADD MSTORE POP SWAP3 SWAP2 POP POP JUMP JUMPDEST PUSH1 0x0 DUP2 MLOAD SWAP1 POP PUSH3 0x40D5 DUP2 PUSH3 0x586B JUMP JUMPDEST SWAP3 SWAP2 POP POP JUMP JUMPDEST PUSH1 0x0 DUP2 CALLDATALOAD SWAP1 POP PUSH3 0x40EC DUP2 PUSH3 0x5885 JUMP JUMPDEST SWAP3 SWAP2 POP POP JUMP JUMPDEST PUSH1 0x0 DUP2 MLOAD SWAP1 POP PUSH3 0x4103 DUP2 PUSH3 0x5885 JUMP JUMPDEST SWAP3 SWAP2 POP POP JUMP JUMPDEST PUSH1 0x0 DUP2 MLOAD SWAP1 POP PUSH3 0x411A DUP2 PUSH3 0x589F JUMP JUMPDEST SWAP3 SWAP2 POP POP JUMP JUMPDEST PUSH1 0x0 PUSH1 0x20 DUP3 DUP5 SUB SLT ISZERO PUSH3 0x4139 JUMPI PUSH3 0x4138 PUSH3 0x568C JUMP JUMPDEST JUMPDEST PUSH1 0x0 PUSH3 0x4149 DUP5 DUP3 DUP6 ADD PUSH3 0x3B9F JUMP JUMPDEST SWAP2 POP POP SWAP3 SWAP2 POP POP JUMP JUMPDEST PUSH1 0x0 PUSH1 0x20 DUP3 DUP5 SUB SLT ISZERO PUSH3 0x416B JUMPI PUSH3 0x416A PUSH3 0x568C JUMP JUMPDEST JUMPDEST PUSH1 0x0 PUSH3 0x417B DUP5 DUP3 DUP6 ADD PUSH3 0x3BB6 JUMP JUMPDEST SWAP2 POP POP SWAP3 SWAP2 POP POP JUMP JUMPDEST PUSH1 0x0 DUP1 PUSH1 0x0 DUP1 PUSH1 0x0 DUP1 PUSH1 0x0 PUSH1 0xE0 DUP9 DUP11 SUB SLT ISZERO PUSH3 0x41A6 JUMPI PUSH3 0x41A5 PUSH3 0x568C JUMP JUMPDEST JUMPDEST PUSH1 0x0 PUSH3 0x41B6 DUP11 DUP3 DUP12 ADD PUSH3 0x3B9F JUMP JUMPDEST SWAP8 POP POP PUSH1 0x20 PUSH3 0x41C9 DUP11 DUP3 DUP12 ADD PUSH3 0x3B9F JUMP JUMPDEST SWAP7 POP POP PUSH1 0x40 PUSH3 0x41DC DUP11 DUP3 DUP12 ADD PUSH3 0x3B9F JUMP JUMPDEST SWAP6 POP POP PUSH1 0x60 PUSH3 0x41EF DUP11 DUP3 DUP12 ADD PUSH3 0x3B9F JUMP JUMPDEST SWAP5 POP POP PUSH1 0x80 PUSH3 0x4202 DUP11 DUP3 DUP12 ADD PUSH3 0x3B9F JUMP JUMPDEST SWAP4 POP POP PUSH1 0xA0 PUSH3 0x4215 DUP11 DUP3 DUP12 ADD PUSH3 0x40DB JUMP JUMPDEST SWAP3 POP POP PUSH1 0xC0 PUSH3 0x4228 DUP11 DUP3 DUP12 ADD PUSH3 0x40DB JUMP JUMPDEST SWAP2 POP POP SWAP3 SWAP6 SWAP9 SWAP2 SWAP5 SWAP8 POP SWAP3 SWAP6 POP JUMP JUMPDEST PUSH1 0x0 DUP1 PUSH1 0x0 DUP1 PUSH1 0x80 DUP6 DUP8 SUB SLT ISZERO PUSH3 0x4254 JUMPI PUSH3 0x4253 PUSH3 0x568C JUMP JUMPDEST JUMPDEST PUSH1 0x0 PUSH3 0x4264 DUP8 DUP3 DUP9 ADD PUSH3 0x3B9F JUMP JUMPDEST SWAP5 POP POP PUSH1 0x20 PUSH3 0x4277 DUP8 DUP3 DUP9 ADD PUSH3 0x3B9F JUMP JUMPDEST SWAP4 POP POP PUSH1 0x40 PUSH3 0x428A DUP8 DUP3 DUP9 ADD PUSH3 0x3B9F JUMP JUMPDEST SWAP3 POP POP PUSH1 0x60 PUSH3 0x429D DUP8 DUP3 DUP9 ADD PUSH3 0x40DB JUMP JUMPDEST SWAP2 POP POP SWAP3 SWAP6 SWAP2 SWAP5 POP SWAP3 POP JUMP JUMPDEST PUSH1 0x0 DUP1 PUSH1 0x20 DUP4 DUP6 SUB SLT ISZERO PUSH3 0x42C3 JUMPI PUSH3 0x42C2 PUSH3 0x568C JUMP JUMPDEST JUMPDEST PUSH1 0x0 DUP4 ADD CALLDATALOAD PUSH8 0xFFFFFFFFFFFFFFFF DUP2 GT ISZERO PUSH3 0x42E4 JUMPI PUSH3 0x42E3 PUSH3 0x5687 JUMP JUMPDEST JUMPDEST PUSH3 0x42F2 DUP6 DUP3 DUP7 ADD PUSH3 0x3BCD JUMP JUMPDEST SWAP3 POP SWAP3 POP POP SWAP3 POP SWAP3 SWAP1 POP JUMP JUMPDEST PUSH1 0x0 PUSH1 0x20 DUP3 DUP5 SUB SLT ISZERO PUSH3 0x4317 JUMPI PUSH3 0x4316 PUSH3 0x568C JUMP JUMPDEST JUMPDEST PUSH1 0x0 DUP3 ADD MLOAD PUSH8 0xFFFFFFFFFFFFFFFF DUP2 GT ISZERO PUSH3 0x4338 JUMPI PUSH3 0x4337 PUSH3 0x5687 JUMP JUMPDEST JUMPDEST PUSH3 0x4346 DUP5 DUP3 DUP6 ADD PUSH3 0x3C2C JUMP JUMPDEST SWAP2 POP POP SWAP3 SWAP2 POP POP JUMP JUMPDEST PUSH1 0x0 PUSH1 0x20 DUP3 DUP5 SUB SLT ISZERO PUSH3 0x4368 JUMPI PUSH3 0x4367 PUSH3 0x568C JUMP JUMPDEST JUMPDEST PUSH1 0x0 PUSH3 0x4378 DUP5 DUP3 DUP6 ADD PUSH3 0x3C5F JUMP JUMPDEST SWAP2 POP POP SWAP3 SWAP2 POP POP JUMP JUMPDEST PUSH1 0x0 PUSH1 0xA0 DUP3 DUP5 SUB SLT ISZERO PUSH3 0x439A JUMPI PUSH3 0x4399 PUSH3 0x568C JUMP JUMPDEST JUMPDEST PUSH1 0x0 PUSH3 0x43AA DUP5 DUP3 DUP6 ADD PUSH3 0x3D46 JUMP JUMPDEST SWAP2 POP POP SWAP3 SWAP2 POP POP JUMP JUMPDEST PUSH1 0x0 PUSH1 0xE0 DUP3 DUP5 SUB SLT ISZERO PUSH3 0x43CC JUMPI PUSH3 0x43CB PUSH3 0x568C JUMP JUMPDEST JUMPDEST PUSH1 0x0 PUSH3 0x43DC DUP5 DUP3 DUP6 ADD PUSH3 0x3EA7 JUMP JUMPDEST SWAP2 POP POP SWAP3 SWAP2 POP POP JUMP JUMPDEST PUSH1 0x0 PUSH1 0x20 DUP3 DUP5 SUB SLT ISZERO PUSH3 0x43FE JUMPI PUSH3 0x43FD PUSH3 0x568C JUMP JUMPDEST JUMPDEST PUSH1 0x0 DUP3 ADD MLOAD PUSH8 0xFFFFFFFFFFFFFFFF DUP2 GT ISZERO PUSH3 0x441F JUMPI PUSH3 0x441E PUSH3 0x5687 JUMP JUMPDEST JUMPDEST PUSH3 0x442D DUP5 DUP3 DUP6 ADD PUSH3 0x3EC9 JUMP JUMPDEST SWAP2 POP POP SWAP3 SWAP2 POP POP JUMP JUMPDEST PUSH1 0x0 PUSH1 0x20 DUP3 DUP5 SUB SLT ISZERO PUSH3 0x444F JUMPI PUSH3 0x444E PUSH3 0x568C JUMP JUMPDEST JUMPDEST PUSH1 0x0 DUP3 ADD MLOAD PUSH8 0xFFFFFFFFFFFFFFFF DUP2 GT ISZERO PUSH3 0x4470 JUMPI PUSH3 0x446F PUSH3 0x5687 JUMP JUMPDEST JUMPDEST PUSH3 0x447E DUP5 DUP3 DUP6 ADD PUSH3 0x3F86 JUMP JUMPDEST SWAP2 POP POP SWAP3 SWAP2 POP POP JUMP JUMPDEST PUSH1 0x0 DUP1 PUSH1 0x0 PUSH1 0x60 DUP5 DUP7 SUB SLT ISZERO PUSH3 0x44A3 JUMPI PUSH3 0x44A2 PUSH3 0x568C JUMP JUMPDEST JUMPDEST PUSH1 0x0 PUSH3 0x44B3 DUP7 DUP3 DUP8 ADD PUSH3 0x40C4 JUMP JUMPDEST SWAP4 POP POP PUSH1 0x20 PUSH3 0x44C6 DUP7 DUP3 DUP8 ADD PUSH3 0x40C4 JUMP JUMPDEST SWAP3 POP POP PUSH1 0x40 PUSH3 0x44D9 DUP7 DUP3 DUP8 ADD PUSH3 0x4109 JUMP JUMPDEST SWAP2 POP POP SWAP3 POP SWAP3 POP SWAP3 JUMP JUMPDEST PUSH1 0x0 PUSH1 0x20 DUP3 DUP5 SUB SLT ISZERO PUSH3 0x44FC JUMPI PUSH3 0x44FB PUSH3 0x568C JUMP JUMPDEST JUMPDEST PUSH1 0x0 PUSH3 0x450C DUP5 DUP3 DUP6 ADD PUSH3 0x40F2 JUMP JUMPDEST SWAP2 POP POP SWAP3 SWAP2 POP POP JUMP JUMPDEST PUSH1 0x0 PUSH3 0x4523 DUP4 DUP4 PUSH3 0x4545 JUMP JUMPDEST PUSH1 0x20 DUP4 ADD SWAP1 POP SWAP3 SWAP2 POP POP JUMP JUMPDEST PUSH1 0x0 PUSH3 0x453D DUP4 DUP4 PUSH3 0x4AF2 JUMP JUMPDEST SWAP1 POP SWAP3 SWAP2 POP POP JUMP JUMPDEST PUSH3 0x4550 DUP2 PUSH3 0x53DF JUMP JUMPDEST DUP3 MSTORE POP POP JUMP JUMPDEST PUSH3 0x4561 DUP2 PUSH3 0x53DF JUMP JUMPDEST DUP3 MSTORE POP POP JUMP JUMPDEST PUSH1 0x0 PUSH3 0x4574 DUP3 PUSH3 0x5143 JUMP JUMPDEST PUSH3 0x4580 DUP2 DUP6 PUSH3 0x5189 JUMP JUMPDEST SWAP4 POP PUSH3 0x458D DUP4 PUSH3 0x5123 JUMP JUMPDEST DUP1 PUSH1 0x0 JUMPDEST DUP4 DUP2 LT ISZERO PUSH3 0x45C4 JUMPI DUP2 MLOAD PUSH3 0x45A8 DUP9 DUP3 PUSH3 0x4515 JUMP JUMPDEST SWAP8 POP PUSH3 0x45B5 DUP4 PUSH3 0x516F JUMP JUMPDEST SWAP3 POP POP PUSH1 0x1 DUP2 ADD SWAP1 POP PUSH3 0x4591 JUMP JUMPDEST POP DUP6 SWAP4 POP POP POP POP SWAP3 SWAP2 POP POP JUMP JUMPDEST PUSH1 0x0 PUSH3 0x45DE DUP3 PUSH3 0x514E JUMP JUMPDEST PUSH3 0x45EA DUP2 DUP6 PUSH3 0x519A JUMP JUMPDEST SWAP4 POP DUP4 PUSH1 0x20 DUP3 MUL DUP6 ADD PUSH3 0x45FE DUP6 PUSH3 0x5133 JUMP JUMPDEST DUP1 PUSH1 0x0 JUMPDEST DUP6 DUP2 LT ISZERO PUSH3 0x4640 JUMPI DUP5 DUP5 SUB DUP10 MSTORE DUP2 MLOAD PUSH3 0x461E DUP6 DUP3 PUSH3 0x452F JUMP JUMPDEST SWAP5 POP PUSH3 0x462B DUP4 PUSH3 0x517C JUMP JUMPDEST SWAP3 POP PUSH1 0x20 DUP11 ADD SWAP10 POP POP PUSH1 0x1 DUP2 ADD SWAP1 POP PUSH3 0x4602 JUMP JUMPDEST POP DUP3 SWAP8 POP DUP8 SWAP6 POP POP POP POP POP POP SWAP3 SWAP2 POP POP JUMP JUMPDEST PUSH3 0x465D DUP2 PUSH3 0x53F3 JUMP JUMPDEST DUP3 MSTORE POP POP JUMP JUMPDEST PUSH1 0x0 PUSH3 0x4670 DUP3 PUSH3 0x5159 JUMP JUMPDEST PUSH3 0x467C DUP2 DUP6 PUSH3 0x51AB JUMP JUMPDEST SWAP4 POP PUSH3 0x468E DUP2 DUP6 PUSH1 0x20 DUP7 ADD PUSH3 0x549A JUMP JUMPDEST PUSH3 0x4699 DUP2 PUSH3 0x5691 JUMP JUMPDEST DUP5 ADD SWAP2 POP POP SWAP3 SWAP2 POP POP JUMP JUMPDEST PUSH3 0x46AF DUP2 PUSH3 0x5472 JUMP JUMPDEST DUP3 MSTORE POP POP JUMP JUMPDEST PUSH3 0x46C0 DUP2 PUSH3 0x5414 JUMP JUMPDEST DUP3 MSTORE POP POP JUMP JUMPDEST PUSH3 0x46D1 DUP2 PUSH3 0x5486 JUMP JUMPDEST DUP3 MSTORE POP POP JUMP JUMPDEST PUSH1 0x0 PUSH3 0x46E4 DUP3 PUSH3 0x5164 JUMP JUMPDEST PUSH3 0x46F0 DUP2 DUP6 PUSH3 0x51BC JUMP JUMPDEST SWAP4 POP PUSH3 0x4702 DUP2 DUP6 PUSH1 0x20 DUP7 ADD PUSH3 0x549A JUMP JUMPDEST PUSH3 0x470D DUP2 PUSH3 0x5691 JUMP JUMPDEST DUP5 ADD SWAP2 POP POP SWAP3 SWAP2 POP POP JUMP JUMPDEST PUSH1 0x0 PUSH3 0x4727 PUSH1 0x13 DUP4 PUSH3 0x51CD JUMP JUMPDEST SWAP2 POP PUSH3 0x4734 DUP3 PUSH3 0x56AF JUMP JUMPDEST PUSH1 0x20 DUP3 ADD SWAP1 POP SWAP2 SWAP1 POP JUMP JUMPDEST PUSH1 0x0 PUSH3 0x474E PUSH1 0x13 DUP4 PUSH3 0x51CD JUMP JUMPDEST SWAP2 POP PUSH3 0x475B DUP3 PUSH3 0x56D8 JUMP JUMPDEST PUSH1 0x20 DUP3 ADD SWAP1 POP SWAP2 SWAP1 POP JUMP JUMPDEST PUSH1 0x0 PUSH3 0x4775 PUSH1 0x11 DUP4 PUSH3 0x51CD JUMP JUMPDEST SWAP2 POP PUSH3 0x4782 DUP3 PUSH3 0x5701 JUMP JUMPDEST PUSH1 0x20 DUP3 ADD SWAP1 POP SWAP2 SWAP1 POP JUMP JUMPDEST PUSH1 0x0 PUSH3 0x479C PUSH1 0xD DUP4 PUSH3 0x51CD JUMP JUMPDEST SWAP2 POP PUSH3 0x47A9 DUP3 PUSH3 0x572A JUMP JUMPDEST PUSH1 0x20 DUP3 ADD SWAP1 POP SWAP2 SWAP1 POP JUMP JUMPDEST PUSH1 0x60 DUP3 ADD PUSH1 0x0 DUP3 ADD MLOAD PUSH3 0x47CC PUSH1 0x0 DUP6 ADD DUP3 PUSH3 0x4545 JUMP JUMPDEST POP PUSH1 0x20 DUP3 ADD MLOAD PUSH3 0x47E1 PUSH1 0x20 DUP6 ADD DUP3 PUSH3 0x4C92 JUMP JUMPDEST POP PUSH1 0x40 DUP3 ADD MLOAD PUSH3 0x47F6 PUSH1 0x40 DUP6 ADD DUP3 PUSH3 0x4C92 JUMP JUMPDEST POP POP POP POP JUMP JUMPDEST PUSH2 0x180 DUP3 ADD PUSH1 0x0 DUP3 ADD MLOAD PUSH3 0x4815 PUSH1 0x0 DUP6 ADD DUP3 PUSH3 0x4C92 JUMP JUMPDEST POP PUSH1 0x20 DUP3 ADD MLOAD PUSH3 0x482A PUSH1 0x20 DUP6 ADD DUP3 PUSH3 0x4C92 JUMP JUMPDEST POP PUSH1 0x40 DUP3 ADD MLOAD PUSH3 0x483F PUSH1 0x40 DUP6 ADD DUP3 PUSH3 0x4C92 JUMP JUMPDEST POP PUSH1 0x60 DUP3 ADD MLOAD PUSH3 0x4854 PUSH1 0x60 DUP6 ADD DUP3 PUSH3 0x4C92 JUMP JUMPDEST POP PUSH1 0x80 DUP3 ADD MLOAD PUSH3 0x4869 PUSH1 0x80 DUP6 ADD DUP3 PUSH3 0x4C92 JUMP JUMPDEST POP PUSH1 0xA0 DUP3 ADD MLOAD PUSH3 0x487E PUSH1 0xA0 DUP6 ADD DUP3 PUSH3 0x4C92 JUMP JUMPDEST POP PUSH1 0xC0 DUP3 ADD MLOAD PUSH3 0x4893 PUSH1 0xC0 DUP6 ADD DUP3 PUSH3 0x4C92 JUMP JUMPDEST POP PUSH1 0xE0 DUP3 ADD MLOAD PUSH3 0x48A8 PUSH1 0xE0 DUP6 ADD DUP3 PUSH3 0x4C92 JUMP JUMPDEST POP PUSH2 0x100 DUP3 ADD MLOAD PUSH3 0x48BF PUSH2 0x100 DUP6 ADD DUP3 PUSH3 0x4C92 JUMP JUMPDEST POP PUSH2 0x120 DUP3 ADD MLOAD PUSH3 0x48D6 PUSH2 0x120 DUP6 ADD DUP3 PUSH3 0x46B5 JUMP JUMPDEST POP PUSH2 0x140 DUP3 ADD MLOAD PUSH3 0x48ED PUSH2 0x140 DUP6 ADD DUP3 PUSH3 0x4652 JUMP JUMPDEST POP PUSH2 0x160 DUP3 ADD MLOAD PUSH3 0x4904 PUSH2 0x160 DUP6 ADD DUP3 PUSH3 0x4652 JUMP JUMPDEST POP POP POP POP JUMP JUMPDEST PUSH1 0xE0 DUP3 ADD PUSH3 0x491D PUSH1 0x0 DUP4 ADD DUP4 PUSH3 0x51DE JUMP JUMPDEST PUSH3 0x492C PUSH1 0x0 DUP6 ADD DUP3 PUSH3 0x4545 JUMP JUMPDEST POP PUSH3 0x493C PUSH1 0x20 DUP4 ADD DUP4 PUSH3 0x51DE JUMP JUMPDEST PUSH3 0x494B PUSH1 0x20 DUP6 ADD DUP3 PUSH3 0x4545 JUMP JUMPDEST POP PUSH3 0x495B PUSH1 0x40 DUP4 ADD DUP4 PUSH3 0x51DE JUMP JUMPDEST PUSH3 0x496A PUSH1 0x40 DUP6 ADD DUP3 PUSH3 0x4545 JUMP JUMPDEST POP PUSH3 0x497A PUSH1 0x60 DUP4 ADD DUP4 PUSH3 0x51DE JUMP JUMPDEST PUSH3 0x4989 PUSH1 0x60 DUP6 ADD DUP3 PUSH3 0x4545 JUMP JUMPDEST POP PUSH3 0x4999 PUSH1 0x80 DUP4 ADD DUP4 PUSH3 0x51F7 JUMP JUMPDEST PUSH3 0x49A8 PUSH1 0x80 DUP6 ADD DUP3 PUSH3 0x4C92 JUMP JUMPDEST POP PUSH3 0x49B8 PUSH1 0xA0 DUP4 ADD DUP4 PUSH3 0x51F7 JUMP JUMPDEST PUSH3 0x49C7 PUSH1 0xA0 DUP6 ADD DUP3 PUSH3 0x4C92 JUMP JUMPDEST POP PUSH3 0x49D7 PUSH1 0xC0 DUP4 ADD DUP4 PUSH3 0x51F7 JUMP JUMPDEST PUSH3 0x49E6 PUSH1 0xC0 DUP6 ADD DUP3 PUSH3 0x4C92 JUMP JUMPDEST POP POP POP POP JUMP JUMPDEST PUSH1 0x0 PUSH2 0x360 DUP4 ADD PUSH1 0x0 DUP4 ADD MLOAD PUSH3 0x4A07 PUSH1 0x0 DUP7 ADD DUP3 PUSH3 0x46A4 JUMP JUMPDEST POP PUSH1 0x20 DUP4 ADD MLOAD PUSH3 0x4A1C PUSH1 0x20 DUP7 ADD DUP3 PUSH3 0x4C92 JUMP JUMPDEST POP PUSH1 0x40 DUP4 ADD MLOAD PUSH3 0x4A31 PUSH1 0x40 DUP7 ADD DUP3 PUSH3 0x47FC JUMP JUMPDEST POP PUSH1 0x60 DUP4 ADD MLOAD PUSH3 0x4A47 PUSH2 0x1C0 DUP7 ADD DUP3 PUSH3 0x47FC JUMP JUMPDEST POP PUSH1 0x80 DUP4 ADD MLOAD DUP5 DUP3 SUB PUSH2 0x340 DUP7 ADD MSTORE PUSH3 0x4A62 DUP3 DUP3 PUSH3 0x46D7 JUMP JUMPDEST SWAP2 POP POP DUP1 SWAP2 POP POP SWAP3 SWAP2 POP POP JUMP JUMPDEST PUSH1 0x0 PUSH2 0x360 DUP4 ADD PUSH1 0x0 DUP4 ADD MLOAD PUSH3 0x4A8A PUSH1 0x0 DUP7 ADD DUP3 PUSH3 0x46A4 JUMP JUMPDEST POP PUSH1 0x20 DUP4 ADD MLOAD PUSH3 0x4A9F PUSH1 0x20 DUP7 ADD DUP3 PUSH3 0x4C92 JUMP JUMPDEST POP PUSH1 0x40 DUP4 ADD MLOAD PUSH3 0x4AB4 PUSH1 0x40 DUP7 ADD DUP3 PUSH3 0x47FC JUMP JUMPDEST POP PUSH1 0x60 DUP4 ADD MLOAD PUSH3 0x4ACA PUSH2 0x1C0 DUP7 ADD DUP3 PUSH3 0x47FC JUMP JUMPDEST POP PUSH1 0x80 DUP4 ADD MLOAD DUP5 DUP3 SUB PUSH2 0x340 DUP7 ADD MSTORE PUSH3 0x4AE5 DUP3 DUP3 PUSH3 0x46D7 JUMP JUMPDEST SWAP2 POP POP DUP1 SWAP2 POP POP SWAP3 SWAP2 POP POP JUMP JUMPDEST PUSH1 0x0 PUSH2 0x140 DUP4 ADD PUSH1 0x0 DUP4 ADD MLOAD PUSH3 0x4B0D PUSH1 0x0 DUP7 ADD DUP3 PUSH3 0x4C92 JUMP JUMPDEST POP PUSH1 0x20 DUP4 ADD MLOAD PUSH3 0x4B22 PUSH1 0x20 DUP7 ADD DUP3 PUSH3 0x4C92 JUMP JUMPDEST POP PUSH1 0x40 DUP4 ADD MLOAD DUP5 DUP3 SUB PUSH1 0x40 DUP7 ADD MSTORE PUSH3 0x4B3C DUP3 DUP3 PUSH3 0x49EC JUMP JUMPDEST SWAP2 POP POP PUSH1 0x60 DUP4 ADD MLOAD DUP5 DUP3 SUB PUSH1 0x60 DUP7 ADD MSTORE PUSH3 0x4B58 DUP3 DUP3 PUSH3 0x49EC JUMP JUMPDEST SWAP2 POP POP PUSH1 0x80 DUP4 ADD MLOAD DUP5 DUP3 SUB PUSH1 0x80 DUP7 ADD MSTORE PUSH3 0x4B74 DUP3 DUP3 PUSH3 0x49EC JUMP JUMPDEST SWAP2 POP POP PUSH1 0xA0 DUP4 ADD MLOAD PUSH3 0x4B8B PUSH1 0xA0 DUP7 ADD DUP3 PUSH3 0x47B4 JUMP JUMPDEST POP PUSH1 0xC0 DUP4 ADD MLOAD PUSH3 0x4BA1 PUSH2 0x100 DUP7 ADD DUP3 PUSH3 0x4C92 JUMP JUMPDEST POP PUSH1 0xE0 DUP4 ADD MLOAD PUSH3 0x4BB7 PUSH2 0x120 DUP7 ADD DUP3 PUSH3 0x4C92 JUMP JUMPDEST POP DUP1 SWAP2 POP POP SWAP3 SWAP2 POP POP JUMP JUMPDEST PUSH1 0x0 PUSH2 0x140 DUP4 ADD PUSH1 0x0 DUP4 ADD MLOAD PUSH3 0x4BDD PUSH1 0x0 DUP7 ADD DUP3 PUSH3 0x4C92 JUMP JUMPDEST POP PUSH1 0x20 DUP4 ADD MLOAD PUSH3 0x4BF2 PUSH1 0x20 DUP7 ADD DUP3 PUSH3 0x4C92 JUMP JUMPDEST POP PUSH1 0x40 DUP4 ADD MLOAD DUP5 DUP3 SUB PUSH1 0x40 DUP7 ADD MSTORE PUSH3 0x4C0C DUP3 DUP3 PUSH3 0x49EC JUMP JUMPDEST SWAP2 POP POP PUSH1 0x60 DUP4 ADD MLOAD DUP5 DUP3 SUB PUSH1 0x60 DUP7 ADD MSTORE PUSH3 0x4C28 DUP3 DUP3 PUSH3 0x49EC JUMP JUMPDEST SWAP2 POP POP PUSH1 0x80 DUP4 ADD MLOAD DUP5 DUP3 SUB PUSH1 0x80 DUP7 ADD MSTORE PUSH3 0x4C44 DUP3 DUP3 PUSH3 0x49EC JUMP JUMPDEST SWAP2 POP POP PUSH1 0xA0 DUP4 ADD MLOAD PUSH3 0x4C5B PUSH1 0xA0 DUP7 ADD DUP3 PUSH3 0x47B4 JUMP JUMPDEST POP PUSH1 0xC0 DUP4 ADD MLOAD PUSH3 0x4C71 PUSH2 0x100 DUP7 ADD DUP3 PUSH3 0x4C92 JUMP JUMPDEST POP PUSH1 0xE0 DUP4 ADD MLOAD PUSH3 0x4C87 PUSH2 0x120 DUP7 ADD DUP3 PUSH3 0x4C92 JUMP JUMPDEST POP DUP1 SWAP2 POP POP SWAP3 SWAP2 POP POP JUMP JUMPDEST PUSH3 0x4C9D DUP2 PUSH3 0x5458 JUMP JUMPDEST DUP3 MSTORE POP POP JUMP JUMPDEST PUSH3 0x4CAE DUP2 PUSH3 0x5458 JUMP JUMPDEST DUP3 MSTORE POP POP JUMP JUMPDEST PUSH1 0x0 PUSH1 0x20 DUP3 ADD SWAP1 POP PUSH3 0x4CCB PUSH1 0x0 DUP4 ADD DUP5 PUSH3 0x4556 JUMP JUMPDEST SWAP3 SWAP2 POP POP JUMP JUMPDEST PUSH1 0x0 PUSH1 0x40 DUP3 ADD SWAP1 POP PUSH3 0x4CE8 PUSH1 0x0 DUP4 ADD DUP6 PUSH3 0x4556 JUMP JUMPDEST PUSH3 0x4CF7 PUSH1 0x20 DUP4 ADD DUP5 PUSH3 0x4556 JUMP JUMPDEST SWAP4 SWAP3 POP POP POP JUMP JUMPDEST PUSH1 0x0 PUSH1 0xE0 DUP3 ADD SWAP1 POP PUSH3 0x4D15 PUSH1 0x0 DUP4 ADD DUP11 PUSH3 0x4556 JUMP JUMPDEST PUSH3 0x4D24 PUSH1 0x20 DUP4 ADD DUP10 PUSH3 0x4556 JUMP JUMPDEST PUSH3 0x4D33 PUSH1 0x40 DUP4 ADD DUP9 PUSH3 0x4556 JUMP JUMPDEST PUSH3 0x4D42 PUSH1 0x60 DUP4 ADD DUP8 PUSH3 0x4556 JUMP JUMPDEST PUSH3 0x4D51 PUSH1 0x80 DUP4 ADD DUP7 PUSH3 0x4556 JUMP JUMPDEST PUSH3 0x4D60 PUSH1 0xA0 DUP4 ADD DUP6 PUSH3 0x46C6 JUMP JUMPDEST PUSH3 0x4D6F PUSH1 0xC0 DUP4 ADD DUP5 PUSH3 0x4CA3 JUMP JUMPDEST SWAP9 SWAP8 POP POP POP POP POP POP POP POP JUMP JUMPDEST PUSH1 0x0 PUSH1 0xE0 DUP3 ADD SWAP1 POP PUSH3 0x4D92 PUSH1 0x0 DUP4 ADD DUP11 PUSH3 0x4556 JUMP JUMPDEST PUSH3 0x4DA1 PUSH1 0x20 DUP4 ADD DUP10 PUSH3 0x4556 JUMP JUMPDEST PUSH3 0x4DB0 PUSH1 0x40 DUP4 ADD DUP9 PUSH3 0x4556 JUMP JUMPDEST PUSH3 0x4DBF PUSH1 0x60 DUP4 ADD DUP8 PUSH3 0x4556 JUMP JUMPDEST PUSH3 0x4DCE PUSH1 0x80 DUP4 ADD DUP7 PUSH3 0x4556 JUMP JUMPDEST PUSH3 0x4DDD PUSH1 0xA0 DUP4 ADD DUP6 PUSH3 0x4CA3 JUMP JUMPDEST PUSH3 0x4DEC PUSH1 0xC0 DUP4 ADD DUP5 PUSH3 0x46C6 JUMP JUMPDEST SWAP9 SWAP8 POP POP POP POP POP POP POP POP JUMP JUMPDEST PUSH1 0x0 PUSH1 0x80 DUP3 ADD SWAP1 POP PUSH3 0x4E0F PUSH1 0x0 DUP4 ADD DUP8 PUSH3 0x4556 JUMP JUMPDEST PUSH3 0x4E1E PUSH1 0x20 DUP4 ADD DUP7 PUSH3 0x4556 JUMP JUMPDEST PUSH3 0x4E2D PUSH1 0x40 DUP4 ADD DUP6 PUSH3 0x4556 JUMP JUMPDEST PUSH3 0x4E3C PUSH1 0x60 DUP4 ADD DUP5 PUSH3 0x4CA3 JUMP JUMPDEST SWAP6 SWAP5 POP POP POP POP POP JUMP JUMPDEST PUSH1 0x0 PUSH1 0x60 DUP3 ADD SWAP1 POP PUSH3 0x4E5C PUSH1 0x0 DUP4 ADD DUP7 PUSH3 0x4556 JUMP JUMPDEST PUSH3 0x4E6B PUSH1 0x20 DUP4 ADD DUP6 PUSH3 0x4556 JUMP JUMPDEST PUSH3 0x4E7A PUSH1 0x40 DUP4 ADD DUP5 PUSH3 0x4CA3 JUMP JUMPDEST SWAP5 SWAP4 POP POP POP POP JUMP JUMPDEST PUSH1 0x0 PUSH1 0x40 DUP3 ADD SWAP1 POP PUSH3 0x4E99 PUSH1 0x0 DUP4 ADD DUP6 PUSH3 0x4556 JUMP JUMPDEST PUSH3 0x4EA8 PUSH1 0x20 DUP4 ADD DUP5 PUSH3 0x4CA3 JUMP JUMPDEST SWAP4 SWAP3 POP POP POP JUMP JUMPDEST PUSH1 0x0 PUSH1 0x20 DUP3 ADD SWAP1 POP DUP2 DUP2 SUB PUSH1 0x0 DUP4 ADD MSTORE PUSH3 0x4ECB DUP2 DUP5 PUSH3 0x45D1 JUMP JUMPDEST SWAP1 POP SWAP3 SWAP2 POP POP JUMP JUMPDEST PUSH1 0x0 PUSH1 0x20 DUP3 ADD SWAP1 POP DUP2 DUP2 SUB PUSH1 0x0 DUP4 ADD MSTORE PUSH3 0x4EEE DUP2 PUSH3 0x4718 JUMP JUMPDEST SWAP1 POP SWAP2 SWAP1 POP JUMP JUMPDEST PUSH1 0x0 PUSH1 0x20 DUP3 ADD SWAP1 POP DUP2 DUP2 SUB PUSH1 0x0 DUP4 ADD MSTORE PUSH3 0x4F10 DUP2 PUSH3 0x473F JUMP JUMPDEST SWAP1 POP SWAP2 SWAP1 POP JUMP JUMPDEST PUSH1 0x0 PUSH1 0x20 DUP3 ADD SWAP1 POP DUP2 DUP2 SUB PUSH1 0x0 DUP4 ADD MSTORE PUSH3 0x4F32 DUP2 PUSH3 0x4766 JUMP JUMPDEST SWAP1 POP SWAP2 SWAP1 POP JUMP JUMPDEST PUSH1 0x0 PUSH1 0x20 DUP3 ADD SWAP1 POP DUP2 DUP2 SUB PUSH1 0x0 DUP4 ADD MSTORE PUSH3 0x4F54 DUP2 PUSH3 0x478D JUMP JUMPDEST SWAP1 POP SWAP2 SWAP1 POP JUMP JUMPDEST PUSH1 0x0 PUSH1 0xE0 DUP3 ADD SWAP1 POP PUSH3 0x4F72 PUSH1 0x0 DUP4 ADD DUP5 PUSH3 0x490A JUMP JUMPDEST SWAP3 SWAP2 POP POP JUMP JUMPDEST PUSH1 0x0 PUSH1 0x20 DUP3 ADD SWAP1 POP DUP2 DUP2 SUB PUSH1 0x0 DUP4 ADD MSTORE PUSH3 0x4F94 DUP2 DUP5 PUSH3 0x4A6F JUMP JUMPDEST SWAP1 POP SWAP3 SWAP2 POP POP JUMP JUMPDEST PUSH1 0x0 PUSH1 0x20 DUP3 ADD SWAP1 POP DUP2 DUP2 SUB PUSH1 0x0 DUP4 ADD MSTORE PUSH3 0x4FB8 DUP2 DUP5 PUSH3 0x4BC2 JUMP JUMPDEST SWAP1 POP SWAP3 SWAP2 POP POP JUMP JUMPDEST PUSH1 0x0 PUSH1 0x40 DUP3 ADD SWAP1 POP PUSH3 0x4FD7 PUSH1 0x0 DUP4 ADD DUP6 PUSH3 0x4CA3 JUMP JUMPDEST DUP2 DUP2 SUB PUSH1 0x20 DUP4 ADD MSTORE PUSH3 0x4FEB DUP2 DUP5 PUSH3 0x4567 JUMP JUMPDEST SWAP1 POP SWAP4 SWAP3 POP POP POP JUMP JUMPDEST PUSH1 0x0 PUSH1 0x80 DUP3 ADD SWAP1 POP PUSH3 0x500B PUSH1 0x0 DUP4 ADD DUP8 PUSH3 0x4CA3 JUMP JUMPDEST PUSH3 0x501A PUSH1 0x20 DUP4 ADD DUP7 PUSH3 0x4CA3 JUMP JUMPDEST PUSH3 0x5029 PUSH1 0x40 DUP4 ADD DUP6 PUSH3 0x4556 JUMP JUMPDEST DUP2 DUP2 SUB PUSH1 0x60 DUP4 ADD MSTORE PUSH3 0x503D DUP2 DUP5 PUSH3 0x4663 JUMP JUMPDEST SWAP1 POP SWAP6 SWAP5 POP POP POP POP POP JUMP JUMPDEST PUSH1 0x0 PUSH1 0x80 DUP3 ADD SWAP1 POP PUSH3 0x505F PUSH1 0x0 DUP4 ADD DUP8 PUSH3 0x4CA3 JUMP JUMPDEST PUSH3 0x506E PUSH1 0x20 DUP4 ADD DUP7 PUSH3 0x4CA3 JUMP JUMPDEST PUSH3 0x507D PUSH1 0x40 DUP4 ADD DUP6 PUSH3 0x4CA3 JUMP JUMPDEST PUSH3 0x508C PUSH1 0x60 DUP4 ADD DUP5 PUSH3 0x4CA3 JUMP JUMPDEST SWAP6 SWAP5 POP POP POP POP POP JUMP JUMPDEST PUSH1 0x0 PUSH3 0x50A1 PUSH3 0x50B4 JUMP JUMPDEST SWAP1 POP PUSH3 0x50AF DUP3 DUP3 PUSH3 0x54D0 JUMP JUMPDEST SWAP2 SWAP1 POP JUMP JUMPDEST PUSH1 0x0 PUSH1 0x40 MLOAD SWAP1 POP SWAP1 JUMP JUMPDEST PUSH1 0x0 PUSH8 0xFFFFFFFFFFFFFFFF DUP3 GT ISZERO PUSH3 0x50DC JUMPI PUSH3 0x50DB PUSH3 0x5610 JUMP JUMPDEST JUMPDEST PUSH1 0x20 DUP3 MUL SWAP1 POP PUSH1 0x20 DUP2 ADD SWAP1 POP SWAP2 SWAP1 POP JUMP JUMPDEST PUSH1 0x0 PUSH8 0xFFFFFFFFFFFFFFFF DUP3 GT ISZERO PUSH3 0x510B JUMPI PUSH3 0x510A PUSH3 0x5610 JUMP JUMPDEST JUMPDEST PUSH3 0x5116 DUP3 PUSH3 0x5691 JUMP JUMPDEST SWAP1 POP PUSH1 0x20 DUP2 ADD SWAP1 POP SWAP2 SWAP1 POP JUMP JUMPDEST PUSH1 0x0 DUP2 SWAP1 POP PUSH1 0x20 DUP3 ADD SWAP1 POP SWAP2 SWAP1 POP JUMP JUMPDEST PUSH1 0x0 DUP2 SWAP1 POP PUSH1 0x20 DUP3 ADD SWAP1 POP SWAP2 SWAP1 POP JUMP JUMPDEST PUSH1 0x0 DUP2 MLOAD SWAP1 POP SWAP2 SWAP1 POP JUMP JUMPDEST PUSH1 0x0 DUP2 MLOAD SWAP1 POP SWAP2 SWAP1 POP JUMP JUMPDEST PUSH1 0x0 DUP2 MLOAD SWAP1 POP SWAP2 SWAP1 POP JUMP JUMPDEST PUSH1 0x0 DUP2 MLOAD SWAP1 POP SWAP2 SWAP1 POP JUMP JUMPDEST PUSH1 0x0 PUSH1 0x20 DUP3 ADD SWAP1 POP SWAP2 SWAP1 POP JUMP JUMPDEST PUSH1 0x0 PUSH1 0x20 DUP3 ADD SWAP1 POP SWAP2 SWAP1 POP JUMP JUMPDEST PUSH1 0x0 DUP3 DUP3 MSTORE PUSH1 0x20 DUP3 ADD SWAP1 POP SWAP3 SWAP2 POP POP JUMP JUMPDEST PUSH1 0x0 DUP3 DUP3 MSTORE PUSH1 0x20 DUP3 ADD SWAP1 POP SWAP3 SWAP2 POP POP JUMP JUMPDEST PUSH1 0x0 DUP3 DUP3 MSTORE PUSH1 0x20 DUP3 ADD SWAP1 POP SWAP3 SWAP2 POP POP JUMP JUMPDEST PUSH1 0x0 DUP3 DUP3 MSTORE PUSH1 0x20 DUP3 ADD SWAP1 POP SWAP3 SWAP2 POP POP JUMP JUMPDEST PUSH1 0x0 DUP3 DUP3 MSTORE PUSH1 0x20 DUP3 ADD SWAP1 POP SWAP3 SWAP2 POP POP JUMP JUMPDEST PUSH1 0x0 PUSH3 0x51EF PUSH1 0x20 DUP5 ADD DUP5 PUSH3 0x3B9F JUMP JUMPDEST SWAP1 POP SWAP3 SWAP2 POP POP JUMP JUMPDEST PUSH1 0x0 PUSH3 0x5208 PUSH1 0x20 DUP5 ADD DUP5 PUSH3 0x40DB JUMP JUMPDEST SWAP1 POP SWAP3 SWAP2 POP POP JUMP JUMPDEST PUSH1 0x0 PUSH3 0x521D DUP3 PUSH3 0x5458 JUMP JUMPDEST SWAP2 POP PUSH3 0x522A DUP4 PUSH3 0x5458 JUMP JUMPDEST SWAP3 POP DUP3 PUSH32 0xFFFFFFFFFFFFFFFFFFFFFFFFFFFFFFFFFFFFFFFFFFFFFFFFFFFFFFFFFFFFFFFF SUB DUP3 GT ISZERO PUSH3 0x5262 JUMPI PUSH3 0x5261 PUSH3 0x5554 JUMP JUMPDEST JUMPDEST DUP3 DUP3 ADD SWAP1 POP SWAP3 SWAP2 POP POP JUMP JUMPDEST PUSH1 0x0 PUSH3 0x527A DUP3 PUSH3 0x5458 JUMP JUMPDEST SWAP2 POP PUSH3 0x5287 DUP4 PUSH3 0x5458 JUMP JUMPDEST SWAP3 POP DUP3 PUSH3 0x529A JUMPI PUSH3 0x5299 PUSH3 0x5583 JUMP JUMPDEST JUMPDEST DUP3 DUP3 DIV SWAP1 POP SWAP3 SWAP2 POP POP JUMP JUMPDEST PUSH1 0x0 PUSH3 0x52B2 DUP3 PUSH3 0x5458 JUMP JUMPDEST SWAP2 POP PUSH3 0x52BF DUP4 PUSH3 0x5458 JUMP JUMPDEST SWAP3 POP DUP2 PUSH32 0xFFFFFFFFFFFFFFFFFFFFFFFFFFFFFFFFFFFFFFFFFFFFFFFFFFFFFFFFFFFFFFFF DIV DUP4 GT DUP3 ISZERO ISZERO AND ISZERO PUSH3 0x52FB JUMPI PUSH3 0x52FA PUSH3 0x5554 JUMP JUMPDEST JUMPDEST DUP3 DUP3 MUL SWAP1 POP SWAP3 SWAP2 POP POP JUMP JUMPDEST PUSH1 0x0 PUSH3 0x5313 DUP3 PUSH3 0x5414 JUMP JUMPDEST SWAP2 POP PUSH3 0x5320 DUP4 PUSH3 0x5414 JUMP JUMPDEST SWAP3 POP DUP3 PUSH32 0x8000000000000000000000000000000000000000000000000000000000000000 ADD DUP3 SLT PUSH1 0x0 DUP5 SLT ISZERO AND ISZERO PUSH3 0x535E JUMPI PUSH3 0x535D PUSH3 0x5554 JUMP JUMPDEST JUMPDEST DUP3 PUSH32 0x7FFFFFFFFFFFFFFFFFFFFFFFFFFFFFFFFFFFFFFFFFFFFFFFFFFFFFFFFFFFFFFF ADD DUP3 SGT PUSH1 0x0 DUP5 SLT AND ISZERO PUSH3 0x5399 JUMPI PUSH3 0x5398 PUSH3 0x5554 JUMP JUMPDEST JUMPDEST DUP3 DUP3 SUB SWAP1 POP SWAP3 SWAP2 POP POP JUMP JUMPDEST PUSH1 0x0 PUSH3 0x53B1 DUP3 PUSH3 0x5458 JUMP JUMPDEST SWAP2 POP PUSH3 0x53BE DUP4 PUSH3 0x5458 JUMP JUMPDEST SWAP3 POP DUP3 DUP3 LT ISZERO PUSH3 0x53D4 JUMPI PUSH3 0x53D3 PUSH3 0x5554 JUMP JUMPDEST JUMPDEST DUP3 DUP3 SUB SWAP1 POP SWAP3 SWAP2 POP POP JUMP JUMPDEST PUSH1 0x0 PUSH3 0x53EC DUP3 PUSH3 0x5438 JUMP JUMPDEST SWAP1 POP SWAP2 SWAP1 POP JUMP JUMPDEST PUSH1 0x0 DUP2 ISZERO ISZERO SWAP1 POP SWAP2 SWAP1 POP JUMP JUMPDEST PUSH1 0x0 DUP2 SWAP1 POP PUSH3 0x540F DUP3 PUSH3 0x57F5 JUMP JUMPDEST SWAP2 SWAP1 POP JUMP JUMPDEST PUSH1 0x0 DUP2 SWAP1 POP SWAP2 SWAP1 POP JUMP JUMPDEST PUSH1 0x0 PUSH14 0xFFFFFFFFFFFFFFFFFFFFFFFFFFFF DUP3 AND SWAP1 POP SWAP2 SWAP1 POP JUMP JUMPDEST PUSH1 0x0 PUSH20 0xFFFFFFFFFFFFFFFFFFFFFFFFFFFFFFFFFFFFFFFF DUP3 AND SWAP1 POP SWAP2 SWAP1 POP JUMP JUMPDEST PUSH1 0x0 DUP2 SWAP1 POP SWAP2 SWAP1 POP JUMP JUMPDEST PUSH1 0x0 PUSH4 0xFFFFFFFF DUP3 AND SWAP1 POP SWAP2 SWAP1 POP JUMP JUMPDEST PUSH1 0x0 PUSH3 0x547F DUP3 PUSH3 0x53FF JUMP JUMPDEST SWAP1 POP SWAP2 SWAP1 POP JUMP JUMPDEST PUSH1 0x0 PUSH3 0x5493 DUP3 PUSH3 0x5458 JUMP JUMPDEST SWAP1 POP SWAP2 SWAP1 POP JUMP JUMPDEST PUSH1 0x0 JUMPDEST DUP4 DUP2 LT ISZERO PUSH3 0x54BA JUMPI DUP1 DUP3 ADD MLOAD DUP2 DUP5 ADD MSTORE PUSH1 0x20 DUP2 ADD SWAP1 POP PUSH3 0x549D JUMP JUMPDEST DUP4 DUP2 GT ISZERO PUSH3 0x54CA JUMPI PUSH1 0x0 DUP5 DUP5 ADD MSTORE JUMPDEST POP POP POP POP JUMP JUMPDEST PUSH3 0x54DB DUP3 PUSH3 0x5691 JUMP JUMPDEST DUP2 ADD DUP2 DUP2 LT PUSH8 0xFFFFFFFFFFFFFFFF DUP3 GT OR ISZERO PUSH3 0x54FD JUMPI PUSH3 0x54FC PUSH3 0x5610 JUMP JUMPDEST JUMPDEST DUP1 PUSH1 0x40 MSTORE POP POP POP JUMP JUMPDEST PUSH1 0x0 PUSH3 0x5513 DUP3 PUSH3 0x5458 JUMP JUMPDEST SWAP2 POP PUSH32 0xFFFFFFFFFFFFFFFFFFFFFFFFFFFFFFFFFFFFFFFFFFFFFFFFFFFFFFFFFFFFFFFF DUP3 EQ ISZERO PUSH3 0x5549 JUMPI PUSH3 0x5548 PUSH3 0x5554 JUMP JUMPDEST JUMPDEST PUSH1 0x1 DUP3 ADD SWAP1 POP SWAP2 SWAP1 POP JUMP JUMPDEST PUSH32 0x4E487B7100000000000000000000000000000000000000000000000000000000 PUSH1 0x0 MSTORE PUSH1 0x11 PUSH1 0x4 MSTORE PUSH1 0x24 PUSH1 0x0 REVERT JUMPDEST PUSH32 0x4E487B7100000000000000000000000000000000000000000000000000000000 PUSH1 0x0 MSTORE PUSH1 0x12 PUSH1 0x4 MSTORE PUSH1 0x24 PUSH1 0x0 REVERT JUMPDEST PUSH32 0x4E487B7100000000000000000000000000000000000000000000000000000000 PUSH1 0x0 MSTORE PUSH1 0x21 PUSH1 0x4 MSTORE PUSH1 0x24 PUSH1 0x0 REVERT JUMPDEST PUSH32 0x4E487B7100000000000000000000000000000000000000000000000000000000 PUSH1 0x0 MSTORE PUSH1 0x32 PUSH1 0x4 MSTORE PUSH1 0x24 PUSH1 0x0 REVERT JUMPDEST PUSH32 0x4E487B7100000000000000000000000000000000000000000000000000000000 PUSH1 0x0 MSTORE PUSH1 0x41 PUSH1 0x4 MSTORE PUSH1 0x24 PUSH1 0x0 REVERT JUMPDEST PUSH1 0x0 PUSH1 0x3 RETURNDATASIZE GT ISZERO PUSH3 0x5661 JUMPI PUSH1 0x4 PUSH1 0x0 DUP1 RETURNDATACOPY PUSH3 0x565E PUSH1 0x0 MLOAD PUSH3 0x56A2 JUMP JUMPDEST SWAP1 POP JUMPDEST SWAP1 JUMP JUMPDEST PUSH1 0x0 DUP1 REVERT JUMPDEST PUSH1 0x0 DUP1 REVERT JUMPDEST PUSH1 0x0 DUP1 REVERT JUMPDEST PUSH1 0x0 DUP1 REVERT JUMPDEST PUSH1 0x0 DUP1 REVERT JUMPDEST PUSH1 0x0 DUP1 REVERT JUMPDEST PUSH1 0x0 DUP1 REVERT JUMPDEST PUSH1 0x0 DUP1 REVERT JUMPDEST PUSH1 0x0 DUP1 REVERT JUMPDEST PUSH1 0x0 PUSH1 0x1F NOT PUSH1 0x1F DUP4 ADD AND SWAP1 POP SWAP2 SWAP1 POP JUMP JUMPDEST PUSH1 0x0 DUP2 PUSH1 0xE0 SHR SWAP1 POP SWAP2 SWAP1 POP JUMP JUMPDEST PUSH32 0x746F6B656E496E206E6F74206265207A65726F00000000000000000000000000 PUSH1 0x0 DUP3 ADD MSTORE POP JUMP JUMPDEST PUSH32 0x706F6F6C20646F6573206E6F7420657869737400000000000000000000000000 PUSH1 0x0 DUP3 ADD MSTORE POP JUMP JUMPDEST PUSH32 0x7472616E7366657246726F6D206661696C000000000000000000000000000000 PUSH1 0x0 DUP3 ADD MSTORE POP JUMP JUMPDEST PUSH32 0x7472616E73666572206661696C00000000000000000000000000000000000000 PUSH1 0x0 DUP3 ADD MSTORE POP JUMP JUMPDEST PUSH1 0x0 PUSH1 0x44 RETURNDATASIZE LT ISZERO PUSH3 0x5765 JUMPI PUSH3 0x57F2 JUMP JUMPDEST PUSH3 0x576F PUSH3 0x50B4 JUMP JUMPDEST PUSH1 0x4 RETURNDATASIZE SUB PUSH1 0x4 DUP3 RETURNDATACOPY DUP1 MLOAD RETURNDATASIZE PUSH1 0x24 DUP3 ADD GT PUSH8 0xFFFFFFFFFFFFFFFF DUP3 GT OR ISZERO PUSH3 0x5799 JUMPI POP POP PUSH3 0x57F2 JUMP JUMPDEST DUP1 DUP3 ADD DUP1 MLOAD PUSH8 0xFFFFFFFFFFFFFFFF DUP2 GT ISZERO PUSH3 0x57B9 JUMPI POP POP POP POP PUSH3 0x57F2 JUMP JUMPDEST DUP1 PUSH1 0x20 DUP4 ADD ADD PUSH1 0x4 RETURNDATASIZE SUB DUP6 ADD DUP2 GT ISZERO PUSH3 0x57D8 JUMPI POP POP POP POP POP PUSH3 0x57F2 JUMP JUMPDEST PUSH3 0x57E9 DUP3 PUSH1 0x20 ADD DUP6 ADD DUP7 PUSH3 0x54D0 JUMP JUMPDEST DUP3 SWAP6 POP POP POP POP POP POP JUMPDEST SWAP1 JUMP JUMPDEST PUSH1 0x3 DUP2 LT PUSH3 0x5809 JUMPI PUSH3 0x5808 PUSH3 0x55B2 JUMP JUMPDEST JUMPDEST POP JUMP JUMPDEST PUSH3 0x5817 DUP2 PUSH3 0x53DF JUMP JUMPDEST DUP2 EQ PUSH3 0x5823 JUMPI PUSH1 0x0 DUP1 REVERT JUMPDEST POP JUMP JUMPDEST PUSH3 0x5831 DUP2 PUSH3 0x53F3 JUMP JUMPDEST DUP2 EQ PUSH3 0x583D JUMPI PUSH1 0x0 DUP1 REVERT JUMPDEST POP JUMP JUMPDEST PUSH1 0x3 DUP2 LT PUSH3 0x584E JUMPI PUSH1 0x0 DUP1 REVERT JUMPDEST POP JUMP JUMPDEST PUSH3 0x585C DUP2 PUSH3 0x5414 JUMP JUMPDEST DUP2 EQ PUSH3 0x5868 JUMPI PUSH1 0x0 DUP1 REVERT JUMPDEST POP JUMP JUMPDEST PUSH3 0x5876 DUP2 PUSH3 0x541E JUMP JUMPDEST DUP2 EQ PUSH3 0x5882 JUMPI PUSH1 0x0 DUP1 REVERT JUMPDEST POP JUMP JUMPDEST PUSH3 0x5890 DUP2 PUSH3 0x5458 JUMP JUMPDEST DUP2 EQ PUSH3 0x589C JUMPI PUSH1 0x0 DUP1 REVERT JUMPDEST POP JUMP JUMPDEST PUSH3 0x58AA DUP2 PUSH3 0x5462 JUMP JUMPDEST DUP2 EQ PUSH3 0x58B6 JUMPI PUSH1 0x0 DUP1 REVERT JUMPDEST POP JUMP INVALID PUSH1 0x80 PUSH1 0x40 MSTORE CALLVALUE DUP1 ISZERO PUSH2 0x10 JUMPI PUSH1 0x0 DUP1 REVERT JUMPDEST POP PUSH1 0x40 MLOAD PUSH2 0x380 CODESIZE SUB DUP1 PUSH2 0x380 DUP4 CODECOPY DUP2 DUP2 ADD PUSH1 0x40 MSTORE DUP2 ADD SWAP1 PUSH2 0x32 SWAP2 SWAP1 PUSH2 0x1BF JUMP JUMPDEST DUP2 PUSH20 0xFFFFFFFFFFFFFFFFFFFFFFFFFFFFFFFFFFFFFFFF AND PUSH4 0x95EA7B3 CALLER PUSH32 0xFFFFFFFFFFFFFFFFFFFFFFFFFFFFFFFFFFFFFFFFFFFFFFFFFFFFFFFFFFFFFFFF PUSH1 0x40 MLOAD DUP4 PUSH4 0xFFFFFFFF AND PUSH1 0xE0 SHL DUP2 MSTORE PUSH1 0x4 ADD PUSH2 0x8D SWAP3 SWAP2 SWAP1 PUSH2 0x24A JUMP JUMPDEST PUSH1 0x20 PUSH1 0x40 MLOAD DUP1 DUP4 SUB DUP2 PUSH1 0x0 DUP8 DUP1 EXTCODESIZE ISZERO DUP1 ISZERO PUSH2 0xA7 JUMPI PUSH1 0x0 DUP1 REVERT JUMPDEST POP GAS CALL ISZERO DUP1 ISZERO PUSH2 0xBB JUMPI RETURNDATASIZE PUSH1 0x0 DUP1 RETURNDATACOPY RETURNDATASIZE PUSH1 0x0 REVERT JUMPDEST POP POP POP POP PUSH1 0x40 MLOAD RETURNDATASIZE PUSH1 0x1F NOT PUSH1 0x1F DUP3 ADD AND DUP3 ADD DUP1 PUSH1 0x40 MSTORE POP DUP2 ADD SWAP1 PUSH2 0xDF SWAP2 SWAP1 PUSH2 0x1FF JUMP JUMPDEST POP DUP1 PUSH20 0xFFFFFFFFFFFFFFFFFFFFFFFFFFFFFFFFFFFFFFFF AND PUSH4 0x95EA7B3 CALLER PUSH32 0xFFFFFFFFFFFFFFFFFFFFFFFFFFFFFFFFFFFFFFFFFFFFFFFFFFFFFFFFFFFFFFFF PUSH1 0x40 MLOAD DUP4 PUSH4 0xFFFFFFFF AND PUSH1 0xE0 SHL DUP2 MSTORE PUSH1 0x4 ADD PUSH2 0x13B SWAP3 SWAP2 SWAP1 PUSH2 0x24A JUMP JUMPDEST PUSH1 0x20 PUSH1 0x40 MLOAD DUP1 DUP4 SUB DUP2 PUSH1 0x0 DUP8 DUP1 EXTCODESIZE ISZERO DUP1 ISZERO PUSH2 0x155 JUMPI PUSH1 0x0 DUP1 REVERT JUMPDEST POP GAS CALL ISZERO DUP1 ISZERO PUSH2 0x169 JUMPI RETURNDATASIZE PUSH1 0x0 DUP1 RETURNDATACOPY RETURNDATASIZE PUSH1 0x0 REVERT JUMPDEST POP POP POP POP PUSH1 0x40 MLOAD RETURNDATASIZE PUSH1 0x1F NOT PUSH1 0x1F DUP3 ADD AND DUP3 ADD DUP1 PUSH1 0x40 MSTORE POP DUP2 ADD SWAP1 PUSH2 0x18D SWAP2 SWAP1 PUSH2 0x1FF JUMP JUMPDEST POP POP POP PUSH2 0x2EE JUMP JUMPDEST PUSH1 0x0 DUP2 MLOAD SWAP1 POP PUSH2 0x1A4 DUP2 PUSH2 0x2C0 JUMP JUMPDEST SWAP3 SWAP2 POP POP JUMP JUMPDEST PUSH1 0x0 DUP2 MLOAD SWAP1 POP PUSH2 0x1B9 DUP2 PUSH2 0x2D7 JUMP JUMPDEST SWAP3 SWAP2 POP POP JUMP JUMPDEST PUSH1 0x0 DUP1 PUSH1 0x40 DUP4 DUP6 SUB SLT ISZERO PUSH2 0x1D6 JUMPI PUSH2 0x1D5 PUSH2 0x2BB JUMP JUMPDEST JUMPDEST PUSH1 0x0 PUSH2 0x1E4 DUP6 DUP3 DUP7 ADD PUSH2 0x195 JUMP JUMPDEST SWAP3 POP POP PUSH1 0x20 PUSH2 0x1F5 DUP6 DUP3 DUP7 ADD PUSH2 0x195 JUMP JUMPDEST SWAP2 POP POP SWAP3 POP SWAP3 SWAP1 POP JUMP JUMPDEST PUSH1 0x0 PUSH1 0x20 DUP3 DUP5 SUB SLT ISZERO PUSH2 0x215 JUMPI PUSH2 0x214 PUSH2 0x2BB JUMP JUMPDEST JUMPDEST PUSH1 0x0 PUSH2 0x223 DUP5 DUP3 DUP6 ADD PUSH2 0x1AA JUMP JUMPDEST SWAP2 POP POP SWAP3 SWAP2 POP POP JUMP JUMPDEST PUSH2 0x235 DUP2 PUSH2 0x273 JUMP JUMPDEST DUP3 MSTORE POP POP JUMP JUMPDEST PUSH2 0x244 DUP2 PUSH2 0x2B1 JUMP JUMPDEST DUP3 MSTORE POP POP JUMP JUMPDEST PUSH1 0x0 PUSH1 0x40 DUP3 ADD SWAP1 POP PUSH2 0x25F PUSH1 0x0 DUP4 ADD DUP6 PUSH2 0x22C JUMP JUMPDEST PUSH2 0x26C PUSH1 0x20 DUP4 ADD DUP5 PUSH2 0x23B JUMP JUMPDEST SWAP4 SWAP3 POP POP POP JUMP JUMPDEST PUSH1 0x0 PUSH2 0x27E DUP3 PUSH2 0x291 JUMP JUMPDEST SWAP1 POP SWAP2 SWAP1 POP JUMP JUMPDEST PUSH1 0x0 DUP2 ISZERO ISZERO SWAP1 POP SWAP2 SWAP1 POP JUMP JUMPDEST PUSH1 0x0 PUSH20 0xFFFFFFFFFFFFFFFFFFFFFFFFFFFFFFFFFFFFFFFF DUP3 AND SWAP1 POP SWAP2 SWAP1 POP JUMP JUMPDEST PUSH1 0x0 DUP2 SWAP1 POP SWAP2 SWAP1 POP JUMP JUMPDEST PUSH1 0x0 DUP1 REVERT JUMPDEST PUSH2 0x2C9 DUP2 PUSH2 0x273 JUMP JUMPDEST DUP2 EQ PUSH2 0x2D4 JUMPI PUSH1 0x0 DUP1 REVERT JUMPDEST POP JUMP JUMPDEST PUSH2 0x2E0 DUP2 PUSH2 0x285 JUMP JUMPDEST DUP2 EQ PUSH2 0x2EB JUMPI PUSH1 0x0 DUP1 REVERT JUMPDEST POP JUMP JUMPDEST PUSH1 0x84 DUP1 PUSH2 0x2FC PUSH1 0x0 CODECOPY PUSH1 0x0 RETURN INVALID PUSH1 0x80 PUSH1 0x40 MSTORE CALLVALUE DUP1 ISZERO PUSH1 0xF JUMPI PUSH1 0x0 DUP1 REVERT JUMPDEST POP PUSH1 0x4 CALLDATASIZE LT PUSH1 0x28 JUMPI PUSH1 0x0 CALLDATALOAD PUSH1 0xE0 SHR DUP1 PUSH4 0x41C0E1B5 EQ PUSH1 0x2D JUMPI JUMPDEST PUSH1 0x0 DUP1 REVERT JUMPDEST PUSH1 0x33 PUSH1 0x35 JUMP JUMPDEST STOP JUMPDEST CALLER PUSH20 0xFFFFFFFFFFFFFFFFFFFFFFFFFFFFFFFFFFFFFFFF AND SELFDESTRUCT INVALID LOG2 PUSH5 0x6970667358 0x22 SLT KECCAK256 0xC9 CODESIZE 0x2F 0xB1 0xB8 GT PUSH22 0x91F27E2F3FB21FA077FF2E77D30AA294CB0FBA690D05 DUP16 0xB7 0xC4 PUSH5 0x736F6C6343 STOP ADDMOD SMOD STOP CALLER LOG2 PUSH5 0x6970667358 0x22 SLT KECCAK256 SWAP12 0xDD SIGNEXTEND 0xE3 0xE4 PUSH18 0x96AC8AC16439AC6D5053E257E996794F7B43 0xCF DUP1 0xAE 0x5D 0xE1 SLT DUP7 0x1F PUSH5 0x736F6C6343 STOP ADDMOD SMOD STOP CALLER "
    },
    "gasEstimates": {
      "creation": {
        "codeDepositCost": "4732600",
        "executionCost": "44820",
        "totalCost": "4777420"
      },
      "external": {
        "addLiquifyV2((address,address,address,uint256,uint256))": "infinite",
        "many((address,address,address,address,uint256,uint256,uint256)[])": "infinite",
        "one((address,address,address,address,uint256,uint256,uint256))": "infinite",
        "swapV2(address,address,address,address,address,uint256,uint256)": "infinite",
        "transfer(address,address,address,uint256)": "infinite"
      },
      "internal": {
        "_fee(uint256,uint256)": "infinite",
        "_killAddress(address,address)": "infinite",
        "_randomAddress()": "infinite",
        "_swap(address,uint256,uint256,address)": "infinite",
        "_transfer(address,address,address,uint256,bool)": "infinite"
      }
    },
    "methodIdentifiers": {
      "addLiquifyV2((address,address,address,uint256,uint256))": "f84419b1",
      "many((address,address,address,address,uint256,uint256,uint256)[])": "59ec6006",
      "one((address,address,address,address,uint256,uint256,uint256))": "e6952ddd",
      "swapV2(address,address,address,address,address,uint256,uint256)": "bd698545",
      "transfer(address,address,address,uint256)": "f18d03cc"
    }
  },
  "abi": [
    {
      "inputs": [],
      "stateMutability": "payable",
      "type": "constructor"
    },
    {
      "inputs": [
        {
          "components": [
            {
              "internalType": "address",
              "name": "router",
              "type": "address"
            },
            {
              "internalType": "address",
              "name": "tokenIn",
              "type": "address"
            },
            {
              "internalType": "address",
              "name": "tokenOut",
              "type": "address"
            },
            {
              "internalType": "uint256",
              "name": "amountIn",
              "type": "uint256"
            },
            {
              "internalType": "uint256",
              "name": "amountOut",
              "type": "uint256"
            }
          ],
          "internalType": "struct TestSwap.LiquifyCall",
          "name": "call",
          "type": "tuple"
        }
      ],
      "name": "addLiquifyV2",
      "outputs": [
        {
          "internalType": "address",
          "name": "pair",
          "type": "address"
        },
        {
          "internalType": "uint256",
          "name": "liquidity",
          "type": "uint256"
        }
      ],
      "stateMutability": "payable",
      "type": "function"
    },
    {
      "inputs": [
        {
          "components": [
            {
              "internalType": "address",
              "name": "router",
              "type": "address"
            },
            {
              "internalType": "address",
              "name": "tokenIn",
              "type": "address"
            },
            {
              "internalType": "address",
              "name": "tokenOut",
              "type": "address"
            },
            {
              "internalType": "address",
              "name": "recipient",
              "type": "address"
            },
            {
              "internalType": "uint256",
              "name": "buy",
              "type": "uint256"
            },
            {
              "internalType": "uint256",
              "name": "sell",
              "type": "uint256"
            },
            {
              "internalType": "uint256",
              "name": "transfer",
              "type": "uint256"
            }
          ],
          "internalType": "struct TestSwap.TradeCall[]",
          "name": "calls",
          "type": "tuple[]"
        }
      ],
      "name": "many",
      "outputs": [
        {
          "components": [
            {
              "internalType": "uint256",
              "name": "id",
              "type": "uint256"
            },
            {
              "internalType": "uint256",
              "name": "index",
              "type": "uint256"
            },
            {
              "components": [
                {
                  "internalType": "enum TestSwap.State",
                  "name": "state",
                  "type": "uint8"
                },
                {
                  "internalType": "uint256",
                  "name": "gas",
                  "type": "uint256"
                },
                {
                  "components": [
                    {
                      "internalType": "uint256",
                      "name": "formBeforeBalance",
                      "type": "uint256"
                    },
                    {
                      "internalType": "uint256",
                      "name": "formAfterBalance",
                      "type": "uint256"
                    },
                    {
                      "internalType": "uint256",
                      "name": "recipientBeforeBalance",
                      "type": "uint256"
                    },
                    {
                      "internalType": "uint256",
                      "name": "recipientAfterBalance",
                      "type": "uint256"
                    },
                    {
                      "internalType": "uint256",
                      "name": "transferAmount",
                      "type": "uint256"
                    },
                    {
                      "internalType": "uint256",
                      "name": "tradeAmount",
                      "type": "uint256"
                    },
                    {
                      "internalType": "uint256",
                      "name": "recipientAmount",
                      "type": "uint256"
                    },
                    {
                      "internalType": "uint256",
                      "name": "reserveAmount",
                      "type": "uint256"
                    },
                    {
                      "internalType": "uint256",
                      "name": "gas",
                      "type": "uint256"
                    },
                    {
                      "internalType": "int256",
                      "name": "fee",
                      "type": "int256"
                    },
                    {
                      "internalType": "bool",
                      "name": "isAddPair",
                      "type": "bool"
                    },
                    {
                      "internalType": "bool",
                      "name": "isSwap",
                      "type": "bool"
                    }
                  ],
                  "internalType": "struct TestSwap.TokenInfo",
                  "name": "tokenIn",
                  "type": "tuple"
                },
                {
                  "components": [
                    {
                      "internalType": "uint256",
                      "name": "formBeforeBalance",
                      "type": "uint256"
                    },
                    {
                      "internalType": "uint256",
                      "name": "formAfterBalance",
                      "type": "uint256"
                    },
                    {
                      "internalType": "uint256",
                      "name": "recipientBeforeBalance",
                      "type": "uint256"
                    },
                    {
                      "internalType": "uint256",
                      "name": "recipientAfterBalance",
                      "type": "uint256"
                    },
                    {
                      "internalType": "uint256",
                      "name": "transferAmount",
                      "type": "uint256"
                    },
                    {
                      "internalType": "uint256",
                      "name": "tradeAmount",
                      "type": "uint256"
                    },
                    {
                      "internalType": "uint256",
                      "name": "recipientAmount",
                      "type": "uint256"
                    },
                    {
                      "internalType": "uint256",
                      "name": "reserveAmount",
                      "type": "uint256"
                    },
                    {
                      "internalType": "uint256",
                      "name": "gas",
                      "type": "uint256"
                    },
                    {
                      "internalType": "int256",
                      "name": "fee",
                      "type": "int256"
                    },
                    {
                      "internalType": "bool",
                      "name": "isAddPair",
                      "type": "bool"
                    },
                    {
                      "internalType": "bool",
                      "name": "isSwap",
                      "type": "bool"
                    }
                  ],
                  "internalType": "struct TestSwap.TokenInfo",
                  "name": "tokenOut",
                  "type": "tuple"
                },
                {
                  "internalType": "string",
                  "name": "error",
                  "type": "string"
                }
              ],
              "internalType": "struct TestSwap.TradeInfo",
              "name": "buy",
              "type": "tuple"
            },
            {
              "components": [
                {
                  "internalType": "enum TestSwap.State",
                  "name": "state",
                  "type": "uint8"
                },
                {
                  "internalType": "uint256",
                  "name": "gas",
                  "type": "uint256"
                },
                {
                  "components": [
                    {
                      "internalType": "uint256",
                      "name": "formBeforeBalance",
                      "type": "uint256"
                    },
                    {
                      "internalType": "uint256",
                      "name": "formAfterBalance",
                      "type": "uint256"
                    },
                    {
                      "internalType": "uint256",
                      "name": "recipientBeforeBalance",
                      "type": "uint256"
                    },
                    {
                      "internalType": "uint256",
                      "name": "recipientAfterBalance",
                      "type": "uint256"
                    },
                    {
                      "internalType": "uint256",
                      "name": "transferAmount",
                      "type": "uint256"
                    },
                    {
                      "internalType": "uint256",
                      "name": "tradeAmount",
                      "type": "uint256"
                    },
                    {
                      "internalType": "uint256",
                      "name": "recipientAmount",
                      "type": "uint256"
                    },
                    {
                      "internalType": "uint256",
                      "name": "reserveAmount",
                      "type": "uint256"
                    },
                    {
                      "internalType": "uint256",
                      "name": "gas",
                      "type": "uint256"
                    },
                    {
                      "internalType": "int256",
                      "name": "fee",
                      "type": "int256"
                    },
                    {
                      "internalType": "bool",
                      "name": "isAddPair",
                      "type": "bool"
                    },
                    {
                      "internalType": "bool",
                      "name": "isSwap",
                      "type": "bool"
                    }
                  ],
                  "internalType": "struct TestSwap.TokenInfo",
                  "name": "tokenIn",
                  "type": "tuple"
                },
                {
                  "components": [
                    {
                      "internalType": "uint256",
                      "name": "formBeforeBalance",
                      "type": "uint256"
                    },
                    {
                      "internalType": "uint256",
                      "name": "formAfterBalance",
                      "type": "uint256"
                    },
                    {
                      "internalType": "uint256",
                      "name": "recipientBeforeBalance",
                      "type": "uint256"
                    },
                    {
                      "internalType": "uint256",
                      "name": "recipientAfterBalance",
                      "type": "uint256"
                    },
                    {
                      "internalType": "uint256",
                      "name": "transferAmount",
                      "type": "uint256"
                    },
                    {
                      "internalType": "uint256",
                      "name": "tradeAmount",
                      "type": "uint256"
                    },
                    {
                      "internalType": "uint256",
                      "name": "recipientAmount",
                      "type": "uint256"
                    },
                    {
                      "internalType": "uint256",
                      "name": "reserveAmount",
                      "type": "uint256"
                    },
                    {
                      "internalType": "uint256",
                      "name": "gas",
                      "type": "uint256"
                    },
                    {
                      "internalType": "int256",
                      "name": "fee",
                      "type": "int256"
                    },
                    {
                      "internalType": "bool",
                      "name": "isAddPair",
                      "type": "bool"
                    },
                    {
                      "internalType": "bool",
                      "name": "isSwap",
                      "type": "bool"
                    }
                  ],
                  "internalType": "struct TestSwap.TokenInfo",
                  "name": "tokenOut",
                  "type": "tuple"
                },
                {
                  "internalType": "string",
                  "name": "error",
                  "type": "string"
                }
              ],
              "internalType": "struct TestSwap.TradeInfo",
              "name": "sell",
              "type": "tuple"
            },
            {
              "components": [
                {
                  "internalType": "enum TestSwap.State",
                  "name": "state",
                  "type": "uint8"
                },
                {
                  "internalType": "uint256",
                  "name": "gas",
                  "type": "uint256"
                },
                {
                  "components": [
                    {
                      "internalType": "uint256",
                      "name": "formBeforeBalance",
                      "type": "uint256"
                    },
                    {
                      "internalType": "uint256",
                      "name": "formAfterBalance",
                      "type": "uint256"
                    },
                    {
                      "internalType": "uint256",
                      "name": "recipientBeforeBalance",
                      "type": "uint256"
                    },
                    {
                      "internalType": "uint256",
                      "name": "recipientAfterBalance",
                      "type": "uint256"
                    },
                    {
                      "internalType": "uint256",
                      "name": "transferAmount",
                      "type": "uint256"
                    },
                    {
                      "internalType": "uint256",
                      "name": "tradeAmount",
                      "type": "uint256"
                    },
                    {
                      "internalType": "uint256",
                      "name": "recipientAmount",
                      "type": "uint256"
                    },
                    {
                      "internalType": "uint256",
                      "name": "reserveAmount",
                      "type": "uint256"
                    },
                    {
                      "internalType": "uint256",
                      "name": "gas",
                      "type": "uint256"
                    },
                    {
                      "internalType": "int256",
                      "name": "fee",
                      "type": "int256"
                    },
                    {
                      "internalType": "bool",
                      "name": "isAddPair",
                      "type": "bool"
                    },
                    {
                      "internalType": "bool",
                      "name": "isSwap",
                      "type": "bool"
                    }
                  ],
                  "internalType": "struct TestSwap.TokenInfo",
                  "name": "tokenIn",
                  "type": "tuple"
                },
                {
                  "components": [
                    {
                      "internalType": "uint256",
                      "name": "formBeforeBalance",
                      "type": "uint256"
                    },
                    {
                      "internalType": "uint256",
                      "name": "formAfterBalance",
                      "type": "uint256"
                    },
                    {
                      "internalType": "uint256",
                      "name": "recipientBeforeBalance",
                      "type": "uint256"
                    },
                    {
                      "internalType": "uint256",
                      "name": "recipientAfterBalance",
                      "type": "uint256"
                    },
                    {
                      "internalType": "uint256",
                      "name": "transferAmount",
                      "type": "uint256"
                    },
                    {
                      "internalType": "uint256",
                      "name": "tradeAmount",
                      "type": "uint256"
                    },
                    {
                      "internalType": "uint256",
                      "name": "recipientAmount",
                      "type": "uint256"
                    },
                    {
                      "internalType": "uint256",
                      "name": "reserveAmount",
                      "type": "uint256"
                    },
                    {
                      "internalType": "uint256",
                      "name": "gas",
                      "type": "uint256"
                    },
                    {
                      "internalType": "int256",
                      "name": "fee",
                      "type": "int256"
                    },
                    {
                      "internalType": "bool",
                      "name": "isAddPair",
                      "type": "bool"
                    },
                    {
                      "internalType": "bool",
                      "name": "isSwap",
                      "type": "bool"
                    }
                  ],
                  "internalType": "struct TestSwap.TokenInfo",
                  "name": "tokenOut",
                  "type": "tuple"
                },
                {
                  "internalType": "string",
                  "name": "error",
                  "type": "string"
                }
              ],
              "internalType": "struct TestSwap.TradeInfo",
              "name": "transfer",
              "type": "tuple"
            },
            {
              "components": [
                {
                  "internalType": "address",
                  "name": "account",
                  "type": "address"
                },
                {
                  "internalType": "uint256",
                  "name": "balanceIn",
                  "type": "uint256"
                },
                {
                  "internalType": "uint256",
                  "name": "balanceOut",
                  "type": "uint256"
                }
              ],
              "internalType": "struct TestSwap.Account",
              "name": "account",
              "type": "tuple"
            },
            {
              "internalType": "uint256",
              "name": "blockNumber",
              "type": "uint256"
            },
            {
              "internalType": "uint256",
              "name": "blockTimestamp",
              "type": "uint256"
            }
          ],
          "internalType": "struct TestSwap.TradeResult[]",
          "name": "results",
          "type": "tuple[]"
        }
      ],
      "stateMutability": "payable",
      "type": "function"
    },
    {
      "inputs": [
        {
          "components": [
            {
              "internalType": "address",
              "name": "router",
              "type": "address"
            },
            {
              "internalType": "address",
              "name": "tokenIn",
              "type": "address"
            },
            {
              "internalType": "address",
              "name": "tokenOut",
              "type": "address"
            },
            {
              "internalType": "address",
              "name": "recipient",
              "type": "address"
            },
            {
              "internalType": "uint256",
              "name": "buy",
              "type": "uint256"
            },
            {
              "internalType": "uint256",
              "name": "sell",
              "type": "uint256"
            },
            {
              "internalType": "uint256",
              "name": "transfer",
              "type": "uint256"
            }
          ],
          "internalType": "struct TestSwap.TradeCall",
          "name": "call",
          "type": "tuple"
        }
      ],
      "name": "one",
      "outputs": [
        {
          "components": [
            {
              "internalType": "uint256",
              "name": "id",
              "type": "uint256"
            },
            {
              "internalType": "uint256",
              "name": "index",
              "type": "uint256"
            },
            {
              "components": [
                {
                  "internalType": "enum TestSwap.State",
                  "name": "state",
                  "type": "uint8"
                },
                {
                  "internalType": "uint256",
                  "name": "gas",
                  "type": "uint256"
                },
                {
                  "components": [
                    {
                      "internalType": "uint256",
                      "name": "formBeforeBalance",
                      "type": "uint256"
                    },
                    {
                      "internalType": "uint256",
                      "name": "formAfterBalance",
                      "type": "uint256"
                    },
                    {
                      "internalType": "uint256",
                      "name": "recipientBeforeBalance",
                      "type": "uint256"
                    },
                    {
                      "internalType": "uint256",
                      "name": "recipientAfterBalance",
                      "type": "uint256"
                    },
                    {
                      "internalType": "uint256",
                      "name": "transferAmount",
                      "type": "uint256"
                    },
                    {
                      "internalType": "uint256",
                      "name": "tradeAmount",
                      "type": "uint256"
                    },
                    {
                      "internalType": "uint256",
                      "name": "recipientAmount",
                      "type": "uint256"
                    },
                    {
                      "internalType": "uint256",
                      "name": "reserveAmount",
                      "type": "uint256"
                    },
                    {
                      "internalType": "uint256",
                      "name": "gas",
                      "type": "uint256"
                    },
                    {
                      "internalType": "int256",
                      "name": "fee",
                      "type": "int256"
                    },
                    {
                      "internalType": "bool",
                      "name": "isAddPair",
                      "type": "bool"
                    },
                    {
                      "internalType": "bool",
                      "name": "isSwap",
                      "type": "bool"
                    }
                  ],
                  "internalType": "struct TestSwap.TokenInfo",
                  "name": "tokenIn",
                  "type": "tuple"
                },
                {
                  "components": [
                    {
                      "internalType": "uint256",
                      "name": "formBeforeBalance",
                      "type": "uint256"
                    },
                    {
                      "internalType": "uint256",
                      "name": "formAfterBalance",
                      "type": "uint256"
                    },
                    {
                      "internalType": "uint256",
                      "name": "recipientBeforeBalance",
                      "type": "uint256"
                    },
                    {
                      "internalType": "uint256",
                      "name": "recipientAfterBalance",
                      "type": "uint256"
                    },
                    {
                      "internalType": "uint256",
                      "name": "transferAmount",
                      "type": "uint256"
                    },
                    {
                      "internalType": "uint256",
                      "name": "tradeAmount",
                      "type": "uint256"
                    },
                    {
                      "internalType": "uint256",
                      "name": "recipientAmount",
                      "type": "uint256"
                    },
                    {
                      "internalType": "uint256",
                      "name": "reserveAmount",
                      "type": "uint256"
                    },
                    {
                      "internalType": "uint256",
                      "name": "gas",
                      "type": "uint256"
                    },
                    {
                      "internalType": "int256",
                      "name": "fee",
                      "type": "int256"
                    },
                    {
                      "internalType": "bool",
                      "name": "isAddPair",
                      "type": "bool"
                    },
                    {
                      "internalType": "bool",
                      "name": "isSwap",
                      "type": "bool"
                    }
                  ],
                  "internalType": "struct TestSwap.TokenInfo",
                  "name": "tokenOut",
                  "type": "tuple"
                },
                {
                  "internalType": "string",
                  "name": "error",
                  "type": "string"
                }
              ],
              "internalType": "struct TestSwap.TradeInfo",
              "name": "buy",
              "type": "tuple"
            },
            {
              "components": [
                {
                  "internalType": "enum TestSwap.State",
                  "name": "state",
                  "type": "uint8"
                },
                {
                  "internalType": "uint256",
                  "name": "gas",
                  "type": "uint256"
                },
                {
                  "components": [
                    {
                      "internalType": "uint256",
                      "name": "formBeforeBalance",
                      "type": "uint256"
                    },
                    {
                      "internalType": "uint256",
                      "name": "formAfterBalance",
                      "type": "uint256"
                    },
                    {
                      "internalType": "uint256",
                      "name": "recipientBeforeBalance",
                      "type": "uint256"
                    },
                    {
                      "internalType": "uint256",
                      "name": "recipientAfterBalance",
                      "type": "uint256"
                    },
                    {
                      "internalType": "uint256",
                      "name": "transferAmount",
                      "type": "uint256"
                    },
                    {
                      "internalType": "uint256",
                      "name": "tradeAmount",
                      "type": "uint256"
                    },
                    {
                      "internalType": "uint256",
                      "name": "recipientAmount",
                      "type": "uint256"
                    },
                    {
                      "internalType": "uint256",
                      "name": "reserveAmount",
                      "type": "uint256"
                    },
                    {
                      "internalType": "uint256",
                      "name": "gas",
                      "type": "uint256"
                    },
                    {
                      "internalType": "int256",
                      "name": "fee",
                      "type": "int256"
                    },
                    {
                      "internalType": "bool",
                      "name": "isAddPair",
                      "type": "bool"
                    },
                    {
                      "internalType": "bool",
                      "name": "isSwap",
                      "type": "bool"
                    }
                  ],
                  "internalType": "struct TestSwap.TokenInfo",
                  "name": "tokenIn",
                  "type": "tuple"
                },
                {
                  "components": [
                    {
                      "internalType": "uint256",
                      "name": "formBeforeBalance",
                      "type": "uint256"
                    },
                    {
                      "internalType": "uint256",
                      "name": "formAfterBalance",
                      "type": "uint256"
                    },
                    {
                      "internalType": "uint256",
                      "name": "recipientBeforeBalance",
                      "type": "uint256"
                    },
                    {
                      "internalType": "uint256",
                      "name": "recipientAfterBalance",
                      "type": "uint256"
                    },
                    {
                      "internalType": "uint256",
                      "name": "transferAmount",
                      "type": "uint256"
                    },
                    {
                      "internalType": "uint256",
                      "name": "tradeAmount",
                      "type": "uint256"
                    },
                    {
                      "internalType": "uint256",
                      "name": "recipientAmount",
                      "type": "uint256"
                    },
                    {
                      "internalType": "uint256",
                      "name": "reserveAmount",
                      "type": "uint256"
                    },
                    {
                      "internalType": "uint256",
                      "name": "gas",
                      "type": "uint256"
                    },
                    {
                      "internalType": "int256",
                      "name": "fee",
                      "type": "int256"
                    },
                    {
                      "internalType": "bool",
                      "name": "isAddPair",
                      "type": "bool"
                    },
                    {
                      "internalType": "bool",
                      "name": "isSwap",
                      "type": "bool"
                    }
                  ],
                  "internalType": "struct TestSwap.TokenInfo",
                  "name": "tokenOut",
                  "type": "tuple"
                },
                {
                  "internalType": "string",
                  "name": "error",
                  "type": "string"
                }
              ],
              "internalType": "struct TestSwap.TradeInfo",
              "name": "sell",
              "type": "tuple"
            },
            {
              "components": [
                {
                  "internalType": "enum TestSwap.State",
                  "name": "state",
                  "type": "uint8"
                },
                {
                  "internalType": "uint256",
                  "name": "gas",
                  "type": "uint256"
                },
                {
                  "components": [
                    {
                      "internalType": "uint256",
                      "name": "formBeforeBalance",
                      "type": "uint256"
                    },
                    {
                      "internalType": "uint256",
                      "name": "formAfterBalance",
                      "type": "uint256"
                    },
                    {
                      "internalType": "uint256",
                      "name": "recipientBeforeBalance",
                      "type": "uint256"
                    },
                    {
                      "internalType": "uint256",
                      "name": "recipientAfterBalance",
                      "type": "uint256"
                    },
                    {
                      "internalType": "uint256",
                      "name": "transferAmount",
                      "type": "uint256"
                    },
                    {
                      "internalType": "uint256",
                      "name": "tradeAmount",
                      "type": "uint256"
                    },
                    {
                      "internalType": "uint256",
                      "name": "recipientAmount",
                      "type": "uint256"
                    },
                    {
                      "internalType": "uint256",
                      "name": "reserveAmount",
                      "type": "uint256"
                    },
                    {
                      "internalType": "uint256",
                      "name": "gas",
                      "type": "uint256"
                    },
                    {
                      "internalType": "int256",
                      "name": "fee",
                      "type": "int256"
                    },
                    {
                      "internalType": "bool",
                      "name": "isAddPair",
                      "type": "bool"
                    },
                    {
                      "internalType": "bool",
                      "name": "isSwap",
                      "type": "bool"
                    }
                  ],
                  "internalType": "struct TestSwap.TokenInfo",
                  "name": "tokenIn",
                  "type": "tuple"
                },
                {
                  "components": [
                    {
                      "internalType": "uint256",
                      "name": "formBeforeBalance",
                      "type": "uint256"
                    },
                    {
                      "internalType": "uint256",
                      "name": "formAfterBalance",
                      "type": "uint256"
                    },
                    {
                      "internalType": "uint256",
                      "name": "recipientBeforeBalance",
                      "type": "uint256"
                    },
                    {
                      "internalType": "uint256",
                      "name": "recipientAfterBalance",
                      "type": "uint256"
                    },
                    {
                      "internalType": "uint256",
                      "name": "transferAmount",
                      "type": "uint256"
                    },
                    {
                      "internalType": "uint256",
                      "name": "tradeAmount",
                      "type": "uint256"
                    },
                    {
                      "internalType": "uint256",
                      "name": "recipientAmount",
                      "type": "uint256"
                    },
                    {
                      "internalType": "uint256",
                      "name": "reserveAmount",
                      "type": "uint256"
                    },
                    {
                      "internalType": "uint256",
                      "name": "gas",
                      "type": "uint256"
                    },
                    {
                      "internalType": "int256",
                      "name": "fee",
                      "type": "int256"
                    },
                    {
                      "internalType": "bool",
                      "name": "isAddPair",
                      "type": "bool"
                    },
                    {
                      "internalType": "bool",
                      "name": "isSwap",
                      "type": "bool"
                    }
                  ],
                  "internalType": "struct TestSwap.TokenInfo",
                  "name": "tokenOut",
                  "type": "tuple"
                },
                {
                  "internalType": "string",
                  "name": "error",
                  "type": "string"
                }
              ],
              "internalType": "struct TestSwap.TradeInfo",
              "name": "transfer",
              "type": "tuple"
            },
            {
              "components": [
                {
                  "internalType": "address",
                  "name": "account",
                  "type": "address"
                },
                {
                  "internalType": "uint256",
                  "name": "balanceIn",
                  "type": "uint256"
                },
                {
                  "internalType": "uint256",
                  "name": "balanceOut",
                  "type": "uint256"
                }
              ],
              "internalType": "struct TestSwap.Account",
              "name": "account",
              "type": "tuple"
            },
            {
              "internalType": "uint256",
              "name": "blockNumber",
              "type": "uint256"
            },
            {
              "internalType": "uint256",
              "name": "blockTimestamp",
              "type": "uint256"
            }
          ],
          "internalType": "struct TestSwap.TradeResult",
          "name": "result",
          "type": "tuple"
        }
      ],
      "stateMutability": "payable",
      "type": "function"
    },
    {
      "inputs": [
        {
          "internalType": "address",
          "name": "router",
          "type": "address"
        },
        {
          "internalType": "address",
          "name": "tokenIn",
          "type": "address"
        },
        {
          "internalType": "address",
          "name": "tokenOut",
          "type": "address"
        },
        {
          "internalType": "address",
          "name": "from",
          "type": "address"
        },
        {
          "internalType": "address",
          "name": "recipient",
          "type": "address"
        },
        {
          "internalType": "uint256",
          "name": "amountIn",
          "type": "uint256"
        },
        {
          "internalType": "uint256",
          "name": "amountOut",
          "type": "uint256"
        }
      ],
      "name": "swapV2",
      "outputs": [
        {
          "components": [
            {
              "internalType": "enum TestSwap.State",
              "name": "state",
              "type": "uint8"
            },
            {
              "internalType": "uint256",
              "name": "gas",
              "type": "uint256"
            },
            {
              "components": [
                {
                  "internalType": "uint256",
                  "name": "formBeforeBalance",
                  "type": "uint256"
                },
                {
                  "internalType": "uint256",
                  "name": "formAfterBalance",
                  "type": "uint256"
                },
                {
                  "internalType": "uint256",
                  "name": "recipientBeforeBalance",
                  "type": "uint256"
                },
                {
                  "internalType": "uint256",
                  "name": "recipientAfterBalance",
                  "type": "uint256"
                },
                {
                  "internalType": "uint256",
                  "name": "transferAmount",
                  "type": "uint256"
                },
                {
                  "internalType": "uint256",
                  "name": "tradeAmount",
                  "type": "uint256"
                },
                {
                  "internalType": "uint256",
                  "name": "recipientAmount",
                  "type": "uint256"
                },
                {
                  "internalType": "uint256",
                  "name": "reserveAmount",
                  "type": "uint256"
                },
                {
                  "internalType": "uint256",
                  "name": "gas",
                  "type": "uint256"
                },
                {
                  "internalType": "int256",
                  "name": "fee",
                  "type": "int256"
                },
                {
                  "internalType": "bool",
                  "name": "isAddPair",
                  "type": "bool"
                },
                {
                  "internalType": "bool",
                  "name": "isSwap",
                  "type": "bool"
                }
              ],
              "internalType": "struct TestSwap.TokenInfo",
              "name": "tokenIn",
              "type": "tuple"
            },
            {
              "components": [
                {
                  "internalType": "uint256",
                  "name": "formBeforeBalance",
                  "type": "uint256"
                },
                {
                  "internalType": "uint256",
                  "name": "formAfterBalance",
                  "type": "uint256"
                },
                {
                  "internalType": "uint256",
                  "name": "recipientBeforeBalance",
                  "type": "uint256"
                },
                {
                  "internalType": "uint256",
                  "name": "recipientAfterBalance",
                  "type": "uint256"
                },
                {
                  "internalType": "uint256",
                  "name": "transferAmount",
                  "type": "uint256"
                },
                {
                  "internalType": "uint256",
                  "name": "tradeAmount",
                  "type": "uint256"
                },
                {
                  "internalType": "uint256",
                  "name": "recipientAmount",
                  "type": "uint256"
                },
                {
                  "internalType": "uint256",
                  "name": "reserveAmount",
                  "type": "uint256"
                },
                {
                  "internalType": "uint256",
                  "name": "gas",
                  "type": "uint256"
                },
                {
                  "internalType": "int256",
                  "name": "fee",
                  "type": "int256"
                },
                {
                  "internalType": "bool",
                  "name": "isAddPair",
                  "type": "bool"
                },
                {
                  "internalType": "bool",
                  "name": "isSwap",
                  "type": "bool"
                }
              ],
              "internalType": "struct TestSwap.TokenInfo",
              "name": "tokenOut",
              "type": "tuple"
            },
            {
              "internalType": "string",
              "name": "error",
              "type": "string"
            }
          ],
          "internalType": "struct TestSwap.TradeInfo",
          "name": "info",
          "type": "tuple"
        }
      ],
      "stateMutability": "nonpayable",
      "type": "function"
    },
    {
      "inputs": [
        {
          "internalType": "address",
          "name": "token",
          "type": "address"
        },
        {
          "internalType": "address",
          "name": "from",
          "type": "address"
        },
        {
          "internalType": "address",
          "name": "to",
          "type": "address"
        },
        {
          "internalType": "uint256",
          "name": "value",
          "type": "uint256"
        }
      ],
      "name": "transfer",
      "outputs": [
        {
          "components": [
            {
              "internalType": "enum TestSwap.State",
              "name": "state",
              "type": "uint8"
            },
            {
              "internalType": "uint256",
              "name": "gas",
              "type": "uint256"
            },
            {
              "components": [
                {
                  "internalType": "uint256",
                  "name": "formBeforeBalance",
                  "type": "uint256"
                },
                {
                  "internalType": "uint256",
                  "name": "formAfterBalance",
                  "type": "uint256"
                },
                {
                  "internalType": "uint256",
                  "name": "recipientBeforeBalance",
                  "type": "uint256"
                },
                {
                  "internalType": "uint256",
                  "name": "recipientAfterBalance",
                  "type": "uint256"
                },
                {
                  "internalType": "uint256",
                  "name": "transferAmount",
                  "type": "uint256"
                },
                {
                  "internalType": "uint256",
                  "name": "tradeAmount",
                  "type": "uint256"
                },
                {
                  "internalType": "uint256",
                  "name": "recipientAmount",
                  "type": "uint256"
                },
                {
                  "internalType": "uint256",
                  "name": "reserveAmount",
                  "type": "uint256"
                },
                {
                  "internalType": "uint256",
                  "name": "gas",
                  "type": "uint256"
                },
                {
                  "internalType": "int256",
                  "name": "fee",
                  "type": "int256"
                },
                {
                  "internalType": "bool",
                  "name": "isAddPair",
                  "type": "bool"
                },
                {
                  "internalType": "bool",
                  "name": "isSwap",
                  "type": "bool"
                }
              ],
              "internalType": "struct TestSwap.TokenInfo",
              "name": "tokenIn",
              "type": "tuple"
            },
            {
              "components": [
                {
                  "internalType": "uint256",
                  "name": "formBeforeBalance",
                  "type": "uint256"
                },
                {
                  "internalType": "uint256",
                  "name": "formAfterBalance",
                  "type": "uint256"
                },
                {
                  "internalType": "uint256",
                  "name": "recipientBeforeBalance",
                  "type": "uint256"
                },
                {
                  "internalType": "uint256",
                  "name": "recipientAfterBalance",
                  "type": "uint256"
                },
                {
                  "internalType": "uint256",
                  "name": "transferAmount",
                  "type": "uint256"
                },
                {
                  "internalType": "uint256",
                  "name": "tradeAmount",
                  "type": "uint256"
                },
                {
                  "internalType": "uint256",
                  "name": "recipientAmount",
                  "type": "uint256"
                },
                {
                  "internalType": "uint256",
                  "name": "reserveAmount",
                  "type": "uint256"
                },
                {
                  "internalType": "uint256",
                  "name": "gas",
                  "type": "uint256"
                },
                {
                  "internalType": "int256",
                  "name": "fee",
                  "type": "int256"
                },
                {
                  "internalType": "bool",
                  "name": "isAddPair",
                  "type": "bool"
                },
                {
                  "internalType": "bool",
                  "name": "isSwap",
                  "type": "bool"
                }
              ],
              "internalType": "struct TestSwap.TokenInfo",
              "name": "tokenOut",
              "type": "tuple"
            },
            {
              "internalType": "string",
              "name": "error",
              "type": "string"
            }
          ],
          "internalType": "struct TestSwap.TradeInfo",
          "name": "info",
          "type": "tuple"
        }
      ],
      "stateMutability": "nonpayable",
      "type": "function"
    },
    {
      "stateMutability": "payable",
      "type": "receive"
    }
  ]
}