{
  "data": {
    "bytecode": {
      "linkReferences": {},
      "object": "608060405260008080556001819055600255600480546001600160a01b0319163017905561406f806100326000396000f3fe608060405260043610620000605760003560e01c806359ec6006146200006d578063bd698545146200009c578063c929122d14620000d0578063e6952ddd146200010e578063f18d03cc1462000134578063f84419b1146200015957600080fd5b366200006857005b600080fd5b620000846200007e3660046200329a565b62000190565b60405162000093919062003905565b60405180910390f35b348015620000a957600080fd5b50620000c1620000bb366004620030fe565b620002d5565b604051620000939190620039fa565b348015620000dd57600080fd5b50620000f5620000ef366004620031e4565b62000967565b6040516001600160a01b03909116815260200162000093565b620001256200011f366004620033e9565b62000a4c565b60405162000093919062003a0f565b3480156200014157600080fd5b50620000c1620001533660046200318c565b62001785565b620001706200016a366004620033d0565b620017d4565b604080516001600160a01b03909316835260208301919091520162000093565b6060816001600160401b03811115620001ad57620001ad62003c6d565b604051908082528060200260200182016040528015620001ea57816020015b620001d662002c9a565b815260200190600190039081620001cc5790505b50905060005b82811015620002ce573063e6952ddd85858481811062000214576200021462003c57565b905060e002016040518263ffffffff1660e01b81526004016200023891906200396b565b600060405180830381600087803b1580156200025357600080fd5b505af19250505080156200028b57506040513d6000823e601f3d908101601f19168201604052620002889190810190620034ce565b60015b6200029657620002b9565b80838381518110620002ac57620002ac62003c57565b6020026020010181905250505b80620002c58162003c0d565b915050620001f0565b5092915050565b620002df62002d10565b600181525a8160200181815250506000886001600160a01b031663c45a01556040518163ffffffff1660e01b815260040160206040518083038186803b1580156200032957600080fd5b505afa1580156200033e573d6000803e3d6000fd5b505050506040513d601f19601f82011682018060405250810190620003649190620030de565b60405163e6a4390560e01b81526001600160a01b038a811660048301528981166024830152919091169063e6a439059060440160206040518083038186803b158015620003b057600080fd5b505afa158015620003c5573d6000803e3d6000fd5b505050506040513d601f19601f82011682018060405250810190620003eb9190620030de565b90506001600160a01b0381166200043f5760405162461bcd60e51b81526020600482015260136024820152721c1bdbdb08191bd95cc81b9bdd08195e1a5cdd606a1b60448201526064015b60405180910390fd5b60408051600280825260608201835283928b9260009290916020830190803683370190505090508a816000815181106200047d576200047d62003c57565b60200260200101906001600160a01b031690816001600160a01b0316815250508981600181518110620004b457620004b462003c57565b6001600160a01b039092166020928302919091019091015286158015620004da57508515155b1562000588576040516307c0329d60e21b81526001600160a01b038d1690631f00ca749062000510908990859060040162003a24565b60006040518083038186803b1580156200052957600080fd5b505afa1580156200053e573d6000803e3d6000fd5b505050506040513d6000823e601f3d908101601f1916820160405262000568919081019062003313565b6000815181106200057d576200057d62003c57565b602002602001015196505b60008711620005d05760405162461bcd60e51b8152602060048201526013602482015272746f6b656e496e206e6f74206265207a65726f60681b604482015260640162000436565b6040516370a0823160e01b81526001600160a01b03858116600483015261271091908416906370a082319060240160206040518083038186803b1580156200061757600080fd5b505afa1580156200062c573d6000803e3d6000fd5b505050506040513d601f19601f8201168201806040525081019062000652919062003625565b620006609061270f62003b2e565b6200066c919062003b0b565b87111562000713576040516370a0823160e01b81526001600160a01b03858116600483015261271091908416906370a082319060240160206040518083038186803b158015620006bb57600080fd5b505afa158015620006d0573d6000803e3d6000fd5b505050506040513d601f19601f82011682018060405250810190620006f6919062003625565b620007049061270f62003b2e565b62000710919062003b0b565b96505b620007238b8a868a600162001d9a565b85604001819052506000808c6001600160a01b0316856001600160a01b0316630dfe16816040518163ffffffff1660e01b815260040160206040518083038186803b1580156200077257600080fd5b505afa15801562000787573d6000803e3d6000fd5b505050506040513d601f19601f82011682018060405250810190620007ad9190620030de565b6001600160a01b0316141562000877578d6001600160a01b031663d06ca61f88604001516101000151856040518363ffffffff1660e01b8152600401620007f692919062003a24565b60006040518083038186803b1580156200080f57600080fd5b505afa15801562000824573d6000803e3d6000fd5b505050506040513d6000823e601f3d908101601f191682016040526200084e919081019062003313565b60018151811062000863576200086362003c57565b60200260200101519150600090506200092c565b8d6001600160a01b031663d06ca61f88604001516101000151856040518363ffffffff1660e01b8152600401620008b092919062003a24565b60006040518083038186803b158015620008c957600080fd5b505afa158015620008de573d6000803e3d6000fd5b505050506040513d6000823e601f3d908101601f1916820160405262000908919081019062003313565b6001815181106200091d576200091d62003c57565b60200260200101519050600091505b6200093a8682848d620025b1565b60608801525a8760200181815162000953919062003b95565b905250505050505050979650505050505050565b60008082604051620009799062002d4d565b620009859190620038f0565b604051809103906000f080158015620009a2573d6000803e3d6000fd5b509050806001600160a01b03166341c0e1b56040518163ffffffff1660e01b8152600401600060405180830381600087803b158015620009e157600080fd5b505af1158015620009f6573d6000803e3d6000fd5b5050600380546001810182556000919091527fc2575a0e9e593c00f959f8c92f12db2869c3395a3b0502d05e2516446f71f85b0180546001600160a01b0319166001600160a01b03851617905550909392505050565b62000a5662002c9a565b8160015443111562000a8657436001908155600060028190558054819062000a8090849062003af0565b90915550505b60016002600082825462000a9b919062003af0565b909155505060608101516001600160a01b03166001141562000b6e5760408051600280825260608201835260009260208301908036833701905050905081602001518160008151811062000af35762000af362003c57565b60200260200101906001600160a01b031690816001600160a01b03168152505081604001518160018151811062000b2e5762000b2e62003c57565b60200260200101906001600160a01b031690816001600160a01b03168152505062000b598162000967565b6001600160a01b031660608301525062000b88565b60608101516001600160a01b031662000b88573360608201525b82516020840151674563918244f4000047111562000e57576000826001600160a01b031663ad5c46486040518163ffffffff1660e01b815260040160206040518083038186803b15801562000bdc57600080fd5b505afa15801562000bf1573d6000803e3d6000fd5b505050506040513d601f19601f8201168201806040525081019062000c179190620030de565b6004549091506001600160a01b038083169163d0e30db09162000c4691674563918244f4000091163162003b95565b6040518263ffffffff1660e01b81526004016000604051808303818588803b15801562000c7257600080fd5b505af115801562000c87573d6000803e3d6000fd5b5050505050806001600160a01b0316826001600160a01b03161415801562000d335750600480546040516370a0823160e01b81526001600160a01b0391821692810192909252600091908316906370a082319060240160206040518083038186803b15801562000cf657600080fd5b505afa15801562000d0b573d6000803e3d6000fd5b505050506040513d601f19601f8201168201806040525081019062000d31919062003625565b115b1562000e5557600480546040516370a0823160e01b81526001600160a01b0391821692810192909252309163bd6985459186918591879186918291908516906370a082319060240160206040518083038186803b15801562000d9457600080fd5b505afa15801562000da9573d6000803e3d6000fd5b505050506040513d601f19601f8201168201806040525081019062000dcf919062003625565b60006040518863ffffffff1660e01b815260040162000df59796959493929190620038ad565b600060405180830381600087803b15801562000e1057600080fd5b505af192505050801562000e4857506040513d6000823e601f3d908101601f1916820160405262000e45919081019062003496565b60015b62000e535762000e55565b505b505b6000805485526002546020808701919091524360c08701524260e08701528601516040808801519051919290916000805160206200401a833981519152908290a16080880151156200116b57600088600001516001600160a01b031663c45a01556040518163ffffffff1660e01b815260040160206040518083038186803b15801562000ee357600080fd5b505afa15801562000ef8573d6000803e3d6000fd5b505050506040513d601f19601f8201168201806040525081019062000f1e9190620030de565b60208a01516040808c0151905163e6a4390560e01b81526001600160a01b039283166004820152908216602482015291169063e6a439059060440160206040518083038186803b15801562000f7257600080fd5b505afa15801562000f87573d6000803e3d6000fd5b505050506040513d601f19601f8201168201806040525081019062000fad9190620030de565b60808a01516040516370a0823160e01b81526001600160a01b038084166004830152929350612710928616906370a082319060240160206040518083038186803b15801562000ffb57600080fd5b505afa15801562001010573d6000803e3d6000fd5b505050506040513d601f19601f8201168201806040525081019062001036919062003625565b62001042919062003b2e565b6200104e919062003b0b565b895160208b01516040808d015160608e0151915163bd69854560e01b8152949650309463bd69854594620010929490939092918791906000908b90600401620038ad565b600060405180830381600087803b158015620010ad57600080fd5b505af1925050508015620010e557506040513d6000823e601f3d908101601f19168201604052620010e2919081019062003496565b60015b6200116357620010f462003c83565b806308c379a014156200112e57506200110c62003ca0565b8062001119575062001130565b60408901805160029052516080015262001169565b505b604088810180516002905281518083019092526008825267189d5e4819985a5b60c21b6020830152516080015262001169565b60408901525b505b6040516000805160206200401a83398151915290600090a1600260408801515160028111156200119f576200119f62003c41565b14158015620011b2575060008860a00151115b15620013a757816001600160a01b03166370a082318960800151600014620011df578960600151620011e1565b325b6040516001600160e01b031960e084901b1681526001600160a01b03909116600482015260240160206040518083038186803b1580156200122157600080fd5b505afa15801562001236573d6000803e3d6000fd5b505050506040513d601f19601f820116820180604052508101906200125c919062003625565b9050306001600160a01b031663bd69854589600001518a604001518b602001518c606001518d606001516127108f60a00151896200129b919062003b2e565b620012a7919062003b0b565b60006040518863ffffffff1660e01b8152600401620012cd9796959493929190620038ad565b600060405180830381600087803b158015620012e857600080fd5b505af19250505080156200132057506040513d6000823e601f3d908101601f191682016040526200131d919081019062003496565b60015b620013a1576200132f62003c83565b806308c379a014156200136957506200134762003ca0565b806200135457506200136b565b606088018051600290525160800152620013a7565b505b606087018051600290526040805180820190915260098152681cd95b1b0819985a5b60ba1b6020820152905160800152620013a7565b60608801525b6040516000805160206200401a83398151915290600090a160026040880151516002811115620013db57620013db62003c41565b14158015620013ee575060008860c00151115b156200163757816001600160a01b03166370a0823189608001516000146200141b5789606001516200141d565b325b6040516001600160e01b031960e084901b1681526001600160a01b03909116600482015260240160206040518083038186803b1580156200145d57600080fd5b505afa15801562001472573d6000803e3d6000fd5b505050506040513d601f19601f8201168201806040525081019062001498919062003625565b9050306001600160a01b031663f18d03cc89604001518a60600151620014fa6000805460025460408051602081019390935282015243606082015242608082015260a0016040516020818303038152906040528051906020012060001c905090565b6127108d60c00151876200150f919062003b2e565b6200151b919062003b0b565b6040516001600160e01b031960e087901b1681526001600160a01b0394851660048201529284166024840152921660448201526064810191909152608401600060405180830381600087803b1580156200157457600080fd5b505af1925050508015620015ac57506040513d6000823e601f3d908101601f19168201604052620015a9919081019062003496565b60015b6200163157620015bb62003c83565b806308c379a01415620015f45750620015d362003ca0565b80620015e05750620015f6565b608088810180516002905251015262001637565b505b608087810180516002905260408051808201909152600d81526c1d1c985b9cd9995c8819985a5b609a1b602082015290519091015262001637565b60808801525b6040516000805160206200401a83398151915290600090a160408051606080820183528a0180516001600160a01b039081168352905192516370a0823160e01b81529281166004840152909160208301918616906370a082319060240160206040518083038186803b158015620016ad57600080fd5b505afa158015620016c2573d6000803e3d6000fd5b505050506040513d601f19601f82011682018060405250810190620016e8919062003625565b815260608a01516040516370a0823160e01b81526001600160a01b039182166004820152602090920191908516906370a082319060240160206040518083038186803b1580156200173857600080fd5b505afa1580156200174d573d6000803e3d6000fd5b505050506040513d601f19601f8201168201806040525081019062001773919062003625565b905260a0880152505050505050919050565b6200178f62002d10565b600181525a6020820152620017a985858585600062001d9a565b6060820181905260408201525a81602001818151620017c9919062003b95565b905250949350505050565b600080620017e66020840184620030be565b620017f86040850160208601620030be565b674563918244f4000047111562001ac0576000826001600160a01b031663ad5c46486040518163ffffffff1660e01b815260040160206040518083038186803b1580156200184557600080fd5b505afa1580156200185a573d6000803e3d6000fd5b505050506040513d601f19601f82011682018060405250810190620018809190620030de565b6004549091506001600160a01b038083169163d0e30db091620018af91674563918244f4000091163162003b95565b6040518263ffffffff1660e01b81526004016000604051808303818588803b158015620018db57600080fd5b505af1158015620018f0573d6000803e3d6000fd5b5050505050806001600160a01b0316826001600160a01b0316141580156200199c5750600480546040516370a0823160e01b81526001600160a01b0391821692810192909252600091908316906370a082319060240160206040518083038186803b1580156200195f57600080fd5b505afa15801562001974573d6000803e3d6000fd5b505050506040513d601f19601f820116820180604052508101906200199a919062003625565b115b1562001abe57600480546040516370a0823160e01b81526001600160a01b0391821692810192909252309163bd6985459186918591879186918291908516906370a082319060240160206040518083038186803b158015620019fd57600080fd5b505afa15801562001a12573d6000803e3d6000fd5b505050506040513d601f19601f8201168201806040525081019062001a38919062003625565b60006040518863ffffffff1660e01b815260040162001a5e9796959493929190620038ad565b600060405180830381600087803b15801562001a7957600080fd5b505af192505050801562001ab157506040513d6000823e601f3d908101601f1916820160405262001aae919081019062003496565b60015b62001abc5762001abe565b505b505b600062001ad16020870187620030be565b6001600160a01b031663c45a01556040518163ffffffff1660e01b815260040160206040518083038186803b15801562001b0a57600080fd5b505afa15801562001b1f573d6000803e3d6000fd5b505050506040513d601f19601f8201168201806040525081019062001b459190620030de565b90506001600160a01b03811663e6a4390562001b686040890160208a01620030be565b62001b7a60608a0160408b01620030be565b6040516001600160e01b031960e085901b1681526001600160a01b0392831660048201529116602482015260440160206040518083038186803b15801562001bc157600080fd5b505afa15801562001bd6573d6000803e3d6000fd5b505050506040513d601f19601f8201168201806040525081019062001bfc9190620030de565b94506001600160a01b03851662001cc7576001600160a01b03811663c9c6539662001c2e6040890160208a01620030be565b62001c4060608a0160408b01620030be565b6040516001600160e01b031960e085901b1681526001600160a01b03928316600482015291166024820152604401602060405180830381600087803b15801562001c8957600080fd5b505af115801562001c9e573d6000803e3d6000fd5b505050506040513d601f19601f8201168201806040525081019062001cc49190620030de565b94505b62001cec62001cdd6040880160208901620030be565b30878960600135600062001d9a565b5062001d1262001d036060880160408901620030be565b32878960800135600062001d9a565b506040516335313c2160e11b81523060048201526001600160a01b03861690636a62784290602401602060405180830381600087803b15801562001d5557600080fd5b505af115801562001d6a573d6000803e3d6000fd5b505050506040513d601f19601f8201168201806040525081019062001d90919062003625565b9350505050915091565b62001da462002d5b565b8382801562001f7657600580546001600160a01b0319166001600160a01b03841690811790915560408051630240bc6b60e21b81529051630902f1ac91600480820192606092909190829003018186803b15801562001e0257600080fd5b505afa15801562001e17573d6000803e3d6000fd5b505050506040513d601f19601f8201168201806040525081019062001e3d9190620035cf565b506001600160701b0390811660085516600755600554604080516318160ddd60e01b815290516001600160a01b03909216916318160ddd91600480820192602092909190829003018186803b15801562001e9657600080fd5b505afa15801562001eab573d6000803e3d6000fd5b505050506040513d601f19601f8201168201806040525081019062001ed1919062003625565b60095560055460408051630dfe168160e01b815290516001600160a01b0390921691630dfe168191600480820192602092909190829003018186803b15801562001f1a57600080fd5b505afa15801562001f2f573d6000803e3d6000fd5b505050506040513d601f19601f8201168201806040525081019062001f559190620030de565b600680546001600160a01b0319166001600160a01b03929092169190911790555b60c083018590528762001f8b818988620029c9565b6001600160a01b039081168086526040516370a0823160e01b81526004810191909152908216906370a082319060240160206040518083038186803b15801562001fd457600080fd5b505afa15801562001fe9573d6000803e3d6000fd5b505050506040513d601f19601f820116820180604052508101906200200f919062003625565b60208501526001600160a01b03878116606086018190526040516370a0823160e01b81526004810191909152908216906370a082319060240160206040518083038186803b1580156200206157600080fd5b505afa15801562002076573d6000803e3d6000fd5b505050506040513d601f19601f820116820180604052508101906200209c919062003625565b60808501525a61014085015260045484516001600160a01b03908116911614156200218b5760405163a9059cbb60e01b81526001600160a01b0388811660048301526024820188905282169063a9059cbb90604401602060405180830381600087803b1580156200210c57600080fd5b505af115801562002121573d6000803e3d6000fd5b505050506040513d601f19601f82011682018060405250810190620021479190620033b2565b620021855760405162461bcd60e51b815260206004820152600d60248201526c1d1c985b9cd9995c8819985a5b609a1b604482015260640162000436565b6200225b565b6040516323b872dd60e01b81526001600160a01b0389811660048301528881166024830152604482018890528216906323b872dd90606401602060405180830381600087803b158015620021de57600080fd5b505af1158015620021f3573d6000803e3d6000fd5b505050506040513d601f19601f82011682018060405250810190620022199190620033b2565b6200225b5760405162461bcd60e51b81526020600482015260116024820152701d1c985b9cd9995c919c9bdb4819985a5b607a1b604482015260640162000436565b5a846101400181815162002270919062003b95565b9052506040516370a0823160e01b81526001600160a01b0388811660048301528216906370a082319060240160206040518083038186803b158015620022b557600080fd5b505afa158015620022ca573d6000803e3d6000fd5b505050506040513d601f19601f82011682018060405250810190620022f0919062003625565b60a085015283516040516370a0823160e01b81526001600160a01b039182166004820152908216906370a082319060240160206040518083038186803b1580156200233a57600080fd5b505afa1580156200234f573d6000803e3d6000fd5b505050506040513d601f19601f8201168201806040525081019062002375919062003625565b604085015284156200252f57600954600560009054906101000a90046001600160a01b03166001600160a01b03166318160ddd6040518163ffffffff1660e01b815260040160206040518083038186803b158015620023d357600080fd5b505afa158015620023e8573d6000803e3d6000fd5b505050506040513d601f19601f820116820180604052508101906200240e919062003625565b1161018085015260055460408051630240bc6b60e21b8152905160009283926001600160a01b0390911691630902f1ac91600480820192606092909190829003018186803b1580156200246057600080fd5b505afa15801562002475573d6000803e3d6000fd5b505050506040513d601f19601f820116820180604052508101906200249b9190620035cf565b506006546001600160701b039283169450911691506001600160a01b038c811691161415620024f857818660a00151620024d6919062003b95565b61010087015260085481106101a087015260075482106101c087015262002527565b808660a001516200250a919062003b95565b61010087015260075482106101a087015260085481106101c08701525b50506200254c565b83608001518460a0015162002545919062003b95565b6101008501525b604084015160208501510360e08501819052808703610120860152610100850151620025789162002c57565b610160850152508015620025a657600680546001600160a01b03191690556000600781905560088190556009555b505095945050505050565b620025bb62002d5b565b84600085156200264057816001600160a01b0316630dfe16816040518163ffffffff1660e01b815260040160206040518083038186803b158015620025ff57600080fd5b505afa15801562002614573d6000803e3d6000fd5b505050506040513d601f19601f820116820180604052508101906200263a9190620030de565b620026b5565b816001600160a01b031663d21220a76040518163ffffffff1660e01b815260040160206040518083038186803b1580156200267a57600080fd5b505afa1580156200268f573d6000803e3d6000fd5b505050506040513d601f19601f82011682018060405250810190620026b59190620030de565b90508515620026c55785620026c7565b845b60c08401526001600160a01b038781168085526040516370a0823160e01b81526004810191909152908216906370a082319060240160206040518083038186803b1580156200271557600080fd5b505afa1580156200272a573d6000803e3d6000fd5b505050506040513d601f19601f8201168201806040525081019062002750919062003625565b60208401526001600160a01b03848116606085018190526040516370a0823160e01b81526004810191909152908216906370a082319060240160206040518083038186803b158015620027a257600080fd5b505afa158015620027b7573d6000803e3d6000fd5b505050506040513d601f19601f82011682018060405250810190620027dd919062003625565b60808401525a6101408401526040805160008152602081019182905263022c0d9f60e01b9091526001600160a01b0383169063022c0d9f906200282a908990899089906024810162003a3f565b600060405180830381600087803b1580156200284557600080fd5b505af11580156200285a573d6000803e3d6000fd5b505050505a836101400181815162002873919062003b95565b9052506040516370a0823160e01b81526001600160a01b0388811660048301528216906370a082319060240160206040518083038186803b158015620028b857600080fd5b505afa158015620028cd573d6000803e3d6000fd5b505050506040513d601f19601f82011682018060405250810190620028f3919062003625565b604084810191909152516370a0823160e01b81526001600160a01b0385811660048301528216906370a082319060240160206040518083038186803b1580156200293c57600080fd5b505afa15801562002951573d6000803e3d6000fd5b505050506040513d601f19601f8201168201806040525081019062002977919062003625565b60a08401819052608084015190036101008401819052604084015160208501510360e0850181905260c0850151819003610120860152620029b9919062002c57565b6101608401525050949350505050565b6004546000906001600160a01b0384811691161415620029f657506004546001600160a01b031662002c50565b60048054604051636eb1769f60e11b81526001600160a01b03868116938201939093529082166024820152839186169063dd62ed3e9060440160206040518083038186803b15801562002a4857600080fd5b505afa15801562002a5d573d6000803e3d6000fd5b505050506040513d601f19601f8201168201806040525081019062002a83919062003625565b1015801562002b1057506040516370a0823160e01b81526001600160a01b0384811660048301528391908616906370a082319060240160206040518083038186803b15801562002ad257600080fd5b505afa15801562002ae7573d6000803e3d6000fd5b505050506040513d601f19601f8201168201806040525081019062002b0d919062003625565b10155b1562002b1e57508162002c50565b60048054604051636eb1769f60e11b815232928101929092526001600160a01b03908116602483015283919086169063dd62ed3e9060440160206040518083038186803b15801562002b6f57600080fd5b505afa15801562002b84573d6000803e3d6000fd5b505050506040513d601f19601f8201168201806040525081019062002baa919062003625565b1015801562002c3457506040516370a0823160e01b815232600482015282906001600160a01b038616906370a082319060240160206040518083038186803b15801562002bf657600080fd5b505afa15801562002c0b573d6000803e3d6000fd5b505050506040513d601f19601f8201168201806040525081019062002c31919062003625565b10155b1562002c4257503262002c50565b506004546001600160a01b03165b9392505050565b60008162002c685750600062002c94565b8162002c778461271062003b2e565b62002c83919062003b0b565b62002c919061271062003b50565b90505b92915050565b604051806101000160405280600081526020016000815260200162002cbe62002d10565b815260200162002ccd62002d10565b815260200162002cdc62002d10565b8152604080516060810182526000808252602082810182905292820152910190815260200160008152602001600081525090565b6040805160a0810182526000808252602082015290810162002d3162002d5b565b815260200162002d4062002d5b565b8152602001606081525090565b6102d18062003d4983390190565b604051806101e0016040528060006001600160a01b03168152602001600081526020016000815260200160006001600160a01b0316815260200160008152602001600081526020016000815260200160008152602001600081526020016000815260200160008152602001600081526020016000151581526020016000151581526020016000151581525090565b803562002df68162003d2f565b919050565b805162002df68162003d2f565b8051801515811462002df657600080fd5b600082601f83011262002e2b57600080fd5b81516001600160401b0381111562002e475762002e4762003c6d565b60405162002e60601f8301601f19166020018262003bde565b81815284602083860101111562002e7657600080fd5b62002e8982602083016020870162003baf565b949350505050565b60006060828403121562002ea457600080fd5b604051606081018181106001600160401b038211171562002ec95762002ec962003c6d565b8060405250809150825162002ede8162003d2f565b8082525060208301516020820152604083015160408201525092915050565b60006101e0828403121562002f1157600080fd5b62002f1b62003a78565b905062002f288262002dfb565b8152602082015160208201526040820151604082015262002f4c6060830162002dfb565b60608201526080820151608082015260a082015160a082015260c082015160c082015260e082015160e082015261010080830151818301525061012080830151818301525061014080830151818301525061016080830151818301525061018062002fb981840162002e08565b908201526101a062002fcd83820162002e08565b908201526101c062002fe183820162002e08565b9082015292915050565b6000610420828403121562002fff57600080fd5b60405160a081016001600160401b03828210818311171562003025576200302562003c6d565b8160405282935084519150600382106200303e57600080fd5b818352602085015160208401526200305a866040870162002efd565b60408401526200306f86610220870162002efd565b60608401526104008501519150808211156200308a57600080fd5b50620030998582860162002e19565b6080830152505092915050565b80516001600160701b038116811462002df657600080fd5b600060208284031215620030d157600080fd5b813562002c508162003d2f565b600060208284031215620030f157600080fd5b815162002c508162003d2f565b600080600080600080600060e0888a0312156200311a57600080fd5b8735620031278162003d2f565b96506020880135620031398162003d2f565b955060408801356200314b8162003d2f565b945060608801356200315d8162003d2f565b935060808801356200316f8162003d2f565b9699959850939692959460a0840135945060c09093013592915050565b60008060008060808587031215620031a357600080fd5b8435620031b08162003d2f565b93506020850135620031c28162003d2f565b92506040850135620031d48162003d2f565b9396929550929360600135925050565b60006020808385031215620031f857600080fd5b82356001600160401b038111156200320f57600080fd5b8301601f810185136200322157600080fd5b80356200322e8162003aca565b6040516200323d828262003bde565b8281528481019150838501600584901b850186018910156200325e57600080fd5b600094505b838510156200328e578035620032798162003d2f565b83526001949094019391850191850162003263565b50979650505050505050565b60008060208385031215620032ae57600080fd5b82356001600160401b0380821115620032c657600080fd5b818501915085601f830112620032db57600080fd5b813581811115620032eb57600080fd5b86602060e0830285010111156200330157600080fd5b60209290920196919550909350505050565b600060208083850312156200332757600080fd5b82516001600160401b038111156200333e57600080fd5b8301601f810185136200335057600080fd5b80516200335d8162003aca565b6040516200336c828262003bde565b8281528481019150838501600584901b850186018910156200338d57600080fd5b600094505b838510156200328e57805183526001949094019391850191850162003392565b600060208284031215620033c557600080fd5b62002c918262002e08565b600060a08284031215620033e357600080fd5b50919050565b600060e08284031215620033fc57600080fd5b60405160e081018181106001600160401b038211171562003421576200342162003c6d565b6040528235620034318162003d2f565b81526020830135620034438162003d2f565b6020820152620034566040840162002de9565b6040820152620034696060840162002de9565b60608201526080830135608082015260a083013560a082015260c083013560c08201528091505092915050565b600060208284031215620034a957600080fd5b81516001600160401b03811115620034c057600080fd5b62002e898482850162002feb565b600060208284031215620034e157600080fd5b81516001600160401b0380821115620034f957600080fd5b9083019061014082860312156200350f57600080fd5b6200351962003aa4565b82518152602083015160208201526040830151828111156200353a57600080fd5b620035488782860162002feb565b6040830152506060830151828111156200356157600080fd5b6200356f8782860162002feb565b6060830152506080830151828111156200358857600080fd5b620035968782860162002feb565b608083015250620035ab8660a0850162002e91565b60a082015261010083015160c08201526101209092015160e0830152509392505050565b600080600060608486031215620035e557600080fd5b620035f084620030a6565b92506200360060208501620030a6565b9150604084015163ffffffff811681146200361a57600080fd5b809150509250925092565b6000602082840312156200363857600080fd5b5051919050565b600081518084526020808501945080840160005b838110156200367a5781516001600160a01b03168752958201959082019060010162003653565b509495945050505050565b600081518084526200369f81602086016020860162003baf565b601f01601f19169290920160200192915050565b80516001600160a01b0316825260208101516020830152604081015160408301526060810151620036ef60608401826001600160a01b03169052565b506080818101519083015260a0808201519083015260c0808201519083015260e080820151908301526101008082015190830152610120808201519083015261014080820151908301526101608082015190830152610180808201511515908301526101a0808201511515908301526101c080820151801515828501525b50505050565b60006104208251600381106200379957634e487b7160e01b600052602160045260246000fd5b80855250602083015160208501526040830151620037bb6040860182620036b3565b506060830151620037d1610220860182620036b3565b50608083015181610400860152620037ec8286018262003685565b95945050505050565b600061014082518452602083015160208501526040830151816040860152620038218286018262003773565b915050606083015184820360608601526200383d828262003773565b9150506080830151848203608086015262003859828262003773565b91505060a08301516200388c60a086018280516001600160a01b0316825260208082015190830152604090810151910152565b5060c083015161010085015260e08301516101208501528091505092915050565b6001600160a01b039788168152958716602087015293861660408601529185166060850152909316608083015260a082019290925260c081019190915260e00190565b60208152600062002c9160208301846200363f565b6000602080830181845280855180835260408601915060408160051b870101925083870160005b828110156200395e57603f198886030184526200394b858351620037f5565b945092850192908501906001016200392c565b5092979650505050505050565b60e0810182356200397c8162003d2f565b6001600160a01b0390811683526020840135906200399a8262003d2f565b9081166020840152604084013590620039b38262003d2f565b9081166040840152606084013590620039cc8262003d2f565b808216606085015250506080830135608083015260a083013560a083015260c083013560c083015292915050565b60208152600062002c91602083018462003773565b60208152600062002c916020830184620037f5565b82815260406020820152600062002e8960408301846200363f565b84815283602082015260018060a01b038316604082015260806060820152600062003a6e608083018462003685565b9695505050505050565b6040516101e081016001600160401b038111828210171562003a9e5762003a9e62003c6d565b60405290565b60405161010081016001600160401b038111828210171562003a9e5762003a9e62003c6d565b60006001600160401b0382111562003ae65762003ae662003c6d565b5060051b60200190565b6000821982111562003b065762003b0662003c2b565b500190565b60008262003b2957634e487b7160e01b600052601260045260246000fd5b500490565b600081600019048311821515161562003b4b5762003b4b62003c2b565b500290565b60008083128015600160ff1b85018412161562003b715762003b7162003c2b565b6001600160ff1b038401831381161562003b8f5762003b8f62003c2b565b50500390565b60008282101562003baa5762003baa62003c2b565b500390565b60005b8381101562003bcc57818101518382015260200162003bb2565b838111156200376d5750506000910152565b601f8201601f191681016001600160401b038111828210171562003c065762003c0662003c6d565b6040525050565b600060001982141562003c245762003c2462003c2b565b5060010190565b634e487b7160e01b600052601160045260246000fd5b634e487b7160e01b600052602160045260246000fd5b634e487b7160e01b600052603260045260246000fd5b634e487b7160e01b600052604160045260246000fd5b600060033d111562003c9d5760046000803e5060005160e01c5b90565b600060443d101562003caf5790565b6040516003193d81016004833e81513d6001600160401b03816024840111818411171562003cdf57505050505090565b828501915081518181111562003cf85750505050505090565b843d870101602082850101111562003d135750505050505090565b62003d246020828601018762003bde565b509095945050505050565b6001600160a01b038116811462003d4557600080fd5b5056fe608060405234801561001057600080fd5b506040516102d13803806102d183398101604081905261002f91610110565b60005b81518110156100ed5781818151811061004d5761004d61022d565b602090810291909101015160405163095ea7b360e01b815233600482015260001960248201526001600160a01b039091169063095ea7b390604401602060405180830381600087803b1580156100a257600080fd5b505af11580156100b6573d6000803e3d6000fd5b505050506040513d601f19601f820116820180604052508101906100da91906101db565b50806100e581610204565b915050610032565b5050610259565b80516001600160a01b038116811461010b57600080fd5b919050565b6000602080838503121561012357600080fd5b82516001600160401b038082111561013a57600080fd5b818501915085601f83011261014e57600080fd5b81518181111561016057610160610243565b8060051b604051601f19603f8301168101818110858211171561018557610185610243565b604052828152858101935084860182860187018a10156101a457600080fd5b600095505b838610156101ce576101ba816100f4565b8552600195909501949386019386016101a9565b5098975050505050505050565b6000602082840312156101ed57600080fd5b815180151581146101fd57600080fd5b9392505050565b600060001982141561022657634e487b7160e01b600052601160045260246000fd5b5060010190565b634e487b7160e01b600052603260045260246000fd5b634e487b7160e01b600052604160045260246000fd5b606a806102676000396000f3fe6080604052348015600f57600080fd5b506004361060285760003560e01c806341c0e1b514602d575b600080fd5b603233ff5b00fea2646970667358221220105d1796fad177ccaeb6e721b41e8ae1e5dc8478fee96e32d9ee8e551d8832f464736f6c63430008070033d24646079e049d40989a6ef1838fece81cad58640453288addf8b6e5e0b475dba26469706673582212202279754e79ecb4d9099499ef25173761ebc554bcd3823269e3f201f2a226028c64736f6c63430008070033",
      "opcodes": "PUSH1 0x80 PUSH1 0x40 MSTORE PUSH1 0x0 DUP1 DUP1 SSTORE PUSH1 0x1 DUP2 SWAP1 SSTORE PUSH1 0x2 SSTORE PUSH1 0x4 DUP1 SLOAD PUSH1 0x1 PUSH1 0x1 PUSH1 0xA0 SHL SUB NOT AND ADDRESS OR SWAP1 SSTORE PUSH2 0x406F DUP1 PUSH2 0x32 PUSH1 0x0 CODECOPY PUSH1 0x0 RETURN INVALID PUSH1 0x80 PUSH1 0x40 MSTORE PUSH1 0x4 CALLDATASIZE LT PUSH3 0x60 JUMPI PUSH1 0x0 CALLDATALOAD PUSH1 0xE0 SHR DUP1 PUSH4 0x59EC6006 EQ PUSH3 0x6D JUMPI DUP1 PUSH4 0xBD698545 EQ PUSH3 0x9C JUMPI DUP1 PUSH4 0xC929122D EQ PUSH3 0xD0 JUMPI DUP1 PUSH4 0xE6952DDD EQ PUSH3 0x10E JUMPI DUP1 PUSH4 0xF18D03CC EQ PUSH3 0x134 JUMPI DUP1 PUSH4 0xF84419B1 EQ PUSH3 0x159 JUMPI PUSH1 0x0 DUP1 REVERT JUMPDEST CALLDATASIZE PUSH3 0x68 JUMPI STOP JUMPDEST PUSH1 0x0 DUP1 REVERT JUMPDEST PUSH3 0x84 PUSH3 0x7E CALLDATASIZE PUSH1 0x4 PUSH3 0x329A JUMP JUMPDEST PUSH3 0x190 JUMP JUMPDEST PUSH1 0x40 MLOAD PUSH3 0x93 SWAP2 SWAP1 PUSH3 0x3905 JUMP JUMPDEST PUSH1 0x40 MLOAD DUP1 SWAP2 SUB SWAP1 RETURN JUMPDEST CALLVALUE DUP1 ISZERO PUSH3 0xA9 JUMPI PUSH1 0x0 DUP1 REVERT JUMPDEST POP PUSH3 0xC1 PUSH3 0xBB CALLDATASIZE PUSH1 0x4 PUSH3 0x30FE JUMP JUMPDEST PUSH3 0x2D5 JUMP JUMPDEST PUSH1 0x40 MLOAD PUSH3 0x93 SWAP2 SWAP1 PUSH3 0x39FA JUMP JUMPDEST CALLVALUE DUP1 ISZERO PUSH3 0xDD JUMPI PUSH1 0x0 DUP1 REVERT JUMPDEST POP PUSH3 0xF5 PUSH3 0xEF CALLDATASIZE PUSH1 0x4 PUSH3 0x31E4 JUMP JUMPDEST PUSH3 0x967 JUMP JUMPDEST PUSH1 0x40 MLOAD PUSH1 0x1 PUSH1 0x1 PUSH1 0xA0 SHL SUB SWAP1 SWAP2 AND DUP2 MSTORE PUSH1 0x20 ADD PUSH3 0x93 JUMP JUMPDEST PUSH3 0x125 PUSH3 0x11F CALLDATASIZE PUSH1 0x4 PUSH3 0x33E9 JUMP JUMPDEST PUSH3 0xA4C JUMP JUMPDEST PUSH1 0x40 MLOAD PUSH3 0x93 SWAP2 SWAP1 PUSH3 0x3A0F JUMP JUMPDEST CALLVALUE DUP1 ISZERO PUSH3 0x141 JUMPI PUSH1 0x0 DUP1 REVERT JUMPDEST POP PUSH3 0xC1 PUSH3 0x153 CALLDATASIZE PUSH1 0x4 PUSH3 0x318C JUMP JUMPDEST PUSH3 0x1785 JUMP JUMPDEST PUSH3 0x170 PUSH3 0x16A CALLDATASIZE PUSH1 0x4 PUSH3 0x33D0 JUMP JUMPDEST PUSH3 0x17D4 JUMP JUMPDEST PUSH1 0x40 DUP1 MLOAD PUSH1 0x1 PUSH1 0x1 PUSH1 0xA0 SHL SUB SWAP1 SWAP4 AND DUP4 MSTORE PUSH1 0x20 DUP4 ADD SWAP2 SWAP1 SWAP2 MSTORE ADD PUSH3 0x93 JUMP JUMPDEST PUSH1 0x60 DUP2 PUSH1 0x1 PUSH1 0x1 PUSH1 0x40 SHL SUB DUP2 GT ISZERO PUSH3 0x1AD JUMPI PUSH3 0x1AD PUSH3 0x3C6D JUMP JUMPDEST PUSH1 0x40 MLOAD SWAP1 DUP1 DUP3 MSTORE DUP1 PUSH1 0x20 MUL PUSH1 0x20 ADD DUP3 ADD PUSH1 0x40 MSTORE DUP1 ISZERO PUSH3 0x1EA JUMPI DUP2 PUSH1 0x20 ADD JUMPDEST PUSH3 0x1D6 PUSH3 0x2C9A JUMP JUMPDEST DUP2 MSTORE PUSH1 0x20 ADD SWAP1 PUSH1 0x1 SWAP1 SUB SWAP1 DUP2 PUSH3 0x1CC JUMPI SWAP1 POP JUMPDEST POP SWAP1 POP PUSH1 0x0 JUMPDEST DUP3 DUP2 LT ISZERO PUSH3 0x2CE JUMPI ADDRESS PUSH4 0xE6952DDD DUP6 DUP6 DUP5 DUP2 DUP2 LT PUSH3 0x214 JUMPI PUSH3 0x214 PUSH3 0x3C57 JUMP JUMPDEST SWAP1 POP PUSH1 0xE0 MUL ADD PUSH1 0x40 MLOAD DUP3 PUSH4 0xFFFFFFFF AND PUSH1 0xE0 SHL DUP2 MSTORE PUSH1 0x4 ADD PUSH3 0x238 SWAP2 SWAP1 PUSH3 0x396B JUMP JUMPDEST PUSH1 0x0 PUSH1 0x40 MLOAD DUP1 DUP4 SUB DUP2 PUSH1 0x0 DUP8 DUP1 EXTCODESIZE ISZERO DUP1 ISZERO PUSH3 0x253 JUMPI PUSH1 0x0 DUP1 REVERT JUMPDEST POP GAS CALL SWAP3 POP POP POP DUP1 ISZERO PUSH3 0x28B JUMPI POP PUSH1 0x40 MLOAD RETURNDATASIZE PUSH1 0x0 DUP3 RETURNDATACOPY PUSH1 0x1F RETURNDATASIZE SWAP1 DUP2 ADD PUSH1 0x1F NOT AND DUP3 ADD PUSH1 0x40 MSTORE PUSH3 0x288 SWAP2 SWAP1 DUP2 ADD SWAP1 PUSH3 0x34CE JUMP JUMPDEST PUSH1 0x1 JUMPDEST PUSH3 0x296 JUMPI PUSH3 0x2B9 JUMP JUMPDEST DUP1 DUP4 DUP4 DUP2 MLOAD DUP2 LT PUSH3 0x2AC JUMPI PUSH3 0x2AC PUSH3 0x3C57 JUMP JUMPDEST PUSH1 0x20 MUL PUSH1 0x20 ADD ADD DUP2 SWAP1 MSTORE POP POP JUMPDEST DUP1 PUSH3 0x2C5 DUP2 PUSH3 0x3C0D JUMP JUMPDEST SWAP2 POP POP PUSH3 0x1F0 JUMP JUMPDEST POP SWAP3 SWAP2 POP POP JUMP JUMPDEST PUSH3 0x2DF PUSH3 0x2D10 JUMP JUMPDEST PUSH1 0x1 DUP2 MSTORE GAS DUP2 PUSH1 0x20 ADD DUP2 DUP2 MSTORE POP POP PUSH1 0x0 DUP9 PUSH1 0x1 PUSH1 0x1 PUSH1 0xA0 SHL SUB AND PUSH4 0xC45A0155 PUSH1 0x40 MLOAD DUP2 PUSH4 0xFFFFFFFF AND PUSH1 0xE0 SHL DUP2 MSTORE PUSH1 0x4 ADD PUSH1 0x20 PUSH1 0x40 MLOAD DUP1 DUP4 SUB DUP2 DUP7 DUP1 EXTCODESIZE ISZERO DUP1 ISZERO PUSH3 0x329 JUMPI PUSH1 0x0 DUP1 REVERT JUMPDEST POP GAS STATICCALL ISZERO DUP1 ISZERO PUSH3 0x33E JUMPI RETURNDATASIZE PUSH1 0x0 DUP1 RETURNDATACOPY RETURNDATASIZE PUSH1 0x0 REVERT JUMPDEST POP POP POP POP PUSH1 0x40 MLOAD RETURNDATASIZE PUSH1 0x1F NOT PUSH1 0x1F DUP3 ADD AND DUP3 ADD DUP1 PUSH1 0x40 MSTORE POP DUP2 ADD SWAP1 PUSH3 0x364 SWAP2 SWAP1 PUSH3 0x30DE JUMP JUMPDEST PUSH1 0x40 MLOAD PUSH4 0xE6A43905 PUSH1 0xE0 SHL DUP2 MSTORE PUSH1 0x1 PUSH1 0x1 PUSH1 0xA0 SHL SUB DUP11 DUP2 AND PUSH1 0x4 DUP4 ADD MSTORE DUP10 DUP2 AND PUSH1 0x24 DUP4 ADD MSTORE SWAP2 SWAP1 SWAP2 AND SWAP1 PUSH4 0xE6A43905 SWAP1 PUSH1 0x44 ADD PUSH1 0x20 PUSH1 0x40 MLOAD DUP1 DUP4 SUB DUP2 DUP7 DUP1 EXTCODESIZE ISZERO DUP1 ISZERO PUSH3 0x3B0 JUMPI PUSH1 0x0 DUP1 REVERT JUMPDEST POP GAS STATICCALL ISZERO DUP1 ISZERO PUSH3 0x3C5 JUMPI RETURNDATASIZE PUSH1 0x0 DUP1 RETURNDATACOPY RETURNDATASIZE PUSH1 0x0 REVERT JUMPDEST POP POP POP POP PUSH1 0x40 MLOAD RETURNDATASIZE PUSH1 0x1F NOT PUSH1 0x1F DUP3 ADD AND DUP3 ADD DUP1 PUSH1 0x40 MSTORE POP DUP2 ADD SWAP1 PUSH3 0x3EB SWAP2 SWAP1 PUSH3 0x30DE JUMP JUMPDEST SWAP1 POP PUSH1 0x1 PUSH1 0x1 PUSH1 0xA0 SHL SUB DUP2 AND PUSH3 0x43F JUMPI PUSH1 0x40 MLOAD PUSH3 0x461BCD PUSH1 0xE5 SHL DUP2 MSTORE PUSH1 0x20 PUSH1 0x4 DUP3 ADD MSTORE PUSH1 0x13 PUSH1 0x24 DUP3 ADD MSTORE PUSH19 0x1C1BDBDB08191BD95CC81B9BDD08195E1A5CDD PUSH1 0x6A SHL PUSH1 0x44 DUP3 ADD MSTORE PUSH1 0x64 ADD JUMPDEST PUSH1 0x40 MLOAD DUP1 SWAP2 SUB SWAP1 REVERT JUMPDEST PUSH1 0x40 DUP1 MLOAD PUSH1 0x2 DUP1 DUP3 MSTORE PUSH1 0x60 DUP3 ADD DUP4 MSTORE DUP4 SWAP3 DUP12 SWAP3 PUSH1 0x0 SWAP3 SWAP1 SWAP2 PUSH1 0x20 DUP4 ADD SWAP1 DUP1 CALLDATASIZE DUP4 CALLDATACOPY ADD SWAP1 POP POP SWAP1 POP DUP11 DUP2 PUSH1 0x0 DUP2 MLOAD DUP2 LT PUSH3 0x47D JUMPI PUSH3 0x47D PUSH3 0x3C57 JUMP JUMPDEST PUSH1 0x20 MUL PUSH1 0x20 ADD ADD SWAP1 PUSH1 0x1 PUSH1 0x1 PUSH1 0xA0 SHL SUB AND SWAP1 DUP2 PUSH1 0x1 PUSH1 0x1 PUSH1 0xA0 SHL SUB AND DUP2 MSTORE POP POP DUP10 DUP2 PUSH1 0x1 DUP2 MLOAD DUP2 LT PUSH3 0x4B4 JUMPI PUSH3 0x4B4 PUSH3 0x3C57 JUMP JUMPDEST PUSH1 0x1 PUSH1 0x1 PUSH1 0xA0 SHL SUB SWAP1 SWAP3 AND PUSH1 0x20 SWAP3 DUP4 MUL SWAP2 SWAP1 SWAP2 ADD SWAP1 SWAP2 ADD MSTORE DUP7 ISZERO DUP1 ISZERO PUSH3 0x4DA JUMPI POP DUP6 ISZERO ISZERO JUMPDEST ISZERO PUSH3 0x588 JUMPI PUSH1 0x40 MLOAD PUSH4 0x7C0329D PUSH1 0xE2 SHL DUP2 MSTORE PUSH1 0x1 PUSH1 0x1 PUSH1 0xA0 SHL SUB DUP14 AND SWAP1 PUSH4 0x1F00CA74 SWAP1 PUSH3 0x510 SWAP1 DUP10 SWAP1 DUP6 SWAP1 PUSH1 0x4 ADD PUSH3 0x3A24 JUMP JUMPDEST PUSH1 0x0 PUSH1 0x40 MLOAD DUP1 DUP4 SUB DUP2 DUP7 DUP1 EXTCODESIZE ISZERO DUP1 ISZERO PUSH3 0x529 JUMPI PUSH1 0x0 DUP1 REVERT JUMPDEST POP GAS STATICCALL ISZERO DUP1 ISZERO PUSH3 0x53E JUMPI RETURNDATASIZE PUSH1 0x0 DUP1 RETURNDATACOPY RETURNDATASIZE PUSH1 0x0 REVERT JUMPDEST POP POP POP POP PUSH1 0x40 MLOAD RETURNDATASIZE PUSH1 0x0 DUP3 RETURNDATACOPY PUSH1 0x1F RETURNDATASIZE SWAP1 DUP2 ADD PUSH1 0x1F NOT AND DUP3 ADD PUSH1 0x40 MSTORE PUSH3 0x568 SWAP2 SWAP1 DUP2 ADD SWAP1 PUSH3 0x3313 JUMP JUMPDEST PUSH1 0x0 DUP2 MLOAD DUP2 LT PUSH3 0x57D JUMPI PUSH3 0x57D PUSH3 0x3C57 JUMP JUMPDEST PUSH1 0x20 MUL PUSH1 0x20 ADD ADD MLOAD SWAP7 POP JUMPDEST PUSH1 0x0 DUP8 GT PUSH3 0x5D0 JUMPI PUSH1 0x40 MLOAD PUSH3 0x461BCD PUSH1 0xE5 SHL DUP2 MSTORE PUSH1 0x20 PUSH1 0x4 DUP3 ADD MSTORE PUSH1 0x13 PUSH1 0x24 DUP3 ADD MSTORE PUSH19 0x746F6B656E496E206E6F74206265207A65726F PUSH1 0x68 SHL PUSH1 0x44 DUP3 ADD MSTORE PUSH1 0x64 ADD PUSH3 0x436 JUMP JUMPDEST PUSH1 0x40 MLOAD PUSH4 0x70A08231 PUSH1 0xE0 SHL DUP2 MSTORE PUSH1 0x1 PUSH1 0x1 PUSH1 0xA0 SHL SUB DUP6 DUP2 AND PUSH1 0x4 DUP4 ADD MSTORE PUSH2 0x2710 SWAP2 SWAP1 DUP5 AND SWAP1 PUSH4 0x70A08231 SWAP1 PUSH1 0x24 ADD PUSH1 0x20 PUSH1 0x40 MLOAD DUP1 DUP4 SUB DUP2 DUP7 DUP1 EXTCODESIZE ISZERO DUP1 ISZERO PUSH3 0x617 JUMPI PUSH1 0x0 DUP1 REVERT JUMPDEST POP GAS STATICCALL ISZERO DUP1 ISZERO PUSH3 0x62C JUMPI RETURNDATASIZE PUSH1 0x0 DUP1 RETURNDATACOPY RETURNDATASIZE PUSH1 0x0 REVERT JUMPDEST POP POP POP POP PUSH1 0x40 MLOAD RETURNDATASIZE PUSH1 0x1F NOT PUSH1 0x1F DUP3 ADD AND DUP3 ADD DUP1 PUSH1 0x40 MSTORE POP DUP2 ADD SWAP1 PUSH3 0x652 SWAP2 SWAP1 PUSH3 0x3625 JUMP JUMPDEST PUSH3 0x660 SWAP1 PUSH2 0x270F PUSH3 0x3B2E JUMP JUMPDEST PUSH3 0x66C SWAP2 SWAP1 PUSH3 0x3B0B JUMP JUMPDEST DUP8 GT ISZERO PUSH3 0x713 JUMPI PUSH1 0x40 MLOAD PUSH4 0x70A08231 PUSH1 0xE0 SHL DUP2 MSTORE PUSH1 0x1 PUSH1 0x1 PUSH1 0xA0 SHL SUB DUP6 DUP2 AND PUSH1 0x4 DUP4 ADD MSTORE PUSH2 0x2710 SWAP2 SWAP1 DUP5 AND SWAP1 PUSH4 0x70A08231 SWAP1 PUSH1 0x24 ADD PUSH1 0x20 PUSH1 0x40 MLOAD DUP1 DUP4 SUB DUP2 DUP7 DUP1 EXTCODESIZE ISZERO DUP1 ISZERO PUSH3 0x6BB JUMPI PUSH1 0x0 DUP1 REVERT JUMPDEST POP GAS STATICCALL ISZERO DUP1 ISZERO PUSH3 0x6D0 JUMPI RETURNDATASIZE PUSH1 0x0 DUP1 RETURNDATACOPY RETURNDATASIZE PUSH1 0x0 REVERT JUMPDEST POP POP POP POP PUSH1 0x40 MLOAD RETURNDATASIZE PUSH1 0x1F NOT PUSH1 0x1F DUP3 ADD AND DUP3 ADD DUP1 PUSH1 0x40 MSTORE POP DUP2 ADD SWAP1 PUSH3 0x6F6 SWAP2 SWAP1 PUSH3 0x3625 JUMP JUMPDEST PUSH3 0x704 SWAP1 PUSH2 0x270F PUSH3 0x3B2E JUMP JUMPDEST PUSH3 0x710 SWAP2 SWAP1 PUSH3 0x3B0B JUMP JUMPDEST SWAP7 POP JUMPDEST PUSH3 0x723 DUP12 DUP11 DUP7 DUP11 PUSH1 0x1 PUSH3 0x1D9A JUMP JUMPDEST DUP6 PUSH1 0x40 ADD DUP2 SWAP1 MSTORE POP PUSH1 0x0 DUP1 DUP13 PUSH1 0x1 PUSH1 0x1 PUSH1 0xA0 SHL SUB AND DUP6 PUSH1 0x1 PUSH1 0x1 PUSH1 0xA0 SHL SUB AND PUSH4 0xDFE1681 PUSH1 0x40 MLOAD DUP2 PUSH4 0xFFFFFFFF AND PUSH1 0xE0 SHL DUP2 MSTORE PUSH1 0x4 ADD PUSH1 0x20 PUSH1 0x40 MLOAD DUP1 DUP4 SUB DUP2 DUP7 DUP1 EXTCODESIZE ISZERO DUP1 ISZERO PUSH3 0x772 JUMPI PUSH1 0x0 DUP1 REVERT JUMPDEST POP GAS STATICCALL ISZERO DUP1 ISZERO PUSH3 0x787 JUMPI RETURNDATASIZE PUSH1 0x0 DUP1 RETURNDATACOPY RETURNDATASIZE PUSH1 0x0 REVERT JUMPDEST POP POP POP POP PUSH1 0x40 MLOAD RETURNDATASIZE PUSH1 0x1F NOT PUSH1 0x1F DUP3 ADD AND DUP3 ADD DUP1 PUSH1 0x40 MSTORE POP DUP2 ADD SWAP1 PUSH3 0x7AD SWAP2 SWAP1 PUSH3 0x30DE JUMP JUMPDEST PUSH1 0x1 PUSH1 0x1 PUSH1 0xA0 SHL SUB AND EQ ISZERO PUSH3 0x877 JUMPI DUP14 PUSH1 0x1 PUSH1 0x1 PUSH1 0xA0 SHL SUB AND PUSH4 0xD06CA61F DUP9 PUSH1 0x40 ADD MLOAD PUSH2 0x100 ADD MLOAD DUP6 PUSH1 0x40 MLOAD DUP4 PUSH4 0xFFFFFFFF AND PUSH1 0xE0 SHL DUP2 MSTORE PUSH1 0x4 ADD PUSH3 0x7F6 SWAP3 SWAP2 SWAP1 PUSH3 0x3A24 JUMP JUMPDEST PUSH1 0x0 PUSH1 0x40 MLOAD DUP1 DUP4 SUB DUP2 DUP7 DUP1 EXTCODESIZE ISZERO DUP1 ISZERO PUSH3 0x80F JUMPI PUSH1 0x0 DUP1 REVERT JUMPDEST POP GAS STATICCALL ISZERO DUP1 ISZERO PUSH3 0x824 JUMPI RETURNDATASIZE PUSH1 0x0 DUP1 RETURNDATACOPY RETURNDATASIZE PUSH1 0x0 REVERT JUMPDEST POP POP POP POP PUSH1 0x40 MLOAD RETURNDATASIZE PUSH1 0x0 DUP3 RETURNDATACOPY PUSH1 0x1F RETURNDATASIZE SWAP1 DUP2 ADD PUSH1 0x1F NOT AND DUP3 ADD PUSH1 0x40 MSTORE PUSH3 0x84E SWAP2 SWAP1 DUP2 ADD SWAP1 PUSH3 0x3313 JUMP JUMPDEST PUSH1 0x1 DUP2 MLOAD DUP2 LT PUSH3 0x863 JUMPI PUSH3 0x863 PUSH3 0x3C57 JUMP JUMPDEST PUSH1 0x20 MUL PUSH1 0x20 ADD ADD MLOAD SWAP2 POP PUSH1 0x0 SWAP1 POP PUSH3 0x92C JUMP JUMPDEST DUP14 PUSH1 0x1 PUSH1 0x1 PUSH1 0xA0 SHL SUB AND PUSH4 0xD06CA61F DUP9 PUSH1 0x40 ADD MLOAD PUSH2 0x100 ADD MLOAD DUP6 PUSH1 0x40 MLOAD DUP4 PUSH4 0xFFFFFFFF AND PUSH1 0xE0 SHL DUP2 MSTORE PUSH1 0x4 ADD PUSH3 0x8B0 SWAP3 SWAP2 SWAP1 PUSH3 0x3A24 JUMP JUMPDEST PUSH1 0x0 PUSH1 0x40 MLOAD DUP1 DUP4 SUB DUP2 DUP7 DUP1 EXTCODESIZE ISZERO DUP1 ISZERO PUSH3 0x8C9 JUMPI PUSH1 0x0 DUP1 REVERT JUMPDEST POP GAS STATICCALL ISZERO DUP1 ISZERO PUSH3 0x8DE JUMPI RETURNDATASIZE PUSH1 0x0 DUP1 RETURNDATACOPY RETURNDATASIZE PUSH1 0x0 REVERT JUMPDEST POP POP POP POP PUSH1 0x40 MLOAD RETURNDATASIZE PUSH1 0x0 DUP3 RETURNDATACOPY PUSH1 0x1F RETURNDATASIZE SWAP1 DUP2 ADD PUSH1 0x1F NOT AND DUP3 ADD PUSH1 0x40 MSTORE PUSH3 0x908 SWAP2 SWAP1 DUP2 ADD SWAP1 PUSH3 0x3313 JUMP JUMPDEST PUSH1 0x1 DUP2 MLOAD DUP2 LT PUSH3 0x91D JUMPI PUSH3 0x91D PUSH3 0x3C57 JUMP JUMPDEST PUSH1 0x20 MUL PUSH1 0x20 ADD ADD MLOAD SWAP1 POP PUSH1 0x0 SWAP2 POP JUMPDEST PUSH3 0x93A DUP7 DUP3 DUP5 DUP14 PUSH3 0x25B1 JUMP JUMPDEST PUSH1 0x60 DUP9 ADD MSTORE GAS DUP8 PUSH1 0x20 ADD DUP2 DUP2 MLOAD PUSH3 0x953 SWAP2 SWAP1 PUSH3 0x3B95 JUMP JUMPDEST SWAP1 MSTORE POP POP POP POP POP POP POP SWAP8 SWAP7 POP POP POP POP POP POP POP JUMP JUMPDEST PUSH1 0x0 DUP1 DUP3 PUSH1 0x40 MLOAD PUSH3 0x979 SWAP1 PUSH3 0x2D4D JUMP JUMPDEST PUSH3 0x985 SWAP2 SWAP1 PUSH3 0x38F0 JUMP JUMPDEST PUSH1 0x40 MLOAD DUP1 SWAP2 SUB SWAP1 PUSH1 0x0 CREATE DUP1 ISZERO DUP1 ISZERO PUSH3 0x9A2 JUMPI RETURNDATASIZE PUSH1 0x0 DUP1 RETURNDATACOPY RETURNDATASIZE PUSH1 0x0 REVERT JUMPDEST POP SWAP1 POP DUP1 PUSH1 0x1 PUSH1 0x1 PUSH1 0xA0 SHL SUB AND PUSH4 0x41C0E1B5 PUSH1 0x40 MLOAD DUP2 PUSH4 0xFFFFFFFF AND PUSH1 0xE0 SHL DUP2 MSTORE PUSH1 0x4 ADD PUSH1 0x0 PUSH1 0x40 MLOAD DUP1 DUP4 SUB DUP2 PUSH1 0x0 DUP8 DUP1 EXTCODESIZE ISZERO DUP1 ISZERO PUSH3 0x9E1 JUMPI PUSH1 0x0 DUP1 REVERT JUMPDEST POP GAS CALL ISZERO DUP1 ISZERO PUSH3 0x9F6 JUMPI RETURNDATASIZE PUSH1 0x0 DUP1 RETURNDATACOPY RETURNDATASIZE PUSH1 0x0 REVERT JUMPDEST POP POP PUSH1 0x3 DUP1 SLOAD PUSH1 0x1 DUP2 ADD DUP3 SSTORE PUSH1 0x0 SWAP2 SWAP1 SWAP2 MSTORE PUSH32 0xC2575A0E9E593C00F959F8C92F12DB2869C3395A3B0502D05E2516446F71F85B ADD DUP1 SLOAD PUSH1 0x1 PUSH1 0x1 PUSH1 0xA0 SHL SUB NOT AND PUSH1 0x1 PUSH1 0x1 PUSH1 0xA0 SHL SUB DUP6 AND OR SWAP1 SSTORE POP SWAP1 SWAP4 SWAP3 POP POP POP JUMP JUMPDEST PUSH3 0xA56 PUSH3 0x2C9A JUMP JUMPDEST DUP2 PUSH1 0x1 SLOAD NUMBER GT ISZERO PUSH3 0xA86 JUMPI NUMBER PUSH1 0x1 SWAP1 DUP2 SSTORE PUSH1 0x0 PUSH1 0x2 DUP2 SWAP1 SSTORE DUP1 SLOAD DUP2 SWAP1 PUSH3 0xA80 SWAP1 DUP5 SWAP1 PUSH3 0x3AF0 JUMP JUMPDEST SWAP1 SWAP2 SSTORE POP POP JUMPDEST PUSH1 0x1 PUSH1 0x2 PUSH1 0x0 DUP3 DUP3 SLOAD PUSH3 0xA9B SWAP2 SWAP1 PUSH3 0x3AF0 JUMP JUMPDEST SWAP1 SWAP2 SSTORE POP POP PUSH1 0x60 DUP2 ADD MLOAD PUSH1 0x1 PUSH1 0x1 PUSH1 0xA0 SHL SUB AND PUSH1 0x1 EQ ISZERO PUSH3 0xB6E JUMPI PUSH1 0x40 DUP1 MLOAD PUSH1 0x2 DUP1 DUP3 MSTORE PUSH1 0x60 DUP3 ADD DUP4 MSTORE PUSH1 0x0 SWAP3 PUSH1 0x20 DUP4 ADD SWAP1 DUP1 CALLDATASIZE DUP4 CALLDATACOPY ADD SWAP1 POP POP SWAP1 POP DUP2 PUSH1 0x20 ADD MLOAD DUP2 PUSH1 0x0 DUP2 MLOAD DUP2 LT PUSH3 0xAF3 JUMPI PUSH3 0xAF3 PUSH3 0x3C57 JUMP JUMPDEST PUSH1 0x20 MUL PUSH1 0x20 ADD ADD SWAP1 PUSH1 0x1 PUSH1 0x1 PUSH1 0xA0 SHL SUB AND SWAP1 DUP2 PUSH1 0x1 PUSH1 0x1 PUSH1 0xA0 SHL SUB AND DUP2 MSTORE POP POP DUP2 PUSH1 0x40 ADD MLOAD DUP2 PUSH1 0x1 DUP2 MLOAD DUP2 LT PUSH3 0xB2E JUMPI PUSH3 0xB2E PUSH3 0x3C57 JUMP JUMPDEST PUSH1 0x20 MUL PUSH1 0x20 ADD ADD SWAP1 PUSH1 0x1 PUSH1 0x1 PUSH1 0xA0 SHL SUB AND SWAP1 DUP2 PUSH1 0x1 PUSH1 0x1 PUSH1 0xA0 SHL SUB AND DUP2 MSTORE POP POP PUSH3 0xB59 DUP2 PUSH3 0x967 JUMP JUMPDEST PUSH1 0x1 PUSH1 0x1 PUSH1 0xA0 SHL SUB AND PUSH1 0x60 DUP4 ADD MSTORE POP PUSH3 0xB88 JUMP JUMPDEST PUSH1 0x60 DUP2 ADD MLOAD PUSH1 0x1 PUSH1 0x1 PUSH1 0xA0 SHL SUB AND PUSH3 0xB88 JUMPI CALLER PUSH1 0x60 DUP3 ADD MSTORE JUMPDEST DUP3 MLOAD PUSH1 0x20 DUP5 ADD MLOAD PUSH8 0x4563918244F40000 SELFBALANCE GT ISZERO PUSH3 0xE57 JUMPI PUSH1 0x0 DUP3 PUSH1 0x1 PUSH1 0x1 PUSH1 0xA0 SHL SUB AND PUSH4 0xAD5C4648 PUSH1 0x40 MLOAD DUP2 PUSH4 0xFFFFFFFF AND PUSH1 0xE0 SHL DUP2 MSTORE PUSH1 0x4 ADD PUSH1 0x20 PUSH1 0x40 MLOAD DUP1 DUP4 SUB DUP2 DUP7 DUP1 EXTCODESIZE ISZERO DUP1 ISZERO PUSH3 0xBDC JUMPI PUSH1 0x0 DUP1 REVERT JUMPDEST POP GAS STATICCALL ISZERO DUP1 ISZERO PUSH3 0xBF1 JUMPI RETURNDATASIZE PUSH1 0x0 DUP1 RETURNDATACOPY RETURNDATASIZE PUSH1 0x0 REVERT JUMPDEST POP POP POP POP PUSH1 0x40 MLOAD RETURNDATASIZE PUSH1 0x1F NOT PUSH1 0x1F DUP3 ADD AND DUP3 ADD DUP1 PUSH1 0x40 MSTORE POP DUP2 ADD SWAP1 PUSH3 0xC17 SWAP2 SWAP1 PUSH3 0x30DE JUMP JUMPDEST PUSH1 0x4 SLOAD SWAP1 SWAP2 POP PUSH1 0x1 PUSH1 0x1 PUSH1 0xA0 SHL SUB DUP1 DUP4 AND SWAP2 PUSH4 0xD0E30DB0 SWAP2 PUSH3 0xC46 SWAP2 PUSH8 0x4563918244F40000 SWAP2 AND BALANCE PUSH3 0x3B95 JUMP JUMPDEST PUSH1 0x40 MLOAD DUP3 PUSH4 0xFFFFFFFF AND PUSH1 0xE0 SHL DUP2 MSTORE PUSH1 0x4 ADD PUSH1 0x0 PUSH1 0x40 MLOAD DUP1 DUP4 SUB DUP2 DUP6 DUP9 DUP1 EXTCODESIZE ISZERO DUP1 ISZERO PUSH3 0xC72 JUMPI PUSH1 0x0 DUP1 REVERT JUMPDEST POP GAS CALL ISZERO DUP1 ISZERO PUSH3 0xC87 JUMPI RETURNDATASIZE PUSH1 0x0 DUP1 RETURNDATACOPY RETURNDATASIZE PUSH1 0x0 REVERT JUMPDEST POP POP POP POP POP DUP1 PUSH1 0x1 PUSH1 0x1 PUSH1 0xA0 SHL SUB AND DUP3 PUSH1 0x1 PUSH1 0x1 PUSH1 0xA0 SHL SUB AND EQ ISZERO DUP1 ISZERO PUSH3 0xD33 JUMPI POP PUSH1 0x4 DUP1 SLOAD PUSH1 0x40 MLOAD PUSH4 0x70A08231 PUSH1 0xE0 SHL DUP2 MSTORE PUSH1 0x1 PUSH1 0x1 PUSH1 0xA0 SHL SUB SWAP2 DUP3 AND SWAP3 DUP2 ADD SWAP3 SWAP1 SWAP3 MSTORE PUSH1 0x0 SWAP2 SWAP1 DUP4 AND SWAP1 PUSH4 0x70A08231 SWAP1 PUSH1 0x24 ADD PUSH1 0x20 PUSH1 0x40 MLOAD DUP1 DUP4 SUB DUP2 DUP7 DUP1 EXTCODESIZE ISZERO DUP1 ISZERO PUSH3 0xCF6 JUMPI PUSH1 0x0 DUP1 REVERT JUMPDEST POP GAS STATICCALL ISZERO DUP1 ISZERO PUSH3 0xD0B JUMPI RETURNDATASIZE PUSH1 0x0 DUP1 RETURNDATACOPY RETURNDATASIZE PUSH1 0x0 REVERT JUMPDEST POP POP POP POP PUSH1 0x40 MLOAD RETURNDATASIZE PUSH1 0x1F NOT PUSH1 0x1F DUP3 ADD AND DUP3 ADD DUP1 PUSH1 0x40 MSTORE POP DUP2 ADD SWAP1 PUSH3 0xD31 SWAP2 SWAP1 PUSH3 0x3625 JUMP JUMPDEST GT JUMPDEST ISZERO PUSH3 0xE55 JUMPI PUSH1 0x4 DUP1 SLOAD PUSH1 0x40 MLOAD PUSH4 0x70A08231 PUSH1 0xE0 SHL DUP2 MSTORE PUSH1 0x1 PUSH1 0x1 PUSH1 0xA0 SHL SUB SWAP2 DUP3 AND SWAP3 DUP2 ADD SWAP3 SWAP1 SWAP3 MSTORE ADDRESS SWAP2 PUSH4 0xBD698545 SWAP2 DUP7 SWAP2 DUP6 SWAP2 DUP8 SWAP2 DUP7 SWAP2 DUP3 SWAP2 SWAP1 DUP6 AND SWAP1 PUSH4 0x70A08231 SWAP1 PUSH1 0x24 ADD PUSH1 0x20 PUSH1 0x40 MLOAD DUP1 DUP4 SUB DUP2 DUP7 DUP1 EXTCODESIZE ISZERO DUP1 ISZERO PUSH3 0xD94 JUMPI PUSH1 0x0 DUP1 REVERT JUMPDEST POP GAS STATICCALL ISZERO DUP1 ISZERO PUSH3 0xDA9 JUMPI RETURNDATASIZE PUSH1 0x0 DUP1 RETURNDATACOPY RETURNDATASIZE PUSH1 0x0 REVERT JUMPDEST POP POP POP POP PUSH1 0x40 MLOAD RETURNDATASIZE PUSH1 0x1F NOT PUSH1 0x1F DUP3 ADD AND DUP3 ADD DUP1 PUSH1 0x40 MSTORE POP DUP2 ADD SWAP1 PUSH3 0xDCF SWAP2 SWAP1 PUSH3 0x3625 JUMP JUMPDEST PUSH1 0x0 PUSH1 0x40 MLOAD DUP9 PUSH4 0xFFFFFFFF AND PUSH1 0xE0 SHL DUP2 MSTORE PUSH1 0x4 ADD PUSH3 0xDF5 SWAP8 SWAP7 SWAP6 SWAP5 SWAP4 SWAP3 SWAP2 SWAP1 PUSH3 0x38AD JUMP JUMPDEST PUSH1 0x0 PUSH1 0x40 MLOAD DUP1 DUP4 SUB DUP2 PUSH1 0x0 DUP8 DUP1 EXTCODESIZE ISZERO DUP1 ISZERO PUSH3 0xE10 JUMPI PUSH1 0x0 DUP1 REVERT JUMPDEST POP GAS CALL SWAP3 POP POP POP DUP1 ISZERO PUSH3 0xE48 JUMPI POP PUSH1 0x40 MLOAD RETURNDATASIZE PUSH1 0x0 DUP3 RETURNDATACOPY PUSH1 0x1F RETURNDATASIZE SWAP1 DUP2 ADD PUSH1 0x1F NOT AND DUP3 ADD PUSH1 0x40 MSTORE PUSH3 0xE45 SWAP2 SWAP1 DUP2 ADD SWAP1 PUSH3 0x3496 JUMP JUMPDEST PUSH1 0x1 JUMPDEST PUSH3 0xE53 JUMPI PUSH3 0xE55 JUMP JUMPDEST POP JUMPDEST POP JUMPDEST PUSH1 0x0 DUP1 SLOAD DUP6 MSTORE PUSH1 0x2 SLOAD PUSH1 0x20 DUP1 DUP8 ADD SWAP2 SWAP1 SWAP2 MSTORE NUMBER PUSH1 0xC0 DUP8 ADD MSTORE TIMESTAMP PUSH1 0xE0 DUP8 ADD MSTORE DUP7 ADD MLOAD PUSH1 0x40 DUP1 DUP9 ADD MLOAD SWAP1 MLOAD SWAP2 SWAP3 SWAP1 SWAP2 PUSH1 0x0 DUP1 MLOAD PUSH1 0x20 PUSH3 0x401A DUP4 CODECOPY DUP2 MLOAD SWAP2 MSTORE SWAP1 DUP3 SWAP1 LOG1 PUSH1 0x80 DUP9 ADD MLOAD ISZERO PUSH3 0x116B JUMPI PUSH1 0x0 DUP9 PUSH1 0x0 ADD MLOAD PUSH1 0x1 PUSH1 0x1 PUSH1 0xA0 SHL SUB AND PUSH4 0xC45A0155 PUSH1 0x40 MLOAD DUP2 PUSH4 0xFFFFFFFF AND PUSH1 0xE0 SHL DUP2 MSTORE PUSH1 0x4 ADD PUSH1 0x20 PUSH1 0x40 MLOAD DUP1 DUP4 SUB DUP2 DUP7 DUP1 EXTCODESIZE ISZERO DUP1 ISZERO PUSH3 0xEE3 JUMPI PUSH1 0x0 DUP1 REVERT JUMPDEST POP GAS STATICCALL ISZERO DUP1 ISZERO PUSH3 0xEF8 JUMPI RETURNDATASIZE PUSH1 0x0 DUP1 RETURNDATACOPY RETURNDATASIZE PUSH1 0x0 REVERT JUMPDEST POP POP POP POP PUSH1 0x40 MLOAD RETURNDATASIZE PUSH1 0x1F NOT PUSH1 0x1F DUP3 ADD AND DUP3 ADD DUP1 PUSH1 0x40 MSTORE POP DUP2 ADD SWAP1 PUSH3 0xF1E SWAP2 SWAP1 PUSH3 0x30DE JUMP JUMPDEST PUSH1 0x20 DUP11 ADD MLOAD PUSH1 0x40 DUP1 DUP13 ADD MLOAD SWAP1 MLOAD PUSH4 0xE6A43905 PUSH1 0xE0 SHL DUP2 MSTORE PUSH1 0x1 PUSH1 0x1 PUSH1 0xA0 SHL SUB SWAP3 DUP4 AND PUSH1 0x4 DUP3 ADD MSTORE SWAP1 DUP3 AND PUSH1 0x24 DUP3 ADD MSTORE SWAP2 AND SWAP1 PUSH4 0xE6A43905 SWAP1 PUSH1 0x44 ADD PUSH1 0x20 PUSH1 0x40 MLOAD DUP1 DUP4 SUB DUP2 DUP7 DUP1 EXTCODESIZE ISZERO DUP1 ISZERO PUSH3 0xF72 JUMPI PUSH1 0x0 DUP1 REVERT JUMPDEST POP GAS STATICCALL ISZERO DUP1 ISZERO PUSH3 0xF87 JUMPI RETURNDATASIZE PUSH1 0x0 DUP1 RETURNDATACOPY RETURNDATASIZE PUSH1 0x0 REVERT JUMPDEST POP POP POP POP PUSH1 0x40 MLOAD RETURNDATASIZE PUSH1 0x1F NOT PUSH1 0x1F DUP3 ADD AND DUP3 ADD DUP1 PUSH1 0x40 MSTORE POP DUP2 ADD SWAP1 PUSH3 0xFAD SWAP2 SWAP1 PUSH3 0x30DE JUMP JUMPDEST PUSH1 0x80 DUP11 ADD MLOAD PUSH1 0x40 MLOAD PUSH4 0x70A08231 PUSH1 0xE0 SHL DUP2 MSTORE PUSH1 0x1 PUSH1 0x1 PUSH1 0xA0 SHL SUB DUP1 DUP5 AND PUSH1 0x4 DUP4 ADD MSTORE SWAP3 SWAP4 POP PUSH2 0x2710 SWAP3 DUP7 AND SWAP1 PUSH4 0x70A08231 SWAP1 PUSH1 0x24 ADD PUSH1 0x20 PUSH1 0x40 MLOAD DUP1 DUP4 SUB DUP2 DUP7 DUP1 EXTCODESIZE ISZERO DUP1 ISZERO PUSH3 0xFFB JUMPI PUSH1 0x0 DUP1 REVERT JUMPDEST POP GAS STATICCALL ISZERO DUP1 ISZERO PUSH3 0x1010 JUMPI RETURNDATASIZE PUSH1 0x0 DUP1 RETURNDATACOPY RETURNDATASIZE PUSH1 0x0 REVERT JUMPDEST POP POP POP POP PUSH1 0x40 MLOAD RETURNDATASIZE PUSH1 0x1F NOT PUSH1 0x1F DUP3 ADD AND DUP3 ADD DUP1 PUSH1 0x40 MSTORE POP DUP2 ADD SWAP1 PUSH3 0x1036 SWAP2 SWAP1 PUSH3 0x3625 JUMP JUMPDEST PUSH3 0x1042 SWAP2 SWAP1 PUSH3 0x3B2E JUMP JUMPDEST PUSH3 0x104E SWAP2 SWAP1 PUSH3 0x3B0B JUMP JUMPDEST DUP10 MLOAD PUSH1 0x20 DUP12 ADD MLOAD PUSH1 0x40 DUP1 DUP14 ADD MLOAD PUSH1 0x60 DUP15 ADD MLOAD SWAP2 MLOAD PUSH4 0xBD698545 PUSH1 0xE0 SHL DUP2 MSTORE SWAP5 SWAP7 POP ADDRESS SWAP5 PUSH4 0xBD698545 SWAP5 PUSH3 0x1092 SWAP5 SWAP1 SWAP4 SWAP1 SWAP3 SWAP2 DUP8 SWAP2 SWAP1 PUSH1 0x0 SWAP1 DUP12 SWAP1 PUSH1 0x4 ADD PUSH3 0x38AD JUMP JUMPDEST PUSH1 0x0 PUSH1 0x40 MLOAD DUP1 DUP4 SUB DUP2 PUSH1 0x0 DUP8 DUP1 EXTCODESIZE ISZERO DUP1 ISZERO PUSH3 0x10AD JUMPI PUSH1 0x0 DUP1 REVERT JUMPDEST POP GAS CALL SWAP3 POP POP POP DUP1 ISZERO PUSH3 0x10E5 JUMPI POP PUSH1 0x40 MLOAD RETURNDATASIZE PUSH1 0x0 DUP3 RETURNDATACOPY PUSH1 0x1F RETURNDATASIZE SWAP1 DUP2 ADD PUSH1 0x1F NOT AND DUP3 ADD PUSH1 0x40 MSTORE PUSH3 0x10E2 SWAP2 SWAP1 DUP2 ADD SWAP1 PUSH3 0x3496 JUMP JUMPDEST PUSH1 0x1 JUMPDEST PUSH3 0x1163 JUMPI PUSH3 0x10F4 PUSH3 0x3C83 JUMP JUMPDEST DUP1 PUSH4 0x8C379A0 EQ ISZERO PUSH3 0x112E JUMPI POP PUSH3 0x110C PUSH3 0x3CA0 JUMP JUMPDEST DUP1 PUSH3 0x1119 JUMPI POP PUSH3 0x1130 JUMP JUMPDEST PUSH1 0x40 DUP10 ADD DUP1 MLOAD PUSH1 0x2 SWAP1 MSTORE MLOAD PUSH1 0x80 ADD MSTORE PUSH3 0x1169 JUMP JUMPDEST POP JUMPDEST PUSH1 0x40 DUP9 DUP2 ADD DUP1 MLOAD PUSH1 0x2 SWAP1 MSTORE DUP2 MLOAD DUP1 DUP4 ADD SWAP1 SWAP3 MSTORE PUSH1 0x8 DUP3 MSTORE PUSH8 0x189D5E4819985A5B PUSH1 0xC2 SHL PUSH1 0x20 DUP4 ADD MSTORE MLOAD PUSH1 0x80 ADD MSTORE PUSH3 0x1169 JUMP JUMPDEST PUSH1 0x40 DUP10 ADD MSTORE JUMPDEST POP JUMPDEST PUSH1 0x40 MLOAD PUSH1 0x0 DUP1 MLOAD PUSH1 0x20 PUSH3 0x401A DUP4 CODECOPY DUP2 MLOAD SWAP2 MSTORE SWAP1 PUSH1 0x0 SWAP1 LOG1 PUSH1 0x2 PUSH1 0x40 DUP9 ADD MLOAD MLOAD PUSH1 0x2 DUP2 GT ISZERO PUSH3 0x119F JUMPI PUSH3 0x119F PUSH3 0x3C41 JUMP JUMPDEST EQ ISZERO DUP1 ISZERO PUSH3 0x11B2 JUMPI POP PUSH1 0x0 DUP9 PUSH1 0xA0 ADD MLOAD GT JUMPDEST ISZERO PUSH3 0x13A7 JUMPI DUP2 PUSH1 0x1 PUSH1 0x1 PUSH1 0xA0 SHL SUB AND PUSH4 0x70A08231 DUP10 PUSH1 0x80 ADD MLOAD PUSH1 0x0 EQ PUSH3 0x11DF JUMPI DUP10 PUSH1 0x60 ADD MLOAD PUSH3 0x11E1 JUMP JUMPDEST ORIGIN JUMPDEST PUSH1 0x40 MLOAD PUSH1 0x1 PUSH1 0x1 PUSH1 0xE0 SHL SUB NOT PUSH1 0xE0 DUP5 SWAP1 SHL AND DUP2 MSTORE PUSH1 0x1 PUSH1 0x1 PUSH1 0xA0 SHL SUB SWAP1 SWAP2 AND PUSH1 0x4 DUP3 ADD MSTORE PUSH1 0x24 ADD PUSH1 0x20 PUSH1 0x40 MLOAD DUP1 DUP4 SUB DUP2 DUP7 DUP1 EXTCODESIZE ISZERO DUP1 ISZERO PUSH3 0x1221 JUMPI PUSH1 0x0 DUP1 REVERT JUMPDEST POP GAS STATICCALL ISZERO DUP1 ISZERO PUSH3 0x1236 JUMPI RETURNDATASIZE PUSH1 0x0 DUP1 RETURNDATACOPY RETURNDATASIZE PUSH1 0x0 REVERT JUMPDEST POP POP POP POP PUSH1 0x40 MLOAD RETURNDATASIZE PUSH1 0x1F NOT PUSH1 0x1F DUP3 ADD AND DUP3 ADD DUP1 PUSH1 0x40 MSTORE POP DUP2 ADD SWAP1 PUSH3 0x125C SWAP2 SWAP1 PUSH3 0x3625 JUMP JUMPDEST SWAP1 POP ADDRESS PUSH1 0x1 PUSH1 0x1 PUSH1 0xA0 SHL SUB AND PUSH4 0xBD698545 DUP10 PUSH1 0x0 ADD MLOAD DUP11 PUSH1 0x40 ADD MLOAD DUP12 PUSH1 0x20 ADD MLOAD DUP13 PUSH1 0x60 ADD MLOAD DUP14 PUSH1 0x60 ADD MLOAD PUSH2 0x2710 DUP16 PUSH1 0xA0 ADD MLOAD DUP10 PUSH3 0x129B SWAP2 SWAP1 PUSH3 0x3B2E JUMP JUMPDEST PUSH3 0x12A7 SWAP2 SWAP1 PUSH3 0x3B0B JUMP JUMPDEST PUSH1 0x0 PUSH1 0x40 MLOAD DUP9 PUSH4 0xFFFFFFFF AND PUSH1 0xE0 SHL DUP2 MSTORE PUSH1 0x4 ADD PUSH3 0x12CD SWAP8 SWAP7 SWAP6 SWAP5 SWAP4 SWAP3 SWAP2 SWAP1 PUSH3 0x38AD JUMP JUMPDEST PUSH1 0x0 PUSH1 0x40 MLOAD DUP1 DUP4 SUB DUP2 PUSH1 0x0 DUP8 DUP1 EXTCODESIZE ISZERO DUP1 ISZERO PUSH3 0x12E8 JUMPI PUSH1 0x0 DUP1 REVERT JUMPDEST POP GAS CALL SWAP3 POP POP POP DUP1 ISZERO PUSH3 0x1320 JUMPI POP PUSH1 0x40 MLOAD RETURNDATASIZE PUSH1 0x0 DUP3 RETURNDATACOPY PUSH1 0x1F RETURNDATASIZE SWAP1 DUP2 ADD PUSH1 0x1F NOT AND DUP3 ADD PUSH1 0x40 MSTORE PUSH3 0x131D SWAP2 SWAP1 DUP2 ADD SWAP1 PUSH3 0x3496 JUMP JUMPDEST PUSH1 0x1 JUMPDEST PUSH3 0x13A1 JUMPI PUSH3 0x132F PUSH3 0x3C83 JUMP JUMPDEST DUP1 PUSH4 0x8C379A0 EQ ISZERO PUSH3 0x1369 JUMPI POP PUSH3 0x1347 PUSH3 0x3CA0 JUMP JUMPDEST DUP1 PUSH3 0x1354 JUMPI POP PUSH3 0x136B JUMP JUMPDEST PUSH1 0x60 DUP9 ADD DUP1 MLOAD PUSH1 0x2 SWAP1 MSTORE MLOAD PUSH1 0x80 ADD MSTORE PUSH3 0x13A7 JUMP JUMPDEST POP JUMPDEST PUSH1 0x60 DUP8 ADD DUP1 MLOAD PUSH1 0x2 SWAP1 MSTORE PUSH1 0x40 DUP1 MLOAD DUP1 DUP3 ADD SWAP1 SWAP2 MSTORE PUSH1 0x9 DUP2 MSTORE PUSH9 0x1CD95B1B0819985A5B PUSH1 0xBA SHL PUSH1 0x20 DUP3 ADD MSTORE SWAP1 MLOAD PUSH1 0x80 ADD MSTORE PUSH3 0x13A7 JUMP JUMPDEST PUSH1 0x60 DUP9 ADD MSTORE JUMPDEST PUSH1 0x40 MLOAD PUSH1 0x0 DUP1 MLOAD PUSH1 0x20 PUSH3 0x401A DUP4 CODECOPY DUP2 MLOAD SWAP2 MSTORE SWAP1 PUSH1 0x0 SWAP1 LOG1 PUSH1 0x2 PUSH1 0x40 DUP9 ADD MLOAD MLOAD PUSH1 0x2 DUP2 GT ISZERO PUSH3 0x13DB JUMPI PUSH3 0x13DB PUSH3 0x3C41 JUMP JUMPDEST EQ ISZERO DUP1 ISZERO PUSH3 0x13EE JUMPI POP PUSH1 0x0 DUP9 PUSH1 0xC0 ADD MLOAD GT JUMPDEST ISZERO PUSH3 0x1637 JUMPI DUP2 PUSH1 0x1 PUSH1 0x1 PUSH1 0xA0 SHL SUB AND PUSH4 0x70A08231 DUP10 PUSH1 0x80 ADD MLOAD PUSH1 0x0 EQ PUSH3 0x141B JUMPI DUP10 PUSH1 0x60 ADD MLOAD PUSH3 0x141D JUMP JUMPDEST ORIGIN JUMPDEST PUSH1 0x40 MLOAD PUSH1 0x1 PUSH1 0x1 PUSH1 0xE0 SHL SUB NOT PUSH1 0xE0 DUP5 SWAP1 SHL AND DUP2 MSTORE PUSH1 0x1 PUSH1 0x1 PUSH1 0xA0 SHL SUB SWAP1 SWAP2 AND PUSH1 0x4 DUP3 ADD MSTORE PUSH1 0x24 ADD PUSH1 0x20 PUSH1 0x40 MLOAD DUP1 DUP4 SUB DUP2 DUP7 DUP1 EXTCODESIZE ISZERO DUP1 ISZERO PUSH3 0x145D JUMPI PUSH1 0x0 DUP1 REVERT JUMPDEST POP GAS STATICCALL ISZERO DUP1 ISZERO PUSH3 0x1472 JUMPI RETURNDATASIZE PUSH1 0x0 DUP1 RETURNDATACOPY RETURNDATASIZE PUSH1 0x0 REVERT JUMPDEST POP POP POP POP PUSH1 0x40 MLOAD RETURNDATASIZE PUSH1 0x1F NOT PUSH1 0x1F DUP3 ADD AND DUP3 ADD DUP1 PUSH1 0x40 MSTORE POP DUP2 ADD SWAP1 PUSH3 0x1498 SWAP2 SWAP1 PUSH3 0x3625 JUMP JUMPDEST SWAP1 POP ADDRESS PUSH1 0x1 PUSH1 0x1 PUSH1 0xA0 SHL SUB AND PUSH4 0xF18D03CC DUP10 PUSH1 0x40 ADD MLOAD DUP11 PUSH1 0x60 ADD MLOAD PUSH3 0x14FA PUSH1 0x0 DUP1 SLOAD PUSH1 0x2 SLOAD PUSH1 0x40 DUP1 MLOAD PUSH1 0x20 DUP2 ADD SWAP4 SWAP1 SWAP4 MSTORE DUP3 ADD MSTORE NUMBER PUSH1 0x60 DUP3 ADD MSTORE TIMESTAMP PUSH1 0x80 DUP3 ADD MSTORE PUSH1 0xA0 ADD PUSH1 0x40 MLOAD PUSH1 0x20 DUP2 DUP4 SUB SUB DUP2 MSTORE SWAP1 PUSH1 0x40 MSTORE DUP1 MLOAD SWAP1 PUSH1 0x20 ADD KECCAK256 PUSH1 0x0 SHR SWAP1 POP SWAP1 JUMP JUMPDEST PUSH2 0x2710 DUP14 PUSH1 0xC0 ADD MLOAD DUP8 PUSH3 0x150F SWAP2 SWAP1 PUSH3 0x3B2E JUMP JUMPDEST PUSH3 0x151B SWAP2 SWAP1 PUSH3 0x3B0B JUMP JUMPDEST PUSH1 0x40 MLOAD PUSH1 0x1 PUSH1 0x1 PUSH1 0xE0 SHL SUB NOT PUSH1 0xE0 DUP8 SWAP1 SHL AND DUP2 MSTORE PUSH1 0x1 PUSH1 0x1 PUSH1 0xA0 SHL SUB SWAP5 DUP6 AND PUSH1 0x4 DUP3 ADD MSTORE SWAP3 DUP5 AND PUSH1 0x24 DUP5 ADD MSTORE SWAP3 AND PUSH1 0x44 DUP3 ADD MSTORE PUSH1 0x64 DUP2 ADD SWAP2 SWAP1 SWAP2 MSTORE PUSH1 0x84 ADD PUSH1 0x0 PUSH1 0x40 MLOAD DUP1 DUP4 SUB DUP2 PUSH1 0x0 DUP8 DUP1 EXTCODESIZE ISZERO DUP1 ISZERO PUSH3 0x1574 JUMPI PUSH1 0x0 DUP1 REVERT JUMPDEST POP GAS CALL SWAP3 POP POP POP DUP1 ISZERO PUSH3 0x15AC JUMPI POP PUSH1 0x40 MLOAD RETURNDATASIZE PUSH1 0x0 DUP3 RETURNDATACOPY PUSH1 0x1F RETURNDATASIZE SWAP1 DUP2 ADD PUSH1 0x1F NOT AND DUP3 ADD PUSH1 0x40 MSTORE PUSH3 0x15A9 SWAP2 SWAP1 DUP2 ADD SWAP1 PUSH3 0x3496 JUMP JUMPDEST PUSH1 0x1 JUMPDEST PUSH3 0x1631 JUMPI PUSH3 0x15BB PUSH3 0x3C83 JUMP JUMPDEST DUP1 PUSH4 0x8C379A0 EQ ISZERO PUSH3 0x15F4 JUMPI POP PUSH3 0x15D3 PUSH3 0x3CA0 JUMP JUMPDEST DUP1 PUSH3 0x15E0 JUMPI POP PUSH3 0x15F6 JUMP JUMPDEST PUSH1 0x80 DUP9 DUP2 ADD DUP1 MLOAD PUSH1 0x2 SWAP1 MSTORE MLOAD ADD MSTORE PUSH3 0x1637 JUMP JUMPDEST POP JUMPDEST PUSH1 0x80 DUP8 DUP2 ADD DUP1 MLOAD PUSH1 0x2 SWAP1 MSTORE PUSH1 0x40 DUP1 MLOAD DUP1 DUP3 ADD SWAP1 SWAP2 MSTORE PUSH1 0xD DUP2 MSTORE PUSH13 0x1D1C985B9CD9995C8819985A5B PUSH1 0x9A SHL PUSH1 0x20 DUP3 ADD MSTORE SWAP1 MLOAD SWAP1 SWAP2 ADD MSTORE PUSH3 0x1637 JUMP JUMPDEST PUSH1 0x80 DUP9 ADD MSTORE JUMPDEST PUSH1 0x40 MLOAD PUSH1 0x0 DUP1 MLOAD PUSH1 0x20 PUSH3 0x401A DUP4 CODECOPY DUP2 MLOAD SWAP2 MSTORE SWAP1 PUSH1 0x0 SWAP1 LOG1 PUSH1 0x40 DUP1 MLOAD PUSH1 0x60 DUP1 DUP3 ADD DUP4 MSTORE DUP11 ADD DUP1 MLOAD PUSH1 0x1 PUSH1 0x1 PUSH1 0xA0 SHL SUB SWAP1 DUP2 AND DUP4 MSTORE SWAP1 MLOAD SWAP3 MLOAD PUSH4 0x70A08231 PUSH1 0xE0 SHL DUP2 MSTORE SWAP3 DUP2 AND PUSH1 0x4 DUP5 ADD MSTORE SWAP1 SWAP2 PUSH1 0x20 DUP4 ADD SWAP2 DUP7 AND SWAP1 PUSH4 0x70A08231 SWAP1 PUSH1 0x24 ADD PUSH1 0x20 PUSH1 0x40 MLOAD DUP1 DUP4 SUB DUP2 DUP7 DUP1 EXTCODESIZE ISZERO DUP1 ISZERO PUSH3 0x16AD JUMPI PUSH1 0x0 DUP1 REVERT JUMPDEST POP GAS STATICCALL ISZERO DUP1 ISZERO PUSH3 0x16C2 JUMPI RETURNDATASIZE PUSH1 0x0 DUP1 RETURNDATACOPY RETURNDATASIZE PUSH1 0x0 REVERT JUMPDEST POP POP POP POP PUSH1 0x40 MLOAD RETURNDATASIZE PUSH1 0x1F NOT PUSH1 0x1F DUP3 ADD AND DUP3 ADD DUP1 PUSH1 0x40 MSTORE POP DUP2 ADD SWAP1 PUSH3 0x16E8 SWAP2 SWAP1 PUSH3 0x3625 JUMP JUMPDEST DUP2 MSTORE PUSH1 0x60 DUP11 ADD MLOAD PUSH1 0x40 MLOAD PUSH4 0x70A08231 PUSH1 0xE0 SHL DUP2 MSTORE PUSH1 0x1 PUSH1 0x1 PUSH1 0xA0 SHL SUB SWAP2 DUP3 AND PUSH1 0x4 DUP3 ADD MSTORE PUSH1 0x20 SWAP1 SWAP3 ADD SWAP2 SWAP1 DUP6 AND SWAP1 PUSH4 0x70A08231 SWAP1 PUSH1 0x24 ADD PUSH1 0x20 PUSH1 0x40 MLOAD DUP1 DUP4 SUB DUP2 DUP7 DUP1 EXTCODESIZE ISZERO DUP1 ISZERO PUSH3 0x1738 JUMPI PUSH1 0x0 DUP1 REVERT JUMPDEST POP GAS STATICCALL ISZERO DUP1 ISZERO PUSH3 0x174D JUMPI RETURNDATASIZE PUSH1 0x0 DUP1 RETURNDATACOPY RETURNDATASIZE PUSH1 0x0 REVERT JUMPDEST POP POP POP POP PUSH1 0x40 MLOAD RETURNDATASIZE PUSH1 0x1F NOT PUSH1 0x1F DUP3 ADD AND DUP3 ADD DUP1 PUSH1 0x40 MSTORE POP DUP2 ADD SWAP1 PUSH3 0x1773 SWAP2 SWAP1 PUSH3 0x3625 JUMP JUMPDEST SWAP1 MSTORE PUSH1 0xA0 DUP9 ADD MSTORE POP POP POP POP POP POP SWAP2 SWAP1 POP JUMP JUMPDEST PUSH3 0x178F PUSH3 0x2D10 JUMP JUMPDEST PUSH1 0x1 DUP2 MSTORE GAS PUSH1 0x20 DUP3 ADD MSTORE PUSH3 0x17A9 DUP6 DUP6 DUP6 DUP6 PUSH1 0x0 PUSH3 0x1D9A JUMP JUMPDEST PUSH1 0x60 DUP3 ADD DUP2 SWAP1 MSTORE PUSH1 0x40 DUP3 ADD MSTORE GAS DUP2 PUSH1 0x20 ADD DUP2 DUP2 MLOAD PUSH3 0x17C9 SWAP2 SWAP1 PUSH3 0x3B95 JUMP JUMPDEST SWAP1 MSTORE POP SWAP5 SWAP4 POP POP POP POP JUMP JUMPDEST PUSH1 0x0 DUP1 PUSH3 0x17E6 PUSH1 0x20 DUP5 ADD DUP5 PUSH3 0x30BE JUMP JUMPDEST PUSH3 0x17F8 PUSH1 0x40 DUP6 ADD PUSH1 0x20 DUP7 ADD PUSH3 0x30BE JUMP JUMPDEST PUSH8 0x4563918244F40000 SELFBALANCE GT ISZERO PUSH3 0x1AC0 JUMPI PUSH1 0x0 DUP3 PUSH1 0x1 PUSH1 0x1 PUSH1 0xA0 SHL SUB AND PUSH4 0xAD5C4648 PUSH1 0x40 MLOAD DUP2 PUSH4 0xFFFFFFFF AND PUSH1 0xE0 SHL DUP2 MSTORE PUSH1 0x4 ADD PUSH1 0x20 PUSH1 0x40 MLOAD DUP1 DUP4 SUB DUP2 DUP7 DUP1 EXTCODESIZE ISZERO DUP1 ISZERO PUSH3 0x1845 JUMPI PUSH1 0x0 DUP1 REVERT JUMPDEST POP GAS STATICCALL ISZERO DUP1 ISZERO PUSH3 0x185A JUMPI RETURNDATASIZE PUSH1 0x0 DUP1 RETURNDATACOPY RETURNDATASIZE PUSH1 0x0 REVERT JUMPDEST POP POP POP POP PUSH1 0x40 MLOAD RETURNDATASIZE PUSH1 0x1F NOT PUSH1 0x1F DUP3 ADD AND DUP3 ADD DUP1 PUSH1 0x40 MSTORE POP DUP2 ADD SWAP1 PUSH3 0x1880 SWAP2 SWAP1 PUSH3 0x30DE JUMP JUMPDEST PUSH1 0x4 SLOAD SWAP1 SWAP2 POP PUSH1 0x1 PUSH1 0x1 PUSH1 0xA0 SHL SUB DUP1 DUP4 AND SWAP2 PUSH4 0xD0E30DB0 SWAP2 PUSH3 0x18AF SWAP2 PUSH8 0x4563918244F40000 SWAP2 AND BALANCE PUSH3 0x3B95 JUMP JUMPDEST PUSH1 0x40 MLOAD DUP3 PUSH4 0xFFFFFFFF AND PUSH1 0xE0 SHL DUP2 MSTORE PUSH1 0x4 ADD PUSH1 0x0 PUSH1 0x40 MLOAD DUP1 DUP4 SUB DUP2 DUP6 DUP9 DUP1 EXTCODESIZE ISZERO DUP1 ISZERO PUSH3 0x18DB JUMPI PUSH1 0x0 DUP1 REVERT JUMPDEST POP GAS CALL ISZERO DUP1 ISZERO PUSH3 0x18F0 JUMPI RETURNDATASIZE PUSH1 0x0 DUP1 RETURNDATACOPY RETURNDATASIZE PUSH1 0x0 REVERT JUMPDEST POP POP POP POP POP DUP1 PUSH1 0x1 PUSH1 0x1 PUSH1 0xA0 SHL SUB AND DUP3 PUSH1 0x1 PUSH1 0x1 PUSH1 0xA0 SHL SUB AND EQ ISZERO DUP1 ISZERO PUSH3 0x199C JUMPI POP PUSH1 0x4 DUP1 SLOAD PUSH1 0x40 MLOAD PUSH4 0x70A08231 PUSH1 0xE0 SHL DUP2 MSTORE PUSH1 0x1 PUSH1 0x1 PUSH1 0xA0 SHL SUB SWAP2 DUP3 AND SWAP3 DUP2 ADD SWAP3 SWAP1 SWAP3 MSTORE PUSH1 0x0 SWAP2 SWAP1 DUP4 AND SWAP1 PUSH4 0x70A08231 SWAP1 PUSH1 0x24 ADD PUSH1 0x20 PUSH1 0x40 MLOAD DUP1 DUP4 SUB DUP2 DUP7 DUP1 EXTCODESIZE ISZERO DUP1 ISZERO PUSH3 0x195F JUMPI PUSH1 0x0 DUP1 REVERT JUMPDEST POP GAS STATICCALL ISZERO DUP1 ISZERO PUSH3 0x1974 JUMPI RETURNDATASIZE PUSH1 0x0 DUP1 RETURNDATACOPY RETURNDATASIZE PUSH1 0x0 REVERT JUMPDEST POP POP POP POP PUSH1 0x40 MLOAD RETURNDATASIZE PUSH1 0x1F NOT PUSH1 0x1F DUP3 ADD AND DUP3 ADD DUP1 PUSH1 0x40 MSTORE POP DUP2 ADD SWAP1 PUSH3 0x199A SWAP2 SWAP1 PUSH3 0x3625 JUMP JUMPDEST GT JUMPDEST ISZERO PUSH3 0x1ABE JUMPI PUSH1 0x4 DUP1 SLOAD PUSH1 0x40 MLOAD PUSH4 0x70A08231 PUSH1 0xE0 SHL DUP2 MSTORE PUSH1 0x1 PUSH1 0x1 PUSH1 0xA0 SHL SUB SWAP2 DUP3 AND SWAP3 DUP2 ADD SWAP3 SWAP1 SWAP3 MSTORE ADDRESS SWAP2 PUSH4 0xBD698545 SWAP2 DUP7 SWAP2 DUP6 SWAP2 DUP8 SWAP2 DUP7 SWAP2 DUP3 SWAP2 SWAP1 DUP6 AND SWAP1 PUSH4 0x70A08231 SWAP1 PUSH1 0x24 ADD PUSH1 0x20 PUSH1 0x40 MLOAD DUP1 DUP4 SUB DUP2 DUP7 DUP1 EXTCODESIZE ISZERO DUP1 ISZERO PUSH3 0x19FD JUMPI PUSH1 0x0 DUP1 REVERT JUMPDEST POP GAS STATICCALL ISZERO DUP1 ISZERO PUSH3 0x1A12 JUMPI RETURNDATASIZE PUSH1 0x0 DUP1 RETURNDATACOPY RETURNDATASIZE PUSH1 0x0 REVERT JUMPDEST POP POP POP POP PUSH1 0x40 MLOAD RETURNDATASIZE PUSH1 0x1F NOT PUSH1 0x1F DUP3 ADD AND DUP3 ADD DUP1 PUSH1 0x40 MSTORE POP DUP2 ADD SWAP1 PUSH3 0x1A38 SWAP2 SWAP1 PUSH3 0x3625 JUMP JUMPDEST PUSH1 0x0 PUSH1 0x40 MLOAD DUP9 PUSH4 0xFFFFFFFF AND PUSH1 0xE0 SHL DUP2 MSTORE PUSH1 0x4 ADD PUSH3 0x1A5E SWAP8 SWAP7 SWAP6 SWAP5 SWAP4 SWAP3 SWAP2 SWAP1 PUSH3 0x38AD JUMP JUMPDEST PUSH1 0x0 PUSH1 0x40 MLOAD DUP1 DUP4 SUB DUP2 PUSH1 0x0 DUP8 DUP1 EXTCODESIZE ISZERO DUP1 ISZERO PUSH3 0x1A79 JUMPI PUSH1 0x0 DUP1 REVERT JUMPDEST POP GAS CALL SWAP3 POP POP POP DUP1 ISZERO PUSH3 0x1AB1 JUMPI POP PUSH1 0x40 MLOAD RETURNDATASIZE PUSH1 0x0 DUP3 RETURNDATACOPY PUSH1 0x1F RETURNDATASIZE SWAP1 DUP2 ADD PUSH1 0x1F NOT AND DUP3 ADD PUSH1 0x40 MSTORE PUSH3 0x1AAE SWAP2 SWAP1 DUP2 ADD SWAP1 PUSH3 0x3496 JUMP JUMPDEST PUSH1 0x1 JUMPDEST PUSH3 0x1ABC JUMPI PUSH3 0x1ABE JUMP JUMPDEST POP JUMPDEST POP JUMPDEST PUSH1 0x0 PUSH3 0x1AD1 PUSH1 0x20 DUP8 ADD DUP8 PUSH3 0x30BE JUMP JUMPDEST PUSH1 0x1 PUSH1 0x1 PUSH1 0xA0 SHL SUB AND PUSH4 0xC45A0155 PUSH1 0x40 MLOAD DUP2 PUSH4 0xFFFFFFFF AND PUSH1 0xE0 SHL DUP2 MSTORE PUSH1 0x4 ADD PUSH1 0x20 PUSH1 0x40 MLOAD DUP1 DUP4 SUB DUP2 DUP7 DUP1 EXTCODESIZE ISZERO DUP1 ISZERO PUSH3 0x1B0A JUMPI PUSH1 0x0 DUP1 REVERT JUMPDEST POP GAS STATICCALL ISZERO DUP1 ISZERO PUSH3 0x1B1F JUMPI RETURNDATASIZE PUSH1 0x0 DUP1 RETURNDATACOPY RETURNDATASIZE PUSH1 0x0 REVERT JUMPDEST POP POP POP POP PUSH1 0x40 MLOAD RETURNDATASIZE PUSH1 0x1F NOT PUSH1 0x1F DUP3 ADD AND DUP3 ADD DUP1 PUSH1 0x40 MSTORE POP DUP2 ADD SWAP1 PUSH3 0x1B45 SWAP2 SWAP1 PUSH3 0x30DE JUMP JUMPDEST SWAP1 POP PUSH1 0x1 PUSH1 0x1 PUSH1 0xA0 SHL SUB DUP2 AND PUSH4 0xE6A43905 PUSH3 0x1B68 PUSH1 0x40 DUP10 ADD PUSH1 0x20 DUP11 ADD PUSH3 0x30BE JUMP JUMPDEST PUSH3 0x1B7A PUSH1 0x60 DUP11 ADD PUSH1 0x40 DUP12 ADD PUSH3 0x30BE JUMP JUMPDEST PUSH1 0x40 MLOAD PUSH1 0x1 PUSH1 0x1 PUSH1 0xE0 SHL SUB NOT PUSH1 0xE0 DUP6 SWAP1 SHL AND DUP2 MSTORE PUSH1 0x1 PUSH1 0x1 PUSH1 0xA0 SHL SUB SWAP3 DUP4 AND PUSH1 0x4 DUP3 ADD MSTORE SWAP2 AND PUSH1 0x24 DUP3 ADD MSTORE PUSH1 0x44 ADD PUSH1 0x20 PUSH1 0x40 MLOAD DUP1 DUP4 SUB DUP2 DUP7 DUP1 EXTCODESIZE ISZERO DUP1 ISZERO PUSH3 0x1BC1 JUMPI PUSH1 0x0 DUP1 REVERT JUMPDEST POP GAS STATICCALL ISZERO DUP1 ISZERO PUSH3 0x1BD6 JUMPI RETURNDATASIZE PUSH1 0x0 DUP1 RETURNDATACOPY RETURNDATASIZE PUSH1 0x0 REVERT JUMPDEST POP POP POP POP PUSH1 0x40 MLOAD RETURNDATASIZE PUSH1 0x1F NOT PUSH1 0x1F DUP3 ADD AND DUP3 ADD DUP1 PUSH1 0x40 MSTORE POP DUP2 ADD SWAP1 PUSH3 0x1BFC SWAP2 SWAP1 PUSH3 0x30DE JUMP JUMPDEST SWAP5 POP PUSH1 0x1 PUSH1 0x1 PUSH1 0xA0 SHL SUB DUP6 AND PUSH3 0x1CC7 JUMPI PUSH1 0x1 PUSH1 0x1 PUSH1 0xA0 SHL SUB DUP2 AND PUSH4 0xC9C65396 PUSH3 0x1C2E PUSH1 0x40 DUP10 ADD PUSH1 0x20 DUP11 ADD PUSH3 0x30BE JUMP JUMPDEST PUSH3 0x1C40 PUSH1 0x60 DUP11 ADD PUSH1 0x40 DUP12 ADD PUSH3 0x30BE JUMP JUMPDEST PUSH1 0x40 MLOAD PUSH1 0x1 PUSH1 0x1 PUSH1 0xE0 SHL SUB NOT PUSH1 0xE0 DUP6 SWAP1 SHL AND DUP2 MSTORE PUSH1 0x1 PUSH1 0x1 PUSH1 0xA0 SHL SUB SWAP3 DUP4 AND PUSH1 0x4 DUP3 ADD MSTORE SWAP2 AND PUSH1 0x24 DUP3 ADD MSTORE PUSH1 0x44 ADD PUSH1 0x20 PUSH1 0x40 MLOAD DUP1 DUP4 SUB DUP2 PUSH1 0x0 DUP8 DUP1 EXTCODESIZE ISZERO DUP1 ISZERO PUSH3 0x1C89 JUMPI PUSH1 0x0 DUP1 REVERT JUMPDEST POP GAS CALL ISZERO DUP1 ISZERO PUSH3 0x1C9E JUMPI RETURNDATASIZE PUSH1 0x0 DUP1 RETURNDATACOPY RETURNDATASIZE PUSH1 0x0 REVERT JUMPDEST POP POP POP POP PUSH1 0x40 MLOAD RETURNDATASIZE PUSH1 0x1F NOT PUSH1 0x1F DUP3 ADD AND DUP3 ADD DUP1 PUSH1 0x40 MSTORE POP DUP2 ADD SWAP1 PUSH3 0x1CC4 SWAP2 SWAP1 PUSH3 0x30DE JUMP JUMPDEST SWAP5 POP JUMPDEST PUSH3 0x1CEC PUSH3 0x1CDD PUSH1 0x40 DUP9 ADD PUSH1 0x20 DUP10 ADD PUSH3 0x30BE JUMP JUMPDEST ADDRESS DUP8 DUP10 PUSH1 0x60 ADD CALLDATALOAD PUSH1 0x0 PUSH3 0x1D9A JUMP JUMPDEST POP PUSH3 0x1D12 PUSH3 0x1D03 PUSH1 0x60 DUP9 ADD PUSH1 0x40 DUP10 ADD PUSH3 0x30BE JUMP JUMPDEST ORIGIN DUP8 DUP10 PUSH1 0x80 ADD CALLDATALOAD PUSH1 0x0 PUSH3 0x1D9A JUMP JUMPDEST POP PUSH1 0x40 MLOAD PUSH4 0x35313C21 PUSH1 0xE1 SHL DUP2 MSTORE ADDRESS PUSH1 0x4 DUP3 ADD MSTORE PUSH1 0x1 PUSH1 0x1 PUSH1 0xA0 SHL SUB DUP7 AND SWAP1 PUSH4 0x6A627842 SWAP1 PUSH1 0x24 ADD PUSH1 0x20 PUSH1 0x40 MLOAD DUP1 DUP4 SUB DUP2 PUSH1 0x0 DUP8 DUP1 EXTCODESIZE ISZERO DUP1 ISZERO PUSH3 0x1D55 JUMPI PUSH1 0x0 DUP1 REVERT JUMPDEST POP GAS CALL ISZERO DUP1 ISZERO PUSH3 0x1D6A JUMPI RETURNDATASIZE PUSH1 0x0 DUP1 RETURNDATACOPY RETURNDATASIZE PUSH1 0x0 REVERT JUMPDEST POP POP POP POP PUSH1 0x40 MLOAD RETURNDATASIZE PUSH1 0x1F NOT PUSH1 0x1F DUP3 ADD AND DUP3 ADD DUP1 PUSH1 0x40 MSTORE POP DUP2 ADD SWAP1 PUSH3 0x1D90 SWAP2 SWAP1 PUSH3 0x3625 JUMP JUMPDEST SWAP4 POP POP POP POP SWAP2 POP SWAP2 JUMP JUMPDEST PUSH3 0x1DA4 PUSH3 0x2D5B JUMP JUMPDEST DUP4 DUP3 DUP1 ISZERO PUSH3 0x1F76 JUMPI PUSH1 0x5 DUP1 SLOAD PUSH1 0x1 PUSH1 0x1 PUSH1 0xA0 SHL SUB NOT AND PUSH1 0x1 PUSH1 0x1 PUSH1 0xA0 SHL SUB DUP5 AND SWAP1 DUP2 OR SWAP1 SWAP2 SSTORE PUSH1 0x40 DUP1 MLOAD PUSH4 0x240BC6B PUSH1 0xE2 SHL DUP2 MSTORE SWAP1 MLOAD PUSH4 0x902F1AC SWAP2 PUSH1 0x4 DUP1 DUP3 ADD SWAP3 PUSH1 0x60 SWAP3 SWAP1 SWAP2 SWAP1 DUP3 SWAP1 SUB ADD DUP2 DUP7 DUP1 EXTCODESIZE ISZERO DUP1 ISZERO PUSH3 0x1E02 JUMPI PUSH1 0x0 DUP1 REVERT JUMPDEST POP GAS STATICCALL ISZERO DUP1 ISZERO PUSH3 0x1E17 JUMPI RETURNDATASIZE PUSH1 0x0 DUP1 RETURNDATACOPY RETURNDATASIZE PUSH1 0x0 REVERT JUMPDEST POP POP POP POP PUSH1 0x40 MLOAD RETURNDATASIZE PUSH1 0x1F NOT PUSH1 0x1F DUP3 ADD AND DUP3 ADD DUP1 PUSH1 0x40 MSTORE POP DUP2 ADD SWAP1 PUSH3 0x1E3D SWAP2 SWAP1 PUSH3 0x35CF JUMP JUMPDEST POP PUSH1 0x1 PUSH1 0x1 PUSH1 0x70 SHL SUB SWAP1 DUP2 AND PUSH1 0x8 SSTORE AND PUSH1 0x7 SSTORE PUSH1 0x5 SLOAD PUSH1 0x40 DUP1 MLOAD PUSH4 0x18160DDD PUSH1 0xE0 SHL DUP2 MSTORE SWAP1 MLOAD PUSH1 0x1 PUSH1 0x1 PUSH1 0xA0 SHL SUB SWAP1 SWAP3 AND SWAP2 PUSH4 0x18160DDD SWAP2 PUSH1 0x4 DUP1 DUP3 ADD SWAP3 PUSH1 0x20 SWAP3 SWAP1 SWAP2 SWAP1 DUP3 SWAP1 SUB ADD DUP2 DUP7 DUP1 EXTCODESIZE ISZERO DUP1 ISZERO PUSH3 0x1E96 JUMPI PUSH1 0x0 DUP1 REVERT JUMPDEST POP GAS STATICCALL ISZERO DUP1 ISZERO PUSH3 0x1EAB JUMPI RETURNDATASIZE PUSH1 0x0 DUP1 RETURNDATACOPY RETURNDATASIZE PUSH1 0x0 REVERT JUMPDEST POP POP POP POP PUSH1 0x40 MLOAD RETURNDATASIZE PUSH1 0x1F NOT PUSH1 0x1F DUP3 ADD AND DUP3 ADD DUP1 PUSH1 0x40 MSTORE POP DUP2 ADD SWAP1 PUSH3 0x1ED1 SWAP2 SWAP1 PUSH3 0x3625 JUMP JUMPDEST PUSH1 0x9 SSTORE PUSH1 0x5 SLOAD PUSH1 0x40 DUP1 MLOAD PUSH4 0xDFE1681 PUSH1 0xE0 SHL DUP2 MSTORE SWAP1 MLOAD PUSH1 0x1 PUSH1 0x1 PUSH1 0xA0 SHL SUB SWAP1 SWAP3 AND SWAP2 PUSH4 0xDFE1681 SWAP2 PUSH1 0x4 DUP1 DUP3 ADD SWAP3 PUSH1 0x20 SWAP3 SWAP1 SWAP2 SWAP1 DUP3 SWAP1 SUB ADD DUP2 DUP7 DUP1 EXTCODESIZE ISZERO DUP1 ISZERO PUSH3 0x1F1A JUMPI PUSH1 0x0 DUP1 REVERT JUMPDEST POP GAS STATICCALL ISZERO DUP1 ISZERO PUSH3 0x1F2F JUMPI RETURNDATASIZE PUSH1 0x0 DUP1 RETURNDATACOPY RETURNDATASIZE PUSH1 0x0 REVERT JUMPDEST POP POP POP POP PUSH1 0x40 MLOAD RETURNDATASIZE PUSH1 0x1F NOT PUSH1 0x1F DUP3 ADD AND DUP3 ADD DUP1 PUSH1 0x40 MSTORE POP DUP2 ADD SWAP1 PUSH3 0x1F55 SWAP2 SWAP1 PUSH3 0x30DE JUMP JUMPDEST PUSH1 0x6 DUP1 SLOAD PUSH1 0x1 PUSH1 0x1 PUSH1 0xA0 SHL SUB NOT AND PUSH1 0x1 PUSH1 0x1 PUSH1 0xA0 SHL SUB SWAP3 SWAP1 SWAP3 AND SWAP2 SWAP1 SWAP2 OR SWAP1 SSTORE JUMPDEST PUSH1 0xC0 DUP4 ADD DUP6 SWAP1 MSTORE DUP8 PUSH3 0x1F8B DUP2 DUP10 DUP9 PUSH3 0x29C9 JUMP JUMPDEST PUSH1 0x1 PUSH1 0x1 PUSH1 0xA0 SHL SUB SWAP1 DUP2 AND DUP1 DUP7 MSTORE PUSH1 0x40 MLOAD PUSH4 0x70A08231 PUSH1 0xE0 SHL DUP2 MSTORE PUSH1 0x4 DUP2 ADD SWAP2 SWAP1 SWAP2 MSTORE SWAP1 DUP3 AND SWAP1 PUSH4 0x70A08231 SWAP1 PUSH1 0x24 ADD PUSH1 0x20 PUSH1 0x40 MLOAD DUP1 DUP4 SUB DUP2 DUP7 DUP1 EXTCODESIZE ISZERO DUP1 ISZERO PUSH3 0x1FD4 JUMPI PUSH1 0x0 DUP1 REVERT JUMPDEST POP GAS STATICCALL ISZERO DUP1 ISZERO PUSH3 0x1FE9 JUMPI RETURNDATASIZE PUSH1 0x0 DUP1 RETURNDATACOPY RETURNDATASIZE PUSH1 0x0 REVERT JUMPDEST POP POP POP POP PUSH1 0x40 MLOAD RETURNDATASIZE PUSH1 0x1F NOT PUSH1 0x1F DUP3 ADD AND DUP3 ADD DUP1 PUSH1 0x40 MSTORE POP DUP2 ADD SWAP1 PUSH3 0x200F SWAP2 SWAP1 PUSH3 0x3625 JUMP JUMPDEST PUSH1 0x20 DUP6 ADD MSTORE PUSH1 0x1 PUSH1 0x1 PUSH1 0xA0 SHL SUB DUP8 DUP2 AND PUSH1 0x60 DUP7 ADD DUP2 SWAP1 MSTORE PUSH1 0x40 MLOAD PUSH4 0x70A08231 PUSH1 0xE0 SHL DUP2 MSTORE PUSH1 0x4 DUP2 ADD SWAP2 SWAP1 SWAP2 MSTORE SWAP1 DUP3 AND SWAP1 PUSH4 0x70A08231 SWAP1 PUSH1 0x24 ADD PUSH1 0x20 PUSH1 0x40 MLOAD DUP1 DUP4 SUB DUP2 DUP7 DUP1 EXTCODESIZE ISZERO DUP1 ISZERO PUSH3 0x2061 JUMPI PUSH1 0x0 DUP1 REVERT JUMPDEST POP GAS STATICCALL ISZERO DUP1 ISZERO PUSH3 0x2076 JUMPI RETURNDATASIZE PUSH1 0x0 DUP1 RETURNDATACOPY RETURNDATASIZE PUSH1 0x0 REVERT JUMPDEST POP POP POP POP PUSH1 0x40 MLOAD RETURNDATASIZE PUSH1 0x1F NOT PUSH1 0x1F DUP3 ADD AND DUP3 ADD DUP1 PUSH1 0x40 MSTORE POP DUP2 ADD SWAP1 PUSH3 0x209C SWAP2 SWAP1 PUSH3 0x3625 JUMP JUMPDEST PUSH1 0x80 DUP6 ADD MSTORE GAS PUSH2 0x140 DUP6 ADD MSTORE PUSH1 0x4 SLOAD DUP5 MLOAD PUSH1 0x1 PUSH1 0x1 PUSH1 0xA0 SHL SUB SWAP1 DUP2 AND SWAP2 AND EQ ISZERO PUSH3 0x218B JUMPI PUSH1 0x40 MLOAD PUSH4 0xA9059CBB PUSH1 0xE0 SHL DUP2 MSTORE PUSH1 0x1 PUSH1 0x1 PUSH1 0xA0 SHL SUB DUP9 DUP2 AND PUSH1 0x4 DUP4 ADD MSTORE PUSH1 0x24 DUP3 ADD DUP9 SWAP1 MSTORE DUP3 AND SWAP1 PUSH4 0xA9059CBB SWAP1 PUSH1 0x44 ADD PUSH1 0x20 PUSH1 0x40 MLOAD DUP1 DUP4 SUB DUP2 PUSH1 0x0 DUP8 DUP1 EXTCODESIZE ISZERO DUP1 ISZERO PUSH3 0x210C JUMPI PUSH1 0x0 DUP1 REVERT JUMPDEST POP GAS CALL ISZERO DUP1 ISZERO PUSH3 0x2121 JUMPI RETURNDATASIZE PUSH1 0x0 DUP1 RETURNDATACOPY RETURNDATASIZE PUSH1 0x0 REVERT JUMPDEST POP POP POP POP PUSH1 0x40 MLOAD RETURNDATASIZE PUSH1 0x1F NOT PUSH1 0x1F DUP3 ADD AND DUP3 ADD DUP1 PUSH1 0x40 MSTORE POP DUP2 ADD SWAP1 PUSH3 0x2147 SWAP2 SWAP1 PUSH3 0x33B2 JUMP JUMPDEST PUSH3 0x2185 JUMPI PUSH1 0x40 MLOAD PUSH3 0x461BCD PUSH1 0xE5 SHL DUP2 MSTORE PUSH1 0x20 PUSH1 0x4 DUP3 ADD MSTORE PUSH1 0xD PUSH1 0x24 DUP3 ADD MSTORE PUSH13 0x1D1C985B9CD9995C8819985A5B PUSH1 0x9A SHL PUSH1 0x44 DUP3 ADD MSTORE PUSH1 0x64 ADD PUSH3 0x436 JUMP JUMPDEST PUSH3 0x225B JUMP JUMPDEST PUSH1 0x40 MLOAD PUSH4 0x23B872DD PUSH1 0xE0 SHL DUP2 MSTORE PUSH1 0x1 PUSH1 0x1 PUSH1 0xA0 SHL SUB DUP10 DUP2 AND PUSH1 0x4 DUP4 ADD MSTORE DUP9 DUP2 AND PUSH1 0x24 DUP4 ADD MSTORE PUSH1 0x44 DUP3 ADD DUP9 SWAP1 MSTORE DUP3 AND SWAP1 PUSH4 0x23B872DD SWAP1 PUSH1 0x64 ADD PUSH1 0x20 PUSH1 0x40 MLOAD DUP1 DUP4 SUB DUP2 PUSH1 0x0 DUP8 DUP1 EXTCODESIZE ISZERO DUP1 ISZERO PUSH3 0x21DE JUMPI PUSH1 0x0 DUP1 REVERT JUMPDEST POP GAS CALL ISZERO DUP1 ISZERO PUSH3 0x21F3 JUMPI RETURNDATASIZE PUSH1 0x0 DUP1 RETURNDATACOPY RETURNDATASIZE PUSH1 0x0 REVERT JUMPDEST POP POP POP POP PUSH1 0x40 MLOAD RETURNDATASIZE PUSH1 0x1F NOT PUSH1 0x1F DUP3 ADD AND DUP3 ADD DUP1 PUSH1 0x40 MSTORE POP DUP2 ADD SWAP1 PUSH3 0x2219 SWAP2 SWAP1 PUSH3 0x33B2 JUMP JUMPDEST PUSH3 0x225B JUMPI PUSH1 0x40 MLOAD PUSH3 0x461BCD PUSH1 0xE5 SHL DUP2 MSTORE PUSH1 0x20 PUSH1 0x4 DUP3 ADD MSTORE PUSH1 0x11 PUSH1 0x24 DUP3 ADD MSTORE PUSH17 0x1D1C985B9CD9995C919C9BDB4819985A5B PUSH1 0x7A SHL PUSH1 0x44 DUP3 ADD MSTORE PUSH1 0x64 ADD PUSH3 0x436 JUMP JUMPDEST GAS DUP5 PUSH2 0x140 ADD DUP2 DUP2 MLOAD PUSH3 0x2270 SWAP2 SWAP1 PUSH3 0x3B95 JUMP JUMPDEST SWAP1 MSTORE POP PUSH1 0x40 MLOAD PUSH4 0x70A08231 PUSH1 0xE0 SHL DUP2 MSTORE PUSH1 0x1 PUSH1 0x1 PUSH1 0xA0 SHL SUB DUP9 DUP2 AND PUSH1 0x4 DUP4 ADD MSTORE DUP3 AND SWAP1 PUSH4 0x70A08231 SWAP1 PUSH1 0x24 ADD PUSH1 0x20 PUSH1 0x40 MLOAD DUP1 DUP4 SUB DUP2 DUP7 DUP1 EXTCODESIZE ISZERO DUP1 ISZERO PUSH3 0x22B5 JUMPI PUSH1 0x0 DUP1 REVERT JUMPDEST POP GAS STATICCALL ISZERO DUP1 ISZERO PUSH3 0x22CA JUMPI RETURNDATASIZE PUSH1 0x0 DUP1 RETURNDATACOPY RETURNDATASIZE PUSH1 0x0 REVERT JUMPDEST POP POP POP POP PUSH1 0x40 MLOAD RETURNDATASIZE PUSH1 0x1F NOT PUSH1 0x1F DUP3 ADD AND DUP3 ADD DUP1 PUSH1 0x40 MSTORE POP DUP2 ADD SWAP1 PUSH3 0x22F0 SWAP2 SWAP1 PUSH3 0x3625 JUMP JUMPDEST PUSH1 0xA0 DUP6 ADD MSTORE DUP4 MLOAD PUSH1 0x40 MLOAD PUSH4 0x70A08231 PUSH1 0xE0 SHL DUP2 MSTORE PUSH1 0x1 PUSH1 0x1 PUSH1 0xA0 SHL SUB SWAP2 DUP3 AND PUSH1 0x4 DUP3 ADD MSTORE SWAP1 DUP3 AND SWAP1 PUSH4 0x70A08231 SWAP1 PUSH1 0x24 ADD PUSH1 0x20 PUSH1 0x40 MLOAD DUP1 DUP4 SUB DUP2 DUP7 DUP1 EXTCODESIZE ISZERO DUP1 ISZERO PUSH3 0x233A JUMPI PUSH1 0x0 DUP1 REVERT JUMPDEST POP GAS STATICCALL ISZERO DUP1 ISZERO PUSH3 0x234F JUMPI RETURNDATASIZE PUSH1 0x0 DUP1 RETURNDATACOPY RETURNDATASIZE PUSH1 0x0 REVERT JUMPDEST POP POP POP POP PUSH1 0x40 MLOAD RETURNDATASIZE PUSH1 0x1F NOT PUSH1 0x1F DUP3 ADD AND DUP3 ADD DUP1 PUSH1 0x40 MSTORE POP DUP2 ADD SWAP1 PUSH3 0x2375 SWAP2 SWAP1 PUSH3 0x3625 JUMP JUMPDEST PUSH1 0x40 DUP6 ADD MSTORE DUP5 ISZERO PUSH3 0x252F JUMPI PUSH1 0x9 SLOAD PUSH1 0x5 PUSH1 0x0 SWAP1 SLOAD SWAP1 PUSH2 0x100 EXP SWAP1 DIV PUSH1 0x1 PUSH1 0x1 PUSH1 0xA0 SHL SUB AND PUSH1 0x1 PUSH1 0x1 PUSH1 0xA0 SHL SUB AND PUSH4 0x18160DDD PUSH1 0x40 MLOAD DUP2 PUSH4 0xFFFFFFFF AND PUSH1 0xE0 SHL DUP2 MSTORE PUSH1 0x4 ADD PUSH1 0x20 PUSH1 0x40 MLOAD DUP1 DUP4 SUB DUP2 DUP7 DUP1 EXTCODESIZE ISZERO DUP1 ISZERO PUSH3 0x23D3 JUMPI PUSH1 0x0 DUP1 REVERT JUMPDEST POP GAS STATICCALL ISZERO DUP1 ISZERO PUSH3 0x23E8 JUMPI RETURNDATASIZE PUSH1 0x0 DUP1 RETURNDATACOPY RETURNDATASIZE PUSH1 0x0 REVERT JUMPDEST POP POP POP POP PUSH1 0x40 MLOAD RETURNDATASIZE PUSH1 0x1F NOT PUSH1 0x1F DUP3 ADD AND DUP3 ADD DUP1 PUSH1 0x40 MSTORE POP DUP2 ADD SWAP1 PUSH3 0x240E SWAP2 SWAP1 PUSH3 0x3625 JUMP JUMPDEST GT PUSH2 0x180 DUP6 ADD MSTORE PUSH1 0x5 SLOAD PUSH1 0x40 DUP1 MLOAD PUSH4 0x240BC6B PUSH1 0xE2 SHL DUP2 MSTORE SWAP1 MLOAD PUSH1 0x0 SWAP3 DUP4 SWAP3 PUSH1 0x1 PUSH1 0x1 PUSH1 0xA0 SHL SUB SWAP1 SWAP2 AND SWAP2 PUSH4 0x902F1AC SWAP2 PUSH1 0x4 DUP1 DUP3 ADD SWAP3 PUSH1 0x60 SWAP3 SWAP1 SWAP2 SWAP1 DUP3 SWAP1 SUB ADD DUP2 DUP7 DUP1 EXTCODESIZE ISZERO DUP1 ISZERO PUSH3 0x2460 JUMPI PUSH1 0x0 DUP1 REVERT JUMPDEST POP GAS STATICCALL ISZERO DUP1 ISZERO PUSH3 0x2475 JUMPI RETURNDATASIZE PUSH1 0x0 DUP1 RETURNDATACOPY RETURNDATASIZE PUSH1 0x0 REVERT JUMPDEST POP POP POP POP PUSH1 0x40 MLOAD RETURNDATASIZE PUSH1 0x1F NOT PUSH1 0x1F DUP3 ADD AND DUP3 ADD DUP1 PUSH1 0x40 MSTORE POP DUP2 ADD SWAP1 PUSH3 0x249B SWAP2 SWAP1 PUSH3 0x35CF JUMP JUMPDEST POP PUSH1 0x6 SLOAD PUSH1 0x1 PUSH1 0x1 PUSH1 0x70 SHL SUB SWAP3 DUP4 AND SWAP5 POP SWAP2 AND SWAP2 POP PUSH1 0x1 PUSH1 0x1 PUSH1 0xA0 SHL SUB DUP13 DUP2 AND SWAP2 AND EQ ISZERO PUSH3 0x24F8 JUMPI DUP2 DUP7 PUSH1 0xA0 ADD MLOAD PUSH3 0x24D6 SWAP2 SWAP1 PUSH3 0x3B95 JUMP JUMPDEST PUSH2 0x100 DUP8 ADD MSTORE PUSH1 0x8 SLOAD DUP2 LT PUSH2 0x1A0 DUP8 ADD MSTORE PUSH1 0x7 SLOAD DUP3 LT PUSH2 0x1C0 DUP8 ADD MSTORE PUSH3 0x2527 JUMP JUMPDEST DUP1 DUP7 PUSH1 0xA0 ADD MLOAD PUSH3 0x250A SWAP2 SWAP1 PUSH3 0x3B95 JUMP JUMPDEST PUSH2 0x100 DUP8 ADD MSTORE PUSH1 0x7 SLOAD DUP3 LT PUSH2 0x1A0 DUP8 ADD MSTORE PUSH1 0x8 SLOAD DUP2 LT PUSH2 0x1C0 DUP8 ADD MSTORE JUMPDEST POP POP PUSH3 0x254C JUMP JUMPDEST DUP4 PUSH1 0x80 ADD MLOAD DUP5 PUSH1 0xA0 ADD MLOAD PUSH3 0x2545 SWAP2 SWAP1 PUSH3 0x3B95 JUMP JUMPDEST PUSH2 0x100 DUP6 ADD MSTORE JUMPDEST PUSH1 0x40 DUP5 ADD MLOAD PUSH1 0x20 DUP6 ADD MLOAD SUB PUSH1 0xE0 DUP6 ADD DUP2 SWAP1 MSTORE DUP1 DUP8 SUB PUSH2 0x120 DUP7 ADD MSTORE PUSH2 0x100 DUP6 ADD MLOAD PUSH3 0x2578 SWAP2 PUSH3 0x2C57 JUMP JUMPDEST PUSH2 0x160 DUP6 ADD MSTORE POP DUP1 ISZERO PUSH3 0x25A6 JUMPI PUSH1 0x6 DUP1 SLOAD PUSH1 0x1 PUSH1 0x1 PUSH1 0xA0 SHL SUB NOT AND SWAP1 SSTORE PUSH1 0x0 PUSH1 0x7 DUP2 SWAP1 SSTORE PUSH1 0x8 DUP2 SWAP1 SSTORE PUSH1 0x9 SSTORE JUMPDEST POP POP SWAP6 SWAP5 POP POP POP POP POP JUMP JUMPDEST PUSH3 0x25BB PUSH3 0x2D5B JUMP JUMPDEST DUP5 PUSH1 0x0 DUP6 ISZERO PUSH3 0x2640 JUMPI DUP2 PUSH1 0x1 PUSH1 0x1 PUSH1 0xA0 SHL SUB AND PUSH4 0xDFE1681 PUSH1 0x40 MLOAD DUP2 PUSH4 0xFFFFFFFF AND PUSH1 0xE0 SHL DUP2 MSTORE PUSH1 0x4 ADD PUSH1 0x20 PUSH1 0x40 MLOAD DUP1 DUP4 SUB DUP2 DUP7 DUP1 EXTCODESIZE ISZERO DUP1 ISZERO PUSH3 0x25FF JUMPI PUSH1 0x0 DUP1 REVERT JUMPDEST POP GAS STATICCALL ISZERO DUP1 ISZERO PUSH3 0x2614 JUMPI RETURNDATASIZE PUSH1 0x0 DUP1 RETURNDATACOPY RETURNDATASIZE PUSH1 0x0 REVERT JUMPDEST POP POP POP POP PUSH1 0x40 MLOAD RETURNDATASIZE PUSH1 0x1F NOT PUSH1 0x1F DUP3 ADD AND DUP3 ADD DUP1 PUSH1 0x40 MSTORE POP DUP2 ADD SWAP1 PUSH3 0x263A SWAP2 SWAP1 PUSH3 0x30DE JUMP JUMPDEST PUSH3 0x26B5 JUMP JUMPDEST DUP2 PUSH1 0x1 PUSH1 0x1 PUSH1 0xA0 SHL SUB AND PUSH4 0xD21220A7 PUSH1 0x40 MLOAD DUP2 PUSH4 0xFFFFFFFF AND PUSH1 0xE0 SHL DUP2 MSTORE PUSH1 0x4 ADD PUSH1 0x20 PUSH1 0x40 MLOAD DUP1 DUP4 SUB DUP2 DUP7 DUP1 EXTCODESIZE ISZERO DUP1 ISZERO PUSH3 0x267A JUMPI PUSH1 0x0 DUP1 REVERT JUMPDEST POP GAS STATICCALL ISZERO DUP1 ISZERO PUSH3 0x268F JUMPI RETURNDATASIZE PUSH1 0x0 DUP1 RETURNDATACOPY RETURNDATASIZE PUSH1 0x0 REVERT JUMPDEST POP POP POP POP PUSH1 0x40 MLOAD RETURNDATASIZE PUSH1 0x1F NOT PUSH1 0x1F DUP3 ADD AND DUP3 ADD DUP1 PUSH1 0x40 MSTORE POP DUP2 ADD SWAP1 PUSH3 0x26B5 SWAP2 SWAP1 PUSH3 0x30DE JUMP JUMPDEST SWAP1 POP DUP6 ISZERO PUSH3 0x26C5 JUMPI DUP6 PUSH3 0x26C7 JUMP JUMPDEST DUP5 JUMPDEST PUSH1 0xC0 DUP5 ADD MSTORE PUSH1 0x1 PUSH1 0x1 PUSH1 0xA0 SHL SUB DUP8 DUP2 AND DUP1 DUP6 MSTORE PUSH1 0x40 MLOAD PUSH4 0x70A08231 PUSH1 0xE0 SHL DUP2 MSTORE PUSH1 0x4 DUP2 ADD SWAP2 SWAP1 SWAP2 MSTORE SWAP1 DUP3 AND SWAP1 PUSH4 0x70A08231 SWAP1 PUSH1 0x24 ADD PUSH1 0x20 PUSH1 0x40 MLOAD DUP1 DUP4 SUB DUP2 DUP7 DUP1 EXTCODESIZE ISZERO DUP1 ISZERO PUSH3 0x2715 JUMPI PUSH1 0x0 DUP1 REVERT JUMPDEST POP GAS STATICCALL ISZERO DUP1 ISZERO PUSH3 0x272A JUMPI RETURNDATASIZE PUSH1 0x0 DUP1 RETURNDATACOPY RETURNDATASIZE PUSH1 0x0 REVERT JUMPDEST POP POP POP POP PUSH1 0x40 MLOAD RETURNDATASIZE PUSH1 0x1F NOT PUSH1 0x1F DUP3 ADD AND DUP3 ADD DUP1 PUSH1 0x40 MSTORE POP DUP2 ADD SWAP1 PUSH3 0x2750 SWAP2 SWAP1 PUSH3 0x3625 JUMP JUMPDEST PUSH1 0x20 DUP5 ADD MSTORE PUSH1 0x1 PUSH1 0x1 PUSH1 0xA0 SHL SUB DUP5 DUP2 AND PUSH1 0x60 DUP6 ADD DUP2 SWAP1 MSTORE PUSH1 0x40 MLOAD PUSH4 0x70A08231 PUSH1 0xE0 SHL DUP2 MSTORE PUSH1 0x4 DUP2 ADD SWAP2 SWAP1 SWAP2 MSTORE SWAP1 DUP3 AND SWAP1 PUSH4 0x70A08231 SWAP1 PUSH1 0x24 ADD PUSH1 0x20 PUSH1 0x40 MLOAD DUP1 DUP4 SUB DUP2 DUP7 DUP1 EXTCODESIZE ISZERO DUP1 ISZERO PUSH3 0x27A2 JUMPI PUSH1 0x0 DUP1 REVERT JUMPDEST POP GAS STATICCALL ISZERO DUP1 ISZERO PUSH3 0x27B7 JUMPI RETURNDATASIZE PUSH1 0x0 DUP1 RETURNDATACOPY RETURNDATASIZE PUSH1 0x0 REVERT JUMPDEST POP POP POP POP PUSH1 0x40 MLOAD RETURNDATASIZE PUSH1 0x1F NOT PUSH1 0x1F DUP3 ADD AND DUP3 ADD DUP1 PUSH1 0x40 MSTORE POP DUP2 ADD SWAP1 PUSH3 0x27DD SWAP2 SWAP1 PUSH3 0x3625 JUMP JUMPDEST PUSH1 0x80 DUP5 ADD MSTORE GAS PUSH2 0x140 DUP5 ADD MSTORE PUSH1 0x40 DUP1 MLOAD PUSH1 0x0 DUP2 MSTORE PUSH1 0x20 DUP2 ADD SWAP2 DUP3 SWAP1 MSTORE PUSH4 0x22C0D9F PUSH1 0xE0 SHL SWAP1 SWAP2 MSTORE PUSH1 0x1 PUSH1 0x1 PUSH1 0xA0 SHL SUB DUP4 AND SWAP1 PUSH4 0x22C0D9F SWAP1 PUSH3 0x282A SWAP1 DUP10 SWAP1 DUP10 SWAP1 DUP10 SWAP1 PUSH1 0x24 DUP2 ADD PUSH3 0x3A3F JUMP JUMPDEST PUSH1 0x0 PUSH1 0x40 MLOAD DUP1 DUP4 SUB DUP2 PUSH1 0x0 DUP8 DUP1 EXTCODESIZE ISZERO DUP1 ISZERO PUSH3 0x2845 JUMPI PUSH1 0x0 DUP1 REVERT JUMPDEST POP GAS CALL ISZERO DUP1 ISZERO PUSH3 0x285A JUMPI RETURNDATASIZE PUSH1 0x0 DUP1 RETURNDATACOPY RETURNDATASIZE PUSH1 0x0 REVERT JUMPDEST POP POP POP POP GAS DUP4 PUSH2 0x140 ADD DUP2 DUP2 MLOAD PUSH3 0x2873 SWAP2 SWAP1 PUSH3 0x3B95 JUMP JUMPDEST SWAP1 MSTORE POP PUSH1 0x40 MLOAD PUSH4 0x70A08231 PUSH1 0xE0 SHL DUP2 MSTORE PUSH1 0x1 PUSH1 0x1 PUSH1 0xA0 SHL SUB DUP9 DUP2 AND PUSH1 0x4 DUP4 ADD MSTORE DUP3 AND SWAP1 PUSH4 0x70A08231 SWAP1 PUSH1 0x24 ADD PUSH1 0x20 PUSH1 0x40 MLOAD DUP1 DUP4 SUB DUP2 DUP7 DUP1 EXTCODESIZE ISZERO DUP1 ISZERO PUSH3 0x28B8 JUMPI PUSH1 0x0 DUP1 REVERT JUMPDEST POP GAS STATICCALL ISZERO DUP1 ISZERO PUSH3 0x28CD JUMPI RETURNDATASIZE PUSH1 0x0 DUP1 RETURNDATACOPY RETURNDATASIZE PUSH1 0x0 REVERT JUMPDEST POP POP POP POP PUSH1 0x40 MLOAD RETURNDATASIZE PUSH1 0x1F NOT PUSH1 0x1F DUP3 ADD AND DUP3 ADD DUP1 PUSH1 0x40 MSTORE POP DUP2 ADD SWAP1 PUSH3 0x28F3 SWAP2 SWAP1 PUSH3 0x3625 JUMP JUMPDEST PUSH1 0x40 DUP5 DUP2 ADD SWAP2 SWAP1 SWAP2 MSTORE MLOAD PUSH4 0x70A08231 PUSH1 0xE0 SHL DUP2 MSTORE PUSH1 0x1 PUSH1 0x1 PUSH1 0xA0 SHL SUB DUP6 DUP2 AND PUSH1 0x4 DUP4 ADD MSTORE DUP3 AND SWAP1 PUSH4 0x70A08231 SWAP1 PUSH1 0x24 ADD PUSH1 0x20 PUSH1 0x40 MLOAD DUP1 DUP4 SUB DUP2 DUP7 DUP1 EXTCODESIZE ISZERO DUP1 ISZERO PUSH3 0x293C JUMPI PUSH1 0x0 DUP1 REVERT JUMPDEST POP GAS STATICCALL ISZERO DUP1 ISZERO PUSH3 0x2951 JUMPI RETURNDATASIZE PUSH1 0x0 DUP1 RETURNDATACOPY RETURNDATASIZE PUSH1 0x0 REVERT JUMPDEST POP POP POP POP PUSH1 0x40 MLOAD RETURNDATASIZE PUSH1 0x1F NOT PUSH1 0x1F DUP3 ADD AND DUP3 ADD DUP1 PUSH1 0x40 MSTORE POP DUP2 ADD SWAP1 PUSH3 0x2977 SWAP2 SWAP1 PUSH3 0x3625 JUMP JUMPDEST PUSH1 0xA0 DUP5 ADD DUP2 SWAP1 MSTORE PUSH1 0x80 DUP5 ADD MLOAD SWAP1 SUB PUSH2 0x100 DUP5 ADD DUP2 SWAP1 MSTORE PUSH1 0x40 DUP5 ADD MLOAD PUSH1 0x20 DUP6 ADD MLOAD SUB PUSH1 0xE0 DUP6 ADD DUP2 SWAP1 MSTORE PUSH1 0xC0 DUP6 ADD MLOAD DUP2 SWAP1 SUB PUSH2 0x120 DUP7 ADD MSTORE PUSH3 0x29B9 SWAP2 SWAP1 PUSH3 0x2C57 JUMP JUMPDEST PUSH2 0x160 DUP5 ADD MSTORE POP POP SWAP5 SWAP4 POP POP POP POP JUMP JUMPDEST PUSH1 0x4 SLOAD PUSH1 0x0 SWAP1 PUSH1 0x1 PUSH1 0x1 PUSH1 0xA0 SHL SUB DUP5 DUP2 AND SWAP2 AND EQ ISZERO PUSH3 0x29F6 JUMPI POP PUSH1 0x4 SLOAD PUSH1 0x1 PUSH1 0x1 PUSH1 0xA0 SHL SUB AND PUSH3 0x2C50 JUMP JUMPDEST PUSH1 0x4 DUP1 SLOAD PUSH1 0x40 MLOAD PUSH4 0x6EB1769F PUSH1 0xE1 SHL DUP2 MSTORE PUSH1 0x1 PUSH1 0x1 PUSH1 0xA0 SHL SUB DUP7 DUP2 AND SWAP4 DUP3 ADD SWAP4 SWAP1 SWAP4 MSTORE SWAP1 DUP3 AND PUSH1 0x24 DUP3 ADD MSTORE DUP4 SWAP2 DUP7 AND SWAP1 PUSH4 0xDD62ED3E SWAP1 PUSH1 0x44 ADD PUSH1 0x20 PUSH1 0x40 MLOAD DUP1 DUP4 SUB DUP2 DUP7 DUP1 EXTCODESIZE ISZERO DUP1 ISZERO PUSH3 0x2A48 JUMPI PUSH1 0x0 DUP1 REVERT JUMPDEST POP GAS STATICCALL ISZERO DUP1 ISZERO PUSH3 0x2A5D JUMPI RETURNDATASIZE PUSH1 0x0 DUP1 RETURNDATACOPY RETURNDATASIZE PUSH1 0x0 REVERT JUMPDEST POP POP POP POP PUSH1 0x40 MLOAD RETURNDATASIZE PUSH1 0x1F NOT PUSH1 0x1F DUP3 ADD AND DUP3 ADD DUP1 PUSH1 0x40 MSTORE POP DUP2 ADD SWAP1 PUSH3 0x2A83 SWAP2 SWAP1 PUSH3 0x3625 JUMP JUMPDEST LT ISZERO DUP1 ISZERO PUSH3 0x2B10 JUMPI POP PUSH1 0x40 MLOAD PUSH4 0x70A08231 PUSH1 0xE0 SHL DUP2 MSTORE PUSH1 0x1 PUSH1 0x1 PUSH1 0xA0 SHL SUB DUP5 DUP2 AND PUSH1 0x4 DUP4 ADD MSTORE DUP4 SWAP2 SWAP1 DUP7 AND SWAP1 PUSH4 0x70A08231 SWAP1 PUSH1 0x24 ADD PUSH1 0x20 PUSH1 0x40 MLOAD DUP1 DUP4 SUB DUP2 DUP7 DUP1 EXTCODESIZE ISZERO DUP1 ISZERO PUSH3 0x2AD2 JUMPI PUSH1 0x0 DUP1 REVERT JUMPDEST POP GAS STATICCALL ISZERO DUP1 ISZERO PUSH3 0x2AE7 JUMPI RETURNDATASIZE PUSH1 0x0 DUP1 RETURNDATACOPY RETURNDATASIZE PUSH1 0x0 REVERT JUMPDEST POP POP POP POP PUSH1 0x40 MLOAD RETURNDATASIZE PUSH1 0x1F NOT PUSH1 0x1F DUP3 ADD AND DUP3 ADD DUP1 PUSH1 0x40 MSTORE POP DUP2 ADD SWAP1 PUSH3 0x2B0D SWAP2 SWAP1 PUSH3 0x3625 JUMP JUMPDEST LT ISZERO JUMPDEST ISZERO PUSH3 0x2B1E JUMPI POP DUP2 PUSH3 0x2C50 JUMP JUMPDEST PUSH1 0x4 DUP1 SLOAD PUSH1 0x40 MLOAD PUSH4 0x6EB1769F PUSH1 0xE1 SHL DUP2 MSTORE ORIGIN SWAP3 DUP2 ADD SWAP3 SWAP1 SWAP3 MSTORE PUSH1 0x1 PUSH1 0x1 PUSH1 0xA0 SHL SUB SWAP1 DUP2 AND PUSH1 0x24 DUP4 ADD MSTORE DUP4 SWAP2 SWAP1 DUP7 AND SWAP1 PUSH4 0xDD62ED3E SWAP1 PUSH1 0x44 ADD PUSH1 0x20 PUSH1 0x40 MLOAD DUP1 DUP4 SUB DUP2 DUP7 DUP1 EXTCODESIZE ISZERO DUP1 ISZERO PUSH3 0x2B6F JUMPI PUSH1 0x0 DUP1 REVERT JUMPDEST POP GAS STATICCALL ISZERO DUP1 ISZERO PUSH3 0x2B84 JUMPI RETURNDATASIZE PUSH1 0x0 DUP1 RETURNDATACOPY RETURNDATASIZE PUSH1 0x0 REVERT JUMPDEST POP POP POP POP PUSH1 0x40 MLOAD RETURNDATASIZE PUSH1 0x1F NOT PUSH1 0x1F DUP3 ADD AND DUP3 ADD DUP1 PUSH1 0x40 MSTORE POP DUP2 ADD SWAP1 PUSH3 0x2BAA SWAP2 SWAP1 PUSH3 0x3625 JUMP JUMPDEST LT ISZERO DUP1 ISZERO PUSH3 0x2C34 JUMPI POP PUSH1 0x40 MLOAD PUSH4 0x70A08231 PUSH1 0xE0 SHL DUP2 MSTORE ORIGIN PUSH1 0x4 DUP3 ADD MSTORE DUP3 SWAP1 PUSH1 0x1 PUSH1 0x1 PUSH1 0xA0 SHL SUB DUP7 AND SWAP1 PUSH4 0x70A08231 SWAP1 PUSH1 0x24 ADD PUSH1 0x20 PUSH1 0x40 MLOAD DUP1 DUP4 SUB DUP2 DUP7 DUP1 EXTCODESIZE ISZERO DUP1 ISZERO PUSH3 0x2BF6 JUMPI PUSH1 0x0 DUP1 REVERT JUMPDEST POP GAS STATICCALL ISZERO DUP1 ISZERO PUSH3 0x2C0B JUMPI RETURNDATASIZE PUSH1 0x0 DUP1 RETURNDATACOPY RETURNDATASIZE PUSH1 0x0 REVERT JUMPDEST POP POP POP POP PUSH1 0x40 MLOAD RETURNDATASIZE PUSH1 0x1F NOT PUSH1 0x1F DUP3 ADD AND DUP3 ADD DUP1 PUSH1 0x40 MSTORE POP DUP2 ADD SWAP1 PUSH3 0x2C31 SWAP2 SWAP1 PUSH3 0x3625 JUMP JUMPDEST LT ISZERO JUMPDEST ISZERO PUSH3 0x2C42 JUMPI POP ORIGIN PUSH3 0x2C50 JUMP JUMPDEST POP PUSH1 0x4 SLOAD PUSH1 0x1 PUSH1 0x1 PUSH1 0xA0 SHL SUB AND JUMPDEST SWAP4 SWAP3 POP POP POP JUMP JUMPDEST PUSH1 0x0 DUP2 PUSH3 0x2C68 JUMPI POP PUSH1 0x0 PUSH3 0x2C94 JUMP JUMPDEST DUP2 PUSH3 0x2C77 DUP5 PUSH2 0x2710 PUSH3 0x3B2E JUMP JUMPDEST PUSH3 0x2C83 SWAP2 SWAP1 PUSH3 0x3B0B JUMP JUMPDEST PUSH3 0x2C91 SWAP1 PUSH2 0x2710 PUSH3 0x3B50 JUMP JUMPDEST SWAP1 POP JUMPDEST SWAP3 SWAP2 POP POP JUMP JUMPDEST PUSH1 0x40 MLOAD DUP1 PUSH2 0x100 ADD PUSH1 0x40 MSTORE DUP1 PUSH1 0x0 DUP2 MSTORE PUSH1 0x20 ADD PUSH1 0x0 DUP2 MSTORE PUSH1 0x20 ADD PUSH3 0x2CBE PUSH3 0x2D10 JUMP JUMPDEST DUP2 MSTORE PUSH1 0x20 ADD PUSH3 0x2CCD PUSH3 0x2D10 JUMP JUMPDEST DUP2 MSTORE PUSH1 0x20 ADD PUSH3 0x2CDC PUSH3 0x2D10 JUMP JUMPDEST DUP2 MSTORE PUSH1 0x40 DUP1 MLOAD PUSH1 0x60 DUP2 ADD DUP3 MSTORE PUSH1 0x0 DUP1 DUP3 MSTORE PUSH1 0x20 DUP3 DUP2 ADD DUP3 SWAP1 MSTORE SWAP3 DUP3 ADD MSTORE SWAP2 ADD SWAP1 DUP2 MSTORE PUSH1 0x20 ADD PUSH1 0x0 DUP2 MSTORE PUSH1 0x20 ADD PUSH1 0x0 DUP2 MSTORE POP SWAP1 JUMP JUMPDEST PUSH1 0x40 DUP1 MLOAD PUSH1 0xA0 DUP2 ADD DUP3 MSTORE PUSH1 0x0 DUP1 DUP3 MSTORE PUSH1 0x20 DUP3 ADD MSTORE SWAP1 DUP2 ADD PUSH3 0x2D31 PUSH3 0x2D5B JUMP JUMPDEST DUP2 MSTORE PUSH1 0x20 ADD PUSH3 0x2D40 PUSH3 0x2D5B JUMP JUMPDEST DUP2 MSTORE PUSH1 0x20 ADD PUSH1 0x60 DUP2 MSTORE POP SWAP1 JUMP JUMPDEST PUSH2 0x2D1 DUP1 PUSH3 0x3D49 DUP4 CODECOPY ADD SWAP1 JUMP JUMPDEST PUSH1 0x40 MLOAD DUP1 PUSH2 0x1E0 ADD PUSH1 0x40 MSTORE DUP1 PUSH1 0x0 PUSH1 0x1 PUSH1 0x1 PUSH1 0xA0 SHL SUB AND DUP2 MSTORE PUSH1 0x20 ADD PUSH1 0x0 DUP2 MSTORE PUSH1 0x20 ADD PUSH1 0x0 DUP2 MSTORE PUSH1 0x20 ADD PUSH1 0x0 PUSH1 0x1 PUSH1 0x1 PUSH1 0xA0 SHL SUB AND DUP2 MSTORE PUSH1 0x20 ADD PUSH1 0x0 DUP2 MSTORE PUSH1 0x20 ADD PUSH1 0x0 DUP2 MSTORE PUSH1 0x20 ADD PUSH1 0x0 DUP2 MSTORE PUSH1 0x20 ADD PUSH1 0x0 DUP2 MSTORE PUSH1 0x20 ADD PUSH1 0x0 DUP2 MSTORE PUSH1 0x20 ADD PUSH1 0x0 DUP2 MSTORE PUSH1 0x20 ADD PUSH1 0x0 DUP2 MSTORE PUSH1 0x20 ADD PUSH1 0x0 DUP2 MSTORE PUSH1 0x20 ADD PUSH1 0x0 ISZERO ISZERO DUP2 MSTORE PUSH1 0x20 ADD PUSH1 0x0 ISZERO ISZERO DUP2 MSTORE PUSH1 0x20 ADD PUSH1 0x0 ISZERO ISZERO DUP2 MSTORE POP SWAP1 JUMP JUMPDEST DUP1 CALLDATALOAD PUSH3 0x2DF6 DUP2 PUSH3 0x3D2F JUMP JUMPDEST SWAP2 SWAP1 POP JUMP JUMPDEST DUP1 MLOAD PUSH3 0x2DF6 DUP2 PUSH3 0x3D2F JUMP JUMPDEST DUP1 MLOAD DUP1 ISZERO ISZERO DUP2 EQ PUSH3 0x2DF6 JUMPI PUSH1 0x0 DUP1 REVERT JUMPDEST PUSH1 0x0 DUP3 PUSH1 0x1F DUP4 ADD SLT PUSH3 0x2E2B JUMPI PUSH1 0x0 DUP1 REVERT JUMPDEST DUP2 MLOAD PUSH1 0x1 PUSH1 0x1 PUSH1 0x40 SHL SUB DUP2 GT ISZERO PUSH3 0x2E47 JUMPI PUSH3 0x2E47 PUSH3 0x3C6D JUMP JUMPDEST PUSH1 0x40 MLOAD PUSH3 0x2E60 PUSH1 0x1F DUP4 ADD PUSH1 0x1F NOT AND PUSH1 0x20 ADD DUP3 PUSH3 0x3BDE JUMP JUMPDEST DUP2 DUP2 MSTORE DUP5 PUSH1 0x20 DUP4 DUP7 ADD ADD GT ISZERO PUSH3 0x2E76 JUMPI PUSH1 0x0 DUP1 REVERT JUMPDEST PUSH3 0x2E89 DUP3 PUSH1 0x20 DUP4 ADD PUSH1 0x20 DUP8 ADD PUSH3 0x3BAF JUMP JUMPDEST SWAP5 SWAP4 POP POP POP POP JUMP JUMPDEST PUSH1 0x0 PUSH1 0x60 DUP3 DUP5 SUB SLT ISZERO PUSH3 0x2EA4 JUMPI PUSH1 0x0 DUP1 REVERT JUMPDEST PUSH1 0x40 MLOAD PUSH1 0x60 DUP2 ADD DUP2 DUP2 LT PUSH1 0x1 PUSH1 0x1 PUSH1 0x40 SHL SUB DUP3 GT OR ISZERO PUSH3 0x2EC9 JUMPI PUSH3 0x2EC9 PUSH3 0x3C6D JUMP JUMPDEST DUP1 PUSH1 0x40 MSTORE POP DUP1 SWAP2 POP DUP3 MLOAD PUSH3 0x2EDE DUP2 PUSH3 0x3D2F JUMP JUMPDEST DUP1 DUP3 MSTORE POP PUSH1 0x20 DUP4 ADD MLOAD PUSH1 0x20 DUP3 ADD MSTORE PUSH1 0x40 DUP4 ADD MLOAD PUSH1 0x40 DUP3 ADD MSTORE POP SWAP3 SWAP2 POP POP JUMP JUMPDEST PUSH1 0x0 PUSH2 0x1E0 DUP3 DUP5 SUB SLT ISZERO PUSH3 0x2F11 JUMPI PUSH1 0x0 DUP1 REVERT JUMPDEST PUSH3 0x2F1B PUSH3 0x3A78 JUMP JUMPDEST SWAP1 POP PUSH3 0x2F28 DUP3 PUSH3 0x2DFB JUMP JUMPDEST DUP2 MSTORE PUSH1 0x20 DUP3 ADD MLOAD PUSH1 0x20 DUP3 ADD MSTORE PUSH1 0x40 DUP3 ADD MLOAD PUSH1 0x40 DUP3 ADD MSTORE PUSH3 0x2F4C PUSH1 0x60 DUP4 ADD PUSH3 0x2DFB JUMP JUMPDEST PUSH1 0x60 DUP3 ADD MSTORE PUSH1 0x80 DUP3 ADD MLOAD PUSH1 0x80 DUP3 ADD MSTORE PUSH1 0xA0 DUP3 ADD MLOAD PUSH1 0xA0 DUP3 ADD MSTORE PUSH1 0xC0 DUP3 ADD MLOAD PUSH1 0xC0 DUP3 ADD MSTORE PUSH1 0xE0 DUP3 ADD MLOAD PUSH1 0xE0 DUP3 ADD MSTORE PUSH2 0x100 DUP1 DUP4 ADD MLOAD DUP2 DUP4 ADD MSTORE POP PUSH2 0x120 DUP1 DUP4 ADD MLOAD DUP2 DUP4 ADD MSTORE POP PUSH2 0x140 DUP1 DUP4 ADD MLOAD DUP2 DUP4 ADD MSTORE POP PUSH2 0x160 DUP1 DUP4 ADD MLOAD DUP2 DUP4 ADD MSTORE POP PUSH2 0x180 PUSH3 0x2FB9 DUP2 DUP5 ADD PUSH3 0x2E08 JUMP JUMPDEST SWAP1 DUP3 ADD MSTORE PUSH2 0x1A0 PUSH3 0x2FCD DUP4 DUP3 ADD PUSH3 0x2E08 JUMP JUMPDEST SWAP1 DUP3 ADD MSTORE PUSH2 0x1C0 PUSH3 0x2FE1 DUP4 DUP3 ADD PUSH3 0x2E08 JUMP JUMPDEST SWAP1 DUP3 ADD MSTORE SWAP3 SWAP2 POP POP JUMP JUMPDEST PUSH1 0x0 PUSH2 0x420 DUP3 DUP5 SUB SLT ISZERO PUSH3 0x2FFF JUMPI PUSH1 0x0 DUP1 REVERT JUMPDEST PUSH1 0x40 MLOAD PUSH1 0xA0 DUP2 ADD PUSH1 0x1 PUSH1 0x1 PUSH1 0x40 SHL SUB DUP3 DUP3 LT DUP2 DUP4 GT OR ISZERO PUSH3 0x3025 JUMPI PUSH3 0x3025 PUSH3 0x3C6D JUMP JUMPDEST DUP2 PUSH1 0x40 MSTORE DUP3 SWAP4 POP DUP5 MLOAD SWAP2 POP PUSH1 0x3 DUP3 LT PUSH3 0x303E JUMPI PUSH1 0x0 DUP1 REVERT JUMPDEST DUP2 DUP4 MSTORE PUSH1 0x20 DUP6 ADD MLOAD PUSH1 0x20 DUP5 ADD MSTORE PUSH3 0x305A DUP7 PUSH1 0x40 DUP8 ADD PUSH3 0x2EFD JUMP JUMPDEST PUSH1 0x40 DUP5 ADD MSTORE PUSH3 0x306F DUP7 PUSH2 0x220 DUP8 ADD PUSH3 0x2EFD JUMP JUMPDEST PUSH1 0x60 DUP5 ADD MSTORE PUSH2 0x400 DUP6 ADD MLOAD SWAP2 POP DUP1 DUP3 GT ISZERO PUSH3 0x308A JUMPI PUSH1 0x0 DUP1 REVERT JUMPDEST POP PUSH3 0x3099 DUP6 DUP3 DUP7 ADD PUSH3 0x2E19 JUMP JUMPDEST PUSH1 0x80 DUP4 ADD MSTORE POP POP SWAP3 SWAP2 POP POP JUMP JUMPDEST DUP1 MLOAD PUSH1 0x1 PUSH1 0x1 PUSH1 0x70 SHL SUB DUP2 AND DUP2 EQ PUSH3 0x2DF6 JUMPI PUSH1 0x0 DUP1 REVERT JUMPDEST PUSH1 0x0 PUSH1 0x20 DUP3 DUP5 SUB SLT ISZERO PUSH3 0x30D1 JUMPI PUSH1 0x0 DUP1 REVERT JUMPDEST DUP2 CALLDATALOAD PUSH3 0x2C50 DUP2 PUSH3 0x3D2F JUMP JUMPDEST PUSH1 0x0 PUSH1 0x20 DUP3 DUP5 SUB SLT ISZERO PUSH3 0x30F1 JUMPI PUSH1 0x0 DUP1 REVERT JUMPDEST DUP2 MLOAD PUSH3 0x2C50 DUP2 PUSH3 0x3D2F JUMP JUMPDEST PUSH1 0x0 DUP1 PUSH1 0x0 DUP1 PUSH1 0x0 DUP1 PUSH1 0x0 PUSH1 0xE0 DUP9 DUP11 SUB SLT ISZERO PUSH3 0x311A JUMPI PUSH1 0x0 DUP1 REVERT JUMPDEST DUP8 CALLDATALOAD PUSH3 0x3127 DUP2 PUSH3 0x3D2F JUMP JUMPDEST SWAP7 POP PUSH1 0x20 DUP9 ADD CALLDATALOAD PUSH3 0x3139 DUP2 PUSH3 0x3D2F JUMP JUMPDEST SWAP6 POP PUSH1 0x40 DUP9 ADD CALLDATALOAD PUSH3 0x314B DUP2 PUSH3 0x3D2F JUMP JUMPDEST SWAP5 POP PUSH1 0x60 DUP9 ADD CALLDATALOAD PUSH3 0x315D DUP2 PUSH3 0x3D2F JUMP JUMPDEST SWAP4 POP PUSH1 0x80 DUP9 ADD CALLDATALOAD PUSH3 0x316F DUP2 PUSH3 0x3D2F JUMP JUMPDEST SWAP7 SWAP10 SWAP6 SWAP9 POP SWAP4 SWAP7 SWAP3 SWAP6 SWAP5 PUSH1 0xA0 DUP5 ADD CALLDATALOAD SWAP5 POP PUSH1 0xC0 SWAP1 SWAP4 ADD CALLDATALOAD SWAP3 SWAP2 POP POP JUMP JUMPDEST PUSH1 0x0 DUP1 PUSH1 0x0 DUP1 PUSH1 0x80 DUP6 DUP8 SUB SLT ISZERO PUSH3 0x31A3 JUMPI PUSH1 0x0 DUP1 REVERT JUMPDEST DUP5 CALLDATALOAD PUSH3 0x31B0 DUP2 PUSH3 0x3D2F JUMP JUMPDEST SWAP4 POP PUSH1 0x20 DUP6 ADD CALLDATALOAD PUSH3 0x31C2 DUP2 PUSH3 0x3D2F JUMP JUMPDEST SWAP3 POP PUSH1 0x40 DUP6 ADD CALLDATALOAD PUSH3 0x31D4 DUP2 PUSH3 0x3D2F JUMP JUMPDEST SWAP4 SWAP7 SWAP3 SWAP6 POP SWAP3 SWAP4 PUSH1 0x60 ADD CALLDATALOAD SWAP3 POP POP JUMP JUMPDEST PUSH1 0x0 PUSH1 0x20 DUP1 DUP4 DUP6 SUB SLT ISZERO PUSH3 0x31F8 JUMPI PUSH1 0x0 DUP1 REVERT JUMPDEST DUP3 CALLDATALOAD PUSH1 0x1 PUSH1 0x1 PUSH1 0x40 SHL SUB DUP2 GT ISZERO PUSH3 0x320F JUMPI PUSH1 0x0 DUP1 REVERT JUMPDEST DUP4 ADD PUSH1 0x1F DUP2 ADD DUP6 SGT PUSH3 0x3221 JUMPI PUSH1 0x0 DUP1 REVERT JUMPDEST DUP1 CALLDATALOAD PUSH3 0x322E DUP2 PUSH3 0x3ACA JUMP JUMPDEST PUSH1 0x40 MLOAD PUSH3 0x323D DUP3 DUP3 PUSH3 0x3BDE JUMP JUMPDEST DUP3 DUP2 MSTORE DUP5 DUP2 ADD SWAP2 POP DUP4 DUP6 ADD PUSH1 0x5 DUP5 SWAP1 SHL DUP6 ADD DUP7 ADD DUP10 LT ISZERO PUSH3 0x325E JUMPI PUSH1 0x0 DUP1 REVERT JUMPDEST PUSH1 0x0 SWAP5 POP JUMPDEST DUP4 DUP6 LT ISZERO PUSH3 0x328E JUMPI DUP1 CALLDATALOAD PUSH3 0x3279 DUP2 PUSH3 0x3D2F JUMP JUMPDEST DUP4 MSTORE PUSH1 0x1 SWAP5 SWAP1 SWAP5 ADD SWAP4 SWAP2 DUP6 ADD SWAP2 DUP6 ADD PUSH3 0x3263 JUMP JUMPDEST POP SWAP8 SWAP7 POP POP POP POP POP POP POP JUMP JUMPDEST PUSH1 0x0 DUP1 PUSH1 0x20 DUP4 DUP6 SUB SLT ISZERO PUSH3 0x32AE JUMPI PUSH1 0x0 DUP1 REVERT JUMPDEST DUP3 CALLDATALOAD PUSH1 0x1 PUSH1 0x1 PUSH1 0x40 SHL SUB DUP1 DUP3 GT ISZERO PUSH3 0x32C6 JUMPI PUSH1 0x0 DUP1 REVERT JUMPDEST DUP2 DUP6 ADD SWAP2 POP DUP6 PUSH1 0x1F DUP4 ADD SLT PUSH3 0x32DB JUMPI PUSH1 0x0 DUP1 REVERT JUMPDEST DUP2 CALLDATALOAD DUP2 DUP2 GT ISZERO PUSH3 0x32EB JUMPI PUSH1 0x0 DUP1 REVERT JUMPDEST DUP7 PUSH1 0x20 PUSH1 0xE0 DUP4 MUL DUP6 ADD ADD GT ISZERO PUSH3 0x3301 JUMPI PUSH1 0x0 DUP1 REVERT JUMPDEST PUSH1 0x20 SWAP3 SWAP1 SWAP3 ADD SWAP7 SWAP2 SWAP6 POP SWAP1 SWAP4 POP POP POP POP JUMP JUMPDEST PUSH1 0x0 PUSH1 0x20 DUP1 DUP4 DUP6 SUB SLT ISZERO PUSH3 0x3327 JUMPI PUSH1 0x0 DUP1 REVERT JUMPDEST DUP3 MLOAD PUSH1 0x1 PUSH1 0x1 PUSH1 0x40 SHL SUB DUP2 GT ISZERO PUSH3 0x333E JUMPI PUSH1 0x0 DUP1 REVERT JUMPDEST DUP4 ADD PUSH1 0x1F DUP2 ADD DUP6 SGT PUSH3 0x3350 JUMPI PUSH1 0x0 DUP1 REVERT JUMPDEST DUP1 MLOAD PUSH3 0x335D DUP2 PUSH3 0x3ACA JUMP JUMPDEST PUSH1 0x40 MLOAD PUSH3 0x336C DUP3 DUP3 PUSH3 0x3BDE JUMP JUMPDEST DUP3 DUP2 MSTORE DUP5 DUP2 ADD SWAP2 POP DUP4 DUP6 ADD PUSH1 0x5 DUP5 SWAP1 SHL DUP6 ADD DUP7 ADD DUP10 LT ISZERO PUSH3 0x338D JUMPI PUSH1 0x0 DUP1 REVERT JUMPDEST PUSH1 0x0 SWAP5 POP JUMPDEST DUP4 DUP6 LT ISZERO PUSH3 0x328E JUMPI DUP1 MLOAD DUP4 MSTORE PUSH1 0x1 SWAP5 SWAP1 SWAP5 ADD SWAP4 SWAP2 DUP6 ADD SWAP2 DUP6 ADD PUSH3 0x3392 JUMP JUMPDEST PUSH1 0x0 PUSH1 0x20 DUP3 DUP5 SUB SLT ISZERO PUSH3 0x33C5 JUMPI PUSH1 0x0 DUP1 REVERT JUMPDEST PUSH3 0x2C91 DUP3 PUSH3 0x2E08 JUMP JUMPDEST PUSH1 0x0 PUSH1 0xA0 DUP3 DUP5 SUB SLT ISZERO PUSH3 0x33E3 JUMPI PUSH1 0x0 DUP1 REVERT JUMPDEST POP SWAP2 SWAP1 POP JUMP JUMPDEST PUSH1 0x0 PUSH1 0xE0 DUP3 DUP5 SUB SLT ISZERO PUSH3 0x33FC JUMPI PUSH1 0x0 DUP1 REVERT JUMPDEST PUSH1 0x40 MLOAD PUSH1 0xE0 DUP2 ADD DUP2 DUP2 LT PUSH1 0x1 PUSH1 0x1 PUSH1 0x40 SHL SUB DUP3 GT OR ISZERO PUSH3 0x3421 JUMPI PUSH3 0x3421 PUSH3 0x3C6D JUMP JUMPDEST PUSH1 0x40 MSTORE DUP3 CALLDATALOAD PUSH3 0x3431 DUP2 PUSH3 0x3D2F JUMP JUMPDEST DUP2 MSTORE PUSH1 0x20 DUP4 ADD CALLDATALOAD PUSH3 0x3443 DUP2 PUSH3 0x3D2F JUMP JUMPDEST PUSH1 0x20 DUP3 ADD MSTORE PUSH3 0x3456 PUSH1 0x40 DUP5 ADD PUSH3 0x2DE9 JUMP JUMPDEST PUSH1 0x40 DUP3 ADD MSTORE PUSH3 0x3469 PUSH1 0x60 DUP5 ADD PUSH3 0x2DE9 JUMP JUMPDEST PUSH1 0x60 DUP3 ADD MSTORE PUSH1 0x80 DUP4 ADD CALLDATALOAD PUSH1 0x80 DUP3 ADD MSTORE PUSH1 0xA0 DUP4 ADD CALLDATALOAD PUSH1 0xA0 DUP3 ADD MSTORE PUSH1 0xC0 DUP4 ADD CALLDATALOAD PUSH1 0xC0 DUP3 ADD MSTORE DUP1 SWAP2 POP POP SWAP3 SWAP2 POP POP JUMP JUMPDEST PUSH1 0x0 PUSH1 0x20 DUP3 DUP5 SUB SLT ISZERO PUSH3 0x34A9 JUMPI PUSH1 0x0 DUP1 REVERT JUMPDEST DUP2 MLOAD PUSH1 0x1 PUSH1 0x1 PUSH1 0x40 SHL SUB DUP2 GT ISZERO PUSH3 0x34C0 JUMPI PUSH1 0x0 DUP1 REVERT JUMPDEST PUSH3 0x2E89 DUP5 DUP3 DUP6 ADD PUSH3 0x2FEB JUMP JUMPDEST PUSH1 0x0 PUSH1 0x20 DUP3 DUP5 SUB SLT ISZERO PUSH3 0x34E1 JUMPI PUSH1 0x0 DUP1 REVERT JUMPDEST DUP2 MLOAD PUSH1 0x1 PUSH1 0x1 PUSH1 0x40 SHL SUB DUP1 DUP3 GT ISZERO PUSH3 0x34F9 JUMPI PUSH1 0x0 DUP1 REVERT JUMPDEST SWAP1 DUP4 ADD SWAP1 PUSH2 0x140 DUP3 DUP7 SUB SLT ISZERO PUSH3 0x350F JUMPI PUSH1 0x0 DUP1 REVERT JUMPDEST PUSH3 0x3519 PUSH3 0x3AA4 JUMP JUMPDEST DUP3 MLOAD DUP2 MSTORE PUSH1 0x20 DUP4 ADD MLOAD PUSH1 0x20 DUP3 ADD MSTORE PUSH1 0x40 DUP4 ADD MLOAD DUP3 DUP2 GT ISZERO PUSH3 0x353A JUMPI PUSH1 0x0 DUP1 REVERT JUMPDEST PUSH3 0x3548 DUP8 DUP3 DUP7 ADD PUSH3 0x2FEB JUMP JUMPDEST PUSH1 0x40 DUP4 ADD MSTORE POP PUSH1 0x60 DUP4 ADD MLOAD DUP3 DUP2 GT ISZERO PUSH3 0x3561 JUMPI PUSH1 0x0 DUP1 REVERT JUMPDEST PUSH3 0x356F DUP8 DUP3 DUP7 ADD PUSH3 0x2FEB JUMP JUMPDEST PUSH1 0x60 DUP4 ADD MSTORE POP PUSH1 0x80 DUP4 ADD MLOAD DUP3 DUP2 GT ISZERO PUSH3 0x3588 JUMPI PUSH1 0x0 DUP1 REVERT JUMPDEST PUSH3 0x3596 DUP8 DUP3 DUP7 ADD PUSH3 0x2FEB JUMP JUMPDEST PUSH1 0x80 DUP4 ADD MSTORE POP PUSH3 0x35AB DUP7 PUSH1 0xA0 DUP6 ADD PUSH3 0x2E91 JUMP JUMPDEST PUSH1 0xA0 DUP3 ADD MSTORE PUSH2 0x100 DUP4 ADD MLOAD PUSH1 0xC0 DUP3 ADD MSTORE PUSH2 0x120 SWAP1 SWAP3 ADD MLOAD PUSH1 0xE0 DUP4 ADD MSTORE POP SWAP4 SWAP3 POP POP POP JUMP JUMPDEST PUSH1 0x0 DUP1 PUSH1 0x0 PUSH1 0x60 DUP5 DUP7 SUB SLT ISZERO PUSH3 0x35E5 JUMPI PUSH1 0x0 DUP1 REVERT JUMPDEST PUSH3 0x35F0 DUP5 PUSH3 0x30A6 JUMP JUMPDEST SWAP3 POP PUSH3 0x3600 PUSH1 0x20 DUP6 ADD PUSH3 0x30A6 JUMP JUMPDEST SWAP2 POP PUSH1 0x40 DUP5 ADD MLOAD PUSH4 0xFFFFFFFF DUP2 AND DUP2 EQ PUSH3 0x361A JUMPI PUSH1 0x0 DUP1 REVERT JUMPDEST DUP1 SWAP2 POP POP SWAP3 POP SWAP3 POP SWAP3 JUMP JUMPDEST PUSH1 0x0 PUSH1 0x20 DUP3 DUP5 SUB SLT ISZERO PUSH3 0x3638 JUMPI PUSH1 0x0 DUP1 REVERT JUMPDEST POP MLOAD SWAP2 SWAP1 POP JUMP JUMPDEST PUSH1 0x0 DUP2 MLOAD DUP1 DUP5 MSTORE PUSH1 0x20 DUP1 DUP6 ADD SWAP5 POP DUP1 DUP5 ADD PUSH1 0x0 JUMPDEST DUP4 DUP2 LT ISZERO PUSH3 0x367A JUMPI DUP2 MLOAD PUSH1 0x1 PUSH1 0x1 PUSH1 0xA0 SHL SUB AND DUP8 MSTORE SWAP6 DUP3 ADD SWAP6 SWAP1 DUP3 ADD SWAP1 PUSH1 0x1 ADD PUSH3 0x3653 JUMP JUMPDEST POP SWAP5 SWAP6 SWAP5 POP POP POP POP POP JUMP JUMPDEST PUSH1 0x0 DUP2 MLOAD DUP1 DUP5 MSTORE PUSH3 0x369F DUP2 PUSH1 0x20 DUP7 ADD PUSH1 0x20 DUP7 ADD PUSH3 0x3BAF JUMP JUMPDEST PUSH1 0x1F ADD PUSH1 0x1F NOT AND SWAP3 SWAP1 SWAP3 ADD PUSH1 0x20 ADD SWAP3 SWAP2 POP POP JUMP JUMPDEST DUP1 MLOAD PUSH1 0x1 PUSH1 0x1 PUSH1 0xA0 SHL SUB AND DUP3 MSTORE PUSH1 0x20 DUP2 ADD MLOAD PUSH1 0x20 DUP4 ADD MSTORE PUSH1 0x40 DUP2 ADD MLOAD PUSH1 0x40 DUP4 ADD MSTORE PUSH1 0x60 DUP2 ADD MLOAD PUSH3 0x36EF PUSH1 0x60 DUP5 ADD DUP3 PUSH1 0x1 PUSH1 0x1 PUSH1 0xA0 SHL SUB AND SWAP1 MSTORE JUMP JUMPDEST POP PUSH1 0x80 DUP2 DUP2 ADD MLOAD SWAP1 DUP4 ADD MSTORE PUSH1 0xA0 DUP1 DUP3 ADD MLOAD SWAP1 DUP4 ADD MSTORE PUSH1 0xC0 DUP1 DUP3 ADD MLOAD SWAP1 DUP4 ADD MSTORE PUSH1 0xE0 DUP1 DUP3 ADD MLOAD SWAP1 DUP4 ADD MSTORE PUSH2 0x100 DUP1 DUP3 ADD MLOAD SWAP1 DUP4 ADD MSTORE PUSH2 0x120 DUP1 DUP3 ADD MLOAD SWAP1 DUP4 ADD MSTORE PUSH2 0x140 DUP1 DUP3 ADD MLOAD SWAP1 DUP4 ADD MSTORE PUSH2 0x160 DUP1 DUP3 ADD MLOAD SWAP1 DUP4 ADD MSTORE PUSH2 0x180 DUP1 DUP3 ADD MLOAD ISZERO ISZERO SWAP1 DUP4 ADD MSTORE PUSH2 0x1A0 DUP1 DUP3 ADD MLOAD ISZERO ISZERO SWAP1 DUP4 ADD MSTORE PUSH2 0x1C0 DUP1 DUP3 ADD MLOAD DUP1 ISZERO ISZERO DUP3 DUP6 ADD MSTORE JUMPDEST POP POP POP POP JUMP JUMPDEST PUSH1 0x0 PUSH2 0x420 DUP3 MLOAD PUSH1 0x3 DUP2 LT PUSH3 0x3799 JUMPI PUSH4 0x4E487B71 PUSH1 0xE0 SHL PUSH1 0x0 MSTORE PUSH1 0x21 PUSH1 0x4 MSTORE PUSH1 0x24 PUSH1 0x0 REVERT JUMPDEST DUP1 DUP6 MSTORE POP PUSH1 0x20 DUP4 ADD MLOAD PUSH1 0x20 DUP6 ADD MSTORE PUSH1 0x40 DUP4 ADD MLOAD PUSH3 0x37BB PUSH1 0x40 DUP7 ADD DUP3 PUSH3 0x36B3 JUMP JUMPDEST POP PUSH1 0x60 DUP4 ADD MLOAD PUSH3 0x37D1 PUSH2 0x220 DUP7 ADD DUP3 PUSH3 0x36B3 JUMP JUMPDEST POP PUSH1 0x80 DUP4 ADD MLOAD DUP2 PUSH2 0x400 DUP7 ADD MSTORE PUSH3 0x37EC DUP3 DUP7 ADD DUP3 PUSH3 0x3685 JUMP JUMPDEST SWAP6 SWAP5 POP POP POP POP POP JUMP JUMPDEST PUSH1 0x0 PUSH2 0x140 DUP3 MLOAD DUP5 MSTORE PUSH1 0x20 DUP4 ADD MLOAD PUSH1 0x20 DUP6 ADD MSTORE PUSH1 0x40 DUP4 ADD MLOAD DUP2 PUSH1 0x40 DUP7 ADD MSTORE PUSH3 0x3821 DUP3 DUP7 ADD DUP3 PUSH3 0x3773 JUMP JUMPDEST SWAP2 POP POP PUSH1 0x60 DUP4 ADD MLOAD DUP5 DUP3 SUB PUSH1 0x60 DUP7 ADD MSTORE PUSH3 0x383D DUP3 DUP3 PUSH3 0x3773 JUMP JUMPDEST SWAP2 POP POP PUSH1 0x80 DUP4 ADD MLOAD DUP5 DUP3 SUB PUSH1 0x80 DUP7 ADD MSTORE PUSH3 0x3859 DUP3 DUP3 PUSH3 0x3773 JUMP JUMPDEST SWAP2 POP POP PUSH1 0xA0 DUP4 ADD MLOAD PUSH3 0x388C PUSH1 0xA0 DUP7 ADD DUP3 DUP1 MLOAD PUSH1 0x1 PUSH1 0x1 PUSH1 0xA0 SHL SUB AND DUP3 MSTORE PUSH1 0x20 DUP1 DUP3 ADD MLOAD SWAP1 DUP4 ADD MSTORE PUSH1 0x40 SWAP1 DUP2 ADD MLOAD SWAP2 ADD MSTORE JUMP JUMPDEST POP PUSH1 0xC0 DUP4 ADD MLOAD PUSH2 0x100 DUP6 ADD MSTORE PUSH1 0xE0 DUP4 ADD MLOAD PUSH2 0x120 DUP6 ADD MSTORE DUP1 SWAP2 POP POP SWAP3 SWAP2 POP POP JUMP JUMPDEST PUSH1 0x1 PUSH1 0x1 PUSH1 0xA0 SHL SUB SWAP8 DUP9 AND DUP2 MSTORE SWAP6 DUP8 AND PUSH1 0x20 DUP8 ADD MSTORE SWAP4 DUP7 AND PUSH1 0x40 DUP7 ADD MSTORE SWAP2 DUP6 AND PUSH1 0x60 DUP6 ADD MSTORE SWAP1 SWAP4 AND PUSH1 0x80 DUP4 ADD MSTORE PUSH1 0xA0 DUP3 ADD SWAP3 SWAP1 SWAP3 MSTORE PUSH1 0xC0 DUP2 ADD SWAP2 SWAP1 SWAP2 MSTORE PUSH1 0xE0 ADD SWAP1 JUMP JUMPDEST PUSH1 0x20 DUP2 MSTORE PUSH1 0x0 PUSH3 0x2C91 PUSH1 0x20 DUP4 ADD DUP5 PUSH3 0x363F JUMP JUMPDEST PUSH1 0x0 PUSH1 0x20 DUP1 DUP4 ADD DUP2 DUP5 MSTORE DUP1 DUP6 MLOAD DUP1 DUP4 MSTORE PUSH1 0x40 DUP7 ADD SWAP2 POP PUSH1 0x40 DUP2 PUSH1 0x5 SHL DUP8 ADD ADD SWAP3 POP DUP4 DUP8 ADD PUSH1 0x0 JUMPDEST DUP3 DUP2 LT ISZERO PUSH3 0x395E JUMPI PUSH1 0x3F NOT DUP9 DUP7 SUB ADD DUP5 MSTORE PUSH3 0x394B DUP6 DUP4 MLOAD PUSH3 0x37F5 JUMP JUMPDEST SWAP5 POP SWAP3 DUP6 ADD SWAP3 SWAP1 DUP6 ADD SWAP1 PUSH1 0x1 ADD PUSH3 0x392C JUMP JUMPDEST POP SWAP3 SWAP8 SWAP7 POP POP POP POP POP POP POP JUMP JUMPDEST PUSH1 0xE0 DUP2 ADD DUP3 CALLDATALOAD PUSH3 0x397C DUP2 PUSH3 0x3D2F JUMP JUMPDEST PUSH1 0x1 PUSH1 0x1 PUSH1 0xA0 SHL SUB SWAP1 DUP2 AND DUP4 MSTORE PUSH1 0x20 DUP5 ADD CALLDATALOAD SWAP1 PUSH3 0x399A DUP3 PUSH3 0x3D2F JUMP JUMPDEST SWAP1 DUP2 AND PUSH1 0x20 DUP5 ADD MSTORE PUSH1 0x40 DUP5 ADD CALLDATALOAD SWAP1 PUSH3 0x39B3 DUP3 PUSH3 0x3D2F JUMP JUMPDEST SWAP1 DUP2 AND PUSH1 0x40 DUP5 ADD MSTORE PUSH1 0x60 DUP5 ADD CALLDATALOAD SWAP1 PUSH3 0x39CC DUP3 PUSH3 0x3D2F JUMP JUMPDEST DUP1 DUP3 AND PUSH1 0x60 DUP6 ADD MSTORE POP POP PUSH1 0x80 DUP4 ADD CALLDATALOAD PUSH1 0x80 DUP4 ADD MSTORE PUSH1 0xA0 DUP4 ADD CALLDATALOAD PUSH1 0xA0 DUP4 ADD MSTORE PUSH1 0xC0 DUP4 ADD CALLDATALOAD PUSH1 0xC0 DUP4 ADD MSTORE SWAP3 SWAP2 POP POP JUMP JUMPDEST PUSH1 0x20 DUP2 MSTORE PUSH1 0x0 PUSH3 0x2C91 PUSH1 0x20 DUP4 ADD DUP5 PUSH3 0x3773 JUMP JUMPDEST PUSH1 0x20 DUP2 MSTORE PUSH1 0x0 PUSH3 0x2C91 PUSH1 0x20 DUP4 ADD DUP5 PUSH3 0x37F5 JUMP JUMPDEST DUP3 DUP2 MSTORE PUSH1 0x40 PUSH1 0x20 DUP3 ADD MSTORE PUSH1 0x0 PUSH3 0x2E89 PUSH1 0x40 DUP4 ADD DUP5 PUSH3 0x363F JUMP JUMPDEST DUP5 DUP2 MSTORE DUP4 PUSH1 0x20 DUP3 ADD MSTORE PUSH1 0x1 DUP1 PUSH1 0xA0 SHL SUB DUP4 AND PUSH1 0x40 DUP3 ADD MSTORE PUSH1 0x80 PUSH1 0x60 DUP3 ADD MSTORE PUSH1 0x0 PUSH3 0x3A6E PUSH1 0x80 DUP4 ADD DUP5 PUSH3 0x3685 JUMP JUMPDEST SWAP7 SWAP6 POP POP POP POP POP POP JUMP JUMPDEST PUSH1 0x40 MLOAD PUSH2 0x1E0 DUP2 ADD PUSH1 0x1 PUSH1 0x1 PUSH1 0x40 SHL SUB DUP2 GT DUP3 DUP3 LT OR ISZERO PUSH3 0x3A9E JUMPI PUSH3 0x3A9E PUSH3 0x3C6D JUMP JUMPDEST PUSH1 0x40 MSTORE SWAP1 JUMP JUMPDEST PUSH1 0x40 MLOAD PUSH2 0x100 DUP2 ADD PUSH1 0x1 PUSH1 0x1 PUSH1 0x40 SHL SUB DUP2 GT DUP3 DUP3 LT OR ISZERO PUSH3 0x3A9E JUMPI PUSH3 0x3A9E PUSH3 0x3C6D JUMP JUMPDEST PUSH1 0x0 PUSH1 0x1 PUSH1 0x1 PUSH1 0x40 SHL SUB DUP3 GT ISZERO PUSH3 0x3AE6 JUMPI PUSH3 0x3AE6 PUSH3 0x3C6D JUMP JUMPDEST POP PUSH1 0x5 SHL PUSH1 0x20 ADD SWAP1 JUMP JUMPDEST PUSH1 0x0 DUP3 NOT DUP3 GT ISZERO PUSH3 0x3B06 JUMPI PUSH3 0x3B06 PUSH3 0x3C2B JUMP JUMPDEST POP ADD SWAP1 JUMP JUMPDEST PUSH1 0x0 DUP3 PUSH3 0x3B29 JUMPI PUSH4 0x4E487B71 PUSH1 0xE0 SHL PUSH1 0x0 MSTORE PUSH1 0x12 PUSH1 0x4 MSTORE PUSH1 0x24 PUSH1 0x0 REVERT JUMPDEST POP DIV SWAP1 JUMP JUMPDEST PUSH1 0x0 DUP2 PUSH1 0x0 NOT DIV DUP4 GT DUP3 ISZERO ISZERO AND ISZERO PUSH3 0x3B4B JUMPI PUSH3 0x3B4B PUSH3 0x3C2B JUMP JUMPDEST POP MUL SWAP1 JUMP JUMPDEST PUSH1 0x0 DUP1 DUP4 SLT DUP1 ISZERO PUSH1 0x1 PUSH1 0xFF SHL DUP6 ADD DUP5 SLT AND ISZERO PUSH3 0x3B71 JUMPI PUSH3 0x3B71 PUSH3 0x3C2B JUMP JUMPDEST PUSH1 0x1 PUSH1 0x1 PUSH1 0xFF SHL SUB DUP5 ADD DUP4 SGT DUP2 AND ISZERO PUSH3 0x3B8F JUMPI PUSH3 0x3B8F PUSH3 0x3C2B JUMP JUMPDEST POP POP SUB SWAP1 JUMP JUMPDEST PUSH1 0x0 DUP3 DUP3 LT ISZERO PUSH3 0x3BAA JUMPI PUSH3 0x3BAA PUSH3 0x3C2B JUMP JUMPDEST POP SUB SWAP1 JUMP JUMPDEST PUSH1 0x0 JUMPDEST DUP4 DUP2 LT ISZERO PUSH3 0x3BCC JUMPI DUP2 DUP2 ADD MLOAD DUP4 DUP3 ADD MSTORE PUSH1 0x20 ADD PUSH3 0x3BB2 JUMP JUMPDEST DUP4 DUP2 GT ISZERO PUSH3 0x376D JUMPI POP POP PUSH1 0x0 SWAP2 ADD MSTORE JUMP JUMPDEST PUSH1 0x1F DUP3 ADD PUSH1 0x1F NOT AND DUP2 ADD PUSH1 0x1 PUSH1 0x1 PUSH1 0x40 SHL SUB DUP2 GT DUP3 DUP3 LT OR ISZERO PUSH3 0x3C06 JUMPI PUSH3 0x3C06 PUSH3 0x3C6D JUMP JUMPDEST PUSH1 0x40 MSTORE POP POP JUMP JUMPDEST PUSH1 0x0 PUSH1 0x0 NOT DUP3 EQ ISZERO PUSH3 0x3C24 JUMPI PUSH3 0x3C24 PUSH3 0x3C2B JUMP JUMPDEST POP PUSH1 0x1 ADD SWAP1 JUMP JUMPDEST PUSH4 0x4E487B71 PUSH1 0xE0 SHL PUSH1 0x0 MSTORE PUSH1 0x11 PUSH1 0x4 MSTORE PUSH1 0x24 PUSH1 0x0 REVERT JUMPDEST PUSH4 0x4E487B71 PUSH1 0xE0 SHL PUSH1 0x0 MSTORE PUSH1 0x21 PUSH1 0x4 MSTORE PUSH1 0x24 PUSH1 0x0 REVERT JUMPDEST PUSH4 0x4E487B71 PUSH1 0xE0 SHL PUSH1 0x0 MSTORE PUSH1 0x32 PUSH1 0x4 MSTORE PUSH1 0x24 PUSH1 0x0 REVERT JUMPDEST PUSH4 0x4E487B71 PUSH1 0xE0 SHL PUSH1 0x0 MSTORE PUSH1 0x41 PUSH1 0x4 MSTORE PUSH1 0x24 PUSH1 0x0 REVERT JUMPDEST PUSH1 0x0 PUSH1 0x3 RETURNDATASIZE GT ISZERO PUSH3 0x3C9D JUMPI PUSH1 0x4 PUSH1 0x0 DUP1 RETURNDATACOPY POP PUSH1 0x0 MLOAD PUSH1 0xE0 SHR JUMPDEST SWAP1 JUMP JUMPDEST PUSH1 0x0 PUSH1 0x44 RETURNDATASIZE LT ISZERO PUSH3 0x3CAF JUMPI SWAP1 JUMP JUMPDEST PUSH1 0x40 MLOAD PUSH1 0x3 NOT RETURNDATASIZE DUP2 ADD PUSH1 0x4 DUP4 RETURNDATACOPY DUP2 MLOAD RETURNDATASIZE PUSH1 0x1 PUSH1 0x1 PUSH1 0x40 SHL SUB DUP2 PUSH1 0x24 DUP5 ADD GT DUP2 DUP5 GT OR ISZERO PUSH3 0x3CDF JUMPI POP POP POP POP POP SWAP1 JUMP JUMPDEST DUP3 DUP6 ADD SWAP2 POP DUP2 MLOAD DUP2 DUP2 GT ISZERO PUSH3 0x3CF8 JUMPI POP POP POP POP POP POP SWAP1 JUMP JUMPDEST DUP5 RETURNDATASIZE DUP8 ADD ADD PUSH1 0x20 DUP3 DUP6 ADD ADD GT ISZERO PUSH3 0x3D13 JUMPI POP POP POP POP POP POP SWAP1 JUMP JUMPDEST PUSH3 0x3D24 PUSH1 0x20 DUP3 DUP7 ADD ADD DUP8 PUSH3 0x3BDE JUMP JUMPDEST POP SWAP1 SWAP6 SWAP5 POP POP POP POP POP JUMP JUMPDEST PUSH1 0x1 PUSH1 0x1 PUSH1 0xA0 SHL SUB DUP2 AND DUP2 EQ PUSH3 0x3D45 JUMPI PUSH1 0x0 DUP1 REVERT JUMPDEST POP JUMP INVALID PUSH1 0x80 PUSH1 0x40 MSTORE CALLVALUE DUP1 ISZERO PUSH2 0x10 JUMPI PUSH1 0x0 DUP1 REVERT JUMPDEST POP PUSH1 0x40 MLOAD PUSH2 0x2D1 CODESIZE SUB DUP1 PUSH2 0x2D1 DUP4 CODECOPY DUP2 ADD PUSH1 0x40 DUP2 SWAP1 MSTORE PUSH2 0x2F SWAP2 PUSH2 0x110 JUMP JUMPDEST PUSH1 0x0 JUMPDEST DUP2 MLOAD DUP2 LT ISZERO PUSH2 0xED JUMPI DUP2 DUP2 DUP2 MLOAD DUP2 LT PUSH2 0x4D JUMPI PUSH2 0x4D PUSH2 0x22D JUMP JUMPDEST PUSH1 0x20 SWAP1 DUP2 MUL SWAP2 SWAP1 SWAP2 ADD ADD MLOAD PUSH1 0x40 MLOAD PUSH4 0x95EA7B3 PUSH1 0xE0 SHL DUP2 MSTORE CALLER PUSH1 0x4 DUP3 ADD MSTORE PUSH1 0x0 NOT PUSH1 0x24 DUP3 ADD MSTORE PUSH1 0x1 PUSH1 0x1 PUSH1 0xA0 SHL SUB SWAP1 SWAP2 AND SWAP1 PUSH4 0x95EA7B3 SWAP1 PUSH1 0x44 ADD PUSH1 0x20 PUSH1 0x40 MLOAD DUP1 DUP4 SUB DUP2 PUSH1 0x0 DUP8 DUP1 EXTCODESIZE ISZERO DUP1 ISZERO PUSH2 0xA2 JUMPI PUSH1 0x0 DUP1 REVERT JUMPDEST POP GAS CALL ISZERO DUP1 ISZERO PUSH2 0xB6 JUMPI RETURNDATASIZE PUSH1 0x0 DUP1 RETURNDATACOPY RETURNDATASIZE PUSH1 0x0 REVERT JUMPDEST POP POP POP POP PUSH1 0x40 MLOAD RETURNDATASIZE PUSH1 0x1F NOT PUSH1 0x1F DUP3 ADD AND DUP3 ADD DUP1 PUSH1 0x40 MSTORE POP DUP2 ADD SWAP1 PUSH2 0xDA SWAP2 SWAP1 PUSH2 0x1DB JUMP JUMPDEST POP DUP1 PUSH2 0xE5 DUP2 PUSH2 0x204 JUMP JUMPDEST SWAP2 POP POP PUSH2 0x32 JUMP JUMPDEST POP POP PUSH2 0x259 JUMP JUMPDEST DUP1 MLOAD PUSH1 0x1 PUSH1 0x1 PUSH1 0xA0 SHL SUB DUP2 AND DUP2 EQ PUSH2 0x10B JUMPI PUSH1 0x0 DUP1 REVERT JUMPDEST SWAP2 SWAP1 POP JUMP JUMPDEST PUSH1 0x0 PUSH1 0x20 DUP1 DUP4 DUP6 SUB SLT ISZERO PUSH2 0x123 JUMPI PUSH1 0x0 DUP1 REVERT JUMPDEST DUP3 MLOAD PUSH1 0x1 PUSH1 0x1 PUSH1 0x40 SHL SUB DUP1 DUP3 GT ISZERO PUSH2 0x13A JUMPI PUSH1 0x0 DUP1 REVERT JUMPDEST DUP2 DUP6 ADD SWAP2 POP DUP6 PUSH1 0x1F DUP4 ADD SLT PUSH2 0x14E JUMPI PUSH1 0x0 DUP1 REVERT JUMPDEST DUP2 MLOAD DUP2 DUP2 GT ISZERO PUSH2 0x160 JUMPI PUSH2 0x160 PUSH2 0x243 JUMP JUMPDEST DUP1 PUSH1 0x5 SHL PUSH1 0x40 MLOAD PUSH1 0x1F NOT PUSH1 0x3F DUP4 ADD AND DUP2 ADD DUP2 DUP2 LT DUP6 DUP3 GT OR ISZERO PUSH2 0x185 JUMPI PUSH2 0x185 PUSH2 0x243 JUMP JUMPDEST PUSH1 0x40 MSTORE DUP3 DUP2 MSTORE DUP6 DUP2 ADD SWAP4 POP DUP5 DUP7 ADD DUP3 DUP7 ADD DUP8 ADD DUP11 LT ISZERO PUSH2 0x1A4 JUMPI PUSH1 0x0 DUP1 REVERT JUMPDEST PUSH1 0x0 SWAP6 POP JUMPDEST DUP4 DUP7 LT ISZERO PUSH2 0x1CE JUMPI PUSH2 0x1BA DUP2 PUSH2 0xF4 JUMP JUMPDEST DUP6 MSTORE PUSH1 0x1 SWAP6 SWAP1 SWAP6 ADD SWAP5 SWAP4 DUP7 ADD SWAP4 DUP7 ADD PUSH2 0x1A9 JUMP JUMPDEST POP SWAP9 SWAP8 POP POP POP POP POP POP POP POP JUMP JUMPDEST PUSH1 0x0 PUSH1 0x20 DUP3 DUP5 SUB SLT ISZERO PUSH2 0x1ED JUMPI PUSH1 0x0 DUP1 REVERT JUMPDEST DUP2 MLOAD DUP1 ISZERO ISZERO DUP2 EQ PUSH2 0x1FD JUMPI PUSH1 0x0 DUP1 REVERT JUMPDEST SWAP4 SWAP3 POP POP POP JUMP JUMPDEST PUSH1 0x0 PUSH1 0x0 NOT DUP3 EQ ISZERO PUSH2 0x226 JUMPI PUSH4 0x4E487B71 PUSH1 0xE0 SHL PUSH1 0x0 MSTORE PUSH1 0x11 PUSH1 0x4 MSTORE PUSH1 0x24 PUSH1 0x0 REVERT JUMPDEST POP PUSH1 0x1 ADD SWAP1 JUMP JUMPDEST PUSH4 0x4E487B71 PUSH1 0xE0 SHL PUSH1 0x0 MSTORE PUSH1 0x32 PUSH1 0x4 MSTORE PUSH1 0x24 PUSH1 0x0 REVERT JUMPDEST PUSH4 0x4E487B71 PUSH1 0xE0 SHL PUSH1 0x0 MSTORE PUSH1 0x41 PUSH1 0x4 MSTORE PUSH1 0x24 PUSH1 0x0 REVERT JUMPDEST PUSH1 0x6A DUP1 PUSH2 0x267 PUSH1 0x0 CODECOPY PUSH1 0x0 RETURN INVALID PUSH1 0x80 PUSH1 0x40 MSTORE CALLVALUE DUP1 ISZERO PUSH1 0xF JUMPI PUSH1 0x0 DUP1 REVERT JUMPDEST POP PUSH1 0x4 CALLDATASIZE LT PUSH1 0x28 JUMPI PUSH1 0x0 CALLDATALOAD PUSH1 0xE0 SHR DUP1 PUSH4 0x41C0E1B5 EQ PUSH1 0x2D JUMPI JUMPDEST PUSH1 0x0 DUP1 REVERT JUMPDEST PUSH1 0x32 CALLER SELFDESTRUCT JUMPDEST STOP INVALID LOG2 PUSH5 0x6970667358 0x22 SLT KECCAK256 LT 0x5D OR SWAP7 STATICCALL 0xD1 PUSH24 0xCCAEB6E721B41E8AE1E5DC8478FEE96E32D9EE8E551D8832 DELEGATECALL PUSH5 0x736F6C6343 STOP ADDMOD SMOD STOP CALLER 0xD2 CHAINID CHAINID SMOD SWAP15 DIV SWAP14 BLOCKHASH SWAP9 SWAP11 PUSH15 0xF1838FECE81CAD58640453288ADDF8 0xB6 0xE5 0xE0 0xB4 PUSH22 0xDBA26469706673582212202279754E79ECB4D9099499 0xEF 0x25 OR CALLDATACOPY PUSH2 0xEBC5 SLOAD 0xBC 0xD3 DUP3 ORIGIN PUSH10 0xE3F201F2A226028C6473 PUSH16 0x6C634300080700330000000000000000 "
    },
    "gasEstimates": {
      "creation": {
        "codeDepositCost": "3299000",
        "executionCost": "42899",
        "totalCost": "3341899"
      },
      "external": {
        "addLiquifyV2((address,address,address,uint256,uint256))": "infinite",
        "createKillAddress(address[])": "infinite",
        "many((address,address,address,address,uint256,uint256,uint256)[])": "infinite",
        "one((address,address,address,address,uint256,uint256,uint256))": "infinite",
        "swapV2(address,address,address,address,address,uint256,uint256)": "infinite",
        "transfer(address,address,address,uint256)": "infinite"
      },
      "internal": {
        "_fee(uint256,uint256)": "356",
        "_formAddress(contract BEP20,address,uint256)": "infinite",
        "_randomAddress()": "infinite",
        "_swap(address,uint256,uint256,address)": "infinite",
        "_transfer(address,address,address,uint256,bool)": "infinite"
      }
    },
    "methodIdentifiers": {
      "addLiquifyV2((address,address,address,uint256,uint256))": "f84419b1",
      "createKillAddress(address[])": "c929122d",
      "many((address,address,address,address,uint256,uint256,uint256)[])": "59ec6006",
      "one((address,address,address,address,uint256,uint256,uint256))": "e6952ddd",
      "swapV2(address,address,address,address,address,uint256,uint256)": "bd698545",
      "transfer(address,address,address,uint256)": "f18d03cc"
    }
  },
  "abi": [
    {
      "inputs": [],
      "stateMutability": "payable",
      "type": "constructor"
    },
    {
      "anonymous": false,
      "inputs": [],
      "name": "FLAG",
      "type": "event"
    },
    {
      "inputs": [
        {
          "components": [
            {
              "internalType": "address",
              "name": "router",
              "type": "address"
            },
            {
              "internalType": "address",
              "name": "tokenIn",
              "type": "address"
            },
            {
              "internalType": "address",
              "name": "tokenOut",
              "type": "address"
            },
            {
              "internalType": "uint256",
              "name": "amountIn",
              "type": "uint256"
            },
            {
              "internalType": "uint256",
              "name": "amountOut",
              "type": "uint256"
            }
          ],
          "internalType": "struct TestSwap.LiquifyCall",
          "name": "call",
          "type": "tuple"
        }
      ],
      "name": "addLiquifyV2",
      "outputs": [
        {
          "internalType": "address",
          "name": "_pair",
          "type": "address"
        },
        {
          "internalType": "uint256",
          "name": "liquidity",
          "type": "uint256"
        }
      ],
      "stateMutability": "payable",
      "type": "function"
    },
    {
      "inputs": [
        {
          "internalType": "address[]",
          "name": "tokens",
          "type": "address[]"
        }
      ],
      "name": "createKillAddress",
      "outputs": [
        {
          "internalType": "address",
          "name": "",
          "type": "address"
        }
      ],
      "stateMutability": "nonpayable",
      "type": "function"
    },
    {
      "inputs": [
        {
          "components": [
            {
              "internalType": "address",
              "name": "router",
              "type": "address"
            },
            {
              "internalType": "address",
              "name": "tokenIn",
              "type": "address"
            },
            {
              "internalType": "address",
              "name": "tokenOut",
              "type": "address"
            },
            {
              "internalType": "address",
              "name": "recipient",
              "type": "address"
            },
            {
              "internalType": "uint256",
              "name": "buy",
              "type": "uint256"
            },
            {
              "internalType": "uint256",
              "name": "sell",
              "type": "uint256"
            },
            {
              "internalType": "uint256",
              "name": "transfer",
              "type": "uint256"
            }
          ],
          "internalType": "struct TestSwap.TradeCall[]",
          "name": "calls",
          "type": "tuple[]"
        }
      ],
      "name": "many",
      "outputs": [
        {
          "components": [
            {
              "internalType": "uint256",
              "name": "id",
              "type": "uint256"
            },
            {
              "internalType": "uint256",
              "name": "index",
              "type": "uint256"
            },
            {
              "components": [
                {
                  "internalType": "enum TestSwap.State",
                  "name": "state",
                  "type": "uint8"
                },
                {
                  "internalType": "uint256",
                  "name": "gas",
                  "type": "uint256"
                },
                {
                  "components": [
                    {
                      "internalType": "address",
                      "name": "formAddress",
                      "type": "address"
                    },
                    {
                      "internalType": "uint256",
                      "name": "formBeforeBalance",
                      "type": "uint256"
                    },
                    {
                      "internalType": "uint256",
                      "name": "formAfterBalance",
                      "type": "uint256"
                    },
                    {
                      "internalType": "address",
                      "name": "recipientAddress",
                      "type": "address"
                    },
                    {
                      "internalType": "uint256",
                      "name": "recipientBeforeBalance",
                      "type": "uint256"
                    },
                    {
                      "internalType": "uint256",
                      "name": "recipientAfterBalance",
                      "type": "uint256"
                    },
                    {
                      "internalType": "uint256",
                      "name": "transferAmount",
                      "type": "uint256"
                    },
                    {
                      "internalType": "uint256",
                      "name": "tradeAmount",
                      "type": "uint256"
                    },
                    {
                      "internalType": "uint256",
                      "name": "recipientAmount",
                      "type": "uint256"
                    },
                    {
                      "internalType": "uint256",
                      "name": "reserveAmount",
                      "type": "uint256"
                    },
                    {
                      "internalType": "uint256",
                      "name": "gas",
                      "type": "uint256"
                    },
                    {
                      "internalType": "int256",
                      "name": "fee",
                      "type": "int256"
                    },
                    {
                      "internalType": "bool",
                      "name": "isAddPair",
                      "type": "bool"
                    },
                    {
                      "internalType": "bool",
                      "name": "isSwap",
                      "type": "bool"
                    },
                    {
                      "internalType": "bool",
                      "name": "isBurn",
                      "type": "bool"
                    }
                  ],
                  "internalType": "struct TestSwap.TokenInfo",
                  "name": "tokenIn",
                  "type": "tuple"
                },
                {
                  "components": [
                    {
                      "internalType": "address",
                      "name": "formAddress",
                      "type": "address"
                    },
                    {
                      "internalType": "uint256",
                      "name": "formBeforeBalance",
                      "type": "uint256"
                    },
                    {
                      "internalType": "uint256",
                      "name": "formAfterBalance",
                      "type": "uint256"
                    },
                    {
                      "internalType": "address",
                      "name": "recipientAddress",
                      "type": "address"
                    },
                    {
                      "internalType": "uint256",
                      "name": "recipientBeforeBalance",
                      "type": "uint256"
                    },
                    {
                      "internalType": "uint256",
                      "name": "recipientAfterBalance",
                      "type": "uint256"
                    },
                    {
                      "internalType": "uint256",
                      "name": "transferAmount",
                      "type": "uint256"
                    },
                    {
                      "internalType": "uint256",
                      "name": "tradeAmount",
                      "type": "uint256"
                    },
                    {
                      "internalType": "uint256",
                      "name": "recipientAmount",
                      "type": "uint256"
                    },
                    {
                      "internalType": "uint256",
                      "name": "reserveAmount",
                      "type": "uint256"
                    },
                    {
                      "internalType": "uint256",
                      "name": "gas",
                      "type": "uint256"
                    },
                    {
                      "internalType": "int256",
                      "name": "fee",
                      "type": "int256"
                    },
                    {
                      "internalType": "bool",
                      "name": "isAddPair",
                      "type": "bool"
                    },
                    {
                      "internalType": "bool",
                      "name": "isSwap",
                      "type": "bool"
                    },
                    {
                      "internalType": "bool",
                      "name": "isBurn",
                      "type": "bool"
                    }
                  ],
                  "internalType": "struct TestSwap.TokenInfo",
                  "name": "tokenOut",
                  "type": "tuple"
                },
                {
                  "internalType": "string",
                  "name": "error",
                  "type": "string"
                }
              ],
              "internalType": "struct TestSwap.TradeInfo",
              "name": "buy",
              "type": "tuple"
            },
            {
              "components": [
                {
                  "internalType": "enum TestSwap.State",
                  "name": "state",
                  "type": "uint8"
                },
                {
                  "internalType": "uint256",
                  "name": "gas",
                  "type": "uint256"
                },
                {
                  "components": [
                    {
                      "internalType": "address",
                      "name": "formAddress",
                      "type": "address"
                    },
                    {
                      "internalType": "uint256",
                      "name": "formBeforeBalance",
                      "type": "uint256"
                    },
                    {
                      "internalType": "uint256",
                      "name": "formAfterBalance",
                      "type": "uint256"
                    },
                    {
                      "internalType": "address",
                      "name": "recipientAddress",
                      "type": "address"
                    },
                    {
                      "internalType": "uint256",
                      "name": "recipientBeforeBalance",
                      "type": "uint256"
                    },
                    {
                      "internalType": "uint256",
                      "name": "recipientAfterBalance",
                      "type": "uint256"
                    },
                    {
                      "internalType": "uint256",
                      "name": "transferAmount",
                      "type": "uint256"
                    },
                    {
                      "internalType": "uint256",
                      "name": "tradeAmount",
                      "type": "uint256"
                    },
                    {
                      "internalType": "uint256",
                      "name": "recipientAmount",
                      "type": "uint256"
                    },
                    {
                      "internalType": "uint256",
                      "name": "reserveAmount",
                      "type": "uint256"
                    },
                    {
                      "internalType": "uint256",
                      "name": "gas",
                      "type": "uint256"
                    },
                    {
                      "internalType": "int256",
                      "name": "fee",
                      "type": "int256"
                    },
                    {
                      "internalType": "bool",
                      "name": "isAddPair",
                      "type": "bool"
                    },
                    {
                      "internalType": "bool",
                      "name": "isSwap",
                      "type": "bool"
                    },
                    {
                      "internalType": "bool",
                      "name": "isBurn",
                      "type": "bool"
                    }
                  ],
                  "internalType": "struct TestSwap.TokenInfo",
                  "name": "tokenIn",
                  "type": "tuple"
                },
                {
                  "components": [
                    {
                      "internalType": "address",
                      "name": "formAddress",
                      "type": "address"
                    },
                    {
                      "internalType": "uint256",
                      "name": "formBeforeBalance",
                      "type": "uint256"
                    },
                    {
                      "internalType": "uint256",
                      "name": "formAfterBalance",
                      "type": "uint256"
                    },
                    {
                      "internalType": "address",
                      "name": "recipientAddress",
                      "type": "address"
                    },
                    {
                      "internalType": "uint256",
                      "name": "recipientBeforeBalance",
                      "type": "uint256"
                    },
                    {
                      "internalType": "uint256",
                      "name": "recipientAfterBalance",
                      "type": "uint256"
                    },
                    {
                      "internalType": "uint256",
                      "name": "transferAmount",
                      "type": "uint256"
                    },
                    {
                      "internalType": "uint256",
                      "name": "tradeAmount",
                      "type": "uint256"
                    },
                    {
                      "internalType": "uint256",
                      "name": "recipientAmount",
                      "type": "uint256"
                    },
                    {
                      "internalType": "uint256",
                      "name": "reserveAmount",
                      "type": "uint256"
                    },
                    {
                      "internalType": "uint256",
                      "name": "gas",
                      "type": "uint256"
                    },
                    {
                      "internalType": "int256",
                      "name": "fee",
                      "type": "int256"
                    },
                    {
                      "internalType": "bool",
                      "name": "isAddPair",
                      "type": "bool"
                    },
                    {
                      "internalType": "bool",
                      "name": "isSwap",
                      "type": "bool"
                    },
                    {
                      "internalType": "bool",
                      "name": "isBurn",
                      "type": "bool"
                    }
                  ],
                  "internalType": "struct TestSwap.TokenInfo",
                  "name": "tokenOut",
                  "type": "tuple"
                },
                {
                  "internalType": "string",
                  "name": "error",
                  "type": "string"
                }
              ],
              "internalType": "struct TestSwap.TradeInfo",
              "name": "sell",
              "type": "tuple"
            },
            {
              "components": [
                {
                  "internalType": "enum TestSwap.State",
                  "name": "state",
                  "type": "uint8"
                },
                {
                  "internalType": "uint256",
                  "name": "gas",
                  "type": "uint256"
                },
                {
                  "components": [
                    {
                      "internalType": "address",
                      "name": "formAddress",
                      "type": "address"
                    },
                    {
                      "internalType": "uint256",
                      "name": "formBeforeBalance",
                      "type": "uint256"
                    },
                    {
                      "internalType": "uint256",
                      "name": "formAfterBalance",
                      "type": "uint256"
                    },
                    {
                      "internalType": "address",
                      "name": "recipientAddress",
                      "type": "address"
                    },
                    {
                      "internalType": "uint256",
                      "name": "recipientBeforeBalance",
                      "type": "uint256"
                    },
                    {
                      "internalType": "uint256",
                      "name": "recipientAfterBalance",
                      "type": "uint256"
                    },
                    {
                      "internalType": "uint256",
                      "name": "transferAmount",
                      "type": "uint256"
                    },
                    {
                      "internalType": "uint256",
                      "name": "tradeAmount",
                      "type": "uint256"
                    },
                    {
                      "internalType": "uint256",
                      "name": "recipientAmount",
                      "type": "uint256"
                    },
                    {
                      "internalType": "uint256",
                      "name": "reserveAmount",
                      "type": "uint256"
                    },
                    {
                      "internalType": "uint256",
                      "name": "gas",
                      "type": "uint256"
                    },
                    {
                      "internalType": "int256",
                      "name": "fee",
                      "type": "int256"
                    },
                    {
                      "internalType": "bool",
                      "name": "isAddPair",
                      "type": "bool"
                    },
                    {
                      "internalType": "bool",
                      "name": "isSwap",
                      "type": "bool"
                    },
                    {
                      "internalType": "bool",
                      "name": "isBurn",
                      "type": "bool"
                    }
                  ],
                  "internalType": "struct TestSwap.TokenInfo",
                  "name": "tokenIn",
                  "type": "tuple"
                },
                {
                  "components": [
                    {
                      "internalType": "address",
                      "name": "formAddress",
                      "type": "address"
                    },
                    {
                      "internalType": "uint256",
                      "name": "formBeforeBalance",
                      "type": "uint256"
                    },
                    {
                      "internalType": "uint256",
                      "name": "formAfterBalance",
                      "type": "uint256"
                    },
                    {
                      "internalType": "address",
                      "name": "recipientAddress",
                      "type": "address"
                    },
                    {
                      "internalType": "uint256",
                      "name": "recipientBeforeBalance",
                      "type": "uint256"
                    },
                    {
                      "internalType": "uint256",
                      "name": "recipientAfterBalance",
                      "type": "uint256"
                    },
                    {
                      "internalType": "uint256",
                      "name": "transferAmount",
                      "type": "uint256"
                    },
                    {
                      "internalType": "uint256",
                      "name": "tradeAmount",
                      "type": "uint256"
                    },
                    {
                      "internalType": "uint256",
                      "name": "recipientAmount",
                      "type": "uint256"
                    },
                    {
                      "internalType": "uint256",
                      "name": "reserveAmount",
                      "type": "uint256"
                    },
                    {
                      "internalType": "uint256",
                      "name": "gas",
                      "type": "uint256"
                    },
                    {
                      "internalType": "int256",
                      "name": "fee",
                      "type": "int256"
                    },
                    {
                      "internalType": "bool",
                      "name": "isAddPair",
                      "type": "bool"
                    },
                    {
                      "internalType": "bool",
                      "name": "isSwap",
                      "type": "bool"
                    },
                    {
                      "internalType": "bool",
                      "name": "isBurn",
                      "type": "bool"
                    }
                  ],
                  "internalType": "struct TestSwap.TokenInfo",
                  "name": "tokenOut",
                  "type": "tuple"
                },
                {
                  "internalType": "string",
                  "name": "error",
                  "type": "string"
                }
              ],
              "internalType": "struct TestSwap.TradeInfo",
              "name": "transfer",
              "type": "tuple"
            },
            {
              "components": [
                {
                  "internalType": "address",
                  "name": "account",
                  "type": "address"
                },
                {
                  "internalType": "uint256",
                  "name": "balanceIn",
                  "type": "uint256"
                },
                {
                  "internalType": "uint256",
                  "name": "balanceOut",
                  "type": "uint256"
                }
              ],
              "internalType": "struct TestSwap.Account",
              "name": "account",
              "type": "tuple"
            },
            {
              "internalType": "uint256",
              "name": "blockNumber",
              "type": "uint256"
            },
            {
              "internalType": "uint256",
              "name": "blockTimestamp",
              "type": "uint256"
            }
          ],
          "internalType": "struct TestSwap.TradeResult[]",
          "name": "results",
          "type": "tuple[]"
        }
      ],
      "stateMutability": "payable",
      "type": "function"
    },
    {
      "inputs": [
        {
          "components": [
            {
              "internalType": "address",
              "name": "router",
              "type": "address"
            },
            {
              "internalType": "address",
              "name": "tokenIn",
              "type": "address"
            },
            {
              "internalType": "address",
              "name": "tokenOut",
              "type": "address"
            },
            {
              "internalType": "address",
              "name": "recipient",
              "type": "address"
            },
            {
              "internalType": "uint256",
              "name": "buy",
              "type": "uint256"
            },
            {
              "internalType": "uint256",
              "name": "sell",
              "type": "uint256"
            },
            {
              "internalType": "uint256",
              "name": "transfer",
              "type": "uint256"
            }
          ],
          "internalType": "struct TestSwap.TradeCall",
          "name": "call",
          "type": "tuple"
        }
      ],
      "name": "one",
      "outputs": [
        {
          "components": [
            {
              "internalType": "uint256",
              "name": "id",
              "type": "uint256"
            },
            {
              "internalType": "uint256",
              "name": "index",
              "type": "uint256"
            },
            {
              "components": [
                {
                  "internalType": "enum TestSwap.State",
                  "name": "state",
                  "type": "uint8"
                },
                {
                  "internalType": "uint256",
                  "name": "gas",
                  "type": "uint256"
                },
                {
                  "components": [
                    {
                      "internalType": "address",
                      "name": "formAddress",
                      "type": "address"
                    },
                    {
                      "internalType": "uint256",
                      "name": "formBeforeBalance",
                      "type": "uint256"
                    },
                    {
                      "internalType": "uint256",
                      "name": "formAfterBalance",
                      "type": "uint256"
                    },
                    {
                      "internalType": "address",
                      "name": "recipientAddress",
                      "type": "address"
                    },
                    {
                      "internalType": "uint256",
                      "name": "recipientBeforeBalance",
                      "type": "uint256"
                    },
                    {
                      "internalType": "uint256",
                      "name": "recipientAfterBalance",
                      "type": "uint256"
                    },
                    {
                      "internalType": "uint256",
                      "name": "transferAmount",
                      "type": "uint256"
                    },
                    {
                      "internalType": "uint256",
                      "name": "tradeAmount",
                      "type": "uint256"
                    },
                    {
                      "internalType": "uint256",
                      "name": "recipientAmount",
                      "type": "uint256"
                    },
                    {
                      "internalType": "uint256",
                      "name": "reserveAmount",
                      "type": "uint256"
                    },
                    {
                      "internalType": "uint256",
                      "name": "gas",
                      "type": "uint256"
                    },
                    {
                      "internalType": "int256",
                      "name": "fee",
                      "type": "int256"
                    },
                    {
                      "internalType": "bool",
                      "name": "isAddPair",
                      "type": "bool"
                    },
                    {
                      "internalType": "bool",
                      "name": "isSwap",
                      "type": "bool"
                    },
                    {
                      "internalType": "bool",
                      "name": "isBurn",
                      "type": "bool"
                    }
                  ],
                  "internalType": "struct TestSwap.TokenInfo",
                  "name": "tokenIn",
                  "type": "tuple"
                },
                {
                  "components": [
                    {
                      "internalType": "address",
                      "name": "formAddress",
                      "type": "address"
                    },
                    {
                      "internalType": "uint256",
                      "name": "formBeforeBalance",
                      "type": "uint256"
                    },
                    {
                      "internalType": "uint256",
                      "name": "formAfterBalance",
                      "type": "uint256"
                    },
                    {
                      "internalType": "address",
                      "name": "recipientAddress",
                      "type": "address"
                    },
                    {
                      "internalType": "uint256",
                      "name": "recipientBeforeBalance",
                      "type": "uint256"
                    },
                    {
                      "internalType": "uint256",
                      "name": "recipientAfterBalance",
                      "type": "uint256"
                    },
                    {
                      "internalType": "uint256",
                      "name": "transferAmount",
                      "type": "uint256"
                    },
                    {
                      "internalType": "uint256",
                      "name": "tradeAmount",
                      "type": "uint256"
                    },
                    {
                      "internalType": "uint256",
                      "name": "recipientAmount",
                      "type": "uint256"
                    },
                    {
                      "internalType": "uint256",
                      "name": "reserveAmount",
                      "type": "uint256"
                    },
                    {
                      "internalType": "uint256",
                      "name": "gas",
                      "type": "uint256"
                    },
                    {
                      "internalType": "int256",
                      "name": "fee",
                      "type": "int256"
                    },
                    {
                      "internalType": "bool",
                      "name": "isAddPair",
                      "type": "bool"
                    },
                    {
                      "internalType": "bool",
                      "name": "isSwap",
                      "type": "bool"
                    },
                    {
                      "internalType": "bool",
                      "name": "isBurn",
                      "type": "bool"
                    }
                  ],
                  "internalType": "struct TestSwap.TokenInfo",
                  "name": "tokenOut",
                  "type": "tuple"
                },
                {
                  "internalType": "string",
                  "name": "error",
                  "type": "string"
                }
              ],
              "internalType": "struct TestSwap.TradeInfo",
              "name": "buy",
              "type": "tuple"
            },
            {
              "components": [
                {
                  "internalType": "enum TestSwap.State",
                  "name": "state",
                  "type": "uint8"
                },
                {
                  "internalType": "uint256",
                  "name": "gas",
                  "type": "uint256"
                },
                {
                  "components": [
                    {
                      "internalType": "address",
                      "name": "formAddress",
                      "type": "address"
                    },
                    {
                      "internalType": "uint256",
                      "name": "formBeforeBalance",
                      "type": "uint256"
                    },
                    {
                      "internalType": "uint256",
                      "name": "formAfterBalance",
                      "type": "uint256"
                    },
                    {
                      "internalType": "address",
                      "name": "recipientAddress",
                      "type": "address"
                    },
                    {
                      "internalType": "uint256",
                      "name": "recipientBeforeBalance",
                      "type": "uint256"
                    },
                    {
                      "internalType": "uint256",
                      "name": "recipientAfterBalance",
                      "type": "uint256"
                    },
                    {
                      "internalType": "uint256",
                      "name": "transferAmount",
                      "type": "uint256"
                    },
                    {
                      "internalType": "uint256",
                      "name": "tradeAmount",
                      "type": "uint256"
                    },
                    {
                      "internalType": "uint256",
                      "name": "recipientAmount",
                      "type": "uint256"
                    },
                    {
                      "internalType": "uint256",
                      "name": "reserveAmount",
                      "type": "uint256"
                    },
                    {
                      "internalType": "uint256",
                      "name": "gas",
                      "type": "uint256"
                    },
                    {
                      "internalType": "int256",
                      "name": "fee",
                      "type": "int256"
                    },
                    {
                      "internalType": "bool",
                      "name": "isAddPair",
                      "type": "bool"
                    },
                    {
                      "internalType": "bool",
                      "name": "isSwap",
                      "type": "bool"
                    },
                    {
                      "internalType": "bool",
                      "name": "isBurn",
                      "type": "bool"
                    }
                  ],
                  "internalType": "struct TestSwap.TokenInfo",
                  "name": "tokenIn",
                  "type": "tuple"
                },
                {
                  "components": [
                    {
                      "internalType": "address",
                      "name": "formAddress",
                      "type": "address"
                    },
                    {
                      "internalType": "uint256",
                      "name": "formBeforeBalance",
                      "type": "uint256"
                    },
                    {
                      "internalType": "uint256",
                      "name": "formAfterBalance",
                      "type": "uint256"
                    },
                    {
                      "internalType": "address",
                      "name": "recipientAddress",
                      "type": "address"
                    },
                    {
                      "internalType": "uint256",
                      "name": "recipientBeforeBalance",
                      "type": "uint256"
                    },
                    {
                      "internalType": "uint256",
                      "name": "recipientAfterBalance",
                      "type": "uint256"
                    },
                    {
                      "internalType": "uint256",
                      "name": "transferAmount",
                      "type": "uint256"
                    },
                    {
                      "internalType": "uint256",
                      "name": "tradeAmount",
                      "type": "uint256"
                    },
                    {
                      "internalType": "uint256",
                      "name": "recipientAmount",
                      "type": "uint256"
                    },
                    {
                      "internalType": "uint256",
                      "name": "reserveAmount",
                      "type": "uint256"
                    },
                    {
                      "internalType": "uint256",
                      "name": "gas",
                      "type": "uint256"
                    },
                    {
                      "internalType": "int256",
                      "name": "fee",
                      "type": "int256"
                    },
                    {
                      "internalType": "bool",
                      "name": "isAddPair",
                      "type": "bool"
                    },
                    {
                      "internalType": "bool",
                      "name": "isSwap",
                      "type": "bool"
                    },
                    {
                      "internalType": "bool",
                      "name": "isBurn",
                      "type": "bool"
                    }
                  ],
                  "internalType": "struct TestSwap.TokenInfo",
                  "name": "tokenOut",
                  "type": "tuple"
                },
                {
                  "internalType": "string",
                  "name": "error",
                  "type": "string"
                }
              ],
              "internalType": "struct TestSwap.TradeInfo",
              "name": "sell",
              "type": "tuple"
            },
            {
              "components": [
                {
                  "internalType": "enum TestSwap.State",
                  "name": "state",
                  "type": "uint8"
                },
                {
                  "internalType": "uint256",
                  "name": "gas",
                  "type": "uint256"
                },
                {
                  "components": [
                    {
                      "internalType": "address",
                      "name": "formAddress",
                      "type": "address"
                    },
                    {
                      "internalType": "uint256",
                      "name": "formBeforeBalance",
                      "type": "uint256"
                    },
                    {
                      "internalType": "uint256",
                      "name": "formAfterBalance",
                      "type": "uint256"
                    },
                    {
                      "internalType": "address",
                      "name": "recipientAddress",
                      "type": "address"
                    },
                    {
                      "internalType": "uint256",
                      "name": "recipientBeforeBalance",
                      "type": "uint256"
                    },
                    {
                      "internalType": "uint256",
                      "name": "recipientAfterBalance",
                      "type": "uint256"
                    },
                    {
                      "internalType": "uint256",
                      "name": "transferAmount",
                      "type": "uint256"
                    },
                    {
                      "internalType": "uint256",
                      "name": "tradeAmount",
                      "type": "uint256"
                    },
                    {
                      "internalType": "uint256",
                      "name": "recipientAmount",
                      "type": "uint256"
                    },
                    {
                      "internalType": "uint256",
                      "name": "reserveAmount",
                      "type": "uint256"
                    },
                    {
                      "internalType": "uint256",
                      "name": "gas",
                      "type": "uint256"
                    },
                    {
                      "internalType": "int256",
                      "name": "fee",
                      "type": "int256"
                    },
                    {
                      "internalType": "bool",
                      "name": "isAddPair",
                      "type": "bool"
                    },
                    {
                      "internalType": "bool",
                      "name": "isSwap",
                      "type": "bool"
                    },
                    {
                      "internalType": "bool",
                      "name": "isBurn",
                      "type": "bool"
                    }
                  ],
                  "internalType": "struct TestSwap.TokenInfo",
                  "name": "tokenIn",
                  "type": "tuple"
                },
                {
                  "components": [
                    {
                      "internalType": "address",
                      "name": "formAddress",
                      "type": "address"
                    },
                    {
                      "internalType": "uint256",
                      "name": "formBeforeBalance",
                      "type": "uint256"
                    },
                    {
                      "internalType": "uint256",
                      "name": "formAfterBalance",
                      "type": "uint256"
                    },
                    {
                      "internalType": "address",
                      "name": "recipientAddress",
                      "type": "address"
                    },
                    {
                      "internalType": "uint256",
                      "name": "recipientBeforeBalance",
                      "type": "uint256"
                    },
                    {
                      "internalType": "uint256",
                      "name": "recipientAfterBalance",
                      "type": "uint256"
                    },
                    {
                      "internalType": "uint256",
                      "name": "transferAmount",
                      "type": "uint256"
                    },
                    {
                      "internalType": "uint256",
                      "name": "tradeAmount",
                      "type": "uint256"
                    },
                    {
                      "internalType": "uint256",
                      "name": "recipientAmount",
                      "type": "uint256"
                    },
                    {
                      "internalType": "uint256",
                      "name": "reserveAmount",
                      "type": "uint256"
                    },
                    {
                      "internalType": "uint256",
                      "name": "gas",
                      "type": "uint256"
                    },
                    {
                      "internalType": "int256",
                      "name": "fee",
                      "type": "int256"
                    },
                    {
                      "internalType": "bool",
                      "name": "isAddPair",
                      "type": "bool"
                    },
                    {
                      "internalType": "bool",
                      "name": "isSwap",
                      "type": "bool"
                    },
                    {
                      "internalType": "bool",
                      "name": "isBurn",
                      "type": "bool"
                    }
                  ],
                  "internalType": "struct TestSwap.TokenInfo",
                  "name": "tokenOut",
                  "type": "tuple"
                },
                {
                  "internalType": "string",
                  "name": "error",
                  "type": "string"
                }
              ],
              "internalType": "struct TestSwap.TradeInfo",
              "name": "transfer",
              "type": "tuple"
            },
            {
              "components": [
                {
                  "internalType": "address",
                  "name": "account",
                  "type": "address"
                },
                {
                  "internalType": "uint256",
                  "name": "balanceIn",
                  "type": "uint256"
                },
                {
                  "internalType": "uint256",
                  "name": "balanceOut",
                  "type": "uint256"
                }
              ],
              "internalType": "struct TestSwap.Account",
              "name": "account",
              "type": "tuple"
            },
            {
              "internalType": "uint256",
              "name": "blockNumber",
              "type": "uint256"
            },
            {
              "internalType": "uint256",
              "name": "blockTimestamp",
              "type": "uint256"
            }
          ],
          "internalType": "struct TestSwap.TradeResult",
          "name": "result",
          "type": "tuple"
        }
      ],
      "stateMutability": "payable",
      "type": "function"
    },
    {
      "inputs": [
        {
          "internalType": "address",
          "name": "router",
          "type": "address"
        },
        {
          "internalType": "address",
          "name": "tokenIn",
          "type": "address"
        },
        {
          "internalType": "address",
          "name": "tokenOut",
          "type": "address"
        },
        {
          "internalType": "address",
          "name": "from",
          "type": "address"
        },
        {
          "internalType": "address",
          "name": "recipient",
          "type": "address"
        },
        {
          "internalType": "uint256",
          "name": "amountIn",
          "type": "uint256"
        },
        {
          "internalType": "uint256",
          "name": "amountOut",
          "type": "uint256"
        }
      ],
      "name": "swapV2",
      "outputs": [
        {
          "components": [
            {
              "internalType": "enum TestSwap.State",
              "name": "state",
              "type": "uint8"
            },
            {
              "internalType": "uint256",
              "name": "gas",
              "type": "uint256"
            },
            {
              "components": [
                {
                  "internalType": "address",
                  "name": "formAddress",
                  "type": "address"
                },
                {
                  "internalType": "uint256",
                  "name": "formBeforeBalance",
                  "type": "uint256"
                },
                {
                  "internalType": "uint256",
                  "name": "formAfterBalance",
                  "type": "uint256"
                },
                {
                  "internalType": "address",
                  "name": "recipientAddress",
                  "type": "address"
                },
                {
                  "internalType": "uint256",
                  "name": "recipientBeforeBalance",
                  "type": "uint256"
                },
                {
                  "internalType": "uint256",
                  "name": "recipientAfterBalance",
                  "type": "uint256"
                },
                {
                  "internalType": "uint256",
                  "name": "transferAmount",
                  "type": "uint256"
                },
                {
                  "internalType": "uint256",
                  "name": "tradeAmount",
                  "type": "uint256"
                },
                {
                  "internalType": "uint256",
                  "name": "recipientAmount",
                  "type": "uint256"
                },
                {
                  "internalType": "uint256",
                  "name": "reserveAmount",
                  "type": "uint256"
                },
                {
                  "internalType": "uint256",
                  "name": "gas",
                  "type": "uint256"
                },
                {
                  "internalType": "int256",
                  "name": "fee",
                  "type": "int256"
                },
                {
                  "internalType": "bool",
                  "name": "isAddPair",
                  "type": "bool"
                },
                {
                  "internalType": "bool",
                  "name": "isSwap",
                  "type": "bool"
                },
                {
                  "internalType": "bool",
                  "name": "isBurn",
                  "type": "bool"
                }
              ],
              "internalType": "struct TestSwap.TokenInfo",
              "name": "tokenIn",
              "type": "tuple"
            },
            {
              "components": [
                {
                  "internalType": "address",
                  "name": "formAddress",
                  "type": "address"
                },
                {
                  "internalType": "uint256",
                  "name": "formBeforeBalance",
                  "type": "uint256"
                },
                {
                  "internalType": "uint256",
                  "name": "formAfterBalance",
                  "type": "uint256"
                },
                {
                  "internalType": "address",
                  "name": "recipientAddress",
                  "type": "address"
                },
                {
                  "internalType": "uint256",
                  "name": "recipientBeforeBalance",
                  "type": "uint256"
                },
                {
                  "internalType": "uint256",
                  "name": "recipientAfterBalance",
                  "type": "uint256"
                },
                {
                  "internalType": "uint256",
                  "name": "transferAmount",
                  "type": "uint256"
                },
                {
                  "internalType": "uint256",
                  "name": "tradeAmount",
                  "type": "uint256"
                },
                {
                  "internalType": "uint256",
                  "name": "recipientAmount",
                  "type": "uint256"
                },
                {
                  "internalType": "uint256",
                  "name": "reserveAmount",
                  "type": "uint256"
                },
                {
                  "internalType": "uint256",
                  "name": "gas",
                  "type": "uint256"
                },
                {
                  "internalType": "int256",
                  "name": "fee",
                  "type": "int256"
                },
                {
                  "internalType": "bool",
                  "name": "isAddPair",
                  "type": "bool"
                },
                {
                  "internalType": "bool",
                  "name": "isSwap",
                  "type": "bool"
                },
                {
                  "internalType": "bool",
                  "name": "isBurn",
                  "type": "bool"
                }
              ],
              "internalType": "struct TestSwap.TokenInfo",
              "name": "tokenOut",
              "type": "tuple"
            },
            {
              "internalType": "string",
              "name": "error",
              "type": "string"
            }
          ],
          "internalType": "struct TestSwap.TradeInfo",
          "name": "info",
          "type": "tuple"
        }
      ],
      "stateMutability": "nonpayable",
      "type": "function"
    },
    {
      "inputs": [
        {
          "internalType": "address",
          "name": "token",
          "type": "address"
        },
        {
          "internalType": "address",
          "name": "from",
          "type": "address"
        },
        {
          "internalType": "address",
          "name": "to",
          "type": "address"
        },
        {
          "internalType": "uint256",
          "name": "value",
          "type": "uint256"
        }
      ],
      "name": "transfer",
      "outputs": [
        {
          "components": [
            {
              "internalType": "enum TestSwap.State",
              "name": "state",
              "type": "uint8"
            },
            {
              "internalType": "uint256",
              "name": "gas",
              "type": "uint256"
            },
            {
              "components": [
                {
                  "internalType": "address",
                  "name": "formAddress",
                  "type": "address"
                },
                {
                  "internalType": "uint256",
                  "name": "formBeforeBalance",
                  "type": "uint256"
                },
                {
                  "internalType": "uint256",
                  "name": "formAfterBalance",
                  "type": "uint256"
                },
                {
                  "internalType": "address",
                  "name": "recipientAddress",
                  "type": "address"
                },
                {
                  "internalType": "uint256",
                  "name": "recipientBeforeBalance",
                  "type": "uint256"
                },
                {
                  "internalType": "uint256",
                  "name": "recipientAfterBalance",
                  "type": "uint256"
                },
                {
                  "internalType": "uint256",
                  "name": "transferAmount",
                  "type": "uint256"
                },
                {
                  "internalType": "uint256",
                  "name": "tradeAmount",
                  "type": "uint256"
                },
                {
                  "internalType": "uint256",
                  "name": "recipientAmount",
                  "type": "uint256"
                },
                {
                  "internalType": "uint256",
                  "name": "reserveAmount",
                  "type": "uint256"
                },
                {
                  "internalType": "uint256",
                  "name": "gas",
                  "type": "uint256"
                },
                {
                  "internalType": "int256",
                  "name": "fee",
                  "type": "int256"
                },
                {
                  "internalType": "bool",
                  "name": "isAddPair",
                  "type": "bool"
                },
                {
                  "internalType": "bool",
                  "name": "isSwap",
                  "type": "bool"
                },
                {
                  "internalType": "bool",
                  "name": "isBurn",
                  "type": "bool"
                }
              ],
              "internalType": "struct TestSwap.TokenInfo",
              "name": "tokenIn",
              "type": "tuple"
            },
            {
              "components": [
                {
                  "internalType": "address",
                  "name": "formAddress",
                  "type": "address"
                },
                {
                  "internalType": "uint256",
                  "name": "formBeforeBalance",
                  "type": "uint256"
                },
                {
                  "internalType": "uint256",
                  "name": "formAfterBalance",
                  "type": "uint256"
                },
                {
                  "internalType": "address",
                  "name": "recipientAddress",
                  "type": "address"
                },
                {
                  "internalType": "uint256",
                  "name": "recipientBeforeBalance",
                  "type": "uint256"
                },
                {
                  "internalType": "uint256",
                  "name": "recipientAfterBalance",
                  "type": "uint256"
                },
                {
                  "internalType": "uint256",
                  "name": "transferAmount",
                  "type": "uint256"
                },
                {
                  "internalType": "uint256",
                  "name": "tradeAmount",
                  "type": "uint256"
                },
                {
                  "internalType": "uint256",
                  "name": "recipientAmount",
                  "type": "uint256"
                },
                {
                  "internalType": "uint256",
                  "name": "reserveAmount",
                  "type": "uint256"
                },
                {
                  "internalType": "uint256",
                  "name": "gas",
                  "type": "uint256"
                },
                {
                  "internalType": "int256",
                  "name": "fee",
                  "type": "int256"
                },
                {
                  "internalType": "bool",
                  "name": "isAddPair",
                  "type": "bool"
                },
                {
                  "internalType": "bool",
                  "name": "isSwap",
                  "type": "bool"
                },
                {
                  "internalType": "bool",
                  "name": "isBurn",
                  "type": "bool"
                }
              ],
              "internalType": "struct TestSwap.TokenInfo",
              "name": "tokenOut",
              "type": "tuple"
            },
            {
              "internalType": "string",
              "name": "error",
              "type": "string"
            }
          ],
          "internalType": "struct TestSwap.TradeInfo",
          "name": "info",
          "type": "tuple"
        }
      ],
      "stateMutability": "nonpayable",
      "type": "function"
    },
    {
      "stateMutability": "payable",
      "type": "receive"
    }
  ]
}