{
  "data": {
    "bytecode": {
      "linkReferences": {},
      "object": "608060405260008060006101000a81548173ffffffffffffffffffffffffffffffffffffffff021916908373ffffffffffffffffffffffffffffffffffffffff16021790555060018060006101000a81548173ffffffffffffffffffffffffffffffffffffffff021916908373ffffffffffffffffffffffffffffffffffffffff16021790555060006002556000600355600060045530600560006101000a81548173ffffffffffffffffffffffffffffffffffffffff021916908373ffffffffffffffffffffffffffffffffffffffff160217905550615fce806100e56000396000f3fe608060405260043610620000555760003560e01c806359ec6006146200006257806387cbe0fc1462000098578063a64e3dd714620000cf578063e6952ddd1462000113578063f18d03cc1462000149576200005d565b366200005d57005b600080fd5b6200008060048036038101906200007a919062004656565b6200018d565b6040516200008f919062005242565b60405180910390f35b620000b66004803603810190620000b091906200472e565b620002f4565b604051620000c692919062005215565b60405180910390f35b348015620000dc57600080fd5b50620000fb6004803603810190620000f5919062004548565b620004da565b6040516200010a91906200530b565b60405180910390f35b6200013160048036038101906200012b919062004760565b620009dd565b6040516200014091906200532f565b60405180910390f35b3480156200015657600080fd5b506200017560048036038101906200016f9190620045e4565b620013cd565b6040516200018491906200530b565b60405180910390f35b60608282905067ffffffffffffffff811115620001af57620001ae6200594b565b5b604051908082528060200260200182016040528015620001ec57816020015b620001d862003c41565b815260200190600190039081620001ce5790505b50905060005b83839050811015620002ed573073ffffffffffffffffffffffffffffffffffffffff1663e6952ddd85858481811062000230576200022f6200591c565b5b905060e002016040518263ffffffff1660e01b8152600401620002549190620052ee565b600060405180830381600087803b1580156200026f57600080fd5b505af1925050508015620002a857506040513d6000823e3d601f19601f82011682018060405250810190620002a59190620047e3565b60015b620002b357620002d7565b80838381518110620002ca57620002c96200591c565b5b6020026020010181905250505b8080620002e49062005870565b915050620001f2565b5092915050565b6000808262000343816000016020810190620003119190620044e4565b826020016020810190620003269190620044e4565b8360400160208101906200033b9190620044e4565b600162001413565b6200038b8460200160208101906200035c9190620044e4565b30600b60009054906101000a900473ffffffffffffffffffffffffffffffffffffffff16876060013562002136565b50620003d4846040016020810190620003a59190620044e4565b32600b60009054906101000a900473ffffffffffffffffffffffffffffffffffffffff16876080013562002136565b506000600a60009054906101000a900473ffffffffffffffffffffffffffffffffffffffff1673ffffffffffffffffffffffffffffffffffffffff16636a627842306040518263ffffffff1660e01b815260040162000434919062005067565b602060405180830381600087803b1580156200044f57600080fd5b505af115801562000464573d6000803e3d6000fd5b505050506040513d601f19601f820116820180604052508101906200048a919062004890565b9050600b60009054906101000a900473ffffffffffffffffffffffffffffffffffffffff16819350935050620004d4816020016020810190620004ce9190620044e4565b62002bf0565b50915091565b620004e462003cb4565b600083141580620004f6575060008214155b62000538576040517f08c379a00000000000000000000000000000000000000000000000000000000081526004016200052f90620052aa565b60405180910390fd5b60018160000181815250506000600267ffffffffffffffff8111156200056357620005626200594b565b5b604051908082528060200260200182016040528015620005925781602001602082028036833780820191505090505b5090508781600081518110620005ad57620005ac6200591c565b5b602002602001019073ffffffffffffffffffffffffffffffffffffffff16908173ffffffffffffffffffffffffffffffffffffffff16815250508681600181518110620005ff57620005fe6200591c565b5b602002602001019073ffffffffffffffffffffffffffffffffffffffff16908173ffffffffffffffffffffffffffffffffffffffff1681525050600084116200071e57600660009054906101000a900473ffffffffffffffffffffffffffffffffffffffff1673ffffffffffffffffffffffffffffffffffffffff16631f00ca7484836040518363ffffffff1660e01b8152600401620006a192919062005353565b60006040518083038186803b158015620006ba57600080fd5b505afa158015620006cf573d6000803e3d6000fd5b505050506040513d6000823e3d601f19601f82011682018060405250810190620006fa9190620046ab565b60008151811062000710576200070f6200591c565b5b602002602001015162000720565b835b9350620007528887600b60009054906101000a900473ffffffffffffffffffffffffffffffffffffffff168762002136565b82604001819052508773ffffffffffffffffffffffffffffffffffffffff16600c60009054906101000a900473ffffffffffffffffffffffffffffffffffffffff1673ffffffffffffffffffffffffffffffffffffffff161415620008a357600660009054906101000a900473ffffffffffffffffffffffffffffffffffffffff1673ffffffffffffffffffffffffffffffffffffffff1663d06ca61f836040015160e00151836040518363ffffffff1660e01b81526004016200081892919062005353565b60006040518083038186803b1580156200083157600080fd5b505afa15801562000846573d6000803e3d6000fd5b505050506040513d6000823e3d601f19601f82011682018060405250810190620008719190620046ab565b6001815181106200088757620008866200591c565b5b6020026020010151600e819055506000600d8190555062000990565b600660009054906101000a900473ffffffffffffffffffffffffffffffffffffffff1673ffffffffffffffffffffffffffffffffffffffff1663d06ca61f836040015160e00151836040518363ffffffff1660e01b81526004016200090a92919062005353565b60006040518083038186803b1580156200092357600080fd5b505afa15801562000938573d6000803e3d6000fd5b505050506040513d6000823e3d601f19601f82011682018060405250810190620009639190620046ab565b6001815181106200097957620009786200591c565b5b6020026020010151600d819055506000600e819055505b620009a1600d54600e5487620031f3565b82606001819052508160600151610140015182604001516101400151620009c99190620055a3565b826020018181525050509695505050505050565b620009e762003c41565b60025443111562000a1e5743600281905550600060048190555060016003600082825462000a169190620055a3565b925050819055505b60016004600082825462000a339190620055a3565b925050819055508162000a56816000015182602001518360400151600062001413565b600160009054906101000a900473ffffffffffffffffffffffffffffffffffffffff1673ffffffffffffffffffffffffffffffffffffffff16816060015173ffffffffffffffffffffffffffffffffffffffff16141562000afd5762000ac58160200151826040015162003764565b816060019073ffffffffffffffffffffffffffffffffffffffff16908173ffffffffffffffffffffffffffffffffffffffff16815250505b600354826000018181525050600454826020018181525050600083604001519050600080856060015190506000600560009054906101000a900473ffffffffffffffffffffffffffffffffffffffff1690507fd24646079e049d40989a6ef1838fece81cad58640453288addf8b6e5e0b475db60405160405180910390a160008760800151111562000d795761271087608001518573ffffffffffffffffffffffffffffffffffffffff166370a08231600b60009054906101000a900473ffffffffffffffffffffffffffffffffffffffff166040518263ffffffff1660e01b815260040162000bee919062005067565b60206040518083038186803b15801562000c0757600080fd5b505afa15801562000c1c573d6000803e3d6000fd5b505050506040513d601f19601f8201168201806040525081019062000c42919062004890565b62000c4e919062005638565b62000c5a919062005600565b92503073ffffffffffffffffffffffffffffffffffffffff1663a64e3dd78860200151896040015184866000896040518763ffffffff1660e01b815260040162000caa96959493929190620050b1565b600060405180830381600087803b15801562000cc557600080fd5b505af192505050801562000cfe57506040513d6000823e3d601f19601f8201168201806040525081019062000cfb919062004792565b60015b62000d6d5762000d0d6200597a565b806308c379a0141562000d55575062000d2562005ada565b8062000d32575062000d57565b600287606001516000018181525050808760600151608001819052505062000d67565b505b6002866060015160000181815250505b62000d78565b808760600181905250505b5b600087608001511462000d8d578162000d8f565b325b90507fd24646079e049d40989a6ef1838fece81cad58640453288addf8b6e5e0b475db60405160405180910390a160028660600151600001511415801562000ddb575060008760a00151115b1562000faf578373ffffffffffffffffffffffffffffffffffffffff166370a08231826040518263ffffffff1660e01b815260040162000e1c919062005067565b60206040518083038186803b15801562000e3557600080fd5b505afa15801562000e4a573d6000803e3d6000fd5b505050506040513d601f19601f8201168201806040525081019062000e70919062004890565b92503073ffffffffffffffffffffffffffffffffffffffff1663a64e3dd78860400151896020015184866127108d60a001518a62000eaf919062005638565b62000ebb919062005600565b60006040518763ffffffff1660e01b815260040162000ee0969594939291906200511e565b600060405180830381600087803b15801562000efb57600080fd5b505af192505050801562000f3457506040513d6000823e3d601f19601f8201168201806040525081019062000f31919062004792565b60015b62000fa35762000f436200597a565b806308c379a0141562000f8b575062000f5b62005ada565b8062000f68575062000f8d565b600287608001516000018181525050808760800151608001819052505062000f9d565b505b6002866060015160000181815250505b62000fae565b808760800181905250505b5b7fd24646079e049d40989a6ef1838fece81cad58640453288addf8b6e5e0b475db60405160405180910390a160028660600151600001511415801562000ff9575060008760c00151115b15620011cd578373ffffffffffffffffffffffffffffffffffffffff166370a08231826040518263ffffffff1660e01b81526004016200103a919062005067565b60206040518083038186803b1580156200105357600080fd5b505afa15801562001068573d6000803e3d6000fd5b505050506040513d601f19601f820116820180604052508101906200108e919062004890565b92503073ffffffffffffffffffffffffffffffffffffffff1663f18d03cc886040015183620010bc62003810565b6127108c60c0015189620010d1919062005638565b620010dd919062005600565b6040518563ffffffff1660e01b8152600401620010fe94939291906200518b565b600060405180830381600087803b1580156200111957600080fd5b505af19250505080156200115257506040513d6000823e3d601f19601f820116820180604052508101906200114f919062004792565b60015b620011c157620011616200597a565b806308c379a01415620011a957506200117962005ada565b80620011865750620011ab565b60028760a001516000018181525050808760a001516080018190525050620011bb565b505b6002866060015160000181815250505b620011cc565b808760a00181905250505b5b7fd24646079e049d40989a6ef1838fece81cad58640453288addf8b6e5e0b475db60405160405180910390a1600b60009054906101000a900473ffffffffffffffffffffffffffffffffffffffff16866040019073ffffffffffffffffffffffffffffffffffffffff16908173ffffffffffffffffffffffffffffffffffffffff168152505060405180606001604052808373ffffffffffffffffffffffffffffffffffffffff168152602001886020015173ffffffffffffffffffffffffffffffffffffffff166370a082318a606001516040518263ffffffff1660e01b8152600401620012bd919062005067565b60206040518083038186803b158015620012d657600080fd5b505afa158015620012eb573d6000803e3d6000fd5b505050506040513d601f19601f8201168201806040525081019062001311919062004890565b81526020018573ffffffffffffffffffffffffffffffffffffffff166370a082318a606001516040518263ffffffff1660e01b815260040162001355919062005067565b60206040518083038186803b1580156200136e57600080fd5b505afa15801562001383573d6000803e3d6000fd5b505050506040513d601f19601f82011682018060405250810190620013a9919062004890565b8152508660c0018190525050505050620013c7816020015162002bf0565b50919050565b620013d762003cb4565b6001816000018181525050620013f08585858562002136565b816040018190525080604001516101400151816020018181525050949350505050565b83600660006101000a81548173ffffffffffffffffffffffffffffffffffffffff021916908373ffffffffffffffffffffffffffffffffffffffff160217905550600660009054906101000a900473ffffffffffffffffffffffffffffffffffffffff1673ffffffffffffffffffffffffffffffffffffffff1663ad5c46486040518163ffffffff1660e01b815260040160206040518083038186803b158015620014bd57600080fd5b505afa158015620014d2573d6000803e3d6000fd5b505050506040513d601f19601f82011682018060405250810190620014f8919062004516565b600760006101000a81548173ffffffffffffffffffffffffffffffffffffffff021916908373ffffffffffffffffffffffffffffffffffffffff160217905550600760009054906101000a900473ffffffffffffffffffffffffffffffffffffffff16600860006101000a81548173ffffffffffffffffffffffffffffffffffffffff021916908373ffffffffffffffffffffffffffffffffffffffff160217905550600660009054906101000a900473ffffffffffffffffffffffffffffffffffffffff1673ffffffffffffffffffffffffffffffffffffffff1663c45a01556040518163ffffffff1660e01b815260040160206040518083038186803b1580156200160457600080fd5b505afa15801562001619573d6000803e3d6000fd5b505050506040513d601f19601f820116820180604052508101906200163f919062004516565b600960006101000a81548173ffffffffffffffffffffffffffffffffffffffff021916908373ffffffffffffffffffffffffffffffffffffffff160217905550674563918244f40000600560009054906101000a900473ffffffffffffffffffffffffffffffffffffffff1673ffffffffffffffffffffffffffffffffffffffff163111156200179d57600860009054906101000a900473ffffffffffffffffffffffffffffffffffffffff1673ffffffffffffffffffffffffffffffffffffffff1663d0e30db0674563918244f40000600560009054906101000a900473ffffffffffffffffffffffffffffffffffffffff1673ffffffffffffffffffffffffffffffffffffffff163162001756919062005737565b6040518263ffffffff1660e01b81526004016000604051808303818588803b1580156200178257600080fd5b505af115801562001797573d6000803e3d6000fd5b50505050505b600760009054906101000a900473ffffffffffffffffffffffffffffffffffffffff1673ffffffffffffffffffffffffffffffffffffffff168373ffffffffffffffffffffffffffffffffffffffff1614158015620018ce57506000600860009054906101000a900473ffffffffffffffffffffffffffffffffffffffff1673ffffffffffffffffffffffffffffffffffffffff166370a08231600560009054906101000a900473ffffffffffffffffffffffffffffffffffffffff166040518263ffffffff1660e01b815260040162001878919062005067565b60206040518083038186803b1580156200189157600080fd5b505afa158015620018a6573d6000803e3d6000fd5b505050506040513d601f19601f82011682018060405250810190620018cc919062004890565b115b1562001ccc57600960009054906101000a900473ffffffffffffffffffffffffffffffffffffffff1673ffffffffffffffffffffffffffffffffffffffff1663e6a4390584600760009054906101000a900473ffffffffffffffffffffffffffffffffffffffff166040518363ffffffff1660e01b81526004016200195592919062005084565b60206040518083038186803b1580156200196e57600080fd5b505afa15801562001983573d6000803e3d6000fd5b505050506040513d601f19601f82011682018060405250810190620019a9919062004516565b600b60006101000a81548173ffffffffffffffffffffffffffffffffffffffff021916908373ffffffffffffffffffffffffffffffffffffffff160217905550600b60009054906101000a900473ffffffffffffffffffffffffffffffffffffffff16600a60006101000a81548173ffffffffffffffffffffffffffffffffffffffff021916908373ffffffffffffffffffffffffffffffffffffffff160217905550600a60009054906101000a900473ffffffffffffffffffffffffffffffffffffffff1673ffffffffffffffffffffffffffffffffffffffff16630dfe16816040518163ffffffff1660e01b815260040160206040518083038186803b15801562001ab557600080fd5b505afa15801562001aca573d6000803e3d6000fd5b505050506040513d601f19601f8201168201806040525081019062001af0919062004516565b600c60006101000a81548173ffffffffffffffffffffffffffffffffffffffff021916908373ffffffffffffffffffffffffffffffffffffffff1602179055503073ffffffffffffffffffffffffffffffffffffffff1663a64e3dd7600760009054906101000a900473ffffffffffffffffffffffffffffffffffffffff16853030600860009054906101000a900473ffffffffffffffffffffffffffffffffffffffff1673ffffffffffffffffffffffffffffffffffffffff166370a08231600560009054906101000a900473ffffffffffffffffffffffffffffffffffffffff166040518263ffffffff1660e01b815260040162001bf1919062005067565b60206040518083038186803b15801562001c0a57600080fd5b505afa15801562001c1f573d6000803e3d6000fd5b505050506040513d601f19601f8201168201806040525081019062001c45919062004890565b60006040518763ffffffff1660e01b815260040162001c6a969594939291906200511e565b600060405180830381600087803b15801562001c8557600080fd5b505af192505050801562001cbe57506040513d6000823e3d601f19601f8201168201806040525081019062001cbb919062004792565b60015b62001cc95762001ccb565b505b5b600960009054906101000a900473ffffffffffffffffffffffffffffffffffffffff1673ffffffffffffffffffffffffffffffffffffffff1663e6a4390584846040518363ffffffff1660e01b815260040162001d2b92919062005084565b60206040518083038186803b15801562001d4457600080fd5b505afa15801562001d59573d6000803e3d6000fd5b505050506040513d601f19601f8201168201806040525081019062001d7f919062004516565b600b60006101000a81548173ffffffffffffffffffffffffffffffffffffffff021916908373ffffffffffffffffffffffffffffffffffffffff16021790555060008054906101000a900473ffffffffffffffffffffffffffffffffffffffff1673ffffffffffffffffffffffffffffffffffffffff16600b60009054906101000a900473ffffffffffffffffffffffffffffffffffffffff1673ffffffffffffffffffffffffffffffffffffffff1614158062001e3a5750805b62001e7c576040517f08c379a000000000000000000000000000000000000000000000000000000000815260040162001e739062005288565b60405180910390fd5b60008054906101000a900473ffffffffffffffffffffffffffffffffffffffff1673ffffffffffffffffffffffffffffffffffffffff16600b60009054906101000a900473ffffffffffffffffffffffffffffffffffffffff1673ffffffffffffffffffffffffffffffffffffffff16141562001fe957600960009054906101000a900473ffffffffffffffffffffffffffffffffffffffff1673ffffffffffffffffffffffffffffffffffffffff1663c9c6539684846040518363ffffffff1660e01b815260040162001f5292919062005084565b602060405180830381600087803b15801562001f6d57600080fd5b505af115801562001f82573d6000803e3d6000fd5b505050506040513d601f19601f8201168201806040525081019062001fa8919062004516565b600b60006101000a81548173ffffffffffffffffffffffffffffffffffffffff021916908373ffffffffffffffffffffffffffffffffffffffff1602179055505b600b60009054906101000a900473ffffffffffffffffffffffffffffffffffffffff16600a60006101000a81548173ffffffffffffffffffffffffffffffffffffffff021916908373ffffffffffffffffffffffffffffffffffffffff160217905550600a60009054906101000a900473ffffffffffffffffffffffffffffffffffffffff1673ffffffffffffffffffffffffffffffffffffffff16630dfe16816040518163ffffffff1660e01b815260040160206040518083038186803b158015620020b557600080fd5b505afa158015620020ca573d6000803e3d6000fd5b505050506040513d601f19601f82011682018060405250810190620020f0919062004516565b600c60006101000a81548173ffffffffffffffffffffffffffffffffffffffff021916908373ffffffffffffffffffffffffffffffffffffffff16021790555050505050565b6200214062003cf3565b818160c0018181525050620021578585846200384d565b816000019073ffffffffffffffffffffffffffffffffffffffff16908173ffffffffffffffffffffffffffffffffffffffff16815250508473ffffffffffffffffffffffffffffffffffffffff166370a0823182600001516040518263ffffffff1660e01b8152600401620021cd919062005067565b60206040518083038186803b158015620021e657600080fd5b505afa158015620021fb573d6000803e3d6000fd5b505050506040513d601f19601f8201168201806040525081019062002221919062004890565b81602001818152505082816060019073ffffffffffffffffffffffffffffffffffffffff16908173ffffffffffffffffffffffffffffffffffffffff16815250508473ffffffffffffffffffffffffffffffffffffffff166370a08231846040518263ffffffff1660e01b81526004016200229d919062005067565b60206040518083038186803b158015620022b657600080fd5b505afa158015620022cb573d6000803e3d6000fd5b505050506040513d601f19601f82011682018060405250810190620022f1919062004890565b81608001818152505060008054906101000a900473ffffffffffffffffffffffffffffffffffffffff1673ffffffffffffffffffffffffffffffffffffffff16600b60009054906101000a900473ffffffffffffffffffffffffffffffffffffffff1673ffffffffffffffffffffffffffffffffffffffff1614620024fa57600a60009054906101000a900473ffffffffffffffffffffffffffffffffffffffff1673ffffffffffffffffffffffffffffffffffffffff16630902f1ac6040518163ffffffff1660e01b815260040160606040518083038186803b158015620023d957600080fd5b505afa158015620023ee573d6000803e3d6000fd5b505050506040513d601f19601f8201168201806040525081019062002414919062004834565b826dffffffffffffffffffffffffffff169250816dffffffffffffffffffffffffffff16915050600d6000600e6000849190505583919050555050600a60009054906101000a900473ffffffffffffffffffffffffffffffffffffffff1673ffffffffffffffffffffffffffffffffffffffff166318160ddd6040518163ffffffff1660e01b815260040160206040518083038186803b158015620024b857600080fd5b505afa158015620024cd573d6000803e3d6000fd5b505050506040513d601f19601f82011682018060405250810190620024f3919062004890565b600f819055505b5a81610140018181525050600560009054906101000a900473ffffffffffffffffffffffffffffffffffffffff1673ffffffffffffffffffffffffffffffffffffffff16816000015173ffffffffffffffffffffffffffffffffffffffff1614156200263b578473ffffffffffffffffffffffffffffffffffffffff1663a9059cbb84846040518363ffffffff1660e01b81526004016200259d92919062005215565b602060405180830381600087803b158015620025b857600080fd5b505af1158015620025cd573d6000803e3d6000fd5b505050506040513d601f19601f82011682018060405250810190620025f39190620046fc565b62002635576040517f08c379a00000000000000000000000000000000000000000000000000000000081526004016200262c90620052cc565b60405180910390fd5b62002713565b8473ffffffffffffffffffffffffffffffffffffffff166323b872dd8585856040518463ffffffff1660e01b81526004016200267a93929190620051d8565b602060405180830381600087803b1580156200269557600080fd5b505af1158015620026aa573d6000803e3d6000fd5b505050506040513d601f19601f82011682018060405250810190620026d09190620046fc565b62002712576040517f08c379a0000000000000000000000000000000000000000000000000000000008152600401620027099062005266565b60405180910390fd5b5b5a816101400181815162002728919062005737565b915081815250508473ffffffffffffffffffffffffffffffffffffffff166370a0823182600001516040518263ffffffff1660e01b81526004016200276e919062005067565b60206040518083038186803b1580156200278757600080fd5b505afa1580156200279c573d6000803e3d6000fd5b505050506040513d601f19601f82011682018060405250810190620027c2919062004890565b8160400181815250508473ffffffffffffffffffffffffffffffffffffffff166370a08231846040518263ffffffff1660e01b815260040162002806919062005067565b60206040518083038186803b1580156200281f57600080fd5b505afa15801562002834573d6000803e3d6000fd5b505050506040513d601f19601f820116820180604052508101906200285a919062004890565b8160a001818152505080608001518160a00151038160e001818152505060008054906101000a900473ffffffffffffffffffffffffffffffffffffffff1673ffffffffffffffffffffffffffffffffffffffff16600b60009054906101000a900473ffffffffffffffffffffffffffffffffffffffff1673ffffffffffffffffffffffffffffffffffffffff161462002ba257600f54600a60009054906101000a900473ffffffffffffffffffffffffffffffffffffffff1673ffffffffffffffffffffffffffffffffffffffff166318160ddd6040518163ffffffff1660e01b815260040160206040518083038186803b1580156200295957600080fd5b505afa1580156200296e573d6000803e3d6000fd5b505050506040513d601f19601f8201168201806040525081019062002994919062004890565b1181610180019015159081151581525050600080600a60009054906101000a900473ffffffffffffffffffffffffffffffffffffffff1673ffffffffffffffffffffffffffffffffffffffff16630902f1ac6040518163ffffffff1660e01b815260040160606040518083038186803b15801562002a1157600080fd5b505afa15801562002a26573d6000803e3d6000fd5b505050506040513d601f19601f8201168201806040525081019062002a4c919062004834565b506dffffffffffffffffffffffffffff1691506dffffffffffffffffffffffffffff16915060008773ffffffffffffffffffffffffffffffffffffffff16600c60009054906101000a900473ffffffffffffffffffffffffffffffffffffffff1673ffffffffffffffffffffffffffffffffffffffff16141562002afd57829050600e548210846101a0019015159081151581525050600d548310846101c001901515908115158152505062002b2b565b819050600d548310846101a0019015159081151581525050600e548210846101c00190151590811515815250505b600a60009054906101000a900473ffffffffffffffffffffffffffffffffffffffff1673ffffffffffffffffffffffffffffffffffffffff168673ffffffffffffffffffffffffffffffffffffffff16141562002b9e57808460a0015162002b94919062005737565b8460e00181815250505b5050505b80604001518160200151038161010001818152505080610100015182038161012001818152505062002bde8160e0015182610100015162003bf7565b81610160018181525050949350505050565b600760009054906101000a900473ffffffffffffffffffffffffffffffffffffffff1673ffffffffffffffffffffffffffffffffffffffff168173ffffffffffffffffffffffffffffffffffffffff161415801562002cff575060008173ffffffffffffffffffffffffffffffffffffffff166370a08231600560009054906101000a900473ffffffffffffffffffffffffffffffffffffffff166040518263ffffffff1660e01b815260040162002ca9919062005067565b60206040518083038186803b15801562002cc257600080fd5b505afa15801562002cd7573d6000803e3d6000fd5b505050506040513d601f19601f8201168201806040525081019062002cfd919062004890565b115b15620030db57600960009054906101000a900473ffffffffffffffffffffffffffffffffffffffff1673ffffffffffffffffffffffffffffffffffffffff1663e6a4390582600760009054906101000a900473ffffffffffffffffffffffffffffffffffffffff166040518363ffffffff1660e01b815260040162002d8692919062005084565b60206040518083038186803b15801562002d9f57600080fd5b505afa15801562002db4573d6000803e3d6000fd5b505050506040513d601f19601f8201168201806040525081019062002dda919062004516565b600b60006101000a81548173ffffffffffffffffffffffffffffffffffffffff021916908373ffffffffffffffffffffffffffffffffffffffff160217905550600b60009054906101000a900473ffffffffffffffffffffffffffffffffffffffff16600a60006101000a81548173ffffffffffffffffffffffffffffffffffffffff021916908373ffffffffffffffffffffffffffffffffffffffff160217905550600a60009054906101000a900473ffffffffffffffffffffffffffffffffffffffff1673ffffffffffffffffffffffffffffffffffffffff16630dfe16816040518163ffffffff1660e01b815260040160206040518083038186803b15801562002ee657600080fd5b505afa15801562002efb573d6000803e3d6000fd5b505050506040513d601f19601f8201168201806040525081019062002f21919062004516565b600c60006101000a81548173ffffffffffffffffffffffffffffffffffffffff021916908373ffffffffffffffffffffffffffffffffffffffff1602179055503073ffffffffffffffffffffffffffffffffffffffff1663a64e3dd782600760009054906101000a900473ffffffffffffffffffffffffffffffffffffffff1630308673ffffffffffffffffffffffffffffffffffffffff166370a08231600560009054906101000a900473ffffffffffffffffffffffffffffffffffffffff166040518263ffffffff1660e01b815260040162003000919062005067565b60206040518083038186803b1580156200301957600080fd5b505afa1580156200302e573d6000803e3d6000fd5b505050506040513d601f19601f8201168201806040525081019062003054919062004890565b60006040518763ffffffff1660e01b815260040162003079969594939291906200511e565b600060405180830381600087803b1580156200309457600080fd5b505af1925050508015620030cd57506040513d6000823e3d601f19601f82011682018060405250810190620030ca919062004792565b60015b620030d857620030da565b505b5b600660006101000a81549073ffffffffffffffffffffffffffffffffffffffff0219169055600760006101000a81549073ffffffffffffffffffffffffffffffffffffffff0219169055600860006101000a81549073ffffffffffffffffffffffffffffffffffffffff0219169055600960006101000a81549073ffffffffffffffffffffffffffffffffffffffff0219169055600a60006101000a81549073ffffffffffffffffffffffffffffffffffffffff0219169055600b60006101000a81549073ffffffffffffffffffffffffffffffffffffffff0219169055600c60006101000a81549073ffffffffffffffffffffffffffffffffffffffff0219169055600d60009055600e60009055600f6000905550565b620031fd62003cf3565b60008085146200323057600c60009054906101000a900473ffffffffffffffffffffffffffffffffffffffff16620032d5565b600a60009054906101000a900473ffffffffffffffffffffffffffffffffffffffff1673ffffffffffffffffffffffffffffffffffffffff1663d21220a76040518163ffffffff1660e01b815260040160206040518083038186803b1580156200329957600080fd5b505afa158015620032ae573d6000803e3d6000fd5b505050506040513d601f19601f82011682018060405250810190620032d4919062004516565b5b905060008514620032e75784620032e9565b835b8260c0018181525050600b60009054906101000a900473ffffffffffffffffffffffffffffffffffffffff16826000019073ffffffffffffffffffffffffffffffffffffffff16908173ffffffffffffffffffffffffffffffffffffffff16815250508073ffffffffffffffffffffffffffffffffffffffff166370a0823183600001516040518263ffffffff1660e01b81526004016200338b919062005067565b60206040518083038186803b158015620033a457600080fd5b505afa158015620033b9573d6000803e3d6000fd5b505050506040513d601f19601f82011682018060405250810190620033df919062004890565b82602001818152505082826060019073ffffffffffffffffffffffffffffffffffffffff16908173ffffffffffffffffffffffffffffffffffffffff16815250508073ffffffffffffffffffffffffffffffffffffffff166370a08231846040518263ffffffff1660e01b81526004016200345b919062005067565b60206040518083038186803b1580156200347457600080fd5b505afa15801562003489573d6000803e3d6000fd5b505050506040513d601f19601f82011682018060405250810190620034af919062004890565b8260800181815250505a82610140018181525050600a60009054906101000a900473ffffffffffffffffffffffffffffffffffffffff1673ffffffffffffffffffffffffffffffffffffffff1663022c0d9f600d54600e5486600067ffffffffffffffff8111156200352657620035256200594b565b5b6040519080825280601f01601f191660200182016040528015620035595781602001600182028036833780820191505090505b506040518563ffffffff1660e01b81526004016200357b949392919062005387565b600060405180830381600087803b1580156200359657600080fd5b505af1158015620035ab573d6000803e3d6000fd5b505050505a8261014001818151620035c4919062005737565b915081815250508073ffffffffffffffffffffffffffffffffffffffff166370a0823183600001516040518263ffffffff1660e01b81526004016200360a919062005067565b60206040518083038186803b1580156200362357600080fd5b505afa15801562003638573d6000803e3d6000fd5b505050506040513d601f19601f820116820180604052508101906200365e919062004890565b8260400181815250508073ffffffffffffffffffffffffffffffffffffffff166370a08231846040518263ffffffff1660e01b8152600401620036a2919062005067565b60206040518083038186803b158015620036bb57600080fd5b505afa158015620036d0573d6000803e3d6000fd5b505050506040513d601f19601f82011682018060405250810190620036f6919062004890565b8260a001818152505081608001518260a00151038260e00181815250508160400151826020015103826101000181815250508161010001518260c001510382610120018181525050620037528260e001518360c0015162003bf7565b82610160018181525050509392505050565b6000808383604051620037779062003d9b565b6200378492919062005084565b604051809103906000f080158015620037a1573d6000803e3d6000fd5b5090508073ffffffffffffffffffffffffffffffffffffffff166341c0e1b56040518163ffffffff1660e01b8152600401600060405180830381600087803b158015620037ed57600080fd5b505af115801562003802573d6000803e3d6000fd5b505050508091505092915050565b600060035460045443426040516020016200382f9493929190620053db565b6040516020818303038152906040528051906020012060001c905090565b6000600560009054906101000a900473ffffffffffffffffffffffffffffffffffffffff1673ffffffffffffffffffffffffffffffffffffffff168373ffffffffffffffffffffffffffffffffffffffff161415620038d157600560009054906101000a900473ffffffffffffffffffffffffffffffffffffffff16905062003bf0565b818473ffffffffffffffffffffffffffffffffffffffff1663dd62ed3e85600560009054906101000a900473ffffffffffffffffffffffffffffffffffffffff166040518363ffffffff1660e01b81526004016200393192919062005084565b60206040518083038186803b1580156200394a57600080fd5b505afa1580156200395f573d6000803e3d6000fd5b505050506040513d601f19601f8201168201806040525081019062003985919062004890565b1015801562003a225750818473ffffffffffffffffffffffffffffffffffffffff166370a08231856040518263ffffffff1660e01b8152600401620039cb919062005067565b60206040518083038186803b158015620039e457600080fd5b505afa158015620039f9573d6000803e3d6000fd5b505050506040513d601f19601f8201168201806040525081019062003a1f919062004890565b10155b1562003a315782905062003bf0565b3273ffffffffffffffffffffffffffffffffffffffff168373ffffffffffffffffffffffffffffffffffffffff161415801562003b205750818473ffffffffffffffffffffffffffffffffffffffff1663dd62ed3e32600560009054906101000a900473ffffffffffffffffffffffffffffffffffffffff166040518363ffffffff1660e01b815260040162003ac992919062005084565b60206040518083038186803b15801562003ae257600080fd5b505afa15801562003af7573d6000803e3d6000fd5b505050506040513d601f19601f8201168201806040525081019062003b1d919062004890565b10155b801562003bbb5750818473ffffffffffffffffffffffffffffffffffffffff166370a08231326040518263ffffffff1660e01b815260040162003b64919062005067565b60206040518083038186803b15801562003b7d57600080fd5b505afa15801562003b92573d6000803e3d6000fd5b505050506040513d601f19601f8201168201806040525081019062003bb8919062004890565b10155b1562003bca5732905062003bf0565b600560009054906101000a900473ffffffffffffffffffffffffffffffffffffffff1690505b9392505050565b60008082141562003c0c576000905062003c3b565b816127108462003c1d919062005638565b62003c29919062005600565b61271062003c38919062005699565b90505b92915050565b6040518060e001604052806000815260200160008152602001600073ffffffffffffffffffffffffffffffffffffffff16815260200162003c8162003cb4565b815260200162003c9062003cb4565b815260200162003c9f62003cb4565b815260200162003cae62003da9565b81525090565b6040518060a00160405280600081526020016000815260200162003cd762003cf3565b815260200162003ce662003cf3565b8152602001606081525090565b604051806101e00160405280600073ffffffffffffffffffffffffffffffffffffffff1681526020016000815260200160008152602001600073ffffffffffffffffffffffffffffffffffffffff16815260200160008152602001600081526020016000815260200160008152602001600081526020016000815260200160008152602001600081526020016000151581526020016000151581526020016000151581525090565b6103808062005c1983390190565b6040518060600160405280600073ffffffffffffffffffffffffffffffffffffffff16815260200160008152602001600081525090565b600062003df762003df18462005451565b62005428565b9050808382526020820190508285602086028201111562003e1d5762003e1c620059b8565b5b60005b8581101562003e51578162003e368882620044b6565b84526020840193506020830192505060018101905062003e20565b5050509392505050565b600062003e7262003e6c8462005480565b62005428565b90508281526020810184848401111562003e915762003e90620059bd565b5b62003e9e84828562005804565b509392505050565b60008135905062003eb78162005b7c565b92915050565b60008151905062003ece8162005b7c565b92915050565b60008083601f84011262003eed5762003eec620059a4565b5b8235905067ffffffffffffffff81111562003f0d5762003f0c6200599f565b5b6020830191508360e082028301111562003f2c5762003f2b620059b8565b5b9250929050565b600082601f83011262003f4b5762003f4a620059a4565b5b815162003f5d84826020860162003de0565b91505092915050565b60008151905062003f778162005b96565b92915050565b60008151905062003f8e8162005bb0565b92915050565b600082601f83011262003fac5762003fab620059a4565b5b815162003fbe84826020860162003e5b565b91505092915050565b60006060828403121562003fe05762003fdf620059ae565b5b62003fec606062005428565b9050600062003ffe8482850162003ebd565b60008301525060206200401484828501620044b6565b60208301525060406200402a84828501620044b6565b60408301525092915050565b600060a082840312156200404f576200404e620059a9565b5b81905092915050565b60006101e08284031215620040725762004071620059ae565b5b6200407f6101e062005428565b90506000620040918482850162003ebd565b6000830152506020620040a784828501620044b6565b6020830152506040620040bd84828501620044b6565b6040830152506060620040d38482850162003ebd565b6060830152506080620040e984828501620044b6565b60808301525060a0620040ff84828501620044b6565b60a08301525060c06200411584828501620044b6565b60c08301525060e06200412b84828501620044b6565b60e0830152506101006200414284828501620044b6565b610100830152506101206200415a84828501620044b6565b610120830152506101406200417284828501620044b6565b610140830152506101606200418a8482850162003f7d565b61016083015250610180620041a28482850162003f66565b610180830152506101a0620041ba8482850162003f66565b6101a0830152506101c0620041d28482850162003f66565b6101c08301525092915050565b600060e08284031215620041f857620041f7620059ae565b5b6200420460e062005428565b90506000620042168482850162003ea6565b60008301525060206200422c8482850162003ea6565b6020830152506040620042428482850162003ea6565b6040830152506060620042588482850162003ea6565b60608301525060806200426e848285016200449f565b60808301525060a062004284848285016200449f565b60a08301525060c06200429a848285016200449f565b60c08301525092915050565b60006104208284031215620042c057620042bf620059ae565b5b620042cc60a062005428565b90506000620042de84828501620044b6565b6000830152506020620042f484828501620044b6565b60208301525060406200430a8482850162004058565b604083015250610220620043218482850162004058565b60608301525061040082015167ffffffffffffffff811115620043495762004348620059b3565b5b620043578482850162003f94565b60808301525092915050565b600061012082840312156200437d576200437c620059ae565b5b6200438960e062005428565b905060006200439b84828501620044b6565b6000830152506020620043b184828501620044b6565b6020830152506040620043c78482850162003ebd565b604083015250606082015167ffffffffffffffff811115620043ee57620043ed620059b3565b5b620043fc84828501620042a6565b606083015250608082015167ffffffffffffffff811115620044235762004422620059b3565b5b6200443184828501620042a6565b60808301525060a082015167ffffffffffffffff811115620044585762004457620059b3565b5b6200446684828501620042a6565b60a08301525060c06200447c8482850162003fc7565b60c08301525092915050565b600081519050620044998162005bca565b92915050565b600081359050620044b08162005be4565b92915050565b600081519050620044c78162005be4565b92915050565b600081519050620044de8162005bfe565b92915050565b600060208284031215620044fd57620044fc620059c7565b5b60006200450d8482850162003ea6565b91505092915050565b6000602082840312156200452f576200452e620059c7565b5b60006200453f8482850162003ebd565b91505092915050565b60008060008060008060c08789031215620045685762004567620059c7565b5b60006200457889828a0162003ea6565b96505060206200458b89828a0162003ea6565b95505060406200459e89828a0162003ea6565b9450506060620045b189828a0162003ea6565b9350506080620045c489828a016200449f565b92505060a0620045d789828a016200449f565b9150509295509295509295565b60008060008060808587031215620046015762004600620059c7565b5b6000620046118782880162003ea6565b9450506020620046248782880162003ea6565b9350506040620046378782880162003ea6565b92505060606200464a878288016200449f565b91505092959194509250565b6000806020838503121562004670576200466f620059c7565b5b600083013567ffffffffffffffff811115620046915762004690620059c2565b5b6200469f8582860162003ed4565b92509250509250929050565b600060208284031215620046c457620046c3620059c7565b5b600082015167ffffffffffffffff811115620046e557620046e4620059c2565b5b620046f38482850162003f33565b91505092915050565b600060208284031215620047155762004714620059c7565b5b6000620047258482850162003f66565b91505092915050565b600060a08284031215620047475762004746620059c7565b5b6000620047578482850162004036565b91505092915050565b600060e08284031215620047795762004778620059c7565b5b60006200478984828501620041df565b91505092915050565b600060208284031215620047ab57620047aa620059c7565b5b600082015167ffffffffffffffff811115620047cc57620047cb620059c2565b5b620047da84828501620042a6565b91505092915050565b600060208284031215620047fc57620047fb620059c7565b5b600082015167ffffffffffffffff8111156200481d576200481c620059c2565b5b6200482b8482850162004363565b91505092915050565b60008060006060848603121562004850576200484f620059c7565b5b6000620048608682870162004488565b9350506020620048738682870162004488565b92505060406200488686828701620044cd565b9150509250925092565b600060208284031215620048a957620048a8620059c7565b5b6000620048b984828501620044b6565b91505092915050565b6000620048d08383620048f2565b60208301905092915050565b6000620048ea838362004ed3565b905092915050565b620048fd8162005772565b82525050565b6200490e8162005772565b82525050565b60006200492182620054d6565b6200492d81856200551c565b93506200493a83620054b6565b8060005b8381101562004971578151620049558882620048c2565b9750620049628362005502565b9250506001810190506200493e565b5085935050505092915050565b60006200498b82620054e1565b6200499781856200552d565b935083602082028501620049ab85620054c6565b8060005b85811015620049ed5784840389528151620049cb8582620048dc565b9450620049d8836200550f565b925060208a01995050600181019050620049af565b50829750879550505050505092915050565b62004a0a8162005786565b82525050565b600062004a1d82620054ec565b62004a2981856200553e565b935062004a3b81856020860162005804565b62004a4681620059cc565b840191505092915050565b62004a5c8162005792565b82525050565b62004a6d81620057f0565b82525050565b600062004a8082620054f7565b62004a8c81856200554f565b935062004a9e81856020860162005804565b62004aa981620059cc565b840191505092915050565b600062004ac3601a8362005560565b915062004ad082620059ea565b602082019050919050565b600062004aea60318362005560565b915062004af78262005a13565b604082019050919050565b600062004b11602f8362005560565b915062004b1e8262005a62565b604082019050919050565b600062004b3860168362005560565b915062004b458262005ab1565b602082019050919050565b60608201600082015162004b686000850182620048f2565b50602082015162004b7d602085018262005045565b50604082015162004b92604085018262005045565b50505050565b6101e08201600082015162004bb16000850182620048f2565b50602082015162004bc6602085018262005045565b50604082015162004bdb604085018262005045565b50606082015162004bf06060850182620048f2565b50608082015162004c05608085018262005045565b5060a082015162004c1a60a085018262005045565b5060c082015162004c2f60c085018262005045565b5060e082015162004c4460e085018262005045565b5061010082015162004c5b61010085018262005045565b5061012082015162004c7261012085018262005045565b5061014082015162004c8961014085018262005045565b5061016082015162004ca061016085018262004a51565b5061018082015162004cb7610180850182620049ff565b506101a082015162004cce6101a0850182620049ff565b506101c082015162004ce56101c0850182620049ff565b50505050565b60e0820162004cfe600083018362005571565b62004d0d6000850182620048f2565b5062004d1d602083018362005571565b62004d2c6020850182620048f2565b5062004d3c604083018362005571565b62004d4b6040850182620048f2565b5062004d5b606083018362005571565b62004d6a6060850182620048f2565b5062004d7a60808301836200558a565b62004d89608085018262005045565b5062004d9960a08301836200558a565b62004da860a085018262005045565b5062004db860c08301836200558a565b62004dc760c085018262005045565b50505050565b60006104208301600083015162004de8600086018262005045565b50602083015162004dfd602086018262005045565b50604083015162004e12604086018262004b98565b50606083015162004e2861022086018262004b98565b50608083015184820361040086015262004e43828262004a73565b9150508091505092915050565b60006104208301600083015162004e6b600086018262005045565b50602083015162004e80602086018262005045565b50604083015162004e95604086018262004b98565b50606083015162004eab61022086018262004b98565b50608083015184820361040086015262004ec6828262004a73565b9150508091505092915050565b60006101208301600083015162004eee600086018262005045565b50602083015162004f03602086018262005045565b50604083015162004f186040860182620048f2565b506060830151848203606086015262004f32828262004dcd565b9150506080830151848203608086015262004f4e828262004dcd565b91505060a083015184820360a086015262004f6a828262004dcd565b91505060c083015162004f8160c086018262004b50565b508091505092915050565b60006101208301600083015162004fa7600086018262005045565b50602083015162004fbc602086018262005045565b50604083015162004fd16040860182620048f2565b506060830151848203606086015262004feb828262004dcd565b9150506080830151848203608086015262005007828262004dcd565b91505060a083015184820360a086015262005023828262004dcd565b91505060c08301516200503a60c086018262004b50565b508091505092915050565b6200505081620057d6565b82525050565b6200506181620057d6565b82525050565b60006020820190506200507e600083018462004903565b92915050565b60006040820190506200509b600083018562004903565b620050aa602083018462004903565b9392505050565b600060c082019050620050c8600083018962004903565b620050d7602083018862004903565b620050e6604083018762004903565b620050f5606083018662004903565b62005104608083018562004a62565b6200511360a083018462005056565b979650505050505050565b600060c08201905062005135600083018962004903565b62005144602083018862004903565b62005153604083018762004903565b62005162606083018662004903565b62005171608083018562005056565b6200518060a083018462004a62565b979650505050505050565b6000608082019050620051a2600083018762004903565b620051b1602083018662004903565b620051c0604083018562004903565b620051cf606083018462005056565b95945050505050565b6000606082019050620051ef600083018662004903565b620051fe602083018562004903565b6200520d604083018462005056565b949350505050565b60006040820190506200522c600083018562004903565b6200523b602083018462005056565b9392505050565b600060208201905081810360008301526200525e81846200497e565b905092915050565b60006020820190508181036000830152620052818162004ab4565b9050919050565b60006020820190508181036000830152620052a38162004adb565b9050919050565b60006020820190508181036000830152620052c58162004b02565b9050919050565b60006020820190508181036000830152620052e78162004b29565b9050919050565b600060e08201905062005305600083018462004ceb565b92915050565b6000602082019050818103600083015262005327818462004e50565b905092915050565b600060208201905081810360008301526200534b818462004f8c565b905092915050565b60006040820190506200536a600083018562005056565b81810360208301526200537e818462004914565b90509392505050565b60006080820190506200539e600083018762005056565b620053ad602083018662005056565b620053bc604083018562004903565b8181036060830152620053d0818462004a10565b905095945050505050565b6000608082019050620053f2600083018762005056565b62005401602083018662005056565b62005410604083018562005056565b6200541f606083018462005056565b95945050505050565b60006200543462005447565b90506200544282826200583a565b919050565b6000604051905090565b600067ffffffffffffffff8211156200546f576200546e6200594b565b5b602082029050602081019050919050565b600067ffffffffffffffff8211156200549e576200549d6200594b565b5b620054a982620059cc565b9050602081019050919050565b6000819050602082019050919050565b6000819050602082019050919050565b600081519050919050565b600081519050919050565b600081519050919050565b600081519050919050565b6000602082019050919050565b6000602082019050919050565b600082825260208201905092915050565b600082825260208201905092915050565b600082825260208201905092915050565b600082825260208201905092915050565b600082825260208201905092915050565b600062005582602084018462003ea6565b905092915050565b60006200559b60208401846200449f565b905092915050565b6000620055b082620057d6565b9150620055bd83620057d6565b9250827fffffffffffffffffffffffffffffffffffffffffffffffffffffffffffffffff03821115620055f557620055f4620058be565b5b828201905092915050565b60006200560d82620057d6565b91506200561a83620057d6565b9250826200562d576200562c620058ed565b5b828204905092915050565b60006200564582620057d6565b91506200565283620057d6565b9250817fffffffffffffffffffffffffffffffffffffffffffffffffffffffffffffffff04831182151516156200568e576200568d620058be565b5b828202905092915050565b6000620056a68262005792565b9150620056b38362005792565b9250827f800000000000000000000000000000000000000000000000000000000000000001821260008412151615620056f157620056f0620058be565b5b827f7fffffffffffffffffffffffffffffffffffffffffffffffffffffffffffffff0182136000841216156200572c576200572b620058be565b5b828203905092915050565b60006200574482620057d6565b91506200575183620057d6565b925082821015620057675762005766620058be565b5b828203905092915050565b60006200577f82620057b6565b9050919050565b60008115159050919050565b6000819050919050565b60006dffffffffffffffffffffffffffff82169050919050565b600073ffffffffffffffffffffffffffffffffffffffff82169050919050565b6000819050919050565b600063ffffffff82169050919050565b6000620057fd82620057d6565b9050919050565b60005b838110156200582457808201518184015260208101905062005807565b8381111562005834576000848401525b50505050565b6200584582620059cc565b810181811067ffffffffffffffff821117156200586757620058666200594b565b5b80604052505050565b60006200587d82620057d6565b91507fffffffffffffffffffffffffffffffffffffffffffffffffffffffffffffffff821415620058b357620058b2620058be565b5b600182019050919050565b7f4e487b7100000000000000000000000000000000000000000000000000000000600052601160045260246000fd5b7f4e487b7100000000000000000000000000000000000000000000000000000000600052601260045260246000fd5b7f4e487b7100000000000000000000000000000000000000000000000000000000600052603260045260246000fd5b7f4e487b7100000000000000000000000000000000000000000000000000000000600052604160045260246000fd5b600060033d11156200599c5760046000803e62005999600051620059dd565b90505b90565b600080fd5b600080fd5b600080fd5b600080fd5b600080fd5b600080fd5b600080fd5b600080fd5b600080fd5b6000601f19601f8301169050919050565b60008160e01c9050919050565b7f54657374537761703a7472616e7366657246726f6d206661696c000000000000600082015250565b7f54657374537761703a706f6f6c73206f66206261736520746f6b656e20616e6460008201527f2045544820646f206e6f74206578697374000000000000000000000000000000602082015250565b7f54657374537761703a616d6f756e74496e20616e6420616d6f756e744f75742060008201527f63616e277420626f746820626520300000000000000000000000000000000000602082015250565b7f54657374537761703a7472616e73666572206661696c00000000000000000000600082015250565b600060443d101562005aec5762005b79565b62005af662005447565b60043d036004823e80513d602482011167ffffffffffffffff8211171562005b2057505062005b79565b808201805167ffffffffffffffff81111562005b40575050505062005b79565b80602083010160043d03850181111562005b5f57505050505062005b79565b62005b70826020018501866200583a565b82955050505050505b90565b62005b878162005772565b811462005b9357600080fd5b50565b62005ba18162005786565b811462005bad57600080fd5b50565b62005bbb8162005792565b811462005bc757600080fd5b50565b62005bd5816200579c565b811462005be157600080fd5b50565b62005bef81620057d6565b811462005bfb57600080fd5b50565b62005c0981620057e0565b811462005c1557600080fd5b5056fe608060405234801561001057600080fd5b50604051610380380380610380833981810160405281019061003291906101bf565b8173ffffffffffffffffffffffffffffffffffffffff1663095ea7b3337fffffffffffffffffffffffffffffffffffffffffffffffffffffffffffffffff6040518363ffffffff1660e01b815260040161008d92919061024a565b602060405180830381600087803b1580156100a757600080fd5b505af11580156100bb573d6000803e3d6000fd5b505050506040513d601f19601f820116820180604052508101906100df91906101ff565b508073ffffffffffffffffffffffffffffffffffffffff1663095ea7b3337fffffffffffffffffffffffffffffffffffffffffffffffffffffffffffffffff6040518363ffffffff1660e01b815260040161013b92919061024a565b602060405180830381600087803b15801561015557600080fd5b505af1158015610169573d6000803e3d6000fd5b505050506040513d601f19601f8201168201806040525081019061018d91906101ff565b5050506102ee565b6000815190506101a4816102c0565b92915050565b6000815190506101b9816102d7565b92915050565b600080604083850312156101d6576101d56102bb565b5b60006101e485828601610195565b92505060206101f585828601610195565b9150509250929050565b600060208284031215610215576102146102bb565b5b6000610223848285016101aa565b91505092915050565b61023581610273565b82525050565b610244816102b1565b82525050565b600060408201905061025f600083018561022c565b61026c602083018461023b565b9392505050565b600061027e82610291565b9050919050565b60008115159050919050565b600073ffffffffffffffffffffffffffffffffffffffff82169050919050565b6000819050919050565b600080fd5b6102c981610273565b81146102d457600080fd5b50565b6102e081610285565b81146102eb57600080fd5b50565b6084806102fc6000396000f3fe6080604052348015600f57600080fd5b506004361060285760003560e01c806341c0e1b514602d575b600080fd5b60336035565b005b3373ffffffffffffffffffffffffffffffffffffffff16fffea2646970667358221220cb2be9d1059de77bc0d726c7034fe4ae5509419df9df4b4a75c13e66a99cdbcd64736f6c63430008070033a264697066735822122016cf207e3ae8e8042ebd7fed672ade6d9927eea1079af404082fa9e8a19fbb7b64736f6c63430008070033",
      "opcodes": "PUSH1 0x80 PUSH1 0x40 MSTORE PUSH1 0x0 DUP1 PUSH1 0x0 PUSH2 0x100 EXP DUP2 SLOAD DUP2 PUSH20 0xFFFFFFFFFFFFFFFFFFFFFFFFFFFFFFFFFFFFFFFF MUL NOT AND SWAP1 DUP4 PUSH20 0xFFFFFFFFFFFFFFFFFFFFFFFFFFFFFFFFFFFFFFFF AND MUL OR SWAP1 SSTORE POP PUSH1 0x1 DUP1 PUSH1 0x0 PUSH2 0x100 EXP DUP2 SLOAD DUP2 PUSH20 0xFFFFFFFFFFFFFFFFFFFFFFFFFFFFFFFFFFFFFFFF MUL NOT AND SWAP1 DUP4 PUSH20 0xFFFFFFFFFFFFFFFFFFFFFFFFFFFFFFFFFFFFFFFF AND MUL OR SWAP1 SSTORE POP PUSH1 0x0 PUSH1 0x2 SSTORE PUSH1 0x0 PUSH1 0x3 SSTORE PUSH1 0x0 PUSH1 0x4 SSTORE ADDRESS PUSH1 0x5 PUSH1 0x0 PUSH2 0x100 EXP DUP2 SLOAD DUP2 PUSH20 0xFFFFFFFFFFFFFFFFFFFFFFFFFFFFFFFFFFFFFFFF MUL NOT AND SWAP1 DUP4 PUSH20 0xFFFFFFFFFFFFFFFFFFFFFFFFFFFFFFFFFFFFFFFF AND MUL OR SWAP1 SSTORE POP PUSH2 0x5FCE DUP1 PUSH2 0xE5 PUSH1 0x0 CODECOPY PUSH1 0x0 RETURN INVALID PUSH1 0x80 PUSH1 0x40 MSTORE PUSH1 0x4 CALLDATASIZE LT PUSH3 0x55 JUMPI PUSH1 0x0 CALLDATALOAD PUSH1 0xE0 SHR DUP1 PUSH4 0x59EC6006 EQ PUSH3 0x62 JUMPI DUP1 PUSH4 0x87CBE0FC EQ PUSH3 0x98 JUMPI DUP1 PUSH4 0xA64E3DD7 EQ PUSH3 0xCF JUMPI DUP1 PUSH4 0xE6952DDD EQ PUSH3 0x113 JUMPI DUP1 PUSH4 0xF18D03CC EQ PUSH3 0x149 JUMPI PUSH3 0x5D JUMP JUMPDEST CALLDATASIZE PUSH3 0x5D JUMPI STOP JUMPDEST PUSH1 0x0 DUP1 REVERT JUMPDEST PUSH3 0x80 PUSH1 0x4 DUP1 CALLDATASIZE SUB DUP2 ADD SWAP1 PUSH3 0x7A SWAP2 SWAP1 PUSH3 0x4656 JUMP JUMPDEST PUSH3 0x18D JUMP JUMPDEST PUSH1 0x40 MLOAD PUSH3 0x8F SWAP2 SWAP1 PUSH3 0x5242 JUMP JUMPDEST PUSH1 0x40 MLOAD DUP1 SWAP2 SUB SWAP1 RETURN JUMPDEST PUSH3 0xB6 PUSH1 0x4 DUP1 CALLDATASIZE SUB DUP2 ADD SWAP1 PUSH3 0xB0 SWAP2 SWAP1 PUSH3 0x472E JUMP JUMPDEST PUSH3 0x2F4 JUMP JUMPDEST PUSH1 0x40 MLOAD PUSH3 0xC6 SWAP3 SWAP2 SWAP1 PUSH3 0x5215 JUMP JUMPDEST PUSH1 0x40 MLOAD DUP1 SWAP2 SUB SWAP1 RETURN JUMPDEST CALLVALUE DUP1 ISZERO PUSH3 0xDC JUMPI PUSH1 0x0 DUP1 REVERT JUMPDEST POP PUSH3 0xFB PUSH1 0x4 DUP1 CALLDATASIZE SUB DUP2 ADD SWAP1 PUSH3 0xF5 SWAP2 SWAP1 PUSH3 0x4548 JUMP JUMPDEST PUSH3 0x4DA JUMP JUMPDEST PUSH1 0x40 MLOAD PUSH3 0x10A SWAP2 SWAP1 PUSH3 0x530B JUMP JUMPDEST PUSH1 0x40 MLOAD DUP1 SWAP2 SUB SWAP1 RETURN JUMPDEST PUSH3 0x131 PUSH1 0x4 DUP1 CALLDATASIZE SUB DUP2 ADD SWAP1 PUSH3 0x12B SWAP2 SWAP1 PUSH3 0x4760 JUMP JUMPDEST PUSH3 0x9DD JUMP JUMPDEST PUSH1 0x40 MLOAD PUSH3 0x140 SWAP2 SWAP1 PUSH3 0x532F JUMP JUMPDEST PUSH1 0x40 MLOAD DUP1 SWAP2 SUB SWAP1 RETURN JUMPDEST CALLVALUE DUP1 ISZERO PUSH3 0x156 JUMPI PUSH1 0x0 DUP1 REVERT JUMPDEST POP PUSH3 0x175 PUSH1 0x4 DUP1 CALLDATASIZE SUB DUP2 ADD SWAP1 PUSH3 0x16F SWAP2 SWAP1 PUSH3 0x45E4 JUMP JUMPDEST PUSH3 0x13CD JUMP JUMPDEST PUSH1 0x40 MLOAD PUSH3 0x184 SWAP2 SWAP1 PUSH3 0x530B JUMP JUMPDEST PUSH1 0x40 MLOAD DUP1 SWAP2 SUB SWAP1 RETURN JUMPDEST PUSH1 0x60 DUP3 DUP3 SWAP1 POP PUSH8 0xFFFFFFFFFFFFFFFF DUP2 GT ISZERO PUSH3 0x1AF JUMPI PUSH3 0x1AE PUSH3 0x594B JUMP JUMPDEST JUMPDEST PUSH1 0x40 MLOAD SWAP1 DUP1 DUP3 MSTORE DUP1 PUSH1 0x20 MUL PUSH1 0x20 ADD DUP3 ADD PUSH1 0x40 MSTORE DUP1 ISZERO PUSH3 0x1EC JUMPI DUP2 PUSH1 0x20 ADD JUMPDEST PUSH3 0x1D8 PUSH3 0x3C41 JUMP JUMPDEST DUP2 MSTORE PUSH1 0x20 ADD SWAP1 PUSH1 0x1 SWAP1 SUB SWAP1 DUP2 PUSH3 0x1CE JUMPI SWAP1 POP JUMPDEST POP SWAP1 POP PUSH1 0x0 JUMPDEST DUP4 DUP4 SWAP1 POP DUP2 LT ISZERO PUSH3 0x2ED JUMPI ADDRESS PUSH20 0xFFFFFFFFFFFFFFFFFFFFFFFFFFFFFFFFFFFFFFFF AND PUSH4 0xE6952DDD DUP6 DUP6 DUP5 DUP2 DUP2 LT PUSH3 0x230 JUMPI PUSH3 0x22F PUSH3 0x591C JUMP JUMPDEST JUMPDEST SWAP1 POP PUSH1 0xE0 MUL ADD PUSH1 0x40 MLOAD DUP3 PUSH4 0xFFFFFFFF AND PUSH1 0xE0 SHL DUP2 MSTORE PUSH1 0x4 ADD PUSH3 0x254 SWAP2 SWAP1 PUSH3 0x52EE JUMP JUMPDEST PUSH1 0x0 PUSH1 0x40 MLOAD DUP1 DUP4 SUB DUP2 PUSH1 0x0 DUP8 DUP1 EXTCODESIZE ISZERO DUP1 ISZERO PUSH3 0x26F JUMPI PUSH1 0x0 DUP1 REVERT JUMPDEST POP GAS CALL SWAP3 POP POP POP DUP1 ISZERO PUSH3 0x2A8 JUMPI POP PUSH1 0x40 MLOAD RETURNDATASIZE PUSH1 0x0 DUP3 RETURNDATACOPY RETURNDATASIZE PUSH1 0x1F NOT PUSH1 0x1F DUP3 ADD AND DUP3 ADD DUP1 PUSH1 0x40 MSTORE POP DUP2 ADD SWAP1 PUSH3 0x2A5 SWAP2 SWAP1 PUSH3 0x47E3 JUMP JUMPDEST PUSH1 0x1 JUMPDEST PUSH3 0x2B3 JUMPI PUSH3 0x2D7 JUMP JUMPDEST DUP1 DUP4 DUP4 DUP2 MLOAD DUP2 LT PUSH3 0x2CA JUMPI PUSH3 0x2C9 PUSH3 0x591C JUMP JUMPDEST JUMPDEST PUSH1 0x20 MUL PUSH1 0x20 ADD ADD DUP2 SWAP1 MSTORE POP POP JUMPDEST DUP1 DUP1 PUSH3 0x2E4 SWAP1 PUSH3 0x5870 JUMP JUMPDEST SWAP2 POP POP PUSH3 0x1F2 JUMP JUMPDEST POP SWAP3 SWAP2 POP POP JUMP JUMPDEST PUSH1 0x0 DUP1 DUP3 PUSH3 0x343 DUP2 PUSH1 0x0 ADD PUSH1 0x20 DUP2 ADD SWAP1 PUSH3 0x311 SWAP2 SWAP1 PUSH3 0x44E4 JUMP JUMPDEST DUP3 PUSH1 0x20 ADD PUSH1 0x20 DUP2 ADD SWAP1 PUSH3 0x326 SWAP2 SWAP1 PUSH3 0x44E4 JUMP JUMPDEST DUP4 PUSH1 0x40 ADD PUSH1 0x20 DUP2 ADD SWAP1 PUSH3 0x33B SWAP2 SWAP1 PUSH3 0x44E4 JUMP JUMPDEST PUSH1 0x1 PUSH3 0x1413 JUMP JUMPDEST PUSH3 0x38B DUP5 PUSH1 0x20 ADD PUSH1 0x20 DUP2 ADD SWAP1 PUSH3 0x35C SWAP2 SWAP1 PUSH3 0x44E4 JUMP JUMPDEST ADDRESS PUSH1 0xB PUSH1 0x0 SWAP1 SLOAD SWAP1 PUSH2 0x100 EXP SWAP1 DIV PUSH20 0xFFFFFFFFFFFFFFFFFFFFFFFFFFFFFFFFFFFFFFFF AND DUP8 PUSH1 0x60 ADD CALLDATALOAD PUSH3 0x2136 JUMP JUMPDEST POP PUSH3 0x3D4 DUP5 PUSH1 0x40 ADD PUSH1 0x20 DUP2 ADD SWAP1 PUSH3 0x3A5 SWAP2 SWAP1 PUSH3 0x44E4 JUMP JUMPDEST ORIGIN PUSH1 0xB PUSH1 0x0 SWAP1 SLOAD SWAP1 PUSH2 0x100 EXP SWAP1 DIV PUSH20 0xFFFFFFFFFFFFFFFFFFFFFFFFFFFFFFFFFFFFFFFF AND DUP8 PUSH1 0x80 ADD CALLDATALOAD PUSH3 0x2136 JUMP JUMPDEST POP PUSH1 0x0 PUSH1 0xA PUSH1 0x0 SWAP1 SLOAD SWAP1 PUSH2 0x100 EXP SWAP1 DIV PUSH20 0xFFFFFFFFFFFFFFFFFFFFFFFFFFFFFFFFFFFFFFFF AND PUSH20 0xFFFFFFFFFFFFFFFFFFFFFFFFFFFFFFFFFFFFFFFF AND PUSH4 0x6A627842 ADDRESS PUSH1 0x40 MLOAD DUP3 PUSH4 0xFFFFFFFF AND PUSH1 0xE0 SHL DUP2 MSTORE PUSH1 0x4 ADD PUSH3 0x434 SWAP2 SWAP1 PUSH3 0x5067 JUMP JUMPDEST PUSH1 0x20 PUSH1 0x40 MLOAD DUP1 DUP4 SUB DUP2 PUSH1 0x0 DUP8 DUP1 EXTCODESIZE ISZERO DUP1 ISZERO PUSH3 0x44F JUMPI PUSH1 0x0 DUP1 REVERT JUMPDEST POP GAS CALL ISZERO DUP1 ISZERO PUSH3 0x464 JUMPI RETURNDATASIZE PUSH1 0x0 DUP1 RETURNDATACOPY RETURNDATASIZE PUSH1 0x0 REVERT JUMPDEST POP POP POP POP PUSH1 0x40 MLOAD RETURNDATASIZE PUSH1 0x1F NOT PUSH1 0x1F DUP3 ADD AND DUP3 ADD DUP1 PUSH1 0x40 MSTORE POP DUP2 ADD SWAP1 PUSH3 0x48A SWAP2 SWAP1 PUSH3 0x4890 JUMP JUMPDEST SWAP1 POP PUSH1 0xB PUSH1 0x0 SWAP1 SLOAD SWAP1 PUSH2 0x100 EXP SWAP1 DIV PUSH20 0xFFFFFFFFFFFFFFFFFFFFFFFFFFFFFFFFFFFFFFFF AND DUP2 SWAP4 POP SWAP4 POP POP PUSH3 0x4D4 DUP2 PUSH1 0x20 ADD PUSH1 0x20 DUP2 ADD SWAP1 PUSH3 0x4CE SWAP2 SWAP1 PUSH3 0x44E4 JUMP JUMPDEST PUSH3 0x2BF0 JUMP JUMPDEST POP SWAP2 POP SWAP2 JUMP JUMPDEST PUSH3 0x4E4 PUSH3 0x3CB4 JUMP JUMPDEST PUSH1 0x0 DUP4 EQ ISZERO DUP1 PUSH3 0x4F6 JUMPI POP PUSH1 0x0 DUP3 EQ ISZERO JUMPDEST PUSH3 0x538 JUMPI PUSH1 0x40 MLOAD PUSH32 0x8C379A000000000000000000000000000000000000000000000000000000000 DUP2 MSTORE PUSH1 0x4 ADD PUSH3 0x52F SWAP1 PUSH3 0x52AA JUMP JUMPDEST PUSH1 0x40 MLOAD DUP1 SWAP2 SUB SWAP1 REVERT JUMPDEST PUSH1 0x1 DUP2 PUSH1 0x0 ADD DUP2 DUP2 MSTORE POP POP PUSH1 0x0 PUSH1 0x2 PUSH8 0xFFFFFFFFFFFFFFFF DUP2 GT ISZERO PUSH3 0x563 JUMPI PUSH3 0x562 PUSH3 0x594B JUMP JUMPDEST JUMPDEST PUSH1 0x40 MLOAD SWAP1 DUP1 DUP3 MSTORE DUP1 PUSH1 0x20 MUL PUSH1 0x20 ADD DUP3 ADD PUSH1 0x40 MSTORE DUP1 ISZERO PUSH3 0x592 JUMPI DUP2 PUSH1 0x20 ADD PUSH1 0x20 DUP3 MUL DUP1 CALLDATASIZE DUP4 CALLDATACOPY DUP1 DUP3 ADD SWAP2 POP POP SWAP1 POP JUMPDEST POP SWAP1 POP DUP8 DUP2 PUSH1 0x0 DUP2 MLOAD DUP2 LT PUSH3 0x5AD JUMPI PUSH3 0x5AC PUSH3 0x591C JUMP JUMPDEST JUMPDEST PUSH1 0x20 MUL PUSH1 0x20 ADD ADD SWAP1 PUSH20 0xFFFFFFFFFFFFFFFFFFFFFFFFFFFFFFFFFFFFFFFF AND SWAP1 DUP2 PUSH20 0xFFFFFFFFFFFFFFFFFFFFFFFFFFFFFFFFFFFFFFFF AND DUP2 MSTORE POP POP DUP7 DUP2 PUSH1 0x1 DUP2 MLOAD DUP2 LT PUSH3 0x5FF JUMPI PUSH3 0x5FE PUSH3 0x591C JUMP JUMPDEST JUMPDEST PUSH1 0x20 MUL PUSH1 0x20 ADD ADD SWAP1 PUSH20 0xFFFFFFFFFFFFFFFFFFFFFFFFFFFFFFFFFFFFFFFF AND SWAP1 DUP2 PUSH20 0xFFFFFFFFFFFFFFFFFFFFFFFFFFFFFFFFFFFFFFFF AND DUP2 MSTORE POP POP PUSH1 0x0 DUP5 GT PUSH3 0x71E JUMPI PUSH1 0x6 PUSH1 0x0 SWAP1 SLOAD SWAP1 PUSH2 0x100 EXP SWAP1 DIV PUSH20 0xFFFFFFFFFFFFFFFFFFFFFFFFFFFFFFFFFFFFFFFF AND PUSH20 0xFFFFFFFFFFFFFFFFFFFFFFFFFFFFFFFFFFFFFFFF AND PUSH4 0x1F00CA74 DUP5 DUP4 PUSH1 0x40 MLOAD DUP4 PUSH4 0xFFFFFFFF AND PUSH1 0xE0 SHL DUP2 MSTORE PUSH1 0x4 ADD PUSH3 0x6A1 SWAP3 SWAP2 SWAP1 PUSH3 0x5353 JUMP JUMPDEST PUSH1 0x0 PUSH1 0x40 MLOAD DUP1 DUP4 SUB DUP2 DUP7 DUP1 EXTCODESIZE ISZERO DUP1 ISZERO PUSH3 0x6BA JUMPI PUSH1 0x0 DUP1 REVERT JUMPDEST POP GAS STATICCALL ISZERO DUP1 ISZERO PUSH3 0x6CF JUMPI RETURNDATASIZE PUSH1 0x0 DUP1 RETURNDATACOPY RETURNDATASIZE PUSH1 0x0 REVERT JUMPDEST POP POP POP POP PUSH1 0x40 MLOAD RETURNDATASIZE PUSH1 0x0 DUP3 RETURNDATACOPY RETURNDATASIZE PUSH1 0x1F NOT PUSH1 0x1F DUP3 ADD AND DUP3 ADD DUP1 PUSH1 0x40 MSTORE POP DUP2 ADD SWAP1 PUSH3 0x6FA SWAP2 SWAP1 PUSH3 0x46AB JUMP JUMPDEST PUSH1 0x0 DUP2 MLOAD DUP2 LT PUSH3 0x710 JUMPI PUSH3 0x70F PUSH3 0x591C JUMP JUMPDEST JUMPDEST PUSH1 0x20 MUL PUSH1 0x20 ADD ADD MLOAD PUSH3 0x720 JUMP JUMPDEST DUP4 JUMPDEST SWAP4 POP PUSH3 0x752 DUP9 DUP8 PUSH1 0xB PUSH1 0x0 SWAP1 SLOAD SWAP1 PUSH2 0x100 EXP SWAP1 DIV PUSH20 0xFFFFFFFFFFFFFFFFFFFFFFFFFFFFFFFFFFFFFFFF AND DUP8 PUSH3 0x2136 JUMP JUMPDEST DUP3 PUSH1 0x40 ADD DUP2 SWAP1 MSTORE POP DUP8 PUSH20 0xFFFFFFFFFFFFFFFFFFFFFFFFFFFFFFFFFFFFFFFF AND PUSH1 0xC PUSH1 0x0 SWAP1 SLOAD SWAP1 PUSH2 0x100 EXP SWAP1 DIV PUSH20 0xFFFFFFFFFFFFFFFFFFFFFFFFFFFFFFFFFFFFFFFF AND PUSH20 0xFFFFFFFFFFFFFFFFFFFFFFFFFFFFFFFFFFFFFFFF AND EQ ISZERO PUSH3 0x8A3 JUMPI PUSH1 0x6 PUSH1 0x0 SWAP1 SLOAD SWAP1 PUSH2 0x100 EXP SWAP1 DIV PUSH20 0xFFFFFFFFFFFFFFFFFFFFFFFFFFFFFFFFFFFFFFFF AND PUSH20 0xFFFFFFFFFFFFFFFFFFFFFFFFFFFFFFFFFFFFFFFF AND PUSH4 0xD06CA61F DUP4 PUSH1 0x40 ADD MLOAD PUSH1 0xE0 ADD MLOAD DUP4 PUSH1 0x40 MLOAD DUP4 PUSH4 0xFFFFFFFF AND PUSH1 0xE0 SHL DUP2 MSTORE PUSH1 0x4 ADD PUSH3 0x818 SWAP3 SWAP2 SWAP1 PUSH3 0x5353 JUMP JUMPDEST PUSH1 0x0 PUSH1 0x40 MLOAD DUP1 DUP4 SUB DUP2 DUP7 DUP1 EXTCODESIZE ISZERO DUP1 ISZERO PUSH3 0x831 JUMPI PUSH1 0x0 DUP1 REVERT JUMPDEST POP GAS STATICCALL ISZERO DUP1 ISZERO PUSH3 0x846 JUMPI RETURNDATASIZE PUSH1 0x0 DUP1 RETURNDATACOPY RETURNDATASIZE PUSH1 0x0 REVERT JUMPDEST POP POP POP POP PUSH1 0x40 MLOAD RETURNDATASIZE PUSH1 0x0 DUP3 RETURNDATACOPY RETURNDATASIZE PUSH1 0x1F NOT PUSH1 0x1F DUP3 ADD AND DUP3 ADD DUP1 PUSH1 0x40 MSTORE POP DUP2 ADD SWAP1 PUSH3 0x871 SWAP2 SWAP1 PUSH3 0x46AB JUMP JUMPDEST PUSH1 0x1 DUP2 MLOAD DUP2 LT PUSH3 0x887 JUMPI PUSH3 0x886 PUSH3 0x591C JUMP JUMPDEST JUMPDEST PUSH1 0x20 MUL PUSH1 0x20 ADD ADD MLOAD PUSH1 0xE DUP2 SWAP1 SSTORE POP PUSH1 0x0 PUSH1 0xD DUP2 SWAP1 SSTORE POP PUSH3 0x990 JUMP JUMPDEST PUSH1 0x6 PUSH1 0x0 SWAP1 SLOAD SWAP1 PUSH2 0x100 EXP SWAP1 DIV PUSH20 0xFFFFFFFFFFFFFFFFFFFFFFFFFFFFFFFFFFFFFFFF AND PUSH20 0xFFFFFFFFFFFFFFFFFFFFFFFFFFFFFFFFFFFFFFFF AND PUSH4 0xD06CA61F DUP4 PUSH1 0x40 ADD MLOAD PUSH1 0xE0 ADD MLOAD DUP4 PUSH1 0x40 MLOAD DUP4 PUSH4 0xFFFFFFFF AND PUSH1 0xE0 SHL DUP2 MSTORE PUSH1 0x4 ADD PUSH3 0x90A SWAP3 SWAP2 SWAP1 PUSH3 0x5353 JUMP JUMPDEST PUSH1 0x0 PUSH1 0x40 MLOAD DUP1 DUP4 SUB DUP2 DUP7 DUP1 EXTCODESIZE ISZERO DUP1 ISZERO PUSH3 0x923 JUMPI PUSH1 0x0 DUP1 REVERT JUMPDEST POP GAS STATICCALL ISZERO DUP1 ISZERO PUSH3 0x938 JUMPI RETURNDATASIZE PUSH1 0x0 DUP1 RETURNDATACOPY RETURNDATASIZE PUSH1 0x0 REVERT JUMPDEST POP POP POP POP PUSH1 0x40 MLOAD RETURNDATASIZE PUSH1 0x0 DUP3 RETURNDATACOPY RETURNDATASIZE PUSH1 0x1F NOT PUSH1 0x1F DUP3 ADD AND DUP3 ADD DUP1 PUSH1 0x40 MSTORE POP DUP2 ADD SWAP1 PUSH3 0x963 SWAP2 SWAP1 PUSH3 0x46AB JUMP JUMPDEST PUSH1 0x1 DUP2 MLOAD DUP2 LT PUSH3 0x979 JUMPI PUSH3 0x978 PUSH3 0x591C JUMP JUMPDEST JUMPDEST PUSH1 0x20 MUL PUSH1 0x20 ADD ADD MLOAD PUSH1 0xD DUP2 SWAP1 SSTORE POP PUSH1 0x0 PUSH1 0xE DUP2 SWAP1 SSTORE POP JUMPDEST PUSH3 0x9A1 PUSH1 0xD SLOAD PUSH1 0xE SLOAD DUP8 PUSH3 0x31F3 JUMP JUMPDEST DUP3 PUSH1 0x60 ADD DUP2 SWAP1 MSTORE POP DUP2 PUSH1 0x60 ADD MLOAD PUSH2 0x140 ADD MLOAD DUP3 PUSH1 0x40 ADD MLOAD PUSH2 0x140 ADD MLOAD PUSH3 0x9C9 SWAP2 SWAP1 PUSH3 0x55A3 JUMP JUMPDEST DUP3 PUSH1 0x20 ADD DUP2 DUP2 MSTORE POP POP POP SWAP7 SWAP6 POP POP POP POP POP POP JUMP JUMPDEST PUSH3 0x9E7 PUSH3 0x3C41 JUMP JUMPDEST PUSH1 0x2 SLOAD NUMBER GT ISZERO PUSH3 0xA1E JUMPI NUMBER PUSH1 0x2 DUP2 SWAP1 SSTORE POP PUSH1 0x0 PUSH1 0x4 DUP2 SWAP1 SSTORE POP PUSH1 0x1 PUSH1 0x3 PUSH1 0x0 DUP3 DUP3 SLOAD PUSH3 0xA16 SWAP2 SWAP1 PUSH3 0x55A3 JUMP JUMPDEST SWAP3 POP POP DUP2 SWAP1 SSTORE POP JUMPDEST PUSH1 0x1 PUSH1 0x4 PUSH1 0x0 DUP3 DUP3 SLOAD PUSH3 0xA33 SWAP2 SWAP1 PUSH3 0x55A3 JUMP JUMPDEST SWAP3 POP POP DUP2 SWAP1 SSTORE POP DUP2 PUSH3 0xA56 DUP2 PUSH1 0x0 ADD MLOAD DUP3 PUSH1 0x20 ADD MLOAD DUP4 PUSH1 0x40 ADD MLOAD PUSH1 0x0 PUSH3 0x1413 JUMP JUMPDEST PUSH1 0x1 PUSH1 0x0 SWAP1 SLOAD SWAP1 PUSH2 0x100 EXP SWAP1 DIV PUSH20 0xFFFFFFFFFFFFFFFFFFFFFFFFFFFFFFFFFFFFFFFF AND PUSH20 0xFFFFFFFFFFFFFFFFFFFFFFFFFFFFFFFFFFFFFFFF AND DUP2 PUSH1 0x60 ADD MLOAD PUSH20 0xFFFFFFFFFFFFFFFFFFFFFFFFFFFFFFFFFFFFFFFF AND EQ ISZERO PUSH3 0xAFD JUMPI PUSH3 0xAC5 DUP2 PUSH1 0x20 ADD MLOAD DUP3 PUSH1 0x40 ADD MLOAD PUSH3 0x3764 JUMP JUMPDEST DUP2 PUSH1 0x60 ADD SWAP1 PUSH20 0xFFFFFFFFFFFFFFFFFFFFFFFFFFFFFFFFFFFFFFFF AND SWAP1 DUP2 PUSH20 0xFFFFFFFFFFFFFFFFFFFFFFFFFFFFFFFFFFFFFFFF AND DUP2 MSTORE POP POP JUMPDEST PUSH1 0x3 SLOAD DUP3 PUSH1 0x0 ADD DUP2 DUP2 MSTORE POP POP PUSH1 0x4 SLOAD DUP3 PUSH1 0x20 ADD DUP2 DUP2 MSTORE POP POP PUSH1 0x0 DUP4 PUSH1 0x40 ADD MLOAD SWAP1 POP PUSH1 0x0 DUP1 DUP6 PUSH1 0x60 ADD MLOAD SWAP1 POP PUSH1 0x0 PUSH1 0x5 PUSH1 0x0 SWAP1 SLOAD SWAP1 PUSH2 0x100 EXP SWAP1 DIV PUSH20 0xFFFFFFFFFFFFFFFFFFFFFFFFFFFFFFFFFFFFFFFF AND SWAP1 POP PUSH32 0xD24646079E049D40989A6EF1838FECE81CAD58640453288ADDF8B6E5E0B475DB PUSH1 0x40 MLOAD PUSH1 0x40 MLOAD DUP1 SWAP2 SUB SWAP1 LOG1 PUSH1 0x0 DUP8 PUSH1 0x80 ADD MLOAD GT ISZERO PUSH3 0xD79 JUMPI PUSH2 0x2710 DUP8 PUSH1 0x80 ADD MLOAD DUP6 PUSH20 0xFFFFFFFFFFFFFFFFFFFFFFFFFFFFFFFFFFFFFFFF AND PUSH4 0x70A08231 PUSH1 0xB PUSH1 0x0 SWAP1 SLOAD SWAP1 PUSH2 0x100 EXP SWAP1 DIV PUSH20 0xFFFFFFFFFFFFFFFFFFFFFFFFFFFFFFFFFFFFFFFF AND PUSH1 0x40 MLOAD DUP3 PUSH4 0xFFFFFFFF AND PUSH1 0xE0 SHL DUP2 MSTORE PUSH1 0x4 ADD PUSH3 0xBEE SWAP2 SWAP1 PUSH3 0x5067 JUMP JUMPDEST PUSH1 0x20 PUSH1 0x40 MLOAD DUP1 DUP4 SUB DUP2 DUP7 DUP1 EXTCODESIZE ISZERO DUP1 ISZERO PUSH3 0xC07 JUMPI PUSH1 0x0 DUP1 REVERT JUMPDEST POP GAS STATICCALL ISZERO DUP1 ISZERO PUSH3 0xC1C JUMPI RETURNDATASIZE PUSH1 0x0 DUP1 RETURNDATACOPY RETURNDATASIZE PUSH1 0x0 REVERT JUMPDEST POP POP POP POP PUSH1 0x40 MLOAD RETURNDATASIZE PUSH1 0x1F NOT PUSH1 0x1F DUP3 ADD AND DUP3 ADD DUP1 PUSH1 0x40 MSTORE POP DUP2 ADD SWAP1 PUSH3 0xC42 SWAP2 SWAP1 PUSH3 0x4890 JUMP JUMPDEST PUSH3 0xC4E SWAP2 SWAP1 PUSH3 0x5638 JUMP JUMPDEST PUSH3 0xC5A SWAP2 SWAP1 PUSH3 0x5600 JUMP JUMPDEST SWAP3 POP ADDRESS PUSH20 0xFFFFFFFFFFFFFFFFFFFFFFFFFFFFFFFFFFFFFFFF AND PUSH4 0xA64E3DD7 DUP9 PUSH1 0x20 ADD MLOAD DUP10 PUSH1 0x40 ADD MLOAD DUP5 DUP7 PUSH1 0x0 DUP10 PUSH1 0x40 MLOAD DUP8 PUSH4 0xFFFFFFFF AND PUSH1 0xE0 SHL DUP2 MSTORE PUSH1 0x4 ADD PUSH3 0xCAA SWAP7 SWAP6 SWAP5 SWAP4 SWAP3 SWAP2 SWAP1 PUSH3 0x50B1 JUMP JUMPDEST PUSH1 0x0 PUSH1 0x40 MLOAD DUP1 DUP4 SUB DUP2 PUSH1 0x0 DUP8 DUP1 EXTCODESIZE ISZERO DUP1 ISZERO PUSH3 0xCC5 JUMPI PUSH1 0x0 DUP1 REVERT JUMPDEST POP GAS CALL SWAP3 POP POP POP DUP1 ISZERO PUSH3 0xCFE JUMPI POP PUSH1 0x40 MLOAD RETURNDATASIZE PUSH1 0x0 DUP3 RETURNDATACOPY RETURNDATASIZE PUSH1 0x1F NOT PUSH1 0x1F DUP3 ADD AND DUP3 ADD DUP1 PUSH1 0x40 MSTORE POP DUP2 ADD SWAP1 PUSH3 0xCFB SWAP2 SWAP1 PUSH3 0x4792 JUMP JUMPDEST PUSH1 0x1 JUMPDEST PUSH3 0xD6D JUMPI PUSH3 0xD0D PUSH3 0x597A JUMP JUMPDEST DUP1 PUSH4 0x8C379A0 EQ ISZERO PUSH3 0xD55 JUMPI POP PUSH3 0xD25 PUSH3 0x5ADA JUMP JUMPDEST DUP1 PUSH3 0xD32 JUMPI POP PUSH3 0xD57 JUMP JUMPDEST PUSH1 0x2 DUP8 PUSH1 0x60 ADD MLOAD PUSH1 0x0 ADD DUP2 DUP2 MSTORE POP POP DUP1 DUP8 PUSH1 0x60 ADD MLOAD PUSH1 0x80 ADD DUP2 SWAP1 MSTORE POP POP PUSH3 0xD67 JUMP JUMPDEST POP JUMPDEST PUSH1 0x2 DUP7 PUSH1 0x60 ADD MLOAD PUSH1 0x0 ADD DUP2 DUP2 MSTORE POP POP JUMPDEST PUSH3 0xD78 JUMP JUMPDEST DUP1 DUP8 PUSH1 0x60 ADD DUP2 SWAP1 MSTORE POP POP JUMPDEST JUMPDEST PUSH1 0x0 DUP8 PUSH1 0x80 ADD MLOAD EQ PUSH3 0xD8D JUMPI DUP2 PUSH3 0xD8F JUMP JUMPDEST ORIGIN JUMPDEST SWAP1 POP PUSH32 0xD24646079E049D40989A6EF1838FECE81CAD58640453288ADDF8B6E5E0B475DB PUSH1 0x40 MLOAD PUSH1 0x40 MLOAD DUP1 SWAP2 SUB SWAP1 LOG1 PUSH1 0x2 DUP7 PUSH1 0x60 ADD MLOAD PUSH1 0x0 ADD MLOAD EQ ISZERO DUP1 ISZERO PUSH3 0xDDB JUMPI POP PUSH1 0x0 DUP8 PUSH1 0xA0 ADD MLOAD GT JUMPDEST ISZERO PUSH3 0xFAF JUMPI DUP4 PUSH20 0xFFFFFFFFFFFFFFFFFFFFFFFFFFFFFFFFFFFFFFFF AND PUSH4 0x70A08231 DUP3 PUSH1 0x40 MLOAD DUP3 PUSH4 0xFFFFFFFF AND PUSH1 0xE0 SHL DUP2 MSTORE PUSH1 0x4 ADD PUSH3 0xE1C SWAP2 SWAP1 PUSH3 0x5067 JUMP JUMPDEST PUSH1 0x20 PUSH1 0x40 MLOAD DUP1 DUP4 SUB DUP2 DUP7 DUP1 EXTCODESIZE ISZERO DUP1 ISZERO PUSH3 0xE35 JUMPI PUSH1 0x0 DUP1 REVERT JUMPDEST POP GAS STATICCALL ISZERO DUP1 ISZERO PUSH3 0xE4A JUMPI RETURNDATASIZE PUSH1 0x0 DUP1 RETURNDATACOPY RETURNDATASIZE PUSH1 0x0 REVERT JUMPDEST POP POP POP POP PUSH1 0x40 MLOAD RETURNDATASIZE PUSH1 0x1F NOT PUSH1 0x1F DUP3 ADD AND DUP3 ADD DUP1 PUSH1 0x40 MSTORE POP DUP2 ADD SWAP1 PUSH3 0xE70 SWAP2 SWAP1 PUSH3 0x4890 JUMP JUMPDEST SWAP3 POP ADDRESS PUSH20 0xFFFFFFFFFFFFFFFFFFFFFFFFFFFFFFFFFFFFFFFF AND PUSH4 0xA64E3DD7 DUP9 PUSH1 0x40 ADD MLOAD DUP10 PUSH1 0x20 ADD MLOAD DUP5 DUP7 PUSH2 0x2710 DUP14 PUSH1 0xA0 ADD MLOAD DUP11 PUSH3 0xEAF SWAP2 SWAP1 PUSH3 0x5638 JUMP JUMPDEST PUSH3 0xEBB SWAP2 SWAP1 PUSH3 0x5600 JUMP JUMPDEST PUSH1 0x0 PUSH1 0x40 MLOAD DUP8 PUSH4 0xFFFFFFFF AND PUSH1 0xE0 SHL DUP2 MSTORE PUSH1 0x4 ADD PUSH3 0xEE0 SWAP7 SWAP6 SWAP5 SWAP4 SWAP3 SWAP2 SWAP1 PUSH3 0x511E JUMP JUMPDEST PUSH1 0x0 PUSH1 0x40 MLOAD DUP1 DUP4 SUB DUP2 PUSH1 0x0 DUP8 DUP1 EXTCODESIZE ISZERO DUP1 ISZERO PUSH3 0xEFB JUMPI PUSH1 0x0 DUP1 REVERT JUMPDEST POP GAS CALL SWAP3 POP POP POP DUP1 ISZERO PUSH3 0xF34 JUMPI POP PUSH1 0x40 MLOAD RETURNDATASIZE PUSH1 0x0 DUP3 RETURNDATACOPY RETURNDATASIZE PUSH1 0x1F NOT PUSH1 0x1F DUP3 ADD AND DUP3 ADD DUP1 PUSH1 0x40 MSTORE POP DUP2 ADD SWAP1 PUSH3 0xF31 SWAP2 SWAP1 PUSH3 0x4792 JUMP JUMPDEST PUSH1 0x1 JUMPDEST PUSH3 0xFA3 JUMPI PUSH3 0xF43 PUSH3 0x597A JUMP JUMPDEST DUP1 PUSH4 0x8C379A0 EQ ISZERO PUSH3 0xF8B JUMPI POP PUSH3 0xF5B PUSH3 0x5ADA JUMP JUMPDEST DUP1 PUSH3 0xF68 JUMPI POP PUSH3 0xF8D JUMP JUMPDEST PUSH1 0x2 DUP8 PUSH1 0x80 ADD MLOAD PUSH1 0x0 ADD DUP2 DUP2 MSTORE POP POP DUP1 DUP8 PUSH1 0x80 ADD MLOAD PUSH1 0x80 ADD DUP2 SWAP1 MSTORE POP POP PUSH3 0xF9D JUMP JUMPDEST POP JUMPDEST PUSH1 0x2 DUP7 PUSH1 0x60 ADD MLOAD PUSH1 0x0 ADD DUP2 DUP2 MSTORE POP POP JUMPDEST PUSH3 0xFAE JUMP JUMPDEST DUP1 DUP8 PUSH1 0x80 ADD DUP2 SWAP1 MSTORE POP POP JUMPDEST JUMPDEST PUSH32 0xD24646079E049D40989A6EF1838FECE81CAD58640453288ADDF8B6E5E0B475DB PUSH1 0x40 MLOAD PUSH1 0x40 MLOAD DUP1 SWAP2 SUB SWAP1 LOG1 PUSH1 0x2 DUP7 PUSH1 0x60 ADD MLOAD PUSH1 0x0 ADD MLOAD EQ ISZERO DUP1 ISZERO PUSH3 0xFF9 JUMPI POP PUSH1 0x0 DUP8 PUSH1 0xC0 ADD MLOAD GT JUMPDEST ISZERO PUSH3 0x11CD JUMPI DUP4 PUSH20 0xFFFFFFFFFFFFFFFFFFFFFFFFFFFFFFFFFFFFFFFF AND PUSH4 0x70A08231 DUP3 PUSH1 0x40 MLOAD DUP3 PUSH4 0xFFFFFFFF AND PUSH1 0xE0 SHL DUP2 MSTORE PUSH1 0x4 ADD PUSH3 0x103A SWAP2 SWAP1 PUSH3 0x5067 JUMP JUMPDEST PUSH1 0x20 PUSH1 0x40 MLOAD DUP1 DUP4 SUB DUP2 DUP7 DUP1 EXTCODESIZE ISZERO DUP1 ISZERO PUSH3 0x1053 JUMPI PUSH1 0x0 DUP1 REVERT JUMPDEST POP GAS STATICCALL ISZERO DUP1 ISZERO PUSH3 0x1068 JUMPI RETURNDATASIZE PUSH1 0x0 DUP1 RETURNDATACOPY RETURNDATASIZE PUSH1 0x0 REVERT JUMPDEST POP POP POP POP PUSH1 0x40 MLOAD RETURNDATASIZE PUSH1 0x1F NOT PUSH1 0x1F DUP3 ADD AND DUP3 ADD DUP1 PUSH1 0x40 MSTORE POP DUP2 ADD SWAP1 PUSH3 0x108E SWAP2 SWAP1 PUSH3 0x4890 JUMP JUMPDEST SWAP3 POP ADDRESS PUSH20 0xFFFFFFFFFFFFFFFFFFFFFFFFFFFFFFFFFFFFFFFF AND PUSH4 0xF18D03CC DUP9 PUSH1 0x40 ADD MLOAD DUP4 PUSH3 0x10BC PUSH3 0x3810 JUMP JUMPDEST PUSH2 0x2710 DUP13 PUSH1 0xC0 ADD MLOAD DUP10 PUSH3 0x10D1 SWAP2 SWAP1 PUSH3 0x5638 JUMP JUMPDEST PUSH3 0x10DD SWAP2 SWAP1 PUSH3 0x5600 JUMP JUMPDEST PUSH1 0x40 MLOAD DUP6 PUSH4 0xFFFFFFFF AND PUSH1 0xE0 SHL DUP2 MSTORE PUSH1 0x4 ADD PUSH3 0x10FE SWAP5 SWAP4 SWAP3 SWAP2 SWAP1 PUSH3 0x518B JUMP JUMPDEST PUSH1 0x0 PUSH1 0x40 MLOAD DUP1 DUP4 SUB DUP2 PUSH1 0x0 DUP8 DUP1 EXTCODESIZE ISZERO DUP1 ISZERO PUSH3 0x1119 JUMPI PUSH1 0x0 DUP1 REVERT JUMPDEST POP GAS CALL SWAP3 POP POP POP DUP1 ISZERO PUSH3 0x1152 JUMPI POP PUSH1 0x40 MLOAD RETURNDATASIZE PUSH1 0x0 DUP3 RETURNDATACOPY RETURNDATASIZE PUSH1 0x1F NOT PUSH1 0x1F DUP3 ADD AND DUP3 ADD DUP1 PUSH1 0x40 MSTORE POP DUP2 ADD SWAP1 PUSH3 0x114F SWAP2 SWAP1 PUSH3 0x4792 JUMP JUMPDEST PUSH1 0x1 JUMPDEST PUSH3 0x11C1 JUMPI PUSH3 0x1161 PUSH3 0x597A JUMP JUMPDEST DUP1 PUSH4 0x8C379A0 EQ ISZERO PUSH3 0x11A9 JUMPI POP PUSH3 0x1179 PUSH3 0x5ADA JUMP JUMPDEST DUP1 PUSH3 0x1186 JUMPI POP PUSH3 0x11AB JUMP JUMPDEST PUSH1 0x2 DUP8 PUSH1 0xA0 ADD MLOAD PUSH1 0x0 ADD DUP2 DUP2 MSTORE POP POP DUP1 DUP8 PUSH1 0xA0 ADD MLOAD PUSH1 0x80 ADD DUP2 SWAP1 MSTORE POP POP PUSH3 0x11BB JUMP JUMPDEST POP JUMPDEST PUSH1 0x2 DUP7 PUSH1 0x60 ADD MLOAD PUSH1 0x0 ADD DUP2 DUP2 MSTORE POP POP JUMPDEST PUSH3 0x11CC JUMP JUMPDEST DUP1 DUP8 PUSH1 0xA0 ADD DUP2 SWAP1 MSTORE POP POP JUMPDEST JUMPDEST PUSH32 0xD24646079E049D40989A6EF1838FECE81CAD58640453288ADDF8B6E5E0B475DB PUSH1 0x40 MLOAD PUSH1 0x40 MLOAD DUP1 SWAP2 SUB SWAP1 LOG1 PUSH1 0xB PUSH1 0x0 SWAP1 SLOAD SWAP1 PUSH2 0x100 EXP SWAP1 DIV PUSH20 0xFFFFFFFFFFFFFFFFFFFFFFFFFFFFFFFFFFFFFFFF AND DUP7 PUSH1 0x40 ADD SWAP1 PUSH20 0xFFFFFFFFFFFFFFFFFFFFFFFFFFFFFFFFFFFFFFFF AND SWAP1 DUP2 PUSH20 0xFFFFFFFFFFFFFFFFFFFFFFFFFFFFFFFFFFFFFFFF AND DUP2 MSTORE POP POP PUSH1 0x40 MLOAD DUP1 PUSH1 0x60 ADD PUSH1 0x40 MSTORE DUP1 DUP4 PUSH20 0xFFFFFFFFFFFFFFFFFFFFFFFFFFFFFFFFFFFFFFFF AND DUP2 MSTORE PUSH1 0x20 ADD DUP9 PUSH1 0x20 ADD MLOAD PUSH20 0xFFFFFFFFFFFFFFFFFFFFFFFFFFFFFFFFFFFFFFFF AND PUSH4 0x70A08231 DUP11 PUSH1 0x60 ADD MLOAD PUSH1 0x40 MLOAD DUP3 PUSH4 0xFFFFFFFF AND PUSH1 0xE0 SHL DUP2 MSTORE PUSH1 0x4 ADD PUSH3 0x12BD SWAP2 SWAP1 PUSH3 0x5067 JUMP JUMPDEST PUSH1 0x20 PUSH1 0x40 MLOAD DUP1 DUP4 SUB DUP2 DUP7 DUP1 EXTCODESIZE ISZERO DUP1 ISZERO PUSH3 0x12D6 JUMPI PUSH1 0x0 DUP1 REVERT JUMPDEST POP GAS STATICCALL ISZERO DUP1 ISZERO PUSH3 0x12EB JUMPI RETURNDATASIZE PUSH1 0x0 DUP1 RETURNDATACOPY RETURNDATASIZE PUSH1 0x0 REVERT JUMPDEST POP POP POP POP PUSH1 0x40 MLOAD RETURNDATASIZE PUSH1 0x1F NOT PUSH1 0x1F DUP3 ADD AND DUP3 ADD DUP1 PUSH1 0x40 MSTORE POP DUP2 ADD SWAP1 PUSH3 0x1311 SWAP2 SWAP1 PUSH3 0x4890 JUMP JUMPDEST DUP2 MSTORE PUSH1 0x20 ADD DUP6 PUSH20 0xFFFFFFFFFFFFFFFFFFFFFFFFFFFFFFFFFFFFFFFF AND PUSH4 0x70A08231 DUP11 PUSH1 0x60 ADD MLOAD PUSH1 0x40 MLOAD DUP3 PUSH4 0xFFFFFFFF AND PUSH1 0xE0 SHL DUP2 MSTORE PUSH1 0x4 ADD PUSH3 0x1355 SWAP2 SWAP1 PUSH3 0x5067 JUMP JUMPDEST PUSH1 0x20 PUSH1 0x40 MLOAD DUP1 DUP4 SUB DUP2 DUP7 DUP1 EXTCODESIZE ISZERO DUP1 ISZERO PUSH3 0x136E JUMPI PUSH1 0x0 DUP1 REVERT JUMPDEST POP GAS STATICCALL ISZERO DUP1 ISZERO PUSH3 0x1383 JUMPI RETURNDATASIZE PUSH1 0x0 DUP1 RETURNDATACOPY RETURNDATASIZE PUSH1 0x0 REVERT JUMPDEST POP POP POP POP PUSH1 0x40 MLOAD RETURNDATASIZE PUSH1 0x1F NOT PUSH1 0x1F DUP3 ADD AND DUP3 ADD DUP1 PUSH1 0x40 MSTORE POP DUP2 ADD SWAP1 PUSH3 0x13A9 SWAP2 SWAP1 PUSH3 0x4890 JUMP JUMPDEST DUP2 MSTORE POP DUP7 PUSH1 0xC0 ADD DUP2 SWAP1 MSTORE POP POP POP POP POP PUSH3 0x13C7 DUP2 PUSH1 0x20 ADD MLOAD PUSH3 0x2BF0 JUMP JUMPDEST POP SWAP2 SWAP1 POP JUMP JUMPDEST PUSH3 0x13D7 PUSH3 0x3CB4 JUMP JUMPDEST PUSH1 0x1 DUP2 PUSH1 0x0 ADD DUP2 DUP2 MSTORE POP POP PUSH3 0x13F0 DUP6 DUP6 DUP6 DUP6 PUSH3 0x2136 JUMP JUMPDEST DUP2 PUSH1 0x40 ADD DUP2 SWAP1 MSTORE POP DUP1 PUSH1 0x40 ADD MLOAD PUSH2 0x140 ADD MLOAD DUP2 PUSH1 0x20 ADD DUP2 DUP2 MSTORE POP POP SWAP5 SWAP4 POP POP POP POP JUMP JUMPDEST DUP4 PUSH1 0x6 PUSH1 0x0 PUSH2 0x100 EXP DUP2 SLOAD DUP2 PUSH20 0xFFFFFFFFFFFFFFFFFFFFFFFFFFFFFFFFFFFFFFFF MUL NOT AND SWAP1 DUP4 PUSH20 0xFFFFFFFFFFFFFFFFFFFFFFFFFFFFFFFFFFFFFFFF AND MUL OR SWAP1 SSTORE POP PUSH1 0x6 PUSH1 0x0 SWAP1 SLOAD SWAP1 PUSH2 0x100 EXP SWAP1 DIV PUSH20 0xFFFFFFFFFFFFFFFFFFFFFFFFFFFFFFFFFFFFFFFF AND PUSH20 0xFFFFFFFFFFFFFFFFFFFFFFFFFFFFFFFFFFFFFFFF AND PUSH4 0xAD5C4648 PUSH1 0x40 MLOAD DUP2 PUSH4 0xFFFFFFFF AND PUSH1 0xE0 SHL DUP2 MSTORE PUSH1 0x4 ADD PUSH1 0x20 PUSH1 0x40 MLOAD DUP1 DUP4 SUB DUP2 DUP7 DUP1 EXTCODESIZE ISZERO DUP1 ISZERO PUSH3 0x14BD JUMPI PUSH1 0x0 DUP1 REVERT JUMPDEST POP GAS STATICCALL ISZERO DUP1 ISZERO PUSH3 0x14D2 JUMPI RETURNDATASIZE PUSH1 0x0 DUP1 RETURNDATACOPY RETURNDATASIZE PUSH1 0x0 REVERT JUMPDEST POP POP POP POP PUSH1 0x40 MLOAD RETURNDATASIZE PUSH1 0x1F NOT PUSH1 0x1F DUP3 ADD AND DUP3 ADD DUP1 PUSH1 0x40 MSTORE POP DUP2 ADD SWAP1 PUSH3 0x14F8 SWAP2 SWAP1 PUSH3 0x4516 JUMP JUMPDEST PUSH1 0x7 PUSH1 0x0 PUSH2 0x100 EXP DUP2 SLOAD DUP2 PUSH20 0xFFFFFFFFFFFFFFFFFFFFFFFFFFFFFFFFFFFFFFFF MUL NOT AND SWAP1 DUP4 PUSH20 0xFFFFFFFFFFFFFFFFFFFFFFFFFFFFFFFFFFFFFFFF AND MUL OR SWAP1 SSTORE POP PUSH1 0x7 PUSH1 0x0 SWAP1 SLOAD SWAP1 PUSH2 0x100 EXP SWAP1 DIV PUSH20 0xFFFFFFFFFFFFFFFFFFFFFFFFFFFFFFFFFFFFFFFF AND PUSH1 0x8 PUSH1 0x0 PUSH2 0x100 EXP DUP2 SLOAD DUP2 PUSH20 0xFFFFFFFFFFFFFFFFFFFFFFFFFFFFFFFFFFFFFFFF MUL NOT AND SWAP1 DUP4 PUSH20 0xFFFFFFFFFFFFFFFFFFFFFFFFFFFFFFFFFFFFFFFF AND MUL OR SWAP1 SSTORE POP PUSH1 0x6 PUSH1 0x0 SWAP1 SLOAD SWAP1 PUSH2 0x100 EXP SWAP1 DIV PUSH20 0xFFFFFFFFFFFFFFFFFFFFFFFFFFFFFFFFFFFFFFFF AND PUSH20 0xFFFFFFFFFFFFFFFFFFFFFFFFFFFFFFFFFFFFFFFF AND PUSH4 0xC45A0155 PUSH1 0x40 MLOAD DUP2 PUSH4 0xFFFFFFFF AND PUSH1 0xE0 SHL DUP2 MSTORE PUSH1 0x4 ADD PUSH1 0x20 PUSH1 0x40 MLOAD DUP1 DUP4 SUB DUP2 DUP7 DUP1 EXTCODESIZE ISZERO DUP1 ISZERO PUSH3 0x1604 JUMPI PUSH1 0x0 DUP1 REVERT JUMPDEST POP GAS STATICCALL ISZERO DUP1 ISZERO PUSH3 0x1619 JUMPI RETURNDATASIZE PUSH1 0x0 DUP1 RETURNDATACOPY RETURNDATASIZE PUSH1 0x0 REVERT JUMPDEST POP POP POP POP PUSH1 0x40 MLOAD RETURNDATASIZE PUSH1 0x1F NOT PUSH1 0x1F DUP3 ADD AND DUP3 ADD DUP1 PUSH1 0x40 MSTORE POP DUP2 ADD SWAP1 PUSH3 0x163F SWAP2 SWAP1 PUSH3 0x4516 JUMP JUMPDEST PUSH1 0x9 PUSH1 0x0 PUSH2 0x100 EXP DUP2 SLOAD DUP2 PUSH20 0xFFFFFFFFFFFFFFFFFFFFFFFFFFFFFFFFFFFFFFFF MUL NOT AND SWAP1 DUP4 PUSH20 0xFFFFFFFFFFFFFFFFFFFFFFFFFFFFFFFFFFFFFFFF AND MUL OR SWAP1 SSTORE POP PUSH8 0x4563918244F40000 PUSH1 0x5 PUSH1 0x0 SWAP1 SLOAD SWAP1 PUSH2 0x100 EXP SWAP1 DIV PUSH20 0xFFFFFFFFFFFFFFFFFFFFFFFFFFFFFFFFFFFFFFFF AND PUSH20 0xFFFFFFFFFFFFFFFFFFFFFFFFFFFFFFFFFFFFFFFF AND BALANCE GT ISZERO PUSH3 0x179D JUMPI PUSH1 0x8 PUSH1 0x0 SWAP1 SLOAD SWAP1 PUSH2 0x100 EXP SWAP1 DIV PUSH20 0xFFFFFFFFFFFFFFFFFFFFFFFFFFFFFFFFFFFFFFFF AND PUSH20 0xFFFFFFFFFFFFFFFFFFFFFFFFFFFFFFFFFFFFFFFF AND PUSH4 0xD0E30DB0 PUSH8 0x4563918244F40000 PUSH1 0x5 PUSH1 0x0 SWAP1 SLOAD SWAP1 PUSH2 0x100 EXP SWAP1 DIV PUSH20 0xFFFFFFFFFFFFFFFFFFFFFFFFFFFFFFFFFFFFFFFF AND PUSH20 0xFFFFFFFFFFFFFFFFFFFFFFFFFFFFFFFFFFFFFFFF AND BALANCE PUSH3 0x1756 SWAP2 SWAP1 PUSH3 0x5737 JUMP JUMPDEST PUSH1 0x40 MLOAD DUP3 PUSH4 0xFFFFFFFF AND PUSH1 0xE0 SHL DUP2 MSTORE PUSH1 0x4 ADD PUSH1 0x0 PUSH1 0x40 MLOAD DUP1 DUP4 SUB DUP2 DUP6 DUP9 DUP1 EXTCODESIZE ISZERO DUP1 ISZERO PUSH3 0x1782 JUMPI PUSH1 0x0 DUP1 REVERT JUMPDEST POP GAS CALL ISZERO DUP1 ISZERO PUSH3 0x1797 JUMPI RETURNDATASIZE PUSH1 0x0 DUP1 RETURNDATACOPY RETURNDATASIZE PUSH1 0x0 REVERT JUMPDEST POP POP POP POP POP JUMPDEST PUSH1 0x7 PUSH1 0x0 SWAP1 SLOAD SWAP1 PUSH2 0x100 EXP SWAP1 DIV PUSH20 0xFFFFFFFFFFFFFFFFFFFFFFFFFFFFFFFFFFFFFFFF AND PUSH20 0xFFFFFFFFFFFFFFFFFFFFFFFFFFFFFFFFFFFFFFFF AND DUP4 PUSH20 0xFFFFFFFFFFFFFFFFFFFFFFFFFFFFFFFFFFFFFFFF AND EQ ISZERO DUP1 ISZERO PUSH3 0x18CE JUMPI POP PUSH1 0x0 PUSH1 0x8 PUSH1 0x0 SWAP1 SLOAD SWAP1 PUSH2 0x100 EXP SWAP1 DIV PUSH20 0xFFFFFFFFFFFFFFFFFFFFFFFFFFFFFFFFFFFFFFFF AND PUSH20 0xFFFFFFFFFFFFFFFFFFFFFFFFFFFFFFFFFFFFFFFF AND PUSH4 0x70A08231 PUSH1 0x5 PUSH1 0x0 SWAP1 SLOAD SWAP1 PUSH2 0x100 EXP SWAP1 DIV PUSH20 0xFFFFFFFFFFFFFFFFFFFFFFFFFFFFFFFFFFFFFFFF AND PUSH1 0x40 MLOAD DUP3 PUSH4 0xFFFFFFFF AND PUSH1 0xE0 SHL DUP2 MSTORE PUSH1 0x4 ADD PUSH3 0x1878 SWAP2 SWAP1 PUSH3 0x5067 JUMP JUMPDEST PUSH1 0x20 PUSH1 0x40 MLOAD DUP1 DUP4 SUB DUP2 DUP7 DUP1 EXTCODESIZE ISZERO DUP1 ISZERO PUSH3 0x1891 JUMPI PUSH1 0x0 DUP1 REVERT JUMPDEST POP GAS STATICCALL ISZERO DUP1 ISZERO PUSH3 0x18A6 JUMPI RETURNDATASIZE PUSH1 0x0 DUP1 RETURNDATACOPY RETURNDATASIZE PUSH1 0x0 REVERT JUMPDEST POP POP POP POP PUSH1 0x40 MLOAD RETURNDATASIZE PUSH1 0x1F NOT PUSH1 0x1F DUP3 ADD AND DUP3 ADD DUP1 PUSH1 0x40 MSTORE POP DUP2 ADD SWAP1 PUSH3 0x18CC SWAP2 SWAP1 PUSH3 0x4890 JUMP JUMPDEST GT JUMPDEST ISZERO PUSH3 0x1CCC JUMPI PUSH1 0x9 PUSH1 0x0 SWAP1 SLOAD SWAP1 PUSH2 0x100 EXP SWAP1 DIV PUSH20 0xFFFFFFFFFFFFFFFFFFFFFFFFFFFFFFFFFFFFFFFF AND PUSH20 0xFFFFFFFFFFFFFFFFFFFFFFFFFFFFFFFFFFFFFFFF AND PUSH4 0xE6A43905 DUP5 PUSH1 0x7 PUSH1 0x0 SWAP1 SLOAD SWAP1 PUSH2 0x100 EXP SWAP1 DIV PUSH20 0xFFFFFFFFFFFFFFFFFFFFFFFFFFFFFFFFFFFFFFFF AND PUSH1 0x40 MLOAD DUP4 PUSH4 0xFFFFFFFF AND PUSH1 0xE0 SHL DUP2 MSTORE PUSH1 0x4 ADD PUSH3 0x1955 SWAP3 SWAP2 SWAP1 PUSH3 0x5084 JUMP JUMPDEST PUSH1 0x20 PUSH1 0x40 MLOAD DUP1 DUP4 SUB DUP2 DUP7 DUP1 EXTCODESIZE ISZERO DUP1 ISZERO PUSH3 0x196E JUMPI PUSH1 0x0 DUP1 REVERT JUMPDEST POP GAS STATICCALL ISZERO DUP1 ISZERO PUSH3 0x1983 JUMPI RETURNDATASIZE PUSH1 0x0 DUP1 RETURNDATACOPY RETURNDATASIZE PUSH1 0x0 REVERT JUMPDEST POP POP POP POP PUSH1 0x40 MLOAD RETURNDATASIZE PUSH1 0x1F NOT PUSH1 0x1F DUP3 ADD AND DUP3 ADD DUP1 PUSH1 0x40 MSTORE POP DUP2 ADD SWAP1 PUSH3 0x19A9 SWAP2 SWAP1 PUSH3 0x4516 JUMP JUMPDEST PUSH1 0xB PUSH1 0x0 PUSH2 0x100 EXP DUP2 SLOAD DUP2 PUSH20 0xFFFFFFFFFFFFFFFFFFFFFFFFFFFFFFFFFFFFFFFF MUL NOT AND SWAP1 DUP4 PUSH20 0xFFFFFFFFFFFFFFFFFFFFFFFFFFFFFFFFFFFFFFFF AND MUL OR SWAP1 SSTORE POP PUSH1 0xB PUSH1 0x0 SWAP1 SLOAD SWAP1 PUSH2 0x100 EXP SWAP1 DIV PUSH20 0xFFFFFFFFFFFFFFFFFFFFFFFFFFFFFFFFFFFFFFFF AND PUSH1 0xA PUSH1 0x0 PUSH2 0x100 EXP DUP2 SLOAD DUP2 PUSH20 0xFFFFFFFFFFFFFFFFFFFFFFFFFFFFFFFFFFFFFFFF MUL NOT AND SWAP1 DUP4 PUSH20 0xFFFFFFFFFFFFFFFFFFFFFFFFFFFFFFFFFFFFFFFF AND MUL OR SWAP1 SSTORE POP PUSH1 0xA PUSH1 0x0 SWAP1 SLOAD SWAP1 PUSH2 0x100 EXP SWAP1 DIV PUSH20 0xFFFFFFFFFFFFFFFFFFFFFFFFFFFFFFFFFFFFFFFF AND PUSH20 0xFFFFFFFFFFFFFFFFFFFFFFFFFFFFFFFFFFFFFFFF AND PUSH4 0xDFE1681 PUSH1 0x40 MLOAD DUP2 PUSH4 0xFFFFFFFF AND PUSH1 0xE0 SHL DUP2 MSTORE PUSH1 0x4 ADD PUSH1 0x20 PUSH1 0x40 MLOAD DUP1 DUP4 SUB DUP2 DUP7 DUP1 EXTCODESIZE ISZERO DUP1 ISZERO PUSH3 0x1AB5 JUMPI PUSH1 0x0 DUP1 REVERT JUMPDEST POP GAS STATICCALL ISZERO DUP1 ISZERO PUSH3 0x1ACA JUMPI RETURNDATASIZE PUSH1 0x0 DUP1 RETURNDATACOPY RETURNDATASIZE PUSH1 0x0 REVERT JUMPDEST POP POP POP POP PUSH1 0x40 MLOAD RETURNDATASIZE PUSH1 0x1F NOT PUSH1 0x1F DUP3 ADD AND DUP3 ADD DUP1 PUSH1 0x40 MSTORE POP DUP2 ADD SWAP1 PUSH3 0x1AF0 SWAP2 SWAP1 PUSH3 0x4516 JUMP JUMPDEST PUSH1 0xC PUSH1 0x0 PUSH2 0x100 EXP DUP2 SLOAD DUP2 PUSH20 0xFFFFFFFFFFFFFFFFFFFFFFFFFFFFFFFFFFFFFFFF MUL NOT AND SWAP1 DUP4 PUSH20 0xFFFFFFFFFFFFFFFFFFFFFFFFFFFFFFFFFFFFFFFF AND MUL OR SWAP1 SSTORE POP ADDRESS PUSH20 0xFFFFFFFFFFFFFFFFFFFFFFFFFFFFFFFFFFFFFFFF AND PUSH4 0xA64E3DD7 PUSH1 0x7 PUSH1 0x0 SWAP1 SLOAD SWAP1 PUSH2 0x100 EXP SWAP1 DIV PUSH20 0xFFFFFFFFFFFFFFFFFFFFFFFFFFFFFFFFFFFFFFFF AND DUP6 ADDRESS ADDRESS PUSH1 0x8 PUSH1 0x0 SWAP1 SLOAD SWAP1 PUSH2 0x100 EXP SWAP1 DIV PUSH20 0xFFFFFFFFFFFFFFFFFFFFFFFFFFFFFFFFFFFFFFFF AND PUSH20 0xFFFFFFFFFFFFFFFFFFFFFFFFFFFFFFFFFFFFFFFF AND PUSH4 0x70A08231 PUSH1 0x5 PUSH1 0x0 SWAP1 SLOAD SWAP1 PUSH2 0x100 EXP SWAP1 DIV PUSH20 0xFFFFFFFFFFFFFFFFFFFFFFFFFFFFFFFFFFFFFFFF AND PUSH1 0x40 MLOAD DUP3 PUSH4 0xFFFFFFFF AND PUSH1 0xE0 SHL DUP2 MSTORE PUSH1 0x4 ADD PUSH3 0x1BF1 SWAP2 SWAP1 PUSH3 0x5067 JUMP JUMPDEST PUSH1 0x20 PUSH1 0x40 MLOAD DUP1 DUP4 SUB DUP2 DUP7 DUP1 EXTCODESIZE ISZERO DUP1 ISZERO PUSH3 0x1C0A JUMPI PUSH1 0x0 DUP1 REVERT JUMPDEST POP GAS STATICCALL ISZERO DUP1 ISZERO PUSH3 0x1C1F JUMPI RETURNDATASIZE PUSH1 0x0 DUP1 RETURNDATACOPY RETURNDATASIZE PUSH1 0x0 REVERT JUMPDEST POP POP POP POP PUSH1 0x40 MLOAD RETURNDATASIZE PUSH1 0x1F NOT PUSH1 0x1F DUP3 ADD AND DUP3 ADD DUP1 PUSH1 0x40 MSTORE POP DUP2 ADD SWAP1 PUSH3 0x1C45 SWAP2 SWAP1 PUSH3 0x4890 JUMP JUMPDEST PUSH1 0x0 PUSH1 0x40 MLOAD DUP8 PUSH4 0xFFFFFFFF AND PUSH1 0xE0 SHL DUP2 MSTORE PUSH1 0x4 ADD PUSH3 0x1C6A SWAP7 SWAP6 SWAP5 SWAP4 SWAP3 SWAP2 SWAP1 PUSH3 0x511E JUMP JUMPDEST PUSH1 0x0 PUSH1 0x40 MLOAD DUP1 DUP4 SUB DUP2 PUSH1 0x0 DUP8 DUP1 EXTCODESIZE ISZERO DUP1 ISZERO PUSH3 0x1C85 JUMPI PUSH1 0x0 DUP1 REVERT JUMPDEST POP GAS CALL SWAP3 POP POP POP DUP1 ISZERO PUSH3 0x1CBE JUMPI POP PUSH1 0x40 MLOAD RETURNDATASIZE PUSH1 0x0 DUP3 RETURNDATACOPY RETURNDATASIZE PUSH1 0x1F NOT PUSH1 0x1F DUP3 ADD AND DUP3 ADD DUP1 PUSH1 0x40 MSTORE POP DUP2 ADD SWAP1 PUSH3 0x1CBB SWAP2 SWAP1 PUSH3 0x4792 JUMP JUMPDEST PUSH1 0x1 JUMPDEST PUSH3 0x1CC9 JUMPI PUSH3 0x1CCB JUMP JUMPDEST POP JUMPDEST JUMPDEST PUSH1 0x9 PUSH1 0x0 SWAP1 SLOAD SWAP1 PUSH2 0x100 EXP SWAP1 DIV PUSH20 0xFFFFFFFFFFFFFFFFFFFFFFFFFFFFFFFFFFFFFFFF AND PUSH20 0xFFFFFFFFFFFFFFFFFFFFFFFFFFFFFFFFFFFFFFFF AND PUSH4 0xE6A43905 DUP5 DUP5 PUSH1 0x40 MLOAD DUP4 PUSH4 0xFFFFFFFF AND PUSH1 0xE0 SHL DUP2 MSTORE PUSH1 0x4 ADD PUSH3 0x1D2B SWAP3 SWAP2 SWAP1 PUSH3 0x5084 JUMP JUMPDEST PUSH1 0x20 PUSH1 0x40 MLOAD DUP1 DUP4 SUB DUP2 DUP7 DUP1 EXTCODESIZE ISZERO DUP1 ISZERO PUSH3 0x1D44 JUMPI PUSH1 0x0 DUP1 REVERT JUMPDEST POP GAS STATICCALL ISZERO DUP1 ISZERO PUSH3 0x1D59 JUMPI RETURNDATASIZE PUSH1 0x0 DUP1 RETURNDATACOPY RETURNDATASIZE PUSH1 0x0 REVERT JUMPDEST POP POP POP POP PUSH1 0x40 MLOAD RETURNDATASIZE PUSH1 0x1F NOT PUSH1 0x1F DUP3 ADD AND DUP3 ADD DUP1 PUSH1 0x40 MSTORE POP DUP2 ADD SWAP1 PUSH3 0x1D7F SWAP2 SWAP1 PUSH3 0x4516 JUMP JUMPDEST PUSH1 0xB PUSH1 0x0 PUSH2 0x100 EXP DUP2 SLOAD DUP2 PUSH20 0xFFFFFFFFFFFFFFFFFFFFFFFFFFFFFFFFFFFFFFFF MUL NOT AND SWAP1 DUP4 PUSH20 0xFFFFFFFFFFFFFFFFFFFFFFFFFFFFFFFFFFFFFFFF AND MUL OR SWAP1 SSTORE POP PUSH1 0x0 DUP1 SLOAD SWAP1 PUSH2 0x100 EXP SWAP1 DIV PUSH20 0xFFFFFFFFFFFFFFFFFFFFFFFFFFFFFFFFFFFFFFFF AND PUSH20 0xFFFFFFFFFFFFFFFFFFFFFFFFFFFFFFFFFFFFFFFF AND PUSH1 0xB PUSH1 0x0 SWAP1 SLOAD SWAP1 PUSH2 0x100 EXP SWAP1 DIV PUSH20 0xFFFFFFFFFFFFFFFFFFFFFFFFFFFFFFFFFFFFFFFF AND PUSH20 0xFFFFFFFFFFFFFFFFFFFFFFFFFFFFFFFFFFFFFFFF AND EQ ISZERO DUP1 PUSH3 0x1E3A JUMPI POP DUP1 JUMPDEST PUSH3 0x1E7C JUMPI PUSH1 0x40 MLOAD PUSH32 0x8C379A000000000000000000000000000000000000000000000000000000000 DUP2 MSTORE PUSH1 0x4 ADD PUSH3 0x1E73 SWAP1 PUSH3 0x5288 JUMP JUMPDEST PUSH1 0x40 MLOAD DUP1 SWAP2 SUB SWAP1 REVERT JUMPDEST PUSH1 0x0 DUP1 SLOAD SWAP1 PUSH2 0x100 EXP SWAP1 DIV PUSH20 0xFFFFFFFFFFFFFFFFFFFFFFFFFFFFFFFFFFFFFFFF AND PUSH20 0xFFFFFFFFFFFFFFFFFFFFFFFFFFFFFFFFFFFFFFFF AND PUSH1 0xB PUSH1 0x0 SWAP1 SLOAD SWAP1 PUSH2 0x100 EXP SWAP1 DIV PUSH20 0xFFFFFFFFFFFFFFFFFFFFFFFFFFFFFFFFFFFFFFFF AND PUSH20 0xFFFFFFFFFFFFFFFFFFFFFFFFFFFFFFFFFFFFFFFF AND EQ ISZERO PUSH3 0x1FE9 JUMPI PUSH1 0x9 PUSH1 0x0 SWAP1 SLOAD SWAP1 PUSH2 0x100 EXP SWAP1 DIV PUSH20 0xFFFFFFFFFFFFFFFFFFFFFFFFFFFFFFFFFFFFFFFF AND PUSH20 0xFFFFFFFFFFFFFFFFFFFFFFFFFFFFFFFFFFFFFFFF AND PUSH4 0xC9C65396 DUP5 DUP5 PUSH1 0x40 MLOAD DUP4 PUSH4 0xFFFFFFFF AND PUSH1 0xE0 SHL DUP2 MSTORE PUSH1 0x4 ADD PUSH3 0x1F52 SWAP3 SWAP2 SWAP1 PUSH3 0x5084 JUMP JUMPDEST PUSH1 0x20 PUSH1 0x40 MLOAD DUP1 DUP4 SUB DUP2 PUSH1 0x0 DUP8 DUP1 EXTCODESIZE ISZERO DUP1 ISZERO PUSH3 0x1F6D JUMPI PUSH1 0x0 DUP1 REVERT JUMPDEST POP GAS CALL ISZERO DUP1 ISZERO PUSH3 0x1F82 JUMPI RETURNDATASIZE PUSH1 0x0 DUP1 RETURNDATACOPY RETURNDATASIZE PUSH1 0x0 REVERT JUMPDEST POP POP POP POP PUSH1 0x40 MLOAD RETURNDATASIZE PUSH1 0x1F NOT PUSH1 0x1F DUP3 ADD AND DUP3 ADD DUP1 PUSH1 0x40 MSTORE POP DUP2 ADD SWAP1 PUSH3 0x1FA8 SWAP2 SWAP1 PUSH3 0x4516 JUMP JUMPDEST PUSH1 0xB PUSH1 0x0 PUSH2 0x100 EXP DUP2 SLOAD DUP2 PUSH20 0xFFFFFFFFFFFFFFFFFFFFFFFFFFFFFFFFFFFFFFFF MUL NOT AND SWAP1 DUP4 PUSH20 0xFFFFFFFFFFFFFFFFFFFFFFFFFFFFFFFFFFFFFFFF AND MUL OR SWAP1 SSTORE POP JUMPDEST PUSH1 0xB PUSH1 0x0 SWAP1 SLOAD SWAP1 PUSH2 0x100 EXP SWAP1 DIV PUSH20 0xFFFFFFFFFFFFFFFFFFFFFFFFFFFFFFFFFFFFFFFF AND PUSH1 0xA PUSH1 0x0 PUSH2 0x100 EXP DUP2 SLOAD DUP2 PUSH20 0xFFFFFFFFFFFFFFFFFFFFFFFFFFFFFFFFFFFFFFFF MUL NOT AND SWAP1 DUP4 PUSH20 0xFFFFFFFFFFFFFFFFFFFFFFFFFFFFFFFFFFFFFFFF AND MUL OR SWAP1 SSTORE POP PUSH1 0xA PUSH1 0x0 SWAP1 SLOAD SWAP1 PUSH2 0x100 EXP SWAP1 DIV PUSH20 0xFFFFFFFFFFFFFFFFFFFFFFFFFFFFFFFFFFFFFFFF AND PUSH20 0xFFFFFFFFFFFFFFFFFFFFFFFFFFFFFFFFFFFFFFFF AND PUSH4 0xDFE1681 PUSH1 0x40 MLOAD DUP2 PUSH4 0xFFFFFFFF AND PUSH1 0xE0 SHL DUP2 MSTORE PUSH1 0x4 ADD PUSH1 0x20 PUSH1 0x40 MLOAD DUP1 DUP4 SUB DUP2 DUP7 DUP1 EXTCODESIZE ISZERO DUP1 ISZERO PUSH3 0x20B5 JUMPI PUSH1 0x0 DUP1 REVERT JUMPDEST POP GAS STATICCALL ISZERO DUP1 ISZERO PUSH3 0x20CA JUMPI RETURNDATASIZE PUSH1 0x0 DUP1 RETURNDATACOPY RETURNDATASIZE PUSH1 0x0 REVERT JUMPDEST POP POP POP POP PUSH1 0x40 MLOAD RETURNDATASIZE PUSH1 0x1F NOT PUSH1 0x1F DUP3 ADD AND DUP3 ADD DUP1 PUSH1 0x40 MSTORE POP DUP2 ADD SWAP1 PUSH3 0x20F0 SWAP2 SWAP1 PUSH3 0x4516 JUMP JUMPDEST PUSH1 0xC PUSH1 0x0 PUSH2 0x100 EXP DUP2 SLOAD DUP2 PUSH20 0xFFFFFFFFFFFFFFFFFFFFFFFFFFFFFFFFFFFFFFFF MUL NOT AND SWAP1 DUP4 PUSH20 0xFFFFFFFFFFFFFFFFFFFFFFFFFFFFFFFFFFFFFFFF AND MUL OR SWAP1 SSTORE POP POP POP POP POP JUMP JUMPDEST PUSH3 0x2140 PUSH3 0x3CF3 JUMP JUMPDEST DUP2 DUP2 PUSH1 0xC0 ADD DUP2 DUP2 MSTORE POP POP PUSH3 0x2157 DUP6 DUP6 DUP5 PUSH3 0x384D JUMP JUMPDEST DUP2 PUSH1 0x0 ADD SWAP1 PUSH20 0xFFFFFFFFFFFFFFFFFFFFFFFFFFFFFFFFFFFFFFFF AND SWAP1 DUP2 PUSH20 0xFFFFFFFFFFFFFFFFFFFFFFFFFFFFFFFFFFFFFFFF AND DUP2 MSTORE POP POP DUP5 PUSH20 0xFFFFFFFFFFFFFFFFFFFFFFFFFFFFFFFFFFFFFFFF AND PUSH4 0x70A08231 DUP3 PUSH1 0x0 ADD MLOAD PUSH1 0x40 MLOAD DUP3 PUSH4 0xFFFFFFFF AND PUSH1 0xE0 SHL DUP2 MSTORE PUSH1 0x4 ADD PUSH3 0x21CD SWAP2 SWAP1 PUSH3 0x5067 JUMP JUMPDEST PUSH1 0x20 PUSH1 0x40 MLOAD DUP1 DUP4 SUB DUP2 DUP7 DUP1 EXTCODESIZE ISZERO DUP1 ISZERO PUSH3 0x21E6 JUMPI PUSH1 0x0 DUP1 REVERT JUMPDEST POP GAS STATICCALL ISZERO DUP1 ISZERO PUSH3 0x21FB JUMPI RETURNDATASIZE PUSH1 0x0 DUP1 RETURNDATACOPY RETURNDATASIZE PUSH1 0x0 REVERT JUMPDEST POP POP POP POP PUSH1 0x40 MLOAD RETURNDATASIZE PUSH1 0x1F NOT PUSH1 0x1F DUP3 ADD AND DUP3 ADD DUP1 PUSH1 0x40 MSTORE POP DUP2 ADD SWAP1 PUSH3 0x2221 SWAP2 SWAP1 PUSH3 0x4890 JUMP JUMPDEST DUP2 PUSH1 0x20 ADD DUP2 DUP2 MSTORE POP POP DUP3 DUP2 PUSH1 0x60 ADD SWAP1 PUSH20 0xFFFFFFFFFFFFFFFFFFFFFFFFFFFFFFFFFFFFFFFF AND SWAP1 DUP2 PUSH20 0xFFFFFFFFFFFFFFFFFFFFFFFFFFFFFFFFFFFFFFFF AND DUP2 MSTORE POP POP DUP5 PUSH20 0xFFFFFFFFFFFFFFFFFFFFFFFFFFFFFFFFFFFFFFFF AND PUSH4 0x70A08231 DUP5 PUSH1 0x40 MLOAD DUP3 PUSH4 0xFFFFFFFF AND PUSH1 0xE0 SHL DUP2 MSTORE PUSH1 0x4 ADD PUSH3 0x229D SWAP2 SWAP1 PUSH3 0x5067 JUMP JUMPDEST PUSH1 0x20 PUSH1 0x40 MLOAD DUP1 DUP4 SUB DUP2 DUP7 DUP1 EXTCODESIZE ISZERO DUP1 ISZERO PUSH3 0x22B6 JUMPI PUSH1 0x0 DUP1 REVERT JUMPDEST POP GAS STATICCALL ISZERO DUP1 ISZERO PUSH3 0x22CB JUMPI RETURNDATASIZE PUSH1 0x0 DUP1 RETURNDATACOPY RETURNDATASIZE PUSH1 0x0 REVERT JUMPDEST POP POP POP POP PUSH1 0x40 MLOAD RETURNDATASIZE PUSH1 0x1F NOT PUSH1 0x1F DUP3 ADD AND DUP3 ADD DUP1 PUSH1 0x40 MSTORE POP DUP2 ADD SWAP1 PUSH3 0x22F1 SWAP2 SWAP1 PUSH3 0x4890 JUMP JUMPDEST DUP2 PUSH1 0x80 ADD DUP2 DUP2 MSTORE POP POP PUSH1 0x0 DUP1 SLOAD SWAP1 PUSH2 0x100 EXP SWAP1 DIV PUSH20 0xFFFFFFFFFFFFFFFFFFFFFFFFFFFFFFFFFFFFFFFF AND PUSH20 0xFFFFFFFFFFFFFFFFFFFFFFFFFFFFFFFFFFFFFFFF AND PUSH1 0xB PUSH1 0x0 SWAP1 SLOAD SWAP1 PUSH2 0x100 EXP SWAP1 DIV PUSH20 0xFFFFFFFFFFFFFFFFFFFFFFFFFFFFFFFFFFFFFFFF AND PUSH20 0xFFFFFFFFFFFFFFFFFFFFFFFFFFFFFFFFFFFFFFFF AND EQ PUSH3 0x24FA JUMPI PUSH1 0xA PUSH1 0x0 SWAP1 SLOAD SWAP1 PUSH2 0x100 EXP SWAP1 DIV PUSH20 0xFFFFFFFFFFFFFFFFFFFFFFFFFFFFFFFFFFFFFFFF AND PUSH20 0xFFFFFFFFFFFFFFFFFFFFFFFFFFFFFFFFFFFFFFFF AND PUSH4 0x902F1AC PUSH1 0x40 MLOAD DUP2 PUSH4 0xFFFFFFFF AND PUSH1 0xE0 SHL DUP2 MSTORE PUSH1 0x4 ADD PUSH1 0x60 PUSH1 0x40 MLOAD DUP1 DUP4 SUB DUP2 DUP7 DUP1 EXTCODESIZE ISZERO DUP1 ISZERO PUSH3 0x23D9 JUMPI PUSH1 0x0 DUP1 REVERT JUMPDEST POP GAS STATICCALL ISZERO DUP1 ISZERO PUSH3 0x23EE JUMPI RETURNDATASIZE PUSH1 0x0 DUP1 RETURNDATACOPY RETURNDATASIZE PUSH1 0x0 REVERT JUMPDEST POP POP POP POP PUSH1 0x40 MLOAD RETURNDATASIZE PUSH1 0x1F NOT PUSH1 0x1F DUP3 ADD AND DUP3 ADD DUP1 PUSH1 0x40 MSTORE POP DUP2 ADD SWAP1 PUSH3 0x2414 SWAP2 SWAP1 PUSH3 0x4834 JUMP JUMPDEST DUP3 PUSH14 0xFFFFFFFFFFFFFFFFFFFFFFFFFFFF AND SWAP3 POP DUP2 PUSH14 0xFFFFFFFFFFFFFFFFFFFFFFFFFFFF AND SWAP2 POP POP PUSH1 0xD PUSH1 0x0 PUSH1 0xE PUSH1 0x0 DUP5 SWAP2 SWAP1 POP SSTORE DUP4 SWAP2 SWAP1 POP SSTORE POP POP PUSH1 0xA PUSH1 0x0 SWAP1 SLOAD SWAP1 PUSH2 0x100 EXP SWAP1 DIV PUSH20 0xFFFFFFFFFFFFFFFFFFFFFFFFFFFFFFFFFFFFFFFF AND PUSH20 0xFFFFFFFFFFFFFFFFFFFFFFFFFFFFFFFFFFFFFFFF AND PUSH4 0x18160DDD PUSH1 0x40 MLOAD DUP2 PUSH4 0xFFFFFFFF AND PUSH1 0xE0 SHL DUP2 MSTORE PUSH1 0x4 ADD PUSH1 0x20 PUSH1 0x40 MLOAD DUP1 DUP4 SUB DUP2 DUP7 DUP1 EXTCODESIZE ISZERO DUP1 ISZERO PUSH3 0x24B8 JUMPI PUSH1 0x0 DUP1 REVERT JUMPDEST POP GAS STATICCALL ISZERO DUP1 ISZERO PUSH3 0x24CD JUMPI RETURNDATASIZE PUSH1 0x0 DUP1 RETURNDATACOPY RETURNDATASIZE PUSH1 0x0 REVERT JUMPDEST POP POP POP POP PUSH1 0x40 MLOAD RETURNDATASIZE PUSH1 0x1F NOT PUSH1 0x1F DUP3 ADD AND DUP3 ADD DUP1 PUSH1 0x40 MSTORE POP DUP2 ADD SWAP1 PUSH3 0x24F3 SWAP2 SWAP1 PUSH3 0x4890 JUMP JUMPDEST PUSH1 0xF DUP2 SWAP1 SSTORE POP JUMPDEST GAS DUP2 PUSH2 0x140 ADD DUP2 DUP2 MSTORE POP POP PUSH1 0x5 PUSH1 0x0 SWAP1 SLOAD SWAP1 PUSH2 0x100 EXP SWAP1 DIV PUSH20 0xFFFFFFFFFFFFFFFFFFFFFFFFFFFFFFFFFFFFFFFF AND PUSH20 0xFFFFFFFFFFFFFFFFFFFFFFFFFFFFFFFFFFFFFFFF AND DUP2 PUSH1 0x0 ADD MLOAD PUSH20 0xFFFFFFFFFFFFFFFFFFFFFFFFFFFFFFFFFFFFFFFF AND EQ ISZERO PUSH3 0x263B JUMPI DUP5 PUSH20 0xFFFFFFFFFFFFFFFFFFFFFFFFFFFFFFFFFFFFFFFF AND PUSH4 0xA9059CBB DUP5 DUP5 PUSH1 0x40 MLOAD DUP4 PUSH4 0xFFFFFFFF AND PUSH1 0xE0 SHL DUP2 MSTORE PUSH1 0x4 ADD PUSH3 0x259D SWAP3 SWAP2 SWAP1 PUSH3 0x5215 JUMP JUMPDEST PUSH1 0x20 PUSH1 0x40 MLOAD DUP1 DUP4 SUB DUP2 PUSH1 0x0 DUP8 DUP1 EXTCODESIZE ISZERO DUP1 ISZERO PUSH3 0x25B8 JUMPI PUSH1 0x0 DUP1 REVERT JUMPDEST POP GAS CALL ISZERO DUP1 ISZERO PUSH3 0x25CD JUMPI RETURNDATASIZE PUSH1 0x0 DUP1 RETURNDATACOPY RETURNDATASIZE PUSH1 0x0 REVERT JUMPDEST POP POP POP POP PUSH1 0x40 MLOAD RETURNDATASIZE PUSH1 0x1F NOT PUSH1 0x1F DUP3 ADD AND DUP3 ADD DUP1 PUSH1 0x40 MSTORE POP DUP2 ADD SWAP1 PUSH3 0x25F3 SWAP2 SWAP1 PUSH3 0x46FC JUMP JUMPDEST PUSH3 0x2635 JUMPI PUSH1 0x40 MLOAD PUSH32 0x8C379A000000000000000000000000000000000000000000000000000000000 DUP2 MSTORE PUSH1 0x4 ADD PUSH3 0x262C SWAP1 PUSH3 0x52CC JUMP JUMPDEST PUSH1 0x40 MLOAD DUP1 SWAP2 SUB SWAP1 REVERT JUMPDEST PUSH3 0x2713 JUMP JUMPDEST DUP5 PUSH20 0xFFFFFFFFFFFFFFFFFFFFFFFFFFFFFFFFFFFFFFFF AND PUSH4 0x23B872DD DUP6 DUP6 DUP6 PUSH1 0x40 MLOAD DUP5 PUSH4 0xFFFFFFFF AND PUSH1 0xE0 SHL DUP2 MSTORE PUSH1 0x4 ADD PUSH3 0x267A SWAP4 SWAP3 SWAP2 SWAP1 PUSH3 0x51D8 JUMP JUMPDEST PUSH1 0x20 PUSH1 0x40 MLOAD DUP1 DUP4 SUB DUP2 PUSH1 0x0 DUP8 DUP1 EXTCODESIZE ISZERO DUP1 ISZERO PUSH3 0x2695 JUMPI PUSH1 0x0 DUP1 REVERT JUMPDEST POP GAS CALL ISZERO DUP1 ISZERO PUSH3 0x26AA JUMPI RETURNDATASIZE PUSH1 0x0 DUP1 RETURNDATACOPY RETURNDATASIZE PUSH1 0x0 REVERT JUMPDEST POP POP POP POP PUSH1 0x40 MLOAD RETURNDATASIZE PUSH1 0x1F NOT PUSH1 0x1F DUP3 ADD AND DUP3 ADD DUP1 PUSH1 0x40 MSTORE POP DUP2 ADD SWAP1 PUSH3 0x26D0 SWAP2 SWAP1 PUSH3 0x46FC JUMP JUMPDEST PUSH3 0x2712 JUMPI PUSH1 0x40 MLOAD PUSH32 0x8C379A000000000000000000000000000000000000000000000000000000000 DUP2 MSTORE PUSH1 0x4 ADD PUSH3 0x2709 SWAP1 PUSH3 0x5266 JUMP JUMPDEST PUSH1 0x40 MLOAD DUP1 SWAP2 SUB SWAP1 REVERT JUMPDEST JUMPDEST GAS DUP2 PUSH2 0x140 ADD DUP2 DUP2 MLOAD PUSH3 0x2728 SWAP2 SWAP1 PUSH3 0x5737 JUMP JUMPDEST SWAP2 POP DUP2 DUP2 MSTORE POP POP DUP5 PUSH20 0xFFFFFFFFFFFFFFFFFFFFFFFFFFFFFFFFFFFFFFFF AND PUSH4 0x70A08231 DUP3 PUSH1 0x0 ADD MLOAD PUSH1 0x40 MLOAD DUP3 PUSH4 0xFFFFFFFF AND PUSH1 0xE0 SHL DUP2 MSTORE PUSH1 0x4 ADD PUSH3 0x276E SWAP2 SWAP1 PUSH3 0x5067 JUMP JUMPDEST PUSH1 0x20 PUSH1 0x40 MLOAD DUP1 DUP4 SUB DUP2 DUP7 DUP1 EXTCODESIZE ISZERO DUP1 ISZERO PUSH3 0x2787 JUMPI PUSH1 0x0 DUP1 REVERT JUMPDEST POP GAS STATICCALL ISZERO DUP1 ISZERO PUSH3 0x279C JUMPI RETURNDATASIZE PUSH1 0x0 DUP1 RETURNDATACOPY RETURNDATASIZE PUSH1 0x0 REVERT JUMPDEST POP POP POP POP PUSH1 0x40 MLOAD RETURNDATASIZE PUSH1 0x1F NOT PUSH1 0x1F DUP3 ADD AND DUP3 ADD DUP1 PUSH1 0x40 MSTORE POP DUP2 ADD SWAP1 PUSH3 0x27C2 SWAP2 SWAP1 PUSH3 0x4890 JUMP JUMPDEST DUP2 PUSH1 0x40 ADD DUP2 DUP2 MSTORE POP POP DUP5 PUSH20 0xFFFFFFFFFFFFFFFFFFFFFFFFFFFFFFFFFFFFFFFF AND PUSH4 0x70A08231 DUP5 PUSH1 0x40 MLOAD DUP3 PUSH4 0xFFFFFFFF AND PUSH1 0xE0 SHL DUP2 MSTORE PUSH1 0x4 ADD PUSH3 0x2806 SWAP2 SWAP1 PUSH3 0x5067 JUMP JUMPDEST PUSH1 0x20 PUSH1 0x40 MLOAD DUP1 DUP4 SUB DUP2 DUP7 DUP1 EXTCODESIZE ISZERO DUP1 ISZERO PUSH3 0x281F JUMPI PUSH1 0x0 DUP1 REVERT JUMPDEST POP GAS STATICCALL ISZERO DUP1 ISZERO PUSH3 0x2834 JUMPI RETURNDATASIZE PUSH1 0x0 DUP1 RETURNDATACOPY RETURNDATASIZE PUSH1 0x0 REVERT JUMPDEST POP POP POP POP PUSH1 0x40 MLOAD RETURNDATASIZE PUSH1 0x1F NOT PUSH1 0x1F DUP3 ADD AND DUP3 ADD DUP1 PUSH1 0x40 MSTORE POP DUP2 ADD SWAP1 PUSH3 0x285A SWAP2 SWAP1 PUSH3 0x4890 JUMP JUMPDEST DUP2 PUSH1 0xA0 ADD DUP2 DUP2 MSTORE POP POP DUP1 PUSH1 0x80 ADD MLOAD DUP2 PUSH1 0xA0 ADD MLOAD SUB DUP2 PUSH1 0xE0 ADD DUP2 DUP2 MSTORE POP POP PUSH1 0x0 DUP1 SLOAD SWAP1 PUSH2 0x100 EXP SWAP1 DIV PUSH20 0xFFFFFFFFFFFFFFFFFFFFFFFFFFFFFFFFFFFFFFFF AND PUSH20 0xFFFFFFFFFFFFFFFFFFFFFFFFFFFFFFFFFFFFFFFF AND PUSH1 0xB PUSH1 0x0 SWAP1 SLOAD SWAP1 PUSH2 0x100 EXP SWAP1 DIV PUSH20 0xFFFFFFFFFFFFFFFFFFFFFFFFFFFFFFFFFFFFFFFF AND PUSH20 0xFFFFFFFFFFFFFFFFFFFFFFFFFFFFFFFFFFFFFFFF AND EQ PUSH3 0x2BA2 JUMPI PUSH1 0xF SLOAD PUSH1 0xA PUSH1 0x0 SWAP1 SLOAD SWAP1 PUSH2 0x100 EXP SWAP1 DIV PUSH20 0xFFFFFFFFFFFFFFFFFFFFFFFFFFFFFFFFFFFFFFFF AND PUSH20 0xFFFFFFFFFFFFFFFFFFFFFFFFFFFFFFFFFFFFFFFF AND PUSH4 0x18160DDD PUSH1 0x40 MLOAD DUP2 PUSH4 0xFFFFFFFF AND PUSH1 0xE0 SHL DUP2 MSTORE PUSH1 0x4 ADD PUSH1 0x20 PUSH1 0x40 MLOAD DUP1 DUP4 SUB DUP2 DUP7 DUP1 EXTCODESIZE ISZERO DUP1 ISZERO PUSH3 0x2959 JUMPI PUSH1 0x0 DUP1 REVERT JUMPDEST POP GAS STATICCALL ISZERO DUP1 ISZERO PUSH3 0x296E JUMPI RETURNDATASIZE PUSH1 0x0 DUP1 RETURNDATACOPY RETURNDATASIZE PUSH1 0x0 REVERT JUMPDEST POP POP POP POP PUSH1 0x40 MLOAD RETURNDATASIZE PUSH1 0x1F NOT PUSH1 0x1F DUP3 ADD AND DUP3 ADD DUP1 PUSH1 0x40 MSTORE POP DUP2 ADD SWAP1 PUSH3 0x2994 SWAP2 SWAP1 PUSH3 0x4890 JUMP JUMPDEST GT DUP2 PUSH2 0x180 ADD SWAP1 ISZERO ISZERO SWAP1 DUP2 ISZERO ISZERO DUP2 MSTORE POP POP PUSH1 0x0 DUP1 PUSH1 0xA PUSH1 0x0 SWAP1 SLOAD SWAP1 PUSH2 0x100 EXP SWAP1 DIV PUSH20 0xFFFFFFFFFFFFFFFFFFFFFFFFFFFFFFFFFFFFFFFF AND PUSH20 0xFFFFFFFFFFFFFFFFFFFFFFFFFFFFFFFFFFFFFFFF AND PUSH4 0x902F1AC PUSH1 0x40 MLOAD DUP2 PUSH4 0xFFFFFFFF AND PUSH1 0xE0 SHL DUP2 MSTORE PUSH1 0x4 ADD PUSH1 0x60 PUSH1 0x40 MLOAD DUP1 DUP4 SUB DUP2 DUP7 DUP1 EXTCODESIZE ISZERO DUP1 ISZERO PUSH3 0x2A11 JUMPI PUSH1 0x0 DUP1 REVERT JUMPDEST POP GAS STATICCALL ISZERO DUP1 ISZERO PUSH3 0x2A26 JUMPI RETURNDATASIZE PUSH1 0x0 DUP1 RETURNDATACOPY RETURNDATASIZE PUSH1 0x0 REVERT JUMPDEST POP POP POP POP PUSH1 0x40 MLOAD RETURNDATASIZE PUSH1 0x1F NOT PUSH1 0x1F DUP3 ADD AND DUP3 ADD DUP1 PUSH1 0x40 MSTORE POP DUP2 ADD SWAP1 PUSH3 0x2A4C SWAP2 SWAP1 PUSH3 0x4834 JUMP JUMPDEST POP PUSH14 0xFFFFFFFFFFFFFFFFFFFFFFFFFFFF AND SWAP2 POP PUSH14 0xFFFFFFFFFFFFFFFFFFFFFFFFFFFF AND SWAP2 POP PUSH1 0x0 DUP8 PUSH20 0xFFFFFFFFFFFFFFFFFFFFFFFFFFFFFFFFFFFFFFFF AND PUSH1 0xC PUSH1 0x0 SWAP1 SLOAD SWAP1 PUSH2 0x100 EXP SWAP1 DIV PUSH20 0xFFFFFFFFFFFFFFFFFFFFFFFFFFFFFFFFFFFFFFFF AND PUSH20 0xFFFFFFFFFFFFFFFFFFFFFFFFFFFFFFFFFFFFFFFF AND EQ ISZERO PUSH3 0x2AFD JUMPI DUP3 SWAP1 POP PUSH1 0xE SLOAD DUP3 LT DUP5 PUSH2 0x1A0 ADD SWAP1 ISZERO ISZERO SWAP1 DUP2 ISZERO ISZERO DUP2 MSTORE POP POP PUSH1 0xD SLOAD DUP4 LT DUP5 PUSH2 0x1C0 ADD SWAP1 ISZERO ISZERO SWAP1 DUP2 ISZERO ISZERO DUP2 MSTORE POP POP PUSH3 0x2B2B JUMP JUMPDEST DUP2 SWAP1 POP PUSH1 0xD SLOAD DUP4 LT DUP5 PUSH2 0x1A0 ADD SWAP1 ISZERO ISZERO SWAP1 DUP2 ISZERO ISZERO DUP2 MSTORE POP POP PUSH1 0xE SLOAD DUP3 LT DUP5 PUSH2 0x1C0 ADD SWAP1 ISZERO ISZERO SWAP1 DUP2 ISZERO ISZERO DUP2 MSTORE POP POP JUMPDEST PUSH1 0xA PUSH1 0x0 SWAP1 SLOAD SWAP1 PUSH2 0x100 EXP SWAP1 DIV PUSH20 0xFFFFFFFFFFFFFFFFFFFFFFFFFFFFFFFFFFFFFFFF AND PUSH20 0xFFFFFFFFFFFFFFFFFFFFFFFFFFFFFFFFFFFFFFFF AND DUP7 PUSH20 0xFFFFFFFFFFFFFFFFFFFFFFFFFFFFFFFFFFFFFFFF AND EQ ISZERO PUSH3 0x2B9E JUMPI DUP1 DUP5 PUSH1 0xA0 ADD MLOAD PUSH3 0x2B94 SWAP2 SWAP1 PUSH3 0x5737 JUMP JUMPDEST DUP5 PUSH1 0xE0 ADD DUP2 DUP2 MSTORE POP POP JUMPDEST POP POP POP JUMPDEST DUP1 PUSH1 0x40 ADD MLOAD DUP2 PUSH1 0x20 ADD MLOAD SUB DUP2 PUSH2 0x100 ADD DUP2 DUP2 MSTORE POP POP DUP1 PUSH2 0x100 ADD MLOAD DUP3 SUB DUP2 PUSH2 0x120 ADD DUP2 DUP2 MSTORE POP POP PUSH3 0x2BDE DUP2 PUSH1 0xE0 ADD MLOAD DUP3 PUSH2 0x100 ADD MLOAD PUSH3 0x3BF7 JUMP JUMPDEST DUP2 PUSH2 0x160 ADD DUP2 DUP2 MSTORE POP POP SWAP5 SWAP4 POP POP POP POP JUMP JUMPDEST PUSH1 0x7 PUSH1 0x0 SWAP1 SLOAD SWAP1 PUSH2 0x100 EXP SWAP1 DIV PUSH20 0xFFFFFFFFFFFFFFFFFFFFFFFFFFFFFFFFFFFFFFFF AND PUSH20 0xFFFFFFFFFFFFFFFFFFFFFFFFFFFFFFFFFFFFFFFF AND DUP2 PUSH20 0xFFFFFFFFFFFFFFFFFFFFFFFFFFFFFFFFFFFFFFFF AND EQ ISZERO DUP1 ISZERO PUSH3 0x2CFF JUMPI POP PUSH1 0x0 DUP2 PUSH20 0xFFFFFFFFFFFFFFFFFFFFFFFFFFFFFFFFFFFFFFFF AND PUSH4 0x70A08231 PUSH1 0x5 PUSH1 0x0 SWAP1 SLOAD SWAP1 PUSH2 0x100 EXP SWAP1 DIV PUSH20 0xFFFFFFFFFFFFFFFFFFFFFFFFFFFFFFFFFFFFFFFF AND PUSH1 0x40 MLOAD DUP3 PUSH4 0xFFFFFFFF AND PUSH1 0xE0 SHL DUP2 MSTORE PUSH1 0x4 ADD PUSH3 0x2CA9 SWAP2 SWAP1 PUSH3 0x5067 JUMP JUMPDEST PUSH1 0x20 PUSH1 0x40 MLOAD DUP1 DUP4 SUB DUP2 DUP7 DUP1 EXTCODESIZE ISZERO DUP1 ISZERO PUSH3 0x2CC2 JUMPI PUSH1 0x0 DUP1 REVERT JUMPDEST POP GAS STATICCALL ISZERO DUP1 ISZERO PUSH3 0x2CD7 JUMPI RETURNDATASIZE PUSH1 0x0 DUP1 RETURNDATACOPY RETURNDATASIZE PUSH1 0x0 REVERT JUMPDEST POP POP POP POP PUSH1 0x40 MLOAD RETURNDATASIZE PUSH1 0x1F NOT PUSH1 0x1F DUP3 ADD AND DUP3 ADD DUP1 PUSH1 0x40 MSTORE POP DUP2 ADD SWAP1 PUSH3 0x2CFD SWAP2 SWAP1 PUSH3 0x4890 JUMP JUMPDEST GT JUMPDEST ISZERO PUSH3 0x30DB JUMPI PUSH1 0x9 PUSH1 0x0 SWAP1 SLOAD SWAP1 PUSH2 0x100 EXP SWAP1 DIV PUSH20 0xFFFFFFFFFFFFFFFFFFFFFFFFFFFFFFFFFFFFFFFF AND PUSH20 0xFFFFFFFFFFFFFFFFFFFFFFFFFFFFFFFFFFFFFFFF AND PUSH4 0xE6A43905 DUP3 PUSH1 0x7 PUSH1 0x0 SWAP1 SLOAD SWAP1 PUSH2 0x100 EXP SWAP1 DIV PUSH20 0xFFFFFFFFFFFFFFFFFFFFFFFFFFFFFFFFFFFFFFFF AND PUSH1 0x40 MLOAD DUP4 PUSH4 0xFFFFFFFF AND PUSH1 0xE0 SHL DUP2 MSTORE PUSH1 0x4 ADD PUSH3 0x2D86 SWAP3 SWAP2 SWAP1 PUSH3 0x5084 JUMP JUMPDEST PUSH1 0x20 PUSH1 0x40 MLOAD DUP1 DUP4 SUB DUP2 DUP7 DUP1 EXTCODESIZE ISZERO DUP1 ISZERO PUSH3 0x2D9F JUMPI PUSH1 0x0 DUP1 REVERT JUMPDEST POP GAS STATICCALL ISZERO DUP1 ISZERO PUSH3 0x2DB4 JUMPI RETURNDATASIZE PUSH1 0x0 DUP1 RETURNDATACOPY RETURNDATASIZE PUSH1 0x0 REVERT JUMPDEST POP POP POP POP PUSH1 0x40 MLOAD RETURNDATASIZE PUSH1 0x1F NOT PUSH1 0x1F DUP3 ADD AND DUP3 ADD DUP1 PUSH1 0x40 MSTORE POP DUP2 ADD SWAP1 PUSH3 0x2DDA SWAP2 SWAP1 PUSH3 0x4516 JUMP JUMPDEST PUSH1 0xB PUSH1 0x0 PUSH2 0x100 EXP DUP2 SLOAD DUP2 PUSH20 0xFFFFFFFFFFFFFFFFFFFFFFFFFFFFFFFFFFFFFFFF MUL NOT AND SWAP1 DUP4 PUSH20 0xFFFFFFFFFFFFFFFFFFFFFFFFFFFFFFFFFFFFFFFF AND MUL OR SWAP1 SSTORE POP PUSH1 0xB PUSH1 0x0 SWAP1 SLOAD SWAP1 PUSH2 0x100 EXP SWAP1 DIV PUSH20 0xFFFFFFFFFFFFFFFFFFFFFFFFFFFFFFFFFFFFFFFF AND PUSH1 0xA PUSH1 0x0 PUSH2 0x100 EXP DUP2 SLOAD DUP2 PUSH20 0xFFFFFFFFFFFFFFFFFFFFFFFFFFFFFFFFFFFFFFFF MUL NOT AND SWAP1 DUP4 PUSH20 0xFFFFFFFFFFFFFFFFFFFFFFFFFFFFFFFFFFFFFFFF AND MUL OR SWAP1 SSTORE POP PUSH1 0xA PUSH1 0x0 SWAP1 SLOAD SWAP1 PUSH2 0x100 EXP SWAP1 DIV PUSH20 0xFFFFFFFFFFFFFFFFFFFFFFFFFFFFFFFFFFFFFFFF AND PUSH20 0xFFFFFFFFFFFFFFFFFFFFFFFFFFFFFFFFFFFFFFFF AND PUSH4 0xDFE1681 PUSH1 0x40 MLOAD DUP2 PUSH4 0xFFFFFFFF AND PUSH1 0xE0 SHL DUP2 MSTORE PUSH1 0x4 ADD PUSH1 0x20 PUSH1 0x40 MLOAD DUP1 DUP4 SUB DUP2 DUP7 DUP1 EXTCODESIZE ISZERO DUP1 ISZERO PUSH3 0x2EE6 JUMPI PUSH1 0x0 DUP1 REVERT JUMPDEST POP GAS STATICCALL ISZERO DUP1 ISZERO PUSH3 0x2EFB JUMPI RETURNDATASIZE PUSH1 0x0 DUP1 RETURNDATACOPY RETURNDATASIZE PUSH1 0x0 REVERT JUMPDEST POP POP POP POP PUSH1 0x40 MLOAD RETURNDATASIZE PUSH1 0x1F NOT PUSH1 0x1F DUP3 ADD AND DUP3 ADD DUP1 PUSH1 0x40 MSTORE POP DUP2 ADD SWAP1 PUSH3 0x2F21 SWAP2 SWAP1 PUSH3 0x4516 JUMP JUMPDEST PUSH1 0xC PUSH1 0x0 PUSH2 0x100 EXP DUP2 SLOAD DUP2 PUSH20 0xFFFFFFFFFFFFFFFFFFFFFFFFFFFFFFFFFFFFFFFF MUL NOT AND SWAP1 DUP4 PUSH20 0xFFFFFFFFFFFFFFFFFFFFFFFFFFFFFFFFFFFFFFFF AND MUL OR SWAP1 SSTORE POP ADDRESS PUSH20 0xFFFFFFFFFFFFFFFFFFFFFFFFFFFFFFFFFFFFFFFF AND PUSH4 0xA64E3DD7 DUP3 PUSH1 0x7 PUSH1 0x0 SWAP1 SLOAD SWAP1 PUSH2 0x100 EXP SWAP1 DIV PUSH20 0xFFFFFFFFFFFFFFFFFFFFFFFFFFFFFFFFFFFFFFFF AND ADDRESS ADDRESS DUP7 PUSH20 0xFFFFFFFFFFFFFFFFFFFFFFFFFFFFFFFFFFFFFFFF AND PUSH4 0x70A08231 PUSH1 0x5 PUSH1 0x0 SWAP1 SLOAD SWAP1 PUSH2 0x100 EXP SWAP1 DIV PUSH20 0xFFFFFFFFFFFFFFFFFFFFFFFFFFFFFFFFFFFFFFFF AND PUSH1 0x40 MLOAD DUP3 PUSH4 0xFFFFFFFF AND PUSH1 0xE0 SHL DUP2 MSTORE PUSH1 0x4 ADD PUSH3 0x3000 SWAP2 SWAP1 PUSH3 0x5067 JUMP JUMPDEST PUSH1 0x20 PUSH1 0x40 MLOAD DUP1 DUP4 SUB DUP2 DUP7 DUP1 EXTCODESIZE ISZERO DUP1 ISZERO PUSH3 0x3019 JUMPI PUSH1 0x0 DUP1 REVERT JUMPDEST POP GAS STATICCALL ISZERO DUP1 ISZERO PUSH3 0x302E JUMPI RETURNDATASIZE PUSH1 0x0 DUP1 RETURNDATACOPY RETURNDATASIZE PUSH1 0x0 REVERT JUMPDEST POP POP POP POP PUSH1 0x40 MLOAD RETURNDATASIZE PUSH1 0x1F NOT PUSH1 0x1F DUP3 ADD AND DUP3 ADD DUP1 PUSH1 0x40 MSTORE POP DUP2 ADD SWAP1 PUSH3 0x3054 SWAP2 SWAP1 PUSH3 0x4890 JUMP JUMPDEST PUSH1 0x0 PUSH1 0x40 MLOAD DUP8 PUSH4 0xFFFFFFFF AND PUSH1 0xE0 SHL DUP2 MSTORE PUSH1 0x4 ADD PUSH3 0x3079 SWAP7 SWAP6 SWAP5 SWAP4 SWAP3 SWAP2 SWAP1 PUSH3 0x511E JUMP JUMPDEST PUSH1 0x0 PUSH1 0x40 MLOAD DUP1 DUP4 SUB DUP2 PUSH1 0x0 DUP8 DUP1 EXTCODESIZE ISZERO DUP1 ISZERO PUSH3 0x3094 JUMPI PUSH1 0x0 DUP1 REVERT JUMPDEST POP GAS CALL SWAP3 POP POP POP DUP1 ISZERO PUSH3 0x30CD JUMPI POP PUSH1 0x40 MLOAD RETURNDATASIZE PUSH1 0x0 DUP3 RETURNDATACOPY RETURNDATASIZE PUSH1 0x1F NOT PUSH1 0x1F DUP3 ADD AND DUP3 ADD DUP1 PUSH1 0x40 MSTORE POP DUP2 ADD SWAP1 PUSH3 0x30CA SWAP2 SWAP1 PUSH3 0x4792 JUMP JUMPDEST PUSH1 0x1 JUMPDEST PUSH3 0x30D8 JUMPI PUSH3 0x30DA JUMP JUMPDEST POP JUMPDEST JUMPDEST PUSH1 0x6 PUSH1 0x0 PUSH2 0x100 EXP DUP2 SLOAD SWAP1 PUSH20 0xFFFFFFFFFFFFFFFFFFFFFFFFFFFFFFFFFFFFFFFF MUL NOT AND SWAP1 SSTORE PUSH1 0x7 PUSH1 0x0 PUSH2 0x100 EXP DUP2 SLOAD SWAP1 PUSH20 0xFFFFFFFFFFFFFFFFFFFFFFFFFFFFFFFFFFFFFFFF MUL NOT AND SWAP1 SSTORE PUSH1 0x8 PUSH1 0x0 PUSH2 0x100 EXP DUP2 SLOAD SWAP1 PUSH20 0xFFFFFFFFFFFFFFFFFFFFFFFFFFFFFFFFFFFFFFFF MUL NOT AND SWAP1 SSTORE PUSH1 0x9 PUSH1 0x0 PUSH2 0x100 EXP DUP2 SLOAD SWAP1 PUSH20 0xFFFFFFFFFFFFFFFFFFFFFFFFFFFFFFFFFFFFFFFF MUL NOT AND SWAP1 SSTORE PUSH1 0xA PUSH1 0x0 PUSH2 0x100 EXP DUP2 SLOAD SWAP1 PUSH20 0xFFFFFFFFFFFFFFFFFFFFFFFFFFFFFFFFFFFFFFFF MUL NOT AND SWAP1 SSTORE PUSH1 0xB PUSH1 0x0 PUSH2 0x100 EXP DUP2 SLOAD SWAP1 PUSH20 0xFFFFFFFFFFFFFFFFFFFFFFFFFFFFFFFFFFFFFFFF MUL NOT AND SWAP1 SSTORE PUSH1 0xC PUSH1 0x0 PUSH2 0x100 EXP DUP2 SLOAD SWAP1 PUSH20 0xFFFFFFFFFFFFFFFFFFFFFFFFFFFFFFFFFFFFFFFF MUL NOT AND SWAP1 SSTORE PUSH1 0xD PUSH1 0x0 SWAP1 SSTORE PUSH1 0xE PUSH1 0x0 SWAP1 SSTORE PUSH1 0xF PUSH1 0x0 SWAP1 SSTORE POP JUMP JUMPDEST PUSH3 0x31FD PUSH3 0x3CF3 JUMP JUMPDEST PUSH1 0x0 DUP1 DUP6 EQ PUSH3 0x3230 JUMPI PUSH1 0xC PUSH1 0x0 SWAP1 SLOAD SWAP1 PUSH2 0x100 EXP SWAP1 DIV PUSH20 0xFFFFFFFFFFFFFFFFFFFFFFFFFFFFFFFFFFFFFFFF AND PUSH3 0x32D5 JUMP JUMPDEST PUSH1 0xA PUSH1 0x0 SWAP1 SLOAD SWAP1 PUSH2 0x100 EXP SWAP1 DIV PUSH20 0xFFFFFFFFFFFFFFFFFFFFFFFFFFFFFFFFFFFFFFFF AND PUSH20 0xFFFFFFFFFFFFFFFFFFFFFFFFFFFFFFFFFFFFFFFF AND PUSH4 0xD21220A7 PUSH1 0x40 MLOAD DUP2 PUSH4 0xFFFFFFFF AND PUSH1 0xE0 SHL DUP2 MSTORE PUSH1 0x4 ADD PUSH1 0x20 PUSH1 0x40 MLOAD DUP1 DUP4 SUB DUP2 DUP7 DUP1 EXTCODESIZE ISZERO DUP1 ISZERO PUSH3 0x3299 JUMPI PUSH1 0x0 DUP1 REVERT JUMPDEST POP GAS STATICCALL ISZERO DUP1 ISZERO PUSH3 0x32AE JUMPI RETURNDATASIZE PUSH1 0x0 DUP1 RETURNDATACOPY RETURNDATASIZE PUSH1 0x0 REVERT JUMPDEST POP POP POP POP PUSH1 0x40 MLOAD RETURNDATASIZE PUSH1 0x1F NOT PUSH1 0x1F DUP3 ADD AND DUP3 ADD DUP1 PUSH1 0x40 MSTORE POP DUP2 ADD SWAP1 PUSH3 0x32D4 SWAP2 SWAP1 PUSH3 0x4516 JUMP JUMPDEST JUMPDEST SWAP1 POP PUSH1 0x0 DUP6 EQ PUSH3 0x32E7 JUMPI DUP5 PUSH3 0x32E9 JUMP JUMPDEST DUP4 JUMPDEST DUP3 PUSH1 0xC0 ADD DUP2 DUP2 MSTORE POP POP PUSH1 0xB PUSH1 0x0 SWAP1 SLOAD SWAP1 PUSH2 0x100 EXP SWAP1 DIV PUSH20 0xFFFFFFFFFFFFFFFFFFFFFFFFFFFFFFFFFFFFFFFF AND DUP3 PUSH1 0x0 ADD SWAP1 PUSH20 0xFFFFFFFFFFFFFFFFFFFFFFFFFFFFFFFFFFFFFFFF AND SWAP1 DUP2 PUSH20 0xFFFFFFFFFFFFFFFFFFFFFFFFFFFFFFFFFFFFFFFF AND DUP2 MSTORE POP POP DUP1 PUSH20 0xFFFFFFFFFFFFFFFFFFFFFFFFFFFFFFFFFFFFFFFF AND PUSH4 0x70A08231 DUP4 PUSH1 0x0 ADD MLOAD PUSH1 0x40 MLOAD DUP3 PUSH4 0xFFFFFFFF AND PUSH1 0xE0 SHL DUP2 MSTORE PUSH1 0x4 ADD PUSH3 0x338B SWAP2 SWAP1 PUSH3 0x5067 JUMP JUMPDEST PUSH1 0x20 PUSH1 0x40 MLOAD DUP1 DUP4 SUB DUP2 DUP7 DUP1 EXTCODESIZE ISZERO DUP1 ISZERO PUSH3 0x33A4 JUMPI PUSH1 0x0 DUP1 REVERT JUMPDEST POP GAS STATICCALL ISZERO DUP1 ISZERO PUSH3 0x33B9 JUMPI RETURNDATASIZE PUSH1 0x0 DUP1 RETURNDATACOPY RETURNDATASIZE PUSH1 0x0 REVERT JUMPDEST POP POP POP POP PUSH1 0x40 MLOAD RETURNDATASIZE PUSH1 0x1F NOT PUSH1 0x1F DUP3 ADD AND DUP3 ADD DUP1 PUSH1 0x40 MSTORE POP DUP2 ADD SWAP1 PUSH3 0x33DF SWAP2 SWAP1 PUSH3 0x4890 JUMP JUMPDEST DUP3 PUSH1 0x20 ADD DUP2 DUP2 MSTORE POP POP DUP3 DUP3 PUSH1 0x60 ADD SWAP1 PUSH20 0xFFFFFFFFFFFFFFFFFFFFFFFFFFFFFFFFFFFFFFFF AND SWAP1 DUP2 PUSH20 0xFFFFFFFFFFFFFFFFFFFFFFFFFFFFFFFFFFFFFFFF AND DUP2 MSTORE POP POP DUP1 PUSH20 0xFFFFFFFFFFFFFFFFFFFFFFFFFFFFFFFFFFFFFFFF AND PUSH4 0x70A08231 DUP5 PUSH1 0x40 MLOAD DUP3 PUSH4 0xFFFFFFFF AND PUSH1 0xE0 SHL DUP2 MSTORE PUSH1 0x4 ADD PUSH3 0x345B SWAP2 SWAP1 PUSH3 0x5067 JUMP JUMPDEST PUSH1 0x20 PUSH1 0x40 MLOAD DUP1 DUP4 SUB DUP2 DUP7 DUP1 EXTCODESIZE ISZERO DUP1 ISZERO PUSH3 0x3474 JUMPI PUSH1 0x0 DUP1 REVERT JUMPDEST POP GAS STATICCALL ISZERO DUP1 ISZERO PUSH3 0x3489 JUMPI RETURNDATASIZE PUSH1 0x0 DUP1 RETURNDATACOPY RETURNDATASIZE PUSH1 0x0 REVERT JUMPDEST POP POP POP POP PUSH1 0x40 MLOAD RETURNDATASIZE PUSH1 0x1F NOT PUSH1 0x1F DUP3 ADD AND DUP3 ADD DUP1 PUSH1 0x40 MSTORE POP DUP2 ADD SWAP1 PUSH3 0x34AF SWAP2 SWAP1 PUSH3 0x4890 JUMP JUMPDEST DUP3 PUSH1 0x80 ADD DUP2 DUP2 MSTORE POP POP GAS DUP3 PUSH2 0x140 ADD DUP2 DUP2 MSTORE POP POP PUSH1 0xA PUSH1 0x0 SWAP1 SLOAD SWAP1 PUSH2 0x100 EXP SWAP1 DIV PUSH20 0xFFFFFFFFFFFFFFFFFFFFFFFFFFFFFFFFFFFFFFFF AND PUSH20 0xFFFFFFFFFFFFFFFFFFFFFFFFFFFFFFFFFFFFFFFF AND PUSH4 0x22C0D9F PUSH1 0xD SLOAD PUSH1 0xE SLOAD DUP7 PUSH1 0x0 PUSH8 0xFFFFFFFFFFFFFFFF DUP2 GT ISZERO PUSH3 0x3526 JUMPI PUSH3 0x3525 PUSH3 0x594B JUMP JUMPDEST JUMPDEST PUSH1 0x40 MLOAD SWAP1 DUP1 DUP3 MSTORE DUP1 PUSH1 0x1F ADD PUSH1 0x1F NOT AND PUSH1 0x20 ADD DUP3 ADD PUSH1 0x40 MSTORE DUP1 ISZERO PUSH3 0x3559 JUMPI DUP2 PUSH1 0x20 ADD PUSH1 0x1 DUP3 MUL DUP1 CALLDATASIZE DUP4 CALLDATACOPY DUP1 DUP3 ADD SWAP2 POP POP SWAP1 POP JUMPDEST POP PUSH1 0x40 MLOAD DUP6 PUSH4 0xFFFFFFFF AND PUSH1 0xE0 SHL DUP2 MSTORE PUSH1 0x4 ADD PUSH3 0x357B SWAP5 SWAP4 SWAP3 SWAP2 SWAP1 PUSH3 0x5387 JUMP JUMPDEST PUSH1 0x0 PUSH1 0x40 MLOAD DUP1 DUP4 SUB DUP2 PUSH1 0x0 DUP8 DUP1 EXTCODESIZE ISZERO DUP1 ISZERO PUSH3 0x3596 JUMPI PUSH1 0x0 DUP1 REVERT JUMPDEST POP GAS CALL ISZERO DUP1 ISZERO PUSH3 0x35AB JUMPI RETURNDATASIZE PUSH1 0x0 DUP1 RETURNDATACOPY RETURNDATASIZE PUSH1 0x0 REVERT JUMPDEST POP POP POP POP GAS DUP3 PUSH2 0x140 ADD DUP2 DUP2 MLOAD PUSH3 0x35C4 SWAP2 SWAP1 PUSH3 0x5737 JUMP JUMPDEST SWAP2 POP DUP2 DUP2 MSTORE POP POP DUP1 PUSH20 0xFFFFFFFFFFFFFFFFFFFFFFFFFFFFFFFFFFFFFFFF AND PUSH4 0x70A08231 DUP4 PUSH1 0x0 ADD MLOAD PUSH1 0x40 MLOAD DUP3 PUSH4 0xFFFFFFFF AND PUSH1 0xE0 SHL DUP2 MSTORE PUSH1 0x4 ADD PUSH3 0x360A SWAP2 SWAP1 PUSH3 0x5067 JUMP JUMPDEST PUSH1 0x20 PUSH1 0x40 MLOAD DUP1 DUP4 SUB DUP2 DUP7 DUP1 EXTCODESIZE ISZERO DUP1 ISZERO PUSH3 0x3623 JUMPI PUSH1 0x0 DUP1 REVERT JUMPDEST POP GAS STATICCALL ISZERO DUP1 ISZERO PUSH3 0x3638 JUMPI RETURNDATASIZE PUSH1 0x0 DUP1 RETURNDATACOPY RETURNDATASIZE PUSH1 0x0 REVERT JUMPDEST POP POP POP POP PUSH1 0x40 MLOAD RETURNDATASIZE PUSH1 0x1F NOT PUSH1 0x1F DUP3 ADD AND DUP3 ADD DUP1 PUSH1 0x40 MSTORE POP DUP2 ADD SWAP1 PUSH3 0x365E SWAP2 SWAP1 PUSH3 0x4890 JUMP JUMPDEST DUP3 PUSH1 0x40 ADD DUP2 DUP2 MSTORE POP POP DUP1 PUSH20 0xFFFFFFFFFFFFFFFFFFFFFFFFFFFFFFFFFFFFFFFF AND PUSH4 0x70A08231 DUP5 PUSH1 0x40 MLOAD DUP3 PUSH4 0xFFFFFFFF AND PUSH1 0xE0 SHL DUP2 MSTORE PUSH1 0x4 ADD PUSH3 0x36A2 SWAP2 SWAP1 PUSH3 0x5067 JUMP JUMPDEST PUSH1 0x20 PUSH1 0x40 MLOAD DUP1 DUP4 SUB DUP2 DUP7 DUP1 EXTCODESIZE ISZERO DUP1 ISZERO PUSH3 0x36BB JUMPI PUSH1 0x0 DUP1 REVERT JUMPDEST POP GAS STATICCALL ISZERO DUP1 ISZERO PUSH3 0x36D0 JUMPI RETURNDATASIZE PUSH1 0x0 DUP1 RETURNDATACOPY RETURNDATASIZE PUSH1 0x0 REVERT JUMPDEST POP POP POP POP PUSH1 0x40 MLOAD RETURNDATASIZE PUSH1 0x1F NOT PUSH1 0x1F DUP3 ADD AND DUP3 ADD DUP1 PUSH1 0x40 MSTORE POP DUP2 ADD SWAP1 PUSH3 0x36F6 SWAP2 SWAP1 PUSH3 0x4890 JUMP JUMPDEST DUP3 PUSH1 0xA0 ADD DUP2 DUP2 MSTORE POP POP DUP2 PUSH1 0x80 ADD MLOAD DUP3 PUSH1 0xA0 ADD MLOAD SUB DUP3 PUSH1 0xE0 ADD DUP2 DUP2 MSTORE POP POP DUP2 PUSH1 0x40 ADD MLOAD DUP3 PUSH1 0x20 ADD MLOAD SUB DUP3 PUSH2 0x100 ADD DUP2 DUP2 MSTORE POP POP DUP2 PUSH2 0x100 ADD MLOAD DUP3 PUSH1 0xC0 ADD MLOAD SUB DUP3 PUSH2 0x120 ADD DUP2 DUP2 MSTORE POP POP PUSH3 0x3752 DUP3 PUSH1 0xE0 ADD MLOAD DUP4 PUSH1 0xC0 ADD MLOAD PUSH3 0x3BF7 JUMP JUMPDEST DUP3 PUSH2 0x160 ADD DUP2 DUP2 MSTORE POP POP POP SWAP4 SWAP3 POP POP POP JUMP JUMPDEST PUSH1 0x0 DUP1 DUP4 DUP4 PUSH1 0x40 MLOAD PUSH3 0x3777 SWAP1 PUSH3 0x3D9B JUMP JUMPDEST PUSH3 0x3784 SWAP3 SWAP2 SWAP1 PUSH3 0x5084 JUMP JUMPDEST PUSH1 0x40 MLOAD DUP1 SWAP2 SUB SWAP1 PUSH1 0x0 CREATE DUP1 ISZERO DUP1 ISZERO PUSH3 0x37A1 JUMPI RETURNDATASIZE PUSH1 0x0 DUP1 RETURNDATACOPY RETURNDATASIZE PUSH1 0x0 REVERT JUMPDEST POP SWAP1 POP DUP1 PUSH20 0xFFFFFFFFFFFFFFFFFFFFFFFFFFFFFFFFFFFFFFFF AND PUSH4 0x41C0E1B5 PUSH1 0x40 MLOAD DUP2 PUSH4 0xFFFFFFFF AND PUSH1 0xE0 SHL DUP2 MSTORE PUSH1 0x4 ADD PUSH1 0x0 PUSH1 0x40 MLOAD DUP1 DUP4 SUB DUP2 PUSH1 0x0 DUP8 DUP1 EXTCODESIZE ISZERO DUP1 ISZERO PUSH3 0x37ED JUMPI PUSH1 0x0 DUP1 REVERT JUMPDEST POP GAS CALL ISZERO DUP1 ISZERO PUSH3 0x3802 JUMPI RETURNDATASIZE PUSH1 0x0 DUP1 RETURNDATACOPY RETURNDATASIZE PUSH1 0x0 REVERT JUMPDEST POP POP POP POP DUP1 SWAP2 POP POP SWAP3 SWAP2 POP POP JUMP JUMPDEST PUSH1 0x0 PUSH1 0x3 SLOAD PUSH1 0x4 SLOAD NUMBER TIMESTAMP PUSH1 0x40 MLOAD PUSH1 0x20 ADD PUSH3 0x382F SWAP5 SWAP4 SWAP3 SWAP2 SWAP1 PUSH3 0x53DB JUMP JUMPDEST PUSH1 0x40 MLOAD PUSH1 0x20 DUP2 DUP4 SUB SUB DUP2 MSTORE SWAP1 PUSH1 0x40 MSTORE DUP1 MLOAD SWAP1 PUSH1 0x20 ADD KECCAK256 PUSH1 0x0 SHR SWAP1 POP SWAP1 JUMP JUMPDEST PUSH1 0x0 PUSH1 0x5 PUSH1 0x0 SWAP1 SLOAD SWAP1 PUSH2 0x100 EXP SWAP1 DIV PUSH20 0xFFFFFFFFFFFFFFFFFFFFFFFFFFFFFFFFFFFFFFFF AND PUSH20 0xFFFFFFFFFFFFFFFFFFFFFFFFFFFFFFFFFFFFFFFF AND DUP4 PUSH20 0xFFFFFFFFFFFFFFFFFFFFFFFFFFFFFFFFFFFFFFFF AND EQ ISZERO PUSH3 0x38D1 JUMPI PUSH1 0x5 PUSH1 0x0 SWAP1 SLOAD SWAP1 PUSH2 0x100 EXP SWAP1 DIV PUSH20 0xFFFFFFFFFFFFFFFFFFFFFFFFFFFFFFFFFFFFFFFF AND SWAP1 POP PUSH3 0x3BF0 JUMP JUMPDEST DUP2 DUP5 PUSH20 0xFFFFFFFFFFFFFFFFFFFFFFFFFFFFFFFFFFFFFFFF AND PUSH4 0xDD62ED3E DUP6 PUSH1 0x5 PUSH1 0x0 SWAP1 SLOAD SWAP1 PUSH2 0x100 EXP SWAP1 DIV PUSH20 0xFFFFFFFFFFFFFFFFFFFFFFFFFFFFFFFFFFFFFFFF AND PUSH1 0x40 MLOAD DUP4 PUSH4 0xFFFFFFFF AND PUSH1 0xE0 SHL DUP2 MSTORE PUSH1 0x4 ADD PUSH3 0x3931 SWAP3 SWAP2 SWAP1 PUSH3 0x5084 JUMP JUMPDEST PUSH1 0x20 PUSH1 0x40 MLOAD DUP1 DUP4 SUB DUP2 DUP7 DUP1 EXTCODESIZE ISZERO DUP1 ISZERO PUSH3 0x394A JUMPI PUSH1 0x0 DUP1 REVERT JUMPDEST POP GAS STATICCALL ISZERO DUP1 ISZERO PUSH3 0x395F JUMPI RETURNDATASIZE PUSH1 0x0 DUP1 RETURNDATACOPY RETURNDATASIZE PUSH1 0x0 REVERT JUMPDEST POP POP POP POP PUSH1 0x40 MLOAD RETURNDATASIZE PUSH1 0x1F NOT PUSH1 0x1F DUP3 ADD AND DUP3 ADD DUP1 PUSH1 0x40 MSTORE POP DUP2 ADD SWAP1 PUSH3 0x3985 SWAP2 SWAP1 PUSH3 0x4890 JUMP JUMPDEST LT ISZERO DUP1 ISZERO PUSH3 0x3A22 JUMPI POP DUP2 DUP5 PUSH20 0xFFFFFFFFFFFFFFFFFFFFFFFFFFFFFFFFFFFFFFFF AND PUSH4 0x70A08231 DUP6 PUSH1 0x40 MLOAD DUP3 PUSH4 0xFFFFFFFF AND PUSH1 0xE0 SHL DUP2 MSTORE PUSH1 0x4 ADD PUSH3 0x39CB SWAP2 SWAP1 PUSH3 0x5067 JUMP JUMPDEST PUSH1 0x20 PUSH1 0x40 MLOAD DUP1 DUP4 SUB DUP2 DUP7 DUP1 EXTCODESIZE ISZERO DUP1 ISZERO PUSH3 0x39E4 JUMPI PUSH1 0x0 DUP1 REVERT JUMPDEST POP GAS STATICCALL ISZERO DUP1 ISZERO PUSH3 0x39F9 JUMPI RETURNDATASIZE PUSH1 0x0 DUP1 RETURNDATACOPY RETURNDATASIZE PUSH1 0x0 REVERT JUMPDEST POP POP POP POP PUSH1 0x40 MLOAD RETURNDATASIZE PUSH1 0x1F NOT PUSH1 0x1F DUP3 ADD AND DUP3 ADD DUP1 PUSH1 0x40 MSTORE POP DUP2 ADD SWAP1 PUSH3 0x3A1F SWAP2 SWAP1 PUSH3 0x4890 JUMP JUMPDEST LT ISZERO JUMPDEST ISZERO PUSH3 0x3A31 JUMPI DUP3 SWAP1 POP PUSH3 0x3BF0 JUMP JUMPDEST ORIGIN PUSH20 0xFFFFFFFFFFFFFFFFFFFFFFFFFFFFFFFFFFFFFFFF AND DUP4 PUSH20 0xFFFFFFFFFFFFFFFFFFFFFFFFFFFFFFFFFFFFFFFF AND EQ ISZERO DUP1 ISZERO PUSH3 0x3B20 JUMPI POP DUP2 DUP5 PUSH20 0xFFFFFFFFFFFFFFFFFFFFFFFFFFFFFFFFFFFFFFFF AND PUSH4 0xDD62ED3E ORIGIN PUSH1 0x5 PUSH1 0x0 SWAP1 SLOAD SWAP1 PUSH2 0x100 EXP SWAP1 DIV PUSH20 0xFFFFFFFFFFFFFFFFFFFFFFFFFFFFFFFFFFFFFFFF AND PUSH1 0x40 MLOAD DUP4 PUSH4 0xFFFFFFFF AND PUSH1 0xE0 SHL DUP2 MSTORE PUSH1 0x4 ADD PUSH3 0x3AC9 SWAP3 SWAP2 SWAP1 PUSH3 0x5084 JUMP JUMPDEST PUSH1 0x20 PUSH1 0x40 MLOAD DUP1 DUP4 SUB DUP2 DUP7 DUP1 EXTCODESIZE ISZERO DUP1 ISZERO PUSH3 0x3AE2 JUMPI PUSH1 0x0 DUP1 REVERT JUMPDEST POP GAS STATICCALL ISZERO DUP1 ISZERO PUSH3 0x3AF7 JUMPI RETURNDATASIZE PUSH1 0x0 DUP1 RETURNDATACOPY RETURNDATASIZE PUSH1 0x0 REVERT JUMPDEST POP POP POP POP PUSH1 0x40 MLOAD RETURNDATASIZE PUSH1 0x1F NOT PUSH1 0x1F DUP3 ADD AND DUP3 ADD DUP1 PUSH1 0x40 MSTORE POP DUP2 ADD SWAP1 PUSH3 0x3B1D SWAP2 SWAP1 PUSH3 0x4890 JUMP JUMPDEST LT ISZERO JUMPDEST DUP1 ISZERO PUSH3 0x3BBB JUMPI POP DUP2 DUP5 PUSH20 0xFFFFFFFFFFFFFFFFFFFFFFFFFFFFFFFFFFFFFFFF AND PUSH4 0x70A08231 ORIGIN PUSH1 0x40 MLOAD DUP3 PUSH4 0xFFFFFFFF AND PUSH1 0xE0 SHL DUP2 MSTORE PUSH1 0x4 ADD PUSH3 0x3B64 SWAP2 SWAP1 PUSH3 0x5067 JUMP JUMPDEST PUSH1 0x20 PUSH1 0x40 MLOAD DUP1 DUP4 SUB DUP2 DUP7 DUP1 EXTCODESIZE ISZERO DUP1 ISZERO PUSH3 0x3B7D JUMPI PUSH1 0x0 DUP1 REVERT JUMPDEST POP GAS STATICCALL ISZERO DUP1 ISZERO PUSH3 0x3B92 JUMPI RETURNDATASIZE PUSH1 0x0 DUP1 RETURNDATACOPY RETURNDATASIZE PUSH1 0x0 REVERT JUMPDEST POP POP POP POP PUSH1 0x40 MLOAD RETURNDATASIZE PUSH1 0x1F NOT PUSH1 0x1F DUP3 ADD AND DUP3 ADD DUP1 PUSH1 0x40 MSTORE POP DUP2 ADD SWAP1 PUSH3 0x3BB8 SWAP2 SWAP1 PUSH3 0x4890 JUMP JUMPDEST LT ISZERO JUMPDEST ISZERO PUSH3 0x3BCA JUMPI ORIGIN SWAP1 POP PUSH3 0x3BF0 JUMP JUMPDEST PUSH1 0x5 PUSH1 0x0 SWAP1 SLOAD SWAP1 PUSH2 0x100 EXP SWAP1 DIV PUSH20 0xFFFFFFFFFFFFFFFFFFFFFFFFFFFFFFFFFFFFFFFF AND SWAP1 POP JUMPDEST SWAP4 SWAP3 POP POP POP JUMP JUMPDEST PUSH1 0x0 DUP1 DUP3 EQ ISZERO PUSH3 0x3C0C JUMPI PUSH1 0x0 SWAP1 POP PUSH3 0x3C3B JUMP JUMPDEST DUP2 PUSH2 0x2710 DUP5 PUSH3 0x3C1D SWAP2 SWAP1 PUSH3 0x5638 JUMP JUMPDEST PUSH3 0x3C29 SWAP2 SWAP1 PUSH3 0x5600 JUMP JUMPDEST PUSH2 0x2710 PUSH3 0x3C38 SWAP2 SWAP1 PUSH3 0x5699 JUMP JUMPDEST SWAP1 POP JUMPDEST SWAP3 SWAP2 POP POP JUMP JUMPDEST PUSH1 0x40 MLOAD DUP1 PUSH1 0xE0 ADD PUSH1 0x40 MSTORE DUP1 PUSH1 0x0 DUP2 MSTORE PUSH1 0x20 ADD PUSH1 0x0 DUP2 MSTORE PUSH1 0x20 ADD PUSH1 0x0 PUSH20 0xFFFFFFFFFFFFFFFFFFFFFFFFFFFFFFFFFFFFFFFF AND DUP2 MSTORE PUSH1 0x20 ADD PUSH3 0x3C81 PUSH3 0x3CB4 JUMP JUMPDEST DUP2 MSTORE PUSH1 0x20 ADD PUSH3 0x3C90 PUSH3 0x3CB4 JUMP JUMPDEST DUP2 MSTORE PUSH1 0x20 ADD PUSH3 0x3C9F PUSH3 0x3CB4 JUMP JUMPDEST DUP2 MSTORE PUSH1 0x20 ADD PUSH3 0x3CAE PUSH3 0x3DA9 JUMP JUMPDEST DUP2 MSTORE POP SWAP1 JUMP JUMPDEST PUSH1 0x40 MLOAD DUP1 PUSH1 0xA0 ADD PUSH1 0x40 MSTORE DUP1 PUSH1 0x0 DUP2 MSTORE PUSH1 0x20 ADD PUSH1 0x0 DUP2 MSTORE PUSH1 0x20 ADD PUSH3 0x3CD7 PUSH3 0x3CF3 JUMP JUMPDEST DUP2 MSTORE PUSH1 0x20 ADD PUSH3 0x3CE6 PUSH3 0x3CF3 JUMP JUMPDEST DUP2 MSTORE PUSH1 0x20 ADD PUSH1 0x60 DUP2 MSTORE POP SWAP1 JUMP JUMPDEST PUSH1 0x40 MLOAD DUP1 PUSH2 0x1E0 ADD PUSH1 0x40 MSTORE DUP1 PUSH1 0x0 PUSH20 0xFFFFFFFFFFFFFFFFFFFFFFFFFFFFFFFFFFFFFFFF AND DUP2 MSTORE PUSH1 0x20 ADD PUSH1 0x0 DUP2 MSTORE PUSH1 0x20 ADD PUSH1 0x0 DUP2 MSTORE PUSH1 0x20 ADD PUSH1 0x0 PUSH20 0xFFFFFFFFFFFFFFFFFFFFFFFFFFFFFFFFFFFFFFFF AND DUP2 MSTORE PUSH1 0x20 ADD PUSH1 0x0 DUP2 MSTORE PUSH1 0x20 ADD PUSH1 0x0 DUP2 MSTORE PUSH1 0x20 ADD PUSH1 0x0 DUP2 MSTORE PUSH1 0x20 ADD PUSH1 0x0 DUP2 MSTORE PUSH1 0x20 ADD PUSH1 0x0 DUP2 MSTORE PUSH1 0x20 ADD PUSH1 0x0 DUP2 MSTORE PUSH1 0x20 ADD PUSH1 0x0 DUP2 MSTORE PUSH1 0x20 ADD PUSH1 0x0 DUP2 MSTORE PUSH1 0x20 ADD PUSH1 0x0 ISZERO ISZERO DUP2 MSTORE PUSH1 0x20 ADD PUSH1 0x0 ISZERO ISZERO DUP2 MSTORE PUSH1 0x20 ADD PUSH1 0x0 ISZERO ISZERO DUP2 MSTORE POP SWAP1 JUMP JUMPDEST PUSH2 0x380 DUP1 PUSH3 0x5C19 DUP4 CODECOPY ADD SWAP1 JUMP JUMPDEST PUSH1 0x40 MLOAD DUP1 PUSH1 0x60 ADD PUSH1 0x40 MSTORE DUP1 PUSH1 0x0 PUSH20 0xFFFFFFFFFFFFFFFFFFFFFFFFFFFFFFFFFFFFFFFF AND DUP2 MSTORE PUSH1 0x20 ADD PUSH1 0x0 DUP2 MSTORE PUSH1 0x20 ADD PUSH1 0x0 DUP2 MSTORE POP SWAP1 JUMP JUMPDEST PUSH1 0x0 PUSH3 0x3DF7 PUSH3 0x3DF1 DUP5 PUSH3 0x5451 JUMP JUMPDEST PUSH3 0x5428 JUMP JUMPDEST SWAP1 POP DUP1 DUP4 DUP3 MSTORE PUSH1 0x20 DUP3 ADD SWAP1 POP DUP3 DUP6 PUSH1 0x20 DUP7 MUL DUP3 ADD GT ISZERO PUSH3 0x3E1D JUMPI PUSH3 0x3E1C PUSH3 0x59B8 JUMP JUMPDEST JUMPDEST PUSH1 0x0 JUMPDEST DUP6 DUP2 LT ISZERO PUSH3 0x3E51 JUMPI DUP2 PUSH3 0x3E36 DUP9 DUP3 PUSH3 0x44B6 JUMP JUMPDEST DUP5 MSTORE PUSH1 0x20 DUP5 ADD SWAP4 POP PUSH1 0x20 DUP4 ADD SWAP3 POP POP PUSH1 0x1 DUP2 ADD SWAP1 POP PUSH3 0x3E20 JUMP JUMPDEST POP POP POP SWAP4 SWAP3 POP POP POP JUMP JUMPDEST PUSH1 0x0 PUSH3 0x3E72 PUSH3 0x3E6C DUP5 PUSH3 0x5480 JUMP JUMPDEST PUSH3 0x5428 JUMP JUMPDEST SWAP1 POP DUP3 DUP2 MSTORE PUSH1 0x20 DUP2 ADD DUP5 DUP5 DUP5 ADD GT ISZERO PUSH3 0x3E91 JUMPI PUSH3 0x3E90 PUSH3 0x59BD JUMP JUMPDEST JUMPDEST PUSH3 0x3E9E DUP5 DUP3 DUP6 PUSH3 0x5804 JUMP JUMPDEST POP SWAP4 SWAP3 POP POP POP JUMP JUMPDEST PUSH1 0x0 DUP2 CALLDATALOAD SWAP1 POP PUSH3 0x3EB7 DUP2 PUSH3 0x5B7C JUMP JUMPDEST SWAP3 SWAP2 POP POP JUMP JUMPDEST PUSH1 0x0 DUP2 MLOAD SWAP1 POP PUSH3 0x3ECE DUP2 PUSH3 0x5B7C JUMP JUMPDEST SWAP3 SWAP2 POP POP JUMP JUMPDEST PUSH1 0x0 DUP1 DUP4 PUSH1 0x1F DUP5 ADD SLT PUSH3 0x3EED JUMPI PUSH3 0x3EEC PUSH3 0x59A4 JUMP JUMPDEST JUMPDEST DUP3 CALLDATALOAD SWAP1 POP PUSH8 0xFFFFFFFFFFFFFFFF DUP2 GT ISZERO PUSH3 0x3F0D JUMPI PUSH3 0x3F0C PUSH3 0x599F JUMP JUMPDEST JUMPDEST PUSH1 0x20 DUP4 ADD SWAP2 POP DUP4 PUSH1 0xE0 DUP3 MUL DUP4 ADD GT ISZERO PUSH3 0x3F2C JUMPI PUSH3 0x3F2B PUSH3 0x59B8 JUMP JUMPDEST JUMPDEST SWAP3 POP SWAP3 SWAP1 POP JUMP JUMPDEST PUSH1 0x0 DUP3 PUSH1 0x1F DUP4 ADD SLT PUSH3 0x3F4B JUMPI PUSH3 0x3F4A PUSH3 0x59A4 JUMP JUMPDEST JUMPDEST DUP2 MLOAD PUSH3 0x3F5D DUP5 DUP3 PUSH1 0x20 DUP7 ADD PUSH3 0x3DE0 JUMP JUMPDEST SWAP2 POP POP SWAP3 SWAP2 POP POP JUMP JUMPDEST PUSH1 0x0 DUP2 MLOAD SWAP1 POP PUSH3 0x3F77 DUP2 PUSH3 0x5B96 JUMP JUMPDEST SWAP3 SWAP2 POP POP JUMP JUMPDEST PUSH1 0x0 DUP2 MLOAD SWAP1 POP PUSH3 0x3F8E DUP2 PUSH3 0x5BB0 JUMP JUMPDEST SWAP3 SWAP2 POP POP JUMP JUMPDEST PUSH1 0x0 DUP3 PUSH1 0x1F DUP4 ADD SLT PUSH3 0x3FAC JUMPI PUSH3 0x3FAB PUSH3 0x59A4 JUMP JUMPDEST JUMPDEST DUP2 MLOAD PUSH3 0x3FBE DUP5 DUP3 PUSH1 0x20 DUP7 ADD PUSH3 0x3E5B JUMP JUMPDEST SWAP2 POP POP SWAP3 SWAP2 POP POP JUMP JUMPDEST PUSH1 0x0 PUSH1 0x60 DUP3 DUP5 SUB SLT ISZERO PUSH3 0x3FE0 JUMPI PUSH3 0x3FDF PUSH3 0x59AE JUMP JUMPDEST JUMPDEST PUSH3 0x3FEC PUSH1 0x60 PUSH3 0x5428 JUMP JUMPDEST SWAP1 POP PUSH1 0x0 PUSH3 0x3FFE DUP5 DUP3 DUP6 ADD PUSH3 0x3EBD JUMP JUMPDEST PUSH1 0x0 DUP4 ADD MSTORE POP PUSH1 0x20 PUSH3 0x4014 DUP5 DUP3 DUP6 ADD PUSH3 0x44B6 JUMP JUMPDEST PUSH1 0x20 DUP4 ADD MSTORE POP PUSH1 0x40 PUSH3 0x402A DUP5 DUP3 DUP6 ADD PUSH3 0x44B6 JUMP JUMPDEST PUSH1 0x40 DUP4 ADD MSTORE POP SWAP3 SWAP2 POP POP JUMP JUMPDEST PUSH1 0x0 PUSH1 0xA0 DUP3 DUP5 SUB SLT ISZERO PUSH3 0x404F JUMPI PUSH3 0x404E PUSH3 0x59A9 JUMP JUMPDEST JUMPDEST DUP2 SWAP1 POP SWAP3 SWAP2 POP POP JUMP JUMPDEST PUSH1 0x0 PUSH2 0x1E0 DUP3 DUP5 SUB SLT ISZERO PUSH3 0x4072 JUMPI PUSH3 0x4071 PUSH3 0x59AE JUMP JUMPDEST JUMPDEST PUSH3 0x407F PUSH2 0x1E0 PUSH3 0x5428 JUMP JUMPDEST SWAP1 POP PUSH1 0x0 PUSH3 0x4091 DUP5 DUP3 DUP6 ADD PUSH3 0x3EBD JUMP JUMPDEST PUSH1 0x0 DUP4 ADD MSTORE POP PUSH1 0x20 PUSH3 0x40A7 DUP5 DUP3 DUP6 ADD PUSH3 0x44B6 JUMP JUMPDEST PUSH1 0x20 DUP4 ADD MSTORE POP PUSH1 0x40 PUSH3 0x40BD DUP5 DUP3 DUP6 ADD PUSH3 0x44B6 JUMP JUMPDEST PUSH1 0x40 DUP4 ADD MSTORE POP PUSH1 0x60 PUSH3 0x40D3 DUP5 DUP3 DUP6 ADD PUSH3 0x3EBD JUMP JUMPDEST PUSH1 0x60 DUP4 ADD MSTORE POP PUSH1 0x80 PUSH3 0x40E9 DUP5 DUP3 DUP6 ADD PUSH3 0x44B6 JUMP JUMPDEST PUSH1 0x80 DUP4 ADD MSTORE POP PUSH1 0xA0 PUSH3 0x40FF DUP5 DUP3 DUP6 ADD PUSH3 0x44B6 JUMP JUMPDEST PUSH1 0xA0 DUP4 ADD MSTORE POP PUSH1 0xC0 PUSH3 0x4115 DUP5 DUP3 DUP6 ADD PUSH3 0x44B6 JUMP JUMPDEST PUSH1 0xC0 DUP4 ADD MSTORE POP PUSH1 0xE0 PUSH3 0x412B DUP5 DUP3 DUP6 ADD PUSH3 0x44B6 JUMP JUMPDEST PUSH1 0xE0 DUP4 ADD MSTORE POP PUSH2 0x100 PUSH3 0x4142 DUP5 DUP3 DUP6 ADD PUSH3 0x44B6 JUMP JUMPDEST PUSH2 0x100 DUP4 ADD MSTORE POP PUSH2 0x120 PUSH3 0x415A DUP5 DUP3 DUP6 ADD PUSH3 0x44B6 JUMP JUMPDEST PUSH2 0x120 DUP4 ADD MSTORE POP PUSH2 0x140 PUSH3 0x4172 DUP5 DUP3 DUP6 ADD PUSH3 0x44B6 JUMP JUMPDEST PUSH2 0x140 DUP4 ADD MSTORE POP PUSH2 0x160 PUSH3 0x418A DUP5 DUP3 DUP6 ADD PUSH3 0x3F7D JUMP JUMPDEST PUSH2 0x160 DUP4 ADD MSTORE POP PUSH2 0x180 PUSH3 0x41A2 DUP5 DUP3 DUP6 ADD PUSH3 0x3F66 JUMP JUMPDEST PUSH2 0x180 DUP4 ADD MSTORE POP PUSH2 0x1A0 PUSH3 0x41BA DUP5 DUP3 DUP6 ADD PUSH3 0x3F66 JUMP JUMPDEST PUSH2 0x1A0 DUP4 ADD MSTORE POP PUSH2 0x1C0 PUSH3 0x41D2 DUP5 DUP3 DUP6 ADD PUSH3 0x3F66 JUMP JUMPDEST PUSH2 0x1C0 DUP4 ADD MSTORE POP SWAP3 SWAP2 POP POP JUMP JUMPDEST PUSH1 0x0 PUSH1 0xE0 DUP3 DUP5 SUB SLT ISZERO PUSH3 0x41F8 JUMPI PUSH3 0x41F7 PUSH3 0x59AE JUMP JUMPDEST JUMPDEST PUSH3 0x4204 PUSH1 0xE0 PUSH3 0x5428 JUMP JUMPDEST SWAP1 POP PUSH1 0x0 PUSH3 0x4216 DUP5 DUP3 DUP6 ADD PUSH3 0x3EA6 JUMP JUMPDEST PUSH1 0x0 DUP4 ADD MSTORE POP PUSH1 0x20 PUSH3 0x422C DUP5 DUP3 DUP6 ADD PUSH3 0x3EA6 JUMP JUMPDEST PUSH1 0x20 DUP4 ADD MSTORE POP PUSH1 0x40 PUSH3 0x4242 DUP5 DUP3 DUP6 ADD PUSH3 0x3EA6 JUMP JUMPDEST PUSH1 0x40 DUP4 ADD MSTORE POP PUSH1 0x60 PUSH3 0x4258 DUP5 DUP3 DUP6 ADD PUSH3 0x3EA6 JUMP JUMPDEST PUSH1 0x60 DUP4 ADD MSTORE POP PUSH1 0x80 PUSH3 0x426E DUP5 DUP3 DUP6 ADD PUSH3 0x449F JUMP JUMPDEST PUSH1 0x80 DUP4 ADD MSTORE POP PUSH1 0xA0 PUSH3 0x4284 DUP5 DUP3 DUP6 ADD PUSH3 0x449F JUMP JUMPDEST PUSH1 0xA0 DUP4 ADD MSTORE POP PUSH1 0xC0 PUSH3 0x429A DUP5 DUP3 DUP6 ADD PUSH3 0x449F JUMP JUMPDEST PUSH1 0xC0 DUP4 ADD MSTORE POP SWAP3 SWAP2 POP POP JUMP JUMPDEST PUSH1 0x0 PUSH2 0x420 DUP3 DUP5 SUB SLT ISZERO PUSH3 0x42C0 JUMPI PUSH3 0x42BF PUSH3 0x59AE JUMP JUMPDEST JUMPDEST PUSH3 0x42CC PUSH1 0xA0 PUSH3 0x5428 JUMP JUMPDEST SWAP1 POP PUSH1 0x0 PUSH3 0x42DE DUP5 DUP3 DUP6 ADD PUSH3 0x44B6 JUMP JUMPDEST PUSH1 0x0 DUP4 ADD MSTORE POP PUSH1 0x20 PUSH3 0x42F4 DUP5 DUP3 DUP6 ADD PUSH3 0x44B6 JUMP JUMPDEST PUSH1 0x20 DUP4 ADD MSTORE POP PUSH1 0x40 PUSH3 0x430A DUP5 DUP3 DUP6 ADD PUSH3 0x4058 JUMP JUMPDEST PUSH1 0x40 DUP4 ADD MSTORE POP PUSH2 0x220 PUSH3 0x4321 DUP5 DUP3 DUP6 ADD PUSH3 0x4058 JUMP JUMPDEST PUSH1 0x60 DUP4 ADD MSTORE POP PUSH2 0x400 DUP3 ADD MLOAD PUSH8 0xFFFFFFFFFFFFFFFF DUP2 GT ISZERO PUSH3 0x4349 JUMPI PUSH3 0x4348 PUSH3 0x59B3 JUMP JUMPDEST JUMPDEST PUSH3 0x4357 DUP5 DUP3 DUP6 ADD PUSH3 0x3F94 JUMP JUMPDEST PUSH1 0x80 DUP4 ADD MSTORE POP SWAP3 SWAP2 POP POP JUMP JUMPDEST PUSH1 0x0 PUSH2 0x120 DUP3 DUP5 SUB SLT ISZERO PUSH3 0x437D JUMPI PUSH3 0x437C PUSH3 0x59AE JUMP JUMPDEST JUMPDEST PUSH3 0x4389 PUSH1 0xE0 PUSH3 0x5428 JUMP JUMPDEST SWAP1 POP PUSH1 0x0 PUSH3 0x439B DUP5 DUP3 DUP6 ADD PUSH3 0x44B6 JUMP JUMPDEST PUSH1 0x0 DUP4 ADD MSTORE POP PUSH1 0x20 PUSH3 0x43B1 DUP5 DUP3 DUP6 ADD PUSH3 0x44B6 JUMP JUMPDEST PUSH1 0x20 DUP4 ADD MSTORE POP PUSH1 0x40 PUSH3 0x43C7 DUP5 DUP3 DUP6 ADD PUSH3 0x3EBD JUMP JUMPDEST PUSH1 0x40 DUP4 ADD MSTORE POP PUSH1 0x60 DUP3 ADD MLOAD PUSH8 0xFFFFFFFFFFFFFFFF DUP2 GT ISZERO PUSH3 0x43EE JUMPI PUSH3 0x43ED PUSH3 0x59B3 JUMP JUMPDEST JUMPDEST PUSH3 0x43FC DUP5 DUP3 DUP6 ADD PUSH3 0x42A6 JUMP JUMPDEST PUSH1 0x60 DUP4 ADD MSTORE POP PUSH1 0x80 DUP3 ADD MLOAD PUSH8 0xFFFFFFFFFFFFFFFF DUP2 GT ISZERO PUSH3 0x4423 JUMPI PUSH3 0x4422 PUSH3 0x59B3 JUMP JUMPDEST JUMPDEST PUSH3 0x4431 DUP5 DUP3 DUP6 ADD PUSH3 0x42A6 JUMP JUMPDEST PUSH1 0x80 DUP4 ADD MSTORE POP PUSH1 0xA0 DUP3 ADD MLOAD PUSH8 0xFFFFFFFFFFFFFFFF DUP2 GT ISZERO PUSH3 0x4458 JUMPI PUSH3 0x4457 PUSH3 0x59B3 JUMP JUMPDEST JUMPDEST PUSH3 0x4466 DUP5 DUP3 DUP6 ADD PUSH3 0x42A6 JUMP JUMPDEST PUSH1 0xA0 DUP4 ADD MSTORE POP PUSH1 0xC0 PUSH3 0x447C DUP5 DUP3 DUP6 ADD PUSH3 0x3FC7 JUMP JUMPDEST PUSH1 0xC0 DUP4 ADD MSTORE POP SWAP3 SWAP2 POP POP JUMP JUMPDEST PUSH1 0x0 DUP2 MLOAD SWAP1 POP PUSH3 0x4499 DUP2 PUSH3 0x5BCA JUMP JUMPDEST SWAP3 SWAP2 POP POP JUMP JUMPDEST PUSH1 0x0 DUP2 CALLDATALOAD SWAP1 POP PUSH3 0x44B0 DUP2 PUSH3 0x5BE4 JUMP JUMPDEST SWAP3 SWAP2 POP POP JUMP JUMPDEST PUSH1 0x0 DUP2 MLOAD SWAP1 POP PUSH3 0x44C7 DUP2 PUSH3 0x5BE4 JUMP JUMPDEST SWAP3 SWAP2 POP POP JUMP JUMPDEST PUSH1 0x0 DUP2 MLOAD SWAP1 POP PUSH3 0x44DE DUP2 PUSH3 0x5BFE JUMP JUMPDEST SWAP3 SWAP2 POP POP JUMP JUMPDEST PUSH1 0x0 PUSH1 0x20 DUP3 DUP5 SUB SLT ISZERO PUSH3 0x44FD JUMPI PUSH3 0x44FC PUSH3 0x59C7 JUMP JUMPDEST JUMPDEST PUSH1 0x0 PUSH3 0x450D DUP5 DUP3 DUP6 ADD PUSH3 0x3EA6 JUMP JUMPDEST SWAP2 POP POP SWAP3 SWAP2 POP POP JUMP JUMPDEST PUSH1 0x0 PUSH1 0x20 DUP3 DUP5 SUB SLT ISZERO PUSH3 0x452F JUMPI PUSH3 0x452E PUSH3 0x59C7 JUMP JUMPDEST JUMPDEST PUSH1 0x0 PUSH3 0x453F DUP5 DUP3 DUP6 ADD PUSH3 0x3EBD JUMP JUMPDEST SWAP2 POP POP SWAP3 SWAP2 POP POP JUMP JUMPDEST PUSH1 0x0 DUP1 PUSH1 0x0 DUP1 PUSH1 0x0 DUP1 PUSH1 0xC0 DUP8 DUP10 SUB SLT ISZERO PUSH3 0x4568 JUMPI PUSH3 0x4567 PUSH3 0x59C7 JUMP JUMPDEST JUMPDEST PUSH1 0x0 PUSH3 0x4578 DUP10 DUP3 DUP11 ADD PUSH3 0x3EA6 JUMP JUMPDEST SWAP7 POP POP PUSH1 0x20 PUSH3 0x458B DUP10 DUP3 DUP11 ADD PUSH3 0x3EA6 JUMP JUMPDEST SWAP6 POP POP PUSH1 0x40 PUSH3 0x459E DUP10 DUP3 DUP11 ADD PUSH3 0x3EA6 JUMP JUMPDEST SWAP5 POP POP PUSH1 0x60 PUSH3 0x45B1 DUP10 DUP3 DUP11 ADD PUSH3 0x3EA6 JUMP JUMPDEST SWAP4 POP POP PUSH1 0x80 PUSH3 0x45C4 DUP10 DUP3 DUP11 ADD PUSH3 0x449F JUMP JUMPDEST SWAP3 POP POP PUSH1 0xA0 PUSH3 0x45D7 DUP10 DUP3 DUP11 ADD PUSH3 0x449F JUMP JUMPDEST SWAP2 POP POP SWAP3 SWAP6 POP SWAP3 SWAP6 POP SWAP3 SWAP6 JUMP JUMPDEST PUSH1 0x0 DUP1 PUSH1 0x0 DUP1 PUSH1 0x80 DUP6 DUP8 SUB SLT ISZERO PUSH3 0x4601 JUMPI PUSH3 0x4600 PUSH3 0x59C7 JUMP JUMPDEST JUMPDEST PUSH1 0x0 PUSH3 0x4611 DUP8 DUP3 DUP9 ADD PUSH3 0x3EA6 JUMP JUMPDEST SWAP5 POP POP PUSH1 0x20 PUSH3 0x4624 DUP8 DUP3 DUP9 ADD PUSH3 0x3EA6 JUMP JUMPDEST SWAP4 POP POP PUSH1 0x40 PUSH3 0x4637 DUP8 DUP3 DUP9 ADD PUSH3 0x3EA6 JUMP JUMPDEST SWAP3 POP POP PUSH1 0x60 PUSH3 0x464A DUP8 DUP3 DUP9 ADD PUSH3 0x449F JUMP JUMPDEST SWAP2 POP POP SWAP3 SWAP6 SWAP2 SWAP5 POP SWAP3 POP JUMP JUMPDEST PUSH1 0x0 DUP1 PUSH1 0x20 DUP4 DUP6 SUB SLT ISZERO PUSH3 0x4670 JUMPI PUSH3 0x466F PUSH3 0x59C7 JUMP JUMPDEST JUMPDEST PUSH1 0x0 DUP4 ADD CALLDATALOAD PUSH8 0xFFFFFFFFFFFFFFFF DUP2 GT ISZERO PUSH3 0x4691 JUMPI PUSH3 0x4690 PUSH3 0x59C2 JUMP JUMPDEST JUMPDEST PUSH3 0x469F DUP6 DUP3 DUP7 ADD PUSH3 0x3ED4 JUMP JUMPDEST SWAP3 POP SWAP3 POP POP SWAP3 POP SWAP3 SWAP1 POP JUMP JUMPDEST PUSH1 0x0 PUSH1 0x20 DUP3 DUP5 SUB SLT ISZERO PUSH3 0x46C4 JUMPI PUSH3 0x46C3 PUSH3 0x59C7 JUMP JUMPDEST JUMPDEST PUSH1 0x0 DUP3 ADD MLOAD PUSH8 0xFFFFFFFFFFFFFFFF DUP2 GT ISZERO PUSH3 0x46E5 JUMPI PUSH3 0x46E4 PUSH3 0x59C2 JUMP JUMPDEST JUMPDEST PUSH3 0x46F3 DUP5 DUP3 DUP6 ADD PUSH3 0x3F33 JUMP JUMPDEST SWAP2 POP POP SWAP3 SWAP2 POP POP JUMP JUMPDEST PUSH1 0x0 PUSH1 0x20 DUP3 DUP5 SUB SLT ISZERO PUSH3 0x4715 JUMPI PUSH3 0x4714 PUSH3 0x59C7 JUMP JUMPDEST JUMPDEST PUSH1 0x0 PUSH3 0x4725 DUP5 DUP3 DUP6 ADD PUSH3 0x3F66 JUMP JUMPDEST SWAP2 POP POP SWAP3 SWAP2 POP POP JUMP JUMPDEST PUSH1 0x0 PUSH1 0xA0 DUP3 DUP5 SUB SLT ISZERO PUSH3 0x4747 JUMPI PUSH3 0x4746 PUSH3 0x59C7 JUMP JUMPDEST JUMPDEST PUSH1 0x0 PUSH3 0x4757 DUP5 DUP3 DUP6 ADD PUSH3 0x4036 JUMP JUMPDEST SWAP2 POP POP SWAP3 SWAP2 POP POP JUMP JUMPDEST PUSH1 0x0 PUSH1 0xE0 DUP3 DUP5 SUB SLT ISZERO PUSH3 0x4779 JUMPI PUSH3 0x4778 PUSH3 0x59C7 JUMP JUMPDEST JUMPDEST PUSH1 0x0 PUSH3 0x4789 DUP5 DUP3 DUP6 ADD PUSH3 0x41DF JUMP JUMPDEST SWAP2 POP POP SWAP3 SWAP2 POP POP JUMP JUMPDEST PUSH1 0x0 PUSH1 0x20 DUP3 DUP5 SUB SLT ISZERO PUSH3 0x47AB JUMPI PUSH3 0x47AA PUSH3 0x59C7 JUMP JUMPDEST JUMPDEST PUSH1 0x0 DUP3 ADD MLOAD PUSH8 0xFFFFFFFFFFFFFFFF DUP2 GT ISZERO PUSH3 0x47CC JUMPI PUSH3 0x47CB PUSH3 0x59C2 JUMP JUMPDEST JUMPDEST PUSH3 0x47DA DUP5 DUP3 DUP6 ADD PUSH3 0x42A6 JUMP JUMPDEST SWAP2 POP POP SWAP3 SWAP2 POP POP JUMP JUMPDEST PUSH1 0x0 PUSH1 0x20 DUP3 DUP5 SUB SLT ISZERO PUSH3 0x47FC JUMPI PUSH3 0x47FB PUSH3 0x59C7 JUMP JUMPDEST JUMPDEST PUSH1 0x0 DUP3 ADD MLOAD PUSH8 0xFFFFFFFFFFFFFFFF DUP2 GT ISZERO PUSH3 0x481D JUMPI PUSH3 0x481C PUSH3 0x59C2 JUMP JUMPDEST JUMPDEST PUSH3 0x482B DUP5 DUP3 DUP6 ADD PUSH3 0x4363 JUMP JUMPDEST SWAP2 POP POP SWAP3 SWAP2 POP POP JUMP JUMPDEST PUSH1 0x0 DUP1 PUSH1 0x0 PUSH1 0x60 DUP5 DUP7 SUB SLT ISZERO PUSH3 0x4850 JUMPI PUSH3 0x484F PUSH3 0x59C7 JUMP JUMPDEST JUMPDEST PUSH1 0x0 PUSH3 0x4860 DUP7 DUP3 DUP8 ADD PUSH3 0x4488 JUMP JUMPDEST SWAP4 POP POP PUSH1 0x20 PUSH3 0x4873 DUP7 DUP3 DUP8 ADD PUSH3 0x4488 JUMP JUMPDEST SWAP3 POP POP PUSH1 0x40 PUSH3 0x4886 DUP7 DUP3 DUP8 ADD PUSH3 0x44CD JUMP JUMPDEST SWAP2 POP POP SWAP3 POP SWAP3 POP SWAP3 JUMP JUMPDEST PUSH1 0x0 PUSH1 0x20 DUP3 DUP5 SUB SLT ISZERO PUSH3 0x48A9 JUMPI PUSH3 0x48A8 PUSH3 0x59C7 JUMP JUMPDEST JUMPDEST PUSH1 0x0 PUSH3 0x48B9 DUP5 DUP3 DUP6 ADD PUSH3 0x44B6 JUMP JUMPDEST SWAP2 POP POP SWAP3 SWAP2 POP POP JUMP JUMPDEST PUSH1 0x0 PUSH3 0x48D0 DUP4 DUP4 PUSH3 0x48F2 JUMP JUMPDEST PUSH1 0x20 DUP4 ADD SWAP1 POP SWAP3 SWAP2 POP POP JUMP JUMPDEST PUSH1 0x0 PUSH3 0x48EA DUP4 DUP4 PUSH3 0x4ED3 JUMP JUMPDEST SWAP1 POP SWAP3 SWAP2 POP POP JUMP JUMPDEST PUSH3 0x48FD DUP2 PUSH3 0x5772 JUMP JUMPDEST DUP3 MSTORE POP POP JUMP JUMPDEST PUSH3 0x490E DUP2 PUSH3 0x5772 JUMP JUMPDEST DUP3 MSTORE POP POP JUMP JUMPDEST PUSH1 0x0 PUSH3 0x4921 DUP3 PUSH3 0x54D6 JUMP JUMPDEST PUSH3 0x492D DUP2 DUP6 PUSH3 0x551C JUMP JUMPDEST SWAP4 POP PUSH3 0x493A DUP4 PUSH3 0x54B6 JUMP JUMPDEST DUP1 PUSH1 0x0 JUMPDEST DUP4 DUP2 LT ISZERO PUSH3 0x4971 JUMPI DUP2 MLOAD PUSH3 0x4955 DUP9 DUP3 PUSH3 0x48C2 JUMP JUMPDEST SWAP8 POP PUSH3 0x4962 DUP4 PUSH3 0x5502 JUMP JUMPDEST SWAP3 POP POP PUSH1 0x1 DUP2 ADD SWAP1 POP PUSH3 0x493E JUMP JUMPDEST POP DUP6 SWAP4 POP POP POP POP SWAP3 SWAP2 POP POP JUMP JUMPDEST PUSH1 0x0 PUSH3 0x498B DUP3 PUSH3 0x54E1 JUMP JUMPDEST PUSH3 0x4997 DUP2 DUP6 PUSH3 0x552D JUMP JUMPDEST SWAP4 POP DUP4 PUSH1 0x20 DUP3 MUL DUP6 ADD PUSH3 0x49AB DUP6 PUSH3 0x54C6 JUMP JUMPDEST DUP1 PUSH1 0x0 JUMPDEST DUP6 DUP2 LT ISZERO PUSH3 0x49ED JUMPI DUP5 DUP5 SUB DUP10 MSTORE DUP2 MLOAD PUSH3 0x49CB DUP6 DUP3 PUSH3 0x48DC JUMP JUMPDEST SWAP5 POP PUSH3 0x49D8 DUP4 PUSH3 0x550F JUMP JUMPDEST SWAP3 POP PUSH1 0x20 DUP11 ADD SWAP10 POP POP PUSH1 0x1 DUP2 ADD SWAP1 POP PUSH3 0x49AF JUMP JUMPDEST POP DUP3 SWAP8 POP DUP8 SWAP6 POP POP POP POP POP POP SWAP3 SWAP2 POP POP JUMP JUMPDEST PUSH3 0x4A0A DUP2 PUSH3 0x5786 JUMP JUMPDEST DUP3 MSTORE POP POP JUMP JUMPDEST PUSH1 0x0 PUSH3 0x4A1D DUP3 PUSH3 0x54EC JUMP JUMPDEST PUSH3 0x4A29 DUP2 DUP6 PUSH3 0x553E JUMP JUMPDEST SWAP4 POP PUSH3 0x4A3B DUP2 DUP6 PUSH1 0x20 DUP7 ADD PUSH3 0x5804 JUMP JUMPDEST PUSH3 0x4A46 DUP2 PUSH3 0x59CC JUMP JUMPDEST DUP5 ADD SWAP2 POP POP SWAP3 SWAP2 POP POP JUMP JUMPDEST PUSH3 0x4A5C DUP2 PUSH3 0x5792 JUMP JUMPDEST DUP3 MSTORE POP POP JUMP JUMPDEST PUSH3 0x4A6D DUP2 PUSH3 0x57F0 JUMP JUMPDEST DUP3 MSTORE POP POP JUMP JUMPDEST PUSH1 0x0 PUSH3 0x4A80 DUP3 PUSH3 0x54F7 JUMP JUMPDEST PUSH3 0x4A8C DUP2 DUP6 PUSH3 0x554F JUMP JUMPDEST SWAP4 POP PUSH3 0x4A9E DUP2 DUP6 PUSH1 0x20 DUP7 ADD PUSH3 0x5804 JUMP JUMPDEST PUSH3 0x4AA9 DUP2 PUSH3 0x59CC JUMP JUMPDEST DUP5 ADD SWAP2 POP POP SWAP3 SWAP2 POP POP JUMP JUMPDEST PUSH1 0x0 PUSH3 0x4AC3 PUSH1 0x1A DUP4 PUSH3 0x5560 JUMP JUMPDEST SWAP2 POP PUSH3 0x4AD0 DUP3 PUSH3 0x59EA JUMP JUMPDEST PUSH1 0x20 DUP3 ADD SWAP1 POP SWAP2 SWAP1 POP JUMP JUMPDEST PUSH1 0x0 PUSH3 0x4AEA PUSH1 0x31 DUP4 PUSH3 0x5560 JUMP JUMPDEST SWAP2 POP PUSH3 0x4AF7 DUP3 PUSH3 0x5A13 JUMP JUMPDEST PUSH1 0x40 DUP3 ADD SWAP1 POP SWAP2 SWAP1 POP JUMP JUMPDEST PUSH1 0x0 PUSH3 0x4B11 PUSH1 0x2F DUP4 PUSH3 0x5560 JUMP JUMPDEST SWAP2 POP PUSH3 0x4B1E DUP3 PUSH3 0x5A62 JUMP JUMPDEST PUSH1 0x40 DUP3 ADD SWAP1 POP SWAP2 SWAP1 POP JUMP JUMPDEST PUSH1 0x0 PUSH3 0x4B38 PUSH1 0x16 DUP4 PUSH3 0x5560 JUMP JUMPDEST SWAP2 POP PUSH3 0x4B45 DUP3 PUSH3 0x5AB1 JUMP JUMPDEST PUSH1 0x20 DUP3 ADD SWAP1 POP SWAP2 SWAP1 POP JUMP JUMPDEST PUSH1 0x60 DUP3 ADD PUSH1 0x0 DUP3 ADD MLOAD PUSH3 0x4B68 PUSH1 0x0 DUP6 ADD DUP3 PUSH3 0x48F2 JUMP JUMPDEST POP PUSH1 0x20 DUP3 ADD MLOAD PUSH3 0x4B7D PUSH1 0x20 DUP6 ADD DUP3 PUSH3 0x5045 JUMP JUMPDEST POP PUSH1 0x40 DUP3 ADD MLOAD PUSH3 0x4B92 PUSH1 0x40 DUP6 ADD DUP3 PUSH3 0x5045 JUMP JUMPDEST POP POP POP POP JUMP JUMPDEST PUSH2 0x1E0 DUP3 ADD PUSH1 0x0 DUP3 ADD MLOAD PUSH3 0x4BB1 PUSH1 0x0 DUP6 ADD DUP3 PUSH3 0x48F2 JUMP JUMPDEST POP PUSH1 0x20 DUP3 ADD MLOAD PUSH3 0x4BC6 PUSH1 0x20 DUP6 ADD DUP3 PUSH3 0x5045 JUMP JUMPDEST POP PUSH1 0x40 DUP3 ADD MLOAD PUSH3 0x4BDB PUSH1 0x40 DUP6 ADD DUP3 PUSH3 0x5045 JUMP JUMPDEST POP PUSH1 0x60 DUP3 ADD MLOAD PUSH3 0x4BF0 PUSH1 0x60 DUP6 ADD DUP3 PUSH3 0x48F2 JUMP JUMPDEST POP PUSH1 0x80 DUP3 ADD MLOAD PUSH3 0x4C05 PUSH1 0x80 DUP6 ADD DUP3 PUSH3 0x5045 JUMP JUMPDEST POP PUSH1 0xA0 DUP3 ADD MLOAD PUSH3 0x4C1A PUSH1 0xA0 DUP6 ADD DUP3 PUSH3 0x5045 JUMP JUMPDEST POP PUSH1 0xC0 DUP3 ADD MLOAD PUSH3 0x4C2F PUSH1 0xC0 DUP6 ADD DUP3 PUSH3 0x5045 JUMP JUMPDEST POP PUSH1 0xE0 DUP3 ADD MLOAD PUSH3 0x4C44 PUSH1 0xE0 DUP6 ADD DUP3 PUSH3 0x5045 JUMP JUMPDEST POP PUSH2 0x100 DUP3 ADD MLOAD PUSH3 0x4C5B PUSH2 0x100 DUP6 ADD DUP3 PUSH3 0x5045 JUMP JUMPDEST POP PUSH2 0x120 DUP3 ADD MLOAD PUSH3 0x4C72 PUSH2 0x120 DUP6 ADD DUP3 PUSH3 0x5045 JUMP JUMPDEST POP PUSH2 0x140 DUP3 ADD MLOAD PUSH3 0x4C89 PUSH2 0x140 DUP6 ADD DUP3 PUSH3 0x5045 JUMP JUMPDEST POP PUSH2 0x160 DUP3 ADD MLOAD PUSH3 0x4CA0 PUSH2 0x160 DUP6 ADD DUP3 PUSH3 0x4A51 JUMP JUMPDEST POP PUSH2 0x180 DUP3 ADD MLOAD PUSH3 0x4CB7 PUSH2 0x180 DUP6 ADD DUP3 PUSH3 0x49FF JUMP JUMPDEST POP PUSH2 0x1A0 DUP3 ADD MLOAD PUSH3 0x4CCE PUSH2 0x1A0 DUP6 ADD DUP3 PUSH3 0x49FF JUMP JUMPDEST POP PUSH2 0x1C0 DUP3 ADD MLOAD PUSH3 0x4CE5 PUSH2 0x1C0 DUP6 ADD DUP3 PUSH3 0x49FF JUMP JUMPDEST POP POP POP POP JUMP JUMPDEST PUSH1 0xE0 DUP3 ADD PUSH3 0x4CFE PUSH1 0x0 DUP4 ADD DUP4 PUSH3 0x5571 JUMP JUMPDEST PUSH3 0x4D0D PUSH1 0x0 DUP6 ADD DUP3 PUSH3 0x48F2 JUMP JUMPDEST POP PUSH3 0x4D1D PUSH1 0x20 DUP4 ADD DUP4 PUSH3 0x5571 JUMP JUMPDEST PUSH3 0x4D2C PUSH1 0x20 DUP6 ADD DUP3 PUSH3 0x48F2 JUMP JUMPDEST POP PUSH3 0x4D3C PUSH1 0x40 DUP4 ADD DUP4 PUSH3 0x5571 JUMP JUMPDEST PUSH3 0x4D4B PUSH1 0x40 DUP6 ADD DUP3 PUSH3 0x48F2 JUMP JUMPDEST POP PUSH3 0x4D5B PUSH1 0x60 DUP4 ADD DUP4 PUSH3 0x5571 JUMP JUMPDEST PUSH3 0x4D6A PUSH1 0x60 DUP6 ADD DUP3 PUSH3 0x48F2 JUMP JUMPDEST POP PUSH3 0x4D7A PUSH1 0x80 DUP4 ADD DUP4 PUSH3 0x558A JUMP JUMPDEST PUSH3 0x4D89 PUSH1 0x80 DUP6 ADD DUP3 PUSH3 0x5045 JUMP JUMPDEST POP PUSH3 0x4D99 PUSH1 0xA0 DUP4 ADD DUP4 PUSH3 0x558A JUMP JUMPDEST PUSH3 0x4DA8 PUSH1 0xA0 DUP6 ADD DUP3 PUSH3 0x5045 JUMP JUMPDEST POP PUSH3 0x4DB8 PUSH1 0xC0 DUP4 ADD DUP4 PUSH3 0x558A JUMP JUMPDEST PUSH3 0x4DC7 PUSH1 0xC0 DUP6 ADD DUP3 PUSH3 0x5045 JUMP JUMPDEST POP POP POP POP JUMP JUMPDEST PUSH1 0x0 PUSH2 0x420 DUP4 ADD PUSH1 0x0 DUP4 ADD MLOAD PUSH3 0x4DE8 PUSH1 0x0 DUP7 ADD DUP3 PUSH3 0x5045 JUMP JUMPDEST POP PUSH1 0x20 DUP4 ADD MLOAD PUSH3 0x4DFD PUSH1 0x20 DUP7 ADD DUP3 PUSH3 0x5045 JUMP JUMPDEST POP PUSH1 0x40 DUP4 ADD MLOAD PUSH3 0x4E12 PUSH1 0x40 DUP7 ADD DUP3 PUSH3 0x4B98 JUMP JUMPDEST POP PUSH1 0x60 DUP4 ADD MLOAD PUSH3 0x4E28 PUSH2 0x220 DUP7 ADD DUP3 PUSH3 0x4B98 JUMP JUMPDEST POP PUSH1 0x80 DUP4 ADD MLOAD DUP5 DUP3 SUB PUSH2 0x400 DUP7 ADD MSTORE PUSH3 0x4E43 DUP3 DUP3 PUSH3 0x4A73 JUMP JUMPDEST SWAP2 POP POP DUP1 SWAP2 POP POP SWAP3 SWAP2 POP POP JUMP JUMPDEST PUSH1 0x0 PUSH2 0x420 DUP4 ADD PUSH1 0x0 DUP4 ADD MLOAD PUSH3 0x4E6B PUSH1 0x0 DUP7 ADD DUP3 PUSH3 0x5045 JUMP JUMPDEST POP PUSH1 0x20 DUP4 ADD MLOAD PUSH3 0x4E80 PUSH1 0x20 DUP7 ADD DUP3 PUSH3 0x5045 JUMP JUMPDEST POP PUSH1 0x40 DUP4 ADD MLOAD PUSH3 0x4E95 PUSH1 0x40 DUP7 ADD DUP3 PUSH3 0x4B98 JUMP JUMPDEST POP PUSH1 0x60 DUP4 ADD MLOAD PUSH3 0x4EAB PUSH2 0x220 DUP7 ADD DUP3 PUSH3 0x4B98 JUMP JUMPDEST POP PUSH1 0x80 DUP4 ADD MLOAD DUP5 DUP3 SUB PUSH2 0x400 DUP7 ADD MSTORE PUSH3 0x4EC6 DUP3 DUP3 PUSH3 0x4A73 JUMP JUMPDEST SWAP2 POP POP DUP1 SWAP2 POP POP SWAP3 SWAP2 POP POP JUMP JUMPDEST PUSH1 0x0 PUSH2 0x120 DUP4 ADD PUSH1 0x0 DUP4 ADD MLOAD PUSH3 0x4EEE PUSH1 0x0 DUP7 ADD DUP3 PUSH3 0x5045 JUMP JUMPDEST POP PUSH1 0x20 DUP4 ADD MLOAD PUSH3 0x4F03 PUSH1 0x20 DUP7 ADD DUP3 PUSH3 0x5045 JUMP JUMPDEST POP PUSH1 0x40 DUP4 ADD MLOAD PUSH3 0x4F18 PUSH1 0x40 DUP7 ADD DUP3 PUSH3 0x48F2 JUMP JUMPDEST POP PUSH1 0x60 DUP4 ADD MLOAD DUP5 DUP3 SUB PUSH1 0x60 DUP7 ADD MSTORE PUSH3 0x4F32 DUP3 DUP3 PUSH3 0x4DCD JUMP JUMPDEST SWAP2 POP POP PUSH1 0x80 DUP4 ADD MLOAD DUP5 DUP3 SUB PUSH1 0x80 DUP7 ADD MSTORE PUSH3 0x4F4E DUP3 DUP3 PUSH3 0x4DCD JUMP JUMPDEST SWAP2 POP POP PUSH1 0xA0 DUP4 ADD MLOAD DUP5 DUP3 SUB PUSH1 0xA0 DUP7 ADD MSTORE PUSH3 0x4F6A DUP3 DUP3 PUSH3 0x4DCD JUMP JUMPDEST SWAP2 POP POP PUSH1 0xC0 DUP4 ADD MLOAD PUSH3 0x4F81 PUSH1 0xC0 DUP7 ADD DUP3 PUSH3 0x4B50 JUMP JUMPDEST POP DUP1 SWAP2 POP POP SWAP3 SWAP2 POP POP JUMP JUMPDEST PUSH1 0x0 PUSH2 0x120 DUP4 ADD PUSH1 0x0 DUP4 ADD MLOAD PUSH3 0x4FA7 PUSH1 0x0 DUP7 ADD DUP3 PUSH3 0x5045 JUMP JUMPDEST POP PUSH1 0x20 DUP4 ADD MLOAD PUSH3 0x4FBC PUSH1 0x20 DUP7 ADD DUP3 PUSH3 0x5045 JUMP JUMPDEST POP PUSH1 0x40 DUP4 ADD MLOAD PUSH3 0x4FD1 PUSH1 0x40 DUP7 ADD DUP3 PUSH3 0x48F2 JUMP JUMPDEST POP PUSH1 0x60 DUP4 ADD MLOAD DUP5 DUP3 SUB PUSH1 0x60 DUP7 ADD MSTORE PUSH3 0x4FEB DUP3 DUP3 PUSH3 0x4DCD JUMP JUMPDEST SWAP2 POP POP PUSH1 0x80 DUP4 ADD MLOAD DUP5 DUP3 SUB PUSH1 0x80 DUP7 ADD MSTORE PUSH3 0x5007 DUP3 DUP3 PUSH3 0x4DCD JUMP JUMPDEST SWAP2 POP POP PUSH1 0xA0 DUP4 ADD MLOAD DUP5 DUP3 SUB PUSH1 0xA0 DUP7 ADD MSTORE PUSH3 0x5023 DUP3 DUP3 PUSH3 0x4DCD JUMP JUMPDEST SWAP2 POP POP PUSH1 0xC0 DUP4 ADD MLOAD PUSH3 0x503A PUSH1 0xC0 DUP7 ADD DUP3 PUSH3 0x4B50 JUMP JUMPDEST POP DUP1 SWAP2 POP POP SWAP3 SWAP2 POP POP JUMP JUMPDEST PUSH3 0x5050 DUP2 PUSH3 0x57D6 JUMP JUMPDEST DUP3 MSTORE POP POP JUMP JUMPDEST PUSH3 0x5061 DUP2 PUSH3 0x57D6 JUMP JUMPDEST DUP3 MSTORE POP POP JUMP JUMPDEST PUSH1 0x0 PUSH1 0x20 DUP3 ADD SWAP1 POP PUSH3 0x507E PUSH1 0x0 DUP4 ADD DUP5 PUSH3 0x4903 JUMP JUMPDEST SWAP3 SWAP2 POP POP JUMP JUMPDEST PUSH1 0x0 PUSH1 0x40 DUP3 ADD SWAP1 POP PUSH3 0x509B PUSH1 0x0 DUP4 ADD DUP6 PUSH3 0x4903 JUMP JUMPDEST PUSH3 0x50AA PUSH1 0x20 DUP4 ADD DUP5 PUSH3 0x4903 JUMP JUMPDEST SWAP4 SWAP3 POP POP POP JUMP JUMPDEST PUSH1 0x0 PUSH1 0xC0 DUP3 ADD SWAP1 POP PUSH3 0x50C8 PUSH1 0x0 DUP4 ADD DUP10 PUSH3 0x4903 JUMP JUMPDEST PUSH3 0x50D7 PUSH1 0x20 DUP4 ADD DUP9 PUSH3 0x4903 JUMP JUMPDEST PUSH3 0x50E6 PUSH1 0x40 DUP4 ADD DUP8 PUSH3 0x4903 JUMP JUMPDEST PUSH3 0x50F5 PUSH1 0x60 DUP4 ADD DUP7 PUSH3 0x4903 JUMP JUMPDEST PUSH3 0x5104 PUSH1 0x80 DUP4 ADD DUP6 PUSH3 0x4A62 JUMP JUMPDEST PUSH3 0x5113 PUSH1 0xA0 DUP4 ADD DUP5 PUSH3 0x5056 JUMP JUMPDEST SWAP8 SWAP7 POP POP POP POP POP POP POP JUMP JUMPDEST PUSH1 0x0 PUSH1 0xC0 DUP3 ADD SWAP1 POP PUSH3 0x5135 PUSH1 0x0 DUP4 ADD DUP10 PUSH3 0x4903 JUMP JUMPDEST PUSH3 0x5144 PUSH1 0x20 DUP4 ADD DUP9 PUSH3 0x4903 JUMP JUMPDEST PUSH3 0x5153 PUSH1 0x40 DUP4 ADD DUP8 PUSH3 0x4903 JUMP JUMPDEST PUSH3 0x5162 PUSH1 0x60 DUP4 ADD DUP7 PUSH3 0x4903 JUMP JUMPDEST PUSH3 0x5171 PUSH1 0x80 DUP4 ADD DUP6 PUSH3 0x5056 JUMP JUMPDEST PUSH3 0x5180 PUSH1 0xA0 DUP4 ADD DUP5 PUSH3 0x4A62 JUMP JUMPDEST SWAP8 SWAP7 POP POP POP POP POP POP POP JUMP JUMPDEST PUSH1 0x0 PUSH1 0x80 DUP3 ADD SWAP1 POP PUSH3 0x51A2 PUSH1 0x0 DUP4 ADD DUP8 PUSH3 0x4903 JUMP JUMPDEST PUSH3 0x51B1 PUSH1 0x20 DUP4 ADD DUP7 PUSH3 0x4903 JUMP JUMPDEST PUSH3 0x51C0 PUSH1 0x40 DUP4 ADD DUP6 PUSH3 0x4903 JUMP JUMPDEST PUSH3 0x51CF PUSH1 0x60 DUP4 ADD DUP5 PUSH3 0x5056 JUMP JUMPDEST SWAP6 SWAP5 POP POP POP POP POP JUMP JUMPDEST PUSH1 0x0 PUSH1 0x60 DUP3 ADD SWAP1 POP PUSH3 0x51EF PUSH1 0x0 DUP4 ADD DUP7 PUSH3 0x4903 JUMP JUMPDEST PUSH3 0x51FE PUSH1 0x20 DUP4 ADD DUP6 PUSH3 0x4903 JUMP JUMPDEST PUSH3 0x520D PUSH1 0x40 DUP4 ADD DUP5 PUSH3 0x5056 JUMP JUMPDEST SWAP5 SWAP4 POP POP POP POP JUMP JUMPDEST PUSH1 0x0 PUSH1 0x40 DUP3 ADD SWAP1 POP PUSH3 0x522C PUSH1 0x0 DUP4 ADD DUP6 PUSH3 0x4903 JUMP JUMPDEST PUSH3 0x523B PUSH1 0x20 DUP4 ADD DUP5 PUSH3 0x5056 JUMP JUMPDEST SWAP4 SWAP3 POP POP POP JUMP JUMPDEST PUSH1 0x0 PUSH1 0x20 DUP3 ADD SWAP1 POP DUP2 DUP2 SUB PUSH1 0x0 DUP4 ADD MSTORE PUSH3 0x525E DUP2 DUP5 PUSH3 0x497E JUMP JUMPDEST SWAP1 POP SWAP3 SWAP2 POP POP JUMP JUMPDEST PUSH1 0x0 PUSH1 0x20 DUP3 ADD SWAP1 POP DUP2 DUP2 SUB PUSH1 0x0 DUP4 ADD MSTORE PUSH3 0x5281 DUP2 PUSH3 0x4AB4 JUMP JUMPDEST SWAP1 POP SWAP2 SWAP1 POP JUMP JUMPDEST PUSH1 0x0 PUSH1 0x20 DUP3 ADD SWAP1 POP DUP2 DUP2 SUB PUSH1 0x0 DUP4 ADD MSTORE PUSH3 0x52A3 DUP2 PUSH3 0x4ADB JUMP JUMPDEST SWAP1 POP SWAP2 SWAP1 POP JUMP JUMPDEST PUSH1 0x0 PUSH1 0x20 DUP3 ADD SWAP1 POP DUP2 DUP2 SUB PUSH1 0x0 DUP4 ADD MSTORE PUSH3 0x52C5 DUP2 PUSH3 0x4B02 JUMP JUMPDEST SWAP1 POP SWAP2 SWAP1 POP JUMP JUMPDEST PUSH1 0x0 PUSH1 0x20 DUP3 ADD SWAP1 POP DUP2 DUP2 SUB PUSH1 0x0 DUP4 ADD MSTORE PUSH3 0x52E7 DUP2 PUSH3 0x4B29 JUMP JUMPDEST SWAP1 POP SWAP2 SWAP1 POP JUMP JUMPDEST PUSH1 0x0 PUSH1 0xE0 DUP3 ADD SWAP1 POP PUSH3 0x5305 PUSH1 0x0 DUP4 ADD DUP5 PUSH3 0x4CEB JUMP JUMPDEST SWAP3 SWAP2 POP POP JUMP JUMPDEST PUSH1 0x0 PUSH1 0x20 DUP3 ADD SWAP1 POP DUP2 DUP2 SUB PUSH1 0x0 DUP4 ADD MSTORE PUSH3 0x5327 DUP2 DUP5 PUSH3 0x4E50 JUMP JUMPDEST SWAP1 POP SWAP3 SWAP2 POP POP JUMP JUMPDEST PUSH1 0x0 PUSH1 0x20 DUP3 ADD SWAP1 POP DUP2 DUP2 SUB PUSH1 0x0 DUP4 ADD MSTORE PUSH3 0x534B DUP2 DUP5 PUSH3 0x4F8C JUMP JUMPDEST SWAP1 POP SWAP3 SWAP2 POP POP JUMP JUMPDEST PUSH1 0x0 PUSH1 0x40 DUP3 ADD SWAP1 POP PUSH3 0x536A PUSH1 0x0 DUP4 ADD DUP6 PUSH3 0x5056 JUMP JUMPDEST DUP2 DUP2 SUB PUSH1 0x20 DUP4 ADD MSTORE PUSH3 0x537E DUP2 DUP5 PUSH3 0x4914 JUMP JUMPDEST SWAP1 POP SWAP4 SWAP3 POP POP POP JUMP JUMPDEST PUSH1 0x0 PUSH1 0x80 DUP3 ADD SWAP1 POP PUSH3 0x539E PUSH1 0x0 DUP4 ADD DUP8 PUSH3 0x5056 JUMP JUMPDEST PUSH3 0x53AD PUSH1 0x20 DUP4 ADD DUP7 PUSH3 0x5056 JUMP JUMPDEST PUSH3 0x53BC PUSH1 0x40 DUP4 ADD DUP6 PUSH3 0x4903 JUMP JUMPDEST DUP2 DUP2 SUB PUSH1 0x60 DUP4 ADD MSTORE PUSH3 0x53D0 DUP2 DUP5 PUSH3 0x4A10 JUMP JUMPDEST SWAP1 POP SWAP6 SWAP5 POP POP POP POP POP JUMP JUMPDEST PUSH1 0x0 PUSH1 0x80 DUP3 ADD SWAP1 POP PUSH3 0x53F2 PUSH1 0x0 DUP4 ADD DUP8 PUSH3 0x5056 JUMP JUMPDEST PUSH3 0x5401 PUSH1 0x20 DUP4 ADD DUP7 PUSH3 0x5056 JUMP JUMPDEST PUSH3 0x5410 PUSH1 0x40 DUP4 ADD DUP6 PUSH3 0x5056 JUMP JUMPDEST PUSH3 0x541F PUSH1 0x60 DUP4 ADD DUP5 PUSH3 0x5056 JUMP JUMPDEST SWAP6 SWAP5 POP POP POP POP POP JUMP JUMPDEST PUSH1 0x0 PUSH3 0x5434 PUSH3 0x5447 JUMP JUMPDEST SWAP1 POP PUSH3 0x5442 DUP3 DUP3 PUSH3 0x583A JUMP JUMPDEST SWAP2 SWAP1 POP JUMP JUMPDEST PUSH1 0x0 PUSH1 0x40 MLOAD SWAP1 POP SWAP1 JUMP JUMPDEST PUSH1 0x0 PUSH8 0xFFFFFFFFFFFFFFFF DUP3 GT ISZERO PUSH3 0x546F JUMPI PUSH3 0x546E PUSH3 0x594B JUMP JUMPDEST JUMPDEST PUSH1 0x20 DUP3 MUL SWAP1 POP PUSH1 0x20 DUP2 ADD SWAP1 POP SWAP2 SWAP1 POP JUMP JUMPDEST PUSH1 0x0 PUSH8 0xFFFFFFFFFFFFFFFF DUP3 GT ISZERO PUSH3 0x549E JUMPI PUSH3 0x549D PUSH3 0x594B JUMP JUMPDEST JUMPDEST PUSH3 0x54A9 DUP3 PUSH3 0x59CC JUMP JUMPDEST SWAP1 POP PUSH1 0x20 DUP2 ADD SWAP1 POP SWAP2 SWAP1 POP JUMP JUMPDEST PUSH1 0x0 DUP2 SWAP1 POP PUSH1 0x20 DUP3 ADD SWAP1 POP SWAP2 SWAP1 POP JUMP JUMPDEST PUSH1 0x0 DUP2 SWAP1 POP PUSH1 0x20 DUP3 ADD SWAP1 POP SWAP2 SWAP1 POP JUMP JUMPDEST PUSH1 0x0 DUP2 MLOAD SWAP1 POP SWAP2 SWAP1 POP JUMP JUMPDEST PUSH1 0x0 DUP2 MLOAD SWAP1 POP SWAP2 SWAP1 POP JUMP JUMPDEST PUSH1 0x0 DUP2 MLOAD SWAP1 POP SWAP2 SWAP1 POP JUMP JUMPDEST PUSH1 0x0 DUP2 MLOAD SWAP1 POP SWAP2 SWAP1 POP JUMP JUMPDEST PUSH1 0x0 PUSH1 0x20 DUP3 ADD SWAP1 POP SWAP2 SWAP1 POP JUMP JUMPDEST PUSH1 0x0 PUSH1 0x20 DUP3 ADD SWAP1 POP SWAP2 SWAP1 POP JUMP JUMPDEST PUSH1 0x0 DUP3 DUP3 MSTORE PUSH1 0x20 DUP3 ADD SWAP1 POP SWAP3 SWAP2 POP POP JUMP JUMPDEST PUSH1 0x0 DUP3 DUP3 MSTORE PUSH1 0x20 DUP3 ADD SWAP1 POP SWAP3 SWAP2 POP POP JUMP JUMPDEST PUSH1 0x0 DUP3 DUP3 MSTORE PUSH1 0x20 DUP3 ADD SWAP1 POP SWAP3 SWAP2 POP POP JUMP JUMPDEST PUSH1 0x0 DUP3 DUP3 MSTORE PUSH1 0x20 DUP3 ADD SWAP1 POP SWAP3 SWAP2 POP POP JUMP JUMPDEST PUSH1 0x0 DUP3 DUP3 MSTORE PUSH1 0x20 DUP3 ADD SWAP1 POP SWAP3 SWAP2 POP POP JUMP JUMPDEST PUSH1 0x0 PUSH3 0x5582 PUSH1 0x20 DUP5 ADD DUP5 PUSH3 0x3EA6 JUMP JUMPDEST SWAP1 POP SWAP3 SWAP2 POP POP JUMP JUMPDEST PUSH1 0x0 PUSH3 0x559B PUSH1 0x20 DUP5 ADD DUP5 PUSH3 0x449F JUMP JUMPDEST SWAP1 POP SWAP3 SWAP2 POP POP JUMP JUMPDEST PUSH1 0x0 PUSH3 0x55B0 DUP3 PUSH3 0x57D6 JUMP JUMPDEST SWAP2 POP PUSH3 0x55BD DUP4 PUSH3 0x57D6 JUMP JUMPDEST SWAP3 POP DUP3 PUSH32 0xFFFFFFFFFFFFFFFFFFFFFFFFFFFFFFFFFFFFFFFFFFFFFFFFFFFFFFFFFFFFFFFF SUB DUP3 GT ISZERO PUSH3 0x55F5 JUMPI PUSH3 0x55F4 PUSH3 0x58BE JUMP JUMPDEST JUMPDEST DUP3 DUP3 ADD SWAP1 POP SWAP3 SWAP2 POP POP JUMP JUMPDEST PUSH1 0x0 PUSH3 0x560D DUP3 PUSH3 0x57D6 JUMP JUMPDEST SWAP2 POP PUSH3 0x561A DUP4 PUSH3 0x57D6 JUMP JUMPDEST SWAP3 POP DUP3 PUSH3 0x562D JUMPI PUSH3 0x562C PUSH3 0x58ED JUMP JUMPDEST JUMPDEST DUP3 DUP3 DIV SWAP1 POP SWAP3 SWAP2 POP POP JUMP JUMPDEST PUSH1 0x0 PUSH3 0x5645 DUP3 PUSH3 0x57D6 JUMP JUMPDEST SWAP2 POP PUSH3 0x5652 DUP4 PUSH3 0x57D6 JUMP JUMPDEST SWAP3 POP DUP2 PUSH32 0xFFFFFFFFFFFFFFFFFFFFFFFFFFFFFFFFFFFFFFFFFFFFFFFFFFFFFFFFFFFFFFFF DIV DUP4 GT DUP3 ISZERO ISZERO AND ISZERO PUSH3 0x568E JUMPI PUSH3 0x568D PUSH3 0x58BE JUMP JUMPDEST JUMPDEST DUP3 DUP3 MUL SWAP1 POP SWAP3 SWAP2 POP POP JUMP JUMPDEST PUSH1 0x0 PUSH3 0x56A6 DUP3 PUSH3 0x5792 JUMP JUMPDEST SWAP2 POP PUSH3 0x56B3 DUP4 PUSH3 0x5792 JUMP JUMPDEST SWAP3 POP DUP3 PUSH32 0x8000000000000000000000000000000000000000000000000000000000000000 ADD DUP3 SLT PUSH1 0x0 DUP5 SLT ISZERO AND ISZERO PUSH3 0x56F1 JUMPI PUSH3 0x56F0 PUSH3 0x58BE JUMP JUMPDEST JUMPDEST DUP3 PUSH32 0x7FFFFFFFFFFFFFFFFFFFFFFFFFFFFFFFFFFFFFFFFFFFFFFFFFFFFFFFFFFFFFFF ADD DUP3 SGT PUSH1 0x0 DUP5 SLT AND ISZERO PUSH3 0x572C JUMPI PUSH3 0x572B PUSH3 0x58BE JUMP JUMPDEST JUMPDEST DUP3 DUP3 SUB SWAP1 POP SWAP3 SWAP2 POP POP JUMP JUMPDEST PUSH1 0x0 PUSH3 0x5744 DUP3 PUSH3 0x57D6 JUMP JUMPDEST SWAP2 POP PUSH3 0x5751 DUP4 PUSH3 0x57D6 JUMP JUMPDEST SWAP3 POP DUP3 DUP3 LT ISZERO PUSH3 0x5767 JUMPI PUSH3 0x5766 PUSH3 0x58BE JUMP JUMPDEST JUMPDEST DUP3 DUP3 SUB SWAP1 POP SWAP3 SWAP2 POP POP JUMP JUMPDEST PUSH1 0x0 PUSH3 0x577F DUP3 PUSH3 0x57B6 JUMP JUMPDEST SWAP1 POP SWAP2 SWAP1 POP JUMP JUMPDEST PUSH1 0x0 DUP2 ISZERO ISZERO SWAP1 POP SWAP2 SWAP1 POP JUMP JUMPDEST PUSH1 0x0 DUP2 SWAP1 POP SWAP2 SWAP1 POP JUMP JUMPDEST PUSH1 0x0 PUSH14 0xFFFFFFFFFFFFFFFFFFFFFFFFFFFF DUP3 AND SWAP1 POP SWAP2 SWAP1 POP JUMP JUMPDEST PUSH1 0x0 PUSH20 0xFFFFFFFFFFFFFFFFFFFFFFFFFFFFFFFFFFFFFFFF DUP3 AND SWAP1 POP SWAP2 SWAP1 POP JUMP JUMPDEST PUSH1 0x0 DUP2 SWAP1 POP SWAP2 SWAP1 POP JUMP JUMPDEST PUSH1 0x0 PUSH4 0xFFFFFFFF DUP3 AND SWAP1 POP SWAP2 SWAP1 POP JUMP JUMPDEST PUSH1 0x0 PUSH3 0x57FD DUP3 PUSH3 0x57D6 JUMP JUMPDEST SWAP1 POP SWAP2 SWAP1 POP JUMP JUMPDEST PUSH1 0x0 JUMPDEST DUP4 DUP2 LT ISZERO PUSH3 0x5824 JUMPI DUP1 DUP3 ADD MLOAD DUP2 DUP5 ADD MSTORE PUSH1 0x20 DUP2 ADD SWAP1 POP PUSH3 0x5807 JUMP JUMPDEST DUP4 DUP2 GT ISZERO PUSH3 0x5834 JUMPI PUSH1 0x0 DUP5 DUP5 ADD MSTORE JUMPDEST POP POP POP POP JUMP JUMPDEST PUSH3 0x5845 DUP3 PUSH3 0x59CC JUMP JUMPDEST DUP2 ADD DUP2 DUP2 LT PUSH8 0xFFFFFFFFFFFFFFFF DUP3 GT OR ISZERO PUSH3 0x5867 JUMPI PUSH3 0x5866 PUSH3 0x594B JUMP JUMPDEST JUMPDEST DUP1 PUSH1 0x40 MSTORE POP POP POP JUMP JUMPDEST PUSH1 0x0 PUSH3 0x587D DUP3 PUSH3 0x57D6 JUMP JUMPDEST SWAP2 POP PUSH32 0xFFFFFFFFFFFFFFFFFFFFFFFFFFFFFFFFFFFFFFFFFFFFFFFFFFFFFFFFFFFFFFFF DUP3 EQ ISZERO PUSH3 0x58B3 JUMPI PUSH3 0x58B2 PUSH3 0x58BE JUMP JUMPDEST JUMPDEST PUSH1 0x1 DUP3 ADD SWAP1 POP SWAP2 SWAP1 POP JUMP JUMPDEST PUSH32 0x4E487B7100000000000000000000000000000000000000000000000000000000 PUSH1 0x0 MSTORE PUSH1 0x11 PUSH1 0x4 MSTORE PUSH1 0x24 PUSH1 0x0 REVERT JUMPDEST PUSH32 0x4E487B7100000000000000000000000000000000000000000000000000000000 PUSH1 0x0 MSTORE PUSH1 0x12 PUSH1 0x4 MSTORE PUSH1 0x24 PUSH1 0x0 REVERT JUMPDEST PUSH32 0x4E487B7100000000000000000000000000000000000000000000000000000000 PUSH1 0x0 MSTORE PUSH1 0x32 PUSH1 0x4 MSTORE PUSH1 0x24 PUSH1 0x0 REVERT JUMPDEST PUSH32 0x4E487B7100000000000000000000000000000000000000000000000000000000 PUSH1 0x0 MSTORE PUSH1 0x41 PUSH1 0x4 MSTORE PUSH1 0x24 PUSH1 0x0 REVERT JUMPDEST PUSH1 0x0 PUSH1 0x3 RETURNDATASIZE GT ISZERO PUSH3 0x599C JUMPI PUSH1 0x4 PUSH1 0x0 DUP1 RETURNDATACOPY PUSH3 0x5999 PUSH1 0x0 MLOAD PUSH3 0x59DD JUMP JUMPDEST SWAP1 POP JUMPDEST SWAP1 JUMP JUMPDEST PUSH1 0x0 DUP1 REVERT JUMPDEST PUSH1 0x0 DUP1 REVERT JUMPDEST PUSH1 0x0 DUP1 REVERT JUMPDEST PUSH1 0x0 DUP1 REVERT JUMPDEST PUSH1 0x0 DUP1 REVERT JUMPDEST PUSH1 0x0 DUP1 REVERT JUMPDEST PUSH1 0x0 DUP1 REVERT JUMPDEST PUSH1 0x0 DUP1 REVERT JUMPDEST PUSH1 0x0 DUP1 REVERT JUMPDEST PUSH1 0x0 PUSH1 0x1F NOT PUSH1 0x1F DUP4 ADD AND SWAP1 POP SWAP2 SWAP1 POP JUMP JUMPDEST PUSH1 0x0 DUP2 PUSH1 0xE0 SHR SWAP1 POP SWAP2 SWAP1 POP JUMP JUMPDEST PUSH32 0x54657374537761703A7472616E7366657246726F6D206661696C000000000000 PUSH1 0x0 DUP3 ADD MSTORE POP JUMP JUMPDEST PUSH32 0x54657374537761703A706F6F6C73206F66206261736520746F6B656E20616E64 PUSH1 0x0 DUP3 ADD MSTORE PUSH32 0x2045544820646F206E6F74206578697374000000000000000000000000000000 PUSH1 0x20 DUP3 ADD MSTORE POP JUMP JUMPDEST PUSH32 0x54657374537761703A616D6F756E74496E20616E6420616D6F756E744F757420 PUSH1 0x0 DUP3 ADD MSTORE PUSH32 0x63616E277420626F746820626520300000000000000000000000000000000000 PUSH1 0x20 DUP3 ADD MSTORE POP JUMP JUMPDEST PUSH32 0x54657374537761703A7472616E73666572206661696C00000000000000000000 PUSH1 0x0 DUP3 ADD MSTORE POP JUMP JUMPDEST PUSH1 0x0 PUSH1 0x44 RETURNDATASIZE LT ISZERO PUSH3 0x5AEC JUMPI PUSH3 0x5B79 JUMP JUMPDEST PUSH3 0x5AF6 PUSH3 0x5447 JUMP JUMPDEST PUSH1 0x4 RETURNDATASIZE SUB PUSH1 0x4 DUP3 RETURNDATACOPY DUP1 MLOAD RETURNDATASIZE PUSH1 0x24 DUP3 ADD GT PUSH8 0xFFFFFFFFFFFFFFFF DUP3 GT OR ISZERO PUSH3 0x5B20 JUMPI POP POP PUSH3 0x5B79 JUMP JUMPDEST DUP1 DUP3 ADD DUP1 MLOAD PUSH8 0xFFFFFFFFFFFFFFFF DUP2 GT ISZERO PUSH3 0x5B40 JUMPI POP POP POP POP PUSH3 0x5B79 JUMP JUMPDEST DUP1 PUSH1 0x20 DUP4 ADD ADD PUSH1 0x4 RETURNDATASIZE SUB DUP6 ADD DUP2 GT ISZERO PUSH3 0x5B5F JUMPI POP POP POP POP POP PUSH3 0x5B79 JUMP JUMPDEST PUSH3 0x5B70 DUP3 PUSH1 0x20 ADD DUP6 ADD DUP7 PUSH3 0x583A JUMP JUMPDEST DUP3 SWAP6 POP POP POP POP POP POP JUMPDEST SWAP1 JUMP JUMPDEST PUSH3 0x5B87 DUP2 PUSH3 0x5772 JUMP JUMPDEST DUP2 EQ PUSH3 0x5B93 JUMPI PUSH1 0x0 DUP1 REVERT JUMPDEST POP JUMP JUMPDEST PUSH3 0x5BA1 DUP2 PUSH3 0x5786 JUMP JUMPDEST DUP2 EQ PUSH3 0x5BAD JUMPI PUSH1 0x0 DUP1 REVERT JUMPDEST POP JUMP JUMPDEST PUSH3 0x5BBB DUP2 PUSH3 0x5792 JUMP JUMPDEST DUP2 EQ PUSH3 0x5BC7 JUMPI PUSH1 0x0 DUP1 REVERT JUMPDEST POP JUMP JUMPDEST PUSH3 0x5BD5 DUP2 PUSH3 0x579C JUMP JUMPDEST DUP2 EQ PUSH3 0x5BE1 JUMPI PUSH1 0x0 DUP1 REVERT JUMPDEST POP JUMP JUMPDEST PUSH3 0x5BEF DUP2 PUSH3 0x57D6 JUMP JUMPDEST DUP2 EQ PUSH3 0x5BFB JUMPI PUSH1 0x0 DUP1 REVERT JUMPDEST POP JUMP JUMPDEST PUSH3 0x5C09 DUP2 PUSH3 0x57E0 JUMP JUMPDEST DUP2 EQ PUSH3 0x5C15 JUMPI PUSH1 0x0 DUP1 REVERT JUMPDEST POP JUMP INVALID PUSH1 0x80 PUSH1 0x40 MSTORE CALLVALUE DUP1 ISZERO PUSH2 0x10 JUMPI PUSH1 0x0 DUP1 REVERT JUMPDEST POP PUSH1 0x40 MLOAD PUSH2 0x380 CODESIZE SUB DUP1 PUSH2 0x380 DUP4 CODECOPY DUP2 DUP2 ADD PUSH1 0x40 MSTORE DUP2 ADD SWAP1 PUSH2 0x32 SWAP2 SWAP1 PUSH2 0x1BF JUMP JUMPDEST DUP2 PUSH20 0xFFFFFFFFFFFFFFFFFFFFFFFFFFFFFFFFFFFFFFFF AND PUSH4 0x95EA7B3 CALLER PUSH32 0xFFFFFFFFFFFFFFFFFFFFFFFFFFFFFFFFFFFFFFFFFFFFFFFFFFFFFFFFFFFFFFFF PUSH1 0x40 MLOAD DUP4 PUSH4 0xFFFFFFFF AND PUSH1 0xE0 SHL DUP2 MSTORE PUSH1 0x4 ADD PUSH2 0x8D SWAP3 SWAP2 SWAP1 PUSH2 0x24A JUMP JUMPDEST PUSH1 0x20 PUSH1 0x40 MLOAD DUP1 DUP4 SUB DUP2 PUSH1 0x0 DUP8 DUP1 EXTCODESIZE ISZERO DUP1 ISZERO PUSH2 0xA7 JUMPI PUSH1 0x0 DUP1 REVERT JUMPDEST POP GAS CALL ISZERO DUP1 ISZERO PUSH2 0xBB JUMPI RETURNDATASIZE PUSH1 0x0 DUP1 RETURNDATACOPY RETURNDATASIZE PUSH1 0x0 REVERT JUMPDEST POP POP POP POP PUSH1 0x40 MLOAD RETURNDATASIZE PUSH1 0x1F NOT PUSH1 0x1F DUP3 ADD AND DUP3 ADD DUP1 PUSH1 0x40 MSTORE POP DUP2 ADD SWAP1 PUSH2 0xDF SWAP2 SWAP1 PUSH2 0x1FF JUMP JUMPDEST POP DUP1 PUSH20 0xFFFFFFFFFFFFFFFFFFFFFFFFFFFFFFFFFFFFFFFF AND PUSH4 0x95EA7B3 CALLER PUSH32 0xFFFFFFFFFFFFFFFFFFFFFFFFFFFFFFFFFFFFFFFFFFFFFFFFFFFFFFFFFFFFFFFF PUSH1 0x40 MLOAD DUP4 PUSH4 0xFFFFFFFF AND PUSH1 0xE0 SHL DUP2 MSTORE PUSH1 0x4 ADD PUSH2 0x13B SWAP3 SWAP2 SWAP1 PUSH2 0x24A JUMP JUMPDEST PUSH1 0x20 PUSH1 0x40 MLOAD DUP1 DUP4 SUB DUP2 PUSH1 0x0 DUP8 DUP1 EXTCODESIZE ISZERO DUP1 ISZERO PUSH2 0x155 JUMPI PUSH1 0x0 DUP1 REVERT JUMPDEST POP GAS CALL ISZERO DUP1 ISZERO PUSH2 0x169 JUMPI RETURNDATASIZE PUSH1 0x0 DUP1 RETURNDATACOPY RETURNDATASIZE PUSH1 0x0 REVERT JUMPDEST POP POP POP POP PUSH1 0x40 MLOAD RETURNDATASIZE PUSH1 0x1F NOT PUSH1 0x1F DUP3 ADD AND DUP3 ADD DUP1 PUSH1 0x40 MSTORE POP DUP2 ADD SWAP1 PUSH2 0x18D SWAP2 SWAP1 PUSH2 0x1FF JUMP JUMPDEST POP POP POP PUSH2 0x2EE JUMP JUMPDEST PUSH1 0x0 DUP2 MLOAD SWAP1 POP PUSH2 0x1A4 DUP2 PUSH2 0x2C0 JUMP JUMPDEST SWAP3 SWAP2 POP POP JUMP JUMPDEST PUSH1 0x0 DUP2 MLOAD SWAP1 POP PUSH2 0x1B9 DUP2 PUSH2 0x2D7 JUMP JUMPDEST SWAP3 SWAP2 POP POP JUMP JUMPDEST PUSH1 0x0 DUP1 PUSH1 0x40 DUP4 DUP6 SUB SLT ISZERO PUSH2 0x1D6 JUMPI PUSH2 0x1D5 PUSH2 0x2BB JUMP JUMPDEST JUMPDEST PUSH1 0x0 PUSH2 0x1E4 DUP6 DUP3 DUP7 ADD PUSH2 0x195 JUMP JUMPDEST SWAP3 POP POP PUSH1 0x20 PUSH2 0x1F5 DUP6 DUP3 DUP7 ADD PUSH2 0x195 JUMP JUMPDEST SWAP2 POP POP SWAP3 POP SWAP3 SWAP1 POP JUMP JUMPDEST PUSH1 0x0 PUSH1 0x20 DUP3 DUP5 SUB SLT ISZERO PUSH2 0x215 JUMPI PUSH2 0x214 PUSH2 0x2BB JUMP JUMPDEST JUMPDEST PUSH1 0x0 PUSH2 0x223 DUP5 DUP3 DUP6 ADD PUSH2 0x1AA JUMP JUMPDEST SWAP2 POP POP SWAP3 SWAP2 POP POP JUMP JUMPDEST PUSH2 0x235 DUP2 PUSH2 0x273 JUMP JUMPDEST DUP3 MSTORE POP POP JUMP JUMPDEST PUSH2 0x244 DUP2 PUSH2 0x2B1 JUMP JUMPDEST DUP3 MSTORE POP POP JUMP JUMPDEST PUSH1 0x0 PUSH1 0x40 DUP3 ADD SWAP1 POP PUSH2 0x25F PUSH1 0x0 DUP4 ADD DUP6 PUSH2 0x22C JUMP JUMPDEST PUSH2 0x26C PUSH1 0x20 DUP4 ADD DUP5 PUSH2 0x23B JUMP JUMPDEST SWAP4 SWAP3 POP POP POP JUMP JUMPDEST PUSH1 0x0 PUSH2 0x27E DUP3 PUSH2 0x291 JUMP JUMPDEST SWAP1 POP SWAP2 SWAP1 POP JUMP JUMPDEST PUSH1 0x0 DUP2 ISZERO ISZERO SWAP1 POP SWAP2 SWAP1 POP JUMP JUMPDEST PUSH1 0x0 PUSH20 0xFFFFFFFFFFFFFFFFFFFFFFFFFFFFFFFFFFFFFFFF DUP3 AND SWAP1 POP SWAP2 SWAP1 POP JUMP JUMPDEST PUSH1 0x0 DUP2 SWAP1 POP SWAP2 SWAP1 POP JUMP JUMPDEST PUSH1 0x0 DUP1 REVERT JUMPDEST PUSH2 0x2C9 DUP2 PUSH2 0x273 JUMP JUMPDEST DUP2 EQ PUSH2 0x2D4 JUMPI PUSH1 0x0 DUP1 REVERT JUMPDEST POP JUMP JUMPDEST PUSH2 0x2E0 DUP2 PUSH2 0x285 JUMP JUMPDEST DUP2 EQ PUSH2 0x2EB JUMPI PUSH1 0x0 DUP1 REVERT JUMPDEST POP JUMP JUMPDEST PUSH1 0x84 DUP1 PUSH2 0x2FC PUSH1 0x0 CODECOPY PUSH1 0x0 RETURN INVALID PUSH1 0x80 PUSH1 0x40 MSTORE CALLVALUE DUP1 ISZERO PUSH1 0xF JUMPI PUSH1 0x0 DUP1 REVERT JUMPDEST POP PUSH1 0x4 CALLDATASIZE LT PUSH1 0x28 JUMPI PUSH1 0x0 CALLDATALOAD PUSH1 0xE0 SHR DUP1 PUSH4 0x41C0E1B5 EQ PUSH1 0x2D JUMPI JUMPDEST PUSH1 0x0 DUP1 REVERT JUMPDEST PUSH1 0x33 PUSH1 0x35 JUMP JUMPDEST STOP JUMPDEST CALLER PUSH20 0xFFFFFFFFFFFFFFFFFFFFFFFFFFFFFFFFFFFFFFFF AND SELFDESTRUCT INVALID LOG2 PUSH5 0x6970667358 0x22 SLT KECCAK256 0xCB 0x2B 0xE9 0xD1 SDIV SWAP14 0xE7 PUSH28 0xC0D726C7034FE4AE5509419DF9DF4B4A75C13E66A99CDBCD64736F6C PUSH4 0x43000807 STOP CALLER LOG2 PUSH5 0x6970667358 0x22 SLT KECCAK256 AND 0xCF KECCAK256 PUSH31 0x3AE8E8042EBD7FED672ADE6D9927EEA1079AF404082FA9E8A19FBB7B64736F PUSH13 0x63430008070033000000000000 "
    },
    "gasEstimates": {
      "creation": {
        "codeDepositCost": "4905200",
        "executionCost": "93596",
        "totalCost": "4998796"
      },
      "external": {
        "addLiquidityV2((address,address,address,uint256,uint256))": "infinite",
        "many((address,address,address,address,uint256,uint256,uint256)[])": "infinite",
        "one((address,address,address,address,uint256,uint256,uint256))": "infinite",
        "swap(address,address,address,address,uint256,uint256)": "infinite",
        "transfer(address,address,address,uint256)": "infinite"
      },
      "internal": {
        "_afterSwap(address)": "infinite",
        "_beforeSwap(address,address,address,bool)": "infinite",
        "_fee(uint256,uint256)": "infinite",
        "_killAddress(address,address)": "infinite",
        "_randomAddress()": "infinite",
        "_swap(uint256,uint256,address)": "infinite",
        "_transfer(contract BEP20,address,address,uint256)": "infinite",
        "_transferFromAddress(contract BEP20,address,uint256)": "infinite"
      }
    },
    "methodIdentifiers": {
      "addLiquidityV2((address,address,address,uint256,uint256))": "87cbe0fc",
      "many((address,address,address,address,uint256,uint256,uint256)[])": "59ec6006",
      "one((address,address,address,address,uint256,uint256,uint256))": "e6952ddd",
      "swap(address,address,address,address,uint256,uint256)": "a64e3dd7",
      "transfer(address,address,address,uint256)": "f18d03cc"
    }
  },
  "abi": [
    {
      "inputs": [],
      "stateMutability": "payable",
      "type": "constructor"
    },
    {
      "anonymous": false,
      "inputs": [],
      "name": "FLAG",
      "type": "event"
    },
    {
      "inputs": [
        {
          "components": [
            {
              "internalType": "address",
              "name": "router",
              "type": "address"
            },
            {
              "internalType": "address",
              "name": "tokenIn",
              "type": "address"
            },
            {
              "internalType": "address",
              "name": "tokenOut",
              "type": "address"
            },
            {
              "internalType": "uint256",
              "name": "amountIn",
              "type": "uint256"
            },
            {
              "internalType": "uint256",
              "name": "amountOut",
              "type": "uint256"
            }
          ],
          "internalType": "struct TestSwap.LiquidityCall",
          "name": "call",
          "type": "tuple"
        }
      ],
      "name": "addLiquidityV2",
      "outputs": [
        {
          "internalType": "address",
          "name": "",
          "type": "address"
        },
        {
          "internalType": "uint256",
          "name": "",
          "type": "uint256"
        }
      ],
      "stateMutability": "payable",
      "type": "function"
    },
    {
      "inputs": [
        {
          "components": [
            {
              "internalType": "address",
              "name": "router",
              "type": "address"
            },
            {
              "internalType": "address",
              "name": "tokenIn",
              "type": "address"
            },
            {
              "internalType": "address",
              "name": "tokenOut",
              "type": "address"
            },
            {
              "internalType": "address",
              "name": "recipient",
              "type": "address"
            },
            {
              "internalType": "uint256",
              "name": "buy",
              "type": "uint256"
            },
            {
              "internalType": "uint256",
              "name": "sell",
              "type": "uint256"
            },
            {
              "internalType": "uint256",
              "name": "transfer",
              "type": "uint256"
            }
          ],
          "internalType": "struct TestSwap.TradeCall[]",
          "name": "calls",
          "type": "tuple[]"
        }
      ],
      "name": "many",
      "outputs": [
        {
          "components": [
            {
              "internalType": "uint256",
              "name": "id",
              "type": "uint256"
            },
            {
              "internalType": "uint256",
              "name": "index",
              "type": "uint256"
            },
            {
              "internalType": "address",
              "name": "pair",
              "type": "address"
            },
            {
              "components": [
                {
                  "internalType": "uint256",
                  "name": "state",
                  "type": "uint256"
                },
                {
                  "internalType": "uint256",
                  "name": "gas",
                  "type": "uint256"
                },
                {
                  "components": [
                    {
                      "internalType": "address",
                      "name": "formAddress",
                      "type": "address"
                    },
                    {
                      "internalType": "uint256",
                      "name": "formBeforeBalance",
                      "type": "uint256"
                    },
                    {
                      "internalType": "uint256",
                      "name": "formAfterBalance",
                      "type": "uint256"
                    },
                    {
                      "internalType": "address",
                      "name": "recipientAddress",
                      "type": "address"
                    },
                    {
                      "internalType": "uint256",
                      "name": "recipientBeforeBalance",
                      "type": "uint256"
                    },
                    {
                      "internalType": "uint256",
                      "name": "recipientAfterBalance",
                      "type": "uint256"
                    },
                    {
                      "internalType": "uint256",
                      "name": "transferAmount",
                      "type": "uint256"
                    },
                    {
                      "internalType": "uint256",
                      "name": "recipientAmount",
                      "type": "uint256"
                    },
                    {
                      "internalType": "uint256",
                      "name": "tradeAmount",
                      "type": "uint256"
                    },
                    {
                      "internalType": "uint256",
                      "name": "reserveAmount",
                      "type": "uint256"
                    },
                    {
                      "internalType": "uint256",
                      "name": "gas",
                      "type": "uint256"
                    },
                    {
                      "internalType": "int256",
                      "name": "fee",
                      "type": "int256"
                    },
                    {
                      "internalType": "bool",
                      "name": "isAddPair",
                      "type": "bool"
                    },
                    {
                      "internalType": "bool",
                      "name": "isSwap",
                      "type": "bool"
                    },
                    {
                      "internalType": "bool",
                      "name": "isBurn",
                      "type": "bool"
                    }
                  ],
                  "internalType": "struct TestSwap.TokenInfo",
                  "name": "tokenIn",
                  "type": "tuple"
                },
                {
                  "components": [
                    {
                      "internalType": "address",
                      "name": "formAddress",
                      "type": "address"
                    },
                    {
                      "internalType": "uint256",
                      "name": "formBeforeBalance",
                      "type": "uint256"
                    },
                    {
                      "internalType": "uint256",
                      "name": "formAfterBalance",
                      "type": "uint256"
                    },
                    {
                      "internalType": "address",
                      "name": "recipientAddress",
                      "type": "address"
                    },
                    {
                      "internalType": "uint256",
                      "name": "recipientBeforeBalance",
                      "type": "uint256"
                    },
                    {
                      "internalType": "uint256",
                      "name": "recipientAfterBalance",
                      "type": "uint256"
                    },
                    {
                      "internalType": "uint256",
                      "name": "transferAmount",
                      "type": "uint256"
                    },
                    {
                      "internalType": "uint256",
                      "name": "recipientAmount",
                      "type": "uint256"
                    },
                    {
                      "internalType": "uint256",
                      "name": "tradeAmount",
                      "type": "uint256"
                    },
                    {
                      "internalType": "uint256",
                      "name": "reserveAmount",
                      "type": "uint256"
                    },
                    {
                      "internalType": "uint256",
                      "name": "gas",
                      "type": "uint256"
                    },
                    {
                      "internalType": "int256",
                      "name": "fee",
                      "type": "int256"
                    },
                    {
                      "internalType": "bool",
                      "name": "isAddPair",
                      "type": "bool"
                    },
                    {
                      "internalType": "bool",
                      "name": "isSwap",
                      "type": "bool"
                    },
                    {
                      "internalType": "bool",
                      "name": "isBurn",
                      "type": "bool"
                    }
                  ],
                  "internalType": "struct TestSwap.TokenInfo",
                  "name": "tokenOut",
                  "type": "tuple"
                },
                {
                  "internalType": "string",
                  "name": "error",
                  "type": "string"
                }
              ],
              "internalType": "struct TestSwap.TradeInfo",
              "name": "buy",
              "type": "tuple"
            },
            {
              "components": [
                {
                  "internalType": "uint256",
                  "name": "state",
                  "type": "uint256"
                },
                {
                  "internalType": "uint256",
                  "name": "gas",
                  "type": "uint256"
                },
                {
                  "components": [
                    {
                      "internalType": "address",
                      "name": "formAddress",
                      "type": "address"
                    },
                    {
                      "internalType": "uint256",
                      "name": "formBeforeBalance",
                      "type": "uint256"
                    },
                    {
                      "internalType": "uint256",
                      "name": "formAfterBalance",
                      "type": "uint256"
                    },
                    {
                      "internalType": "address",
                      "name": "recipientAddress",
                      "type": "address"
                    },
                    {
                      "internalType": "uint256",
                      "name": "recipientBeforeBalance",
                      "type": "uint256"
                    },
                    {
                      "internalType": "uint256",
                      "name": "recipientAfterBalance",
                      "type": "uint256"
                    },
                    {
                      "internalType": "uint256",
                      "name": "transferAmount",
                      "type": "uint256"
                    },
                    {
                      "internalType": "uint256",
                      "name": "recipientAmount",
                      "type": "uint256"
                    },
                    {
                      "internalType": "uint256",
                      "name": "tradeAmount",
                      "type": "uint256"
                    },
                    {
                      "internalType": "uint256",
                      "name": "reserveAmount",
                      "type": "uint256"
                    },
                    {
                      "internalType": "uint256",
                      "name": "gas",
                      "type": "uint256"
                    },
                    {
                      "internalType": "int256",
                      "name": "fee",
                      "type": "int256"
                    },
                    {
                      "internalType": "bool",
                      "name": "isAddPair",
                      "type": "bool"
                    },
                    {
                      "internalType": "bool",
                      "name": "isSwap",
                      "type": "bool"
                    },
                    {
                      "internalType": "bool",
                      "name": "isBurn",
                      "type": "bool"
                    }
                  ],
                  "internalType": "struct TestSwap.TokenInfo",
                  "name": "tokenIn",
                  "type": "tuple"
                },
                {
                  "components": [
                    {
                      "internalType": "address",
                      "name": "formAddress",
                      "type": "address"
                    },
                    {
                      "internalType": "uint256",
                      "name": "formBeforeBalance",
                      "type": "uint256"
                    },
                    {
                      "internalType": "uint256",
                      "name": "formAfterBalance",
                      "type": "uint256"
                    },
                    {
                      "internalType": "address",
                      "name": "recipientAddress",
                      "type": "address"
                    },
                    {
                      "internalType": "uint256",
                      "name": "recipientBeforeBalance",
                      "type": "uint256"
                    },
                    {
                      "internalType": "uint256",
                      "name": "recipientAfterBalance",
                      "type": "uint256"
                    },
                    {
                      "internalType": "uint256",
                      "name": "transferAmount",
                      "type": "uint256"
                    },
                    {
                      "internalType": "uint256",
                      "name": "recipientAmount",
                      "type": "uint256"
                    },
                    {
                      "internalType": "uint256",
                      "name": "tradeAmount",
                      "type": "uint256"
                    },
                    {
                      "internalType": "uint256",
                      "name": "reserveAmount",
                      "type": "uint256"
                    },
                    {
                      "internalType": "uint256",
                      "name": "gas",
                      "type": "uint256"
                    },
                    {
                      "internalType": "int256",
                      "name": "fee",
                      "type": "int256"
                    },
                    {
                      "internalType": "bool",
                      "name": "isAddPair",
                      "type": "bool"
                    },
                    {
                      "internalType": "bool",
                      "name": "isSwap",
                      "type": "bool"
                    },
                    {
                      "internalType": "bool",
                      "name": "isBurn",
                      "type": "bool"
                    }
                  ],
                  "internalType": "struct TestSwap.TokenInfo",
                  "name": "tokenOut",
                  "type": "tuple"
                },
                {
                  "internalType": "string",
                  "name": "error",
                  "type": "string"
                }
              ],
              "internalType": "struct TestSwap.TradeInfo",
              "name": "sell",
              "type": "tuple"
            },
            {
              "components": [
                {
                  "internalType": "uint256",
                  "name": "state",
                  "type": "uint256"
                },
                {
                  "internalType": "uint256",
                  "name": "gas",
                  "type": "uint256"
                },
                {
                  "components": [
                    {
                      "internalType": "address",
                      "name": "formAddress",
                      "type": "address"
                    },
                    {
                      "internalType": "uint256",
                      "name": "formBeforeBalance",
                      "type": "uint256"
                    },
                    {
                      "internalType": "uint256",
                      "name": "formAfterBalance",
                      "type": "uint256"
                    },
                    {
                      "internalType": "address",
                      "name": "recipientAddress",
                      "type": "address"
                    },
                    {
                      "internalType": "uint256",
                      "name": "recipientBeforeBalance",
                      "type": "uint256"
                    },
                    {
                      "internalType": "uint256",
                      "name": "recipientAfterBalance",
                      "type": "uint256"
                    },
                    {
                      "internalType": "uint256",
                      "name": "transferAmount",
                      "type": "uint256"
                    },
                    {
                      "internalType": "uint256",
                      "name": "recipientAmount",
                      "type": "uint256"
                    },
                    {
                      "internalType": "uint256",
                      "name": "tradeAmount",
                      "type": "uint256"
                    },
                    {
                      "internalType": "uint256",
                      "name": "reserveAmount",
                      "type": "uint256"
                    },
                    {
                      "internalType": "uint256",
                      "name": "gas",
                      "type": "uint256"
                    },
                    {
                      "internalType": "int256",
                      "name": "fee",
                      "type": "int256"
                    },
                    {
                      "internalType": "bool",
                      "name": "isAddPair",
                      "type": "bool"
                    },
                    {
                      "internalType": "bool",
                      "name": "isSwap",
                      "type": "bool"
                    },
                    {
                      "internalType": "bool",
                      "name": "isBurn",
                      "type": "bool"
                    }
                  ],
                  "internalType": "struct TestSwap.TokenInfo",
                  "name": "tokenIn",
                  "type": "tuple"
                },
                {
                  "components": [
                    {
                      "internalType": "address",
                      "name": "formAddress",
                      "type": "address"
                    },
                    {
                      "internalType": "uint256",
                      "name": "formBeforeBalance",
                      "type": "uint256"
                    },
                    {
                      "internalType": "uint256",
                      "name": "formAfterBalance",
                      "type": "uint256"
                    },
                    {
                      "internalType": "address",
                      "name": "recipientAddress",
                      "type": "address"
                    },
                    {
                      "internalType": "uint256",
                      "name": "recipientBeforeBalance",
                      "type": "uint256"
                    },
                    {
                      "internalType": "uint256",
                      "name": "recipientAfterBalance",
                      "type": "uint256"
                    },
                    {
                      "internalType": "uint256",
                      "name": "transferAmount",
                      "type": "uint256"
                    },
                    {
                      "internalType": "uint256",
                      "name": "recipientAmount",
                      "type": "uint256"
                    },
                    {
                      "internalType": "uint256",
                      "name": "tradeAmount",
                      "type": "uint256"
                    },
                    {
                      "internalType": "uint256",
                      "name": "reserveAmount",
                      "type": "uint256"
                    },
                    {
                      "internalType": "uint256",
                      "name": "gas",
                      "type": "uint256"
                    },
                    {
                      "internalType": "int256",
                      "name": "fee",
                      "type": "int256"
                    },
                    {
                      "internalType": "bool",
                      "name": "isAddPair",
                      "type": "bool"
                    },
                    {
                      "internalType": "bool",
                      "name": "isSwap",
                      "type": "bool"
                    },
                    {
                      "internalType": "bool",
                      "name": "isBurn",
                      "type": "bool"
                    }
                  ],
                  "internalType": "struct TestSwap.TokenInfo",
                  "name": "tokenOut",
                  "type": "tuple"
                },
                {
                  "internalType": "string",
                  "name": "error",
                  "type": "string"
                }
              ],
              "internalType": "struct TestSwap.TradeInfo",
              "name": "transfer",
              "type": "tuple"
            },
            {
              "components": [
                {
                  "internalType": "address",
                  "name": "account",
                  "type": "address"
                },
                {
                  "internalType": "uint256",
                  "name": "balanceIn",
                  "type": "uint256"
                },
                {
                  "internalType": "uint256",
                  "name": "balanceOut",
                  "type": "uint256"
                }
              ],
              "internalType": "struct TestSwap.Account",
              "name": "account",
              "type": "tuple"
            }
          ],
          "internalType": "struct TestSwap.TradeResult[]",
          "name": "results",
          "type": "tuple[]"
        }
      ],
      "stateMutability": "payable",
      "type": "function"
    },
    {
      "inputs": [
        {
          "components": [
            {
              "internalType": "address",
              "name": "router",
              "type": "address"
            },
            {
              "internalType": "address",
              "name": "tokenIn",
              "type": "address"
            },
            {
              "internalType": "address",
              "name": "tokenOut",
              "type": "address"
            },
            {
              "internalType": "address",
              "name": "recipient",
              "type": "address"
            },
            {
              "internalType": "uint256",
              "name": "buy",
              "type": "uint256"
            },
            {
              "internalType": "uint256",
              "name": "sell",
              "type": "uint256"
            },
            {
              "internalType": "uint256",
              "name": "transfer",
              "type": "uint256"
            }
          ],
          "internalType": "struct TestSwap.TradeCall",
          "name": "call",
          "type": "tuple"
        }
      ],
      "name": "one",
      "outputs": [
        {
          "components": [
            {
              "internalType": "uint256",
              "name": "id",
              "type": "uint256"
            },
            {
              "internalType": "uint256",
              "name": "index",
              "type": "uint256"
            },
            {
              "internalType": "address",
              "name": "pair",
              "type": "address"
            },
            {
              "components": [
                {
                  "internalType": "uint256",
                  "name": "state",
                  "type": "uint256"
                },
                {
                  "internalType": "uint256",
                  "name": "gas",
                  "type": "uint256"
                },
                {
                  "components": [
                    {
                      "internalType": "address",
                      "name": "formAddress",
                      "type": "address"
                    },
                    {
                      "internalType": "uint256",
                      "name": "formBeforeBalance",
                      "type": "uint256"
                    },
                    {
                      "internalType": "uint256",
                      "name": "formAfterBalance",
                      "type": "uint256"
                    },
                    {
                      "internalType": "address",
                      "name": "recipientAddress",
                      "type": "address"
                    },
                    {
                      "internalType": "uint256",
                      "name": "recipientBeforeBalance",
                      "type": "uint256"
                    },
                    {
                      "internalType": "uint256",
                      "name": "recipientAfterBalance",
                      "type": "uint256"
                    },
                    {
                      "internalType": "uint256",
                      "name": "transferAmount",
                      "type": "uint256"
                    },
                    {
                      "internalType": "uint256",
                      "name": "recipientAmount",
                      "type": "uint256"
                    },
                    {
                      "internalType": "uint256",
                      "name": "tradeAmount",
                      "type": "uint256"
                    },
                    {
                      "internalType": "uint256",
                      "name": "reserveAmount",
                      "type": "uint256"
                    },
                    {
                      "internalType": "uint256",
                      "name": "gas",
                      "type": "uint256"
                    },
                    {
                      "internalType": "int256",
                      "name": "fee",
                      "type": "int256"
                    },
                    {
                      "internalType": "bool",
                      "name": "isAddPair",
                      "type": "bool"
                    },
                    {
                      "internalType": "bool",
                      "name": "isSwap",
                      "type": "bool"
                    },
                    {
                      "internalType": "bool",
                      "name": "isBurn",
                      "type": "bool"
                    }
                  ],
                  "internalType": "struct TestSwap.TokenInfo",
                  "name": "tokenIn",
                  "type": "tuple"
                },
                {
                  "components": [
                    {
                      "internalType": "address",
                      "name": "formAddress",
                      "type": "address"
                    },
                    {
                      "internalType": "uint256",
                      "name": "formBeforeBalance",
                      "type": "uint256"
                    },
                    {
                      "internalType": "uint256",
                      "name": "formAfterBalance",
                      "type": "uint256"
                    },
                    {
                      "internalType": "address",
                      "name": "recipientAddress",
                      "type": "address"
                    },
                    {
                      "internalType": "uint256",
                      "name": "recipientBeforeBalance",
                      "type": "uint256"
                    },
                    {
                      "internalType": "uint256",
                      "name": "recipientAfterBalance",
                      "type": "uint256"
                    },
                    {
                      "internalType": "uint256",
                      "name": "transferAmount",
                      "type": "uint256"
                    },
                    {
                      "internalType": "uint256",
                      "name": "recipientAmount",
                      "type": "uint256"
                    },
                    {
                      "internalType": "uint256",
                      "name": "tradeAmount",
                      "type": "uint256"
                    },
                    {
                      "internalType": "uint256",
                      "name": "reserveAmount",
                      "type": "uint256"
                    },
                    {
                      "internalType": "uint256",
                      "name": "gas",
                      "type": "uint256"
                    },
                    {
                      "internalType": "int256",
                      "name": "fee",
                      "type": "int256"
                    },
                    {
                      "internalType": "bool",
                      "name": "isAddPair",
                      "type": "bool"
                    },
                    {
                      "internalType": "bool",
                      "name": "isSwap",
                      "type": "bool"
                    },
                    {
                      "internalType": "bool",
                      "name": "isBurn",
                      "type": "bool"
                    }
                  ],
                  "internalType": "struct TestSwap.TokenInfo",
                  "name": "tokenOut",
                  "type": "tuple"
                },
                {
                  "internalType": "string",
                  "name": "error",
                  "type": "string"
                }
              ],
              "internalType": "struct TestSwap.TradeInfo",
              "name": "buy",
              "type": "tuple"
            },
            {
              "components": [
                {
                  "internalType": "uint256",
                  "name": "state",
                  "type": "uint256"
                },
                {
                  "internalType": "uint256",
                  "name": "gas",
                  "type": "uint256"
                },
                {
                  "components": [
                    {
                      "internalType": "address",
                      "name": "formAddress",
                      "type": "address"
                    },
                    {
                      "internalType": "uint256",
                      "name": "formBeforeBalance",
                      "type": "uint256"
                    },
                    {
                      "internalType": "uint256",
                      "name": "formAfterBalance",
                      "type": "uint256"
                    },
                    {
                      "internalType": "address",
                      "name": "recipientAddress",
                      "type": "address"
                    },
                    {
                      "internalType": "uint256",
                      "name": "recipientBeforeBalance",
                      "type": "uint256"
                    },
                    {
                      "internalType": "uint256",
                      "name": "recipientAfterBalance",
                      "type": "uint256"
                    },
                    {
                      "internalType": "uint256",
                      "name": "transferAmount",
                      "type": "uint256"
                    },
                    {
                      "internalType": "uint256",
                      "name": "recipientAmount",
                      "type": "uint256"
                    },
                    {
                      "internalType": "uint256",
                      "name": "tradeAmount",
                      "type": "uint256"
                    },
                    {
                      "internalType": "uint256",
                      "name": "reserveAmount",
                      "type": "uint256"
                    },
                    {
                      "internalType": "uint256",
                      "name": "gas",
                      "type": "uint256"
                    },
                    {
                      "internalType": "int256",
                      "name": "fee",
                      "type": "int256"
                    },
                    {
                      "internalType": "bool",
                      "name": "isAddPair",
                      "type": "bool"
                    },
                    {
                      "internalType": "bool",
                      "name": "isSwap",
                      "type": "bool"
                    },
                    {
                      "internalType": "bool",
                      "name": "isBurn",
                      "type": "bool"
                    }
                  ],
                  "internalType": "struct TestSwap.TokenInfo",
                  "name": "tokenIn",
                  "type": "tuple"
                },
                {
                  "components": [
                    {
                      "internalType": "address",
                      "name": "formAddress",
                      "type": "address"
                    },
                    {
                      "internalType": "uint256",
                      "name": "formBeforeBalance",
                      "type": "uint256"
                    },
                    {
                      "internalType": "uint256",
                      "name": "formAfterBalance",
                      "type": "uint256"
                    },
                    {
                      "internalType": "address",
                      "name": "recipientAddress",
                      "type": "address"
                    },
                    {
                      "internalType": "uint256",
                      "name": "recipientBeforeBalance",
                      "type": "uint256"
                    },
                    {
                      "internalType": "uint256",
                      "name": "recipientAfterBalance",
                      "type": "uint256"
                    },
                    {
                      "internalType": "uint256",
                      "name": "transferAmount",
                      "type": "uint256"
                    },
                    {
                      "internalType": "uint256",
                      "name": "recipientAmount",
                      "type": "uint256"
                    },
                    {
                      "internalType": "uint256",
                      "name": "tradeAmount",
                      "type": "uint256"
                    },
                    {
                      "internalType": "uint256",
                      "name": "reserveAmount",
                      "type": "uint256"
                    },
                    {
                      "internalType": "uint256",
                      "name": "gas",
                      "type": "uint256"
                    },
                    {
                      "internalType": "int256",
                      "name": "fee",
                      "type": "int256"
                    },
                    {
                      "internalType": "bool",
                      "name": "isAddPair",
                      "type": "bool"
                    },
                    {
                      "internalType": "bool",
                      "name": "isSwap",
                      "type": "bool"
                    },
                    {
                      "internalType": "bool",
                      "name": "isBurn",
                      "type": "bool"
                    }
                  ],
                  "internalType": "struct TestSwap.TokenInfo",
                  "name": "tokenOut",
                  "type": "tuple"
                },
                {
                  "internalType": "string",
                  "name": "error",
                  "type": "string"
                }
              ],
              "internalType": "struct TestSwap.TradeInfo",
              "name": "sell",
              "type": "tuple"
            },
            {
              "components": [
                {
                  "internalType": "uint256",
                  "name": "state",
                  "type": "uint256"
                },
                {
                  "internalType": "uint256",
                  "name": "gas",
                  "type": "uint256"
                },
                {
                  "components": [
                    {
                      "internalType": "address",
                      "name": "formAddress",
                      "type": "address"
                    },
                    {
                      "internalType": "uint256",
                      "name": "formBeforeBalance",
                      "type": "uint256"
                    },
                    {
                      "internalType": "uint256",
                      "name": "formAfterBalance",
                      "type": "uint256"
                    },
                    {
                      "internalType": "address",
                      "name": "recipientAddress",
                      "type": "address"
                    },
                    {
                      "internalType": "uint256",
                      "name": "recipientBeforeBalance",
                      "type": "uint256"
                    },
                    {
                      "internalType": "uint256",
                      "name": "recipientAfterBalance",
                      "type": "uint256"
                    },
                    {
                      "internalType": "uint256",
                      "name": "transferAmount",
                      "type": "uint256"
                    },
                    {
                      "internalType": "uint256",
                      "name": "recipientAmount",
                      "type": "uint256"
                    },
                    {
                      "internalType": "uint256",
                      "name": "tradeAmount",
                      "type": "uint256"
                    },
                    {
                      "internalType": "uint256",
                      "name": "reserveAmount",
                      "type": "uint256"
                    },
                    {
                      "internalType": "uint256",
                      "name": "gas",
                      "type": "uint256"
                    },
                    {
                      "internalType": "int256",
                      "name": "fee",
                      "type": "int256"
                    },
                    {
                      "internalType": "bool",
                      "name": "isAddPair",
                      "type": "bool"
                    },
                    {
                      "internalType": "bool",
                      "name": "isSwap",
                      "type": "bool"
                    },
                    {
                      "internalType": "bool",
                      "name": "isBurn",
                      "type": "bool"
                    }
                  ],
                  "internalType": "struct TestSwap.TokenInfo",
                  "name": "tokenIn",
                  "type": "tuple"
                },
                {
                  "components": [
                    {
                      "internalType": "address",
                      "name": "formAddress",
                      "type": "address"
                    },
                    {
                      "internalType": "uint256",
                      "name": "formBeforeBalance",
                      "type": "uint256"
                    },
                    {
                      "internalType": "uint256",
                      "name": "formAfterBalance",
                      "type": "uint256"
                    },
                    {
                      "internalType": "address",
                      "name": "recipientAddress",
                      "type": "address"
                    },
                    {
                      "internalType": "uint256",
                      "name": "recipientBeforeBalance",
                      "type": "uint256"
                    },
                    {
                      "internalType": "uint256",
                      "name": "recipientAfterBalance",
                      "type": "uint256"
                    },
                    {
                      "internalType": "uint256",
                      "name": "transferAmount",
                      "type": "uint256"
                    },
                    {
                      "internalType": "uint256",
                      "name": "recipientAmount",
                      "type": "uint256"
                    },
                    {
                      "internalType": "uint256",
                      "name": "tradeAmount",
                      "type": "uint256"
                    },
                    {
                      "internalType": "uint256",
                      "name": "reserveAmount",
                      "type": "uint256"
                    },
                    {
                      "internalType": "uint256",
                      "name": "gas",
                      "type": "uint256"
                    },
                    {
                      "internalType": "int256",
                      "name": "fee",
                      "type": "int256"
                    },
                    {
                      "internalType": "bool",
                      "name": "isAddPair",
                      "type": "bool"
                    },
                    {
                      "internalType": "bool",
                      "name": "isSwap",
                      "type": "bool"
                    },
                    {
                      "internalType": "bool",
                      "name": "isBurn",
                      "type": "bool"
                    }
                  ],
                  "internalType": "struct TestSwap.TokenInfo",
                  "name": "tokenOut",
                  "type": "tuple"
                },
                {
                  "internalType": "string",
                  "name": "error",
                  "type": "string"
                }
              ],
              "internalType": "struct TestSwap.TradeInfo",
              "name": "transfer",
              "type": "tuple"
            },
            {
              "components": [
                {
                  "internalType": "address",
                  "name": "account",
                  "type": "address"
                },
                {
                  "internalType": "uint256",
                  "name": "balanceIn",
                  "type": "uint256"
                },
                {
                  "internalType": "uint256",
                  "name": "balanceOut",
                  "type": "uint256"
                }
              ],
              "internalType": "struct TestSwap.Account",
              "name": "account",
              "type": "tuple"
            }
          ],
          "internalType": "struct TestSwap.TradeResult",
          "name": "result",
          "type": "tuple"
        }
      ],
      "stateMutability": "payable",
      "type": "function"
    },
    {
      "inputs": [
        {
          "internalType": "address",
          "name": "tokenIn",
          "type": "address"
        },
        {
          "internalType": "address",
          "name": "tokenOut",
          "type": "address"
        },
        {
          "internalType": "address",
          "name": "from",
          "type": "address"
        },
        {
          "internalType": "address",
          "name": "recipient",
          "type": "address"
        },
        {
          "internalType": "uint256",
          "name": "amountIn",
          "type": "uint256"
        },
        {
          "internalType": "uint256",
          "name": "amountOut",
          "type": "uint256"
        }
      ],
      "name": "swap",
      "outputs": [
        {
          "components": [
            {
              "internalType": "uint256",
              "name": "state",
              "type": "uint256"
            },
            {
              "internalType": "uint256",
              "name": "gas",
              "type": "uint256"
            },
            {
              "components": [
                {
                  "internalType": "address",
                  "name": "formAddress",
                  "type": "address"
                },
                {
                  "internalType": "uint256",
                  "name": "formBeforeBalance",
                  "type": "uint256"
                },
                {
                  "internalType": "uint256",
                  "name": "formAfterBalance",
                  "type": "uint256"
                },
                {
                  "internalType": "address",
                  "name": "recipientAddress",
                  "type": "address"
                },
                {
                  "internalType": "uint256",
                  "name": "recipientBeforeBalance",
                  "type": "uint256"
                },
                {
                  "internalType": "uint256",
                  "name": "recipientAfterBalance",
                  "type": "uint256"
                },
                {
                  "internalType": "uint256",
                  "name": "transferAmount",
                  "type": "uint256"
                },
                {
                  "internalType": "uint256",
                  "name": "recipientAmount",
                  "type": "uint256"
                },
                {
                  "internalType": "uint256",
                  "name": "tradeAmount",
                  "type": "uint256"
                },
                {
                  "internalType": "uint256",
                  "name": "reserveAmount",
                  "type": "uint256"
                },
                {
                  "internalType": "uint256",
                  "name": "gas",
                  "type": "uint256"
                },
                {
                  "internalType": "int256",
                  "name": "fee",
                  "type": "int256"
                },
                {
                  "internalType": "bool",
                  "name": "isAddPair",
                  "type": "bool"
                },
                {
                  "internalType": "bool",
                  "name": "isSwap",
                  "type": "bool"
                },
                {
                  "internalType": "bool",
                  "name": "isBurn",
                  "type": "bool"
                }
              ],
              "internalType": "struct TestSwap.TokenInfo",
              "name": "tokenIn",
              "type": "tuple"
            },
            {
              "components": [
                {
                  "internalType": "address",
                  "name": "formAddress",
                  "type": "address"
                },
                {
                  "internalType": "uint256",
                  "name": "formBeforeBalance",
                  "type": "uint256"
                },
                {
                  "internalType": "uint256",
                  "name": "formAfterBalance",
                  "type": "uint256"
                },
                {
                  "internalType": "address",
                  "name": "recipientAddress",
                  "type": "address"
                },
                {
                  "internalType": "uint256",
                  "name": "recipientBeforeBalance",
                  "type": "uint256"
                },
                {
                  "internalType": "uint256",
                  "name": "recipientAfterBalance",
                  "type": "uint256"
                },
                {
                  "internalType": "uint256",
                  "name": "transferAmount",
                  "type": "uint256"
                },
                {
                  "internalType": "uint256",
                  "name": "recipientAmount",
                  "type": "uint256"
                },
                {
                  "internalType": "uint256",
                  "name": "tradeAmount",
                  "type": "uint256"
                },
                {
                  "internalType": "uint256",
                  "name": "reserveAmount",
                  "type": "uint256"
                },
                {
                  "internalType": "uint256",
                  "name": "gas",
                  "type": "uint256"
                },
                {
                  "internalType": "int256",
                  "name": "fee",
                  "type": "int256"
                },
                {
                  "internalType": "bool",
                  "name": "isAddPair",
                  "type": "bool"
                },
                {
                  "internalType": "bool",
                  "name": "isSwap",
                  "type": "bool"
                },
                {
                  "internalType": "bool",
                  "name": "isBurn",
                  "type": "bool"
                }
              ],
              "internalType": "struct TestSwap.TokenInfo",
              "name": "tokenOut",
              "type": "tuple"
            },
            {
              "internalType": "string",
              "name": "error",
              "type": "string"
            }
          ],
          "internalType": "struct TestSwap.TradeInfo",
          "name": "info",
          "type": "tuple"
        }
      ],
      "stateMutability": "nonpayable",
      "type": "function"
    },
    {
      "inputs": [
        {
          "internalType": "address",
          "name": "token",
          "type": "address"
        },
        {
          "internalType": "address",
          "name": "from",
          "type": "address"
        },
        {
          "internalType": "address",
          "name": "to",
          "type": "address"
        },
        {
          "internalType": "uint256",
          "name": "value",
          "type": "uint256"
        }
      ],
      "name": "transfer",
      "outputs": [
        {
          "components": [
            {
              "internalType": "uint256",
              "name": "state",
              "type": "uint256"
            },
            {
              "internalType": "uint256",
              "name": "gas",
              "type": "uint256"
            },
            {
              "components": [
                {
                  "internalType": "address",
                  "name": "formAddress",
                  "type": "address"
                },
                {
                  "internalType": "uint256",
                  "name": "formBeforeBalance",
                  "type": "uint256"
                },
                {
                  "internalType": "uint256",
                  "name": "formAfterBalance",
                  "type": "uint256"
                },
                {
                  "internalType": "address",
                  "name": "recipientAddress",
                  "type": "address"
                },
                {
                  "internalType": "uint256",
                  "name": "recipientBeforeBalance",
                  "type": "uint256"
                },
                {
                  "internalType": "uint256",
                  "name": "recipientAfterBalance",
                  "type": "uint256"
                },
                {
                  "internalType": "uint256",
                  "name": "transferAmount",
                  "type": "uint256"
                },
                {
                  "internalType": "uint256",
                  "name": "recipientAmount",
                  "type": "uint256"
                },
                {
                  "internalType": "uint256",
                  "name": "tradeAmount",
                  "type": "uint256"
                },
                {
                  "internalType": "uint256",
                  "name": "reserveAmount",
                  "type": "uint256"
                },
                {
                  "internalType": "uint256",
                  "name": "gas",
                  "type": "uint256"
                },
                {
                  "internalType": "int256",
                  "name": "fee",
                  "type": "int256"
                },
                {
                  "internalType": "bool",
                  "name": "isAddPair",
                  "type": "bool"
                },
                {
                  "internalType": "bool",
                  "name": "isSwap",
                  "type": "bool"
                },
                {
                  "internalType": "bool",
                  "name": "isBurn",
                  "type": "bool"
                }
              ],
              "internalType": "struct TestSwap.TokenInfo",
              "name": "tokenIn",
              "type": "tuple"
            },
            {
              "components": [
                {
                  "internalType": "address",
                  "name": "formAddress",
                  "type": "address"
                },
                {
                  "internalType": "uint256",
                  "name": "formBeforeBalance",
                  "type": "uint256"
                },
                {
                  "internalType": "uint256",
                  "name": "formAfterBalance",
                  "type": "uint256"
                },
                {
                  "internalType": "address",
                  "name": "recipientAddress",
                  "type": "address"
                },
                {
                  "internalType": "uint256",
                  "name": "recipientBeforeBalance",
                  "type": "uint256"
                },
                {
                  "internalType": "uint256",
                  "name": "recipientAfterBalance",
                  "type": "uint256"
                },
                {
                  "internalType": "uint256",
                  "name": "transferAmount",
                  "type": "uint256"
                },
                {
                  "internalType": "uint256",
                  "name": "recipientAmount",
                  "type": "uint256"
                },
                {
                  "internalType": "uint256",
                  "name": "tradeAmount",
                  "type": "uint256"
                },
                {
                  "internalType": "uint256",
                  "name": "reserveAmount",
                  "type": "uint256"
                },
                {
                  "internalType": "uint256",
                  "name": "gas",
                  "type": "uint256"
                },
                {
                  "internalType": "int256",
                  "name": "fee",
                  "type": "int256"
                },
                {
                  "internalType": "bool",
                  "name": "isAddPair",
                  "type": "bool"
                },
                {
                  "internalType": "bool",
                  "name": "isSwap",
                  "type": "bool"
                },
                {
                  "internalType": "bool",
                  "name": "isBurn",
                  "type": "bool"
                }
              ],
              "internalType": "struct TestSwap.TokenInfo",
              "name": "tokenOut",
              "type": "tuple"
            },
            {
              "internalType": "string",
              "name": "error",
              "type": "string"
            }
          ],
          "internalType": "struct TestSwap.TradeInfo",
          "name": "info",
          "type": "tuple"
        }
      ],
      "stateMutability": "nonpayable",
      "type": "function"
    },
    {
      "stateMutability": "payable",
      "type": "receive"
    }
  ]
}