{
  "data": {
    "bytecode": {
      "linkReferences": {},
      "object": "6080604052600080556000600155600060025530600460006101000a81548173ffffffffffffffffffffffffffffffffffffffff021916908373ffffffffffffffffffffffffffffffffffffffff160217905550615478806100626000396000f3fe608060405260043610620000495760003560e01c806359ec60061462000056578063bd698545146200008c578063e6952ddd14620000d0578063f18d03cc14620001065762000051565b366200005157005b600080fd5b6200007460048036038101906200006e919062003ae4565b6200014a565b604051620000839190620046b8565b60405180910390f35b3480156200009957600080fd5b50620000b86004803603810190620000b29190620039bf565b620002b1565b604051620000c7919062004781565b60405180910390f35b620000ee6004803603810190620000e8919062003bbc565b62000a9d565b604051620000fd9190620047a5565b60405180910390f35b3480156200011357600080fd5b506200013260048036038101906200012c919062003a72565b6200198b565b60405162000141919062004781565b60405180910390f35b60608282905067ffffffffffffffff8111156200016c576200016b62004e19565b5b604051908082528060200260200182016040528015620001a957816020015b62000195620031d3565b8152602001906001900390816200018b5790505b50905060005b83839050811015620002aa573073ffffffffffffffffffffffffffffffffffffffff1663e6952ddd858584818110620001ed57620001ec62004dea565b5b905060e002016040518263ffffffff1660e01b815260040162000211919062004764565b600060405180830381600087803b1580156200022c57600080fd5b505af19250505080156200026557506040513d6000823e3d601f19601f8201168201806040525081019062000262919062003c3f565b60015b620002705762000294565b8083838151811062000287576200028662004dea565b5b6020026020010181905250505b8080620002a19062004d0f565b915050620001af565b5092915050565b620002bb62003238565b600181600001906002811115620002d757620002d662004dbb565b5b90816002811115620002ee57620002ed62004dbb565b5b815250505a81602001818152505060008873ffffffffffffffffffffffffffffffffffffffff1663c45a01556040518163ffffffff1660e01b815260040160206040518083038186803b1580156200034557600080fd5b505afa1580156200035a573d6000803e3d6000fd5b505050506040513d601f19601f820116820180604052508101906200038091906200398d565b73ffffffffffffffffffffffffffffffffffffffff1663e6a4390589896040518363ffffffff1660e01b8152600401620003bc929190620044da565b60206040518083038186803b158015620003d557600080fd5b505afa158015620003ea573d6000803e3d6000fd5b505050506040513d601f19601f820116820180604052508101906200041091906200398d565b9050600073ffffffffffffffffffffffffffffffffffffffff168173ffffffffffffffffffffffffffffffffffffffff16141562000485576040517f08c379a00000000000000000000000000000000000000000000000000000000081526004016200047c90620046fe565b60405180910390fd5b600081905060008990506000600267ffffffffffffffff811115620004af57620004ae62004e19565b5b604051908082528060200260200182016040528015620004de5781602001602082028036833780820191505090505b5090508a81600081518110620004f957620004f862004dea565b5b602002602001019073ffffffffffffffffffffffffffffffffffffffff16908173ffffffffffffffffffffffffffffffffffffffff168152505089816001815181106200054b576200054a62004dea565b5b602002602001019073ffffffffffffffffffffffffffffffffffffffff16908173ffffffffffffffffffffffffffffffffffffffff168152505060008714801562000597575060008614155b1562000654578b73ffffffffffffffffffffffffffffffffffffffff16631f00ca7487836040518363ffffffff1660e01b8152600401620005da929190620047c9565b60006040518083038186803b158015620005f357600080fd5b505afa15801562000608573d6000803e3d6000fd5b505050506040513d6000823e3d601f19601f8201168201806040525081019062000633919062003b39565b60008151811062000649576200064862004dea565b5b602002602001015196505b600087116200069a576040517f08c379a00000000000000000000000000000000000000000000000000000000081526004016200069190620046dc565b60405180910390fd5b61271061270f8373ffffffffffffffffffffffffffffffffffffffff166370a08231876040518263ffffffff1660e01b8152600401620006db9190620044bd565b60206040518083038186803b158015620006f457600080fd5b505afa15801562000709573d6000803e3d6000fd5b505050506040513d601f19601f820116820180604052508101906200072f919062003cec565b6200073b919062004aae565b62000747919062004a76565b871115620007ff5761271061270f8373ffffffffffffffffffffffffffffffffffffffff166370a08231876040518263ffffffff1660e01b8152600401620007909190620044bd565b60206040518083038186803b158015620007a957600080fd5b505afa158015620007be573d6000803e3d6000fd5b505050506040513d601f19601f82011682018060405250810190620007e4919062003cec565b620007f0919062004aae565b620007fc919062004a76565b96505b6200080f8b8a868a600162001a18565b85604001819052506000808c73ffffffffffffffffffffffffffffffffffffffff168573ffffffffffffffffffffffffffffffffffffffff16630dfe16816040518163ffffffff1660e01b815260040160206040518083038186803b1580156200087857600080fd5b505afa1580156200088d573d6000803e3d6000fd5b505050506040513d601f19601f82011682018060405250810190620008b391906200398d565b73ffffffffffffffffffffffffffffffffffffffff16141562000998578d73ffffffffffffffffffffffffffffffffffffffff1663d06ca61f886040015160c00151856040518363ffffffff1660e01b815260040162000915929190620047c9565b60006040518083038186803b1580156200092e57600080fd5b505afa15801562000943573d6000803e3d6000fd5b505050506040513d6000823e3d601f19601f820116820180604052508101906200096e919062003b39565b60018151811062000984576200098362004dea565b5b602002602001015191506000905062000a5b565b8d73ffffffffffffffffffffffffffffffffffffffff1663d06ca61f886040015160c00151856040518363ffffffff1660e01b8152600401620009dd929190620047c9565b60006040518083038186803b158015620009f657600080fd5b505afa15801562000a0b573d6000803e3d6000fd5b505050506040513d6000823e3d601f19601f8201168201806040525081019062000a36919062003b39565b60018151811062000a4c5762000a4b62004dea565b5b60200260200101519050600091505b62000a698682848d62002b4c565b87606001819052505a8760200181815162000a85919062004bad565b91508181525050505050505050979650505050505050565b62000aa7620031d3565b60015443111562000add57436001819055506000600281905550600160008082825462000ad5919062004a19565b925050819055505b60016002600082825462000af2919062004a19565b92505081905550600054816000018181525050600254816020018181525050438160c0018181525050428160e00181815250506000600173ffffffffffffffffffffffffffffffffffffffff1683606001602081019062000b5491906200395b565b73ffffffffffffffffffffffffffffffffffffffff161462000b8b5782606001602081019062000b8591906200395b565b62000bc0565b62000bbf83602001602081019062000ba491906200395b565b84604001602081019062000bb991906200395b565b6200303e565b5b9050600083600001602081019062000bd991906200395b565b73ffffffffffffffffffffffffffffffffffffffff1663ad5c46486040518163ffffffff1660e01b815260040160206040518083038186803b15801562000c1f57600080fd5b505afa15801562000c34573d6000803e3d6000fd5b505050506040513d601f19601f8201168201806040525081019062000c5a91906200398d565b9050600084602001602081019062000c7391906200395b565b9050600085604001602081019062000c8c91906200395b565b9050600047111562000d35578273ffffffffffffffffffffffffffffffffffffffff1663d0e30db0600460009054906101000a900473ffffffffffffffffffffffffffffffffffffffff1673ffffffffffffffffffffffffffffffffffffffff16316040518263ffffffff1660e01b81526004016000604051808303818588803b15801562000d1a57600080fd5b505af115801562000d2f573d6000803e3d6000fd5b50505050505b8273ffffffffffffffffffffffffffffffffffffffff1686602001602081019062000d6191906200395b565b73ffffffffffffffffffffffffffffffffffffffff161415801562000e36575060008373ffffffffffffffffffffffffffffffffffffffff166370a08231600460009054906101000a900473ffffffffffffffffffffffffffffffffffffffff166040518263ffffffff1660e01b815260040162000de09190620044bd565b60206040518083038186803b15801562000df957600080fd5b505afa15801562000e0e573d6000803e3d6000fd5b505050506040513d601f19601f8201168201806040525081019062000e34919062003cec565b115b1562000fbe573073ffffffffffffffffffffffffffffffffffffffff1663bd69854587600001602081019062000e6d91906200395b565b8589602001602081019062000e8391906200395b565b30308973ffffffffffffffffffffffffffffffffffffffff166370a08231600460009054906101000a900473ffffffffffffffffffffffffffffffffffffffff166040518263ffffffff1660e01b815260040162000ee29190620044bd565b60206040518083038186803b15801562000efb57600080fd5b505afa15801562000f10573d6000803e3d6000fd5b505050506040513d601f19601f8201168201806040525081019062000f36919062003cec565b60006040518863ffffffff1660e01b815260040162000f5c979695949392919062004584565b600060405180830381600087803b15801562000f7757600080fd5b505af192505050801562000fb057506040513d6000823e3d601f19601f8201168201806040525081019062000fad919062003bee565b60015b62000fbb5762000fbd565b505b5b600080876080013511156200137c57600087600001602081019062000fe491906200395b565b73ffffffffffffffffffffffffffffffffffffffff1663c45a01556040518163ffffffff1660e01b815260040160206040518083038186803b1580156200102a57600080fd5b505afa1580156200103f573d6000803e3d6000fd5b505050506040513d601f19601f820116820180604052508101906200106591906200398d565b73ffffffffffffffffffffffffffffffffffffffff1663e6a439058960200160208101906200109591906200395b565b8a6040016020810190620010aa91906200395b565b6040518363ffffffff1660e01b8152600401620010c9929190620044da565b60206040518083038186803b158015620010e257600080fd5b505afa158015620010f7573d6000803e3d6000fd5b505050506040513d601f19601f820116820180604052508101906200111d91906200398d565b905061271088608001358473ffffffffffffffffffffffffffffffffffffffff166370a08231846040518263ffffffff1660e01b8152600401620011629190620044bd565b60206040518083038186803b1580156200117b57600080fd5b505afa15801562001190573d6000803e3d6000fd5b505050506040513d601f19601f82011682018060405250810190620011b6919062003cec565b620011c2919062004aae565b620011ce919062004a76565b91503073ffffffffffffffffffffffffffffffffffffffff1663bd6985458960000160208101906200120191906200395b565b8a60200160208101906200121691906200395b565b8b60400160208101906200122b91906200395b565b308b6000896040518863ffffffff1660e01b815260040162001254979695949392919062004507565b600060405180830381600087803b1580156200126f57600080fd5b505af1925050508015620012a857506040513d6000823e3d601f19601f82011682018060405250810190620012a5919062003bee565b60015b6200136f57620012b762004e48565b806308c379a014156200132b5750620012cf62004f5c565b80620012dc57506200132d565b60028860400151600001906002811115620012fc57620012fb62004dbb565b5b9081600281111562001313576200131262004dbb565b5b81525050808860400151608001819052505062001369565b505b600287604001516000019060028111156200134d576200134c62004dbb565b5b9081600281111562001364576200136362004dbb565b5b815250505b6200137a565b808860400181905250505b505b8173ffffffffffffffffffffffffffffffffffffffff166370a082316000896080013514620013ac5786620013ae565b325b6040518263ffffffff1660e01b8152600401620013cc9190620044bd565b60206040518083038186803b158015620013e557600080fd5b505afa158015620013fa573d6000803e3d6000fd5b505050506040513d601f19601f8201168201806040525081019062001420919062003cec565b905060028081111562001438576200143762004dbb565b5b866040015160000151600281111562001456576200145562004dbb565b5b1415801562001469575060008760a00135115b156200163a573073ffffffffffffffffffffffffffffffffffffffff1663bd698545886000016020810190620014a091906200395b565b896040016020810190620014b591906200395b565b8a6020016020810190620014ca91906200395b565b898a6127108e60a0013589620014e1919062004aae565b620014ed919062004a76565b60006040518863ffffffff1660e01b815260040162001513979695949392919062004584565b600060405180830381600087803b1580156200152e57600080fd5b505af19250505080156200156757506040513d6000823e3d601f19601f8201168201806040525081019062001564919062003bee565b60015b6200162e576200157662004e48565b806308c379a01415620015ea57506200158e62004f5c565b806200159b5750620015ec565b60028760600151600001906002811115620015bb57620015ba62004dbb565b5b90816002811115620015d257620015d162004dbb565b5b81525050808760600151608001819052505062001628565b505b600286604001516000019060028111156200160c576200160b62004dbb565b5b9081600281111562001623576200162262004dbb565b5b815250505b62001639565b808760600181905250505b5b60028081111562001650576200164f62004dbb565b5b86604001516000015160028111156200166e576200166d62004dbb565b5b1415801562001681575060008760c00135115b156200182c573073ffffffffffffffffffffffffffffffffffffffff1663f18d03cc886040016020810190620016b891906200395b565b87620016c36200314d565b6127108c60c0013587620016d8919062004aae565b620016e4919062004a76565b6040518563ffffffff1660e01b815260040162001705949392919062004601565b600060405180830381600087803b1580156200172057600080fd5b505af19250505080156200175957506040513d6000823e3d601f19601f8201168201806040525081019062001756919062003bee565b60015b62001820576200176862004e48565b806308c379a01415620017dc57506200178062004f5c565b806200178d5750620017de565b60028760800151600001906002811115620017ad57620017ac62004dbb565b5b90816002811115620017c457620017c362004dbb565b5b8152505080876080015160800181905250506200181a565b505b60028660400151600001906002811115620017fe57620017fd62004dbb565b5b9081600281111562001815576200181462004dbb565b5b815250505b6200182b565b808760800181905250505b5b60405180606001604052808673ffffffffffffffffffffffffffffffffffffffff1681526020018473ffffffffffffffffffffffffffffffffffffffff166370a08231886040518263ffffffff1660e01b81526004016200188e9190620044bd565b60206040518083038186803b158015620018a757600080fd5b505afa158015620018bc573d6000803e3d6000fd5b505050506040513d601f19601f82011682018060405250810190620018e2919062003cec565b81526020018373ffffffffffffffffffffffffffffffffffffffff166370a08231886040518263ffffffff1660e01b8152600401620019229190620044bd565b60206040518083038186803b1580156200193b57600080fd5b505afa15801562001950573d6000803e3d6000fd5b505050506040513d601f19601f8201168201806040525081019062001976919062003cec565b8152508660a001819052505050505050919050565b6200199562003238565b600181600001906002811115620019b157620019b062004dbb565b5b90816002811115620019c857620019c762004dbb565b5b815250505a816020018181525050620019e685858585600062001a18565b8160600181905281604001819052505a8160200181815162001a09919062004bad565b91508181525050949350505050565b62001a226200328c565b60008690506000859050848360800181815250508173ffffffffffffffffffffffffffffffffffffffff166370a08231876040518263ffffffff1660e01b815260040162001a719190620044bd565b60206040518083038186803b15801562001a8a57600080fd5b505afa15801562001a9f573d6000803e3d6000fd5b505050506040513d601f19601f8201168201806040525081019062001ac5919062003cec565b8360400181815250506000806000861562001c10578373ffffffffffffffffffffffffffffffffffffffff16630902f1ac6040518163ffffffff1660e01b815260040160606040518083038186803b15801562001b2157600080fd5b505afa15801562001b36573d6000803e3d6000fd5b505050506040513d601f19601f8201168201806040525081019062001b5c919062003c90565b826dffffffffffffffffffffffffffff169250816dffffffffffffffffffffffffffff1691505080935081945050508373ffffffffffffffffffffffffffffffffffffffff166318160ddd6040518163ffffffff1660e01b815260040160206040518083038186803b15801562001bd257600080fd5b505afa15801562001be7573d6000803e3d6000fd5b505050506040513d601f19601f8201168201806040525081019062001c0d919062003cec565b90505b600460009054906101000a900473ffffffffffffffffffffffffffffffffffffffff1673ffffffffffffffffffffffffffffffffffffffff168a73ffffffffffffffffffffffffffffffffffffffff16141562001e99578473ffffffffffffffffffffffffffffffffffffffff166370a08231306040518263ffffffff1660e01b815260040162001ca29190620044bd565b60206040518083038186803b15801562001cbb57600080fd5b505afa15801562001cd0573d6000803e3d6000fd5b505050506040513d601f19601f8201168201806040525081019062001cf6919062003cec565b8660000181815250505a866101000181815250508473ffffffffffffffffffffffffffffffffffffffff1663a9059cbb8a8a6040518363ffffffff1660e01b815260040162001d479291906200468b565b602060405180830381600087803b15801562001d6257600080fd5b505af115801562001d77573d6000803e3d6000fd5b505050506040513d601f19601f8201168201806040525081019062001d9d919062003b8a565b62001ddf576040517f08c379a000000000000000000000000000000000000000000000000000000000815260040162001dd69062004742565b60405180910390fd5b5a866101000181815162001df4919062004bad565b915081815250508473ffffffffffffffffffffffffffffffffffffffff166370a08231306040518263ffffffff1660e01b815260040162001e369190620044bd565b60206040518083038186803b15801562001e4f57600080fd5b505afa15801562001e64573d6000803e3d6000fd5b505050506040513d601f19601f8201168201806040525081019062001e8a919062003cec565b866020018181525050620027de565b878573ffffffffffffffffffffffffffffffffffffffff1663dd62ed3e8c600460009054906101000a900473ffffffffffffffffffffffffffffffffffffffff166040518363ffffffff1660e01b815260040162001ef9929190620044da565b60206040518083038186803b15801562001f1257600080fd5b505afa15801562001f27573d6000803e3d6000fd5b505050506040513d601f19601f8201168201806040525081019062001f4d919062003cec565b1015801562001fea5750878573ffffffffffffffffffffffffffffffffffffffff166370a082318c6040518263ffffffff1660e01b815260040162001f939190620044bd565b60206040518083038186803b15801562001fac57600080fd5b505afa15801562001fc1573d6000803e3d6000fd5b505050506040513d601f19601f8201168201806040525081019062001fe7919062003cec565b10155b1562002224578473ffffffffffffffffffffffffffffffffffffffff166370a082318b6040518263ffffffff1660e01b81526004016200202b9190620044bd565b60206040518083038186803b1580156200204457600080fd5b505afa15801562002059573d6000803e3d6000fd5b505050506040513d601f19601f820116820180604052508101906200207f919062003cec565b8660000181815250505a866101000181815250508473ffffffffffffffffffffffffffffffffffffffff166323b872dd8b8b8b6040518463ffffffff1660e01b8152600401620020d2939291906200464e565b602060405180830381600087803b158015620020ed57600080fd5b505af115801562002102573d6000803e3d6000fd5b505050506040513d601f19601f8201168201806040525081019062002128919062003b8a565b6200216a576040517f08c379a0000000000000000000000000000000000000000000000000000000008152600401620021619062004720565b60405180910390fd5b5a86610100018181516200217f919062004bad565b915081815250508473ffffffffffffffffffffffffffffffffffffffff166370a082318b6040518263ffffffff1660e01b8152600401620021c19190620044bd565b60206040518083038186803b158015620021da57600080fd5b505afa158015620021ef573d6000803e3d6000fd5b505050506040513d601f19601f8201168201806040525081019062002215919062003cec565b866020018181525050620027dd565b878573ffffffffffffffffffffffffffffffffffffffff1663dd62ed3e32600460009054906101000a900473ffffffffffffffffffffffffffffffffffffffff166040518363ffffffff1660e01b815260040162002284929190620044da565b60206040518083038186803b1580156200229d57600080fd5b505afa158015620022b2573d6000803e3d6000fd5b505050506040513d601f19601f82011682018060405250810190620022d8919062003cec565b10158015620023755750878573ffffffffffffffffffffffffffffffffffffffff166370a08231326040518263ffffffff1660e01b81526004016200231e9190620044bd565b60206040518083038186803b1580156200233757600080fd5b505afa1580156200234c573d6000803e3d6000fd5b505050506040513d601f19601f8201168201806040525081019062002372919062003cec565b10155b15620025af578473ffffffffffffffffffffffffffffffffffffffff166370a08231326040518263ffffffff1660e01b8152600401620023b69190620044bd565b60206040518083038186803b158015620023cf57600080fd5b505afa158015620023e4573d6000803e3d6000fd5b505050506040513d601f19601f820116820180604052508101906200240a919062003cec565b8660000181815250505a866101000181815250508473ffffffffffffffffffffffffffffffffffffffff166323b872dd328b8b6040518463ffffffff1660e01b81526004016200245d939291906200464e565b602060405180830381600087803b1580156200247857600080fd5b505af11580156200248d573d6000803e3d6000fd5b505050506040513d601f19601f82011682018060405250810190620024b3919062003b8a565b620024f5576040517f08c379a0000000000000000000000000000000000000000000000000000000008152600401620024ec9062004720565b60405180910390fd5b5a86610100018181516200250a919062004bad565b915081815250508473ffffffffffffffffffffffffffffffffffffffff166370a08231326040518263ffffffff1660e01b81526004016200254c9190620044bd565b60206040518083038186803b1580156200256557600080fd5b505afa1580156200257a573d6000803e3d6000fd5b505050506040513d601f19601f82011682018060405250810190620025a0919062003cec565b866020018181525050620027dc565b8473ffffffffffffffffffffffffffffffffffffffff166370a08231306040518263ffffffff1660e01b8152600401620025ea9190620044bd565b60206040518083038186803b1580156200260357600080fd5b505afa15801562002618573d6000803e3d6000fd5b505050506040513d601f19601f820116820180604052508101906200263e919062003cec565b8660000181815250505a866101000181815250508473ffffffffffffffffffffffffffffffffffffffff1663a9059cbb8a8a6040518363ffffffff1660e01b81526004016200268f9291906200468b565b602060405180830381600087803b158015620026aa57600080fd5b505af1158015620026bf573d6000803e3d6000fd5b505050506040513d601f19601f82011682018060405250810190620026e5919062003b8a565b62002727576040517f08c379a00000000000000000000000000000000000000000000000000000000081526004016200271e9062004742565b60405180910390fd5b5a86610100018181516200273c919062004bad565b915081815250508473ffffffffffffffffffffffffffffffffffffffff166370a08231306040518263ffffffff1660e01b81526004016200277e9190620044bd565b60206040518083038186803b1580156200279757600080fd5b505afa158015620027ac573d6000803e3d6000fd5b505050506040513d601f19601f82011682018060405250810190620027d2919062003cec565b8660200181815250505b5b5b8473ffffffffffffffffffffffffffffffffffffffff166370a082318a6040518263ffffffff1660e01b8152600401620028199190620044bd565b60206040518083038186803b1580156200283257600080fd5b505afa15801562002847573d6000803e3d6000fd5b505050506040513d601f19601f820116820180604052508101906200286d919062003cec565b866060018181525050861562002adc576000808573ffffffffffffffffffffffffffffffffffffffff16630902f1ac6040518163ffffffff1660e01b815260040160606040518083038186803b158015620028c757600080fd5b505afa158015620028dc573d6000803e3d6000fd5b505050506040513d601f19601f8201168201806040525081019062002902919062003c90565b506dffffffffffffffffffffffffffff1691506dffffffffffffffffffffffffffff1691508c73ffffffffffffffffffffffffffffffffffffffff168673ffffffffffffffffffffffffffffffffffffffff16630dfe16816040518163ffffffff1660e01b815260040160206040518083038186803b1580156200298557600080fd5b505afa1580156200299a573d6000803e3d6000fd5b505050506040513d601f19601f82011682018060405250810190620029c091906200398d565b73ffffffffffffffffffffffffffffffffffffffff16141562002a1157818860600151620029ef919062004bad565b8860c00181815250508381108861016001901515908115158152505062002a40565b80886060015162002a23919062004bad565b8860c0018181525050848210886101600190151590811515815250505b828673ffffffffffffffffffffffffffffffffffffffff166318160ddd6040518163ffffffff1660e01b815260040160206040518083038186803b15801562002a8857600080fd5b505afa15801562002a9d573d6000803e3d6000fd5b505050506040513d601f19601f8201168201806040525081019062002ac3919062003cec565b1188610140019015159081151581525050505062002afc565b8560400151866060015162002af2919062004bad565b8660c00181815250505b85602001518660000151038660a00181815250508560a0015188038660e001818152505062002b348660c001518760a0015162003189565b86610120018181525050505050505095945050505050565b62002b566200328c565b6000859050600080861462002bed578173ffffffffffffffffffffffffffffffffffffffff16630dfe16816040518163ffffffff1660e01b815260040160206040518083038186803b15801562002bac57600080fd5b505afa15801562002bc1573d6000803e3d6000fd5b505050506040513d601f19601f8201168201806040525081019062002be791906200398d565b62002c70565b8173ffffffffffffffffffffffffffffffffffffffff1663d21220a76040518163ffffffff1660e01b815260040160206040518083038186803b15801562002c3457600080fd5b505afa15801562002c49573d6000803e3d6000fd5b505050506040513d601f19601f8201168201806040525081019062002c6f91906200398d565b5b90506000861462002c82578562002c84565b845b8360800181815250508073ffffffffffffffffffffffffffffffffffffffff166370a08231886040518263ffffffff1660e01b815260040162002cc89190620044bd565b60206040518083038186803b15801562002ce157600080fd5b505afa15801562002cf6573d6000803e3d6000fd5b505050506040513d601f19601f8201168201806040525081019062002d1c919062003cec565b8360000181815250508073ffffffffffffffffffffffffffffffffffffffff166370a08231856040518263ffffffff1660e01b815260040162002d609190620044bd565b60206040518083038186803b15801562002d7957600080fd5b505afa15801562002d8e573d6000803e3d6000fd5b505050506040513d601f19601f8201168201806040525081019062002db4919062003cec565b8360400181815250505a836101000181815250508173ffffffffffffffffffffffffffffffffffffffff1663022c0d9f878787600067ffffffffffffffff81111562002e055762002e0462004e19565b5b6040519080825280601f01601f19166020018201604052801562002e385781602001600182028036833780820191505090505b506040518563ffffffff1660e01b815260040162002e5a9493929190620047fd565b600060405180830381600087803b15801562002e7557600080fd5b505af115801562002e8a573d6000803e3d6000fd5b505050505a836101000181815162002ea3919062004bad565b915081815250508073ffffffffffffffffffffffffffffffffffffffff166370a08231886040518263ffffffff1660e01b815260040162002ee59190620044bd565b60206040518083038186803b15801562002efe57600080fd5b505afa15801562002f13573d6000803e3d6000fd5b505050506040513d601f19601f8201168201806040525081019062002f39919062003cec565b8360200181815250508073ffffffffffffffffffffffffffffffffffffffff166370a08231856040518263ffffffff1660e01b815260040162002f7d9190620044bd565b60206040518083038186803b15801562002f9657600080fd5b505afa15801562002fab573d6000803e3d6000fd5b505050506040513d601f19601f8201168201806040525081019062002fd1919062003cec565b83606001818152505082604001518360600151038360c001818152505082602001518360000151038360a00181815250508260a001518360800151038360e00181815250506200302a8360c001518460a0015162003189565b836101200181815250505050949350505050565b60008083836040516200305190620032f1565b6200305e929190620044da565b604051809103906000f0801580156200307b573d6000803e3d6000fd5b5090508073ffffffffffffffffffffffffffffffffffffffff166341c0e1b56040518163ffffffff1660e01b8152600401600060405180830381600087803b158015620030c757600080fd5b505af1158015620030dc573d6000803e3d6000fd5b505050506003819080600181540180825580915050600190039060005260206000200160009091909190916101000a81548173ffffffffffffffffffffffffffffffffffffffff021916908373ffffffffffffffffffffffffffffffffffffffff1602179055508091505092915050565b6000805460025443426040516020016200316b949392919062004851565b6040516020818303038152906040528051906020012060001c905090565b6000808214156200319e5760009050620031cd565b8161271084620031af919062004aae565b620031bb919062004a76565b612710620031ca919062004b0f565b90505b92915050565b6040518061010001604052806000815260200160008152602001620031f762003238565b81526020016200320662003238565b81526020016200321562003238565b815260200162003224620032ff565b815260200160008152602001600081525090565b6040518060a00160405280600060028111156200325a576200325962004dbb565b5b815260200160008152602001620032706200328c565b81526020016200327f6200328c565b8152602001606081525090565b604051806101800160405280600081526020016000815260200160008152602001600081526020016000815260200160008152602001600081526020016000815260200160008152602001600081526020016000151581526020016000151581525090565b61038080620050c383390190565b6040518060600160405280600073ffffffffffffffffffffffffffffffffffffffff16815260200160008152602001600081525090565b60006200334d6200334784620048c7565b6200489e565b9050808382526020820190508285602086028201111562003373576200337262004e86565b5b60005b85811015620033a757816200338c88826200392d565b84526020840193506020830192505060018101905062003376565b5050509392505050565b6000620033c8620033c284620048f6565b6200489e565b905082815260208101848484011115620033e757620033e662004e8b565b5b620033f484828562004ca3565b509392505050565b6000813590506200340d8162005015565b92915050565b600081519050620034248162005015565b92915050565b60008083601f84011262003443576200344262004e72565b5b8235905067ffffffffffffffff81111562003463576200346262004e6d565b5b6020830191508360e082028301111562003482576200348162004e86565b5b9250929050565b600082601f830112620034a157620034a062004e72565b5b8151620034b384826020860162003336565b91505092915050565b600081519050620034cd816200502f565b92915050565b600081519050620034e48162005049565b92915050565b600081519050620034fb816200505a565b92915050565b600082601f83011262003519576200351862004e72565b5b81516200352b848260208601620033b1565b91505092915050565b6000606082840312156200354d576200354c62004e7c565b5b6200355960606200489e565b905060006200356b8482850162003413565b600083015250602062003581848285016200392d565b602083015250604062003597848285016200392d565b60408301525092915050565b60006101808284031215620035bd57620035bc62004e7c565b5b620035ca6101806200489e565b90506000620035dc848285016200392d565b6000830152506020620035f2848285016200392d565b602083015250604062003608848285016200392d565b60408301525060606200361e848285016200392d565b606083015250608062003634848285016200392d565b60808301525060a06200364a848285016200392d565b60a08301525060c062003660848285016200392d565b60c08301525060e062003676848285016200392d565b60e0830152506101006200368d848285016200392d565b61010083015250610120620036a584828501620034ea565b61012083015250610140620036bd84828501620034bc565b61014083015250610160620036d584828501620034bc565b6101608301525092915050565b600060e08284031215620036fb57620036fa62004e77565b5b81905092915050565b600061036082840312156200371e576200371d62004e7c565b5b6200372a60a06200489e565b905060006200373c84828501620034d3565b600083015250602062003752848285016200392d565b60208301525060406200376884828501620035a3565b6040830152506101c06200377f84828501620035a3565b60608301525061034082015167ffffffffffffffff811115620037a757620037a662004e81565b5b620037b58482850162003501565b60808301525092915050565b60006101408284031215620037db57620037da62004e7c565b5b620037e86101006200489e565b90506000620037fa848285016200392d565b600083015250602062003810848285016200392d565b602083015250604082015167ffffffffffffffff81111562003837576200383662004e81565b5b620038458482850162003704565b604083015250606082015167ffffffffffffffff8111156200386c576200386b62004e81565b5b6200387a8482850162003704565b606083015250608082015167ffffffffffffffff811115620038a157620038a062004e81565b5b620038af8482850162003704565b60808301525060a0620038c58482850162003534565b60a083015250610100620038dc848285016200392d565b60c083015250610120620038f3848285016200392d565b60e08301525092915050565b600081519050620039108162005074565b92915050565b60008135905062003927816200508e565b92915050565b6000815190506200393e816200508e565b92915050565b6000815190506200395581620050a8565b92915050565b60006020828403121562003974576200397362004e95565b5b60006200398484828501620033fc565b91505092915050565b600060208284031215620039a657620039a562004e95565b5b6000620039b68482850162003413565b91505092915050565b600080600080600080600060e0888a031215620039e157620039e062004e95565b5b6000620039f18a828b01620033fc565b975050602062003a048a828b01620033fc565b965050604062003a178a828b01620033fc565b955050606062003a2a8a828b01620033fc565b945050608062003a3d8a828b01620033fc565b93505060a062003a508a828b0162003916565b92505060c062003a638a828b0162003916565b91505092959891949750929550565b6000806000806080858703121562003a8f5762003a8e62004e95565b5b600062003a9f87828801620033fc565b945050602062003ab287828801620033fc565b935050604062003ac587828801620033fc565b925050606062003ad88782880162003916565b91505092959194509250565b6000806020838503121562003afe5762003afd62004e95565b5b600083013567ffffffffffffffff81111562003b1f5762003b1e62004e90565b5b62003b2d858286016200342a565b92509250509250929050565b60006020828403121562003b525762003b5162004e95565b5b600082015167ffffffffffffffff81111562003b735762003b7262004e90565b5b62003b818482850162003489565b91505092915050565b60006020828403121562003ba35762003ba262004e95565b5b600062003bb384828501620034bc565b91505092915050565b600060e0828403121562003bd55762003bd462004e95565b5b600062003be584828501620036e2565b91505092915050565b60006020828403121562003c075762003c0662004e95565b5b600082015167ffffffffffffffff81111562003c285762003c2762004e90565b5b62003c368482850162003704565b91505092915050565b60006020828403121562003c585762003c5762004e95565b5b600082015167ffffffffffffffff81111562003c795762003c7862004e90565b5b62003c8784828501620037c1565b91505092915050565b60008060006060848603121562003cac5762003cab62004e95565b5b600062003cbc86828701620038ff565b935050602062003ccf86828701620038ff565b925050604062003ce28682870162003944565b9150509250925092565b60006020828403121562003d055762003d0462004e95565b5b600062003d15848285016200392d565b91505092915050565b600062003d2c838362003d4e565b60208301905092915050565b600062003d468383620042fb565b905092915050565b62003d598162004be8565b82525050565b62003d6a8162004be8565b82525050565b600062003d7d826200494c565b62003d89818562004992565b935062003d96836200492c565b8060005b8381101562003dcd57815162003db1888262003d1e565b975062003dbe8362004978565b92505060018101905062003d9a565b5085935050505092915050565b600062003de78262004957565b62003df38185620049a3565b93508360208202850162003e07856200493c565b8060005b8581101562003e49578484038952815162003e27858262003d38565b945062003e348362004985565b925060208a0199505060018101905062003e0b565b50829750879550505050505092915050565b62003e668162004bfc565b82525050565b600062003e798262004962565b62003e858185620049b4565b935062003e9781856020860162004ca3565b62003ea28162004e9a565b840191505092915050565b62003eb88162004c7b565b82525050565b62003ec98162004c1d565b82525050565b62003eda8162004c8f565b82525050565b600062003eed826200496d565b62003ef98185620049c5565b935062003f0b81856020860162004ca3565b62003f168162004e9a565b840191505092915050565b600062003f30601383620049d6565b915062003f3d8262004eb8565b602082019050919050565b600062003f57601383620049d6565b915062003f648262004ee1565b602082019050919050565b600062003f7e601183620049d6565b915062003f8b8262004f0a565b602082019050919050565b600062003fa5600d83620049d6565b915062003fb28262004f33565b602082019050919050565b60608201600082015162003fd5600085018262003d4e565b50602082015162003fea60208501826200449b565b50604082015162003fff60408501826200449b565b50505050565b610180820160008201516200401e60008501826200449b565b5060208201516200403360208501826200449b565b5060408201516200404860408501826200449b565b5060608201516200405d60608501826200449b565b5060808201516200407260808501826200449b565b5060a08201516200408760a08501826200449b565b5060c08201516200409c60c08501826200449b565b5060e0820151620040b160e08501826200449b565b50610100820151620040c86101008501826200449b565b50610120820151620040df61012085018262003ebe565b50610140820151620040f661014085018262003e5b565b506101608201516200410d61016085018262003e5b565b50505050565b60e08201620041266000830183620049e7565b62004135600085018262003d4e565b50620041456020830183620049e7565b62004154602085018262003d4e565b50620041646040830183620049e7565b62004173604085018262003d4e565b50620041836060830183620049e7565b62004192606085018262003d4e565b50620041a2608083018362004a00565b620041b160808501826200449b565b50620041c160a083018362004a00565b620041d060a08501826200449b565b50620041e060c083018362004a00565b620041ef60c08501826200449b565b50505050565b60006103608301600083015162004210600086018262003ead565b5060208301516200422560208601826200449b565b5060408301516200423a604086018262004005565b506060830151620042506101c086018262004005565b5060808301518482036103408601526200426b828262003ee0565b9150508091505092915050565b60006103608301600083015162004293600086018262003ead565b506020830151620042a860208601826200449b565b506040830151620042bd604086018262004005565b506060830151620042d36101c086018262004005565b506080830151848203610340860152620042ee828262003ee0565b9150508091505092915050565b6000610140830160008301516200431660008601826200449b565b5060208301516200432b60208601826200449b565b5060408301518482036040860152620043458282620041f5565b91505060608301518482036060860152620043618282620041f5565b915050608083015184820360808601526200437d8282620041f5565b91505060a08301516200439460a086018262003fbd565b5060c0830151620043aa6101008601826200449b565b5060e0830151620043c06101208601826200449b565b508091505092915050565b600061014083016000830151620043e660008601826200449b565b506020830151620043fb60208601826200449b565b5060408301518482036040860152620044158282620041f5565b91505060608301518482036060860152620044318282620041f5565b915050608083015184820360808601526200444d8282620041f5565b91505060a08301516200446460a086018262003fbd565b5060c08301516200447a6101008601826200449b565b5060e0830151620044906101208601826200449b565b508091505092915050565b620044a68162004c61565b82525050565b620044b78162004c61565b82525050565b6000602082019050620044d4600083018462003d5f565b92915050565b6000604082019050620044f1600083018562003d5f565b62004500602083018462003d5f565b9392505050565b600060e0820190506200451e600083018a62003d5f565b6200452d602083018962003d5f565b6200453c604083018862003d5f565b6200454b606083018762003d5f565b6200455a608083018662003d5f565b6200456960a083018562003ecf565b6200457860c0830184620044ac565b98975050505050505050565b600060e0820190506200459b600083018a62003d5f565b620045aa602083018962003d5f565b620045b9604083018862003d5f565b620045c8606083018762003d5f565b620045d7608083018662003d5f565b620045e660a0830185620044ac565b620045f560c083018462003ecf565b98975050505050505050565b600060808201905062004618600083018762003d5f565b62004627602083018662003d5f565b62004636604083018562003d5f565b620046456060830184620044ac565b95945050505050565b600060608201905062004665600083018662003d5f565b62004674602083018562003d5f565b620046836040830184620044ac565b949350505050565b6000604082019050620046a2600083018562003d5f565b620046b16020830184620044ac565b9392505050565b60006020820190508181036000830152620046d4818462003dda565b905092915050565b60006020820190508181036000830152620046f78162003f21565b9050919050565b60006020820190508181036000830152620047198162003f48565b9050919050565b600060208201905081810360008301526200473b8162003f6f565b9050919050565b600060208201905081810360008301526200475d8162003f96565b9050919050565b600060e0820190506200477b600083018462004113565b92915050565b600060208201905081810360008301526200479d818462004278565b905092915050565b60006020820190508181036000830152620047c18184620043cb565b905092915050565b6000604082019050620047e06000830185620044ac565b8181036020830152620047f4818462003d70565b90509392505050565b6000608082019050620048146000830187620044ac565b620048236020830186620044ac565b62004832604083018562003d5f565b818103606083015262004846818462003e6c565b905095945050505050565b6000608082019050620048686000830187620044ac565b620048776020830186620044ac565b620048866040830185620044ac565b620048956060830184620044ac565b95945050505050565b6000620048aa620048bd565b9050620048b8828262004cd9565b919050565b6000604051905090565b600067ffffffffffffffff821115620048e557620048e462004e19565b5b602082029050602081019050919050565b600067ffffffffffffffff82111562004914576200491362004e19565b5b6200491f8262004e9a565b9050602081019050919050565b6000819050602082019050919050565b6000819050602082019050919050565b600081519050919050565b600081519050919050565b600081519050919050565b600081519050919050565b6000602082019050919050565b6000602082019050919050565b600082825260208201905092915050565b600082825260208201905092915050565b600082825260208201905092915050565b600082825260208201905092915050565b600082825260208201905092915050565b6000620049f86020840184620033fc565b905092915050565b600062004a11602084018462003916565b905092915050565b600062004a268262004c61565b915062004a338362004c61565b9250827fffffffffffffffffffffffffffffffffffffffffffffffffffffffffffffffff0382111562004a6b5762004a6a62004d5d565b5b828201905092915050565b600062004a838262004c61565b915062004a908362004c61565b92508262004aa35762004aa262004d8c565b5b828204905092915050565b600062004abb8262004c61565b915062004ac88362004c61565b9250817fffffffffffffffffffffffffffffffffffffffffffffffffffffffffffffffff048311821515161562004b045762004b0362004d5d565b5b828202905092915050565b600062004b1c8262004c1d565b915062004b298362004c1d565b9250827f80000000000000000000000000000000000000000000000000000000000000000182126000841215161562004b675762004b6662004d5d565b5b827f7fffffffffffffffffffffffffffffffffffffffffffffffffffffffffffffff01821360008412161562004ba25762004ba162004d5d565b5b828203905092915050565b600062004bba8262004c61565b915062004bc78362004c61565b92508282101562004bdd5762004bdc62004d5d565b5b828203905092915050565b600062004bf58262004c41565b9050919050565b60008115159050919050565b600081905062004c188262004ffe565b919050565b6000819050919050565b60006dffffffffffffffffffffffffffff82169050919050565b600073ffffffffffffffffffffffffffffffffffffffff82169050919050565b6000819050919050565b600063ffffffff82169050919050565b600062004c888262004c08565b9050919050565b600062004c9c8262004c61565b9050919050565b60005b8381101562004cc357808201518184015260208101905062004ca6565b8381111562004cd3576000848401525b50505050565b62004ce48262004e9a565b810181811067ffffffffffffffff8211171562004d065762004d0562004e19565b5b80604052505050565b600062004d1c8262004c61565b91507fffffffffffffffffffffffffffffffffffffffffffffffffffffffffffffffff82141562004d525762004d5162004d5d565b5b600182019050919050565b7f4e487b7100000000000000000000000000000000000000000000000000000000600052601160045260246000fd5b7f4e487b7100000000000000000000000000000000000000000000000000000000600052601260045260246000fd5b7f4e487b7100000000000000000000000000000000000000000000000000000000600052602160045260246000fd5b7f4e487b7100000000000000000000000000000000000000000000000000000000600052603260045260246000fd5b7f4e487b7100000000000000000000000000000000000000000000000000000000600052604160045260246000fd5b600060033d111562004e6a5760046000803e62004e6760005162004eab565b90505b90565b600080fd5b600080fd5b600080fd5b600080fd5b600080fd5b600080fd5b600080fd5b600080fd5b600080fd5b6000601f19601f8301169050919050565b60008160e01c9050919050565b7f746f6b656e496e206e6f74206265207a65726f00000000000000000000000000600082015250565b7f706f6f6c20646f6573206e6f7420657869737400000000000000000000000000600082015250565b7f7472616e7366657246726f6d206661696c000000000000000000000000000000600082015250565b7f7472616e73666572206661696c00000000000000000000000000000000000000600082015250565b600060443d101562004f6e5762004ffb565b62004f78620048bd565b60043d036004823e80513d602482011167ffffffffffffffff8211171562004fa257505062004ffb565b808201805167ffffffffffffffff81111562004fc2575050505062004ffb565b80602083010160043d03850181111562004fe157505050505062004ffb565b62004ff28260200185018662004cd9565b82955050505050505b90565b6003811062005012576200501162004dbb565b5b50565b620050208162004be8565b81146200502c57600080fd5b50565b6200503a8162004bfc565b81146200504657600080fd5b50565b600381106200505757600080fd5b50565b620050658162004c1d565b81146200507157600080fd5b50565b6200507f8162004c27565b81146200508b57600080fd5b50565b620050998162004c61565b8114620050a557600080fd5b50565b620050b38162004c6b565b8114620050bf57600080fd5b5056fe608060405234801561001057600080fd5b50604051610380380380610380833981810160405281019061003291906101bf565b8173ffffffffffffffffffffffffffffffffffffffff1663095ea7b3337fffffffffffffffffffffffffffffffffffffffffffffffffffffffffffffffff6040518363ffffffff1660e01b815260040161008d92919061024a565b602060405180830381600087803b1580156100a757600080fd5b505af11580156100bb573d6000803e3d6000fd5b505050506040513d601f19601f820116820180604052508101906100df91906101ff565b508073ffffffffffffffffffffffffffffffffffffffff1663095ea7b3337fffffffffffffffffffffffffffffffffffffffffffffffffffffffffffffffff6040518363ffffffff1660e01b815260040161013b92919061024a565b602060405180830381600087803b15801561015557600080fd5b505af1158015610169573d6000803e3d6000fd5b505050506040513d601f19601f8201168201806040525081019061018d91906101ff565b5050506102ee565b6000815190506101a4816102c0565b92915050565b6000815190506101b9816102d7565b92915050565b600080604083850312156101d6576101d56102bb565b5b60006101e485828601610195565b92505060206101f585828601610195565b9150509250929050565b600060208284031215610215576102146102bb565b5b6000610223848285016101aa565b91505092915050565b61023581610273565b82525050565b610244816102b1565b82525050565b600060408201905061025f600083018561022c565b61026c602083018461023b565b9392505050565b600061027e82610291565b9050919050565b60008115159050919050565b600073ffffffffffffffffffffffffffffffffffffffff82169050919050565b6000819050919050565b600080fd5b6102c981610273565b81146102d457600080fd5b50565b6102e081610285565b81146102eb57600080fd5b50565b6084806102fc6000396000f3fe6080604052348015600f57600080fd5b506004361060285760003560e01c806341c0e1b514602d575b600080fd5b60336035565b005b3373ffffffffffffffffffffffffffffffffffffffff16fffea26469706673582212201f2519eed19f1cf738fbf6a6695a6a97c1c9e11ad03f3dea1f391d31db678dd464736f6c63430008070033a26469706673582212203a615d4d193e63f71895de9a1ab90d665a95566b4b118543f6620423ef589fe564736f6c63430008070033",
      "opcodes": "PUSH1 0x80 PUSH1 0x40 MSTORE PUSH1 0x0 DUP1 SSTORE PUSH1 0x0 PUSH1 0x1 SSTORE PUSH1 0x0 PUSH1 0x2 SSTORE ADDRESS PUSH1 0x4 PUSH1 0x0 PUSH2 0x100 EXP DUP2 SLOAD DUP2 PUSH20 0xFFFFFFFFFFFFFFFFFFFFFFFFFFFFFFFFFFFFFFFF MUL NOT AND SWAP1 DUP4 PUSH20 0xFFFFFFFFFFFFFFFFFFFFFFFFFFFFFFFFFFFFFFFF AND MUL OR SWAP1 SSTORE POP PUSH2 0x5478 DUP1 PUSH2 0x62 PUSH1 0x0 CODECOPY PUSH1 0x0 RETURN INVALID PUSH1 0x80 PUSH1 0x40 MSTORE PUSH1 0x4 CALLDATASIZE LT PUSH3 0x49 JUMPI PUSH1 0x0 CALLDATALOAD PUSH1 0xE0 SHR DUP1 PUSH4 0x59EC6006 EQ PUSH3 0x56 JUMPI DUP1 PUSH4 0xBD698545 EQ PUSH3 0x8C JUMPI DUP1 PUSH4 0xE6952DDD EQ PUSH3 0xD0 JUMPI DUP1 PUSH4 0xF18D03CC EQ PUSH3 0x106 JUMPI PUSH3 0x51 JUMP JUMPDEST CALLDATASIZE PUSH3 0x51 JUMPI STOP JUMPDEST PUSH1 0x0 DUP1 REVERT JUMPDEST PUSH3 0x74 PUSH1 0x4 DUP1 CALLDATASIZE SUB DUP2 ADD SWAP1 PUSH3 0x6E SWAP2 SWAP1 PUSH3 0x3AE4 JUMP JUMPDEST PUSH3 0x14A JUMP JUMPDEST PUSH1 0x40 MLOAD PUSH3 0x83 SWAP2 SWAP1 PUSH3 0x46B8 JUMP JUMPDEST PUSH1 0x40 MLOAD DUP1 SWAP2 SUB SWAP1 RETURN JUMPDEST CALLVALUE DUP1 ISZERO PUSH3 0x99 JUMPI PUSH1 0x0 DUP1 REVERT JUMPDEST POP PUSH3 0xB8 PUSH1 0x4 DUP1 CALLDATASIZE SUB DUP2 ADD SWAP1 PUSH3 0xB2 SWAP2 SWAP1 PUSH3 0x39BF JUMP JUMPDEST PUSH3 0x2B1 JUMP JUMPDEST PUSH1 0x40 MLOAD PUSH3 0xC7 SWAP2 SWAP1 PUSH3 0x4781 JUMP JUMPDEST PUSH1 0x40 MLOAD DUP1 SWAP2 SUB SWAP1 RETURN JUMPDEST PUSH3 0xEE PUSH1 0x4 DUP1 CALLDATASIZE SUB DUP2 ADD SWAP1 PUSH3 0xE8 SWAP2 SWAP1 PUSH3 0x3BBC JUMP JUMPDEST PUSH3 0xA9D JUMP JUMPDEST PUSH1 0x40 MLOAD PUSH3 0xFD SWAP2 SWAP1 PUSH3 0x47A5 JUMP JUMPDEST PUSH1 0x40 MLOAD DUP1 SWAP2 SUB SWAP1 RETURN JUMPDEST CALLVALUE DUP1 ISZERO PUSH3 0x113 JUMPI PUSH1 0x0 DUP1 REVERT JUMPDEST POP PUSH3 0x132 PUSH1 0x4 DUP1 CALLDATASIZE SUB DUP2 ADD SWAP1 PUSH3 0x12C SWAP2 SWAP1 PUSH3 0x3A72 JUMP JUMPDEST PUSH3 0x198B JUMP JUMPDEST PUSH1 0x40 MLOAD PUSH3 0x141 SWAP2 SWAP1 PUSH3 0x4781 JUMP JUMPDEST PUSH1 0x40 MLOAD DUP1 SWAP2 SUB SWAP1 RETURN JUMPDEST PUSH1 0x60 DUP3 DUP3 SWAP1 POP PUSH8 0xFFFFFFFFFFFFFFFF DUP2 GT ISZERO PUSH3 0x16C JUMPI PUSH3 0x16B PUSH3 0x4E19 JUMP JUMPDEST JUMPDEST PUSH1 0x40 MLOAD SWAP1 DUP1 DUP3 MSTORE DUP1 PUSH1 0x20 MUL PUSH1 0x20 ADD DUP3 ADD PUSH1 0x40 MSTORE DUP1 ISZERO PUSH3 0x1A9 JUMPI DUP2 PUSH1 0x20 ADD JUMPDEST PUSH3 0x195 PUSH3 0x31D3 JUMP JUMPDEST DUP2 MSTORE PUSH1 0x20 ADD SWAP1 PUSH1 0x1 SWAP1 SUB SWAP1 DUP2 PUSH3 0x18B JUMPI SWAP1 POP JUMPDEST POP SWAP1 POP PUSH1 0x0 JUMPDEST DUP4 DUP4 SWAP1 POP DUP2 LT ISZERO PUSH3 0x2AA JUMPI ADDRESS PUSH20 0xFFFFFFFFFFFFFFFFFFFFFFFFFFFFFFFFFFFFFFFF AND PUSH4 0xE6952DDD DUP6 DUP6 DUP5 DUP2 DUP2 LT PUSH3 0x1ED JUMPI PUSH3 0x1EC PUSH3 0x4DEA JUMP JUMPDEST JUMPDEST SWAP1 POP PUSH1 0xE0 MUL ADD PUSH1 0x40 MLOAD DUP3 PUSH4 0xFFFFFFFF AND PUSH1 0xE0 SHL DUP2 MSTORE PUSH1 0x4 ADD PUSH3 0x211 SWAP2 SWAP1 PUSH3 0x4764 JUMP JUMPDEST PUSH1 0x0 PUSH1 0x40 MLOAD DUP1 DUP4 SUB DUP2 PUSH1 0x0 DUP8 DUP1 EXTCODESIZE ISZERO DUP1 ISZERO PUSH3 0x22C JUMPI PUSH1 0x0 DUP1 REVERT JUMPDEST POP GAS CALL SWAP3 POP POP POP DUP1 ISZERO PUSH3 0x265 JUMPI POP PUSH1 0x40 MLOAD RETURNDATASIZE PUSH1 0x0 DUP3 RETURNDATACOPY RETURNDATASIZE PUSH1 0x1F NOT PUSH1 0x1F DUP3 ADD AND DUP3 ADD DUP1 PUSH1 0x40 MSTORE POP DUP2 ADD SWAP1 PUSH3 0x262 SWAP2 SWAP1 PUSH3 0x3C3F JUMP JUMPDEST PUSH1 0x1 JUMPDEST PUSH3 0x270 JUMPI PUSH3 0x294 JUMP JUMPDEST DUP1 DUP4 DUP4 DUP2 MLOAD DUP2 LT PUSH3 0x287 JUMPI PUSH3 0x286 PUSH3 0x4DEA JUMP JUMPDEST JUMPDEST PUSH1 0x20 MUL PUSH1 0x20 ADD ADD DUP2 SWAP1 MSTORE POP POP JUMPDEST DUP1 DUP1 PUSH3 0x2A1 SWAP1 PUSH3 0x4D0F JUMP JUMPDEST SWAP2 POP POP PUSH3 0x1AF JUMP JUMPDEST POP SWAP3 SWAP2 POP POP JUMP JUMPDEST PUSH3 0x2BB PUSH3 0x3238 JUMP JUMPDEST PUSH1 0x1 DUP2 PUSH1 0x0 ADD SWAP1 PUSH1 0x2 DUP2 GT ISZERO PUSH3 0x2D7 JUMPI PUSH3 0x2D6 PUSH3 0x4DBB JUMP JUMPDEST JUMPDEST SWAP1 DUP2 PUSH1 0x2 DUP2 GT ISZERO PUSH3 0x2EE JUMPI PUSH3 0x2ED PUSH3 0x4DBB JUMP JUMPDEST JUMPDEST DUP2 MSTORE POP POP GAS DUP2 PUSH1 0x20 ADD DUP2 DUP2 MSTORE POP POP PUSH1 0x0 DUP9 PUSH20 0xFFFFFFFFFFFFFFFFFFFFFFFFFFFFFFFFFFFFFFFF AND PUSH4 0xC45A0155 PUSH1 0x40 MLOAD DUP2 PUSH4 0xFFFFFFFF AND PUSH1 0xE0 SHL DUP2 MSTORE PUSH1 0x4 ADD PUSH1 0x20 PUSH1 0x40 MLOAD DUP1 DUP4 SUB DUP2 DUP7 DUP1 EXTCODESIZE ISZERO DUP1 ISZERO PUSH3 0x345 JUMPI PUSH1 0x0 DUP1 REVERT JUMPDEST POP GAS STATICCALL ISZERO DUP1 ISZERO PUSH3 0x35A JUMPI RETURNDATASIZE PUSH1 0x0 DUP1 RETURNDATACOPY RETURNDATASIZE PUSH1 0x0 REVERT JUMPDEST POP POP POP POP PUSH1 0x40 MLOAD RETURNDATASIZE PUSH1 0x1F NOT PUSH1 0x1F DUP3 ADD AND DUP3 ADD DUP1 PUSH1 0x40 MSTORE POP DUP2 ADD SWAP1 PUSH3 0x380 SWAP2 SWAP1 PUSH3 0x398D JUMP JUMPDEST PUSH20 0xFFFFFFFFFFFFFFFFFFFFFFFFFFFFFFFFFFFFFFFF AND PUSH4 0xE6A43905 DUP10 DUP10 PUSH1 0x40 MLOAD DUP4 PUSH4 0xFFFFFFFF AND PUSH1 0xE0 SHL DUP2 MSTORE PUSH1 0x4 ADD PUSH3 0x3BC SWAP3 SWAP2 SWAP1 PUSH3 0x44DA JUMP JUMPDEST PUSH1 0x20 PUSH1 0x40 MLOAD DUP1 DUP4 SUB DUP2 DUP7 DUP1 EXTCODESIZE ISZERO DUP1 ISZERO PUSH3 0x3D5 JUMPI PUSH1 0x0 DUP1 REVERT JUMPDEST POP GAS STATICCALL ISZERO DUP1 ISZERO PUSH3 0x3EA JUMPI RETURNDATASIZE PUSH1 0x0 DUP1 RETURNDATACOPY RETURNDATASIZE PUSH1 0x0 REVERT JUMPDEST POP POP POP POP PUSH1 0x40 MLOAD RETURNDATASIZE PUSH1 0x1F NOT PUSH1 0x1F DUP3 ADD AND DUP3 ADD DUP1 PUSH1 0x40 MSTORE POP DUP2 ADD SWAP1 PUSH3 0x410 SWAP2 SWAP1 PUSH3 0x398D JUMP JUMPDEST SWAP1 POP PUSH1 0x0 PUSH20 0xFFFFFFFFFFFFFFFFFFFFFFFFFFFFFFFFFFFFFFFF AND DUP2 PUSH20 0xFFFFFFFFFFFFFFFFFFFFFFFFFFFFFFFFFFFFFFFF AND EQ ISZERO PUSH3 0x485 JUMPI PUSH1 0x40 MLOAD PUSH32 0x8C379A000000000000000000000000000000000000000000000000000000000 DUP2 MSTORE PUSH1 0x4 ADD PUSH3 0x47C SWAP1 PUSH3 0x46FE JUMP JUMPDEST PUSH1 0x40 MLOAD DUP1 SWAP2 SUB SWAP1 REVERT JUMPDEST PUSH1 0x0 DUP2 SWAP1 POP PUSH1 0x0 DUP10 SWAP1 POP PUSH1 0x0 PUSH1 0x2 PUSH8 0xFFFFFFFFFFFFFFFF DUP2 GT ISZERO PUSH3 0x4AF JUMPI PUSH3 0x4AE PUSH3 0x4E19 JUMP JUMPDEST JUMPDEST PUSH1 0x40 MLOAD SWAP1 DUP1 DUP3 MSTORE DUP1 PUSH1 0x20 MUL PUSH1 0x20 ADD DUP3 ADD PUSH1 0x40 MSTORE DUP1 ISZERO PUSH3 0x4DE JUMPI DUP2 PUSH1 0x20 ADD PUSH1 0x20 DUP3 MUL DUP1 CALLDATASIZE DUP4 CALLDATACOPY DUP1 DUP3 ADD SWAP2 POP POP SWAP1 POP JUMPDEST POP SWAP1 POP DUP11 DUP2 PUSH1 0x0 DUP2 MLOAD DUP2 LT PUSH3 0x4F9 JUMPI PUSH3 0x4F8 PUSH3 0x4DEA JUMP JUMPDEST JUMPDEST PUSH1 0x20 MUL PUSH1 0x20 ADD ADD SWAP1 PUSH20 0xFFFFFFFFFFFFFFFFFFFFFFFFFFFFFFFFFFFFFFFF AND SWAP1 DUP2 PUSH20 0xFFFFFFFFFFFFFFFFFFFFFFFFFFFFFFFFFFFFFFFF AND DUP2 MSTORE POP POP DUP10 DUP2 PUSH1 0x1 DUP2 MLOAD DUP2 LT PUSH3 0x54B JUMPI PUSH3 0x54A PUSH3 0x4DEA JUMP JUMPDEST JUMPDEST PUSH1 0x20 MUL PUSH1 0x20 ADD ADD SWAP1 PUSH20 0xFFFFFFFFFFFFFFFFFFFFFFFFFFFFFFFFFFFFFFFF AND SWAP1 DUP2 PUSH20 0xFFFFFFFFFFFFFFFFFFFFFFFFFFFFFFFFFFFFFFFF AND DUP2 MSTORE POP POP PUSH1 0x0 DUP8 EQ DUP1 ISZERO PUSH3 0x597 JUMPI POP PUSH1 0x0 DUP7 EQ ISZERO JUMPDEST ISZERO PUSH3 0x654 JUMPI DUP12 PUSH20 0xFFFFFFFFFFFFFFFFFFFFFFFFFFFFFFFFFFFFFFFF AND PUSH4 0x1F00CA74 DUP8 DUP4 PUSH1 0x40 MLOAD DUP4 PUSH4 0xFFFFFFFF AND PUSH1 0xE0 SHL DUP2 MSTORE PUSH1 0x4 ADD PUSH3 0x5DA SWAP3 SWAP2 SWAP1 PUSH3 0x47C9 JUMP JUMPDEST PUSH1 0x0 PUSH1 0x40 MLOAD DUP1 DUP4 SUB DUP2 DUP7 DUP1 EXTCODESIZE ISZERO DUP1 ISZERO PUSH3 0x5F3 JUMPI PUSH1 0x0 DUP1 REVERT JUMPDEST POP GAS STATICCALL ISZERO DUP1 ISZERO PUSH3 0x608 JUMPI RETURNDATASIZE PUSH1 0x0 DUP1 RETURNDATACOPY RETURNDATASIZE PUSH1 0x0 REVERT JUMPDEST POP POP POP POP PUSH1 0x40 MLOAD RETURNDATASIZE PUSH1 0x0 DUP3 RETURNDATACOPY RETURNDATASIZE PUSH1 0x1F NOT PUSH1 0x1F DUP3 ADD AND DUP3 ADD DUP1 PUSH1 0x40 MSTORE POP DUP2 ADD SWAP1 PUSH3 0x633 SWAP2 SWAP1 PUSH3 0x3B39 JUMP JUMPDEST PUSH1 0x0 DUP2 MLOAD DUP2 LT PUSH3 0x649 JUMPI PUSH3 0x648 PUSH3 0x4DEA JUMP JUMPDEST JUMPDEST PUSH1 0x20 MUL PUSH1 0x20 ADD ADD MLOAD SWAP7 POP JUMPDEST PUSH1 0x0 DUP8 GT PUSH3 0x69A JUMPI PUSH1 0x40 MLOAD PUSH32 0x8C379A000000000000000000000000000000000000000000000000000000000 DUP2 MSTORE PUSH1 0x4 ADD PUSH3 0x691 SWAP1 PUSH3 0x46DC JUMP JUMPDEST PUSH1 0x40 MLOAD DUP1 SWAP2 SUB SWAP1 REVERT JUMPDEST PUSH2 0x2710 PUSH2 0x270F DUP4 PUSH20 0xFFFFFFFFFFFFFFFFFFFFFFFFFFFFFFFFFFFFFFFF AND PUSH4 0x70A08231 DUP8 PUSH1 0x40 MLOAD DUP3 PUSH4 0xFFFFFFFF AND PUSH1 0xE0 SHL DUP2 MSTORE PUSH1 0x4 ADD PUSH3 0x6DB SWAP2 SWAP1 PUSH3 0x44BD JUMP JUMPDEST PUSH1 0x20 PUSH1 0x40 MLOAD DUP1 DUP4 SUB DUP2 DUP7 DUP1 EXTCODESIZE ISZERO DUP1 ISZERO PUSH3 0x6F4 JUMPI PUSH1 0x0 DUP1 REVERT JUMPDEST POP GAS STATICCALL ISZERO DUP1 ISZERO PUSH3 0x709 JUMPI RETURNDATASIZE PUSH1 0x0 DUP1 RETURNDATACOPY RETURNDATASIZE PUSH1 0x0 REVERT JUMPDEST POP POP POP POP PUSH1 0x40 MLOAD RETURNDATASIZE PUSH1 0x1F NOT PUSH1 0x1F DUP3 ADD AND DUP3 ADD DUP1 PUSH1 0x40 MSTORE POP DUP2 ADD SWAP1 PUSH3 0x72F SWAP2 SWAP1 PUSH3 0x3CEC JUMP JUMPDEST PUSH3 0x73B SWAP2 SWAP1 PUSH3 0x4AAE JUMP JUMPDEST PUSH3 0x747 SWAP2 SWAP1 PUSH3 0x4A76 JUMP JUMPDEST DUP8 GT ISZERO PUSH3 0x7FF JUMPI PUSH2 0x2710 PUSH2 0x270F DUP4 PUSH20 0xFFFFFFFFFFFFFFFFFFFFFFFFFFFFFFFFFFFFFFFF AND PUSH4 0x70A08231 DUP8 PUSH1 0x40 MLOAD DUP3 PUSH4 0xFFFFFFFF AND PUSH1 0xE0 SHL DUP2 MSTORE PUSH1 0x4 ADD PUSH3 0x790 SWAP2 SWAP1 PUSH3 0x44BD JUMP JUMPDEST PUSH1 0x20 PUSH1 0x40 MLOAD DUP1 DUP4 SUB DUP2 DUP7 DUP1 EXTCODESIZE ISZERO DUP1 ISZERO PUSH3 0x7A9 JUMPI PUSH1 0x0 DUP1 REVERT JUMPDEST POP GAS STATICCALL ISZERO DUP1 ISZERO PUSH3 0x7BE JUMPI RETURNDATASIZE PUSH1 0x0 DUP1 RETURNDATACOPY RETURNDATASIZE PUSH1 0x0 REVERT JUMPDEST POP POP POP POP PUSH1 0x40 MLOAD RETURNDATASIZE PUSH1 0x1F NOT PUSH1 0x1F DUP3 ADD AND DUP3 ADD DUP1 PUSH1 0x40 MSTORE POP DUP2 ADD SWAP1 PUSH3 0x7E4 SWAP2 SWAP1 PUSH3 0x3CEC JUMP JUMPDEST PUSH3 0x7F0 SWAP2 SWAP1 PUSH3 0x4AAE JUMP JUMPDEST PUSH3 0x7FC SWAP2 SWAP1 PUSH3 0x4A76 JUMP JUMPDEST SWAP7 POP JUMPDEST PUSH3 0x80F DUP12 DUP11 DUP7 DUP11 PUSH1 0x1 PUSH3 0x1A18 JUMP JUMPDEST DUP6 PUSH1 0x40 ADD DUP2 SWAP1 MSTORE POP PUSH1 0x0 DUP1 DUP13 PUSH20 0xFFFFFFFFFFFFFFFFFFFFFFFFFFFFFFFFFFFFFFFF AND DUP6 PUSH20 0xFFFFFFFFFFFFFFFFFFFFFFFFFFFFFFFFFFFFFFFF AND PUSH4 0xDFE1681 PUSH1 0x40 MLOAD DUP2 PUSH4 0xFFFFFFFF AND PUSH1 0xE0 SHL DUP2 MSTORE PUSH1 0x4 ADD PUSH1 0x20 PUSH1 0x40 MLOAD DUP1 DUP4 SUB DUP2 DUP7 DUP1 EXTCODESIZE ISZERO DUP1 ISZERO PUSH3 0x878 JUMPI PUSH1 0x0 DUP1 REVERT JUMPDEST POP GAS STATICCALL ISZERO DUP1 ISZERO PUSH3 0x88D JUMPI RETURNDATASIZE PUSH1 0x0 DUP1 RETURNDATACOPY RETURNDATASIZE PUSH1 0x0 REVERT JUMPDEST POP POP POP POP PUSH1 0x40 MLOAD RETURNDATASIZE PUSH1 0x1F NOT PUSH1 0x1F DUP3 ADD AND DUP3 ADD DUP1 PUSH1 0x40 MSTORE POP DUP2 ADD SWAP1 PUSH3 0x8B3 SWAP2 SWAP1 PUSH3 0x398D JUMP JUMPDEST PUSH20 0xFFFFFFFFFFFFFFFFFFFFFFFFFFFFFFFFFFFFFFFF AND EQ ISZERO PUSH3 0x998 JUMPI DUP14 PUSH20 0xFFFFFFFFFFFFFFFFFFFFFFFFFFFFFFFFFFFFFFFF AND PUSH4 0xD06CA61F DUP9 PUSH1 0x40 ADD MLOAD PUSH1 0xC0 ADD MLOAD DUP6 PUSH1 0x40 MLOAD DUP4 PUSH4 0xFFFFFFFF AND PUSH1 0xE0 SHL DUP2 MSTORE PUSH1 0x4 ADD PUSH3 0x915 SWAP3 SWAP2 SWAP1 PUSH3 0x47C9 JUMP JUMPDEST PUSH1 0x0 PUSH1 0x40 MLOAD DUP1 DUP4 SUB DUP2 DUP7 DUP1 EXTCODESIZE ISZERO DUP1 ISZERO PUSH3 0x92E JUMPI PUSH1 0x0 DUP1 REVERT JUMPDEST POP GAS STATICCALL ISZERO DUP1 ISZERO PUSH3 0x943 JUMPI RETURNDATASIZE PUSH1 0x0 DUP1 RETURNDATACOPY RETURNDATASIZE PUSH1 0x0 REVERT JUMPDEST POP POP POP POP PUSH1 0x40 MLOAD RETURNDATASIZE PUSH1 0x0 DUP3 RETURNDATACOPY RETURNDATASIZE PUSH1 0x1F NOT PUSH1 0x1F DUP3 ADD AND DUP3 ADD DUP1 PUSH1 0x40 MSTORE POP DUP2 ADD SWAP1 PUSH3 0x96E SWAP2 SWAP1 PUSH3 0x3B39 JUMP JUMPDEST PUSH1 0x1 DUP2 MLOAD DUP2 LT PUSH3 0x984 JUMPI PUSH3 0x983 PUSH3 0x4DEA JUMP JUMPDEST JUMPDEST PUSH1 0x20 MUL PUSH1 0x20 ADD ADD MLOAD SWAP2 POP PUSH1 0x0 SWAP1 POP PUSH3 0xA5B JUMP JUMPDEST DUP14 PUSH20 0xFFFFFFFFFFFFFFFFFFFFFFFFFFFFFFFFFFFFFFFF AND PUSH4 0xD06CA61F DUP9 PUSH1 0x40 ADD MLOAD PUSH1 0xC0 ADD MLOAD DUP6 PUSH1 0x40 MLOAD DUP4 PUSH4 0xFFFFFFFF AND PUSH1 0xE0 SHL DUP2 MSTORE PUSH1 0x4 ADD PUSH3 0x9DD SWAP3 SWAP2 SWAP1 PUSH3 0x47C9 JUMP JUMPDEST PUSH1 0x0 PUSH1 0x40 MLOAD DUP1 DUP4 SUB DUP2 DUP7 DUP1 EXTCODESIZE ISZERO DUP1 ISZERO PUSH3 0x9F6 JUMPI PUSH1 0x0 DUP1 REVERT JUMPDEST POP GAS STATICCALL ISZERO DUP1 ISZERO PUSH3 0xA0B JUMPI RETURNDATASIZE PUSH1 0x0 DUP1 RETURNDATACOPY RETURNDATASIZE PUSH1 0x0 REVERT JUMPDEST POP POP POP POP PUSH1 0x40 MLOAD RETURNDATASIZE PUSH1 0x0 DUP3 RETURNDATACOPY RETURNDATASIZE PUSH1 0x1F NOT PUSH1 0x1F DUP3 ADD AND DUP3 ADD DUP1 PUSH1 0x40 MSTORE POP DUP2 ADD SWAP1 PUSH3 0xA36 SWAP2 SWAP1 PUSH3 0x3B39 JUMP JUMPDEST PUSH1 0x1 DUP2 MLOAD DUP2 LT PUSH3 0xA4C JUMPI PUSH3 0xA4B PUSH3 0x4DEA JUMP JUMPDEST JUMPDEST PUSH1 0x20 MUL PUSH1 0x20 ADD ADD MLOAD SWAP1 POP PUSH1 0x0 SWAP2 POP JUMPDEST PUSH3 0xA69 DUP7 DUP3 DUP5 DUP14 PUSH3 0x2B4C JUMP JUMPDEST DUP8 PUSH1 0x60 ADD DUP2 SWAP1 MSTORE POP GAS DUP8 PUSH1 0x20 ADD DUP2 DUP2 MLOAD PUSH3 0xA85 SWAP2 SWAP1 PUSH3 0x4BAD JUMP JUMPDEST SWAP2 POP DUP2 DUP2 MSTORE POP POP POP POP POP POP POP POP SWAP8 SWAP7 POP POP POP POP POP POP POP JUMP JUMPDEST PUSH3 0xAA7 PUSH3 0x31D3 JUMP JUMPDEST PUSH1 0x1 SLOAD NUMBER GT ISZERO PUSH3 0xADD JUMPI NUMBER PUSH1 0x1 DUP2 SWAP1 SSTORE POP PUSH1 0x0 PUSH1 0x2 DUP2 SWAP1 SSTORE POP PUSH1 0x1 PUSH1 0x0 DUP1 DUP3 DUP3 SLOAD PUSH3 0xAD5 SWAP2 SWAP1 PUSH3 0x4A19 JUMP JUMPDEST SWAP3 POP POP DUP2 SWAP1 SSTORE POP JUMPDEST PUSH1 0x1 PUSH1 0x2 PUSH1 0x0 DUP3 DUP3 SLOAD PUSH3 0xAF2 SWAP2 SWAP1 PUSH3 0x4A19 JUMP JUMPDEST SWAP3 POP POP DUP2 SWAP1 SSTORE POP PUSH1 0x0 SLOAD DUP2 PUSH1 0x0 ADD DUP2 DUP2 MSTORE POP POP PUSH1 0x2 SLOAD DUP2 PUSH1 0x20 ADD DUP2 DUP2 MSTORE POP POP NUMBER DUP2 PUSH1 0xC0 ADD DUP2 DUP2 MSTORE POP POP TIMESTAMP DUP2 PUSH1 0xE0 ADD DUP2 DUP2 MSTORE POP POP PUSH1 0x0 PUSH1 0x1 PUSH20 0xFFFFFFFFFFFFFFFFFFFFFFFFFFFFFFFFFFFFFFFF AND DUP4 PUSH1 0x60 ADD PUSH1 0x20 DUP2 ADD SWAP1 PUSH3 0xB54 SWAP2 SWAP1 PUSH3 0x395B JUMP JUMPDEST PUSH20 0xFFFFFFFFFFFFFFFFFFFFFFFFFFFFFFFFFFFFFFFF AND EQ PUSH3 0xB8B JUMPI DUP3 PUSH1 0x60 ADD PUSH1 0x20 DUP2 ADD SWAP1 PUSH3 0xB85 SWAP2 SWAP1 PUSH3 0x395B JUMP JUMPDEST PUSH3 0xBC0 JUMP JUMPDEST PUSH3 0xBBF DUP4 PUSH1 0x20 ADD PUSH1 0x20 DUP2 ADD SWAP1 PUSH3 0xBA4 SWAP2 SWAP1 PUSH3 0x395B JUMP JUMPDEST DUP5 PUSH1 0x40 ADD PUSH1 0x20 DUP2 ADD SWAP1 PUSH3 0xBB9 SWAP2 SWAP1 PUSH3 0x395B JUMP JUMPDEST PUSH3 0x303E JUMP JUMPDEST JUMPDEST SWAP1 POP PUSH1 0x0 DUP4 PUSH1 0x0 ADD PUSH1 0x20 DUP2 ADD SWAP1 PUSH3 0xBD9 SWAP2 SWAP1 PUSH3 0x395B JUMP JUMPDEST PUSH20 0xFFFFFFFFFFFFFFFFFFFFFFFFFFFFFFFFFFFFFFFF AND PUSH4 0xAD5C4648 PUSH1 0x40 MLOAD DUP2 PUSH4 0xFFFFFFFF AND PUSH1 0xE0 SHL DUP2 MSTORE PUSH1 0x4 ADD PUSH1 0x20 PUSH1 0x40 MLOAD DUP1 DUP4 SUB DUP2 DUP7 DUP1 EXTCODESIZE ISZERO DUP1 ISZERO PUSH3 0xC1F JUMPI PUSH1 0x0 DUP1 REVERT JUMPDEST POP GAS STATICCALL ISZERO DUP1 ISZERO PUSH3 0xC34 JUMPI RETURNDATASIZE PUSH1 0x0 DUP1 RETURNDATACOPY RETURNDATASIZE PUSH1 0x0 REVERT JUMPDEST POP POP POP POP PUSH1 0x40 MLOAD RETURNDATASIZE PUSH1 0x1F NOT PUSH1 0x1F DUP3 ADD AND DUP3 ADD DUP1 PUSH1 0x40 MSTORE POP DUP2 ADD SWAP1 PUSH3 0xC5A SWAP2 SWAP1 PUSH3 0x398D JUMP JUMPDEST SWAP1 POP PUSH1 0x0 DUP5 PUSH1 0x20 ADD PUSH1 0x20 DUP2 ADD SWAP1 PUSH3 0xC73 SWAP2 SWAP1 PUSH3 0x395B JUMP JUMPDEST SWAP1 POP PUSH1 0x0 DUP6 PUSH1 0x40 ADD PUSH1 0x20 DUP2 ADD SWAP1 PUSH3 0xC8C SWAP2 SWAP1 PUSH3 0x395B JUMP JUMPDEST SWAP1 POP PUSH1 0x0 SELFBALANCE GT ISZERO PUSH3 0xD35 JUMPI DUP3 PUSH20 0xFFFFFFFFFFFFFFFFFFFFFFFFFFFFFFFFFFFFFFFF AND PUSH4 0xD0E30DB0 PUSH1 0x4 PUSH1 0x0 SWAP1 SLOAD SWAP1 PUSH2 0x100 EXP SWAP1 DIV PUSH20 0xFFFFFFFFFFFFFFFFFFFFFFFFFFFFFFFFFFFFFFFF AND PUSH20 0xFFFFFFFFFFFFFFFFFFFFFFFFFFFFFFFFFFFFFFFF AND BALANCE PUSH1 0x40 MLOAD DUP3 PUSH4 0xFFFFFFFF AND PUSH1 0xE0 SHL DUP2 MSTORE PUSH1 0x4 ADD PUSH1 0x0 PUSH1 0x40 MLOAD DUP1 DUP4 SUB DUP2 DUP6 DUP9 DUP1 EXTCODESIZE ISZERO DUP1 ISZERO PUSH3 0xD1A JUMPI PUSH1 0x0 DUP1 REVERT JUMPDEST POP GAS CALL ISZERO DUP1 ISZERO PUSH3 0xD2F JUMPI RETURNDATASIZE PUSH1 0x0 DUP1 RETURNDATACOPY RETURNDATASIZE PUSH1 0x0 REVERT JUMPDEST POP POP POP POP POP JUMPDEST DUP3 PUSH20 0xFFFFFFFFFFFFFFFFFFFFFFFFFFFFFFFFFFFFFFFF AND DUP7 PUSH1 0x20 ADD PUSH1 0x20 DUP2 ADD SWAP1 PUSH3 0xD61 SWAP2 SWAP1 PUSH3 0x395B JUMP JUMPDEST PUSH20 0xFFFFFFFFFFFFFFFFFFFFFFFFFFFFFFFFFFFFFFFF AND EQ ISZERO DUP1 ISZERO PUSH3 0xE36 JUMPI POP PUSH1 0x0 DUP4 PUSH20 0xFFFFFFFFFFFFFFFFFFFFFFFFFFFFFFFFFFFFFFFF AND PUSH4 0x70A08231 PUSH1 0x4 PUSH1 0x0 SWAP1 SLOAD SWAP1 PUSH2 0x100 EXP SWAP1 DIV PUSH20 0xFFFFFFFFFFFFFFFFFFFFFFFFFFFFFFFFFFFFFFFF AND PUSH1 0x40 MLOAD DUP3 PUSH4 0xFFFFFFFF AND PUSH1 0xE0 SHL DUP2 MSTORE PUSH1 0x4 ADD PUSH3 0xDE0 SWAP2 SWAP1 PUSH3 0x44BD JUMP JUMPDEST PUSH1 0x20 PUSH1 0x40 MLOAD DUP1 DUP4 SUB DUP2 DUP7 DUP1 EXTCODESIZE ISZERO DUP1 ISZERO PUSH3 0xDF9 JUMPI PUSH1 0x0 DUP1 REVERT JUMPDEST POP GAS STATICCALL ISZERO DUP1 ISZERO PUSH3 0xE0E JUMPI RETURNDATASIZE PUSH1 0x0 DUP1 RETURNDATACOPY RETURNDATASIZE PUSH1 0x0 REVERT JUMPDEST POP POP POP POP PUSH1 0x40 MLOAD RETURNDATASIZE PUSH1 0x1F NOT PUSH1 0x1F DUP3 ADD AND DUP3 ADD DUP1 PUSH1 0x40 MSTORE POP DUP2 ADD SWAP1 PUSH3 0xE34 SWAP2 SWAP1 PUSH3 0x3CEC JUMP JUMPDEST GT JUMPDEST ISZERO PUSH3 0xFBE JUMPI ADDRESS PUSH20 0xFFFFFFFFFFFFFFFFFFFFFFFFFFFFFFFFFFFFFFFF AND PUSH4 0xBD698545 DUP8 PUSH1 0x0 ADD PUSH1 0x20 DUP2 ADD SWAP1 PUSH3 0xE6D SWAP2 SWAP1 PUSH3 0x395B JUMP JUMPDEST DUP6 DUP10 PUSH1 0x20 ADD PUSH1 0x20 DUP2 ADD SWAP1 PUSH3 0xE83 SWAP2 SWAP1 PUSH3 0x395B JUMP JUMPDEST ADDRESS ADDRESS DUP10 PUSH20 0xFFFFFFFFFFFFFFFFFFFFFFFFFFFFFFFFFFFFFFFF AND PUSH4 0x70A08231 PUSH1 0x4 PUSH1 0x0 SWAP1 SLOAD SWAP1 PUSH2 0x100 EXP SWAP1 DIV PUSH20 0xFFFFFFFFFFFFFFFFFFFFFFFFFFFFFFFFFFFFFFFF AND PUSH1 0x40 MLOAD DUP3 PUSH4 0xFFFFFFFF AND PUSH1 0xE0 SHL DUP2 MSTORE PUSH1 0x4 ADD PUSH3 0xEE2 SWAP2 SWAP1 PUSH3 0x44BD JUMP JUMPDEST PUSH1 0x20 PUSH1 0x40 MLOAD DUP1 DUP4 SUB DUP2 DUP7 DUP1 EXTCODESIZE ISZERO DUP1 ISZERO PUSH3 0xEFB JUMPI PUSH1 0x0 DUP1 REVERT JUMPDEST POP GAS STATICCALL ISZERO DUP1 ISZERO PUSH3 0xF10 JUMPI RETURNDATASIZE PUSH1 0x0 DUP1 RETURNDATACOPY RETURNDATASIZE PUSH1 0x0 REVERT JUMPDEST POP POP POP POP PUSH1 0x40 MLOAD RETURNDATASIZE PUSH1 0x1F NOT PUSH1 0x1F DUP3 ADD AND DUP3 ADD DUP1 PUSH1 0x40 MSTORE POP DUP2 ADD SWAP1 PUSH3 0xF36 SWAP2 SWAP1 PUSH3 0x3CEC JUMP JUMPDEST PUSH1 0x0 PUSH1 0x40 MLOAD DUP9 PUSH4 0xFFFFFFFF AND PUSH1 0xE0 SHL DUP2 MSTORE PUSH1 0x4 ADD PUSH3 0xF5C SWAP8 SWAP7 SWAP6 SWAP5 SWAP4 SWAP3 SWAP2 SWAP1 PUSH3 0x4584 JUMP JUMPDEST PUSH1 0x0 PUSH1 0x40 MLOAD DUP1 DUP4 SUB DUP2 PUSH1 0x0 DUP8 DUP1 EXTCODESIZE ISZERO DUP1 ISZERO PUSH3 0xF77 JUMPI PUSH1 0x0 DUP1 REVERT JUMPDEST POP GAS CALL SWAP3 POP POP POP DUP1 ISZERO PUSH3 0xFB0 JUMPI POP PUSH1 0x40 MLOAD RETURNDATASIZE PUSH1 0x0 DUP3 RETURNDATACOPY RETURNDATASIZE PUSH1 0x1F NOT PUSH1 0x1F DUP3 ADD AND DUP3 ADD DUP1 PUSH1 0x40 MSTORE POP DUP2 ADD SWAP1 PUSH3 0xFAD SWAP2 SWAP1 PUSH3 0x3BEE JUMP JUMPDEST PUSH1 0x1 JUMPDEST PUSH3 0xFBB JUMPI PUSH3 0xFBD JUMP JUMPDEST POP JUMPDEST JUMPDEST PUSH1 0x0 DUP1 DUP8 PUSH1 0x80 ADD CALLDATALOAD GT ISZERO PUSH3 0x137C JUMPI PUSH1 0x0 DUP8 PUSH1 0x0 ADD PUSH1 0x20 DUP2 ADD SWAP1 PUSH3 0xFE4 SWAP2 SWAP1 PUSH3 0x395B JUMP JUMPDEST PUSH20 0xFFFFFFFFFFFFFFFFFFFFFFFFFFFFFFFFFFFFFFFF AND PUSH4 0xC45A0155 PUSH1 0x40 MLOAD DUP2 PUSH4 0xFFFFFFFF AND PUSH1 0xE0 SHL DUP2 MSTORE PUSH1 0x4 ADD PUSH1 0x20 PUSH1 0x40 MLOAD DUP1 DUP4 SUB DUP2 DUP7 DUP1 EXTCODESIZE ISZERO DUP1 ISZERO PUSH3 0x102A JUMPI PUSH1 0x0 DUP1 REVERT JUMPDEST POP GAS STATICCALL ISZERO DUP1 ISZERO PUSH3 0x103F JUMPI RETURNDATASIZE PUSH1 0x0 DUP1 RETURNDATACOPY RETURNDATASIZE PUSH1 0x0 REVERT JUMPDEST POP POP POP POP PUSH1 0x40 MLOAD RETURNDATASIZE PUSH1 0x1F NOT PUSH1 0x1F DUP3 ADD AND DUP3 ADD DUP1 PUSH1 0x40 MSTORE POP DUP2 ADD SWAP1 PUSH3 0x1065 SWAP2 SWAP1 PUSH3 0x398D JUMP JUMPDEST PUSH20 0xFFFFFFFFFFFFFFFFFFFFFFFFFFFFFFFFFFFFFFFF AND PUSH4 0xE6A43905 DUP10 PUSH1 0x20 ADD PUSH1 0x20 DUP2 ADD SWAP1 PUSH3 0x1095 SWAP2 SWAP1 PUSH3 0x395B JUMP JUMPDEST DUP11 PUSH1 0x40 ADD PUSH1 0x20 DUP2 ADD SWAP1 PUSH3 0x10AA SWAP2 SWAP1 PUSH3 0x395B JUMP JUMPDEST PUSH1 0x40 MLOAD DUP4 PUSH4 0xFFFFFFFF AND PUSH1 0xE0 SHL DUP2 MSTORE PUSH1 0x4 ADD PUSH3 0x10C9 SWAP3 SWAP2 SWAP1 PUSH3 0x44DA JUMP JUMPDEST PUSH1 0x20 PUSH1 0x40 MLOAD DUP1 DUP4 SUB DUP2 DUP7 DUP1 EXTCODESIZE ISZERO DUP1 ISZERO PUSH3 0x10E2 JUMPI PUSH1 0x0 DUP1 REVERT JUMPDEST POP GAS STATICCALL ISZERO DUP1 ISZERO PUSH3 0x10F7 JUMPI RETURNDATASIZE PUSH1 0x0 DUP1 RETURNDATACOPY RETURNDATASIZE PUSH1 0x0 REVERT JUMPDEST POP POP POP POP PUSH1 0x40 MLOAD RETURNDATASIZE PUSH1 0x1F NOT PUSH1 0x1F DUP3 ADD AND DUP3 ADD DUP1 PUSH1 0x40 MSTORE POP DUP2 ADD SWAP1 PUSH3 0x111D SWAP2 SWAP1 PUSH3 0x398D JUMP JUMPDEST SWAP1 POP PUSH2 0x2710 DUP9 PUSH1 0x80 ADD CALLDATALOAD DUP5 PUSH20 0xFFFFFFFFFFFFFFFFFFFFFFFFFFFFFFFFFFFFFFFF AND PUSH4 0x70A08231 DUP5 PUSH1 0x40 MLOAD DUP3 PUSH4 0xFFFFFFFF AND PUSH1 0xE0 SHL DUP2 MSTORE PUSH1 0x4 ADD PUSH3 0x1162 SWAP2 SWAP1 PUSH3 0x44BD JUMP JUMPDEST PUSH1 0x20 PUSH1 0x40 MLOAD DUP1 DUP4 SUB DUP2 DUP7 DUP1 EXTCODESIZE ISZERO DUP1 ISZERO PUSH3 0x117B JUMPI PUSH1 0x0 DUP1 REVERT JUMPDEST POP GAS STATICCALL ISZERO DUP1 ISZERO PUSH3 0x1190 JUMPI RETURNDATASIZE PUSH1 0x0 DUP1 RETURNDATACOPY RETURNDATASIZE PUSH1 0x0 REVERT JUMPDEST POP POP POP POP PUSH1 0x40 MLOAD RETURNDATASIZE PUSH1 0x1F NOT PUSH1 0x1F DUP3 ADD AND DUP3 ADD DUP1 PUSH1 0x40 MSTORE POP DUP2 ADD SWAP1 PUSH3 0x11B6 SWAP2 SWAP1 PUSH3 0x3CEC JUMP JUMPDEST PUSH3 0x11C2 SWAP2 SWAP1 PUSH3 0x4AAE JUMP JUMPDEST PUSH3 0x11CE SWAP2 SWAP1 PUSH3 0x4A76 JUMP JUMPDEST SWAP2 POP ADDRESS PUSH20 0xFFFFFFFFFFFFFFFFFFFFFFFFFFFFFFFFFFFFFFFF AND PUSH4 0xBD698545 DUP10 PUSH1 0x0 ADD PUSH1 0x20 DUP2 ADD SWAP1 PUSH3 0x1201 SWAP2 SWAP1 PUSH3 0x395B JUMP JUMPDEST DUP11 PUSH1 0x20 ADD PUSH1 0x20 DUP2 ADD SWAP1 PUSH3 0x1216 SWAP2 SWAP1 PUSH3 0x395B JUMP JUMPDEST DUP12 PUSH1 0x40 ADD PUSH1 0x20 DUP2 ADD SWAP1 PUSH3 0x122B SWAP2 SWAP1 PUSH3 0x395B JUMP JUMPDEST ADDRESS DUP12 PUSH1 0x0 DUP10 PUSH1 0x40 MLOAD DUP9 PUSH4 0xFFFFFFFF AND PUSH1 0xE0 SHL DUP2 MSTORE PUSH1 0x4 ADD PUSH3 0x1254 SWAP8 SWAP7 SWAP6 SWAP5 SWAP4 SWAP3 SWAP2 SWAP1 PUSH3 0x4507 JUMP JUMPDEST PUSH1 0x0 PUSH1 0x40 MLOAD DUP1 DUP4 SUB DUP2 PUSH1 0x0 DUP8 DUP1 EXTCODESIZE ISZERO DUP1 ISZERO PUSH3 0x126F JUMPI PUSH1 0x0 DUP1 REVERT JUMPDEST POP GAS CALL SWAP3 POP POP POP DUP1 ISZERO PUSH3 0x12A8 JUMPI POP PUSH1 0x40 MLOAD RETURNDATASIZE PUSH1 0x0 DUP3 RETURNDATACOPY RETURNDATASIZE PUSH1 0x1F NOT PUSH1 0x1F DUP3 ADD AND DUP3 ADD DUP1 PUSH1 0x40 MSTORE POP DUP2 ADD SWAP1 PUSH3 0x12A5 SWAP2 SWAP1 PUSH3 0x3BEE JUMP JUMPDEST PUSH1 0x1 JUMPDEST PUSH3 0x136F JUMPI PUSH3 0x12B7 PUSH3 0x4E48 JUMP JUMPDEST DUP1 PUSH4 0x8C379A0 EQ ISZERO PUSH3 0x132B JUMPI POP PUSH3 0x12CF PUSH3 0x4F5C JUMP JUMPDEST DUP1 PUSH3 0x12DC JUMPI POP PUSH3 0x132D JUMP JUMPDEST PUSH1 0x2 DUP9 PUSH1 0x40 ADD MLOAD PUSH1 0x0 ADD SWAP1 PUSH1 0x2 DUP2 GT ISZERO PUSH3 0x12FC JUMPI PUSH3 0x12FB PUSH3 0x4DBB JUMP JUMPDEST JUMPDEST SWAP1 DUP2 PUSH1 0x2 DUP2 GT ISZERO PUSH3 0x1313 JUMPI PUSH3 0x1312 PUSH3 0x4DBB JUMP JUMPDEST JUMPDEST DUP2 MSTORE POP POP DUP1 DUP9 PUSH1 0x40 ADD MLOAD PUSH1 0x80 ADD DUP2 SWAP1 MSTORE POP POP PUSH3 0x1369 JUMP JUMPDEST POP JUMPDEST PUSH1 0x2 DUP8 PUSH1 0x40 ADD MLOAD PUSH1 0x0 ADD SWAP1 PUSH1 0x2 DUP2 GT ISZERO PUSH3 0x134D JUMPI PUSH3 0x134C PUSH3 0x4DBB JUMP JUMPDEST JUMPDEST SWAP1 DUP2 PUSH1 0x2 DUP2 GT ISZERO PUSH3 0x1364 JUMPI PUSH3 0x1363 PUSH3 0x4DBB JUMP JUMPDEST JUMPDEST DUP2 MSTORE POP POP JUMPDEST PUSH3 0x137A JUMP JUMPDEST DUP1 DUP9 PUSH1 0x40 ADD DUP2 SWAP1 MSTORE POP POP JUMPDEST POP JUMPDEST DUP2 PUSH20 0xFFFFFFFFFFFFFFFFFFFFFFFFFFFFFFFFFFFFFFFF AND PUSH4 0x70A08231 PUSH1 0x0 DUP10 PUSH1 0x80 ADD CALLDATALOAD EQ PUSH3 0x13AC JUMPI DUP7 PUSH3 0x13AE JUMP JUMPDEST ORIGIN JUMPDEST PUSH1 0x40 MLOAD DUP3 PUSH4 0xFFFFFFFF AND PUSH1 0xE0 SHL DUP2 MSTORE PUSH1 0x4 ADD PUSH3 0x13CC SWAP2 SWAP1 PUSH3 0x44BD JUMP JUMPDEST PUSH1 0x20 PUSH1 0x40 MLOAD DUP1 DUP4 SUB DUP2 DUP7 DUP1 EXTCODESIZE ISZERO DUP1 ISZERO PUSH3 0x13E5 JUMPI PUSH1 0x0 DUP1 REVERT JUMPDEST POP GAS STATICCALL ISZERO DUP1 ISZERO PUSH3 0x13FA JUMPI RETURNDATASIZE PUSH1 0x0 DUP1 RETURNDATACOPY RETURNDATASIZE PUSH1 0x0 REVERT JUMPDEST POP POP POP POP PUSH1 0x40 MLOAD RETURNDATASIZE PUSH1 0x1F NOT PUSH1 0x1F DUP3 ADD AND DUP3 ADD DUP1 PUSH1 0x40 MSTORE POP DUP2 ADD SWAP1 PUSH3 0x1420 SWAP2 SWAP1 PUSH3 0x3CEC JUMP JUMPDEST SWAP1 POP PUSH1 0x2 DUP1 DUP2 GT ISZERO PUSH3 0x1438 JUMPI PUSH3 0x1437 PUSH3 0x4DBB JUMP JUMPDEST JUMPDEST DUP7 PUSH1 0x40 ADD MLOAD PUSH1 0x0 ADD MLOAD PUSH1 0x2 DUP2 GT ISZERO PUSH3 0x1456 JUMPI PUSH3 0x1455 PUSH3 0x4DBB JUMP JUMPDEST JUMPDEST EQ ISZERO DUP1 ISZERO PUSH3 0x1469 JUMPI POP PUSH1 0x0 DUP8 PUSH1 0xA0 ADD CALLDATALOAD GT JUMPDEST ISZERO PUSH3 0x163A JUMPI ADDRESS PUSH20 0xFFFFFFFFFFFFFFFFFFFFFFFFFFFFFFFFFFFFFFFF AND PUSH4 0xBD698545 DUP9 PUSH1 0x0 ADD PUSH1 0x20 DUP2 ADD SWAP1 PUSH3 0x14A0 SWAP2 SWAP1 PUSH3 0x395B JUMP JUMPDEST DUP10 PUSH1 0x40 ADD PUSH1 0x20 DUP2 ADD SWAP1 PUSH3 0x14B5 SWAP2 SWAP1 PUSH3 0x395B JUMP JUMPDEST DUP11 PUSH1 0x20 ADD PUSH1 0x20 DUP2 ADD SWAP1 PUSH3 0x14CA SWAP2 SWAP1 PUSH3 0x395B JUMP JUMPDEST DUP10 DUP11 PUSH2 0x2710 DUP15 PUSH1 0xA0 ADD CALLDATALOAD DUP10 PUSH3 0x14E1 SWAP2 SWAP1 PUSH3 0x4AAE JUMP JUMPDEST PUSH3 0x14ED SWAP2 SWAP1 PUSH3 0x4A76 JUMP JUMPDEST PUSH1 0x0 PUSH1 0x40 MLOAD DUP9 PUSH4 0xFFFFFFFF AND PUSH1 0xE0 SHL DUP2 MSTORE PUSH1 0x4 ADD PUSH3 0x1513 SWAP8 SWAP7 SWAP6 SWAP5 SWAP4 SWAP3 SWAP2 SWAP1 PUSH3 0x4584 JUMP JUMPDEST PUSH1 0x0 PUSH1 0x40 MLOAD DUP1 DUP4 SUB DUP2 PUSH1 0x0 DUP8 DUP1 EXTCODESIZE ISZERO DUP1 ISZERO PUSH3 0x152E JUMPI PUSH1 0x0 DUP1 REVERT JUMPDEST POP GAS CALL SWAP3 POP POP POP DUP1 ISZERO PUSH3 0x1567 JUMPI POP PUSH1 0x40 MLOAD RETURNDATASIZE PUSH1 0x0 DUP3 RETURNDATACOPY RETURNDATASIZE PUSH1 0x1F NOT PUSH1 0x1F DUP3 ADD AND DUP3 ADD DUP1 PUSH1 0x40 MSTORE POP DUP2 ADD SWAP1 PUSH3 0x1564 SWAP2 SWAP1 PUSH3 0x3BEE JUMP JUMPDEST PUSH1 0x1 JUMPDEST PUSH3 0x162E JUMPI PUSH3 0x1576 PUSH3 0x4E48 JUMP JUMPDEST DUP1 PUSH4 0x8C379A0 EQ ISZERO PUSH3 0x15EA JUMPI POP PUSH3 0x158E PUSH3 0x4F5C JUMP JUMPDEST DUP1 PUSH3 0x159B JUMPI POP PUSH3 0x15EC JUMP JUMPDEST PUSH1 0x2 DUP8 PUSH1 0x60 ADD MLOAD PUSH1 0x0 ADD SWAP1 PUSH1 0x2 DUP2 GT ISZERO PUSH3 0x15BB JUMPI PUSH3 0x15BA PUSH3 0x4DBB JUMP JUMPDEST JUMPDEST SWAP1 DUP2 PUSH1 0x2 DUP2 GT ISZERO PUSH3 0x15D2 JUMPI PUSH3 0x15D1 PUSH3 0x4DBB JUMP JUMPDEST JUMPDEST DUP2 MSTORE POP POP DUP1 DUP8 PUSH1 0x60 ADD MLOAD PUSH1 0x80 ADD DUP2 SWAP1 MSTORE POP POP PUSH3 0x1628 JUMP JUMPDEST POP JUMPDEST PUSH1 0x2 DUP7 PUSH1 0x40 ADD MLOAD PUSH1 0x0 ADD SWAP1 PUSH1 0x2 DUP2 GT ISZERO PUSH3 0x160C JUMPI PUSH3 0x160B PUSH3 0x4DBB JUMP JUMPDEST JUMPDEST SWAP1 DUP2 PUSH1 0x2 DUP2 GT ISZERO PUSH3 0x1623 JUMPI PUSH3 0x1622 PUSH3 0x4DBB JUMP JUMPDEST JUMPDEST DUP2 MSTORE POP POP JUMPDEST PUSH3 0x1639 JUMP JUMPDEST DUP1 DUP8 PUSH1 0x60 ADD DUP2 SWAP1 MSTORE POP POP JUMPDEST JUMPDEST PUSH1 0x2 DUP1 DUP2 GT ISZERO PUSH3 0x1650 JUMPI PUSH3 0x164F PUSH3 0x4DBB JUMP JUMPDEST JUMPDEST DUP7 PUSH1 0x40 ADD MLOAD PUSH1 0x0 ADD MLOAD PUSH1 0x2 DUP2 GT ISZERO PUSH3 0x166E JUMPI PUSH3 0x166D PUSH3 0x4DBB JUMP JUMPDEST JUMPDEST EQ ISZERO DUP1 ISZERO PUSH3 0x1681 JUMPI POP PUSH1 0x0 DUP8 PUSH1 0xC0 ADD CALLDATALOAD GT JUMPDEST ISZERO PUSH3 0x182C JUMPI ADDRESS PUSH20 0xFFFFFFFFFFFFFFFFFFFFFFFFFFFFFFFFFFFFFFFF AND PUSH4 0xF18D03CC DUP9 PUSH1 0x40 ADD PUSH1 0x20 DUP2 ADD SWAP1 PUSH3 0x16B8 SWAP2 SWAP1 PUSH3 0x395B JUMP JUMPDEST DUP8 PUSH3 0x16C3 PUSH3 0x314D JUMP JUMPDEST PUSH2 0x2710 DUP13 PUSH1 0xC0 ADD CALLDATALOAD DUP8 PUSH3 0x16D8 SWAP2 SWAP1 PUSH3 0x4AAE JUMP JUMPDEST PUSH3 0x16E4 SWAP2 SWAP1 PUSH3 0x4A76 JUMP JUMPDEST PUSH1 0x40 MLOAD DUP6 PUSH4 0xFFFFFFFF AND PUSH1 0xE0 SHL DUP2 MSTORE PUSH1 0x4 ADD PUSH3 0x1705 SWAP5 SWAP4 SWAP3 SWAP2 SWAP1 PUSH3 0x4601 JUMP JUMPDEST PUSH1 0x0 PUSH1 0x40 MLOAD DUP1 DUP4 SUB DUP2 PUSH1 0x0 DUP8 DUP1 EXTCODESIZE ISZERO DUP1 ISZERO PUSH3 0x1720 JUMPI PUSH1 0x0 DUP1 REVERT JUMPDEST POP GAS CALL SWAP3 POP POP POP DUP1 ISZERO PUSH3 0x1759 JUMPI POP PUSH1 0x40 MLOAD RETURNDATASIZE PUSH1 0x0 DUP3 RETURNDATACOPY RETURNDATASIZE PUSH1 0x1F NOT PUSH1 0x1F DUP3 ADD AND DUP3 ADD DUP1 PUSH1 0x40 MSTORE POP DUP2 ADD SWAP1 PUSH3 0x1756 SWAP2 SWAP1 PUSH3 0x3BEE JUMP JUMPDEST PUSH1 0x1 JUMPDEST PUSH3 0x1820 JUMPI PUSH3 0x1768 PUSH3 0x4E48 JUMP JUMPDEST DUP1 PUSH4 0x8C379A0 EQ ISZERO PUSH3 0x17DC JUMPI POP PUSH3 0x1780 PUSH3 0x4F5C JUMP JUMPDEST DUP1 PUSH3 0x178D JUMPI POP PUSH3 0x17DE JUMP JUMPDEST PUSH1 0x2 DUP8 PUSH1 0x80 ADD MLOAD PUSH1 0x0 ADD SWAP1 PUSH1 0x2 DUP2 GT ISZERO PUSH3 0x17AD JUMPI PUSH3 0x17AC PUSH3 0x4DBB JUMP JUMPDEST JUMPDEST SWAP1 DUP2 PUSH1 0x2 DUP2 GT ISZERO PUSH3 0x17C4 JUMPI PUSH3 0x17C3 PUSH3 0x4DBB JUMP JUMPDEST JUMPDEST DUP2 MSTORE POP POP DUP1 DUP8 PUSH1 0x80 ADD MLOAD PUSH1 0x80 ADD DUP2 SWAP1 MSTORE POP POP PUSH3 0x181A JUMP JUMPDEST POP JUMPDEST PUSH1 0x2 DUP7 PUSH1 0x40 ADD MLOAD PUSH1 0x0 ADD SWAP1 PUSH1 0x2 DUP2 GT ISZERO PUSH3 0x17FE JUMPI PUSH3 0x17FD PUSH3 0x4DBB JUMP JUMPDEST JUMPDEST SWAP1 DUP2 PUSH1 0x2 DUP2 GT ISZERO PUSH3 0x1815 JUMPI PUSH3 0x1814 PUSH3 0x4DBB JUMP JUMPDEST JUMPDEST DUP2 MSTORE POP POP JUMPDEST PUSH3 0x182B JUMP JUMPDEST DUP1 DUP8 PUSH1 0x80 ADD DUP2 SWAP1 MSTORE POP POP JUMPDEST JUMPDEST PUSH1 0x40 MLOAD DUP1 PUSH1 0x60 ADD PUSH1 0x40 MSTORE DUP1 DUP7 PUSH20 0xFFFFFFFFFFFFFFFFFFFFFFFFFFFFFFFFFFFFFFFF AND DUP2 MSTORE PUSH1 0x20 ADD DUP5 PUSH20 0xFFFFFFFFFFFFFFFFFFFFFFFFFFFFFFFFFFFFFFFF AND PUSH4 0x70A08231 DUP9 PUSH1 0x40 MLOAD DUP3 PUSH4 0xFFFFFFFF AND PUSH1 0xE0 SHL DUP2 MSTORE PUSH1 0x4 ADD PUSH3 0x188E SWAP2 SWAP1 PUSH3 0x44BD JUMP JUMPDEST PUSH1 0x20 PUSH1 0x40 MLOAD DUP1 DUP4 SUB DUP2 DUP7 DUP1 EXTCODESIZE ISZERO DUP1 ISZERO PUSH3 0x18A7 JUMPI PUSH1 0x0 DUP1 REVERT JUMPDEST POP GAS STATICCALL ISZERO DUP1 ISZERO PUSH3 0x18BC JUMPI RETURNDATASIZE PUSH1 0x0 DUP1 RETURNDATACOPY RETURNDATASIZE PUSH1 0x0 REVERT JUMPDEST POP POP POP POP PUSH1 0x40 MLOAD RETURNDATASIZE PUSH1 0x1F NOT PUSH1 0x1F DUP3 ADD AND DUP3 ADD DUP1 PUSH1 0x40 MSTORE POP DUP2 ADD SWAP1 PUSH3 0x18E2 SWAP2 SWAP1 PUSH3 0x3CEC JUMP JUMPDEST DUP2 MSTORE PUSH1 0x20 ADD DUP4 PUSH20 0xFFFFFFFFFFFFFFFFFFFFFFFFFFFFFFFFFFFFFFFF AND PUSH4 0x70A08231 DUP9 PUSH1 0x40 MLOAD DUP3 PUSH4 0xFFFFFFFF AND PUSH1 0xE0 SHL DUP2 MSTORE PUSH1 0x4 ADD PUSH3 0x1922 SWAP2 SWAP1 PUSH3 0x44BD JUMP JUMPDEST PUSH1 0x20 PUSH1 0x40 MLOAD DUP1 DUP4 SUB DUP2 DUP7 DUP1 EXTCODESIZE ISZERO DUP1 ISZERO PUSH3 0x193B JUMPI PUSH1 0x0 DUP1 REVERT JUMPDEST POP GAS STATICCALL ISZERO DUP1 ISZERO PUSH3 0x1950 JUMPI RETURNDATASIZE PUSH1 0x0 DUP1 RETURNDATACOPY RETURNDATASIZE PUSH1 0x0 REVERT JUMPDEST POP POP POP POP PUSH1 0x40 MLOAD RETURNDATASIZE PUSH1 0x1F NOT PUSH1 0x1F DUP3 ADD AND DUP3 ADD DUP1 PUSH1 0x40 MSTORE POP DUP2 ADD SWAP1 PUSH3 0x1976 SWAP2 SWAP1 PUSH3 0x3CEC JUMP JUMPDEST DUP2 MSTORE POP DUP7 PUSH1 0xA0 ADD DUP2 SWAP1 MSTORE POP POP POP POP POP POP SWAP2 SWAP1 POP JUMP JUMPDEST PUSH3 0x1995 PUSH3 0x3238 JUMP JUMPDEST PUSH1 0x1 DUP2 PUSH1 0x0 ADD SWAP1 PUSH1 0x2 DUP2 GT ISZERO PUSH3 0x19B1 JUMPI PUSH3 0x19B0 PUSH3 0x4DBB JUMP JUMPDEST JUMPDEST SWAP1 DUP2 PUSH1 0x2 DUP2 GT ISZERO PUSH3 0x19C8 JUMPI PUSH3 0x19C7 PUSH3 0x4DBB JUMP JUMPDEST JUMPDEST DUP2 MSTORE POP POP GAS DUP2 PUSH1 0x20 ADD DUP2 DUP2 MSTORE POP POP PUSH3 0x19E6 DUP6 DUP6 DUP6 DUP6 PUSH1 0x0 PUSH3 0x1A18 JUMP JUMPDEST DUP2 PUSH1 0x60 ADD DUP2 SWAP1 MSTORE DUP2 PUSH1 0x40 ADD DUP2 SWAP1 MSTORE POP GAS DUP2 PUSH1 0x20 ADD DUP2 DUP2 MLOAD PUSH3 0x1A09 SWAP2 SWAP1 PUSH3 0x4BAD JUMP JUMPDEST SWAP2 POP DUP2 DUP2 MSTORE POP POP SWAP5 SWAP4 POP POP POP POP JUMP JUMPDEST PUSH3 0x1A22 PUSH3 0x328C JUMP JUMPDEST PUSH1 0x0 DUP7 SWAP1 POP PUSH1 0x0 DUP6 SWAP1 POP DUP5 DUP4 PUSH1 0x80 ADD DUP2 DUP2 MSTORE POP POP DUP2 PUSH20 0xFFFFFFFFFFFFFFFFFFFFFFFFFFFFFFFFFFFFFFFF AND PUSH4 0x70A08231 DUP8 PUSH1 0x40 MLOAD DUP3 PUSH4 0xFFFFFFFF AND PUSH1 0xE0 SHL DUP2 MSTORE PUSH1 0x4 ADD PUSH3 0x1A71 SWAP2 SWAP1 PUSH3 0x44BD JUMP JUMPDEST PUSH1 0x20 PUSH1 0x40 MLOAD DUP1 DUP4 SUB DUP2 DUP7 DUP1 EXTCODESIZE ISZERO DUP1 ISZERO PUSH3 0x1A8A JUMPI PUSH1 0x0 DUP1 REVERT JUMPDEST POP GAS STATICCALL ISZERO DUP1 ISZERO PUSH3 0x1A9F JUMPI RETURNDATASIZE PUSH1 0x0 DUP1 RETURNDATACOPY RETURNDATASIZE PUSH1 0x0 REVERT JUMPDEST POP POP POP POP PUSH1 0x40 MLOAD RETURNDATASIZE PUSH1 0x1F NOT PUSH1 0x1F DUP3 ADD AND DUP3 ADD DUP1 PUSH1 0x40 MSTORE POP DUP2 ADD SWAP1 PUSH3 0x1AC5 SWAP2 SWAP1 PUSH3 0x3CEC JUMP JUMPDEST DUP4 PUSH1 0x40 ADD DUP2 DUP2 MSTORE POP POP PUSH1 0x0 DUP1 PUSH1 0x0 DUP7 ISZERO PUSH3 0x1C10 JUMPI DUP4 PUSH20 0xFFFFFFFFFFFFFFFFFFFFFFFFFFFFFFFFFFFFFFFF AND PUSH4 0x902F1AC PUSH1 0x40 MLOAD DUP2 PUSH4 0xFFFFFFFF AND PUSH1 0xE0 SHL DUP2 MSTORE PUSH1 0x4 ADD PUSH1 0x60 PUSH1 0x40 MLOAD DUP1 DUP4 SUB DUP2 DUP7 DUP1 EXTCODESIZE ISZERO DUP1 ISZERO PUSH3 0x1B21 JUMPI PUSH1 0x0 DUP1 REVERT JUMPDEST POP GAS STATICCALL ISZERO DUP1 ISZERO PUSH3 0x1B36 JUMPI RETURNDATASIZE PUSH1 0x0 DUP1 RETURNDATACOPY RETURNDATASIZE PUSH1 0x0 REVERT JUMPDEST POP POP POP POP PUSH1 0x40 MLOAD RETURNDATASIZE PUSH1 0x1F NOT PUSH1 0x1F DUP3 ADD AND DUP3 ADD DUP1 PUSH1 0x40 MSTORE POP DUP2 ADD SWAP1 PUSH3 0x1B5C SWAP2 SWAP1 PUSH3 0x3C90 JUMP JUMPDEST DUP3 PUSH14 0xFFFFFFFFFFFFFFFFFFFFFFFFFFFF AND SWAP3 POP DUP2 PUSH14 0xFFFFFFFFFFFFFFFFFFFFFFFFFFFF AND SWAP2 POP POP DUP1 SWAP4 POP DUP2 SWAP5 POP POP POP DUP4 PUSH20 0xFFFFFFFFFFFFFFFFFFFFFFFFFFFFFFFFFFFFFFFF AND PUSH4 0x18160DDD PUSH1 0x40 MLOAD DUP2 PUSH4 0xFFFFFFFF AND PUSH1 0xE0 SHL DUP2 MSTORE PUSH1 0x4 ADD PUSH1 0x20 PUSH1 0x40 MLOAD DUP1 DUP4 SUB DUP2 DUP7 DUP1 EXTCODESIZE ISZERO DUP1 ISZERO PUSH3 0x1BD2 JUMPI PUSH1 0x0 DUP1 REVERT JUMPDEST POP GAS STATICCALL ISZERO DUP1 ISZERO PUSH3 0x1BE7 JUMPI RETURNDATASIZE PUSH1 0x0 DUP1 RETURNDATACOPY RETURNDATASIZE PUSH1 0x0 REVERT JUMPDEST POP POP POP POP PUSH1 0x40 MLOAD RETURNDATASIZE PUSH1 0x1F NOT PUSH1 0x1F DUP3 ADD AND DUP3 ADD DUP1 PUSH1 0x40 MSTORE POP DUP2 ADD SWAP1 PUSH3 0x1C0D SWAP2 SWAP1 PUSH3 0x3CEC JUMP JUMPDEST SWAP1 POP JUMPDEST PUSH1 0x4 PUSH1 0x0 SWAP1 SLOAD SWAP1 PUSH2 0x100 EXP SWAP1 DIV PUSH20 0xFFFFFFFFFFFFFFFFFFFFFFFFFFFFFFFFFFFFFFFF AND PUSH20 0xFFFFFFFFFFFFFFFFFFFFFFFFFFFFFFFFFFFFFFFF AND DUP11 PUSH20 0xFFFFFFFFFFFFFFFFFFFFFFFFFFFFFFFFFFFFFFFF AND EQ ISZERO PUSH3 0x1E99 JUMPI DUP5 PUSH20 0xFFFFFFFFFFFFFFFFFFFFFFFFFFFFFFFFFFFFFFFF AND PUSH4 0x70A08231 ADDRESS PUSH1 0x40 MLOAD DUP3 PUSH4 0xFFFFFFFF AND PUSH1 0xE0 SHL DUP2 MSTORE PUSH1 0x4 ADD PUSH3 0x1CA2 SWAP2 SWAP1 PUSH3 0x44BD JUMP JUMPDEST PUSH1 0x20 PUSH1 0x40 MLOAD DUP1 DUP4 SUB DUP2 DUP7 DUP1 EXTCODESIZE ISZERO DUP1 ISZERO PUSH3 0x1CBB JUMPI PUSH1 0x0 DUP1 REVERT JUMPDEST POP GAS STATICCALL ISZERO DUP1 ISZERO PUSH3 0x1CD0 JUMPI RETURNDATASIZE PUSH1 0x0 DUP1 RETURNDATACOPY RETURNDATASIZE PUSH1 0x0 REVERT JUMPDEST POP POP POP POP PUSH1 0x40 MLOAD RETURNDATASIZE PUSH1 0x1F NOT PUSH1 0x1F DUP3 ADD AND DUP3 ADD DUP1 PUSH1 0x40 MSTORE POP DUP2 ADD SWAP1 PUSH3 0x1CF6 SWAP2 SWAP1 PUSH3 0x3CEC JUMP JUMPDEST DUP7 PUSH1 0x0 ADD DUP2 DUP2 MSTORE POP POP GAS DUP7 PUSH2 0x100 ADD DUP2 DUP2 MSTORE POP POP DUP5 PUSH20 0xFFFFFFFFFFFFFFFFFFFFFFFFFFFFFFFFFFFFFFFF AND PUSH4 0xA9059CBB DUP11 DUP11 PUSH1 0x40 MLOAD DUP4 PUSH4 0xFFFFFFFF AND PUSH1 0xE0 SHL DUP2 MSTORE PUSH1 0x4 ADD PUSH3 0x1D47 SWAP3 SWAP2 SWAP1 PUSH3 0x468B JUMP JUMPDEST PUSH1 0x20 PUSH1 0x40 MLOAD DUP1 DUP4 SUB DUP2 PUSH1 0x0 DUP8 DUP1 EXTCODESIZE ISZERO DUP1 ISZERO PUSH3 0x1D62 JUMPI PUSH1 0x0 DUP1 REVERT JUMPDEST POP GAS CALL ISZERO DUP1 ISZERO PUSH3 0x1D77 JUMPI RETURNDATASIZE PUSH1 0x0 DUP1 RETURNDATACOPY RETURNDATASIZE PUSH1 0x0 REVERT JUMPDEST POP POP POP POP PUSH1 0x40 MLOAD RETURNDATASIZE PUSH1 0x1F NOT PUSH1 0x1F DUP3 ADD AND DUP3 ADD DUP1 PUSH1 0x40 MSTORE POP DUP2 ADD SWAP1 PUSH3 0x1D9D SWAP2 SWAP1 PUSH3 0x3B8A JUMP JUMPDEST PUSH3 0x1DDF JUMPI PUSH1 0x40 MLOAD PUSH32 0x8C379A000000000000000000000000000000000000000000000000000000000 DUP2 MSTORE PUSH1 0x4 ADD PUSH3 0x1DD6 SWAP1 PUSH3 0x4742 JUMP JUMPDEST PUSH1 0x40 MLOAD DUP1 SWAP2 SUB SWAP1 REVERT JUMPDEST GAS DUP7 PUSH2 0x100 ADD DUP2 DUP2 MLOAD PUSH3 0x1DF4 SWAP2 SWAP1 PUSH3 0x4BAD JUMP JUMPDEST SWAP2 POP DUP2 DUP2 MSTORE POP POP DUP5 PUSH20 0xFFFFFFFFFFFFFFFFFFFFFFFFFFFFFFFFFFFFFFFF AND PUSH4 0x70A08231 ADDRESS PUSH1 0x40 MLOAD DUP3 PUSH4 0xFFFFFFFF AND PUSH1 0xE0 SHL DUP2 MSTORE PUSH1 0x4 ADD PUSH3 0x1E36 SWAP2 SWAP1 PUSH3 0x44BD JUMP JUMPDEST PUSH1 0x20 PUSH1 0x40 MLOAD DUP1 DUP4 SUB DUP2 DUP7 DUP1 EXTCODESIZE ISZERO DUP1 ISZERO PUSH3 0x1E4F JUMPI PUSH1 0x0 DUP1 REVERT JUMPDEST POP GAS STATICCALL ISZERO DUP1 ISZERO PUSH3 0x1E64 JUMPI RETURNDATASIZE PUSH1 0x0 DUP1 RETURNDATACOPY RETURNDATASIZE PUSH1 0x0 REVERT JUMPDEST POP POP POP POP PUSH1 0x40 MLOAD RETURNDATASIZE PUSH1 0x1F NOT PUSH1 0x1F DUP3 ADD AND DUP3 ADD DUP1 PUSH1 0x40 MSTORE POP DUP2 ADD SWAP1 PUSH3 0x1E8A SWAP2 SWAP1 PUSH3 0x3CEC JUMP JUMPDEST DUP7 PUSH1 0x20 ADD DUP2 DUP2 MSTORE POP POP PUSH3 0x27DE JUMP JUMPDEST DUP8 DUP6 PUSH20 0xFFFFFFFFFFFFFFFFFFFFFFFFFFFFFFFFFFFFFFFF AND PUSH4 0xDD62ED3E DUP13 PUSH1 0x4 PUSH1 0x0 SWAP1 SLOAD SWAP1 PUSH2 0x100 EXP SWAP1 DIV PUSH20 0xFFFFFFFFFFFFFFFFFFFFFFFFFFFFFFFFFFFFFFFF AND PUSH1 0x40 MLOAD DUP4 PUSH4 0xFFFFFFFF AND PUSH1 0xE0 SHL DUP2 MSTORE PUSH1 0x4 ADD PUSH3 0x1EF9 SWAP3 SWAP2 SWAP1 PUSH3 0x44DA JUMP JUMPDEST PUSH1 0x20 PUSH1 0x40 MLOAD DUP1 DUP4 SUB DUP2 DUP7 DUP1 EXTCODESIZE ISZERO DUP1 ISZERO PUSH3 0x1F12 JUMPI PUSH1 0x0 DUP1 REVERT JUMPDEST POP GAS STATICCALL ISZERO DUP1 ISZERO PUSH3 0x1F27 JUMPI RETURNDATASIZE PUSH1 0x0 DUP1 RETURNDATACOPY RETURNDATASIZE PUSH1 0x0 REVERT JUMPDEST POP POP POP POP PUSH1 0x40 MLOAD RETURNDATASIZE PUSH1 0x1F NOT PUSH1 0x1F DUP3 ADD AND DUP3 ADD DUP1 PUSH1 0x40 MSTORE POP DUP2 ADD SWAP1 PUSH3 0x1F4D SWAP2 SWAP1 PUSH3 0x3CEC JUMP JUMPDEST LT ISZERO DUP1 ISZERO PUSH3 0x1FEA JUMPI POP DUP8 DUP6 PUSH20 0xFFFFFFFFFFFFFFFFFFFFFFFFFFFFFFFFFFFFFFFF AND PUSH4 0x70A08231 DUP13 PUSH1 0x40 MLOAD DUP3 PUSH4 0xFFFFFFFF AND PUSH1 0xE0 SHL DUP2 MSTORE PUSH1 0x4 ADD PUSH3 0x1F93 SWAP2 SWAP1 PUSH3 0x44BD JUMP JUMPDEST PUSH1 0x20 PUSH1 0x40 MLOAD DUP1 DUP4 SUB DUP2 DUP7 DUP1 EXTCODESIZE ISZERO DUP1 ISZERO PUSH3 0x1FAC JUMPI PUSH1 0x0 DUP1 REVERT JUMPDEST POP GAS STATICCALL ISZERO DUP1 ISZERO PUSH3 0x1FC1 JUMPI RETURNDATASIZE PUSH1 0x0 DUP1 RETURNDATACOPY RETURNDATASIZE PUSH1 0x0 REVERT JUMPDEST POP POP POP POP PUSH1 0x40 MLOAD RETURNDATASIZE PUSH1 0x1F NOT PUSH1 0x1F DUP3 ADD AND DUP3 ADD DUP1 PUSH1 0x40 MSTORE POP DUP2 ADD SWAP1 PUSH3 0x1FE7 SWAP2 SWAP1 PUSH3 0x3CEC JUMP JUMPDEST LT ISZERO JUMPDEST ISZERO PUSH3 0x2224 JUMPI DUP5 PUSH20 0xFFFFFFFFFFFFFFFFFFFFFFFFFFFFFFFFFFFFFFFF AND PUSH4 0x70A08231 DUP12 PUSH1 0x40 MLOAD DUP3 PUSH4 0xFFFFFFFF AND PUSH1 0xE0 SHL DUP2 MSTORE PUSH1 0x4 ADD PUSH3 0x202B SWAP2 SWAP1 PUSH3 0x44BD JUMP JUMPDEST PUSH1 0x20 PUSH1 0x40 MLOAD DUP1 DUP4 SUB DUP2 DUP7 DUP1 EXTCODESIZE ISZERO DUP1 ISZERO PUSH3 0x2044 JUMPI PUSH1 0x0 DUP1 REVERT JUMPDEST POP GAS STATICCALL ISZERO DUP1 ISZERO PUSH3 0x2059 JUMPI RETURNDATASIZE PUSH1 0x0 DUP1 RETURNDATACOPY RETURNDATASIZE PUSH1 0x0 REVERT JUMPDEST POP POP POP POP PUSH1 0x40 MLOAD RETURNDATASIZE PUSH1 0x1F NOT PUSH1 0x1F DUP3 ADD AND DUP3 ADD DUP1 PUSH1 0x40 MSTORE POP DUP2 ADD SWAP1 PUSH3 0x207F SWAP2 SWAP1 PUSH3 0x3CEC JUMP JUMPDEST DUP7 PUSH1 0x0 ADD DUP2 DUP2 MSTORE POP POP GAS DUP7 PUSH2 0x100 ADD DUP2 DUP2 MSTORE POP POP DUP5 PUSH20 0xFFFFFFFFFFFFFFFFFFFFFFFFFFFFFFFFFFFFFFFF AND PUSH4 0x23B872DD DUP12 DUP12 DUP12 PUSH1 0x40 MLOAD DUP5 PUSH4 0xFFFFFFFF AND PUSH1 0xE0 SHL DUP2 MSTORE PUSH1 0x4 ADD PUSH3 0x20D2 SWAP4 SWAP3 SWAP2 SWAP1 PUSH3 0x464E JUMP JUMPDEST PUSH1 0x20 PUSH1 0x40 MLOAD DUP1 DUP4 SUB DUP2 PUSH1 0x0 DUP8 DUP1 EXTCODESIZE ISZERO DUP1 ISZERO PUSH3 0x20ED JUMPI PUSH1 0x0 DUP1 REVERT JUMPDEST POP GAS CALL ISZERO DUP1 ISZERO PUSH3 0x2102 JUMPI RETURNDATASIZE PUSH1 0x0 DUP1 RETURNDATACOPY RETURNDATASIZE PUSH1 0x0 REVERT JUMPDEST POP POP POP POP PUSH1 0x40 MLOAD RETURNDATASIZE PUSH1 0x1F NOT PUSH1 0x1F DUP3 ADD AND DUP3 ADD DUP1 PUSH1 0x40 MSTORE POP DUP2 ADD SWAP1 PUSH3 0x2128 SWAP2 SWAP1 PUSH3 0x3B8A JUMP JUMPDEST PUSH3 0x216A JUMPI PUSH1 0x40 MLOAD PUSH32 0x8C379A000000000000000000000000000000000000000000000000000000000 DUP2 MSTORE PUSH1 0x4 ADD PUSH3 0x2161 SWAP1 PUSH3 0x4720 JUMP JUMPDEST PUSH1 0x40 MLOAD DUP1 SWAP2 SUB SWAP1 REVERT JUMPDEST GAS DUP7 PUSH2 0x100 ADD DUP2 DUP2 MLOAD PUSH3 0x217F SWAP2 SWAP1 PUSH3 0x4BAD JUMP JUMPDEST SWAP2 POP DUP2 DUP2 MSTORE POP POP DUP5 PUSH20 0xFFFFFFFFFFFFFFFFFFFFFFFFFFFFFFFFFFFFFFFF AND PUSH4 0x70A08231 DUP12 PUSH1 0x40 MLOAD DUP3 PUSH4 0xFFFFFFFF AND PUSH1 0xE0 SHL DUP2 MSTORE PUSH1 0x4 ADD PUSH3 0x21C1 SWAP2 SWAP1 PUSH3 0x44BD JUMP JUMPDEST PUSH1 0x20 PUSH1 0x40 MLOAD DUP1 DUP4 SUB DUP2 DUP7 DUP1 EXTCODESIZE ISZERO DUP1 ISZERO PUSH3 0x21DA JUMPI PUSH1 0x0 DUP1 REVERT JUMPDEST POP GAS STATICCALL ISZERO DUP1 ISZERO PUSH3 0x21EF JUMPI RETURNDATASIZE PUSH1 0x0 DUP1 RETURNDATACOPY RETURNDATASIZE PUSH1 0x0 REVERT JUMPDEST POP POP POP POP PUSH1 0x40 MLOAD RETURNDATASIZE PUSH1 0x1F NOT PUSH1 0x1F DUP3 ADD AND DUP3 ADD DUP1 PUSH1 0x40 MSTORE POP DUP2 ADD SWAP1 PUSH3 0x2215 SWAP2 SWAP1 PUSH3 0x3CEC JUMP JUMPDEST DUP7 PUSH1 0x20 ADD DUP2 DUP2 MSTORE POP POP PUSH3 0x27DD JUMP JUMPDEST DUP8 DUP6 PUSH20 0xFFFFFFFFFFFFFFFFFFFFFFFFFFFFFFFFFFFFFFFF AND PUSH4 0xDD62ED3E ORIGIN PUSH1 0x4 PUSH1 0x0 SWAP1 SLOAD SWAP1 PUSH2 0x100 EXP SWAP1 DIV PUSH20 0xFFFFFFFFFFFFFFFFFFFFFFFFFFFFFFFFFFFFFFFF AND PUSH1 0x40 MLOAD DUP4 PUSH4 0xFFFFFFFF AND PUSH1 0xE0 SHL DUP2 MSTORE PUSH1 0x4 ADD PUSH3 0x2284 SWAP3 SWAP2 SWAP1 PUSH3 0x44DA JUMP JUMPDEST PUSH1 0x20 PUSH1 0x40 MLOAD DUP1 DUP4 SUB DUP2 DUP7 DUP1 EXTCODESIZE ISZERO DUP1 ISZERO PUSH3 0x229D JUMPI PUSH1 0x0 DUP1 REVERT JUMPDEST POP GAS STATICCALL ISZERO DUP1 ISZERO PUSH3 0x22B2 JUMPI RETURNDATASIZE PUSH1 0x0 DUP1 RETURNDATACOPY RETURNDATASIZE PUSH1 0x0 REVERT JUMPDEST POP POP POP POP PUSH1 0x40 MLOAD RETURNDATASIZE PUSH1 0x1F NOT PUSH1 0x1F DUP3 ADD AND DUP3 ADD DUP1 PUSH1 0x40 MSTORE POP DUP2 ADD SWAP1 PUSH3 0x22D8 SWAP2 SWAP1 PUSH3 0x3CEC JUMP JUMPDEST LT ISZERO DUP1 ISZERO PUSH3 0x2375 JUMPI POP DUP8 DUP6 PUSH20 0xFFFFFFFFFFFFFFFFFFFFFFFFFFFFFFFFFFFFFFFF AND PUSH4 0x70A08231 ORIGIN PUSH1 0x40 MLOAD DUP3 PUSH4 0xFFFFFFFF AND PUSH1 0xE0 SHL DUP2 MSTORE PUSH1 0x4 ADD PUSH3 0x231E SWAP2 SWAP1 PUSH3 0x44BD JUMP JUMPDEST PUSH1 0x20 PUSH1 0x40 MLOAD DUP1 DUP4 SUB DUP2 DUP7 DUP1 EXTCODESIZE ISZERO DUP1 ISZERO PUSH3 0x2337 JUMPI PUSH1 0x0 DUP1 REVERT JUMPDEST POP GAS STATICCALL ISZERO DUP1 ISZERO PUSH3 0x234C JUMPI RETURNDATASIZE PUSH1 0x0 DUP1 RETURNDATACOPY RETURNDATASIZE PUSH1 0x0 REVERT JUMPDEST POP POP POP POP PUSH1 0x40 MLOAD RETURNDATASIZE PUSH1 0x1F NOT PUSH1 0x1F DUP3 ADD AND DUP3 ADD DUP1 PUSH1 0x40 MSTORE POP DUP2 ADD SWAP1 PUSH3 0x2372 SWAP2 SWAP1 PUSH3 0x3CEC JUMP JUMPDEST LT ISZERO JUMPDEST ISZERO PUSH3 0x25AF JUMPI DUP5 PUSH20 0xFFFFFFFFFFFFFFFFFFFFFFFFFFFFFFFFFFFFFFFF AND PUSH4 0x70A08231 ORIGIN PUSH1 0x40 MLOAD DUP3 PUSH4 0xFFFFFFFF AND PUSH1 0xE0 SHL DUP2 MSTORE PUSH1 0x4 ADD PUSH3 0x23B6 SWAP2 SWAP1 PUSH3 0x44BD JUMP JUMPDEST PUSH1 0x20 PUSH1 0x40 MLOAD DUP1 DUP4 SUB DUP2 DUP7 DUP1 EXTCODESIZE ISZERO DUP1 ISZERO PUSH3 0x23CF JUMPI PUSH1 0x0 DUP1 REVERT JUMPDEST POP GAS STATICCALL ISZERO DUP1 ISZERO PUSH3 0x23E4 JUMPI RETURNDATASIZE PUSH1 0x0 DUP1 RETURNDATACOPY RETURNDATASIZE PUSH1 0x0 REVERT JUMPDEST POP POP POP POP PUSH1 0x40 MLOAD RETURNDATASIZE PUSH1 0x1F NOT PUSH1 0x1F DUP3 ADD AND DUP3 ADD DUP1 PUSH1 0x40 MSTORE POP DUP2 ADD SWAP1 PUSH3 0x240A SWAP2 SWAP1 PUSH3 0x3CEC JUMP JUMPDEST DUP7 PUSH1 0x0 ADD DUP2 DUP2 MSTORE POP POP GAS DUP7 PUSH2 0x100 ADD DUP2 DUP2 MSTORE POP POP DUP5 PUSH20 0xFFFFFFFFFFFFFFFFFFFFFFFFFFFFFFFFFFFFFFFF AND PUSH4 0x23B872DD ORIGIN DUP12 DUP12 PUSH1 0x40 MLOAD DUP5 PUSH4 0xFFFFFFFF AND PUSH1 0xE0 SHL DUP2 MSTORE PUSH1 0x4 ADD PUSH3 0x245D SWAP4 SWAP3 SWAP2 SWAP1 PUSH3 0x464E JUMP JUMPDEST PUSH1 0x20 PUSH1 0x40 MLOAD DUP1 DUP4 SUB DUP2 PUSH1 0x0 DUP8 DUP1 EXTCODESIZE ISZERO DUP1 ISZERO PUSH3 0x2478 JUMPI PUSH1 0x0 DUP1 REVERT JUMPDEST POP GAS CALL ISZERO DUP1 ISZERO PUSH3 0x248D JUMPI RETURNDATASIZE PUSH1 0x0 DUP1 RETURNDATACOPY RETURNDATASIZE PUSH1 0x0 REVERT JUMPDEST POP POP POP POP PUSH1 0x40 MLOAD RETURNDATASIZE PUSH1 0x1F NOT PUSH1 0x1F DUP3 ADD AND DUP3 ADD DUP1 PUSH1 0x40 MSTORE POP DUP2 ADD SWAP1 PUSH3 0x24B3 SWAP2 SWAP1 PUSH3 0x3B8A JUMP JUMPDEST PUSH3 0x24F5 JUMPI PUSH1 0x40 MLOAD PUSH32 0x8C379A000000000000000000000000000000000000000000000000000000000 DUP2 MSTORE PUSH1 0x4 ADD PUSH3 0x24EC SWAP1 PUSH3 0x4720 JUMP JUMPDEST PUSH1 0x40 MLOAD DUP1 SWAP2 SUB SWAP1 REVERT JUMPDEST GAS DUP7 PUSH2 0x100 ADD DUP2 DUP2 MLOAD PUSH3 0x250A SWAP2 SWAP1 PUSH3 0x4BAD JUMP JUMPDEST SWAP2 POP DUP2 DUP2 MSTORE POP POP DUP5 PUSH20 0xFFFFFFFFFFFFFFFFFFFFFFFFFFFFFFFFFFFFFFFF AND PUSH4 0x70A08231 ORIGIN PUSH1 0x40 MLOAD DUP3 PUSH4 0xFFFFFFFF AND PUSH1 0xE0 SHL DUP2 MSTORE PUSH1 0x4 ADD PUSH3 0x254C SWAP2 SWAP1 PUSH3 0x44BD JUMP JUMPDEST PUSH1 0x20 PUSH1 0x40 MLOAD DUP1 DUP4 SUB DUP2 DUP7 DUP1 EXTCODESIZE ISZERO DUP1 ISZERO PUSH3 0x2565 JUMPI PUSH1 0x0 DUP1 REVERT JUMPDEST POP GAS STATICCALL ISZERO DUP1 ISZERO PUSH3 0x257A JUMPI RETURNDATASIZE PUSH1 0x0 DUP1 RETURNDATACOPY RETURNDATASIZE PUSH1 0x0 REVERT JUMPDEST POP POP POP POP PUSH1 0x40 MLOAD RETURNDATASIZE PUSH1 0x1F NOT PUSH1 0x1F DUP3 ADD AND DUP3 ADD DUP1 PUSH1 0x40 MSTORE POP DUP2 ADD SWAP1 PUSH3 0x25A0 SWAP2 SWAP1 PUSH3 0x3CEC JUMP JUMPDEST DUP7 PUSH1 0x20 ADD DUP2 DUP2 MSTORE POP POP PUSH3 0x27DC JUMP JUMPDEST DUP5 PUSH20 0xFFFFFFFFFFFFFFFFFFFFFFFFFFFFFFFFFFFFFFFF AND PUSH4 0x70A08231 ADDRESS PUSH1 0x40 MLOAD DUP3 PUSH4 0xFFFFFFFF AND PUSH1 0xE0 SHL DUP2 MSTORE PUSH1 0x4 ADD PUSH3 0x25EA SWAP2 SWAP1 PUSH3 0x44BD JUMP JUMPDEST PUSH1 0x20 PUSH1 0x40 MLOAD DUP1 DUP4 SUB DUP2 DUP7 DUP1 EXTCODESIZE ISZERO DUP1 ISZERO PUSH3 0x2603 JUMPI PUSH1 0x0 DUP1 REVERT JUMPDEST POP GAS STATICCALL ISZERO DUP1 ISZERO PUSH3 0x2618 JUMPI RETURNDATASIZE PUSH1 0x0 DUP1 RETURNDATACOPY RETURNDATASIZE PUSH1 0x0 REVERT JUMPDEST POP POP POP POP PUSH1 0x40 MLOAD RETURNDATASIZE PUSH1 0x1F NOT PUSH1 0x1F DUP3 ADD AND DUP3 ADD DUP1 PUSH1 0x40 MSTORE POP DUP2 ADD SWAP1 PUSH3 0x263E SWAP2 SWAP1 PUSH3 0x3CEC JUMP JUMPDEST DUP7 PUSH1 0x0 ADD DUP2 DUP2 MSTORE POP POP GAS DUP7 PUSH2 0x100 ADD DUP2 DUP2 MSTORE POP POP DUP5 PUSH20 0xFFFFFFFFFFFFFFFFFFFFFFFFFFFFFFFFFFFFFFFF AND PUSH4 0xA9059CBB DUP11 DUP11 PUSH1 0x40 MLOAD DUP4 PUSH4 0xFFFFFFFF AND PUSH1 0xE0 SHL DUP2 MSTORE PUSH1 0x4 ADD PUSH3 0x268F SWAP3 SWAP2 SWAP1 PUSH3 0x468B JUMP JUMPDEST PUSH1 0x20 PUSH1 0x40 MLOAD DUP1 DUP4 SUB DUP2 PUSH1 0x0 DUP8 DUP1 EXTCODESIZE ISZERO DUP1 ISZERO PUSH3 0x26AA JUMPI PUSH1 0x0 DUP1 REVERT JUMPDEST POP GAS CALL ISZERO DUP1 ISZERO PUSH3 0x26BF JUMPI RETURNDATASIZE PUSH1 0x0 DUP1 RETURNDATACOPY RETURNDATASIZE PUSH1 0x0 REVERT JUMPDEST POP POP POP POP PUSH1 0x40 MLOAD RETURNDATASIZE PUSH1 0x1F NOT PUSH1 0x1F DUP3 ADD AND DUP3 ADD DUP1 PUSH1 0x40 MSTORE POP DUP2 ADD SWAP1 PUSH3 0x26E5 SWAP2 SWAP1 PUSH3 0x3B8A JUMP JUMPDEST PUSH3 0x2727 JUMPI PUSH1 0x40 MLOAD PUSH32 0x8C379A000000000000000000000000000000000000000000000000000000000 DUP2 MSTORE PUSH1 0x4 ADD PUSH3 0x271E SWAP1 PUSH3 0x4742 JUMP JUMPDEST PUSH1 0x40 MLOAD DUP1 SWAP2 SUB SWAP1 REVERT JUMPDEST GAS DUP7 PUSH2 0x100 ADD DUP2 DUP2 MLOAD PUSH3 0x273C SWAP2 SWAP1 PUSH3 0x4BAD JUMP JUMPDEST SWAP2 POP DUP2 DUP2 MSTORE POP POP DUP5 PUSH20 0xFFFFFFFFFFFFFFFFFFFFFFFFFFFFFFFFFFFFFFFF AND PUSH4 0x70A08231 ADDRESS PUSH1 0x40 MLOAD DUP3 PUSH4 0xFFFFFFFF AND PUSH1 0xE0 SHL DUP2 MSTORE PUSH1 0x4 ADD PUSH3 0x277E SWAP2 SWAP1 PUSH3 0x44BD JUMP JUMPDEST PUSH1 0x20 PUSH1 0x40 MLOAD DUP1 DUP4 SUB DUP2 DUP7 DUP1 EXTCODESIZE ISZERO DUP1 ISZERO PUSH3 0x2797 JUMPI PUSH1 0x0 DUP1 REVERT JUMPDEST POP GAS STATICCALL ISZERO DUP1 ISZERO PUSH3 0x27AC JUMPI RETURNDATASIZE PUSH1 0x0 DUP1 RETURNDATACOPY RETURNDATASIZE PUSH1 0x0 REVERT JUMPDEST POP POP POP POP PUSH1 0x40 MLOAD RETURNDATASIZE PUSH1 0x1F NOT PUSH1 0x1F DUP3 ADD AND DUP3 ADD DUP1 PUSH1 0x40 MSTORE POP DUP2 ADD SWAP1 PUSH3 0x27D2 SWAP2 SWAP1 PUSH3 0x3CEC JUMP JUMPDEST DUP7 PUSH1 0x20 ADD DUP2 DUP2 MSTORE POP POP JUMPDEST JUMPDEST JUMPDEST DUP5 PUSH20 0xFFFFFFFFFFFFFFFFFFFFFFFFFFFFFFFFFFFFFFFF AND PUSH4 0x70A08231 DUP11 PUSH1 0x40 MLOAD DUP3 PUSH4 0xFFFFFFFF AND PUSH1 0xE0 SHL DUP2 MSTORE PUSH1 0x4 ADD PUSH3 0x2819 SWAP2 SWAP1 PUSH3 0x44BD JUMP JUMPDEST PUSH1 0x20 PUSH1 0x40 MLOAD DUP1 DUP4 SUB DUP2 DUP7 DUP1 EXTCODESIZE ISZERO DUP1 ISZERO PUSH3 0x2832 JUMPI PUSH1 0x0 DUP1 REVERT JUMPDEST POP GAS STATICCALL ISZERO DUP1 ISZERO PUSH3 0x2847 JUMPI RETURNDATASIZE PUSH1 0x0 DUP1 RETURNDATACOPY RETURNDATASIZE PUSH1 0x0 REVERT JUMPDEST POP POP POP POP PUSH1 0x40 MLOAD RETURNDATASIZE PUSH1 0x1F NOT PUSH1 0x1F DUP3 ADD AND DUP3 ADD DUP1 PUSH1 0x40 MSTORE POP DUP2 ADD SWAP1 PUSH3 0x286D SWAP2 SWAP1 PUSH3 0x3CEC JUMP JUMPDEST DUP7 PUSH1 0x60 ADD DUP2 DUP2 MSTORE POP POP DUP7 ISZERO PUSH3 0x2ADC JUMPI PUSH1 0x0 DUP1 DUP6 PUSH20 0xFFFFFFFFFFFFFFFFFFFFFFFFFFFFFFFFFFFFFFFF AND PUSH4 0x902F1AC PUSH1 0x40 MLOAD DUP2 PUSH4 0xFFFFFFFF AND PUSH1 0xE0 SHL DUP2 MSTORE PUSH1 0x4 ADD PUSH1 0x60 PUSH1 0x40 MLOAD DUP1 DUP4 SUB DUP2 DUP7 DUP1 EXTCODESIZE ISZERO DUP1 ISZERO PUSH3 0x28C7 JUMPI PUSH1 0x0 DUP1 REVERT JUMPDEST POP GAS STATICCALL ISZERO DUP1 ISZERO PUSH3 0x28DC JUMPI RETURNDATASIZE PUSH1 0x0 DUP1 RETURNDATACOPY RETURNDATASIZE PUSH1 0x0 REVERT JUMPDEST POP POP POP POP PUSH1 0x40 MLOAD RETURNDATASIZE PUSH1 0x1F NOT PUSH1 0x1F DUP3 ADD AND DUP3 ADD DUP1 PUSH1 0x40 MSTORE POP DUP2 ADD SWAP1 PUSH3 0x2902 SWAP2 SWAP1 PUSH3 0x3C90 JUMP JUMPDEST POP PUSH14 0xFFFFFFFFFFFFFFFFFFFFFFFFFFFF AND SWAP2 POP PUSH14 0xFFFFFFFFFFFFFFFFFFFFFFFFFFFF AND SWAP2 POP DUP13 PUSH20 0xFFFFFFFFFFFFFFFFFFFFFFFFFFFFFFFFFFFFFFFF AND DUP7 PUSH20 0xFFFFFFFFFFFFFFFFFFFFFFFFFFFFFFFFFFFFFFFF AND PUSH4 0xDFE1681 PUSH1 0x40 MLOAD DUP2 PUSH4 0xFFFFFFFF AND PUSH1 0xE0 SHL DUP2 MSTORE PUSH1 0x4 ADD PUSH1 0x20 PUSH1 0x40 MLOAD DUP1 DUP4 SUB DUP2 DUP7 DUP1 EXTCODESIZE ISZERO DUP1 ISZERO PUSH3 0x2985 JUMPI PUSH1 0x0 DUP1 REVERT JUMPDEST POP GAS STATICCALL ISZERO DUP1 ISZERO PUSH3 0x299A JUMPI RETURNDATASIZE PUSH1 0x0 DUP1 RETURNDATACOPY RETURNDATASIZE PUSH1 0x0 REVERT JUMPDEST POP POP POP POP PUSH1 0x40 MLOAD RETURNDATASIZE PUSH1 0x1F NOT PUSH1 0x1F DUP3 ADD AND DUP3 ADD DUP1 PUSH1 0x40 MSTORE POP DUP2 ADD SWAP1 PUSH3 0x29C0 SWAP2 SWAP1 PUSH3 0x398D JUMP JUMPDEST PUSH20 0xFFFFFFFFFFFFFFFFFFFFFFFFFFFFFFFFFFFFFFFF AND EQ ISZERO PUSH3 0x2A11 JUMPI DUP2 DUP9 PUSH1 0x60 ADD MLOAD PUSH3 0x29EF SWAP2 SWAP1 PUSH3 0x4BAD JUMP JUMPDEST DUP9 PUSH1 0xC0 ADD DUP2 DUP2 MSTORE POP POP DUP4 DUP2 LT DUP9 PUSH2 0x160 ADD SWAP1 ISZERO ISZERO SWAP1 DUP2 ISZERO ISZERO DUP2 MSTORE POP POP PUSH3 0x2A40 JUMP JUMPDEST DUP1 DUP9 PUSH1 0x60 ADD MLOAD PUSH3 0x2A23 SWAP2 SWAP1 PUSH3 0x4BAD JUMP JUMPDEST DUP9 PUSH1 0xC0 ADD DUP2 DUP2 MSTORE POP POP DUP5 DUP3 LT DUP9 PUSH2 0x160 ADD SWAP1 ISZERO ISZERO SWAP1 DUP2 ISZERO ISZERO DUP2 MSTORE POP POP JUMPDEST DUP3 DUP7 PUSH20 0xFFFFFFFFFFFFFFFFFFFFFFFFFFFFFFFFFFFFFFFF AND PUSH4 0x18160DDD PUSH1 0x40 MLOAD DUP2 PUSH4 0xFFFFFFFF AND PUSH1 0xE0 SHL DUP2 MSTORE PUSH1 0x4 ADD PUSH1 0x20 PUSH1 0x40 MLOAD DUP1 DUP4 SUB DUP2 DUP7 DUP1 EXTCODESIZE ISZERO DUP1 ISZERO PUSH3 0x2A88 JUMPI PUSH1 0x0 DUP1 REVERT JUMPDEST POP GAS STATICCALL ISZERO DUP1 ISZERO PUSH3 0x2A9D JUMPI RETURNDATASIZE PUSH1 0x0 DUP1 RETURNDATACOPY RETURNDATASIZE PUSH1 0x0 REVERT JUMPDEST POP POP POP POP PUSH1 0x40 MLOAD RETURNDATASIZE PUSH1 0x1F NOT PUSH1 0x1F DUP3 ADD AND DUP3 ADD DUP1 PUSH1 0x40 MSTORE POP DUP2 ADD SWAP1 PUSH3 0x2AC3 SWAP2 SWAP1 PUSH3 0x3CEC JUMP JUMPDEST GT DUP9 PUSH2 0x140 ADD SWAP1 ISZERO ISZERO SWAP1 DUP2 ISZERO ISZERO DUP2 MSTORE POP POP POP POP PUSH3 0x2AFC JUMP JUMPDEST DUP6 PUSH1 0x40 ADD MLOAD DUP7 PUSH1 0x60 ADD MLOAD PUSH3 0x2AF2 SWAP2 SWAP1 PUSH3 0x4BAD JUMP JUMPDEST DUP7 PUSH1 0xC0 ADD DUP2 DUP2 MSTORE POP POP JUMPDEST DUP6 PUSH1 0x20 ADD MLOAD DUP7 PUSH1 0x0 ADD MLOAD SUB DUP7 PUSH1 0xA0 ADD DUP2 DUP2 MSTORE POP POP DUP6 PUSH1 0xA0 ADD MLOAD DUP9 SUB DUP7 PUSH1 0xE0 ADD DUP2 DUP2 MSTORE POP POP PUSH3 0x2B34 DUP7 PUSH1 0xC0 ADD MLOAD DUP8 PUSH1 0xA0 ADD MLOAD PUSH3 0x3189 JUMP JUMPDEST DUP7 PUSH2 0x120 ADD DUP2 DUP2 MSTORE POP POP POP POP POP POP POP SWAP6 SWAP5 POP POP POP POP POP JUMP JUMPDEST PUSH3 0x2B56 PUSH3 0x328C JUMP JUMPDEST PUSH1 0x0 DUP6 SWAP1 POP PUSH1 0x0 DUP1 DUP7 EQ PUSH3 0x2BED JUMPI DUP2 PUSH20 0xFFFFFFFFFFFFFFFFFFFFFFFFFFFFFFFFFFFFFFFF AND PUSH4 0xDFE1681 PUSH1 0x40 MLOAD DUP2 PUSH4 0xFFFFFFFF AND PUSH1 0xE0 SHL DUP2 MSTORE PUSH1 0x4 ADD PUSH1 0x20 PUSH1 0x40 MLOAD DUP1 DUP4 SUB DUP2 DUP7 DUP1 EXTCODESIZE ISZERO DUP1 ISZERO PUSH3 0x2BAC JUMPI PUSH1 0x0 DUP1 REVERT JUMPDEST POP GAS STATICCALL ISZERO DUP1 ISZERO PUSH3 0x2BC1 JUMPI RETURNDATASIZE PUSH1 0x0 DUP1 RETURNDATACOPY RETURNDATASIZE PUSH1 0x0 REVERT JUMPDEST POP POP POP POP PUSH1 0x40 MLOAD RETURNDATASIZE PUSH1 0x1F NOT PUSH1 0x1F DUP3 ADD AND DUP3 ADD DUP1 PUSH1 0x40 MSTORE POP DUP2 ADD SWAP1 PUSH3 0x2BE7 SWAP2 SWAP1 PUSH3 0x398D JUMP JUMPDEST PUSH3 0x2C70 JUMP JUMPDEST DUP2 PUSH20 0xFFFFFFFFFFFFFFFFFFFFFFFFFFFFFFFFFFFFFFFF AND PUSH4 0xD21220A7 PUSH1 0x40 MLOAD DUP2 PUSH4 0xFFFFFFFF AND PUSH1 0xE0 SHL DUP2 MSTORE PUSH1 0x4 ADD PUSH1 0x20 PUSH1 0x40 MLOAD DUP1 DUP4 SUB DUP2 DUP7 DUP1 EXTCODESIZE ISZERO DUP1 ISZERO PUSH3 0x2C34 JUMPI PUSH1 0x0 DUP1 REVERT JUMPDEST POP GAS STATICCALL ISZERO DUP1 ISZERO PUSH3 0x2C49 JUMPI RETURNDATASIZE PUSH1 0x0 DUP1 RETURNDATACOPY RETURNDATASIZE PUSH1 0x0 REVERT JUMPDEST POP POP POP POP PUSH1 0x40 MLOAD RETURNDATASIZE PUSH1 0x1F NOT PUSH1 0x1F DUP3 ADD AND DUP3 ADD DUP1 PUSH1 0x40 MSTORE POP DUP2 ADD SWAP1 PUSH3 0x2C6F SWAP2 SWAP1 PUSH3 0x398D JUMP JUMPDEST JUMPDEST SWAP1 POP PUSH1 0x0 DUP7 EQ PUSH3 0x2C82 JUMPI DUP6 PUSH3 0x2C84 JUMP JUMPDEST DUP5 JUMPDEST DUP4 PUSH1 0x80 ADD DUP2 DUP2 MSTORE POP POP DUP1 PUSH20 0xFFFFFFFFFFFFFFFFFFFFFFFFFFFFFFFFFFFFFFFF AND PUSH4 0x70A08231 DUP9 PUSH1 0x40 MLOAD DUP3 PUSH4 0xFFFFFFFF AND PUSH1 0xE0 SHL DUP2 MSTORE PUSH1 0x4 ADD PUSH3 0x2CC8 SWAP2 SWAP1 PUSH3 0x44BD JUMP JUMPDEST PUSH1 0x20 PUSH1 0x40 MLOAD DUP1 DUP4 SUB DUP2 DUP7 DUP1 EXTCODESIZE ISZERO DUP1 ISZERO PUSH3 0x2CE1 JUMPI PUSH1 0x0 DUP1 REVERT JUMPDEST POP GAS STATICCALL ISZERO DUP1 ISZERO PUSH3 0x2CF6 JUMPI RETURNDATASIZE PUSH1 0x0 DUP1 RETURNDATACOPY RETURNDATASIZE PUSH1 0x0 REVERT JUMPDEST POP POP POP POP PUSH1 0x40 MLOAD RETURNDATASIZE PUSH1 0x1F NOT PUSH1 0x1F DUP3 ADD AND DUP3 ADD DUP1 PUSH1 0x40 MSTORE POP DUP2 ADD SWAP1 PUSH3 0x2D1C SWAP2 SWAP1 PUSH3 0x3CEC JUMP JUMPDEST DUP4 PUSH1 0x0 ADD DUP2 DUP2 MSTORE POP POP DUP1 PUSH20 0xFFFFFFFFFFFFFFFFFFFFFFFFFFFFFFFFFFFFFFFF AND PUSH4 0x70A08231 DUP6 PUSH1 0x40 MLOAD DUP3 PUSH4 0xFFFFFFFF AND PUSH1 0xE0 SHL DUP2 MSTORE PUSH1 0x4 ADD PUSH3 0x2D60 SWAP2 SWAP1 PUSH3 0x44BD JUMP JUMPDEST PUSH1 0x20 PUSH1 0x40 MLOAD DUP1 DUP4 SUB DUP2 DUP7 DUP1 EXTCODESIZE ISZERO DUP1 ISZERO PUSH3 0x2D79 JUMPI PUSH1 0x0 DUP1 REVERT JUMPDEST POP GAS STATICCALL ISZERO DUP1 ISZERO PUSH3 0x2D8E JUMPI RETURNDATASIZE PUSH1 0x0 DUP1 RETURNDATACOPY RETURNDATASIZE PUSH1 0x0 REVERT JUMPDEST POP POP POP POP PUSH1 0x40 MLOAD RETURNDATASIZE PUSH1 0x1F NOT PUSH1 0x1F DUP3 ADD AND DUP3 ADD DUP1 PUSH1 0x40 MSTORE POP DUP2 ADD SWAP1 PUSH3 0x2DB4 SWAP2 SWAP1 PUSH3 0x3CEC JUMP JUMPDEST DUP4 PUSH1 0x40 ADD DUP2 DUP2 MSTORE POP POP GAS DUP4 PUSH2 0x100 ADD DUP2 DUP2 MSTORE POP POP DUP2 PUSH20 0xFFFFFFFFFFFFFFFFFFFFFFFFFFFFFFFFFFFFFFFF AND PUSH4 0x22C0D9F DUP8 DUP8 DUP8 PUSH1 0x0 PUSH8 0xFFFFFFFFFFFFFFFF DUP2 GT ISZERO PUSH3 0x2E05 JUMPI PUSH3 0x2E04 PUSH3 0x4E19 JUMP JUMPDEST JUMPDEST PUSH1 0x40 MLOAD SWAP1 DUP1 DUP3 MSTORE DUP1 PUSH1 0x1F ADD PUSH1 0x1F NOT AND PUSH1 0x20 ADD DUP3 ADD PUSH1 0x40 MSTORE DUP1 ISZERO PUSH3 0x2E38 JUMPI DUP2 PUSH1 0x20 ADD PUSH1 0x1 DUP3 MUL DUP1 CALLDATASIZE DUP4 CALLDATACOPY DUP1 DUP3 ADD SWAP2 POP POP SWAP1 POP JUMPDEST POP PUSH1 0x40 MLOAD DUP6 PUSH4 0xFFFFFFFF AND PUSH1 0xE0 SHL DUP2 MSTORE PUSH1 0x4 ADD PUSH3 0x2E5A SWAP5 SWAP4 SWAP3 SWAP2 SWAP1 PUSH3 0x47FD JUMP JUMPDEST PUSH1 0x0 PUSH1 0x40 MLOAD DUP1 DUP4 SUB DUP2 PUSH1 0x0 DUP8 DUP1 EXTCODESIZE ISZERO DUP1 ISZERO PUSH3 0x2E75 JUMPI PUSH1 0x0 DUP1 REVERT JUMPDEST POP GAS CALL ISZERO DUP1 ISZERO PUSH3 0x2E8A JUMPI RETURNDATASIZE PUSH1 0x0 DUP1 RETURNDATACOPY RETURNDATASIZE PUSH1 0x0 REVERT JUMPDEST POP POP POP POP GAS DUP4 PUSH2 0x100 ADD DUP2 DUP2 MLOAD PUSH3 0x2EA3 SWAP2 SWAP1 PUSH3 0x4BAD JUMP JUMPDEST SWAP2 POP DUP2 DUP2 MSTORE POP POP DUP1 PUSH20 0xFFFFFFFFFFFFFFFFFFFFFFFFFFFFFFFFFFFFFFFF AND PUSH4 0x70A08231 DUP9 PUSH1 0x40 MLOAD DUP3 PUSH4 0xFFFFFFFF AND PUSH1 0xE0 SHL DUP2 MSTORE PUSH1 0x4 ADD PUSH3 0x2EE5 SWAP2 SWAP1 PUSH3 0x44BD JUMP JUMPDEST PUSH1 0x20 PUSH1 0x40 MLOAD DUP1 DUP4 SUB DUP2 DUP7 DUP1 EXTCODESIZE ISZERO DUP1 ISZERO PUSH3 0x2EFE JUMPI PUSH1 0x0 DUP1 REVERT JUMPDEST POP GAS STATICCALL ISZERO DUP1 ISZERO PUSH3 0x2F13 JUMPI RETURNDATASIZE PUSH1 0x0 DUP1 RETURNDATACOPY RETURNDATASIZE PUSH1 0x0 REVERT JUMPDEST POP POP POP POP PUSH1 0x40 MLOAD RETURNDATASIZE PUSH1 0x1F NOT PUSH1 0x1F DUP3 ADD AND DUP3 ADD DUP1 PUSH1 0x40 MSTORE POP DUP2 ADD SWAP1 PUSH3 0x2F39 SWAP2 SWAP1 PUSH3 0x3CEC JUMP JUMPDEST DUP4 PUSH1 0x20 ADD DUP2 DUP2 MSTORE POP POP DUP1 PUSH20 0xFFFFFFFFFFFFFFFFFFFFFFFFFFFFFFFFFFFFFFFF AND PUSH4 0x70A08231 DUP6 PUSH1 0x40 MLOAD DUP3 PUSH4 0xFFFFFFFF AND PUSH1 0xE0 SHL DUP2 MSTORE PUSH1 0x4 ADD PUSH3 0x2F7D SWAP2 SWAP1 PUSH3 0x44BD JUMP JUMPDEST PUSH1 0x20 PUSH1 0x40 MLOAD DUP1 DUP4 SUB DUP2 DUP7 DUP1 EXTCODESIZE ISZERO DUP1 ISZERO PUSH3 0x2F96 JUMPI PUSH1 0x0 DUP1 REVERT JUMPDEST POP GAS STATICCALL ISZERO DUP1 ISZERO PUSH3 0x2FAB JUMPI RETURNDATASIZE PUSH1 0x0 DUP1 RETURNDATACOPY RETURNDATASIZE PUSH1 0x0 REVERT JUMPDEST POP POP POP POP PUSH1 0x40 MLOAD RETURNDATASIZE PUSH1 0x1F NOT PUSH1 0x1F DUP3 ADD AND DUP3 ADD DUP1 PUSH1 0x40 MSTORE POP DUP2 ADD SWAP1 PUSH3 0x2FD1 SWAP2 SWAP1 PUSH3 0x3CEC JUMP JUMPDEST DUP4 PUSH1 0x60 ADD DUP2 DUP2 MSTORE POP POP DUP3 PUSH1 0x40 ADD MLOAD DUP4 PUSH1 0x60 ADD MLOAD SUB DUP4 PUSH1 0xC0 ADD DUP2 DUP2 MSTORE POP POP DUP3 PUSH1 0x20 ADD MLOAD DUP4 PUSH1 0x0 ADD MLOAD SUB DUP4 PUSH1 0xA0 ADD DUP2 DUP2 MSTORE POP POP DUP3 PUSH1 0xA0 ADD MLOAD DUP4 PUSH1 0x80 ADD MLOAD SUB DUP4 PUSH1 0xE0 ADD DUP2 DUP2 MSTORE POP POP PUSH3 0x302A DUP4 PUSH1 0xC0 ADD MLOAD DUP5 PUSH1 0xA0 ADD MLOAD PUSH3 0x3189 JUMP JUMPDEST DUP4 PUSH2 0x120 ADD DUP2 DUP2 MSTORE POP POP POP POP SWAP5 SWAP4 POP POP POP POP JUMP JUMPDEST PUSH1 0x0 DUP1 DUP4 DUP4 PUSH1 0x40 MLOAD PUSH3 0x3051 SWAP1 PUSH3 0x32F1 JUMP JUMPDEST PUSH3 0x305E SWAP3 SWAP2 SWAP1 PUSH3 0x44DA JUMP JUMPDEST PUSH1 0x40 MLOAD DUP1 SWAP2 SUB SWAP1 PUSH1 0x0 CREATE DUP1 ISZERO DUP1 ISZERO PUSH3 0x307B JUMPI RETURNDATASIZE PUSH1 0x0 DUP1 RETURNDATACOPY RETURNDATASIZE PUSH1 0x0 REVERT JUMPDEST POP SWAP1 POP DUP1 PUSH20 0xFFFFFFFFFFFFFFFFFFFFFFFFFFFFFFFFFFFFFFFF AND PUSH4 0x41C0E1B5 PUSH1 0x40 MLOAD DUP2 PUSH4 0xFFFFFFFF AND PUSH1 0xE0 SHL DUP2 MSTORE PUSH1 0x4 ADD PUSH1 0x0 PUSH1 0x40 MLOAD DUP1 DUP4 SUB DUP2 PUSH1 0x0 DUP8 DUP1 EXTCODESIZE ISZERO DUP1 ISZERO PUSH3 0x30C7 JUMPI PUSH1 0x0 DUP1 REVERT JUMPDEST POP GAS CALL ISZERO DUP1 ISZERO PUSH3 0x30DC JUMPI RETURNDATASIZE PUSH1 0x0 DUP1 RETURNDATACOPY RETURNDATASIZE PUSH1 0x0 REVERT JUMPDEST POP POP POP POP PUSH1 0x3 DUP2 SWAP1 DUP1 PUSH1 0x1 DUP2 SLOAD ADD DUP1 DUP3 SSTORE DUP1 SWAP2 POP POP PUSH1 0x1 SWAP1 SUB SWAP1 PUSH1 0x0 MSTORE PUSH1 0x20 PUSH1 0x0 KECCAK256 ADD PUSH1 0x0 SWAP1 SWAP2 SWAP1 SWAP2 SWAP1 SWAP2 PUSH2 0x100 EXP DUP2 SLOAD DUP2 PUSH20 0xFFFFFFFFFFFFFFFFFFFFFFFFFFFFFFFFFFFFFFFF MUL NOT AND SWAP1 DUP4 PUSH20 0xFFFFFFFFFFFFFFFFFFFFFFFFFFFFFFFFFFFFFFFF AND MUL OR SWAP1 SSTORE POP DUP1 SWAP2 POP POP SWAP3 SWAP2 POP POP JUMP JUMPDEST PUSH1 0x0 DUP1 SLOAD PUSH1 0x2 SLOAD NUMBER TIMESTAMP PUSH1 0x40 MLOAD PUSH1 0x20 ADD PUSH3 0x316B SWAP5 SWAP4 SWAP3 SWAP2 SWAP1 PUSH3 0x4851 JUMP JUMPDEST PUSH1 0x40 MLOAD PUSH1 0x20 DUP2 DUP4 SUB SUB DUP2 MSTORE SWAP1 PUSH1 0x40 MSTORE DUP1 MLOAD SWAP1 PUSH1 0x20 ADD KECCAK256 PUSH1 0x0 SHR SWAP1 POP SWAP1 JUMP JUMPDEST PUSH1 0x0 DUP1 DUP3 EQ ISZERO PUSH3 0x319E JUMPI PUSH1 0x0 SWAP1 POP PUSH3 0x31CD JUMP JUMPDEST DUP2 PUSH2 0x2710 DUP5 PUSH3 0x31AF SWAP2 SWAP1 PUSH3 0x4AAE JUMP JUMPDEST PUSH3 0x31BB SWAP2 SWAP1 PUSH3 0x4A76 JUMP JUMPDEST PUSH2 0x2710 PUSH3 0x31CA SWAP2 SWAP1 PUSH3 0x4B0F JUMP JUMPDEST SWAP1 POP JUMPDEST SWAP3 SWAP2 POP POP JUMP JUMPDEST PUSH1 0x40 MLOAD DUP1 PUSH2 0x100 ADD PUSH1 0x40 MSTORE DUP1 PUSH1 0x0 DUP2 MSTORE PUSH1 0x20 ADD PUSH1 0x0 DUP2 MSTORE PUSH1 0x20 ADD PUSH3 0x31F7 PUSH3 0x3238 JUMP JUMPDEST DUP2 MSTORE PUSH1 0x20 ADD PUSH3 0x3206 PUSH3 0x3238 JUMP JUMPDEST DUP2 MSTORE PUSH1 0x20 ADD PUSH3 0x3215 PUSH3 0x3238 JUMP JUMPDEST DUP2 MSTORE PUSH1 0x20 ADD PUSH3 0x3224 PUSH3 0x32FF JUMP JUMPDEST DUP2 MSTORE PUSH1 0x20 ADD PUSH1 0x0 DUP2 MSTORE PUSH1 0x20 ADD PUSH1 0x0 DUP2 MSTORE POP SWAP1 JUMP JUMPDEST PUSH1 0x40 MLOAD DUP1 PUSH1 0xA0 ADD PUSH1 0x40 MSTORE DUP1 PUSH1 0x0 PUSH1 0x2 DUP2 GT ISZERO PUSH3 0x325A JUMPI PUSH3 0x3259 PUSH3 0x4DBB JUMP JUMPDEST JUMPDEST DUP2 MSTORE PUSH1 0x20 ADD PUSH1 0x0 DUP2 MSTORE PUSH1 0x20 ADD PUSH3 0x3270 PUSH3 0x328C JUMP JUMPDEST DUP2 MSTORE PUSH1 0x20 ADD PUSH3 0x327F PUSH3 0x328C JUMP JUMPDEST DUP2 MSTORE PUSH1 0x20 ADD PUSH1 0x60 DUP2 MSTORE POP SWAP1 JUMP JUMPDEST PUSH1 0x40 MLOAD DUP1 PUSH2 0x180 ADD PUSH1 0x40 MSTORE DUP1 PUSH1 0x0 DUP2 MSTORE PUSH1 0x20 ADD PUSH1 0x0 DUP2 MSTORE PUSH1 0x20 ADD PUSH1 0x0 DUP2 MSTORE PUSH1 0x20 ADD PUSH1 0x0 DUP2 MSTORE PUSH1 0x20 ADD PUSH1 0x0 DUP2 MSTORE PUSH1 0x20 ADD PUSH1 0x0 DUP2 MSTORE PUSH1 0x20 ADD PUSH1 0x0 DUP2 MSTORE PUSH1 0x20 ADD PUSH1 0x0 DUP2 MSTORE PUSH1 0x20 ADD PUSH1 0x0 DUP2 MSTORE PUSH1 0x20 ADD PUSH1 0x0 DUP2 MSTORE PUSH1 0x20 ADD PUSH1 0x0 ISZERO ISZERO DUP2 MSTORE PUSH1 0x20 ADD PUSH1 0x0 ISZERO ISZERO DUP2 MSTORE POP SWAP1 JUMP JUMPDEST PUSH2 0x380 DUP1 PUSH3 0x50C3 DUP4 CODECOPY ADD SWAP1 JUMP JUMPDEST PUSH1 0x40 MLOAD DUP1 PUSH1 0x60 ADD PUSH1 0x40 MSTORE DUP1 PUSH1 0x0 PUSH20 0xFFFFFFFFFFFFFFFFFFFFFFFFFFFFFFFFFFFFFFFF AND DUP2 MSTORE PUSH1 0x20 ADD PUSH1 0x0 DUP2 MSTORE PUSH1 0x20 ADD PUSH1 0x0 DUP2 MSTORE POP SWAP1 JUMP JUMPDEST PUSH1 0x0 PUSH3 0x334D PUSH3 0x3347 DUP5 PUSH3 0x48C7 JUMP JUMPDEST PUSH3 0x489E JUMP JUMPDEST SWAP1 POP DUP1 DUP4 DUP3 MSTORE PUSH1 0x20 DUP3 ADD SWAP1 POP DUP3 DUP6 PUSH1 0x20 DUP7 MUL DUP3 ADD GT ISZERO PUSH3 0x3373 JUMPI PUSH3 0x3372 PUSH3 0x4E86 JUMP JUMPDEST JUMPDEST PUSH1 0x0 JUMPDEST DUP6 DUP2 LT ISZERO PUSH3 0x33A7 JUMPI DUP2 PUSH3 0x338C DUP9 DUP3 PUSH3 0x392D JUMP JUMPDEST DUP5 MSTORE PUSH1 0x20 DUP5 ADD SWAP4 POP PUSH1 0x20 DUP4 ADD SWAP3 POP POP PUSH1 0x1 DUP2 ADD SWAP1 POP PUSH3 0x3376 JUMP JUMPDEST POP POP POP SWAP4 SWAP3 POP POP POP JUMP JUMPDEST PUSH1 0x0 PUSH3 0x33C8 PUSH3 0x33C2 DUP5 PUSH3 0x48F6 JUMP JUMPDEST PUSH3 0x489E JUMP JUMPDEST SWAP1 POP DUP3 DUP2 MSTORE PUSH1 0x20 DUP2 ADD DUP5 DUP5 DUP5 ADD GT ISZERO PUSH3 0x33E7 JUMPI PUSH3 0x33E6 PUSH3 0x4E8B JUMP JUMPDEST JUMPDEST PUSH3 0x33F4 DUP5 DUP3 DUP6 PUSH3 0x4CA3 JUMP JUMPDEST POP SWAP4 SWAP3 POP POP POP JUMP JUMPDEST PUSH1 0x0 DUP2 CALLDATALOAD SWAP1 POP PUSH3 0x340D DUP2 PUSH3 0x5015 JUMP JUMPDEST SWAP3 SWAP2 POP POP JUMP JUMPDEST PUSH1 0x0 DUP2 MLOAD SWAP1 POP PUSH3 0x3424 DUP2 PUSH3 0x5015 JUMP JUMPDEST SWAP3 SWAP2 POP POP JUMP JUMPDEST PUSH1 0x0 DUP1 DUP4 PUSH1 0x1F DUP5 ADD SLT PUSH3 0x3443 JUMPI PUSH3 0x3442 PUSH3 0x4E72 JUMP JUMPDEST JUMPDEST DUP3 CALLDATALOAD SWAP1 POP PUSH8 0xFFFFFFFFFFFFFFFF DUP2 GT ISZERO PUSH3 0x3463 JUMPI PUSH3 0x3462 PUSH3 0x4E6D JUMP JUMPDEST JUMPDEST PUSH1 0x20 DUP4 ADD SWAP2 POP DUP4 PUSH1 0xE0 DUP3 MUL DUP4 ADD GT ISZERO PUSH3 0x3482 JUMPI PUSH3 0x3481 PUSH3 0x4E86 JUMP JUMPDEST JUMPDEST SWAP3 POP SWAP3 SWAP1 POP JUMP JUMPDEST PUSH1 0x0 DUP3 PUSH1 0x1F DUP4 ADD SLT PUSH3 0x34A1 JUMPI PUSH3 0x34A0 PUSH3 0x4E72 JUMP JUMPDEST JUMPDEST DUP2 MLOAD PUSH3 0x34B3 DUP5 DUP3 PUSH1 0x20 DUP7 ADD PUSH3 0x3336 JUMP JUMPDEST SWAP2 POP POP SWAP3 SWAP2 POP POP JUMP JUMPDEST PUSH1 0x0 DUP2 MLOAD SWAP1 POP PUSH3 0x34CD DUP2 PUSH3 0x502F JUMP JUMPDEST SWAP3 SWAP2 POP POP JUMP JUMPDEST PUSH1 0x0 DUP2 MLOAD SWAP1 POP PUSH3 0x34E4 DUP2 PUSH3 0x5049 JUMP JUMPDEST SWAP3 SWAP2 POP POP JUMP JUMPDEST PUSH1 0x0 DUP2 MLOAD SWAP1 POP PUSH3 0x34FB DUP2 PUSH3 0x505A JUMP JUMPDEST SWAP3 SWAP2 POP POP JUMP JUMPDEST PUSH1 0x0 DUP3 PUSH1 0x1F DUP4 ADD SLT PUSH3 0x3519 JUMPI PUSH3 0x3518 PUSH3 0x4E72 JUMP JUMPDEST JUMPDEST DUP2 MLOAD PUSH3 0x352B DUP5 DUP3 PUSH1 0x20 DUP7 ADD PUSH3 0x33B1 JUMP JUMPDEST SWAP2 POP POP SWAP3 SWAP2 POP POP JUMP JUMPDEST PUSH1 0x0 PUSH1 0x60 DUP3 DUP5 SUB SLT ISZERO PUSH3 0x354D JUMPI PUSH3 0x354C PUSH3 0x4E7C JUMP JUMPDEST JUMPDEST PUSH3 0x3559 PUSH1 0x60 PUSH3 0x489E JUMP JUMPDEST SWAP1 POP PUSH1 0x0 PUSH3 0x356B DUP5 DUP3 DUP6 ADD PUSH3 0x3413 JUMP JUMPDEST PUSH1 0x0 DUP4 ADD MSTORE POP PUSH1 0x20 PUSH3 0x3581 DUP5 DUP3 DUP6 ADD PUSH3 0x392D JUMP JUMPDEST PUSH1 0x20 DUP4 ADD MSTORE POP PUSH1 0x40 PUSH3 0x3597 DUP5 DUP3 DUP6 ADD PUSH3 0x392D JUMP JUMPDEST PUSH1 0x40 DUP4 ADD MSTORE POP SWAP3 SWAP2 POP POP JUMP JUMPDEST PUSH1 0x0 PUSH2 0x180 DUP3 DUP5 SUB SLT ISZERO PUSH3 0x35BD JUMPI PUSH3 0x35BC PUSH3 0x4E7C JUMP JUMPDEST JUMPDEST PUSH3 0x35CA PUSH2 0x180 PUSH3 0x489E JUMP JUMPDEST SWAP1 POP PUSH1 0x0 PUSH3 0x35DC DUP5 DUP3 DUP6 ADD PUSH3 0x392D JUMP JUMPDEST PUSH1 0x0 DUP4 ADD MSTORE POP PUSH1 0x20 PUSH3 0x35F2 DUP5 DUP3 DUP6 ADD PUSH3 0x392D JUMP JUMPDEST PUSH1 0x20 DUP4 ADD MSTORE POP PUSH1 0x40 PUSH3 0x3608 DUP5 DUP3 DUP6 ADD PUSH3 0x392D JUMP JUMPDEST PUSH1 0x40 DUP4 ADD MSTORE POP PUSH1 0x60 PUSH3 0x361E DUP5 DUP3 DUP6 ADD PUSH3 0x392D JUMP JUMPDEST PUSH1 0x60 DUP4 ADD MSTORE POP PUSH1 0x80 PUSH3 0x3634 DUP5 DUP3 DUP6 ADD PUSH3 0x392D JUMP JUMPDEST PUSH1 0x80 DUP4 ADD MSTORE POP PUSH1 0xA0 PUSH3 0x364A DUP5 DUP3 DUP6 ADD PUSH3 0x392D JUMP JUMPDEST PUSH1 0xA0 DUP4 ADD MSTORE POP PUSH1 0xC0 PUSH3 0x3660 DUP5 DUP3 DUP6 ADD PUSH3 0x392D JUMP JUMPDEST PUSH1 0xC0 DUP4 ADD MSTORE POP PUSH1 0xE0 PUSH3 0x3676 DUP5 DUP3 DUP6 ADD PUSH3 0x392D JUMP JUMPDEST PUSH1 0xE0 DUP4 ADD MSTORE POP PUSH2 0x100 PUSH3 0x368D DUP5 DUP3 DUP6 ADD PUSH3 0x392D JUMP JUMPDEST PUSH2 0x100 DUP4 ADD MSTORE POP PUSH2 0x120 PUSH3 0x36A5 DUP5 DUP3 DUP6 ADD PUSH3 0x34EA JUMP JUMPDEST PUSH2 0x120 DUP4 ADD MSTORE POP PUSH2 0x140 PUSH3 0x36BD DUP5 DUP3 DUP6 ADD PUSH3 0x34BC JUMP JUMPDEST PUSH2 0x140 DUP4 ADD MSTORE POP PUSH2 0x160 PUSH3 0x36D5 DUP5 DUP3 DUP6 ADD PUSH3 0x34BC JUMP JUMPDEST PUSH2 0x160 DUP4 ADD MSTORE POP SWAP3 SWAP2 POP POP JUMP JUMPDEST PUSH1 0x0 PUSH1 0xE0 DUP3 DUP5 SUB SLT ISZERO PUSH3 0x36FB JUMPI PUSH3 0x36FA PUSH3 0x4E77 JUMP JUMPDEST JUMPDEST DUP2 SWAP1 POP SWAP3 SWAP2 POP POP JUMP JUMPDEST PUSH1 0x0 PUSH2 0x360 DUP3 DUP5 SUB SLT ISZERO PUSH3 0x371E JUMPI PUSH3 0x371D PUSH3 0x4E7C JUMP JUMPDEST JUMPDEST PUSH3 0x372A PUSH1 0xA0 PUSH3 0x489E JUMP JUMPDEST SWAP1 POP PUSH1 0x0 PUSH3 0x373C DUP5 DUP3 DUP6 ADD PUSH3 0x34D3 JUMP JUMPDEST PUSH1 0x0 DUP4 ADD MSTORE POP PUSH1 0x20 PUSH3 0x3752 DUP5 DUP3 DUP6 ADD PUSH3 0x392D JUMP JUMPDEST PUSH1 0x20 DUP4 ADD MSTORE POP PUSH1 0x40 PUSH3 0x3768 DUP5 DUP3 DUP6 ADD PUSH3 0x35A3 JUMP JUMPDEST PUSH1 0x40 DUP4 ADD MSTORE POP PUSH2 0x1C0 PUSH3 0x377F DUP5 DUP3 DUP6 ADD PUSH3 0x35A3 JUMP JUMPDEST PUSH1 0x60 DUP4 ADD MSTORE POP PUSH2 0x340 DUP3 ADD MLOAD PUSH8 0xFFFFFFFFFFFFFFFF DUP2 GT ISZERO PUSH3 0x37A7 JUMPI PUSH3 0x37A6 PUSH3 0x4E81 JUMP JUMPDEST JUMPDEST PUSH3 0x37B5 DUP5 DUP3 DUP6 ADD PUSH3 0x3501 JUMP JUMPDEST PUSH1 0x80 DUP4 ADD MSTORE POP SWAP3 SWAP2 POP POP JUMP JUMPDEST PUSH1 0x0 PUSH2 0x140 DUP3 DUP5 SUB SLT ISZERO PUSH3 0x37DB JUMPI PUSH3 0x37DA PUSH3 0x4E7C JUMP JUMPDEST JUMPDEST PUSH3 0x37E8 PUSH2 0x100 PUSH3 0x489E JUMP JUMPDEST SWAP1 POP PUSH1 0x0 PUSH3 0x37FA DUP5 DUP3 DUP6 ADD PUSH3 0x392D JUMP JUMPDEST PUSH1 0x0 DUP4 ADD MSTORE POP PUSH1 0x20 PUSH3 0x3810 DUP5 DUP3 DUP6 ADD PUSH3 0x392D JUMP JUMPDEST PUSH1 0x20 DUP4 ADD MSTORE POP PUSH1 0x40 DUP3 ADD MLOAD PUSH8 0xFFFFFFFFFFFFFFFF DUP2 GT ISZERO PUSH3 0x3837 JUMPI PUSH3 0x3836 PUSH3 0x4E81 JUMP JUMPDEST JUMPDEST PUSH3 0x3845 DUP5 DUP3 DUP6 ADD PUSH3 0x3704 JUMP JUMPDEST PUSH1 0x40 DUP4 ADD MSTORE POP PUSH1 0x60 DUP3 ADD MLOAD PUSH8 0xFFFFFFFFFFFFFFFF DUP2 GT ISZERO PUSH3 0x386C JUMPI PUSH3 0x386B PUSH3 0x4E81 JUMP JUMPDEST JUMPDEST PUSH3 0x387A DUP5 DUP3 DUP6 ADD PUSH3 0x3704 JUMP JUMPDEST PUSH1 0x60 DUP4 ADD MSTORE POP PUSH1 0x80 DUP3 ADD MLOAD PUSH8 0xFFFFFFFFFFFFFFFF DUP2 GT ISZERO PUSH3 0x38A1 JUMPI PUSH3 0x38A0 PUSH3 0x4E81 JUMP JUMPDEST JUMPDEST PUSH3 0x38AF DUP5 DUP3 DUP6 ADD PUSH3 0x3704 JUMP JUMPDEST PUSH1 0x80 DUP4 ADD MSTORE POP PUSH1 0xA0 PUSH3 0x38C5 DUP5 DUP3 DUP6 ADD PUSH3 0x3534 JUMP JUMPDEST PUSH1 0xA0 DUP4 ADD MSTORE POP PUSH2 0x100 PUSH3 0x38DC DUP5 DUP3 DUP6 ADD PUSH3 0x392D JUMP JUMPDEST PUSH1 0xC0 DUP4 ADD MSTORE POP PUSH2 0x120 PUSH3 0x38F3 DUP5 DUP3 DUP6 ADD PUSH3 0x392D JUMP JUMPDEST PUSH1 0xE0 DUP4 ADD MSTORE POP SWAP3 SWAP2 POP POP JUMP JUMPDEST PUSH1 0x0 DUP2 MLOAD SWAP1 POP PUSH3 0x3910 DUP2 PUSH3 0x5074 JUMP JUMPDEST SWAP3 SWAP2 POP POP JUMP JUMPDEST PUSH1 0x0 DUP2 CALLDATALOAD SWAP1 POP PUSH3 0x3927 DUP2 PUSH3 0x508E JUMP JUMPDEST SWAP3 SWAP2 POP POP JUMP JUMPDEST PUSH1 0x0 DUP2 MLOAD SWAP1 POP PUSH3 0x393E DUP2 PUSH3 0x508E JUMP JUMPDEST SWAP3 SWAP2 POP POP JUMP JUMPDEST PUSH1 0x0 DUP2 MLOAD SWAP1 POP PUSH3 0x3955 DUP2 PUSH3 0x50A8 JUMP JUMPDEST SWAP3 SWAP2 POP POP JUMP JUMPDEST PUSH1 0x0 PUSH1 0x20 DUP3 DUP5 SUB SLT ISZERO PUSH3 0x3974 JUMPI PUSH3 0x3973 PUSH3 0x4E95 JUMP JUMPDEST JUMPDEST PUSH1 0x0 PUSH3 0x3984 DUP5 DUP3 DUP6 ADD PUSH3 0x33FC JUMP JUMPDEST SWAP2 POP POP SWAP3 SWAP2 POP POP JUMP JUMPDEST PUSH1 0x0 PUSH1 0x20 DUP3 DUP5 SUB SLT ISZERO PUSH3 0x39A6 JUMPI PUSH3 0x39A5 PUSH3 0x4E95 JUMP JUMPDEST JUMPDEST PUSH1 0x0 PUSH3 0x39B6 DUP5 DUP3 DUP6 ADD PUSH3 0x3413 JUMP JUMPDEST SWAP2 POP POP SWAP3 SWAP2 POP POP JUMP JUMPDEST PUSH1 0x0 DUP1 PUSH1 0x0 DUP1 PUSH1 0x0 DUP1 PUSH1 0x0 PUSH1 0xE0 DUP9 DUP11 SUB SLT ISZERO PUSH3 0x39E1 JUMPI PUSH3 0x39E0 PUSH3 0x4E95 JUMP JUMPDEST JUMPDEST PUSH1 0x0 PUSH3 0x39F1 DUP11 DUP3 DUP12 ADD PUSH3 0x33FC JUMP JUMPDEST SWAP8 POP POP PUSH1 0x20 PUSH3 0x3A04 DUP11 DUP3 DUP12 ADD PUSH3 0x33FC JUMP JUMPDEST SWAP7 POP POP PUSH1 0x40 PUSH3 0x3A17 DUP11 DUP3 DUP12 ADD PUSH3 0x33FC JUMP JUMPDEST SWAP6 POP POP PUSH1 0x60 PUSH3 0x3A2A DUP11 DUP3 DUP12 ADD PUSH3 0x33FC JUMP JUMPDEST SWAP5 POP POP PUSH1 0x80 PUSH3 0x3A3D DUP11 DUP3 DUP12 ADD PUSH3 0x33FC JUMP JUMPDEST SWAP4 POP POP PUSH1 0xA0 PUSH3 0x3A50 DUP11 DUP3 DUP12 ADD PUSH3 0x3916 JUMP JUMPDEST SWAP3 POP POP PUSH1 0xC0 PUSH3 0x3A63 DUP11 DUP3 DUP12 ADD PUSH3 0x3916 JUMP JUMPDEST SWAP2 POP POP SWAP3 SWAP6 SWAP9 SWAP2 SWAP5 SWAP8 POP SWAP3 SWAP6 POP JUMP JUMPDEST PUSH1 0x0 DUP1 PUSH1 0x0 DUP1 PUSH1 0x80 DUP6 DUP8 SUB SLT ISZERO PUSH3 0x3A8F JUMPI PUSH3 0x3A8E PUSH3 0x4E95 JUMP JUMPDEST JUMPDEST PUSH1 0x0 PUSH3 0x3A9F DUP8 DUP3 DUP9 ADD PUSH3 0x33FC JUMP JUMPDEST SWAP5 POP POP PUSH1 0x20 PUSH3 0x3AB2 DUP8 DUP3 DUP9 ADD PUSH3 0x33FC JUMP JUMPDEST SWAP4 POP POP PUSH1 0x40 PUSH3 0x3AC5 DUP8 DUP3 DUP9 ADD PUSH3 0x33FC JUMP JUMPDEST SWAP3 POP POP PUSH1 0x60 PUSH3 0x3AD8 DUP8 DUP3 DUP9 ADD PUSH3 0x3916 JUMP JUMPDEST SWAP2 POP POP SWAP3 SWAP6 SWAP2 SWAP5 POP SWAP3 POP JUMP JUMPDEST PUSH1 0x0 DUP1 PUSH1 0x20 DUP4 DUP6 SUB SLT ISZERO PUSH3 0x3AFE JUMPI PUSH3 0x3AFD PUSH3 0x4E95 JUMP JUMPDEST JUMPDEST PUSH1 0x0 DUP4 ADD CALLDATALOAD PUSH8 0xFFFFFFFFFFFFFFFF DUP2 GT ISZERO PUSH3 0x3B1F JUMPI PUSH3 0x3B1E PUSH3 0x4E90 JUMP JUMPDEST JUMPDEST PUSH3 0x3B2D DUP6 DUP3 DUP7 ADD PUSH3 0x342A JUMP JUMPDEST SWAP3 POP SWAP3 POP POP SWAP3 POP SWAP3 SWAP1 POP JUMP JUMPDEST PUSH1 0x0 PUSH1 0x20 DUP3 DUP5 SUB SLT ISZERO PUSH3 0x3B52 JUMPI PUSH3 0x3B51 PUSH3 0x4E95 JUMP JUMPDEST JUMPDEST PUSH1 0x0 DUP3 ADD MLOAD PUSH8 0xFFFFFFFFFFFFFFFF DUP2 GT ISZERO PUSH3 0x3B73 JUMPI PUSH3 0x3B72 PUSH3 0x4E90 JUMP JUMPDEST JUMPDEST PUSH3 0x3B81 DUP5 DUP3 DUP6 ADD PUSH3 0x3489 JUMP JUMPDEST SWAP2 POP POP SWAP3 SWAP2 POP POP JUMP JUMPDEST PUSH1 0x0 PUSH1 0x20 DUP3 DUP5 SUB SLT ISZERO PUSH3 0x3BA3 JUMPI PUSH3 0x3BA2 PUSH3 0x4E95 JUMP JUMPDEST JUMPDEST PUSH1 0x0 PUSH3 0x3BB3 DUP5 DUP3 DUP6 ADD PUSH3 0x34BC JUMP JUMPDEST SWAP2 POP POP SWAP3 SWAP2 POP POP JUMP JUMPDEST PUSH1 0x0 PUSH1 0xE0 DUP3 DUP5 SUB SLT ISZERO PUSH3 0x3BD5 JUMPI PUSH3 0x3BD4 PUSH3 0x4E95 JUMP JUMPDEST JUMPDEST PUSH1 0x0 PUSH3 0x3BE5 DUP5 DUP3 DUP6 ADD PUSH3 0x36E2 JUMP JUMPDEST SWAP2 POP POP SWAP3 SWAP2 POP POP JUMP JUMPDEST PUSH1 0x0 PUSH1 0x20 DUP3 DUP5 SUB SLT ISZERO PUSH3 0x3C07 JUMPI PUSH3 0x3C06 PUSH3 0x4E95 JUMP JUMPDEST JUMPDEST PUSH1 0x0 DUP3 ADD MLOAD PUSH8 0xFFFFFFFFFFFFFFFF DUP2 GT ISZERO PUSH3 0x3C28 JUMPI PUSH3 0x3C27 PUSH3 0x4E90 JUMP JUMPDEST JUMPDEST PUSH3 0x3C36 DUP5 DUP3 DUP6 ADD PUSH3 0x3704 JUMP JUMPDEST SWAP2 POP POP SWAP3 SWAP2 POP POP JUMP JUMPDEST PUSH1 0x0 PUSH1 0x20 DUP3 DUP5 SUB SLT ISZERO PUSH3 0x3C58 JUMPI PUSH3 0x3C57 PUSH3 0x4E95 JUMP JUMPDEST JUMPDEST PUSH1 0x0 DUP3 ADD MLOAD PUSH8 0xFFFFFFFFFFFFFFFF DUP2 GT ISZERO PUSH3 0x3C79 JUMPI PUSH3 0x3C78 PUSH3 0x4E90 JUMP JUMPDEST JUMPDEST PUSH3 0x3C87 DUP5 DUP3 DUP6 ADD PUSH3 0x37C1 JUMP JUMPDEST SWAP2 POP POP SWAP3 SWAP2 POP POP JUMP JUMPDEST PUSH1 0x0 DUP1 PUSH1 0x0 PUSH1 0x60 DUP5 DUP7 SUB SLT ISZERO PUSH3 0x3CAC JUMPI PUSH3 0x3CAB PUSH3 0x4E95 JUMP JUMPDEST JUMPDEST PUSH1 0x0 PUSH3 0x3CBC DUP7 DUP3 DUP8 ADD PUSH3 0x38FF JUMP JUMPDEST SWAP4 POP POP PUSH1 0x20 PUSH3 0x3CCF DUP7 DUP3 DUP8 ADD PUSH3 0x38FF JUMP JUMPDEST SWAP3 POP POP PUSH1 0x40 PUSH3 0x3CE2 DUP7 DUP3 DUP8 ADD PUSH3 0x3944 JUMP JUMPDEST SWAP2 POP POP SWAP3 POP SWAP3 POP SWAP3 JUMP JUMPDEST PUSH1 0x0 PUSH1 0x20 DUP3 DUP5 SUB SLT ISZERO PUSH3 0x3D05 JUMPI PUSH3 0x3D04 PUSH3 0x4E95 JUMP JUMPDEST JUMPDEST PUSH1 0x0 PUSH3 0x3D15 DUP5 DUP3 DUP6 ADD PUSH3 0x392D JUMP JUMPDEST SWAP2 POP POP SWAP3 SWAP2 POP POP JUMP JUMPDEST PUSH1 0x0 PUSH3 0x3D2C DUP4 DUP4 PUSH3 0x3D4E JUMP JUMPDEST PUSH1 0x20 DUP4 ADD SWAP1 POP SWAP3 SWAP2 POP POP JUMP JUMPDEST PUSH1 0x0 PUSH3 0x3D46 DUP4 DUP4 PUSH3 0x42FB JUMP JUMPDEST SWAP1 POP SWAP3 SWAP2 POP POP JUMP JUMPDEST PUSH3 0x3D59 DUP2 PUSH3 0x4BE8 JUMP JUMPDEST DUP3 MSTORE POP POP JUMP JUMPDEST PUSH3 0x3D6A DUP2 PUSH3 0x4BE8 JUMP JUMPDEST DUP3 MSTORE POP POP JUMP JUMPDEST PUSH1 0x0 PUSH3 0x3D7D DUP3 PUSH3 0x494C JUMP JUMPDEST PUSH3 0x3D89 DUP2 DUP6 PUSH3 0x4992 JUMP JUMPDEST SWAP4 POP PUSH3 0x3D96 DUP4 PUSH3 0x492C JUMP JUMPDEST DUP1 PUSH1 0x0 JUMPDEST DUP4 DUP2 LT ISZERO PUSH3 0x3DCD JUMPI DUP2 MLOAD PUSH3 0x3DB1 DUP9 DUP3 PUSH3 0x3D1E JUMP JUMPDEST SWAP8 POP PUSH3 0x3DBE DUP4 PUSH3 0x4978 JUMP JUMPDEST SWAP3 POP POP PUSH1 0x1 DUP2 ADD SWAP1 POP PUSH3 0x3D9A JUMP JUMPDEST POP DUP6 SWAP4 POP POP POP POP SWAP3 SWAP2 POP POP JUMP JUMPDEST PUSH1 0x0 PUSH3 0x3DE7 DUP3 PUSH3 0x4957 JUMP JUMPDEST PUSH3 0x3DF3 DUP2 DUP6 PUSH3 0x49A3 JUMP JUMPDEST SWAP4 POP DUP4 PUSH1 0x20 DUP3 MUL DUP6 ADD PUSH3 0x3E07 DUP6 PUSH3 0x493C JUMP JUMPDEST DUP1 PUSH1 0x0 JUMPDEST DUP6 DUP2 LT ISZERO PUSH3 0x3E49 JUMPI DUP5 DUP5 SUB DUP10 MSTORE DUP2 MLOAD PUSH3 0x3E27 DUP6 DUP3 PUSH3 0x3D38 JUMP JUMPDEST SWAP5 POP PUSH3 0x3E34 DUP4 PUSH3 0x4985 JUMP JUMPDEST SWAP3 POP PUSH1 0x20 DUP11 ADD SWAP10 POP POP PUSH1 0x1 DUP2 ADD SWAP1 POP PUSH3 0x3E0B JUMP JUMPDEST POP DUP3 SWAP8 POP DUP8 SWAP6 POP POP POP POP POP POP SWAP3 SWAP2 POP POP JUMP JUMPDEST PUSH3 0x3E66 DUP2 PUSH3 0x4BFC JUMP JUMPDEST DUP3 MSTORE POP POP JUMP JUMPDEST PUSH1 0x0 PUSH3 0x3E79 DUP3 PUSH3 0x4962 JUMP JUMPDEST PUSH3 0x3E85 DUP2 DUP6 PUSH3 0x49B4 JUMP JUMPDEST SWAP4 POP PUSH3 0x3E97 DUP2 DUP6 PUSH1 0x20 DUP7 ADD PUSH3 0x4CA3 JUMP JUMPDEST PUSH3 0x3EA2 DUP2 PUSH3 0x4E9A JUMP JUMPDEST DUP5 ADD SWAP2 POP POP SWAP3 SWAP2 POP POP JUMP JUMPDEST PUSH3 0x3EB8 DUP2 PUSH3 0x4C7B JUMP JUMPDEST DUP3 MSTORE POP POP JUMP JUMPDEST PUSH3 0x3EC9 DUP2 PUSH3 0x4C1D JUMP JUMPDEST DUP3 MSTORE POP POP JUMP JUMPDEST PUSH3 0x3EDA DUP2 PUSH3 0x4C8F JUMP JUMPDEST DUP3 MSTORE POP POP JUMP JUMPDEST PUSH1 0x0 PUSH3 0x3EED DUP3 PUSH3 0x496D JUMP JUMPDEST PUSH3 0x3EF9 DUP2 DUP6 PUSH3 0x49C5 JUMP JUMPDEST SWAP4 POP PUSH3 0x3F0B DUP2 DUP6 PUSH1 0x20 DUP7 ADD PUSH3 0x4CA3 JUMP JUMPDEST PUSH3 0x3F16 DUP2 PUSH3 0x4E9A JUMP JUMPDEST DUP5 ADD SWAP2 POP POP SWAP3 SWAP2 POP POP JUMP JUMPDEST PUSH1 0x0 PUSH3 0x3F30 PUSH1 0x13 DUP4 PUSH3 0x49D6 JUMP JUMPDEST SWAP2 POP PUSH3 0x3F3D DUP3 PUSH3 0x4EB8 JUMP JUMPDEST PUSH1 0x20 DUP3 ADD SWAP1 POP SWAP2 SWAP1 POP JUMP JUMPDEST PUSH1 0x0 PUSH3 0x3F57 PUSH1 0x13 DUP4 PUSH3 0x49D6 JUMP JUMPDEST SWAP2 POP PUSH3 0x3F64 DUP3 PUSH3 0x4EE1 JUMP JUMPDEST PUSH1 0x20 DUP3 ADD SWAP1 POP SWAP2 SWAP1 POP JUMP JUMPDEST PUSH1 0x0 PUSH3 0x3F7E PUSH1 0x11 DUP4 PUSH3 0x49D6 JUMP JUMPDEST SWAP2 POP PUSH3 0x3F8B DUP3 PUSH3 0x4F0A JUMP JUMPDEST PUSH1 0x20 DUP3 ADD SWAP1 POP SWAP2 SWAP1 POP JUMP JUMPDEST PUSH1 0x0 PUSH3 0x3FA5 PUSH1 0xD DUP4 PUSH3 0x49D6 JUMP JUMPDEST SWAP2 POP PUSH3 0x3FB2 DUP3 PUSH3 0x4F33 JUMP JUMPDEST PUSH1 0x20 DUP3 ADD SWAP1 POP SWAP2 SWAP1 POP JUMP JUMPDEST PUSH1 0x60 DUP3 ADD PUSH1 0x0 DUP3 ADD MLOAD PUSH3 0x3FD5 PUSH1 0x0 DUP6 ADD DUP3 PUSH3 0x3D4E JUMP JUMPDEST POP PUSH1 0x20 DUP3 ADD MLOAD PUSH3 0x3FEA PUSH1 0x20 DUP6 ADD DUP3 PUSH3 0x449B JUMP JUMPDEST POP PUSH1 0x40 DUP3 ADD MLOAD PUSH3 0x3FFF PUSH1 0x40 DUP6 ADD DUP3 PUSH3 0x449B JUMP JUMPDEST POP POP POP POP JUMP JUMPDEST PUSH2 0x180 DUP3 ADD PUSH1 0x0 DUP3 ADD MLOAD PUSH3 0x401E PUSH1 0x0 DUP6 ADD DUP3 PUSH3 0x449B JUMP JUMPDEST POP PUSH1 0x20 DUP3 ADD MLOAD PUSH3 0x4033 PUSH1 0x20 DUP6 ADD DUP3 PUSH3 0x449B JUMP JUMPDEST POP PUSH1 0x40 DUP3 ADD MLOAD PUSH3 0x4048 PUSH1 0x40 DUP6 ADD DUP3 PUSH3 0x449B JUMP JUMPDEST POP PUSH1 0x60 DUP3 ADD MLOAD PUSH3 0x405D PUSH1 0x60 DUP6 ADD DUP3 PUSH3 0x449B JUMP JUMPDEST POP PUSH1 0x80 DUP3 ADD MLOAD PUSH3 0x4072 PUSH1 0x80 DUP6 ADD DUP3 PUSH3 0x449B JUMP JUMPDEST POP PUSH1 0xA0 DUP3 ADD MLOAD PUSH3 0x4087 PUSH1 0xA0 DUP6 ADD DUP3 PUSH3 0x449B JUMP JUMPDEST POP PUSH1 0xC0 DUP3 ADD MLOAD PUSH3 0x409C PUSH1 0xC0 DUP6 ADD DUP3 PUSH3 0x449B JUMP JUMPDEST POP PUSH1 0xE0 DUP3 ADD MLOAD PUSH3 0x40B1 PUSH1 0xE0 DUP6 ADD DUP3 PUSH3 0x449B JUMP JUMPDEST POP PUSH2 0x100 DUP3 ADD MLOAD PUSH3 0x40C8 PUSH2 0x100 DUP6 ADD DUP3 PUSH3 0x449B JUMP JUMPDEST POP PUSH2 0x120 DUP3 ADD MLOAD PUSH3 0x40DF PUSH2 0x120 DUP6 ADD DUP3 PUSH3 0x3EBE JUMP JUMPDEST POP PUSH2 0x140 DUP3 ADD MLOAD PUSH3 0x40F6 PUSH2 0x140 DUP6 ADD DUP3 PUSH3 0x3E5B JUMP JUMPDEST POP PUSH2 0x160 DUP3 ADD MLOAD PUSH3 0x410D PUSH2 0x160 DUP6 ADD DUP3 PUSH3 0x3E5B JUMP JUMPDEST POP POP POP POP JUMP JUMPDEST PUSH1 0xE0 DUP3 ADD PUSH3 0x4126 PUSH1 0x0 DUP4 ADD DUP4 PUSH3 0x49E7 JUMP JUMPDEST PUSH3 0x4135 PUSH1 0x0 DUP6 ADD DUP3 PUSH3 0x3D4E JUMP JUMPDEST POP PUSH3 0x4145 PUSH1 0x20 DUP4 ADD DUP4 PUSH3 0x49E7 JUMP JUMPDEST PUSH3 0x4154 PUSH1 0x20 DUP6 ADD DUP3 PUSH3 0x3D4E JUMP JUMPDEST POP PUSH3 0x4164 PUSH1 0x40 DUP4 ADD DUP4 PUSH3 0x49E7 JUMP JUMPDEST PUSH3 0x4173 PUSH1 0x40 DUP6 ADD DUP3 PUSH3 0x3D4E JUMP JUMPDEST POP PUSH3 0x4183 PUSH1 0x60 DUP4 ADD DUP4 PUSH3 0x49E7 JUMP JUMPDEST PUSH3 0x4192 PUSH1 0x60 DUP6 ADD DUP3 PUSH3 0x3D4E JUMP JUMPDEST POP PUSH3 0x41A2 PUSH1 0x80 DUP4 ADD DUP4 PUSH3 0x4A00 JUMP JUMPDEST PUSH3 0x41B1 PUSH1 0x80 DUP6 ADD DUP3 PUSH3 0x449B JUMP JUMPDEST POP PUSH3 0x41C1 PUSH1 0xA0 DUP4 ADD DUP4 PUSH3 0x4A00 JUMP JUMPDEST PUSH3 0x41D0 PUSH1 0xA0 DUP6 ADD DUP3 PUSH3 0x449B JUMP JUMPDEST POP PUSH3 0x41E0 PUSH1 0xC0 DUP4 ADD DUP4 PUSH3 0x4A00 JUMP JUMPDEST PUSH3 0x41EF PUSH1 0xC0 DUP6 ADD DUP3 PUSH3 0x449B JUMP JUMPDEST POP POP POP POP JUMP JUMPDEST PUSH1 0x0 PUSH2 0x360 DUP4 ADD PUSH1 0x0 DUP4 ADD MLOAD PUSH3 0x4210 PUSH1 0x0 DUP7 ADD DUP3 PUSH3 0x3EAD JUMP JUMPDEST POP PUSH1 0x20 DUP4 ADD MLOAD PUSH3 0x4225 PUSH1 0x20 DUP7 ADD DUP3 PUSH3 0x449B JUMP JUMPDEST POP PUSH1 0x40 DUP4 ADD MLOAD PUSH3 0x423A PUSH1 0x40 DUP7 ADD DUP3 PUSH3 0x4005 JUMP JUMPDEST POP PUSH1 0x60 DUP4 ADD MLOAD PUSH3 0x4250 PUSH2 0x1C0 DUP7 ADD DUP3 PUSH3 0x4005 JUMP JUMPDEST POP PUSH1 0x80 DUP4 ADD MLOAD DUP5 DUP3 SUB PUSH2 0x340 DUP7 ADD MSTORE PUSH3 0x426B DUP3 DUP3 PUSH3 0x3EE0 JUMP JUMPDEST SWAP2 POP POP DUP1 SWAP2 POP POP SWAP3 SWAP2 POP POP JUMP JUMPDEST PUSH1 0x0 PUSH2 0x360 DUP4 ADD PUSH1 0x0 DUP4 ADD MLOAD PUSH3 0x4293 PUSH1 0x0 DUP7 ADD DUP3 PUSH3 0x3EAD JUMP JUMPDEST POP PUSH1 0x20 DUP4 ADD MLOAD PUSH3 0x42A8 PUSH1 0x20 DUP7 ADD DUP3 PUSH3 0x449B JUMP JUMPDEST POP PUSH1 0x40 DUP4 ADD MLOAD PUSH3 0x42BD PUSH1 0x40 DUP7 ADD DUP3 PUSH3 0x4005 JUMP JUMPDEST POP PUSH1 0x60 DUP4 ADD MLOAD PUSH3 0x42D3 PUSH2 0x1C0 DUP7 ADD DUP3 PUSH3 0x4005 JUMP JUMPDEST POP PUSH1 0x80 DUP4 ADD MLOAD DUP5 DUP3 SUB PUSH2 0x340 DUP7 ADD MSTORE PUSH3 0x42EE DUP3 DUP3 PUSH3 0x3EE0 JUMP JUMPDEST SWAP2 POP POP DUP1 SWAP2 POP POP SWAP3 SWAP2 POP POP JUMP JUMPDEST PUSH1 0x0 PUSH2 0x140 DUP4 ADD PUSH1 0x0 DUP4 ADD MLOAD PUSH3 0x4316 PUSH1 0x0 DUP7 ADD DUP3 PUSH3 0x449B JUMP JUMPDEST POP PUSH1 0x20 DUP4 ADD MLOAD PUSH3 0x432B PUSH1 0x20 DUP7 ADD DUP3 PUSH3 0x449B JUMP JUMPDEST POP PUSH1 0x40 DUP4 ADD MLOAD DUP5 DUP3 SUB PUSH1 0x40 DUP7 ADD MSTORE PUSH3 0x4345 DUP3 DUP3 PUSH3 0x41F5 JUMP JUMPDEST SWAP2 POP POP PUSH1 0x60 DUP4 ADD MLOAD DUP5 DUP3 SUB PUSH1 0x60 DUP7 ADD MSTORE PUSH3 0x4361 DUP3 DUP3 PUSH3 0x41F5 JUMP JUMPDEST SWAP2 POP POP PUSH1 0x80 DUP4 ADD MLOAD DUP5 DUP3 SUB PUSH1 0x80 DUP7 ADD MSTORE PUSH3 0x437D DUP3 DUP3 PUSH3 0x41F5 JUMP JUMPDEST SWAP2 POP POP PUSH1 0xA0 DUP4 ADD MLOAD PUSH3 0x4394 PUSH1 0xA0 DUP7 ADD DUP3 PUSH3 0x3FBD JUMP JUMPDEST POP PUSH1 0xC0 DUP4 ADD MLOAD PUSH3 0x43AA PUSH2 0x100 DUP7 ADD DUP3 PUSH3 0x449B JUMP JUMPDEST POP PUSH1 0xE0 DUP4 ADD MLOAD PUSH3 0x43C0 PUSH2 0x120 DUP7 ADD DUP3 PUSH3 0x449B JUMP JUMPDEST POP DUP1 SWAP2 POP POP SWAP3 SWAP2 POP POP JUMP JUMPDEST PUSH1 0x0 PUSH2 0x140 DUP4 ADD PUSH1 0x0 DUP4 ADD MLOAD PUSH3 0x43E6 PUSH1 0x0 DUP7 ADD DUP3 PUSH3 0x449B JUMP JUMPDEST POP PUSH1 0x20 DUP4 ADD MLOAD PUSH3 0x43FB PUSH1 0x20 DUP7 ADD DUP3 PUSH3 0x449B JUMP JUMPDEST POP PUSH1 0x40 DUP4 ADD MLOAD DUP5 DUP3 SUB PUSH1 0x40 DUP7 ADD MSTORE PUSH3 0x4415 DUP3 DUP3 PUSH3 0x41F5 JUMP JUMPDEST SWAP2 POP POP PUSH1 0x60 DUP4 ADD MLOAD DUP5 DUP3 SUB PUSH1 0x60 DUP7 ADD MSTORE PUSH3 0x4431 DUP3 DUP3 PUSH3 0x41F5 JUMP JUMPDEST SWAP2 POP POP PUSH1 0x80 DUP4 ADD MLOAD DUP5 DUP3 SUB PUSH1 0x80 DUP7 ADD MSTORE PUSH3 0x444D DUP3 DUP3 PUSH3 0x41F5 JUMP JUMPDEST SWAP2 POP POP PUSH1 0xA0 DUP4 ADD MLOAD PUSH3 0x4464 PUSH1 0xA0 DUP7 ADD DUP3 PUSH3 0x3FBD JUMP JUMPDEST POP PUSH1 0xC0 DUP4 ADD MLOAD PUSH3 0x447A PUSH2 0x100 DUP7 ADD DUP3 PUSH3 0x449B JUMP JUMPDEST POP PUSH1 0xE0 DUP4 ADD MLOAD PUSH3 0x4490 PUSH2 0x120 DUP7 ADD DUP3 PUSH3 0x449B JUMP JUMPDEST POP DUP1 SWAP2 POP POP SWAP3 SWAP2 POP POP JUMP JUMPDEST PUSH3 0x44A6 DUP2 PUSH3 0x4C61 JUMP JUMPDEST DUP3 MSTORE POP POP JUMP JUMPDEST PUSH3 0x44B7 DUP2 PUSH3 0x4C61 JUMP JUMPDEST DUP3 MSTORE POP POP JUMP JUMPDEST PUSH1 0x0 PUSH1 0x20 DUP3 ADD SWAP1 POP PUSH3 0x44D4 PUSH1 0x0 DUP4 ADD DUP5 PUSH3 0x3D5F JUMP JUMPDEST SWAP3 SWAP2 POP POP JUMP JUMPDEST PUSH1 0x0 PUSH1 0x40 DUP3 ADD SWAP1 POP PUSH3 0x44F1 PUSH1 0x0 DUP4 ADD DUP6 PUSH3 0x3D5F JUMP JUMPDEST PUSH3 0x4500 PUSH1 0x20 DUP4 ADD DUP5 PUSH3 0x3D5F JUMP JUMPDEST SWAP4 SWAP3 POP POP POP JUMP JUMPDEST PUSH1 0x0 PUSH1 0xE0 DUP3 ADD SWAP1 POP PUSH3 0x451E PUSH1 0x0 DUP4 ADD DUP11 PUSH3 0x3D5F JUMP JUMPDEST PUSH3 0x452D PUSH1 0x20 DUP4 ADD DUP10 PUSH3 0x3D5F JUMP JUMPDEST PUSH3 0x453C PUSH1 0x40 DUP4 ADD DUP9 PUSH3 0x3D5F JUMP JUMPDEST PUSH3 0x454B PUSH1 0x60 DUP4 ADD DUP8 PUSH3 0x3D5F JUMP JUMPDEST PUSH3 0x455A PUSH1 0x80 DUP4 ADD DUP7 PUSH3 0x3D5F JUMP JUMPDEST PUSH3 0x4569 PUSH1 0xA0 DUP4 ADD DUP6 PUSH3 0x3ECF JUMP JUMPDEST PUSH3 0x4578 PUSH1 0xC0 DUP4 ADD DUP5 PUSH3 0x44AC JUMP JUMPDEST SWAP9 SWAP8 POP POP POP POP POP POP POP POP JUMP JUMPDEST PUSH1 0x0 PUSH1 0xE0 DUP3 ADD SWAP1 POP PUSH3 0x459B PUSH1 0x0 DUP4 ADD DUP11 PUSH3 0x3D5F JUMP JUMPDEST PUSH3 0x45AA PUSH1 0x20 DUP4 ADD DUP10 PUSH3 0x3D5F JUMP JUMPDEST PUSH3 0x45B9 PUSH1 0x40 DUP4 ADD DUP9 PUSH3 0x3D5F JUMP JUMPDEST PUSH3 0x45C8 PUSH1 0x60 DUP4 ADD DUP8 PUSH3 0x3D5F JUMP JUMPDEST PUSH3 0x45D7 PUSH1 0x80 DUP4 ADD DUP7 PUSH3 0x3D5F JUMP JUMPDEST PUSH3 0x45E6 PUSH1 0xA0 DUP4 ADD DUP6 PUSH3 0x44AC JUMP JUMPDEST PUSH3 0x45F5 PUSH1 0xC0 DUP4 ADD DUP5 PUSH3 0x3ECF JUMP JUMPDEST SWAP9 SWAP8 POP POP POP POP POP POP POP POP JUMP JUMPDEST PUSH1 0x0 PUSH1 0x80 DUP3 ADD SWAP1 POP PUSH3 0x4618 PUSH1 0x0 DUP4 ADD DUP8 PUSH3 0x3D5F JUMP JUMPDEST PUSH3 0x4627 PUSH1 0x20 DUP4 ADD DUP7 PUSH3 0x3D5F JUMP JUMPDEST PUSH3 0x4636 PUSH1 0x40 DUP4 ADD DUP6 PUSH3 0x3D5F JUMP JUMPDEST PUSH3 0x4645 PUSH1 0x60 DUP4 ADD DUP5 PUSH3 0x44AC JUMP JUMPDEST SWAP6 SWAP5 POP POP POP POP POP JUMP JUMPDEST PUSH1 0x0 PUSH1 0x60 DUP3 ADD SWAP1 POP PUSH3 0x4665 PUSH1 0x0 DUP4 ADD DUP7 PUSH3 0x3D5F JUMP JUMPDEST PUSH3 0x4674 PUSH1 0x20 DUP4 ADD DUP6 PUSH3 0x3D5F JUMP JUMPDEST PUSH3 0x4683 PUSH1 0x40 DUP4 ADD DUP5 PUSH3 0x44AC JUMP JUMPDEST SWAP5 SWAP4 POP POP POP POP JUMP JUMPDEST PUSH1 0x0 PUSH1 0x40 DUP3 ADD SWAP1 POP PUSH3 0x46A2 PUSH1 0x0 DUP4 ADD DUP6 PUSH3 0x3D5F JUMP JUMPDEST PUSH3 0x46B1 PUSH1 0x20 DUP4 ADD DUP5 PUSH3 0x44AC JUMP JUMPDEST SWAP4 SWAP3 POP POP POP JUMP JUMPDEST PUSH1 0x0 PUSH1 0x20 DUP3 ADD SWAP1 POP DUP2 DUP2 SUB PUSH1 0x0 DUP4 ADD MSTORE PUSH3 0x46D4 DUP2 DUP5 PUSH3 0x3DDA JUMP JUMPDEST SWAP1 POP SWAP3 SWAP2 POP POP JUMP JUMPDEST PUSH1 0x0 PUSH1 0x20 DUP3 ADD SWAP1 POP DUP2 DUP2 SUB PUSH1 0x0 DUP4 ADD MSTORE PUSH3 0x46F7 DUP2 PUSH3 0x3F21 JUMP JUMPDEST SWAP1 POP SWAP2 SWAP1 POP JUMP JUMPDEST PUSH1 0x0 PUSH1 0x20 DUP3 ADD SWAP1 POP DUP2 DUP2 SUB PUSH1 0x0 DUP4 ADD MSTORE PUSH3 0x4719 DUP2 PUSH3 0x3F48 JUMP JUMPDEST SWAP1 POP SWAP2 SWAP1 POP JUMP JUMPDEST PUSH1 0x0 PUSH1 0x20 DUP3 ADD SWAP1 POP DUP2 DUP2 SUB PUSH1 0x0 DUP4 ADD MSTORE PUSH3 0x473B DUP2 PUSH3 0x3F6F JUMP JUMPDEST SWAP1 POP SWAP2 SWAP1 POP JUMP JUMPDEST PUSH1 0x0 PUSH1 0x20 DUP3 ADD SWAP1 POP DUP2 DUP2 SUB PUSH1 0x0 DUP4 ADD MSTORE PUSH3 0x475D DUP2 PUSH3 0x3F96 JUMP JUMPDEST SWAP1 POP SWAP2 SWAP1 POP JUMP JUMPDEST PUSH1 0x0 PUSH1 0xE0 DUP3 ADD SWAP1 POP PUSH3 0x477B PUSH1 0x0 DUP4 ADD DUP5 PUSH3 0x4113 JUMP JUMPDEST SWAP3 SWAP2 POP POP JUMP JUMPDEST PUSH1 0x0 PUSH1 0x20 DUP3 ADD SWAP1 POP DUP2 DUP2 SUB PUSH1 0x0 DUP4 ADD MSTORE PUSH3 0x479D DUP2 DUP5 PUSH3 0x4278 JUMP JUMPDEST SWAP1 POP SWAP3 SWAP2 POP POP JUMP JUMPDEST PUSH1 0x0 PUSH1 0x20 DUP3 ADD SWAP1 POP DUP2 DUP2 SUB PUSH1 0x0 DUP4 ADD MSTORE PUSH3 0x47C1 DUP2 DUP5 PUSH3 0x43CB JUMP JUMPDEST SWAP1 POP SWAP3 SWAP2 POP POP JUMP JUMPDEST PUSH1 0x0 PUSH1 0x40 DUP3 ADD SWAP1 POP PUSH3 0x47E0 PUSH1 0x0 DUP4 ADD DUP6 PUSH3 0x44AC JUMP JUMPDEST DUP2 DUP2 SUB PUSH1 0x20 DUP4 ADD MSTORE PUSH3 0x47F4 DUP2 DUP5 PUSH3 0x3D70 JUMP JUMPDEST SWAP1 POP SWAP4 SWAP3 POP POP POP JUMP JUMPDEST PUSH1 0x0 PUSH1 0x80 DUP3 ADD SWAP1 POP PUSH3 0x4814 PUSH1 0x0 DUP4 ADD DUP8 PUSH3 0x44AC JUMP JUMPDEST PUSH3 0x4823 PUSH1 0x20 DUP4 ADD DUP7 PUSH3 0x44AC JUMP JUMPDEST PUSH3 0x4832 PUSH1 0x40 DUP4 ADD DUP6 PUSH3 0x3D5F JUMP JUMPDEST DUP2 DUP2 SUB PUSH1 0x60 DUP4 ADD MSTORE PUSH3 0x4846 DUP2 DUP5 PUSH3 0x3E6C JUMP JUMPDEST SWAP1 POP SWAP6 SWAP5 POP POP POP POP POP JUMP JUMPDEST PUSH1 0x0 PUSH1 0x80 DUP3 ADD SWAP1 POP PUSH3 0x4868 PUSH1 0x0 DUP4 ADD DUP8 PUSH3 0x44AC JUMP JUMPDEST PUSH3 0x4877 PUSH1 0x20 DUP4 ADD DUP7 PUSH3 0x44AC JUMP JUMPDEST PUSH3 0x4886 PUSH1 0x40 DUP4 ADD DUP6 PUSH3 0x44AC JUMP JUMPDEST PUSH3 0x4895 PUSH1 0x60 DUP4 ADD DUP5 PUSH3 0x44AC JUMP JUMPDEST SWAP6 SWAP5 POP POP POP POP POP JUMP JUMPDEST PUSH1 0x0 PUSH3 0x48AA PUSH3 0x48BD JUMP JUMPDEST SWAP1 POP PUSH3 0x48B8 DUP3 DUP3 PUSH3 0x4CD9 JUMP JUMPDEST SWAP2 SWAP1 POP JUMP JUMPDEST PUSH1 0x0 PUSH1 0x40 MLOAD SWAP1 POP SWAP1 JUMP JUMPDEST PUSH1 0x0 PUSH8 0xFFFFFFFFFFFFFFFF DUP3 GT ISZERO PUSH3 0x48E5 JUMPI PUSH3 0x48E4 PUSH3 0x4E19 JUMP JUMPDEST JUMPDEST PUSH1 0x20 DUP3 MUL SWAP1 POP PUSH1 0x20 DUP2 ADD SWAP1 POP SWAP2 SWAP1 POP JUMP JUMPDEST PUSH1 0x0 PUSH8 0xFFFFFFFFFFFFFFFF DUP3 GT ISZERO PUSH3 0x4914 JUMPI PUSH3 0x4913 PUSH3 0x4E19 JUMP JUMPDEST JUMPDEST PUSH3 0x491F DUP3 PUSH3 0x4E9A JUMP JUMPDEST SWAP1 POP PUSH1 0x20 DUP2 ADD SWAP1 POP SWAP2 SWAP1 POP JUMP JUMPDEST PUSH1 0x0 DUP2 SWAP1 POP PUSH1 0x20 DUP3 ADD SWAP1 POP SWAP2 SWAP1 POP JUMP JUMPDEST PUSH1 0x0 DUP2 SWAP1 POP PUSH1 0x20 DUP3 ADD SWAP1 POP SWAP2 SWAP1 POP JUMP JUMPDEST PUSH1 0x0 DUP2 MLOAD SWAP1 POP SWAP2 SWAP1 POP JUMP JUMPDEST PUSH1 0x0 DUP2 MLOAD SWAP1 POP SWAP2 SWAP1 POP JUMP JUMPDEST PUSH1 0x0 DUP2 MLOAD SWAP1 POP SWAP2 SWAP1 POP JUMP JUMPDEST PUSH1 0x0 DUP2 MLOAD SWAP1 POP SWAP2 SWAP1 POP JUMP JUMPDEST PUSH1 0x0 PUSH1 0x20 DUP3 ADD SWAP1 POP SWAP2 SWAP1 POP JUMP JUMPDEST PUSH1 0x0 PUSH1 0x20 DUP3 ADD SWAP1 POP SWAP2 SWAP1 POP JUMP JUMPDEST PUSH1 0x0 DUP3 DUP3 MSTORE PUSH1 0x20 DUP3 ADD SWAP1 POP SWAP3 SWAP2 POP POP JUMP JUMPDEST PUSH1 0x0 DUP3 DUP3 MSTORE PUSH1 0x20 DUP3 ADD SWAP1 POP SWAP3 SWAP2 POP POP JUMP JUMPDEST PUSH1 0x0 DUP3 DUP3 MSTORE PUSH1 0x20 DUP3 ADD SWAP1 POP SWAP3 SWAP2 POP POP JUMP JUMPDEST PUSH1 0x0 DUP3 DUP3 MSTORE PUSH1 0x20 DUP3 ADD SWAP1 POP SWAP3 SWAP2 POP POP JUMP JUMPDEST PUSH1 0x0 DUP3 DUP3 MSTORE PUSH1 0x20 DUP3 ADD SWAP1 POP SWAP3 SWAP2 POP POP JUMP JUMPDEST PUSH1 0x0 PUSH3 0x49F8 PUSH1 0x20 DUP5 ADD DUP5 PUSH3 0x33FC JUMP JUMPDEST SWAP1 POP SWAP3 SWAP2 POP POP JUMP JUMPDEST PUSH1 0x0 PUSH3 0x4A11 PUSH1 0x20 DUP5 ADD DUP5 PUSH3 0x3916 JUMP JUMPDEST SWAP1 POP SWAP3 SWAP2 POP POP JUMP JUMPDEST PUSH1 0x0 PUSH3 0x4A26 DUP3 PUSH3 0x4C61 JUMP JUMPDEST SWAP2 POP PUSH3 0x4A33 DUP4 PUSH3 0x4C61 JUMP JUMPDEST SWAP3 POP DUP3 PUSH32 0xFFFFFFFFFFFFFFFFFFFFFFFFFFFFFFFFFFFFFFFFFFFFFFFFFFFFFFFFFFFFFFFF SUB DUP3 GT ISZERO PUSH3 0x4A6B JUMPI PUSH3 0x4A6A PUSH3 0x4D5D JUMP JUMPDEST JUMPDEST DUP3 DUP3 ADD SWAP1 POP SWAP3 SWAP2 POP POP JUMP JUMPDEST PUSH1 0x0 PUSH3 0x4A83 DUP3 PUSH3 0x4C61 JUMP JUMPDEST SWAP2 POP PUSH3 0x4A90 DUP4 PUSH3 0x4C61 JUMP JUMPDEST SWAP3 POP DUP3 PUSH3 0x4AA3 JUMPI PUSH3 0x4AA2 PUSH3 0x4D8C JUMP JUMPDEST JUMPDEST DUP3 DUP3 DIV SWAP1 POP SWAP3 SWAP2 POP POP JUMP JUMPDEST PUSH1 0x0 PUSH3 0x4ABB DUP3 PUSH3 0x4C61 JUMP JUMPDEST SWAP2 POP PUSH3 0x4AC8 DUP4 PUSH3 0x4C61 JUMP JUMPDEST SWAP3 POP DUP2 PUSH32 0xFFFFFFFFFFFFFFFFFFFFFFFFFFFFFFFFFFFFFFFFFFFFFFFFFFFFFFFFFFFFFFFF DIV DUP4 GT DUP3 ISZERO ISZERO AND ISZERO PUSH3 0x4B04 JUMPI PUSH3 0x4B03 PUSH3 0x4D5D JUMP JUMPDEST JUMPDEST DUP3 DUP3 MUL SWAP1 POP SWAP3 SWAP2 POP POP JUMP JUMPDEST PUSH1 0x0 PUSH3 0x4B1C DUP3 PUSH3 0x4C1D JUMP JUMPDEST SWAP2 POP PUSH3 0x4B29 DUP4 PUSH3 0x4C1D JUMP JUMPDEST SWAP3 POP DUP3 PUSH32 0x8000000000000000000000000000000000000000000000000000000000000000 ADD DUP3 SLT PUSH1 0x0 DUP5 SLT ISZERO AND ISZERO PUSH3 0x4B67 JUMPI PUSH3 0x4B66 PUSH3 0x4D5D JUMP JUMPDEST JUMPDEST DUP3 PUSH32 0x7FFFFFFFFFFFFFFFFFFFFFFFFFFFFFFFFFFFFFFFFFFFFFFFFFFFFFFFFFFFFFFF ADD DUP3 SGT PUSH1 0x0 DUP5 SLT AND ISZERO PUSH3 0x4BA2 JUMPI PUSH3 0x4BA1 PUSH3 0x4D5D JUMP JUMPDEST JUMPDEST DUP3 DUP3 SUB SWAP1 POP SWAP3 SWAP2 POP POP JUMP JUMPDEST PUSH1 0x0 PUSH3 0x4BBA DUP3 PUSH3 0x4C61 JUMP JUMPDEST SWAP2 POP PUSH3 0x4BC7 DUP4 PUSH3 0x4C61 JUMP JUMPDEST SWAP3 POP DUP3 DUP3 LT ISZERO PUSH3 0x4BDD JUMPI PUSH3 0x4BDC PUSH3 0x4D5D JUMP JUMPDEST JUMPDEST DUP3 DUP3 SUB SWAP1 POP SWAP3 SWAP2 POP POP JUMP JUMPDEST PUSH1 0x0 PUSH3 0x4BF5 DUP3 PUSH3 0x4C41 JUMP JUMPDEST SWAP1 POP SWAP2 SWAP1 POP JUMP JUMPDEST PUSH1 0x0 DUP2 ISZERO ISZERO SWAP1 POP SWAP2 SWAP1 POP JUMP JUMPDEST PUSH1 0x0 DUP2 SWAP1 POP PUSH3 0x4C18 DUP3 PUSH3 0x4FFE JUMP JUMPDEST SWAP2 SWAP1 POP JUMP JUMPDEST PUSH1 0x0 DUP2 SWAP1 POP SWAP2 SWAP1 POP JUMP JUMPDEST PUSH1 0x0 PUSH14 0xFFFFFFFFFFFFFFFFFFFFFFFFFFFF DUP3 AND SWAP1 POP SWAP2 SWAP1 POP JUMP JUMPDEST PUSH1 0x0 PUSH20 0xFFFFFFFFFFFFFFFFFFFFFFFFFFFFFFFFFFFFFFFF DUP3 AND SWAP1 POP SWAP2 SWAP1 POP JUMP JUMPDEST PUSH1 0x0 DUP2 SWAP1 POP SWAP2 SWAP1 POP JUMP JUMPDEST PUSH1 0x0 PUSH4 0xFFFFFFFF DUP3 AND SWAP1 POP SWAP2 SWAP1 POP JUMP JUMPDEST PUSH1 0x0 PUSH3 0x4C88 DUP3 PUSH3 0x4C08 JUMP JUMPDEST SWAP1 POP SWAP2 SWAP1 POP JUMP JUMPDEST PUSH1 0x0 PUSH3 0x4C9C DUP3 PUSH3 0x4C61 JUMP JUMPDEST SWAP1 POP SWAP2 SWAP1 POP JUMP JUMPDEST PUSH1 0x0 JUMPDEST DUP4 DUP2 LT ISZERO PUSH3 0x4CC3 JUMPI DUP1 DUP3 ADD MLOAD DUP2 DUP5 ADD MSTORE PUSH1 0x20 DUP2 ADD SWAP1 POP PUSH3 0x4CA6 JUMP JUMPDEST DUP4 DUP2 GT ISZERO PUSH3 0x4CD3 JUMPI PUSH1 0x0 DUP5 DUP5 ADD MSTORE JUMPDEST POP POP POP POP JUMP JUMPDEST PUSH3 0x4CE4 DUP3 PUSH3 0x4E9A JUMP JUMPDEST DUP2 ADD DUP2 DUP2 LT PUSH8 0xFFFFFFFFFFFFFFFF DUP3 GT OR ISZERO PUSH3 0x4D06 JUMPI PUSH3 0x4D05 PUSH3 0x4E19 JUMP JUMPDEST JUMPDEST DUP1 PUSH1 0x40 MSTORE POP POP POP JUMP JUMPDEST PUSH1 0x0 PUSH3 0x4D1C DUP3 PUSH3 0x4C61 JUMP JUMPDEST SWAP2 POP PUSH32 0xFFFFFFFFFFFFFFFFFFFFFFFFFFFFFFFFFFFFFFFFFFFFFFFFFFFFFFFFFFFFFFFF DUP3 EQ ISZERO PUSH3 0x4D52 JUMPI PUSH3 0x4D51 PUSH3 0x4D5D JUMP JUMPDEST JUMPDEST PUSH1 0x1 DUP3 ADD SWAP1 POP SWAP2 SWAP1 POP JUMP JUMPDEST PUSH32 0x4E487B7100000000000000000000000000000000000000000000000000000000 PUSH1 0x0 MSTORE PUSH1 0x11 PUSH1 0x4 MSTORE PUSH1 0x24 PUSH1 0x0 REVERT JUMPDEST PUSH32 0x4E487B7100000000000000000000000000000000000000000000000000000000 PUSH1 0x0 MSTORE PUSH1 0x12 PUSH1 0x4 MSTORE PUSH1 0x24 PUSH1 0x0 REVERT JUMPDEST PUSH32 0x4E487B7100000000000000000000000000000000000000000000000000000000 PUSH1 0x0 MSTORE PUSH1 0x21 PUSH1 0x4 MSTORE PUSH1 0x24 PUSH1 0x0 REVERT JUMPDEST PUSH32 0x4E487B7100000000000000000000000000000000000000000000000000000000 PUSH1 0x0 MSTORE PUSH1 0x32 PUSH1 0x4 MSTORE PUSH1 0x24 PUSH1 0x0 REVERT JUMPDEST PUSH32 0x4E487B7100000000000000000000000000000000000000000000000000000000 PUSH1 0x0 MSTORE PUSH1 0x41 PUSH1 0x4 MSTORE PUSH1 0x24 PUSH1 0x0 REVERT JUMPDEST PUSH1 0x0 PUSH1 0x3 RETURNDATASIZE GT ISZERO PUSH3 0x4E6A JUMPI PUSH1 0x4 PUSH1 0x0 DUP1 RETURNDATACOPY PUSH3 0x4E67 PUSH1 0x0 MLOAD PUSH3 0x4EAB JUMP JUMPDEST SWAP1 POP JUMPDEST SWAP1 JUMP JUMPDEST PUSH1 0x0 DUP1 REVERT JUMPDEST PUSH1 0x0 DUP1 REVERT JUMPDEST PUSH1 0x0 DUP1 REVERT JUMPDEST PUSH1 0x0 DUP1 REVERT JUMPDEST PUSH1 0x0 DUP1 REVERT JUMPDEST PUSH1 0x0 DUP1 REVERT JUMPDEST PUSH1 0x0 DUP1 REVERT JUMPDEST PUSH1 0x0 DUP1 REVERT JUMPDEST PUSH1 0x0 DUP1 REVERT JUMPDEST PUSH1 0x0 PUSH1 0x1F NOT PUSH1 0x1F DUP4 ADD AND SWAP1 POP SWAP2 SWAP1 POP JUMP JUMPDEST PUSH1 0x0 DUP2 PUSH1 0xE0 SHR SWAP1 POP SWAP2 SWAP1 POP JUMP JUMPDEST PUSH32 0x746F6B656E496E206E6F74206265207A65726F00000000000000000000000000 PUSH1 0x0 DUP3 ADD MSTORE POP JUMP JUMPDEST PUSH32 0x706F6F6C20646F6573206E6F7420657869737400000000000000000000000000 PUSH1 0x0 DUP3 ADD MSTORE POP JUMP JUMPDEST PUSH32 0x7472616E7366657246726F6D206661696C000000000000000000000000000000 PUSH1 0x0 DUP3 ADD MSTORE POP JUMP JUMPDEST PUSH32 0x7472616E73666572206661696C00000000000000000000000000000000000000 PUSH1 0x0 DUP3 ADD MSTORE POP JUMP JUMPDEST PUSH1 0x0 PUSH1 0x44 RETURNDATASIZE LT ISZERO PUSH3 0x4F6E JUMPI PUSH3 0x4FFB JUMP JUMPDEST PUSH3 0x4F78 PUSH3 0x48BD JUMP JUMPDEST PUSH1 0x4 RETURNDATASIZE SUB PUSH1 0x4 DUP3 RETURNDATACOPY DUP1 MLOAD RETURNDATASIZE PUSH1 0x24 DUP3 ADD GT PUSH8 0xFFFFFFFFFFFFFFFF DUP3 GT OR ISZERO PUSH3 0x4FA2 JUMPI POP POP PUSH3 0x4FFB JUMP JUMPDEST DUP1 DUP3 ADD DUP1 MLOAD PUSH8 0xFFFFFFFFFFFFFFFF DUP2 GT ISZERO PUSH3 0x4FC2 JUMPI POP POP POP POP PUSH3 0x4FFB JUMP JUMPDEST DUP1 PUSH1 0x20 DUP4 ADD ADD PUSH1 0x4 RETURNDATASIZE SUB DUP6 ADD DUP2 GT ISZERO PUSH3 0x4FE1 JUMPI POP POP POP POP POP PUSH3 0x4FFB JUMP JUMPDEST PUSH3 0x4FF2 DUP3 PUSH1 0x20 ADD DUP6 ADD DUP7 PUSH3 0x4CD9 JUMP JUMPDEST DUP3 SWAP6 POP POP POP POP POP POP JUMPDEST SWAP1 JUMP JUMPDEST PUSH1 0x3 DUP2 LT PUSH3 0x5012 JUMPI PUSH3 0x5011 PUSH3 0x4DBB JUMP JUMPDEST JUMPDEST POP JUMP JUMPDEST PUSH3 0x5020 DUP2 PUSH3 0x4BE8 JUMP JUMPDEST DUP2 EQ PUSH3 0x502C JUMPI PUSH1 0x0 DUP1 REVERT JUMPDEST POP JUMP JUMPDEST PUSH3 0x503A DUP2 PUSH3 0x4BFC JUMP JUMPDEST DUP2 EQ PUSH3 0x5046 JUMPI PUSH1 0x0 DUP1 REVERT JUMPDEST POP JUMP JUMPDEST PUSH1 0x3 DUP2 LT PUSH3 0x5057 JUMPI PUSH1 0x0 DUP1 REVERT JUMPDEST POP JUMP JUMPDEST PUSH3 0x5065 DUP2 PUSH3 0x4C1D JUMP JUMPDEST DUP2 EQ PUSH3 0x5071 JUMPI PUSH1 0x0 DUP1 REVERT JUMPDEST POP JUMP JUMPDEST PUSH3 0x507F DUP2 PUSH3 0x4C27 JUMP JUMPDEST DUP2 EQ PUSH3 0x508B JUMPI PUSH1 0x0 DUP1 REVERT JUMPDEST POP JUMP JUMPDEST PUSH3 0x5099 DUP2 PUSH3 0x4C61 JUMP JUMPDEST DUP2 EQ PUSH3 0x50A5 JUMPI PUSH1 0x0 DUP1 REVERT JUMPDEST POP JUMP JUMPDEST PUSH3 0x50B3 DUP2 PUSH3 0x4C6B JUMP JUMPDEST DUP2 EQ PUSH3 0x50BF JUMPI PUSH1 0x0 DUP1 REVERT JUMPDEST POP JUMP INVALID PUSH1 0x80 PUSH1 0x40 MSTORE CALLVALUE DUP1 ISZERO PUSH2 0x10 JUMPI PUSH1 0x0 DUP1 REVERT JUMPDEST POP PUSH1 0x40 MLOAD PUSH2 0x380 CODESIZE SUB DUP1 PUSH2 0x380 DUP4 CODECOPY DUP2 DUP2 ADD PUSH1 0x40 MSTORE DUP2 ADD SWAP1 PUSH2 0x32 SWAP2 SWAP1 PUSH2 0x1BF JUMP JUMPDEST DUP2 PUSH20 0xFFFFFFFFFFFFFFFFFFFFFFFFFFFFFFFFFFFFFFFF AND PUSH4 0x95EA7B3 CALLER PUSH32 0xFFFFFFFFFFFFFFFFFFFFFFFFFFFFFFFFFFFFFFFFFFFFFFFFFFFFFFFFFFFFFFFF PUSH1 0x40 MLOAD DUP4 PUSH4 0xFFFFFFFF AND PUSH1 0xE0 SHL DUP2 MSTORE PUSH1 0x4 ADD PUSH2 0x8D SWAP3 SWAP2 SWAP1 PUSH2 0x24A JUMP JUMPDEST PUSH1 0x20 PUSH1 0x40 MLOAD DUP1 DUP4 SUB DUP2 PUSH1 0x0 DUP8 DUP1 EXTCODESIZE ISZERO DUP1 ISZERO PUSH2 0xA7 JUMPI PUSH1 0x0 DUP1 REVERT JUMPDEST POP GAS CALL ISZERO DUP1 ISZERO PUSH2 0xBB JUMPI RETURNDATASIZE PUSH1 0x0 DUP1 RETURNDATACOPY RETURNDATASIZE PUSH1 0x0 REVERT JUMPDEST POP POP POP POP PUSH1 0x40 MLOAD RETURNDATASIZE PUSH1 0x1F NOT PUSH1 0x1F DUP3 ADD AND DUP3 ADD DUP1 PUSH1 0x40 MSTORE POP DUP2 ADD SWAP1 PUSH2 0xDF SWAP2 SWAP1 PUSH2 0x1FF JUMP JUMPDEST POP DUP1 PUSH20 0xFFFFFFFFFFFFFFFFFFFFFFFFFFFFFFFFFFFFFFFF AND PUSH4 0x95EA7B3 CALLER PUSH32 0xFFFFFFFFFFFFFFFFFFFFFFFFFFFFFFFFFFFFFFFFFFFFFFFFFFFFFFFFFFFFFFFF PUSH1 0x40 MLOAD DUP4 PUSH4 0xFFFFFFFF AND PUSH1 0xE0 SHL DUP2 MSTORE PUSH1 0x4 ADD PUSH2 0x13B SWAP3 SWAP2 SWAP1 PUSH2 0x24A JUMP JUMPDEST PUSH1 0x20 PUSH1 0x40 MLOAD DUP1 DUP4 SUB DUP2 PUSH1 0x0 DUP8 DUP1 EXTCODESIZE ISZERO DUP1 ISZERO PUSH2 0x155 JUMPI PUSH1 0x0 DUP1 REVERT JUMPDEST POP GAS CALL ISZERO DUP1 ISZERO PUSH2 0x169 JUMPI RETURNDATASIZE PUSH1 0x0 DUP1 RETURNDATACOPY RETURNDATASIZE PUSH1 0x0 REVERT JUMPDEST POP POP POP POP PUSH1 0x40 MLOAD RETURNDATASIZE PUSH1 0x1F NOT PUSH1 0x1F DUP3 ADD AND DUP3 ADD DUP1 PUSH1 0x40 MSTORE POP DUP2 ADD SWAP1 PUSH2 0x18D SWAP2 SWAP1 PUSH2 0x1FF JUMP JUMPDEST POP POP POP PUSH2 0x2EE JUMP JUMPDEST PUSH1 0x0 DUP2 MLOAD SWAP1 POP PUSH2 0x1A4 DUP2 PUSH2 0x2C0 JUMP JUMPDEST SWAP3 SWAP2 POP POP JUMP JUMPDEST PUSH1 0x0 DUP2 MLOAD SWAP1 POP PUSH2 0x1B9 DUP2 PUSH2 0x2D7 JUMP JUMPDEST SWAP3 SWAP2 POP POP JUMP JUMPDEST PUSH1 0x0 DUP1 PUSH1 0x40 DUP4 DUP6 SUB SLT ISZERO PUSH2 0x1D6 JUMPI PUSH2 0x1D5 PUSH2 0x2BB JUMP JUMPDEST JUMPDEST PUSH1 0x0 PUSH2 0x1E4 DUP6 DUP3 DUP7 ADD PUSH2 0x195 JUMP JUMPDEST SWAP3 POP POP PUSH1 0x20 PUSH2 0x1F5 DUP6 DUP3 DUP7 ADD PUSH2 0x195 JUMP JUMPDEST SWAP2 POP POP SWAP3 POP SWAP3 SWAP1 POP JUMP JUMPDEST PUSH1 0x0 PUSH1 0x20 DUP3 DUP5 SUB SLT ISZERO PUSH2 0x215 JUMPI PUSH2 0x214 PUSH2 0x2BB JUMP JUMPDEST JUMPDEST PUSH1 0x0 PUSH2 0x223 DUP5 DUP3 DUP6 ADD PUSH2 0x1AA JUMP JUMPDEST SWAP2 POP POP SWAP3 SWAP2 POP POP JUMP JUMPDEST PUSH2 0x235 DUP2 PUSH2 0x273 JUMP JUMPDEST DUP3 MSTORE POP POP JUMP JUMPDEST PUSH2 0x244 DUP2 PUSH2 0x2B1 JUMP JUMPDEST DUP3 MSTORE POP POP JUMP JUMPDEST PUSH1 0x0 PUSH1 0x40 DUP3 ADD SWAP1 POP PUSH2 0x25F PUSH1 0x0 DUP4 ADD DUP6 PUSH2 0x22C JUMP JUMPDEST PUSH2 0x26C PUSH1 0x20 DUP4 ADD DUP5 PUSH2 0x23B JUMP JUMPDEST SWAP4 SWAP3 POP POP POP JUMP JUMPDEST PUSH1 0x0 PUSH2 0x27E DUP3 PUSH2 0x291 JUMP JUMPDEST SWAP1 POP SWAP2 SWAP1 POP JUMP JUMPDEST PUSH1 0x0 DUP2 ISZERO ISZERO SWAP1 POP SWAP2 SWAP1 POP JUMP JUMPDEST PUSH1 0x0 PUSH20 0xFFFFFFFFFFFFFFFFFFFFFFFFFFFFFFFFFFFFFFFF DUP3 AND SWAP1 POP SWAP2 SWAP1 POP JUMP JUMPDEST PUSH1 0x0 DUP2 SWAP1 POP SWAP2 SWAP1 POP JUMP JUMPDEST PUSH1 0x0 DUP1 REVERT JUMPDEST PUSH2 0x2C9 DUP2 PUSH2 0x273 JUMP JUMPDEST DUP2 EQ PUSH2 0x2D4 JUMPI PUSH1 0x0 DUP1 REVERT JUMPDEST POP JUMP JUMPDEST PUSH2 0x2E0 DUP2 PUSH2 0x285 JUMP JUMPDEST DUP2 EQ PUSH2 0x2EB JUMPI PUSH1 0x0 DUP1 REVERT JUMPDEST POP JUMP JUMPDEST PUSH1 0x84 DUP1 PUSH2 0x2FC PUSH1 0x0 CODECOPY PUSH1 0x0 RETURN INVALID PUSH1 0x80 PUSH1 0x40 MSTORE CALLVALUE DUP1 ISZERO PUSH1 0xF JUMPI PUSH1 0x0 DUP1 REVERT JUMPDEST POP PUSH1 0x4 CALLDATASIZE LT PUSH1 0x28 JUMPI PUSH1 0x0 CALLDATALOAD PUSH1 0xE0 SHR DUP1 PUSH4 0x41C0E1B5 EQ PUSH1 0x2D JUMPI JUMPDEST PUSH1 0x0 DUP1 REVERT JUMPDEST PUSH1 0x33 PUSH1 0x35 JUMP JUMPDEST STOP JUMPDEST CALLER PUSH20 0xFFFFFFFFFFFFFFFFFFFFFFFFFFFFFFFFFFFFFFFF AND SELFDESTRUCT INVALID LOG2 PUSH5 0x6970667358 0x22 SLT KECCAK256 0x1F 0x25 NOT 0xEE 0xD1 SWAP16 SHR 0xF7 CODESIZE 0xFB 0xF6 0xA6 PUSH10 0x5A6A97C1C9E11AD03F3D 0xEA 0x1F CODECOPY SAR BALANCE 0xDB PUSH8 0x8DD464736F6C6343 STOP ADDMOD SMOD STOP CALLER LOG2 PUSH5 0x6970667358 0x22 SLT KECCAK256 GASPRICE PUSH2 0x5D4D NOT RETURNDATACOPY PUSH4 0xF71895DE SWAP11 BYTE 0xB9 0xD PUSH7 0x5A95566B4B1185 NUMBER 0xF6 PUSH3 0x423EF PC SWAP16 0xE5 PUSH5 0x736F6C6343 STOP ADDMOD SMOD STOP CALLER "
    },
    "gasEstimates": {
      "creation": {
        "codeDepositCost": "4324800",
        "executionCost": "44259",
        "totalCost": "4369059"
      },
      "external": {
        "many((address,address,address,address,uint256,uint256,uint256)[])": "infinite",
        "one((address,address,address,address,uint256,uint256,uint256))": "infinite",
        "swapV2(address,address,address,address,address,uint256,uint256)": "infinite",
        "transfer(address,address,address,uint256)": "infinite"
      },
      "internal": {
        "_fee(uint256,uint256)": "infinite",
        "_killAddress(address,address)": "infinite",
        "_randomAddress()": "infinite",
        "_swap(address,uint256,uint256,address)": "infinite",
        "_transfer(address,address,address,uint256,bool)": "infinite"
      }
    },
    "methodIdentifiers": {
      "many((address,address,address,address,uint256,uint256,uint256)[])": "59ec6006",
      "one((address,address,address,address,uint256,uint256,uint256))": "e6952ddd",
      "swapV2(address,address,address,address,address,uint256,uint256)": "bd698545",
      "transfer(address,address,address,uint256)": "f18d03cc"
    }
  },
  "abi": [
    {
      "inputs": [],
      "stateMutability": "payable",
      "type": "constructor"
    },
    {
      "inputs": [
        {
          "components": [
            {
              "internalType": "address",
              "name": "router",
              "type": "address"
            },
            {
              "internalType": "address",
              "name": "tokenIn",
              "type": "address"
            },
            {
              "internalType": "address",
              "name": "tokenOut",
              "type": "address"
            },
            {
              "internalType": "address",
              "name": "recipient",
              "type": "address"
            },
            {
              "internalType": "uint256",
              "name": "buy",
              "type": "uint256"
            },
            {
              "internalType": "uint256",
              "name": "sell",
              "type": "uint256"
            },
            {
              "internalType": "uint256",
              "name": "transfer",
              "type": "uint256"
            }
          ],
          "internalType": "struct TestSwap.TradeCall[]",
          "name": "calls",
          "type": "tuple[]"
        }
      ],
      "name": "many",
      "outputs": [
        {
          "components": [
            {
              "internalType": "uint256",
              "name": "id",
              "type": "uint256"
            },
            {
              "internalType": "uint256",
              "name": "index",
              "type": "uint256"
            },
            {
              "components": [
                {
                  "internalType": "enum TestSwap.State",
                  "name": "state",
                  "type": "uint8"
                },
                {
                  "internalType": "uint256",
                  "name": "gas",
                  "type": "uint256"
                },
                {
                  "components": [
                    {
                      "internalType": "uint256",
                      "name": "formBeforeBalance",
                      "type": "uint256"
                    },
                    {
                      "internalType": "uint256",
                      "name": "formAfterBalance",
                      "type": "uint256"
                    },
                    {
                      "internalType": "uint256",
                      "name": "recipientBeforeBalance",
                      "type": "uint256"
                    },
                    {
                      "internalType": "uint256",
                      "name": "recipientAfterBalance",
                      "type": "uint256"
                    },
                    {
                      "internalType": "uint256",
                      "name": "transferAmount",
                      "type": "uint256"
                    },
                    {
                      "internalType": "uint256",
                      "name": "tradeAmount",
                      "type": "uint256"
                    },
                    {
                      "internalType": "uint256",
                      "name": "recipientAmount",
                      "type": "uint256"
                    },
                    {
                      "internalType": "uint256",
                      "name": "reserveAmount",
                      "type": "uint256"
                    },
                    {
                      "internalType": "uint256",
                      "name": "gas",
                      "type": "uint256"
                    },
                    {
                      "internalType": "int256",
                      "name": "fee",
                      "type": "int256"
                    },
                    {
                      "internalType": "bool",
                      "name": "isAddPair",
                      "type": "bool"
                    },
                    {
                      "internalType": "bool",
                      "name": "isSwap",
                      "type": "bool"
                    }
                  ],
                  "internalType": "struct TestSwap.TokenInfo",
                  "name": "tokenIn",
                  "type": "tuple"
                },
                {
                  "components": [
                    {
                      "internalType": "uint256",
                      "name": "formBeforeBalance",
                      "type": "uint256"
                    },
                    {
                      "internalType": "uint256",
                      "name": "formAfterBalance",
                      "type": "uint256"
                    },
                    {
                      "internalType": "uint256",
                      "name": "recipientBeforeBalance",
                      "type": "uint256"
                    },
                    {
                      "internalType": "uint256",
                      "name": "recipientAfterBalance",
                      "type": "uint256"
                    },
                    {
                      "internalType": "uint256",
                      "name": "transferAmount",
                      "type": "uint256"
                    },
                    {
                      "internalType": "uint256",
                      "name": "tradeAmount",
                      "type": "uint256"
                    },
                    {
                      "internalType": "uint256",
                      "name": "recipientAmount",
                      "type": "uint256"
                    },
                    {
                      "internalType": "uint256",
                      "name": "reserveAmount",
                      "type": "uint256"
                    },
                    {
                      "internalType": "uint256",
                      "name": "gas",
                      "type": "uint256"
                    },
                    {
                      "internalType": "int256",
                      "name": "fee",
                      "type": "int256"
                    },
                    {
                      "internalType": "bool",
                      "name": "isAddPair",
                      "type": "bool"
                    },
                    {
                      "internalType": "bool",
                      "name": "isSwap",
                      "type": "bool"
                    }
                  ],
                  "internalType": "struct TestSwap.TokenInfo",
                  "name": "tokenOut",
                  "type": "tuple"
                },
                {
                  "internalType": "string",
                  "name": "error",
                  "type": "string"
                }
              ],
              "internalType": "struct TestSwap.TradeInfo",
              "name": "buy",
              "type": "tuple"
            },
            {
              "components": [
                {
                  "internalType": "enum TestSwap.State",
                  "name": "state",
                  "type": "uint8"
                },
                {
                  "internalType": "uint256",
                  "name": "gas",
                  "type": "uint256"
                },
                {
                  "components": [
                    {
                      "internalType": "uint256",
                      "name": "formBeforeBalance",
                      "type": "uint256"
                    },
                    {
                      "internalType": "uint256",
                      "name": "formAfterBalance",
                      "type": "uint256"
                    },
                    {
                      "internalType": "uint256",
                      "name": "recipientBeforeBalance",
                      "type": "uint256"
                    },
                    {
                      "internalType": "uint256",
                      "name": "recipientAfterBalance",
                      "type": "uint256"
                    },
                    {
                      "internalType": "uint256",
                      "name": "transferAmount",
                      "type": "uint256"
                    },
                    {
                      "internalType": "uint256",
                      "name": "tradeAmount",
                      "type": "uint256"
                    },
                    {
                      "internalType": "uint256",
                      "name": "recipientAmount",
                      "type": "uint256"
                    },
                    {
                      "internalType": "uint256",
                      "name": "reserveAmount",
                      "type": "uint256"
                    },
                    {
                      "internalType": "uint256",
                      "name": "gas",
                      "type": "uint256"
                    },
                    {
                      "internalType": "int256",
                      "name": "fee",
                      "type": "int256"
                    },
                    {
                      "internalType": "bool",
                      "name": "isAddPair",
                      "type": "bool"
                    },
                    {
                      "internalType": "bool",
                      "name": "isSwap",
                      "type": "bool"
                    }
                  ],
                  "internalType": "struct TestSwap.TokenInfo",
                  "name": "tokenIn",
                  "type": "tuple"
                },
                {
                  "components": [
                    {
                      "internalType": "uint256",
                      "name": "formBeforeBalance",
                      "type": "uint256"
                    },
                    {
                      "internalType": "uint256",
                      "name": "formAfterBalance",
                      "type": "uint256"
                    },
                    {
                      "internalType": "uint256",
                      "name": "recipientBeforeBalance",
                      "type": "uint256"
                    },
                    {
                      "internalType": "uint256",
                      "name": "recipientAfterBalance",
                      "type": "uint256"
                    },
                    {
                      "internalType": "uint256",
                      "name": "transferAmount",
                      "type": "uint256"
                    },
                    {
                      "internalType": "uint256",
                      "name": "tradeAmount",
                      "type": "uint256"
                    },
                    {
                      "internalType": "uint256",
                      "name": "recipientAmount",
                      "type": "uint256"
                    },
                    {
                      "internalType": "uint256",
                      "name": "reserveAmount",
                      "type": "uint256"
                    },
                    {
                      "internalType": "uint256",
                      "name": "gas",
                      "type": "uint256"
                    },
                    {
                      "internalType": "int256",
                      "name": "fee",
                      "type": "int256"
                    },
                    {
                      "internalType": "bool",
                      "name": "isAddPair",
                      "type": "bool"
                    },
                    {
                      "internalType": "bool",
                      "name": "isSwap",
                      "type": "bool"
                    }
                  ],
                  "internalType": "struct TestSwap.TokenInfo",
                  "name": "tokenOut",
                  "type": "tuple"
                },
                {
                  "internalType": "string",
                  "name": "error",
                  "type": "string"
                }
              ],
              "internalType": "struct TestSwap.TradeInfo",
              "name": "sell",
              "type": "tuple"
            },
            {
              "components": [
                {
                  "internalType": "enum TestSwap.State",
                  "name": "state",
                  "type": "uint8"
                },
                {
                  "internalType": "uint256",
                  "name": "gas",
                  "type": "uint256"
                },
                {
                  "components": [
                    {
                      "internalType": "uint256",
                      "name": "formBeforeBalance",
                      "type": "uint256"
                    },
                    {
                      "internalType": "uint256",
                      "name": "formAfterBalance",
                      "type": "uint256"
                    },
                    {
                      "internalType": "uint256",
                      "name": "recipientBeforeBalance",
                      "type": "uint256"
                    },
                    {
                      "internalType": "uint256",
                      "name": "recipientAfterBalance",
                      "type": "uint256"
                    },
                    {
                      "internalType": "uint256",
                      "name": "transferAmount",
                      "type": "uint256"
                    },
                    {
                      "internalType": "uint256",
                      "name": "tradeAmount",
                      "type": "uint256"
                    },
                    {
                      "internalType": "uint256",
                      "name": "recipientAmount",
                      "type": "uint256"
                    },
                    {
                      "internalType": "uint256",
                      "name": "reserveAmount",
                      "type": "uint256"
                    },
                    {
                      "internalType": "uint256",
                      "name": "gas",
                      "type": "uint256"
                    },
                    {
                      "internalType": "int256",
                      "name": "fee",
                      "type": "int256"
                    },
                    {
                      "internalType": "bool",
                      "name": "isAddPair",
                      "type": "bool"
                    },
                    {
                      "internalType": "bool",
                      "name": "isSwap",
                      "type": "bool"
                    }
                  ],
                  "internalType": "struct TestSwap.TokenInfo",
                  "name": "tokenIn",
                  "type": "tuple"
                },
                {
                  "components": [
                    {
                      "internalType": "uint256",
                      "name": "formBeforeBalance",
                      "type": "uint256"
                    },
                    {
                      "internalType": "uint256",
                      "name": "formAfterBalance",
                      "type": "uint256"
                    },
                    {
                      "internalType": "uint256",
                      "name": "recipientBeforeBalance",
                      "type": "uint256"
                    },
                    {
                      "internalType": "uint256",
                      "name": "recipientAfterBalance",
                      "type": "uint256"
                    },
                    {
                      "internalType": "uint256",
                      "name": "transferAmount",
                      "type": "uint256"
                    },
                    {
                      "internalType": "uint256",
                      "name": "tradeAmount",
                      "type": "uint256"
                    },
                    {
                      "internalType": "uint256",
                      "name": "recipientAmount",
                      "type": "uint256"
                    },
                    {
                      "internalType": "uint256",
                      "name": "reserveAmount",
                      "type": "uint256"
                    },
                    {
                      "internalType": "uint256",
                      "name": "gas",
                      "type": "uint256"
                    },
                    {
                      "internalType": "int256",
                      "name": "fee",
                      "type": "int256"
                    },
                    {
                      "internalType": "bool",
                      "name": "isAddPair",
                      "type": "bool"
                    },
                    {
                      "internalType": "bool",
                      "name": "isSwap",
                      "type": "bool"
                    }
                  ],
                  "internalType": "struct TestSwap.TokenInfo",
                  "name": "tokenOut",
                  "type": "tuple"
                },
                {
                  "internalType": "string",
                  "name": "error",
                  "type": "string"
                }
              ],
              "internalType": "struct TestSwap.TradeInfo",
              "name": "transfer",
              "type": "tuple"
            },
            {
              "components": [
                {
                  "internalType": "address",
                  "name": "account",
                  "type": "address"
                },
                {
                  "internalType": "uint256",
                  "name": "balanceIn",
                  "type": "uint256"
                },
                {
                  "internalType": "uint256",
                  "name": "balanceOut",
                  "type": "uint256"
                }
              ],
              "internalType": "struct TestSwap.Account",
              "name": "account",
              "type": "tuple"
            },
            {
              "internalType": "uint256",
              "name": "blockNumber",
              "type": "uint256"
            },
            {
              "internalType": "uint256",
              "name": "blockTimestamp",
              "type": "uint256"
            }
          ],
          "internalType": "struct TestSwap.TradeResult[]",
          "name": "results",
          "type": "tuple[]"
        }
      ],
      "stateMutability": "payable",
      "type": "function"
    },
    {
      "inputs": [
        {
          "components": [
            {
              "internalType": "address",
              "name": "router",
              "type": "address"
            },
            {
              "internalType": "address",
              "name": "tokenIn",
              "type": "address"
            },
            {
              "internalType": "address",
              "name": "tokenOut",
              "type": "address"
            },
            {
              "internalType": "address",
              "name": "recipient",
              "type": "address"
            },
            {
              "internalType": "uint256",
              "name": "buy",
              "type": "uint256"
            },
            {
              "internalType": "uint256",
              "name": "sell",
              "type": "uint256"
            },
            {
              "internalType": "uint256",
              "name": "transfer",
              "type": "uint256"
            }
          ],
          "internalType": "struct TestSwap.TradeCall",
          "name": "call",
          "type": "tuple"
        }
      ],
      "name": "one",
      "outputs": [
        {
          "components": [
            {
              "internalType": "uint256",
              "name": "id",
              "type": "uint256"
            },
            {
              "internalType": "uint256",
              "name": "index",
              "type": "uint256"
            },
            {
              "components": [
                {
                  "internalType": "enum TestSwap.State",
                  "name": "state",
                  "type": "uint8"
                },
                {
                  "internalType": "uint256",
                  "name": "gas",
                  "type": "uint256"
                },
                {
                  "components": [
                    {
                      "internalType": "uint256",
                      "name": "formBeforeBalance",
                      "type": "uint256"
                    },
                    {
                      "internalType": "uint256",
                      "name": "formAfterBalance",
                      "type": "uint256"
                    },
                    {
                      "internalType": "uint256",
                      "name": "recipientBeforeBalance",
                      "type": "uint256"
                    },
                    {
                      "internalType": "uint256",
                      "name": "recipientAfterBalance",
                      "type": "uint256"
                    },
                    {
                      "internalType": "uint256",
                      "name": "transferAmount",
                      "type": "uint256"
                    },
                    {
                      "internalType": "uint256",
                      "name": "tradeAmount",
                      "type": "uint256"
                    },
                    {
                      "internalType": "uint256",
                      "name": "recipientAmount",
                      "type": "uint256"
                    },
                    {
                      "internalType": "uint256",
                      "name": "reserveAmount",
                      "type": "uint256"
                    },
                    {
                      "internalType": "uint256",
                      "name": "gas",
                      "type": "uint256"
                    },
                    {
                      "internalType": "int256",
                      "name": "fee",
                      "type": "int256"
                    },
                    {
                      "internalType": "bool",
                      "name": "isAddPair",
                      "type": "bool"
                    },
                    {
                      "internalType": "bool",
                      "name": "isSwap",
                      "type": "bool"
                    }
                  ],
                  "internalType": "struct TestSwap.TokenInfo",
                  "name": "tokenIn",
                  "type": "tuple"
                },
                {
                  "components": [
                    {
                      "internalType": "uint256",
                      "name": "formBeforeBalance",
                      "type": "uint256"
                    },
                    {
                      "internalType": "uint256",
                      "name": "formAfterBalance",
                      "type": "uint256"
                    },
                    {
                      "internalType": "uint256",
                      "name": "recipientBeforeBalance",
                      "type": "uint256"
                    },
                    {
                      "internalType": "uint256",
                      "name": "recipientAfterBalance",
                      "type": "uint256"
                    },
                    {
                      "internalType": "uint256",
                      "name": "transferAmount",
                      "type": "uint256"
                    },
                    {
                      "internalType": "uint256",
                      "name": "tradeAmount",
                      "type": "uint256"
                    },
                    {
                      "internalType": "uint256",
                      "name": "recipientAmount",
                      "type": "uint256"
                    },
                    {
                      "internalType": "uint256",
                      "name": "reserveAmount",
                      "type": "uint256"
                    },
                    {
                      "internalType": "uint256",
                      "name": "gas",
                      "type": "uint256"
                    },
                    {
                      "internalType": "int256",
                      "name": "fee",
                      "type": "int256"
                    },
                    {
                      "internalType": "bool",
                      "name": "isAddPair",
                      "type": "bool"
                    },
                    {
                      "internalType": "bool",
                      "name": "isSwap",
                      "type": "bool"
                    }
                  ],
                  "internalType": "struct TestSwap.TokenInfo",
                  "name": "tokenOut",
                  "type": "tuple"
                },
                {
                  "internalType": "string",
                  "name": "error",
                  "type": "string"
                }
              ],
              "internalType": "struct TestSwap.TradeInfo",
              "name": "buy",
              "type": "tuple"
            },
            {
              "components": [
                {
                  "internalType": "enum TestSwap.State",
                  "name": "state",
                  "type": "uint8"
                },
                {
                  "internalType": "uint256",
                  "name": "gas",
                  "type": "uint256"
                },
                {
                  "components": [
                    {
                      "internalType": "uint256",
                      "name": "formBeforeBalance",
                      "type": "uint256"
                    },
                    {
                      "internalType": "uint256",
                      "name": "formAfterBalance",
                      "type": "uint256"
                    },
                    {
                      "internalType": "uint256",
                      "name": "recipientBeforeBalance",
                      "type": "uint256"
                    },
                    {
                      "internalType": "uint256",
                      "name": "recipientAfterBalance",
                      "type": "uint256"
                    },
                    {
                      "internalType": "uint256",
                      "name": "transferAmount",
                      "type": "uint256"
                    },
                    {
                      "internalType": "uint256",
                      "name": "tradeAmount",
                      "type": "uint256"
                    },
                    {
                      "internalType": "uint256",
                      "name": "recipientAmount",
                      "type": "uint256"
                    },
                    {
                      "internalType": "uint256",
                      "name": "reserveAmount",
                      "type": "uint256"
                    },
                    {
                      "internalType": "uint256",
                      "name": "gas",
                      "type": "uint256"
                    },
                    {
                      "internalType": "int256",
                      "name": "fee",
                      "type": "int256"
                    },
                    {
                      "internalType": "bool",
                      "name": "isAddPair",
                      "type": "bool"
                    },
                    {
                      "internalType": "bool",
                      "name": "isSwap",
                      "type": "bool"
                    }
                  ],
                  "internalType": "struct TestSwap.TokenInfo",
                  "name": "tokenIn",
                  "type": "tuple"
                },
                {
                  "components": [
                    {
                      "internalType": "uint256",
                      "name": "formBeforeBalance",
                      "type": "uint256"
                    },
                    {
                      "internalType": "uint256",
                      "name": "formAfterBalance",
                      "type": "uint256"
                    },
                    {
                      "internalType": "uint256",
                      "name": "recipientBeforeBalance",
                      "type": "uint256"
                    },
                    {
                      "internalType": "uint256",
                      "name": "recipientAfterBalance",
                      "type": "uint256"
                    },
                    {
                      "internalType": "uint256",
                      "name": "transferAmount",
                      "type": "uint256"
                    },
                    {
                      "internalType": "uint256",
                      "name": "tradeAmount",
                      "type": "uint256"
                    },
                    {
                      "internalType": "uint256",
                      "name": "recipientAmount",
                      "type": "uint256"
                    },
                    {
                      "internalType": "uint256",
                      "name": "reserveAmount",
                      "type": "uint256"
                    },
                    {
                      "internalType": "uint256",
                      "name": "gas",
                      "type": "uint256"
                    },
                    {
                      "internalType": "int256",
                      "name": "fee",
                      "type": "int256"
                    },
                    {
                      "internalType": "bool",
                      "name": "isAddPair",
                      "type": "bool"
                    },
                    {
                      "internalType": "bool",
                      "name": "isSwap",
                      "type": "bool"
                    }
                  ],
                  "internalType": "struct TestSwap.TokenInfo",
                  "name": "tokenOut",
                  "type": "tuple"
                },
                {
                  "internalType": "string",
                  "name": "error",
                  "type": "string"
                }
              ],
              "internalType": "struct TestSwap.TradeInfo",
              "name": "sell",
              "type": "tuple"
            },
            {
              "components": [
                {
                  "internalType": "enum TestSwap.State",
                  "name": "state",
                  "type": "uint8"
                },
                {
                  "internalType": "uint256",
                  "name": "gas",
                  "type": "uint256"
                },
                {
                  "components": [
                    {
                      "internalType": "uint256",
                      "name": "formBeforeBalance",
                      "type": "uint256"
                    },
                    {
                      "internalType": "uint256",
                      "name": "formAfterBalance",
                      "type": "uint256"
                    },
                    {
                      "internalType": "uint256",
                      "name": "recipientBeforeBalance",
                      "type": "uint256"
                    },
                    {
                      "internalType": "uint256",
                      "name": "recipientAfterBalance",
                      "type": "uint256"
                    },
                    {
                      "internalType": "uint256",
                      "name": "transferAmount",
                      "type": "uint256"
                    },
                    {
                      "internalType": "uint256",
                      "name": "tradeAmount",
                      "type": "uint256"
                    },
                    {
                      "internalType": "uint256",
                      "name": "recipientAmount",
                      "type": "uint256"
                    },
                    {
                      "internalType": "uint256",
                      "name": "reserveAmount",
                      "type": "uint256"
                    },
                    {
                      "internalType": "uint256",
                      "name": "gas",
                      "type": "uint256"
                    },
                    {
                      "internalType": "int256",
                      "name": "fee",
                      "type": "int256"
                    },
                    {
                      "internalType": "bool",
                      "name": "isAddPair",
                      "type": "bool"
                    },
                    {
                      "internalType": "bool",
                      "name": "isSwap",
                      "type": "bool"
                    }
                  ],
                  "internalType": "struct TestSwap.TokenInfo",
                  "name": "tokenIn",
                  "type": "tuple"
                },
                {
                  "components": [
                    {
                      "internalType": "uint256",
                      "name": "formBeforeBalance",
                      "type": "uint256"
                    },
                    {
                      "internalType": "uint256",
                      "name": "formAfterBalance",
                      "type": "uint256"
                    },
                    {
                      "internalType": "uint256",
                      "name": "recipientBeforeBalance",
                      "type": "uint256"
                    },
                    {
                      "internalType": "uint256",
                      "name": "recipientAfterBalance",
                      "type": "uint256"
                    },
                    {
                      "internalType": "uint256",
                      "name": "transferAmount",
                      "type": "uint256"
                    },
                    {
                      "internalType": "uint256",
                      "name": "tradeAmount",
                      "type": "uint256"
                    },
                    {
                      "internalType": "uint256",
                      "name": "recipientAmount",
                      "type": "uint256"
                    },
                    {
                      "internalType": "uint256",
                      "name": "reserveAmount",
                      "type": "uint256"
                    },
                    {
                      "internalType": "uint256",
                      "name": "gas",
                      "type": "uint256"
                    },
                    {
                      "internalType": "int256",
                      "name": "fee",
                      "type": "int256"
                    },
                    {
                      "internalType": "bool",
                      "name": "isAddPair",
                      "type": "bool"
                    },
                    {
                      "internalType": "bool",
                      "name": "isSwap",
                      "type": "bool"
                    }
                  ],
                  "internalType": "struct TestSwap.TokenInfo",
                  "name": "tokenOut",
                  "type": "tuple"
                },
                {
                  "internalType": "string",
                  "name": "error",
                  "type": "string"
                }
              ],
              "internalType": "struct TestSwap.TradeInfo",
              "name": "transfer",
              "type": "tuple"
            },
            {
              "components": [
                {
                  "internalType": "address",
                  "name": "account",
                  "type": "address"
                },
                {
                  "internalType": "uint256",
                  "name": "balanceIn",
                  "type": "uint256"
                },
                {
                  "internalType": "uint256",
                  "name": "balanceOut",
                  "type": "uint256"
                }
              ],
              "internalType": "struct TestSwap.Account",
              "name": "account",
              "type": "tuple"
            },
            {
              "internalType": "uint256",
              "name": "blockNumber",
              "type": "uint256"
            },
            {
              "internalType": "uint256",
              "name": "blockTimestamp",
              "type": "uint256"
            }
          ],
          "internalType": "struct TestSwap.TradeResult",
          "name": "result",
          "type": "tuple"
        }
      ],
      "stateMutability": "payable",
      "type": "function"
    },
    {
      "inputs": [
        {
          "internalType": "address",
          "name": "router",
          "type": "address"
        },
        {
          "internalType": "address",
          "name": "tokenIn",
          "type": "address"
        },
        {
          "internalType": "address",
          "name": "tokenOut",
          "type": "address"
        },
        {
          "internalType": "address",
          "name": "from",
          "type": "address"
        },
        {
          "internalType": "address",
          "name": "recipient",
          "type": "address"
        },
        {
          "internalType": "uint256",
          "name": "amountIn",
          "type": "uint256"
        },
        {
          "internalType": "uint256",
          "name": "amountOut",
          "type": "uint256"
        }
      ],
      "name": "swapV2",
      "outputs": [
        {
          "components": [
            {
              "internalType": "enum TestSwap.State",
              "name": "state",
              "type": "uint8"
            },
            {
              "internalType": "uint256",
              "name": "gas",
              "type": "uint256"
            },
            {
              "components": [
                {
                  "internalType": "uint256",
                  "name": "formBeforeBalance",
                  "type": "uint256"
                },
                {
                  "internalType": "uint256",
                  "name": "formAfterBalance",
                  "type": "uint256"
                },
                {
                  "internalType": "uint256",
                  "name": "recipientBeforeBalance",
                  "type": "uint256"
                },
                {
                  "internalType": "uint256",
                  "name": "recipientAfterBalance",
                  "type": "uint256"
                },
                {
                  "internalType": "uint256",
                  "name": "transferAmount",
                  "type": "uint256"
                },
                {
                  "internalType": "uint256",
                  "name": "tradeAmount",
                  "type": "uint256"
                },
                {
                  "internalType": "uint256",
                  "name": "recipientAmount",
                  "type": "uint256"
                },
                {
                  "internalType": "uint256",
                  "name": "reserveAmount",
                  "type": "uint256"
                },
                {
                  "internalType": "uint256",
                  "name": "gas",
                  "type": "uint256"
                },
                {
                  "internalType": "int256",
                  "name": "fee",
                  "type": "int256"
                },
                {
                  "internalType": "bool",
                  "name": "isAddPair",
                  "type": "bool"
                },
                {
                  "internalType": "bool",
                  "name": "isSwap",
                  "type": "bool"
                }
              ],
              "internalType": "struct TestSwap.TokenInfo",
              "name": "tokenIn",
              "type": "tuple"
            },
            {
              "components": [
                {
                  "internalType": "uint256",
                  "name": "formBeforeBalance",
                  "type": "uint256"
                },
                {
                  "internalType": "uint256",
                  "name": "formAfterBalance",
                  "type": "uint256"
                },
                {
                  "internalType": "uint256",
                  "name": "recipientBeforeBalance",
                  "type": "uint256"
                },
                {
                  "internalType": "uint256",
                  "name": "recipientAfterBalance",
                  "type": "uint256"
                },
                {
                  "internalType": "uint256",
                  "name": "transferAmount",
                  "type": "uint256"
                },
                {
                  "internalType": "uint256",
                  "name": "tradeAmount",
                  "type": "uint256"
                },
                {
                  "internalType": "uint256",
                  "name": "recipientAmount",
                  "type": "uint256"
                },
                {
                  "internalType": "uint256",
                  "name": "reserveAmount",
                  "type": "uint256"
                },
                {
                  "internalType": "uint256",
                  "name": "gas",
                  "type": "uint256"
                },
                {
                  "internalType": "int256",
                  "name": "fee",
                  "type": "int256"
                },
                {
                  "internalType": "bool",
                  "name": "isAddPair",
                  "type": "bool"
                },
                {
                  "internalType": "bool",
                  "name": "isSwap",
                  "type": "bool"
                }
              ],
              "internalType": "struct TestSwap.TokenInfo",
              "name": "tokenOut",
              "type": "tuple"
            },
            {
              "internalType": "string",
              "name": "error",
              "type": "string"
            }
          ],
          "internalType": "struct TestSwap.TradeInfo",
          "name": "info",
          "type": "tuple"
        }
      ],
      "stateMutability": "nonpayable",
      "type": "function"
    },
    {
      "inputs": [
        {
          "internalType": "address",
          "name": "token",
          "type": "address"
        },
        {
          "internalType": "address",
          "name": "from",
          "type": "address"
        },
        {
          "internalType": "address",
          "name": "to",
          "type": "address"
        },
        {
          "internalType": "uint256",
          "name": "value",
          "type": "uint256"
        }
      ],
      "name": "transfer",
      "outputs": [
        {
          "components": [
            {
              "internalType": "enum TestSwap.State",
              "name": "state",
              "type": "uint8"
            },
            {
              "internalType": "uint256",
              "name": "gas",
              "type": "uint256"
            },
            {
              "components": [
                {
                  "internalType": "uint256",
                  "name": "formBeforeBalance",
                  "type": "uint256"
                },
                {
                  "internalType": "uint256",
                  "name": "formAfterBalance",
                  "type": "uint256"
                },
                {
                  "internalType": "uint256",
                  "name": "recipientBeforeBalance",
                  "type": "uint256"
                },
                {
                  "internalType": "uint256",
                  "name": "recipientAfterBalance",
                  "type": "uint256"
                },
                {
                  "internalType": "uint256",
                  "name": "transferAmount",
                  "type": "uint256"
                },
                {
                  "internalType": "uint256",
                  "name": "tradeAmount",
                  "type": "uint256"
                },
                {
                  "internalType": "uint256",
                  "name": "recipientAmount",
                  "type": "uint256"
                },
                {
                  "internalType": "uint256",
                  "name": "reserveAmount",
                  "type": "uint256"
                },
                {
                  "internalType": "uint256",
                  "name": "gas",
                  "type": "uint256"
                },
                {
                  "internalType": "int256",
                  "name": "fee",
                  "type": "int256"
                },
                {
                  "internalType": "bool",
                  "name": "isAddPair",
                  "type": "bool"
                },
                {
                  "internalType": "bool",
                  "name": "isSwap",
                  "type": "bool"
                }
              ],
              "internalType": "struct TestSwap.TokenInfo",
              "name": "tokenIn",
              "type": "tuple"
            },
            {
              "components": [
                {
                  "internalType": "uint256",
                  "name": "formBeforeBalance",
                  "type": "uint256"
                },
                {
                  "internalType": "uint256",
                  "name": "formAfterBalance",
                  "type": "uint256"
                },
                {
                  "internalType": "uint256",
                  "name": "recipientBeforeBalance",
                  "type": "uint256"
                },
                {
                  "internalType": "uint256",
                  "name": "recipientAfterBalance",
                  "type": "uint256"
                },
                {
                  "internalType": "uint256",
                  "name": "transferAmount",
                  "type": "uint256"
                },
                {
                  "internalType": "uint256",
                  "name": "tradeAmount",
                  "type": "uint256"
                },
                {
                  "internalType": "uint256",
                  "name": "recipientAmount",
                  "type": "uint256"
                },
                {
                  "internalType": "uint256",
                  "name": "reserveAmount",
                  "type": "uint256"
                },
                {
                  "internalType": "uint256",
                  "name": "gas",
                  "type": "uint256"
                },
                {
                  "internalType": "int256",
                  "name": "fee",
                  "type": "int256"
                },
                {
                  "internalType": "bool",
                  "name": "isAddPair",
                  "type": "bool"
                },
                {
                  "internalType": "bool",
                  "name": "isSwap",
                  "type": "bool"
                }
              ],
              "internalType": "struct TestSwap.TokenInfo",
              "name": "tokenOut",
              "type": "tuple"
            },
            {
              "internalType": "string",
              "name": "error",
              "type": "string"
            }
          ],
          "internalType": "struct TestSwap.TradeInfo",
          "name": "info",
          "type": "tuple"
        }
      ],
      "stateMutability": "nonpayable",
      "type": "function"
    },
    {
      "stateMutability": "payable",
      "type": "receive"
    }
  ]
}