{
  "data": {
    "bytecode": {
      "linkReferences": {},
      "object": "60806040526000805530600360006101000a81548173ffffffffffffffffffffffffffffffffffffffff021916908373ffffffffffffffffffffffffffffffffffffffff160217905550614e1e806100586000396000f3fe608060405260043610620000495760003560e01c806359ec60061462000056578063bd698545146200008c578063e6952ddd14620000d0578063f18d03cc14620001065762000051565b366200005157005b600080fd5b6200007460048036038101906200006e9190620034a1565b6200014a565b6040516200008391906200405e565b60405180910390f35b3480156200009957600080fd5b50620000b86004803603810190620000b291906200337c565b620002b1565b604051620000c7919062004127565b60405180910390f35b620000ee6004803603810190620000e8919062003579565b62000a9d565b604051620000fd91906200414b565b60405180910390f35b3480156200011357600080fd5b506200013260048036038101906200012c91906200342f565b62001b3f565b60405162000141919062004127565b60405180910390f35b60608282905067ffffffffffffffff8111156200016c576200016b620047bf565b5b604051908082528060200260200182016040528015620001a957816020015b6200019562002baf565b8152602001906001900390816200018b5790505b50905060005b83839050811015620002aa573073ffffffffffffffffffffffffffffffffffffffff1663e6952ddd858584818110620001ed57620001ec62004790565b5b905060e002016040518263ffffffff1660e01b81526004016200021191906200410a565b600060405180830381600087803b1580156200022c57600080fd5b505af19250505080156200026557506040513d6000823e3d601f19601f82011682018060405250810190620002629190620035fc565b60015b620002705762000294565b8083838151811062000287576200028662004790565b5b6020026020010181905250505b8080620002a190620046b5565b915050620001af565b5092915050565b620002bb62002c14565b600181600001906002811115620002d757620002d662004761565b5b90816002811115620002ee57620002ed62004761565b5b815250505a81602001818152505060008873ffffffffffffffffffffffffffffffffffffffff1663c45a01556040518163ffffffff1660e01b815260040160206040518083038186803b1580156200034557600080fd5b505afa1580156200035a573d6000803e3d6000fd5b505050506040513d601f19601f820116820180604052508101906200038091906200334a565b73ffffffffffffffffffffffffffffffffffffffff1663e6a4390589896040518363ffffffff1660e01b8152600401620003bc92919062003e80565b60206040518083038186803b158015620003d557600080fd5b505afa158015620003ea573d6000803e3d6000fd5b505050506040513d601f19601f820116820180604052508101906200041091906200334a565b9050600073ffffffffffffffffffffffffffffffffffffffff168173ffffffffffffffffffffffffffffffffffffffff16141562000485576040517f08c379a00000000000000000000000000000000000000000000000000000000081526004016200047c90620040a4565b60405180910390fd5b600081905060008990506000600267ffffffffffffffff811115620004af57620004ae620047bf565b5b604051908082528060200260200182016040528015620004de5781602001602082028036833780820191505090505b5090508a81600081518110620004f957620004f862004790565b5b602002602001019073ffffffffffffffffffffffffffffffffffffffff16908173ffffffffffffffffffffffffffffffffffffffff168152505089816001815181106200054b576200054a62004790565b5b602002602001019073ffffffffffffffffffffffffffffffffffffffff16908173ffffffffffffffffffffffffffffffffffffffff168152505060008714801562000597575060008614155b1562000654578b73ffffffffffffffffffffffffffffffffffffffff16631f00ca7487836040518363ffffffff1660e01b8152600401620005da9291906200416f565b60006040518083038186803b158015620005f357600080fd5b505afa15801562000608573d6000803e3d6000fd5b505050506040513d6000823e3d601f19601f82011682018060405250810190620006339190620034f6565b60008151811062000649576200064862004790565b5b602002602001015196505b600087116200069a576040517f08c379a0000000000000000000000000000000000000000000000000000000008152600401620006919062004082565b60405180910390fd5b61271061270f8373ffffffffffffffffffffffffffffffffffffffff166370a08231876040518263ffffffff1660e01b8152600401620006db919062003e63565b60206040518083038186803b158015620006f457600080fd5b505afa15801562000709573d6000803e3d6000fd5b505050506040513d601f19601f820116820180604052508101906200072f9190620036a9565b6200073b919062004454565b6200074791906200441c565b871115620007ff5761271061270f8373ffffffffffffffffffffffffffffffffffffffff166370a08231876040518263ffffffff1660e01b815260040162000790919062003e63565b60206040518083038186803b158015620007a957600080fd5b505afa158015620007be573d6000803e3d6000fd5b505050506040513d601f19601f82011682018060405250810190620007e49190620036a9565b620007f0919062004454565b620007fc91906200441c565b96505b6200080f8b8a868a600162001bcc565b85604001819052506000808c73ffffffffffffffffffffffffffffffffffffffff168573ffffffffffffffffffffffffffffffffffffffff16630dfe16816040518163ffffffff1660e01b815260040160206040518083038186803b1580156200087857600080fd5b505afa1580156200088d573d6000803e3d6000fd5b505050506040513d601f19601f82011682018060405250810190620008b391906200334a565b73ffffffffffffffffffffffffffffffffffffffff16141562000998578d73ffffffffffffffffffffffffffffffffffffffff1663d06ca61f886040015160c00151856040518363ffffffff1660e01b8152600401620009159291906200416f565b60006040518083038186803b1580156200092e57600080fd5b505afa15801562000943573d6000803e3d6000fd5b505050506040513d6000823e3d601f19601f820116820180604052508101906200096e9190620034f6565b60018151811062000984576200098362004790565b5b602002602001015191506000905062000a5b565b8d73ffffffffffffffffffffffffffffffffffffffff1663d06ca61f886040015160c00151856040518363ffffffff1660e01b8152600401620009dd9291906200416f565b60006040518083038186803b158015620009f657600080fd5b505afa15801562000a0b573d6000803e3d6000fd5b505050506040513d6000823e3d601f19601f8201168201806040525081019062000a369190620034f6565b60018151811062000a4c5762000a4b62004790565b5b60200260200101519050600091505b62000a698682848d6200253d565b87606001819052505a8760200181815162000a85919062004553565b91508181525050505050505050979650505050505050565b62000aa762002baf565b600160008082825462000abb9190620043bf565b92505081905550600180600080548152602001908152602001600020600082825462000ae89190620043bf565b92505081905550600054816000018181525050600160008054815260200190815260200160002054816020018181525050438160c0018181525050428160e00181815250506000600173ffffffffffffffffffffffffffffffffffffffff1683606001602081019062000b5c919062003318565b73ffffffffffffffffffffffffffffffffffffffff161462000b935782606001602081019062000b8d919062003318565b62000bc8565b62000bc783602001602081019062000bac919062003318565b84604001602081019062000bc1919062003318565b62002a08565b5b90506000329050600084600001602081019062000be6919062003318565b73ffffffffffffffffffffffffffffffffffffffff1663ad5c46486040518163ffffffff1660e01b815260040160206040518083038186803b15801562000c2c57600080fd5b505afa15801562000c41573d6000803e3d6000fd5b505050506040513d601f19601f8201168201806040525081019062000c6791906200334a565b9050600085602001602081019062000c80919062003318565b9050600086604001602081019062000c99919062003318565b9050600047111562000d42578273ffffffffffffffffffffffffffffffffffffffff1663d0e30db0600360009054906101000a900473ffffffffffffffffffffffffffffffffffffffff1673ffffffffffffffffffffffffffffffffffffffff16316040518263ffffffff1660e01b81526004016000604051808303818588803b15801562000d2757600080fd5b505af115801562000d3c573d6000803e3d6000fd5b50505050505b8273ffffffffffffffffffffffffffffffffffffffff1687602001602081019062000d6e919062003318565b73ffffffffffffffffffffffffffffffffffffffff161415801562000e43575060008373ffffffffffffffffffffffffffffffffffffffff166370a08231600360009054906101000a900473ffffffffffffffffffffffffffffffffffffffff166040518263ffffffff1660e01b815260040162000ded919062003e63565b60206040518083038186803b15801562000e0657600080fd5b505afa15801562000e1b573d6000803e3d6000fd5b505050506040513d601f19601f8201168201806040525081019062000e419190620036a9565b115b1562000fcb573073ffffffffffffffffffffffffffffffffffffffff1663bd69854588600001602081019062000e7a919062003318565b858a602001602081019062000e90919062003318565b30308973ffffffffffffffffffffffffffffffffffffffff166370a08231600360009054906101000a900473ffffffffffffffffffffffffffffffffffffffff166040518263ffffffff1660e01b815260040162000eef919062003e63565b60206040518083038186803b15801562000f0857600080fd5b505afa15801562000f1d573d6000803e3d6000fd5b505050506040513d601f19601f8201168201806040525081019062000f439190620036a9565b60006040518863ffffffff1660e01b815260040162000f69979695949392919062003f2a565b600060405180830381600087803b15801562000f8457600080fd5b505af192505050801562000fbd57506040513d6000823e3d601f19601f8201168201806040525081019062000fba9190620035ab565b60015b62000fc85762000fca565b505b5b3073ffffffffffffffffffffffffffffffffffffffff168473ffffffffffffffffffffffffffffffffffffffff16146200116c5786602001602081019062001014919062003318565b73ffffffffffffffffffffffffffffffffffffffff1663a9059cbb8589602001602081019062001045919062003318565b73ffffffffffffffffffffffffffffffffffffffff166370a08231600360009054906101000a900473ffffffffffffffffffffffffffffffffffffffff166040518263ffffffff1660e01b8152600401620010a1919062003e63565b60206040518083038186803b158015620010ba57600080fd5b505afa158015620010cf573d6000803e3d6000fd5b505050506040513d601f19601f82011682018060405250810190620010f59190620036a9565b6040518363ffffffff1660e01b81526004016200111492919062004031565b602060405180830381600087803b1580156200112f57600080fd5b505af115801562001144573d6000803e3d6000fd5b505050506040513d601f19601f820116820180604052508101906200116a919062003547565b505b600080886080013511156200152a57600088600001602081019062001192919062003318565b73ffffffffffffffffffffffffffffffffffffffff1663c45a01556040518163ffffffff1660e01b815260040160206040518083038186803b158015620011d857600080fd5b505afa158015620011ed573d6000803e3d6000fd5b505050506040513d601f19601f820116820180604052508101906200121391906200334a565b73ffffffffffffffffffffffffffffffffffffffff1663e6a439058a602001602081019062001243919062003318565b8b604001602081019062001258919062003318565b6040518363ffffffff1660e01b81526004016200127792919062003e80565b60206040518083038186803b1580156200129057600080fd5b505afa158015620012a5573d6000803e3d6000fd5b505050506040513d601f19601f82011682018060405250810190620012cb91906200334a565b905061271089608001358473ffffffffffffffffffffffffffffffffffffffff166370a08231846040518263ffffffff1660e01b815260040162001310919062003e63565b60206040518083038186803b1580156200132957600080fd5b505afa1580156200133e573d6000803e3d6000fd5b505050506040513d601f19601f82011682018060405250810190620013649190620036a9565b62001370919062004454565b6200137c91906200441c565b91503073ffffffffffffffffffffffffffffffffffffffff1663bd6985458a6000016020810190620013af919062003318565b8b6020016020810190620013c4919062003318565b8c6040016020810190620013d9919062003318565b8a8c6000896040518863ffffffff1660e01b815260040162001402979695949392919062003ead565b600060405180830381600087803b1580156200141d57600080fd5b505af19250505080156200145657506040513d6000823e3d601f19601f82011682018060405250810190620014539190620035ab565b60015b6200151d5762001465620047ee565b806308c379a01415620014d957506200147d62004902565b806200148a5750620014db565b60028960400151600001906002811115620014aa57620014a962004761565b5b90816002811115620014c157620014c062004761565b5b81525050808960400151608001819052505062001517565b505b60028860400151600001906002811115620014fb57620014fa62004761565b5b9081600281111562001512576200151162004761565b5b815250505b62001528565b808960400181905250505b505b8173ffffffffffffffffffffffffffffffffffffffff166370a08231876040518263ffffffff1660e01b815260040162001565919062003e63565b60206040518083038186803b1580156200157e57600080fd5b505afa15801562001593573d6000803e3d6000fd5b505050506040513d601f19601f82011682018060405250810190620015b99190620036a9565b9050600280811115620015d157620015d062004761565b5b8760400151600001516002811115620015ef57620015ee62004761565b5b1415801562001602575060008860a00135115b80156200160f5750600081115b15620017e0573073ffffffffffffffffffffffffffffffffffffffff1663bd69854589600001602081019062001646919062003318565b8a60400160208101906200165b919062003318565b8b602001602081019062001670919062003318565b8a8b6127108f60a001358962001687919062004454565b6200169391906200441c565b60006040518863ffffffff1660e01b8152600401620016b9979695949392919062003f2a565b600060405180830381600087803b158015620016d457600080fd5b505af19250505080156200170d57506040513d6000823e3d601f19601f820116820180604052508101906200170a9190620035ab565b60015b620017d4576200171c620047ee565b806308c379a014156200179057506200173462004902565b8062001741575062001792565b6002886060015160000190600281111562001761576200176062004761565b5b9081600281111562001778576200177762004761565b5b815250508088606001516080018190525050620017ce565b505b60028760400151600001906002811115620017b257620017b162004761565b5b90816002811115620017c957620017c862004761565b5b815250505b620017df565b808860600181905250505b5b600280811115620017f657620017f562004761565b5b876040015160000151600281111562001814576200181362004761565b5b1415801562001827575060008860c00135115b8015620018345750600081115b15620019df573073ffffffffffffffffffffffffffffffffffffffff1663f18d03cc8960400160208101906200186b919062003318565b886200187662002b17565b6127108d60c00135876200188b919062004454565b6200189791906200441c565b6040518563ffffffff1660e01b8152600401620018b8949392919062003fa7565b600060405180830381600087803b158015620018d357600080fd5b505af19250505080156200190c57506040513d6000823e3d601f19601f82011682018060405250810190620019099190620035ab565b60015b620019d3576200191b620047ee565b806308c379a014156200198f57506200193362004902565b8062001940575062001991565b6002886080015160000190600281111562001960576200195f62004761565b5b9081600281111562001977576200197662004761565b5b815250508088608001516080018190525050620019cd565b505b60028760400151600001906002811115620019b157620019b062004761565b5b90816002811115620019c857620019c762004761565b5b815250505b620019de565b808860800181905250505b5b60405180606001604052808773ffffffffffffffffffffffffffffffffffffffff1681526020018473ffffffffffffffffffffffffffffffffffffffff166370a08231896040518263ffffffff1660e01b815260040162001a41919062003e63565b60206040518083038186803b15801562001a5a57600080fd5b505afa15801562001a6f573d6000803e3d6000fd5b505050506040513d601f19601f8201168201806040525081019062001a959190620036a9565b81526020018373ffffffffffffffffffffffffffffffffffffffff166370a08231896040518263ffffffff1660e01b815260040162001ad5919062003e63565b60206040518083038186803b15801562001aee57600080fd5b505afa15801562001b03573d6000803e3d6000fd5b505050506040513d601f19601f8201168201806040525081019062001b299190620036a9565b8152508760a00181905250505050505050919050565b62001b4962002c14565b60018160000190600281111562001b655762001b6462004761565b5b9081600281111562001b7c5762001b7b62004761565b5b815250505a81602001818152505062001b9a85858585600062001bcc565b8160600181905281604001819052505a8160200181815162001bbd919062004553565b91508181525050949350505050565b62001bd662002c68565b60008690506000859050848360800181815250508173ffffffffffffffffffffffffffffffffffffffff166370a08231886040518263ffffffff1660e01b815260040162001c25919062003e63565b60206040518083038186803b15801562001c3e57600080fd5b505afa15801562001c53573d6000803e3d6000fd5b505050506040513d601f19601f8201168201806040525081019062001c799190620036a9565b8360000181815250508173ffffffffffffffffffffffffffffffffffffffff166370a08231876040518263ffffffff1660e01b815260040162001cbd919062003e63565b60206040518083038186803b15801562001cd657600080fd5b505afa15801562001ceb573d6000803e3d6000fd5b505050506040513d601f19601f8201168201806040525081019062001d119190620036a9565b8360400181815250506000806000861562001e5c578373ffffffffffffffffffffffffffffffffffffffff16630902f1ac6040518163ffffffff1660e01b815260040160606040518083038186803b15801562001d6d57600080fd5b505afa15801562001d82573d6000803e3d6000fd5b505050506040513d601f19601f8201168201806040525081019062001da891906200364d565b826dffffffffffffffffffffffffffff169250816dffffffffffffffffffffffffffff1691505080935081945050508373ffffffffffffffffffffffffffffffffffffffff166318160ddd6040518163ffffffff1660e01b815260040160206040518083038186803b15801562001e1e57600080fd5b505afa15801562001e33573d6000803e3d6000fd5b505050506040513d601f19601f8201168201806040525081019062001e599190620036a9565b90505b600360009054906101000a900473ffffffffffffffffffffffffffffffffffffffff1673ffffffffffffffffffffffffffffffffffffffff168a73ffffffffffffffffffffffffffffffffffffffff161415801562001f6d5750878573ffffffffffffffffffffffffffffffffffffffff1663dd62ed3e8c600360009054906101000a900473ffffffffffffffffffffffffffffffffffffffff166040518363ffffffff1660e01b815260040162001f1692919062003e80565b60206040518083038186803b15801562001f2f57600080fd5b505afa15801562001f44573d6000803e3d6000fd5b505050506040513d601f19601f8201168201806040525081019062001f6a9190620036a9565b10155b801562001f7e575087866000015110155b1562002061578473ffffffffffffffffffffffffffffffffffffffff166323b872dd8b8b8b6040518463ffffffff1660e01b815260040162001fc39392919062003ff4565b602060405180830381600087803b15801562001fde57600080fd5b505af115801562001ff3573d6000803e3d6000fd5b505050506040513d601f19601f8201168201806040525081019062002019919062003547565b6200205b576040517f08c379a00000000000000000000000000000000000000000000000000000000081526004016200205290620040c6565b60405180910390fd5b62002137565b8473ffffffffffffffffffffffffffffffffffffffff1663a9059cbb8a8a6040518363ffffffff1660e01b81526004016200209e92919062004031565b602060405180830381600087803b158015620020b957600080fd5b505af1158015620020ce573d6000803e3d6000fd5b505050506040513d601f19601f82011682018060405250810190620020f4919062003547565b62002136576040517f08c379a00000000000000000000000000000000000000000000000000000000081526004016200212d90620040e8565b60405180910390fd5b5b8473ffffffffffffffffffffffffffffffffffffffff166370a082318b6040518263ffffffff1660e01b815260040162002172919062003e63565b60206040518083038186803b1580156200218b57600080fd5b505afa158015620021a0573d6000803e3d6000fd5b505050506040513d601f19601f82011682018060405250810190620021c69190620036a9565b8660200181815250508473ffffffffffffffffffffffffffffffffffffffff166370a082318a6040518263ffffffff1660e01b81526004016200220a919062003e63565b60206040518083038186803b1580156200222357600080fd5b505afa15801562002238573d6000803e3d6000fd5b505050506040513d601f19601f820116820180604052508101906200225e9190620036a9565b8660600181815250508615620024cd576000808573ffffffffffffffffffffffffffffffffffffffff16630902f1ac6040518163ffffffff1660e01b815260040160606040518083038186803b158015620022b857600080fd5b505afa158015620022cd573d6000803e3d6000fd5b505050506040513d601f19601f82011682018060405250810190620022f391906200364d565b506dffffffffffffffffffffffffffff1691506dffffffffffffffffffffffffffff1691508c73ffffffffffffffffffffffffffffffffffffffff168673ffffffffffffffffffffffffffffffffffffffff16630dfe16816040518163ffffffff1660e01b815260040160206040518083038186803b1580156200237657600080fd5b505afa1580156200238b573d6000803e3d6000fd5b505050506040513d601f19601f82011682018060405250810190620023b191906200334a565b73ffffffffffffffffffffffffffffffffffffffff1614156200240257818860600151620023e0919062004553565b8860c00181815250508381108861012001901515908115158152505062002431565b80886060015162002414919062004553565b8860c0018181525050848210886101200190151590811515815250505b828673ffffffffffffffffffffffffffffffffffffffff166318160ddd6040518163ffffffff1660e01b815260040160206040518083038186803b1580156200247957600080fd5b505afa1580156200248e573d6000803e3d6000fd5b505050506040513d601f19601f82011682018060405250810190620024b49190620036a9565b11886101000190151590811515815250505050620024ed565b85604001518660600151620024e3919062004553565b8660c00181815250505b85602001518660000151038660a00181815250508560a0015188038660e0018181525050620025258660c001518760a0015162002b65565b86610140018181525050505050505095945050505050565b6200254762002c68565b60008590506000808614620025de578173ffffffffffffffffffffffffffffffffffffffff16630dfe16816040518163ffffffff1660e01b815260040160206040518083038186803b1580156200259d57600080fd5b505afa158015620025b2573d6000803e3d6000fd5b505050506040513d601f19601f82011682018060405250810190620025d891906200334a565b62002661565b8173ffffffffffffffffffffffffffffffffffffffff1663d21220a76040518163ffffffff1660e01b815260040160206040518083038186803b1580156200262557600080fd5b505afa1580156200263a573d6000803e3d6000fd5b505050506040513d601f19601f820116820180604052508101906200266091906200334a565b5b90506000861462002673578562002675565b845b8360800181815250508073ffffffffffffffffffffffffffffffffffffffff166370a08231886040518263ffffffff1660e01b8152600401620026b9919062003e63565b60206040518083038186803b158015620026d257600080fd5b505afa158015620026e7573d6000803e3d6000fd5b505050506040513d601f19601f820116820180604052508101906200270d9190620036a9565b8360000181815250508073ffffffffffffffffffffffffffffffffffffffff166370a08231856040518263ffffffff1660e01b815260040162002751919062003e63565b60206040518083038186803b1580156200276a57600080fd5b505afa1580156200277f573d6000803e3d6000fd5b505050506040513d601f19601f82011682018060405250810190620027a59190620036a9565b8360400181815250508173ffffffffffffffffffffffffffffffffffffffff1663022c0d9f878787600067ffffffffffffffff811115620027eb57620027ea620047bf565b5b6040519080825280601f01601f1916602001820160405280156200281e5781602001600182028036833780820191505090505b506040518563ffffffff1660e01b8152600401620028409493929190620041a3565b600060405180830381600087803b1580156200285b57600080fd5b505af115801562002870573d6000803e3d6000fd5b505050508073ffffffffffffffffffffffffffffffffffffffff166370a08231886040518263ffffffff1660e01b8152600401620028af919062003e63565b60206040518083038186803b158015620028c857600080fd5b505afa158015620028dd573d6000803e3d6000fd5b505050506040513d601f19601f82011682018060405250810190620029039190620036a9565b8360200181815250508073ffffffffffffffffffffffffffffffffffffffff166370a08231856040518263ffffffff1660e01b815260040162002947919062003e63565b60206040518083038186803b1580156200296057600080fd5b505afa15801562002975573d6000803e3d6000fd5b505050506040513d601f19601f820116820180604052508101906200299b9190620036a9565b83606001818152505082604001518360600151038360c001818152505082602001518360000151038360a00181815250508260a001518360800151038360e0018181525050620029f48360c001518460a0015162002b65565b836101400181815250505050949350505050565b600080838360405162002a1b9062002cc6565b62002a2892919062003e80565b604051809103906000f08015801562002a45573d6000803e3d6000fd5b5090508073ffffffffffffffffffffffffffffffffffffffff166341c0e1b56040518163ffffffff1660e01b8152600401600060405180830381600087803b15801562002a9157600080fd5b505af115801562002aa6573d6000803e3d6000fd5b505050506002819080600181540180825580915050600190039060005260206000200160009091909190916101000a81548173ffffffffffffffffffffffffffffffffffffffff021916908373ffffffffffffffffffffffffffffffffffffffff1602179055508091505092915050565b60008054600160008054815260200190815260200160002054434260405160200162002b479493929190620041f7565b6040516020818303038152906040528051906020012060001c905090565b60008082141562002b7a576000905062002ba9565b816127108462002b8b919062004454565b62002b9791906200441c565b61271062002ba69190620044b5565b90505b92915050565b604051806101000160405280600081526020016000815260200162002bd362002c14565b815260200162002be262002c14565b815260200162002bf162002c14565b815260200162002c0062002cd4565b815260200160008152602001600081525090565b6040518060a001604052806000600281111562002c365762002c3562004761565b5b81526020016000815260200162002c4c62002c68565b815260200162002c5b62002c68565b8152602001606081525090565b6040518061016001604052806000815260200160008152602001600081526020016000815260200160008152602001600081526020016000815260200160008152602001600015158152602001600015158152602001600081525090565b6103808062004a6983390190565b6040518060600160405280600073ffffffffffffffffffffffffffffffffffffffff16815260200160008152602001600081525090565b600062002d2262002d1c846200426d565b62004244565b9050808382526020820190508285602086028201111562002d485762002d476200482c565b5b60005b8581101562002d7c578162002d618882620032ea565b84526020840193506020830192505060018101905062002d4b565b5050509392505050565b600062002d9d62002d97846200429c565b62004244565b90508281526020810184848401111562002dbc5762002dbb62004831565b5b62002dc984828562004649565b509392505050565b60008135905062002de281620049bb565b92915050565b60008151905062002df981620049bb565b92915050565b60008083601f84011262002e185762002e1762004818565b5b8235905067ffffffffffffffff81111562002e385762002e3762004813565b5b6020830191508360e082028301111562002e575762002e566200482c565b5b9250929050565b600082601f83011262002e765762002e7562004818565b5b815162002e8884826020860162002d0b565b91505092915050565b60008151905062002ea281620049d5565b92915050565b60008151905062002eb981620049ef565b92915050565b60008151905062002ed08162004a00565b92915050565b600082601f83011262002eee5762002eed62004818565b5b815162002f0084826020860162002d86565b91505092915050565b60006060828403121562002f225762002f2162004822565b5b62002f2e606062004244565b9050600062002f408482850162002de8565b600083015250602062002f5684828501620032ea565b602083015250604062002f6c84828501620032ea565b60408301525092915050565b6000610160828403121562002f925762002f9162004822565b5b62002f9f61016062004244565b9050600062002fb184828501620032ea565b600083015250602062002fc784828501620032ea565b602083015250604062002fdd84828501620032ea565b604083015250606062002ff384828501620032ea565b60608301525060806200300984828501620032ea565b60808301525060a06200301f84828501620032ea565b60a08301525060c06200303584828501620032ea565b60c08301525060e06200304b84828501620032ea565b60e083015250610100620030628482850162002e91565b610100830152506101206200307a8482850162002e91565b61012083015250610140620030928482850162002ebf565b6101408301525092915050565b600060e08284031215620030b857620030b76200481d565b5b81905092915050565b60006103208284031215620030db57620030da62004822565b5b620030e760a062004244565b90506000620030f98482850162002ea8565b60008301525060206200310f84828501620032ea565b6020830152506040620031258482850162002f78565b6040830152506101a06200313c8482850162002f78565b60608301525061030082015167ffffffffffffffff81111562003164576200316362004827565b5b620031728482850162002ed6565b60808301525092915050565b6000610140828403121562003198576200319762004822565b5b620031a561010062004244565b90506000620031b784828501620032ea565b6000830152506020620031cd84828501620032ea565b602083015250604082015167ffffffffffffffff811115620031f457620031f362004827565b5b6200320284828501620030c1565b604083015250606082015167ffffffffffffffff81111562003229576200322862004827565b5b6200323784828501620030c1565b606083015250608082015167ffffffffffffffff8111156200325e576200325d62004827565b5b6200326c84828501620030c1565b60808301525060a0620032828482850162002f09565b60a0830152506101006200329984828501620032ea565b60c083015250610120620032b084828501620032ea565b60e08301525092915050565b600081519050620032cd8162004a1a565b92915050565b600081359050620032e48162004a34565b92915050565b600081519050620032fb8162004a34565b92915050565b600081519050620033128162004a4e565b92915050565b6000602082840312156200333157620033306200483b565b5b6000620033418482850162002dd1565b91505092915050565b6000602082840312156200336357620033626200483b565b5b6000620033738482850162002de8565b91505092915050565b600080600080600080600060e0888a0312156200339e576200339d6200483b565b5b6000620033ae8a828b0162002dd1565b9750506020620033c18a828b0162002dd1565b9650506040620033d48a828b0162002dd1565b9550506060620033e78a828b0162002dd1565b9450506080620033fa8a828b0162002dd1565b93505060a06200340d8a828b01620032d3565b92505060c0620034208a828b01620032d3565b91505092959891949750929550565b600080600080608085870312156200344c576200344b6200483b565b5b60006200345c8782880162002dd1565b94505060206200346f8782880162002dd1565b9350506040620034828782880162002dd1565b92505060606200349587828801620032d3565b91505092959194509250565b60008060208385031215620034bb57620034ba6200483b565b5b600083013567ffffffffffffffff811115620034dc57620034db62004836565b5b620034ea8582860162002dff565b92509250509250929050565b6000602082840312156200350f576200350e6200483b565b5b600082015167ffffffffffffffff81111562003530576200352f62004836565b5b6200353e8482850162002e5e565b91505092915050565b60006020828403121562003560576200355f6200483b565b5b6000620035708482850162002e91565b91505092915050565b600060e082840312156200359257620035916200483b565b5b6000620035a2848285016200309f565b91505092915050565b600060208284031215620035c457620035c36200483b565b5b600082015167ffffffffffffffff811115620035e557620035e462004836565b5b620035f384828501620030c1565b91505092915050565b6000602082840312156200361557620036146200483b565b5b600082015167ffffffffffffffff81111562003636576200363562004836565b5b62003644848285016200317e565b91505092915050565b6000806000606084860312156200366957620036686200483b565b5b60006200367986828701620032bc565b93505060206200368c86828701620032bc565b92505060406200369f8682870162003301565b9150509250925092565b600060208284031215620036c257620036c16200483b565b5b6000620036d284828501620032ea565b91505092915050565b6000620036e983836200370b565b60208301905092915050565b600062003703838362003ca1565b905092915050565b62003716816200458e565b82525050565b62003727816200458e565b82525050565b60006200373a82620042f2565b62003746818562004338565b93506200375383620042d2565b8060005b838110156200378a5781516200376e8882620036db565b97506200377b836200431e565b92505060018101905062003757565b5085935050505092915050565b6000620037a482620042fd565b620037b0818562004349565b935083602082028501620037c485620042e2565b8060005b85811015620038065784840389528151620037e48582620036f5565b9450620037f1836200432b565b925060208a01995050600181019050620037c8565b50829750879550505050505092915050565b6200382381620045a2565b82525050565b6000620038368262004308565b6200384281856200435a565b93506200385481856020860162004649565b6200385f8162004840565b840191505092915050565b620038758162004621565b82525050565b6200388681620045c3565b82525050565b620038978162004635565b82525050565b6000620038aa8262004313565b620038b681856200436b565b9350620038c881856020860162004649565b620038d38162004840565b840191505092915050565b6000620038ed6013836200437c565b9150620038fa826200485e565b602082019050919050565b6000620039146013836200437c565b9150620039218262004887565b602082019050919050565b60006200393b6011836200437c565b91506200394882620048b0565b602082019050919050565b600062003962600d836200437c565b91506200396f82620048d9565b602082019050919050565b6060820160008201516200399260008501826200370b565b506020820151620039a7602085018262003e41565b506040820151620039bc604085018262003e41565b50505050565b61016082016000820151620039db600085018262003e41565b506020820151620039f0602085018262003e41565b50604082015162003a05604085018262003e41565b50606082015162003a1a606085018262003e41565b50608082015162003a2f608085018262003e41565b5060a082015162003a4460a085018262003e41565b5060c082015162003a5960c085018262003e41565b5060e082015162003a6e60e085018262003e41565b5061010082015162003a8561010085018262003818565b5061012082015162003a9c61012085018262003818565b5061014082015162003ab36101408501826200387b565b50505050565b60e0820162003acc60008301836200438d565b62003adb60008501826200370b565b5062003aeb60208301836200438d565b62003afa60208501826200370b565b5062003b0a60408301836200438d565b62003b1960408501826200370b565b5062003b2960608301836200438d565b62003b3860608501826200370b565b5062003b486080830183620043a6565b62003b57608085018262003e41565b5062003b6760a0830183620043a6565b62003b7660a085018262003e41565b5062003b8660c0830183620043a6565b62003b9560c085018262003e41565b50505050565b60006103208301600083015162003bb660008601826200386a565b50602083015162003bcb602086018262003e41565b50604083015162003be06040860182620039c2565b50606083015162003bf66101a0860182620039c2565b50608083015184820361030086015262003c1182826200389d565b9150508091505092915050565b60006103208301600083015162003c3960008601826200386a565b50602083015162003c4e602086018262003e41565b50604083015162003c636040860182620039c2565b50606083015162003c796101a0860182620039c2565b50608083015184820361030086015262003c9482826200389d565b9150508091505092915050565b60006101408301600083015162003cbc600086018262003e41565b50602083015162003cd1602086018262003e41565b506040830151848203604086015262003ceb828262003b9b565b9150506060830151848203606086015262003d07828262003b9b565b9150506080830151848203608086015262003d23828262003b9b565b91505060a083015162003d3a60a08601826200397a565b5060c083015162003d5061010086018262003e41565b5060e083015162003d6661012086018262003e41565b508091505092915050565b60006101408301600083015162003d8c600086018262003e41565b50602083015162003da1602086018262003e41565b506040830151848203604086015262003dbb828262003b9b565b9150506060830151848203606086015262003dd7828262003b9b565b9150506080830151848203608086015262003df3828262003b9b565b91505060a083015162003e0a60a08601826200397a565b5060c083015162003e2061010086018262003e41565b5060e083015162003e3661012086018262003e41565b508091505092915050565b62003e4c8162004607565b82525050565b62003e5d8162004607565b82525050565b600060208201905062003e7a60008301846200371c565b92915050565b600060408201905062003e9760008301856200371c565b62003ea660208301846200371c565b9392505050565b600060e08201905062003ec4600083018a6200371c565b62003ed360208301896200371c565b62003ee260408301886200371c565b62003ef160608301876200371c565b62003f0060808301866200371c565b62003f0f60a08301856200388c565b62003f1e60c083018462003e52565b98975050505050505050565b600060e08201905062003f41600083018a6200371c565b62003f5060208301896200371c565b62003f5f60408301886200371c565b62003f6e60608301876200371c565b62003f7d60808301866200371c565b62003f8c60a083018562003e52565b62003f9b60c08301846200388c565b98975050505050505050565b600060808201905062003fbe60008301876200371c565b62003fcd60208301866200371c565b62003fdc60408301856200371c565b62003feb606083018462003e52565b95945050505050565b60006060820190506200400b60008301866200371c565b6200401a60208301856200371c565b62004029604083018462003e52565b949350505050565b60006040820190506200404860008301856200371c565b62004057602083018462003e52565b9392505050565b600060208201905081810360008301526200407a818462003797565b905092915050565b600060208201905081810360008301526200409d81620038de565b9050919050565b60006020820190508181036000830152620040bf8162003905565b9050919050565b60006020820190508181036000830152620040e1816200392c565b9050919050565b60006020820190508181036000830152620041038162003953565b9050919050565b600060e08201905062004121600083018462003ab9565b92915050565b6000602082019050818103600083015262004143818462003c1e565b905092915050565b6000602082019050818103600083015262004167818462003d71565b905092915050565b600060408201905062004186600083018562003e52565b81810360208301526200419a81846200372d565b90509392505050565b6000608082019050620041ba600083018762003e52565b620041c9602083018662003e52565b620041d860408301856200371c565b8181036060830152620041ec818462003829565b905095945050505050565b60006080820190506200420e600083018762003e52565b6200421d602083018662003e52565b6200422c604083018562003e52565b6200423b606083018462003e52565b95945050505050565b60006200425062004263565b90506200425e82826200467f565b919050565b6000604051905090565b600067ffffffffffffffff8211156200428b576200428a620047bf565b5b602082029050602081019050919050565b600067ffffffffffffffff821115620042ba57620042b9620047bf565b5b620042c58262004840565b9050602081019050919050565b6000819050602082019050919050565b6000819050602082019050919050565b600081519050919050565b600081519050919050565b600081519050919050565b600081519050919050565b6000602082019050919050565b6000602082019050919050565b600082825260208201905092915050565b600082825260208201905092915050565b600082825260208201905092915050565b600082825260208201905092915050565b600082825260208201905092915050565b60006200439e602084018462002dd1565b905092915050565b6000620043b76020840184620032d3565b905092915050565b6000620043cc8262004607565b9150620043d98362004607565b9250827fffffffffffffffffffffffffffffffffffffffffffffffffffffffffffffffff0382111562004411576200441062004703565b5b828201905092915050565b6000620044298262004607565b9150620044368362004607565b92508262004449576200444862004732565b5b828204905092915050565b6000620044618262004607565b91506200446e8362004607565b9250817fffffffffffffffffffffffffffffffffffffffffffffffffffffffffffffffff0483118215151615620044aa57620044a962004703565b5b828202905092915050565b6000620044c282620045c3565b9150620044cf83620045c3565b9250827f8000000000000000000000000000000000000000000000000000000000000000018212600084121516156200450d576200450c62004703565b5b827f7fffffffffffffffffffffffffffffffffffffffffffffffffffffffffffffff01821360008412161562004548576200454762004703565b5b828203905092915050565b6000620045608262004607565b91506200456d8362004607565b92508282101562004583576200458262004703565b5b828203905092915050565b60006200459b82620045e7565b9050919050565b60008115159050919050565b6000819050620045be82620049a4565b919050565b6000819050919050565b60006dffffffffffffffffffffffffffff82169050919050565b600073ffffffffffffffffffffffffffffffffffffffff82169050919050565b6000819050919050565b600063ffffffff82169050919050565b60006200462e82620045ae565b9050919050565b6000620046428262004607565b9050919050565b60005b83811015620046695780820151818401526020810190506200464c565b8381111562004679576000848401525b50505050565b6200468a8262004840565b810181811067ffffffffffffffff82111715620046ac57620046ab620047bf565b5b80604052505050565b6000620046c28262004607565b91507fffffffffffffffffffffffffffffffffffffffffffffffffffffffffffffffff821415620046f857620046f762004703565b5b600182019050919050565b7f4e487b7100000000000000000000000000000000000000000000000000000000600052601160045260246000fd5b7f4e487b7100000000000000000000000000000000000000000000000000000000600052601260045260246000fd5b7f4e487b7100000000000000000000000000000000000000000000000000000000600052602160045260246000fd5b7f4e487b7100000000000000000000000000000000000000000000000000000000600052603260045260246000fd5b7f4e487b7100000000000000000000000000000000000000000000000000000000600052604160045260246000fd5b600060033d1115620048105760046000803e6200480d60005162004851565b90505b90565b600080fd5b600080fd5b600080fd5b600080fd5b600080fd5b600080fd5b600080fd5b600080fd5b600080fd5b6000601f19601f8301169050919050565b60008160e01c9050919050565b7f746f6b656e496e206e6f74206265207a65726f00000000000000000000000000600082015250565b7f706f6f6c20646f6573206e6f7420657869737400000000000000000000000000600082015250565b7f7472616e7366657246726f6d206661696c000000000000000000000000000000600082015250565b7f7472616e73666572206661696c00000000000000000000000000000000000000600082015250565b600060443d10156200491457620049a1565b6200491e62004263565b60043d036004823e80513d602482011167ffffffffffffffff8211171562004948575050620049a1565b808201805167ffffffffffffffff811115620049685750505050620049a1565b80602083010160043d03850181111562004987575050505050620049a1565b62004998826020018501866200467f565b82955050505050505b90565b60038110620049b857620049b762004761565b5b50565b620049c6816200458e565b8114620049d257600080fd5b50565b620049e081620045a2565b8114620049ec57600080fd5b50565b60038110620049fd57600080fd5b50565b62004a0b81620045c3565b811462004a1757600080fd5b50565b62004a2581620045cd565b811462004a3157600080fd5b50565b62004a3f8162004607565b811462004a4b57600080fd5b50565b62004a598162004611565b811462004a6557600080fd5b5056fe608060405234801561001057600080fd5b50604051610380380380610380833981810160405281019061003291906101bf565b8173ffffffffffffffffffffffffffffffffffffffff1663095ea7b3337fffffffffffffffffffffffffffffffffffffffffffffffffffffffffffffffff6040518363ffffffff1660e01b815260040161008d92919061024a565b602060405180830381600087803b1580156100a757600080fd5b505af11580156100bb573d6000803e3d6000fd5b505050506040513d601f19601f820116820180604052508101906100df91906101ff565b508073ffffffffffffffffffffffffffffffffffffffff1663095ea7b3337fffffffffffffffffffffffffffffffffffffffffffffffffffffffffffffffff6040518363ffffffff1660e01b815260040161013b92919061024a565b602060405180830381600087803b15801561015557600080fd5b505af1158015610169573d6000803e3d6000fd5b505050506040513d601f19601f8201168201806040525081019061018d91906101ff565b5050506102ee565b6000815190506101a4816102c0565b92915050565b6000815190506101b9816102d7565b92915050565b600080604083850312156101d6576101d56102bb565b5b60006101e485828601610195565b92505060206101f585828601610195565b9150509250929050565b600060208284031215610215576102146102bb565b5b6000610223848285016101aa565b91505092915050565b61023581610273565b82525050565b610244816102b1565b82525050565b600060408201905061025f600083018561022c565b61026c602083018461023b565b9392505050565b600061027e82610291565b9050919050565b60008115159050919050565b600073ffffffffffffffffffffffffffffffffffffffff82169050919050565b6000819050919050565b600080fd5b6102c981610273565b81146102d457600080fd5b50565b6102e081610285565b81146102eb57600080fd5b50565b6084806102fc6000396000f3fe6080604052348015600f57600080fd5b506004361060285760003560e01c806341c0e1b514602d575b600080fd5b60336035565b005b3373ffffffffffffffffffffffffffffffffffffffff16fffea264697066735822122051ab8a9342d21fcc1119d1892966bbfee416e04ba9a05f56848498fc097cfadb64736f6c63430008070033a264697066735822122027dd69f18ea5afc72a34038b7a4795926f38705b4a33b27b1e5d20ad50238c4164736f6c63430008070033",
      "opcodes": "PUSH1 0x80 PUSH1 0x40 MSTORE PUSH1 0x0 DUP1 SSTORE ADDRESS PUSH1 0x3 PUSH1 0x0 PUSH2 0x100 EXP DUP2 SLOAD DUP2 PUSH20 0xFFFFFFFFFFFFFFFFFFFFFFFFFFFFFFFFFFFFFFFF MUL NOT AND SWAP1 DUP4 PUSH20 0xFFFFFFFFFFFFFFFFFFFFFFFFFFFFFFFFFFFFFFFF AND MUL OR SWAP1 SSTORE POP PUSH2 0x4E1E DUP1 PUSH2 0x58 PUSH1 0x0 CODECOPY PUSH1 0x0 RETURN INVALID PUSH1 0x80 PUSH1 0x40 MSTORE PUSH1 0x4 CALLDATASIZE LT PUSH3 0x49 JUMPI PUSH1 0x0 CALLDATALOAD PUSH1 0xE0 SHR DUP1 PUSH4 0x59EC6006 EQ PUSH3 0x56 JUMPI DUP1 PUSH4 0xBD698545 EQ PUSH3 0x8C JUMPI DUP1 PUSH4 0xE6952DDD EQ PUSH3 0xD0 JUMPI DUP1 PUSH4 0xF18D03CC EQ PUSH3 0x106 JUMPI PUSH3 0x51 JUMP JUMPDEST CALLDATASIZE PUSH3 0x51 JUMPI STOP JUMPDEST PUSH1 0x0 DUP1 REVERT JUMPDEST PUSH3 0x74 PUSH1 0x4 DUP1 CALLDATASIZE SUB DUP2 ADD SWAP1 PUSH3 0x6E SWAP2 SWAP1 PUSH3 0x34A1 JUMP JUMPDEST PUSH3 0x14A JUMP JUMPDEST PUSH1 0x40 MLOAD PUSH3 0x83 SWAP2 SWAP1 PUSH3 0x405E JUMP JUMPDEST PUSH1 0x40 MLOAD DUP1 SWAP2 SUB SWAP1 RETURN JUMPDEST CALLVALUE DUP1 ISZERO PUSH3 0x99 JUMPI PUSH1 0x0 DUP1 REVERT JUMPDEST POP PUSH3 0xB8 PUSH1 0x4 DUP1 CALLDATASIZE SUB DUP2 ADD SWAP1 PUSH3 0xB2 SWAP2 SWAP1 PUSH3 0x337C JUMP JUMPDEST PUSH3 0x2B1 JUMP JUMPDEST PUSH1 0x40 MLOAD PUSH3 0xC7 SWAP2 SWAP1 PUSH3 0x4127 JUMP JUMPDEST PUSH1 0x40 MLOAD DUP1 SWAP2 SUB SWAP1 RETURN JUMPDEST PUSH3 0xEE PUSH1 0x4 DUP1 CALLDATASIZE SUB DUP2 ADD SWAP1 PUSH3 0xE8 SWAP2 SWAP1 PUSH3 0x3579 JUMP JUMPDEST PUSH3 0xA9D JUMP JUMPDEST PUSH1 0x40 MLOAD PUSH3 0xFD SWAP2 SWAP1 PUSH3 0x414B JUMP JUMPDEST PUSH1 0x40 MLOAD DUP1 SWAP2 SUB SWAP1 RETURN JUMPDEST CALLVALUE DUP1 ISZERO PUSH3 0x113 JUMPI PUSH1 0x0 DUP1 REVERT JUMPDEST POP PUSH3 0x132 PUSH1 0x4 DUP1 CALLDATASIZE SUB DUP2 ADD SWAP1 PUSH3 0x12C SWAP2 SWAP1 PUSH3 0x342F JUMP JUMPDEST PUSH3 0x1B3F JUMP JUMPDEST PUSH1 0x40 MLOAD PUSH3 0x141 SWAP2 SWAP1 PUSH3 0x4127 JUMP JUMPDEST PUSH1 0x40 MLOAD DUP1 SWAP2 SUB SWAP1 RETURN JUMPDEST PUSH1 0x60 DUP3 DUP3 SWAP1 POP PUSH8 0xFFFFFFFFFFFFFFFF DUP2 GT ISZERO PUSH3 0x16C JUMPI PUSH3 0x16B PUSH3 0x47BF JUMP JUMPDEST JUMPDEST PUSH1 0x40 MLOAD SWAP1 DUP1 DUP3 MSTORE DUP1 PUSH1 0x20 MUL PUSH1 0x20 ADD DUP3 ADD PUSH1 0x40 MSTORE DUP1 ISZERO PUSH3 0x1A9 JUMPI DUP2 PUSH1 0x20 ADD JUMPDEST PUSH3 0x195 PUSH3 0x2BAF JUMP JUMPDEST DUP2 MSTORE PUSH1 0x20 ADD SWAP1 PUSH1 0x1 SWAP1 SUB SWAP1 DUP2 PUSH3 0x18B JUMPI SWAP1 POP JUMPDEST POP SWAP1 POP PUSH1 0x0 JUMPDEST DUP4 DUP4 SWAP1 POP DUP2 LT ISZERO PUSH3 0x2AA JUMPI ADDRESS PUSH20 0xFFFFFFFFFFFFFFFFFFFFFFFFFFFFFFFFFFFFFFFF AND PUSH4 0xE6952DDD DUP6 DUP6 DUP5 DUP2 DUP2 LT PUSH3 0x1ED JUMPI PUSH3 0x1EC PUSH3 0x4790 JUMP JUMPDEST JUMPDEST SWAP1 POP PUSH1 0xE0 MUL ADD PUSH1 0x40 MLOAD DUP3 PUSH4 0xFFFFFFFF AND PUSH1 0xE0 SHL DUP2 MSTORE PUSH1 0x4 ADD PUSH3 0x211 SWAP2 SWAP1 PUSH3 0x410A JUMP JUMPDEST PUSH1 0x0 PUSH1 0x40 MLOAD DUP1 DUP4 SUB DUP2 PUSH1 0x0 DUP8 DUP1 EXTCODESIZE ISZERO DUP1 ISZERO PUSH3 0x22C JUMPI PUSH1 0x0 DUP1 REVERT JUMPDEST POP GAS CALL SWAP3 POP POP POP DUP1 ISZERO PUSH3 0x265 JUMPI POP PUSH1 0x40 MLOAD RETURNDATASIZE PUSH1 0x0 DUP3 RETURNDATACOPY RETURNDATASIZE PUSH1 0x1F NOT PUSH1 0x1F DUP3 ADD AND DUP3 ADD DUP1 PUSH1 0x40 MSTORE POP DUP2 ADD SWAP1 PUSH3 0x262 SWAP2 SWAP1 PUSH3 0x35FC JUMP JUMPDEST PUSH1 0x1 JUMPDEST PUSH3 0x270 JUMPI PUSH3 0x294 JUMP JUMPDEST DUP1 DUP4 DUP4 DUP2 MLOAD DUP2 LT PUSH3 0x287 JUMPI PUSH3 0x286 PUSH3 0x4790 JUMP JUMPDEST JUMPDEST PUSH1 0x20 MUL PUSH1 0x20 ADD ADD DUP2 SWAP1 MSTORE POP POP JUMPDEST DUP1 DUP1 PUSH3 0x2A1 SWAP1 PUSH3 0x46B5 JUMP JUMPDEST SWAP2 POP POP PUSH3 0x1AF JUMP JUMPDEST POP SWAP3 SWAP2 POP POP JUMP JUMPDEST PUSH3 0x2BB PUSH3 0x2C14 JUMP JUMPDEST PUSH1 0x1 DUP2 PUSH1 0x0 ADD SWAP1 PUSH1 0x2 DUP2 GT ISZERO PUSH3 0x2D7 JUMPI PUSH3 0x2D6 PUSH3 0x4761 JUMP JUMPDEST JUMPDEST SWAP1 DUP2 PUSH1 0x2 DUP2 GT ISZERO PUSH3 0x2EE JUMPI PUSH3 0x2ED PUSH3 0x4761 JUMP JUMPDEST JUMPDEST DUP2 MSTORE POP POP GAS DUP2 PUSH1 0x20 ADD DUP2 DUP2 MSTORE POP POP PUSH1 0x0 DUP9 PUSH20 0xFFFFFFFFFFFFFFFFFFFFFFFFFFFFFFFFFFFFFFFF AND PUSH4 0xC45A0155 PUSH1 0x40 MLOAD DUP2 PUSH4 0xFFFFFFFF AND PUSH1 0xE0 SHL DUP2 MSTORE PUSH1 0x4 ADD PUSH1 0x20 PUSH1 0x40 MLOAD DUP1 DUP4 SUB DUP2 DUP7 DUP1 EXTCODESIZE ISZERO DUP1 ISZERO PUSH3 0x345 JUMPI PUSH1 0x0 DUP1 REVERT JUMPDEST POP GAS STATICCALL ISZERO DUP1 ISZERO PUSH3 0x35A JUMPI RETURNDATASIZE PUSH1 0x0 DUP1 RETURNDATACOPY RETURNDATASIZE PUSH1 0x0 REVERT JUMPDEST POP POP POP POP PUSH1 0x40 MLOAD RETURNDATASIZE PUSH1 0x1F NOT PUSH1 0x1F DUP3 ADD AND DUP3 ADD DUP1 PUSH1 0x40 MSTORE POP DUP2 ADD SWAP1 PUSH3 0x380 SWAP2 SWAP1 PUSH3 0x334A JUMP JUMPDEST PUSH20 0xFFFFFFFFFFFFFFFFFFFFFFFFFFFFFFFFFFFFFFFF AND PUSH4 0xE6A43905 DUP10 DUP10 PUSH1 0x40 MLOAD DUP4 PUSH4 0xFFFFFFFF AND PUSH1 0xE0 SHL DUP2 MSTORE PUSH1 0x4 ADD PUSH3 0x3BC SWAP3 SWAP2 SWAP1 PUSH3 0x3E80 JUMP JUMPDEST PUSH1 0x20 PUSH1 0x40 MLOAD DUP1 DUP4 SUB DUP2 DUP7 DUP1 EXTCODESIZE ISZERO DUP1 ISZERO PUSH3 0x3D5 JUMPI PUSH1 0x0 DUP1 REVERT JUMPDEST POP GAS STATICCALL ISZERO DUP1 ISZERO PUSH3 0x3EA JUMPI RETURNDATASIZE PUSH1 0x0 DUP1 RETURNDATACOPY RETURNDATASIZE PUSH1 0x0 REVERT JUMPDEST POP POP POP POP PUSH1 0x40 MLOAD RETURNDATASIZE PUSH1 0x1F NOT PUSH1 0x1F DUP3 ADD AND DUP3 ADD DUP1 PUSH1 0x40 MSTORE POP DUP2 ADD SWAP1 PUSH3 0x410 SWAP2 SWAP1 PUSH3 0x334A JUMP JUMPDEST SWAP1 POP PUSH1 0x0 PUSH20 0xFFFFFFFFFFFFFFFFFFFFFFFFFFFFFFFFFFFFFFFF AND DUP2 PUSH20 0xFFFFFFFFFFFFFFFFFFFFFFFFFFFFFFFFFFFFFFFF AND EQ ISZERO PUSH3 0x485 JUMPI PUSH1 0x40 MLOAD PUSH32 0x8C379A000000000000000000000000000000000000000000000000000000000 DUP2 MSTORE PUSH1 0x4 ADD PUSH3 0x47C SWAP1 PUSH3 0x40A4 JUMP JUMPDEST PUSH1 0x40 MLOAD DUP1 SWAP2 SUB SWAP1 REVERT JUMPDEST PUSH1 0x0 DUP2 SWAP1 POP PUSH1 0x0 DUP10 SWAP1 POP PUSH1 0x0 PUSH1 0x2 PUSH8 0xFFFFFFFFFFFFFFFF DUP2 GT ISZERO PUSH3 0x4AF JUMPI PUSH3 0x4AE PUSH3 0x47BF JUMP JUMPDEST JUMPDEST PUSH1 0x40 MLOAD SWAP1 DUP1 DUP3 MSTORE DUP1 PUSH1 0x20 MUL PUSH1 0x20 ADD DUP3 ADD PUSH1 0x40 MSTORE DUP1 ISZERO PUSH3 0x4DE JUMPI DUP2 PUSH1 0x20 ADD PUSH1 0x20 DUP3 MUL DUP1 CALLDATASIZE DUP4 CALLDATACOPY DUP1 DUP3 ADD SWAP2 POP POP SWAP1 POP JUMPDEST POP SWAP1 POP DUP11 DUP2 PUSH1 0x0 DUP2 MLOAD DUP2 LT PUSH3 0x4F9 JUMPI PUSH3 0x4F8 PUSH3 0x4790 JUMP JUMPDEST JUMPDEST PUSH1 0x20 MUL PUSH1 0x20 ADD ADD SWAP1 PUSH20 0xFFFFFFFFFFFFFFFFFFFFFFFFFFFFFFFFFFFFFFFF AND SWAP1 DUP2 PUSH20 0xFFFFFFFFFFFFFFFFFFFFFFFFFFFFFFFFFFFFFFFF AND DUP2 MSTORE POP POP DUP10 DUP2 PUSH1 0x1 DUP2 MLOAD DUP2 LT PUSH3 0x54B JUMPI PUSH3 0x54A PUSH3 0x4790 JUMP JUMPDEST JUMPDEST PUSH1 0x20 MUL PUSH1 0x20 ADD ADD SWAP1 PUSH20 0xFFFFFFFFFFFFFFFFFFFFFFFFFFFFFFFFFFFFFFFF AND SWAP1 DUP2 PUSH20 0xFFFFFFFFFFFFFFFFFFFFFFFFFFFFFFFFFFFFFFFF AND DUP2 MSTORE POP POP PUSH1 0x0 DUP8 EQ DUP1 ISZERO PUSH3 0x597 JUMPI POP PUSH1 0x0 DUP7 EQ ISZERO JUMPDEST ISZERO PUSH3 0x654 JUMPI DUP12 PUSH20 0xFFFFFFFFFFFFFFFFFFFFFFFFFFFFFFFFFFFFFFFF AND PUSH4 0x1F00CA74 DUP8 DUP4 PUSH1 0x40 MLOAD DUP4 PUSH4 0xFFFFFFFF AND PUSH1 0xE0 SHL DUP2 MSTORE PUSH1 0x4 ADD PUSH3 0x5DA SWAP3 SWAP2 SWAP1 PUSH3 0x416F JUMP JUMPDEST PUSH1 0x0 PUSH1 0x40 MLOAD DUP1 DUP4 SUB DUP2 DUP7 DUP1 EXTCODESIZE ISZERO DUP1 ISZERO PUSH3 0x5F3 JUMPI PUSH1 0x0 DUP1 REVERT JUMPDEST POP GAS STATICCALL ISZERO DUP1 ISZERO PUSH3 0x608 JUMPI RETURNDATASIZE PUSH1 0x0 DUP1 RETURNDATACOPY RETURNDATASIZE PUSH1 0x0 REVERT JUMPDEST POP POP POP POP PUSH1 0x40 MLOAD RETURNDATASIZE PUSH1 0x0 DUP3 RETURNDATACOPY RETURNDATASIZE PUSH1 0x1F NOT PUSH1 0x1F DUP3 ADD AND DUP3 ADD DUP1 PUSH1 0x40 MSTORE POP DUP2 ADD SWAP1 PUSH3 0x633 SWAP2 SWAP1 PUSH3 0x34F6 JUMP JUMPDEST PUSH1 0x0 DUP2 MLOAD DUP2 LT PUSH3 0x649 JUMPI PUSH3 0x648 PUSH3 0x4790 JUMP JUMPDEST JUMPDEST PUSH1 0x20 MUL PUSH1 0x20 ADD ADD MLOAD SWAP7 POP JUMPDEST PUSH1 0x0 DUP8 GT PUSH3 0x69A JUMPI PUSH1 0x40 MLOAD PUSH32 0x8C379A000000000000000000000000000000000000000000000000000000000 DUP2 MSTORE PUSH1 0x4 ADD PUSH3 0x691 SWAP1 PUSH3 0x4082 JUMP JUMPDEST PUSH1 0x40 MLOAD DUP1 SWAP2 SUB SWAP1 REVERT JUMPDEST PUSH2 0x2710 PUSH2 0x270F DUP4 PUSH20 0xFFFFFFFFFFFFFFFFFFFFFFFFFFFFFFFFFFFFFFFF AND PUSH4 0x70A08231 DUP8 PUSH1 0x40 MLOAD DUP3 PUSH4 0xFFFFFFFF AND PUSH1 0xE0 SHL DUP2 MSTORE PUSH1 0x4 ADD PUSH3 0x6DB SWAP2 SWAP1 PUSH3 0x3E63 JUMP JUMPDEST PUSH1 0x20 PUSH1 0x40 MLOAD DUP1 DUP4 SUB DUP2 DUP7 DUP1 EXTCODESIZE ISZERO DUP1 ISZERO PUSH3 0x6F4 JUMPI PUSH1 0x0 DUP1 REVERT JUMPDEST POP GAS STATICCALL ISZERO DUP1 ISZERO PUSH3 0x709 JUMPI RETURNDATASIZE PUSH1 0x0 DUP1 RETURNDATACOPY RETURNDATASIZE PUSH1 0x0 REVERT JUMPDEST POP POP POP POP PUSH1 0x40 MLOAD RETURNDATASIZE PUSH1 0x1F NOT PUSH1 0x1F DUP3 ADD AND DUP3 ADD DUP1 PUSH1 0x40 MSTORE POP DUP2 ADD SWAP1 PUSH3 0x72F SWAP2 SWAP1 PUSH3 0x36A9 JUMP JUMPDEST PUSH3 0x73B SWAP2 SWAP1 PUSH3 0x4454 JUMP JUMPDEST PUSH3 0x747 SWAP2 SWAP1 PUSH3 0x441C JUMP JUMPDEST DUP8 GT ISZERO PUSH3 0x7FF JUMPI PUSH2 0x2710 PUSH2 0x270F DUP4 PUSH20 0xFFFFFFFFFFFFFFFFFFFFFFFFFFFFFFFFFFFFFFFF AND PUSH4 0x70A08231 DUP8 PUSH1 0x40 MLOAD DUP3 PUSH4 0xFFFFFFFF AND PUSH1 0xE0 SHL DUP2 MSTORE PUSH1 0x4 ADD PUSH3 0x790 SWAP2 SWAP1 PUSH3 0x3E63 JUMP JUMPDEST PUSH1 0x20 PUSH1 0x40 MLOAD DUP1 DUP4 SUB DUP2 DUP7 DUP1 EXTCODESIZE ISZERO DUP1 ISZERO PUSH3 0x7A9 JUMPI PUSH1 0x0 DUP1 REVERT JUMPDEST POP GAS STATICCALL ISZERO DUP1 ISZERO PUSH3 0x7BE JUMPI RETURNDATASIZE PUSH1 0x0 DUP1 RETURNDATACOPY RETURNDATASIZE PUSH1 0x0 REVERT JUMPDEST POP POP POP POP PUSH1 0x40 MLOAD RETURNDATASIZE PUSH1 0x1F NOT PUSH1 0x1F DUP3 ADD AND DUP3 ADD DUP1 PUSH1 0x40 MSTORE POP DUP2 ADD SWAP1 PUSH3 0x7E4 SWAP2 SWAP1 PUSH3 0x36A9 JUMP JUMPDEST PUSH3 0x7F0 SWAP2 SWAP1 PUSH3 0x4454 JUMP JUMPDEST PUSH3 0x7FC SWAP2 SWAP1 PUSH3 0x441C JUMP JUMPDEST SWAP7 POP JUMPDEST PUSH3 0x80F DUP12 DUP11 DUP7 DUP11 PUSH1 0x1 PUSH3 0x1BCC JUMP JUMPDEST DUP6 PUSH1 0x40 ADD DUP2 SWAP1 MSTORE POP PUSH1 0x0 DUP1 DUP13 PUSH20 0xFFFFFFFFFFFFFFFFFFFFFFFFFFFFFFFFFFFFFFFF AND DUP6 PUSH20 0xFFFFFFFFFFFFFFFFFFFFFFFFFFFFFFFFFFFFFFFF AND PUSH4 0xDFE1681 PUSH1 0x40 MLOAD DUP2 PUSH4 0xFFFFFFFF AND PUSH1 0xE0 SHL DUP2 MSTORE PUSH1 0x4 ADD PUSH1 0x20 PUSH1 0x40 MLOAD DUP1 DUP4 SUB DUP2 DUP7 DUP1 EXTCODESIZE ISZERO DUP1 ISZERO PUSH3 0x878 JUMPI PUSH1 0x0 DUP1 REVERT JUMPDEST POP GAS STATICCALL ISZERO DUP1 ISZERO PUSH3 0x88D JUMPI RETURNDATASIZE PUSH1 0x0 DUP1 RETURNDATACOPY RETURNDATASIZE PUSH1 0x0 REVERT JUMPDEST POP POP POP POP PUSH1 0x40 MLOAD RETURNDATASIZE PUSH1 0x1F NOT PUSH1 0x1F DUP3 ADD AND DUP3 ADD DUP1 PUSH1 0x40 MSTORE POP DUP2 ADD SWAP1 PUSH3 0x8B3 SWAP2 SWAP1 PUSH3 0x334A JUMP JUMPDEST PUSH20 0xFFFFFFFFFFFFFFFFFFFFFFFFFFFFFFFFFFFFFFFF AND EQ ISZERO PUSH3 0x998 JUMPI DUP14 PUSH20 0xFFFFFFFFFFFFFFFFFFFFFFFFFFFFFFFFFFFFFFFF AND PUSH4 0xD06CA61F DUP9 PUSH1 0x40 ADD MLOAD PUSH1 0xC0 ADD MLOAD DUP6 PUSH1 0x40 MLOAD DUP4 PUSH4 0xFFFFFFFF AND PUSH1 0xE0 SHL DUP2 MSTORE PUSH1 0x4 ADD PUSH3 0x915 SWAP3 SWAP2 SWAP1 PUSH3 0x416F JUMP JUMPDEST PUSH1 0x0 PUSH1 0x40 MLOAD DUP1 DUP4 SUB DUP2 DUP7 DUP1 EXTCODESIZE ISZERO DUP1 ISZERO PUSH3 0x92E JUMPI PUSH1 0x0 DUP1 REVERT JUMPDEST POP GAS STATICCALL ISZERO DUP1 ISZERO PUSH3 0x943 JUMPI RETURNDATASIZE PUSH1 0x0 DUP1 RETURNDATACOPY RETURNDATASIZE PUSH1 0x0 REVERT JUMPDEST POP POP POP POP PUSH1 0x40 MLOAD RETURNDATASIZE PUSH1 0x0 DUP3 RETURNDATACOPY RETURNDATASIZE PUSH1 0x1F NOT PUSH1 0x1F DUP3 ADD AND DUP3 ADD DUP1 PUSH1 0x40 MSTORE POP DUP2 ADD SWAP1 PUSH3 0x96E SWAP2 SWAP1 PUSH3 0x34F6 JUMP JUMPDEST PUSH1 0x1 DUP2 MLOAD DUP2 LT PUSH3 0x984 JUMPI PUSH3 0x983 PUSH3 0x4790 JUMP JUMPDEST JUMPDEST PUSH1 0x20 MUL PUSH1 0x20 ADD ADD MLOAD SWAP2 POP PUSH1 0x0 SWAP1 POP PUSH3 0xA5B JUMP JUMPDEST DUP14 PUSH20 0xFFFFFFFFFFFFFFFFFFFFFFFFFFFFFFFFFFFFFFFF AND PUSH4 0xD06CA61F DUP9 PUSH1 0x40 ADD MLOAD PUSH1 0xC0 ADD MLOAD DUP6 PUSH1 0x40 MLOAD DUP4 PUSH4 0xFFFFFFFF AND PUSH1 0xE0 SHL DUP2 MSTORE PUSH1 0x4 ADD PUSH3 0x9DD SWAP3 SWAP2 SWAP1 PUSH3 0x416F JUMP JUMPDEST PUSH1 0x0 PUSH1 0x40 MLOAD DUP1 DUP4 SUB DUP2 DUP7 DUP1 EXTCODESIZE ISZERO DUP1 ISZERO PUSH3 0x9F6 JUMPI PUSH1 0x0 DUP1 REVERT JUMPDEST POP GAS STATICCALL ISZERO DUP1 ISZERO PUSH3 0xA0B JUMPI RETURNDATASIZE PUSH1 0x0 DUP1 RETURNDATACOPY RETURNDATASIZE PUSH1 0x0 REVERT JUMPDEST POP POP POP POP PUSH1 0x40 MLOAD RETURNDATASIZE PUSH1 0x0 DUP3 RETURNDATACOPY RETURNDATASIZE PUSH1 0x1F NOT PUSH1 0x1F DUP3 ADD AND DUP3 ADD DUP1 PUSH1 0x40 MSTORE POP DUP2 ADD SWAP1 PUSH3 0xA36 SWAP2 SWAP1 PUSH3 0x34F6 JUMP JUMPDEST PUSH1 0x1 DUP2 MLOAD DUP2 LT PUSH3 0xA4C JUMPI PUSH3 0xA4B PUSH3 0x4790 JUMP JUMPDEST JUMPDEST PUSH1 0x20 MUL PUSH1 0x20 ADD ADD MLOAD SWAP1 POP PUSH1 0x0 SWAP2 POP JUMPDEST PUSH3 0xA69 DUP7 DUP3 DUP5 DUP14 PUSH3 0x253D JUMP JUMPDEST DUP8 PUSH1 0x60 ADD DUP2 SWAP1 MSTORE POP GAS DUP8 PUSH1 0x20 ADD DUP2 DUP2 MLOAD PUSH3 0xA85 SWAP2 SWAP1 PUSH3 0x4553 JUMP JUMPDEST SWAP2 POP DUP2 DUP2 MSTORE POP POP POP POP POP POP POP POP SWAP8 SWAP7 POP POP POP POP POP POP POP JUMP JUMPDEST PUSH3 0xAA7 PUSH3 0x2BAF JUMP JUMPDEST PUSH1 0x1 PUSH1 0x0 DUP1 DUP3 DUP3 SLOAD PUSH3 0xABB SWAP2 SWAP1 PUSH3 0x43BF JUMP JUMPDEST SWAP3 POP POP DUP2 SWAP1 SSTORE POP PUSH1 0x1 DUP1 PUSH1 0x0 DUP1 SLOAD DUP2 MSTORE PUSH1 0x20 ADD SWAP1 DUP2 MSTORE PUSH1 0x20 ADD PUSH1 0x0 KECCAK256 PUSH1 0x0 DUP3 DUP3 SLOAD PUSH3 0xAE8 SWAP2 SWAP1 PUSH3 0x43BF JUMP JUMPDEST SWAP3 POP POP DUP2 SWAP1 SSTORE POP PUSH1 0x0 SLOAD DUP2 PUSH1 0x0 ADD DUP2 DUP2 MSTORE POP POP PUSH1 0x1 PUSH1 0x0 DUP1 SLOAD DUP2 MSTORE PUSH1 0x20 ADD SWAP1 DUP2 MSTORE PUSH1 0x20 ADD PUSH1 0x0 KECCAK256 SLOAD DUP2 PUSH1 0x20 ADD DUP2 DUP2 MSTORE POP POP NUMBER DUP2 PUSH1 0xC0 ADD DUP2 DUP2 MSTORE POP POP TIMESTAMP DUP2 PUSH1 0xE0 ADD DUP2 DUP2 MSTORE POP POP PUSH1 0x0 PUSH1 0x1 PUSH20 0xFFFFFFFFFFFFFFFFFFFFFFFFFFFFFFFFFFFFFFFF AND DUP4 PUSH1 0x60 ADD PUSH1 0x20 DUP2 ADD SWAP1 PUSH3 0xB5C SWAP2 SWAP1 PUSH3 0x3318 JUMP JUMPDEST PUSH20 0xFFFFFFFFFFFFFFFFFFFFFFFFFFFFFFFFFFFFFFFF AND EQ PUSH3 0xB93 JUMPI DUP3 PUSH1 0x60 ADD PUSH1 0x20 DUP2 ADD SWAP1 PUSH3 0xB8D SWAP2 SWAP1 PUSH3 0x3318 JUMP JUMPDEST PUSH3 0xBC8 JUMP JUMPDEST PUSH3 0xBC7 DUP4 PUSH1 0x20 ADD PUSH1 0x20 DUP2 ADD SWAP1 PUSH3 0xBAC SWAP2 SWAP1 PUSH3 0x3318 JUMP JUMPDEST DUP5 PUSH1 0x40 ADD PUSH1 0x20 DUP2 ADD SWAP1 PUSH3 0xBC1 SWAP2 SWAP1 PUSH3 0x3318 JUMP JUMPDEST PUSH3 0x2A08 JUMP JUMPDEST JUMPDEST SWAP1 POP PUSH1 0x0 ORIGIN SWAP1 POP PUSH1 0x0 DUP5 PUSH1 0x0 ADD PUSH1 0x20 DUP2 ADD SWAP1 PUSH3 0xBE6 SWAP2 SWAP1 PUSH3 0x3318 JUMP JUMPDEST PUSH20 0xFFFFFFFFFFFFFFFFFFFFFFFFFFFFFFFFFFFFFFFF AND PUSH4 0xAD5C4648 PUSH1 0x40 MLOAD DUP2 PUSH4 0xFFFFFFFF AND PUSH1 0xE0 SHL DUP2 MSTORE PUSH1 0x4 ADD PUSH1 0x20 PUSH1 0x40 MLOAD DUP1 DUP4 SUB DUP2 DUP7 DUP1 EXTCODESIZE ISZERO DUP1 ISZERO PUSH3 0xC2C JUMPI PUSH1 0x0 DUP1 REVERT JUMPDEST POP GAS STATICCALL ISZERO DUP1 ISZERO PUSH3 0xC41 JUMPI RETURNDATASIZE PUSH1 0x0 DUP1 RETURNDATACOPY RETURNDATASIZE PUSH1 0x0 REVERT JUMPDEST POP POP POP POP PUSH1 0x40 MLOAD RETURNDATASIZE PUSH1 0x1F NOT PUSH1 0x1F DUP3 ADD AND DUP3 ADD DUP1 PUSH1 0x40 MSTORE POP DUP2 ADD SWAP1 PUSH3 0xC67 SWAP2 SWAP1 PUSH3 0x334A JUMP JUMPDEST SWAP1 POP PUSH1 0x0 DUP6 PUSH1 0x20 ADD PUSH1 0x20 DUP2 ADD SWAP1 PUSH3 0xC80 SWAP2 SWAP1 PUSH3 0x3318 JUMP JUMPDEST SWAP1 POP PUSH1 0x0 DUP7 PUSH1 0x40 ADD PUSH1 0x20 DUP2 ADD SWAP1 PUSH3 0xC99 SWAP2 SWAP1 PUSH3 0x3318 JUMP JUMPDEST SWAP1 POP PUSH1 0x0 SELFBALANCE GT ISZERO PUSH3 0xD42 JUMPI DUP3 PUSH20 0xFFFFFFFFFFFFFFFFFFFFFFFFFFFFFFFFFFFFFFFF AND PUSH4 0xD0E30DB0 PUSH1 0x3 PUSH1 0x0 SWAP1 SLOAD SWAP1 PUSH2 0x100 EXP SWAP1 DIV PUSH20 0xFFFFFFFFFFFFFFFFFFFFFFFFFFFFFFFFFFFFFFFF AND PUSH20 0xFFFFFFFFFFFFFFFFFFFFFFFFFFFFFFFFFFFFFFFF AND BALANCE PUSH1 0x40 MLOAD DUP3 PUSH4 0xFFFFFFFF AND PUSH1 0xE0 SHL DUP2 MSTORE PUSH1 0x4 ADD PUSH1 0x0 PUSH1 0x40 MLOAD DUP1 DUP4 SUB DUP2 DUP6 DUP9 DUP1 EXTCODESIZE ISZERO DUP1 ISZERO PUSH3 0xD27 JUMPI PUSH1 0x0 DUP1 REVERT JUMPDEST POP GAS CALL ISZERO DUP1 ISZERO PUSH3 0xD3C JUMPI RETURNDATASIZE PUSH1 0x0 DUP1 RETURNDATACOPY RETURNDATASIZE PUSH1 0x0 REVERT JUMPDEST POP POP POP POP POP JUMPDEST DUP3 PUSH20 0xFFFFFFFFFFFFFFFFFFFFFFFFFFFFFFFFFFFFFFFF AND DUP8 PUSH1 0x20 ADD PUSH1 0x20 DUP2 ADD SWAP1 PUSH3 0xD6E SWAP2 SWAP1 PUSH3 0x3318 JUMP JUMPDEST PUSH20 0xFFFFFFFFFFFFFFFFFFFFFFFFFFFFFFFFFFFFFFFF AND EQ ISZERO DUP1 ISZERO PUSH3 0xE43 JUMPI POP PUSH1 0x0 DUP4 PUSH20 0xFFFFFFFFFFFFFFFFFFFFFFFFFFFFFFFFFFFFFFFF AND PUSH4 0x70A08231 PUSH1 0x3 PUSH1 0x0 SWAP1 SLOAD SWAP1 PUSH2 0x100 EXP SWAP1 DIV PUSH20 0xFFFFFFFFFFFFFFFFFFFFFFFFFFFFFFFFFFFFFFFF AND PUSH1 0x40 MLOAD DUP3 PUSH4 0xFFFFFFFF AND PUSH1 0xE0 SHL DUP2 MSTORE PUSH1 0x4 ADD PUSH3 0xDED SWAP2 SWAP1 PUSH3 0x3E63 JUMP JUMPDEST PUSH1 0x20 PUSH1 0x40 MLOAD DUP1 DUP4 SUB DUP2 DUP7 DUP1 EXTCODESIZE ISZERO DUP1 ISZERO PUSH3 0xE06 JUMPI PUSH1 0x0 DUP1 REVERT JUMPDEST POP GAS STATICCALL ISZERO DUP1 ISZERO PUSH3 0xE1B JUMPI RETURNDATASIZE PUSH1 0x0 DUP1 RETURNDATACOPY RETURNDATASIZE PUSH1 0x0 REVERT JUMPDEST POP POP POP POP PUSH1 0x40 MLOAD RETURNDATASIZE PUSH1 0x1F NOT PUSH1 0x1F DUP3 ADD AND DUP3 ADD DUP1 PUSH1 0x40 MSTORE POP DUP2 ADD SWAP1 PUSH3 0xE41 SWAP2 SWAP1 PUSH3 0x36A9 JUMP JUMPDEST GT JUMPDEST ISZERO PUSH3 0xFCB JUMPI ADDRESS PUSH20 0xFFFFFFFFFFFFFFFFFFFFFFFFFFFFFFFFFFFFFFFF AND PUSH4 0xBD698545 DUP9 PUSH1 0x0 ADD PUSH1 0x20 DUP2 ADD SWAP1 PUSH3 0xE7A SWAP2 SWAP1 PUSH3 0x3318 JUMP JUMPDEST DUP6 DUP11 PUSH1 0x20 ADD PUSH1 0x20 DUP2 ADD SWAP1 PUSH3 0xE90 SWAP2 SWAP1 PUSH3 0x3318 JUMP JUMPDEST ADDRESS ADDRESS DUP10 PUSH20 0xFFFFFFFFFFFFFFFFFFFFFFFFFFFFFFFFFFFFFFFF AND PUSH4 0x70A08231 PUSH1 0x3 PUSH1 0x0 SWAP1 SLOAD SWAP1 PUSH2 0x100 EXP SWAP1 DIV PUSH20 0xFFFFFFFFFFFFFFFFFFFFFFFFFFFFFFFFFFFFFFFF AND PUSH1 0x40 MLOAD DUP3 PUSH4 0xFFFFFFFF AND PUSH1 0xE0 SHL DUP2 MSTORE PUSH1 0x4 ADD PUSH3 0xEEF SWAP2 SWAP1 PUSH3 0x3E63 JUMP JUMPDEST PUSH1 0x20 PUSH1 0x40 MLOAD DUP1 DUP4 SUB DUP2 DUP7 DUP1 EXTCODESIZE ISZERO DUP1 ISZERO PUSH3 0xF08 JUMPI PUSH1 0x0 DUP1 REVERT JUMPDEST POP GAS STATICCALL ISZERO DUP1 ISZERO PUSH3 0xF1D JUMPI RETURNDATASIZE PUSH1 0x0 DUP1 RETURNDATACOPY RETURNDATASIZE PUSH1 0x0 REVERT JUMPDEST POP POP POP POP PUSH1 0x40 MLOAD RETURNDATASIZE PUSH1 0x1F NOT PUSH1 0x1F DUP3 ADD AND DUP3 ADD DUP1 PUSH1 0x40 MSTORE POP DUP2 ADD SWAP1 PUSH3 0xF43 SWAP2 SWAP1 PUSH3 0x36A9 JUMP JUMPDEST PUSH1 0x0 PUSH1 0x40 MLOAD DUP9 PUSH4 0xFFFFFFFF AND PUSH1 0xE0 SHL DUP2 MSTORE PUSH1 0x4 ADD PUSH3 0xF69 SWAP8 SWAP7 SWAP6 SWAP5 SWAP4 SWAP3 SWAP2 SWAP1 PUSH3 0x3F2A JUMP JUMPDEST PUSH1 0x0 PUSH1 0x40 MLOAD DUP1 DUP4 SUB DUP2 PUSH1 0x0 DUP8 DUP1 EXTCODESIZE ISZERO DUP1 ISZERO PUSH3 0xF84 JUMPI PUSH1 0x0 DUP1 REVERT JUMPDEST POP GAS CALL SWAP3 POP POP POP DUP1 ISZERO PUSH3 0xFBD JUMPI POP PUSH1 0x40 MLOAD RETURNDATASIZE PUSH1 0x0 DUP3 RETURNDATACOPY RETURNDATASIZE PUSH1 0x1F NOT PUSH1 0x1F DUP3 ADD AND DUP3 ADD DUP1 PUSH1 0x40 MSTORE POP DUP2 ADD SWAP1 PUSH3 0xFBA SWAP2 SWAP1 PUSH3 0x35AB JUMP JUMPDEST PUSH1 0x1 JUMPDEST PUSH3 0xFC8 JUMPI PUSH3 0xFCA JUMP JUMPDEST POP JUMPDEST JUMPDEST ADDRESS PUSH20 0xFFFFFFFFFFFFFFFFFFFFFFFFFFFFFFFFFFFFFFFF AND DUP5 PUSH20 0xFFFFFFFFFFFFFFFFFFFFFFFFFFFFFFFFFFFFFFFF AND EQ PUSH3 0x116C JUMPI DUP7 PUSH1 0x20 ADD PUSH1 0x20 DUP2 ADD SWAP1 PUSH3 0x1014 SWAP2 SWAP1 PUSH3 0x3318 JUMP JUMPDEST PUSH20 0xFFFFFFFFFFFFFFFFFFFFFFFFFFFFFFFFFFFFFFFF AND PUSH4 0xA9059CBB DUP6 DUP10 PUSH1 0x20 ADD PUSH1 0x20 DUP2 ADD SWAP1 PUSH3 0x1045 SWAP2 SWAP1 PUSH3 0x3318 JUMP JUMPDEST PUSH20 0xFFFFFFFFFFFFFFFFFFFFFFFFFFFFFFFFFFFFFFFF AND PUSH4 0x70A08231 PUSH1 0x3 PUSH1 0x0 SWAP1 SLOAD SWAP1 PUSH2 0x100 EXP SWAP1 DIV PUSH20 0xFFFFFFFFFFFFFFFFFFFFFFFFFFFFFFFFFFFFFFFF AND PUSH1 0x40 MLOAD DUP3 PUSH4 0xFFFFFFFF AND PUSH1 0xE0 SHL DUP2 MSTORE PUSH1 0x4 ADD PUSH3 0x10A1 SWAP2 SWAP1 PUSH3 0x3E63 JUMP JUMPDEST PUSH1 0x20 PUSH1 0x40 MLOAD DUP1 DUP4 SUB DUP2 DUP7 DUP1 EXTCODESIZE ISZERO DUP1 ISZERO PUSH3 0x10BA JUMPI PUSH1 0x0 DUP1 REVERT JUMPDEST POP GAS STATICCALL ISZERO DUP1 ISZERO PUSH3 0x10CF JUMPI RETURNDATASIZE PUSH1 0x0 DUP1 RETURNDATACOPY RETURNDATASIZE PUSH1 0x0 REVERT JUMPDEST POP POP POP POP PUSH1 0x40 MLOAD RETURNDATASIZE PUSH1 0x1F NOT PUSH1 0x1F DUP3 ADD AND DUP3 ADD DUP1 PUSH1 0x40 MSTORE POP DUP2 ADD SWAP1 PUSH3 0x10F5 SWAP2 SWAP1 PUSH3 0x36A9 JUMP JUMPDEST PUSH1 0x40 MLOAD DUP4 PUSH4 0xFFFFFFFF AND PUSH1 0xE0 SHL DUP2 MSTORE PUSH1 0x4 ADD PUSH3 0x1114 SWAP3 SWAP2 SWAP1 PUSH3 0x4031 JUMP JUMPDEST PUSH1 0x20 PUSH1 0x40 MLOAD DUP1 DUP4 SUB DUP2 PUSH1 0x0 DUP8 DUP1 EXTCODESIZE ISZERO DUP1 ISZERO PUSH3 0x112F JUMPI PUSH1 0x0 DUP1 REVERT JUMPDEST POP GAS CALL ISZERO DUP1 ISZERO PUSH3 0x1144 JUMPI RETURNDATASIZE PUSH1 0x0 DUP1 RETURNDATACOPY RETURNDATASIZE PUSH1 0x0 REVERT JUMPDEST POP POP POP POP PUSH1 0x40 MLOAD RETURNDATASIZE PUSH1 0x1F NOT PUSH1 0x1F DUP3 ADD AND DUP3 ADD DUP1 PUSH1 0x40 MSTORE POP DUP2 ADD SWAP1 PUSH3 0x116A SWAP2 SWAP1 PUSH3 0x3547 JUMP JUMPDEST POP JUMPDEST PUSH1 0x0 DUP1 DUP9 PUSH1 0x80 ADD CALLDATALOAD GT ISZERO PUSH3 0x152A JUMPI PUSH1 0x0 DUP9 PUSH1 0x0 ADD PUSH1 0x20 DUP2 ADD SWAP1 PUSH3 0x1192 SWAP2 SWAP1 PUSH3 0x3318 JUMP JUMPDEST PUSH20 0xFFFFFFFFFFFFFFFFFFFFFFFFFFFFFFFFFFFFFFFF AND PUSH4 0xC45A0155 PUSH1 0x40 MLOAD DUP2 PUSH4 0xFFFFFFFF AND PUSH1 0xE0 SHL DUP2 MSTORE PUSH1 0x4 ADD PUSH1 0x20 PUSH1 0x40 MLOAD DUP1 DUP4 SUB DUP2 DUP7 DUP1 EXTCODESIZE ISZERO DUP1 ISZERO PUSH3 0x11D8 JUMPI PUSH1 0x0 DUP1 REVERT JUMPDEST POP GAS STATICCALL ISZERO DUP1 ISZERO PUSH3 0x11ED JUMPI RETURNDATASIZE PUSH1 0x0 DUP1 RETURNDATACOPY RETURNDATASIZE PUSH1 0x0 REVERT JUMPDEST POP POP POP POP PUSH1 0x40 MLOAD RETURNDATASIZE PUSH1 0x1F NOT PUSH1 0x1F DUP3 ADD AND DUP3 ADD DUP1 PUSH1 0x40 MSTORE POP DUP2 ADD SWAP1 PUSH3 0x1213 SWAP2 SWAP1 PUSH3 0x334A JUMP JUMPDEST PUSH20 0xFFFFFFFFFFFFFFFFFFFFFFFFFFFFFFFFFFFFFFFF AND PUSH4 0xE6A43905 DUP11 PUSH1 0x20 ADD PUSH1 0x20 DUP2 ADD SWAP1 PUSH3 0x1243 SWAP2 SWAP1 PUSH3 0x3318 JUMP JUMPDEST DUP12 PUSH1 0x40 ADD PUSH1 0x20 DUP2 ADD SWAP1 PUSH3 0x1258 SWAP2 SWAP1 PUSH3 0x3318 JUMP JUMPDEST PUSH1 0x40 MLOAD DUP4 PUSH4 0xFFFFFFFF AND PUSH1 0xE0 SHL DUP2 MSTORE PUSH1 0x4 ADD PUSH3 0x1277 SWAP3 SWAP2 SWAP1 PUSH3 0x3E80 JUMP JUMPDEST PUSH1 0x20 PUSH1 0x40 MLOAD DUP1 DUP4 SUB DUP2 DUP7 DUP1 EXTCODESIZE ISZERO DUP1 ISZERO PUSH3 0x1290 JUMPI PUSH1 0x0 DUP1 REVERT JUMPDEST POP GAS STATICCALL ISZERO DUP1 ISZERO PUSH3 0x12A5 JUMPI RETURNDATASIZE PUSH1 0x0 DUP1 RETURNDATACOPY RETURNDATASIZE PUSH1 0x0 REVERT JUMPDEST POP POP POP POP PUSH1 0x40 MLOAD RETURNDATASIZE PUSH1 0x1F NOT PUSH1 0x1F DUP3 ADD AND DUP3 ADD DUP1 PUSH1 0x40 MSTORE POP DUP2 ADD SWAP1 PUSH3 0x12CB SWAP2 SWAP1 PUSH3 0x334A JUMP JUMPDEST SWAP1 POP PUSH2 0x2710 DUP10 PUSH1 0x80 ADD CALLDATALOAD DUP5 PUSH20 0xFFFFFFFFFFFFFFFFFFFFFFFFFFFFFFFFFFFFFFFF AND PUSH4 0x70A08231 DUP5 PUSH1 0x40 MLOAD DUP3 PUSH4 0xFFFFFFFF AND PUSH1 0xE0 SHL DUP2 MSTORE PUSH1 0x4 ADD PUSH3 0x1310 SWAP2 SWAP1 PUSH3 0x3E63 JUMP JUMPDEST PUSH1 0x20 PUSH1 0x40 MLOAD DUP1 DUP4 SUB DUP2 DUP7 DUP1 EXTCODESIZE ISZERO DUP1 ISZERO PUSH3 0x1329 JUMPI PUSH1 0x0 DUP1 REVERT JUMPDEST POP GAS STATICCALL ISZERO DUP1 ISZERO PUSH3 0x133E JUMPI RETURNDATASIZE PUSH1 0x0 DUP1 RETURNDATACOPY RETURNDATASIZE PUSH1 0x0 REVERT JUMPDEST POP POP POP POP PUSH1 0x40 MLOAD RETURNDATASIZE PUSH1 0x1F NOT PUSH1 0x1F DUP3 ADD AND DUP3 ADD DUP1 PUSH1 0x40 MSTORE POP DUP2 ADD SWAP1 PUSH3 0x1364 SWAP2 SWAP1 PUSH3 0x36A9 JUMP JUMPDEST PUSH3 0x1370 SWAP2 SWAP1 PUSH3 0x4454 JUMP JUMPDEST PUSH3 0x137C SWAP2 SWAP1 PUSH3 0x441C JUMP JUMPDEST SWAP2 POP ADDRESS PUSH20 0xFFFFFFFFFFFFFFFFFFFFFFFFFFFFFFFFFFFFFFFF AND PUSH4 0xBD698545 DUP11 PUSH1 0x0 ADD PUSH1 0x20 DUP2 ADD SWAP1 PUSH3 0x13AF SWAP2 SWAP1 PUSH3 0x3318 JUMP JUMPDEST DUP12 PUSH1 0x20 ADD PUSH1 0x20 DUP2 ADD SWAP1 PUSH3 0x13C4 SWAP2 SWAP1 PUSH3 0x3318 JUMP JUMPDEST DUP13 PUSH1 0x40 ADD PUSH1 0x20 DUP2 ADD SWAP1 PUSH3 0x13D9 SWAP2 SWAP1 PUSH3 0x3318 JUMP JUMPDEST DUP11 DUP13 PUSH1 0x0 DUP10 PUSH1 0x40 MLOAD DUP9 PUSH4 0xFFFFFFFF AND PUSH1 0xE0 SHL DUP2 MSTORE PUSH1 0x4 ADD PUSH3 0x1402 SWAP8 SWAP7 SWAP6 SWAP5 SWAP4 SWAP3 SWAP2 SWAP1 PUSH3 0x3EAD JUMP JUMPDEST PUSH1 0x0 PUSH1 0x40 MLOAD DUP1 DUP4 SUB DUP2 PUSH1 0x0 DUP8 DUP1 EXTCODESIZE ISZERO DUP1 ISZERO PUSH3 0x141D JUMPI PUSH1 0x0 DUP1 REVERT JUMPDEST POP GAS CALL SWAP3 POP POP POP DUP1 ISZERO PUSH3 0x1456 JUMPI POP PUSH1 0x40 MLOAD RETURNDATASIZE PUSH1 0x0 DUP3 RETURNDATACOPY RETURNDATASIZE PUSH1 0x1F NOT PUSH1 0x1F DUP3 ADD AND DUP3 ADD DUP1 PUSH1 0x40 MSTORE POP DUP2 ADD SWAP1 PUSH3 0x1453 SWAP2 SWAP1 PUSH3 0x35AB JUMP JUMPDEST PUSH1 0x1 JUMPDEST PUSH3 0x151D JUMPI PUSH3 0x1465 PUSH3 0x47EE JUMP JUMPDEST DUP1 PUSH4 0x8C379A0 EQ ISZERO PUSH3 0x14D9 JUMPI POP PUSH3 0x147D PUSH3 0x4902 JUMP JUMPDEST DUP1 PUSH3 0x148A JUMPI POP PUSH3 0x14DB JUMP JUMPDEST PUSH1 0x2 DUP10 PUSH1 0x40 ADD MLOAD PUSH1 0x0 ADD SWAP1 PUSH1 0x2 DUP2 GT ISZERO PUSH3 0x14AA JUMPI PUSH3 0x14A9 PUSH3 0x4761 JUMP JUMPDEST JUMPDEST SWAP1 DUP2 PUSH1 0x2 DUP2 GT ISZERO PUSH3 0x14C1 JUMPI PUSH3 0x14C0 PUSH3 0x4761 JUMP JUMPDEST JUMPDEST DUP2 MSTORE POP POP DUP1 DUP10 PUSH1 0x40 ADD MLOAD PUSH1 0x80 ADD DUP2 SWAP1 MSTORE POP POP PUSH3 0x1517 JUMP JUMPDEST POP JUMPDEST PUSH1 0x2 DUP9 PUSH1 0x40 ADD MLOAD PUSH1 0x0 ADD SWAP1 PUSH1 0x2 DUP2 GT ISZERO PUSH3 0x14FB JUMPI PUSH3 0x14FA PUSH3 0x4761 JUMP JUMPDEST JUMPDEST SWAP1 DUP2 PUSH1 0x2 DUP2 GT ISZERO PUSH3 0x1512 JUMPI PUSH3 0x1511 PUSH3 0x4761 JUMP JUMPDEST JUMPDEST DUP2 MSTORE POP POP JUMPDEST PUSH3 0x1528 JUMP JUMPDEST DUP1 DUP10 PUSH1 0x40 ADD DUP2 SWAP1 MSTORE POP POP JUMPDEST POP JUMPDEST DUP2 PUSH20 0xFFFFFFFFFFFFFFFFFFFFFFFFFFFFFFFFFFFFFFFF AND PUSH4 0x70A08231 DUP8 PUSH1 0x40 MLOAD DUP3 PUSH4 0xFFFFFFFF AND PUSH1 0xE0 SHL DUP2 MSTORE PUSH1 0x4 ADD PUSH3 0x1565 SWAP2 SWAP1 PUSH3 0x3E63 JUMP JUMPDEST PUSH1 0x20 PUSH1 0x40 MLOAD DUP1 DUP4 SUB DUP2 DUP7 DUP1 EXTCODESIZE ISZERO DUP1 ISZERO PUSH3 0x157E JUMPI PUSH1 0x0 DUP1 REVERT JUMPDEST POP GAS STATICCALL ISZERO DUP1 ISZERO PUSH3 0x1593 JUMPI RETURNDATASIZE PUSH1 0x0 DUP1 RETURNDATACOPY RETURNDATASIZE PUSH1 0x0 REVERT JUMPDEST POP POP POP POP PUSH1 0x40 MLOAD RETURNDATASIZE PUSH1 0x1F NOT PUSH1 0x1F DUP3 ADD AND DUP3 ADD DUP1 PUSH1 0x40 MSTORE POP DUP2 ADD SWAP1 PUSH3 0x15B9 SWAP2 SWAP1 PUSH3 0x36A9 JUMP JUMPDEST SWAP1 POP PUSH1 0x2 DUP1 DUP2 GT ISZERO PUSH3 0x15D1 JUMPI PUSH3 0x15D0 PUSH3 0x4761 JUMP JUMPDEST JUMPDEST DUP8 PUSH1 0x40 ADD MLOAD PUSH1 0x0 ADD MLOAD PUSH1 0x2 DUP2 GT ISZERO PUSH3 0x15EF JUMPI PUSH3 0x15EE PUSH3 0x4761 JUMP JUMPDEST JUMPDEST EQ ISZERO DUP1 ISZERO PUSH3 0x1602 JUMPI POP PUSH1 0x0 DUP9 PUSH1 0xA0 ADD CALLDATALOAD GT JUMPDEST DUP1 ISZERO PUSH3 0x160F JUMPI POP PUSH1 0x0 DUP2 GT JUMPDEST ISZERO PUSH3 0x17E0 JUMPI ADDRESS PUSH20 0xFFFFFFFFFFFFFFFFFFFFFFFFFFFFFFFFFFFFFFFF AND PUSH4 0xBD698545 DUP10 PUSH1 0x0 ADD PUSH1 0x20 DUP2 ADD SWAP1 PUSH3 0x1646 SWAP2 SWAP1 PUSH3 0x3318 JUMP JUMPDEST DUP11 PUSH1 0x40 ADD PUSH1 0x20 DUP2 ADD SWAP1 PUSH3 0x165B SWAP2 SWAP1 PUSH3 0x3318 JUMP JUMPDEST DUP12 PUSH1 0x20 ADD PUSH1 0x20 DUP2 ADD SWAP1 PUSH3 0x1670 SWAP2 SWAP1 PUSH3 0x3318 JUMP JUMPDEST DUP11 DUP12 PUSH2 0x2710 DUP16 PUSH1 0xA0 ADD CALLDATALOAD DUP10 PUSH3 0x1687 SWAP2 SWAP1 PUSH3 0x4454 JUMP JUMPDEST PUSH3 0x1693 SWAP2 SWAP1 PUSH3 0x441C JUMP JUMPDEST PUSH1 0x0 PUSH1 0x40 MLOAD DUP9 PUSH4 0xFFFFFFFF AND PUSH1 0xE0 SHL DUP2 MSTORE PUSH1 0x4 ADD PUSH3 0x16B9 SWAP8 SWAP7 SWAP6 SWAP5 SWAP4 SWAP3 SWAP2 SWAP1 PUSH3 0x3F2A JUMP JUMPDEST PUSH1 0x0 PUSH1 0x40 MLOAD DUP1 DUP4 SUB DUP2 PUSH1 0x0 DUP8 DUP1 EXTCODESIZE ISZERO DUP1 ISZERO PUSH3 0x16D4 JUMPI PUSH1 0x0 DUP1 REVERT JUMPDEST POP GAS CALL SWAP3 POP POP POP DUP1 ISZERO PUSH3 0x170D JUMPI POP PUSH1 0x40 MLOAD RETURNDATASIZE PUSH1 0x0 DUP3 RETURNDATACOPY RETURNDATASIZE PUSH1 0x1F NOT PUSH1 0x1F DUP3 ADD AND DUP3 ADD DUP1 PUSH1 0x40 MSTORE POP DUP2 ADD SWAP1 PUSH3 0x170A SWAP2 SWAP1 PUSH3 0x35AB JUMP JUMPDEST PUSH1 0x1 JUMPDEST PUSH3 0x17D4 JUMPI PUSH3 0x171C PUSH3 0x47EE JUMP JUMPDEST DUP1 PUSH4 0x8C379A0 EQ ISZERO PUSH3 0x1790 JUMPI POP PUSH3 0x1734 PUSH3 0x4902 JUMP JUMPDEST DUP1 PUSH3 0x1741 JUMPI POP PUSH3 0x1792 JUMP JUMPDEST PUSH1 0x2 DUP9 PUSH1 0x60 ADD MLOAD PUSH1 0x0 ADD SWAP1 PUSH1 0x2 DUP2 GT ISZERO PUSH3 0x1761 JUMPI PUSH3 0x1760 PUSH3 0x4761 JUMP JUMPDEST JUMPDEST SWAP1 DUP2 PUSH1 0x2 DUP2 GT ISZERO PUSH3 0x1778 JUMPI PUSH3 0x1777 PUSH3 0x4761 JUMP JUMPDEST JUMPDEST DUP2 MSTORE POP POP DUP1 DUP9 PUSH1 0x60 ADD MLOAD PUSH1 0x80 ADD DUP2 SWAP1 MSTORE POP POP PUSH3 0x17CE JUMP JUMPDEST POP JUMPDEST PUSH1 0x2 DUP8 PUSH1 0x40 ADD MLOAD PUSH1 0x0 ADD SWAP1 PUSH1 0x2 DUP2 GT ISZERO PUSH3 0x17B2 JUMPI PUSH3 0x17B1 PUSH3 0x4761 JUMP JUMPDEST JUMPDEST SWAP1 DUP2 PUSH1 0x2 DUP2 GT ISZERO PUSH3 0x17C9 JUMPI PUSH3 0x17C8 PUSH3 0x4761 JUMP JUMPDEST JUMPDEST DUP2 MSTORE POP POP JUMPDEST PUSH3 0x17DF JUMP JUMPDEST DUP1 DUP9 PUSH1 0x60 ADD DUP2 SWAP1 MSTORE POP POP JUMPDEST JUMPDEST PUSH1 0x2 DUP1 DUP2 GT ISZERO PUSH3 0x17F6 JUMPI PUSH3 0x17F5 PUSH3 0x4761 JUMP JUMPDEST JUMPDEST DUP8 PUSH1 0x40 ADD MLOAD PUSH1 0x0 ADD MLOAD PUSH1 0x2 DUP2 GT ISZERO PUSH3 0x1814 JUMPI PUSH3 0x1813 PUSH3 0x4761 JUMP JUMPDEST JUMPDEST EQ ISZERO DUP1 ISZERO PUSH3 0x1827 JUMPI POP PUSH1 0x0 DUP9 PUSH1 0xC0 ADD CALLDATALOAD GT JUMPDEST DUP1 ISZERO PUSH3 0x1834 JUMPI POP PUSH1 0x0 DUP2 GT JUMPDEST ISZERO PUSH3 0x19DF JUMPI ADDRESS PUSH20 0xFFFFFFFFFFFFFFFFFFFFFFFFFFFFFFFFFFFFFFFF AND PUSH4 0xF18D03CC DUP10 PUSH1 0x40 ADD PUSH1 0x20 DUP2 ADD SWAP1 PUSH3 0x186B SWAP2 SWAP1 PUSH3 0x3318 JUMP JUMPDEST DUP9 PUSH3 0x1876 PUSH3 0x2B17 JUMP JUMPDEST PUSH2 0x2710 DUP14 PUSH1 0xC0 ADD CALLDATALOAD DUP8 PUSH3 0x188B SWAP2 SWAP1 PUSH3 0x4454 JUMP JUMPDEST PUSH3 0x1897 SWAP2 SWAP1 PUSH3 0x441C JUMP JUMPDEST PUSH1 0x40 MLOAD DUP6 PUSH4 0xFFFFFFFF AND PUSH1 0xE0 SHL DUP2 MSTORE PUSH1 0x4 ADD PUSH3 0x18B8 SWAP5 SWAP4 SWAP3 SWAP2 SWAP1 PUSH3 0x3FA7 JUMP JUMPDEST PUSH1 0x0 PUSH1 0x40 MLOAD DUP1 DUP4 SUB DUP2 PUSH1 0x0 DUP8 DUP1 EXTCODESIZE ISZERO DUP1 ISZERO PUSH3 0x18D3 JUMPI PUSH1 0x0 DUP1 REVERT JUMPDEST POP GAS CALL SWAP3 POP POP POP DUP1 ISZERO PUSH3 0x190C JUMPI POP PUSH1 0x40 MLOAD RETURNDATASIZE PUSH1 0x0 DUP3 RETURNDATACOPY RETURNDATASIZE PUSH1 0x1F NOT PUSH1 0x1F DUP3 ADD AND DUP3 ADD DUP1 PUSH1 0x40 MSTORE POP DUP2 ADD SWAP1 PUSH3 0x1909 SWAP2 SWAP1 PUSH3 0x35AB JUMP JUMPDEST PUSH1 0x1 JUMPDEST PUSH3 0x19D3 JUMPI PUSH3 0x191B PUSH3 0x47EE JUMP JUMPDEST DUP1 PUSH4 0x8C379A0 EQ ISZERO PUSH3 0x198F JUMPI POP PUSH3 0x1933 PUSH3 0x4902 JUMP JUMPDEST DUP1 PUSH3 0x1940 JUMPI POP PUSH3 0x1991 JUMP JUMPDEST PUSH1 0x2 DUP9 PUSH1 0x80 ADD MLOAD PUSH1 0x0 ADD SWAP1 PUSH1 0x2 DUP2 GT ISZERO PUSH3 0x1960 JUMPI PUSH3 0x195F PUSH3 0x4761 JUMP JUMPDEST JUMPDEST SWAP1 DUP2 PUSH1 0x2 DUP2 GT ISZERO PUSH3 0x1977 JUMPI PUSH3 0x1976 PUSH3 0x4761 JUMP JUMPDEST JUMPDEST DUP2 MSTORE POP POP DUP1 DUP9 PUSH1 0x80 ADD MLOAD PUSH1 0x80 ADD DUP2 SWAP1 MSTORE POP POP PUSH3 0x19CD JUMP JUMPDEST POP JUMPDEST PUSH1 0x2 DUP8 PUSH1 0x40 ADD MLOAD PUSH1 0x0 ADD SWAP1 PUSH1 0x2 DUP2 GT ISZERO PUSH3 0x19B1 JUMPI PUSH3 0x19B0 PUSH3 0x4761 JUMP JUMPDEST JUMPDEST SWAP1 DUP2 PUSH1 0x2 DUP2 GT ISZERO PUSH3 0x19C8 JUMPI PUSH3 0x19C7 PUSH3 0x4761 JUMP JUMPDEST JUMPDEST DUP2 MSTORE POP POP JUMPDEST PUSH3 0x19DE JUMP JUMPDEST DUP1 DUP9 PUSH1 0x80 ADD DUP2 SWAP1 MSTORE POP POP JUMPDEST JUMPDEST PUSH1 0x40 MLOAD DUP1 PUSH1 0x60 ADD PUSH1 0x40 MSTORE DUP1 DUP8 PUSH20 0xFFFFFFFFFFFFFFFFFFFFFFFFFFFFFFFFFFFFFFFF AND DUP2 MSTORE PUSH1 0x20 ADD DUP5 PUSH20 0xFFFFFFFFFFFFFFFFFFFFFFFFFFFFFFFFFFFFFFFF AND PUSH4 0x70A08231 DUP10 PUSH1 0x40 MLOAD DUP3 PUSH4 0xFFFFFFFF AND PUSH1 0xE0 SHL DUP2 MSTORE PUSH1 0x4 ADD PUSH3 0x1A41 SWAP2 SWAP1 PUSH3 0x3E63 JUMP JUMPDEST PUSH1 0x20 PUSH1 0x40 MLOAD DUP1 DUP4 SUB DUP2 DUP7 DUP1 EXTCODESIZE ISZERO DUP1 ISZERO PUSH3 0x1A5A JUMPI PUSH1 0x0 DUP1 REVERT JUMPDEST POP GAS STATICCALL ISZERO DUP1 ISZERO PUSH3 0x1A6F JUMPI RETURNDATASIZE PUSH1 0x0 DUP1 RETURNDATACOPY RETURNDATASIZE PUSH1 0x0 REVERT JUMPDEST POP POP POP POP PUSH1 0x40 MLOAD RETURNDATASIZE PUSH1 0x1F NOT PUSH1 0x1F DUP3 ADD AND DUP3 ADD DUP1 PUSH1 0x40 MSTORE POP DUP2 ADD SWAP1 PUSH3 0x1A95 SWAP2 SWAP1 PUSH3 0x36A9 JUMP JUMPDEST DUP2 MSTORE PUSH1 0x20 ADD DUP4 PUSH20 0xFFFFFFFFFFFFFFFFFFFFFFFFFFFFFFFFFFFFFFFF AND PUSH4 0x70A08231 DUP10 PUSH1 0x40 MLOAD DUP3 PUSH4 0xFFFFFFFF AND PUSH1 0xE0 SHL DUP2 MSTORE PUSH1 0x4 ADD PUSH3 0x1AD5 SWAP2 SWAP1 PUSH3 0x3E63 JUMP JUMPDEST PUSH1 0x20 PUSH1 0x40 MLOAD DUP1 DUP4 SUB DUP2 DUP7 DUP1 EXTCODESIZE ISZERO DUP1 ISZERO PUSH3 0x1AEE JUMPI PUSH1 0x0 DUP1 REVERT JUMPDEST POP GAS STATICCALL ISZERO DUP1 ISZERO PUSH3 0x1B03 JUMPI RETURNDATASIZE PUSH1 0x0 DUP1 RETURNDATACOPY RETURNDATASIZE PUSH1 0x0 REVERT JUMPDEST POP POP POP POP PUSH1 0x40 MLOAD RETURNDATASIZE PUSH1 0x1F NOT PUSH1 0x1F DUP3 ADD AND DUP3 ADD DUP1 PUSH1 0x40 MSTORE POP DUP2 ADD SWAP1 PUSH3 0x1B29 SWAP2 SWAP1 PUSH3 0x36A9 JUMP JUMPDEST DUP2 MSTORE POP DUP8 PUSH1 0xA0 ADD DUP2 SWAP1 MSTORE POP POP POP POP POP POP POP SWAP2 SWAP1 POP JUMP JUMPDEST PUSH3 0x1B49 PUSH3 0x2C14 JUMP JUMPDEST PUSH1 0x1 DUP2 PUSH1 0x0 ADD SWAP1 PUSH1 0x2 DUP2 GT ISZERO PUSH3 0x1B65 JUMPI PUSH3 0x1B64 PUSH3 0x4761 JUMP JUMPDEST JUMPDEST SWAP1 DUP2 PUSH1 0x2 DUP2 GT ISZERO PUSH3 0x1B7C JUMPI PUSH3 0x1B7B PUSH3 0x4761 JUMP JUMPDEST JUMPDEST DUP2 MSTORE POP POP GAS DUP2 PUSH1 0x20 ADD DUP2 DUP2 MSTORE POP POP PUSH3 0x1B9A DUP6 DUP6 DUP6 DUP6 PUSH1 0x0 PUSH3 0x1BCC JUMP JUMPDEST DUP2 PUSH1 0x60 ADD DUP2 SWAP1 MSTORE DUP2 PUSH1 0x40 ADD DUP2 SWAP1 MSTORE POP GAS DUP2 PUSH1 0x20 ADD DUP2 DUP2 MLOAD PUSH3 0x1BBD SWAP2 SWAP1 PUSH3 0x4553 JUMP JUMPDEST SWAP2 POP DUP2 DUP2 MSTORE POP POP SWAP5 SWAP4 POP POP POP POP JUMP JUMPDEST PUSH3 0x1BD6 PUSH3 0x2C68 JUMP JUMPDEST PUSH1 0x0 DUP7 SWAP1 POP PUSH1 0x0 DUP6 SWAP1 POP DUP5 DUP4 PUSH1 0x80 ADD DUP2 DUP2 MSTORE POP POP DUP2 PUSH20 0xFFFFFFFFFFFFFFFFFFFFFFFFFFFFFFFFFFFFFFFF AND PUSH4 0x70A08231 DUP9 PUSH1 0x40 MLOAD DUP3 PUSH4 0xFFFFFFFF AND PUSH1 0xE0 SHL DUP2 MSTORE PUSH1 0x4 ADD PUSH3 0x1C25 SWAP2 SWAP1 PUSH3 0x3E63 JUMP JUMPDEST PUSH1 0x20 PUSH1 0x40 MLOAD DUP1 DUP4 SUB DUP2 DUP7 DUP1 EXTCODESIZE ISZERO DUP1 ISZERO PUSH3 0x1C3E JUMPI PUSH1 0x0 DUP1 REVERT JUMPDEST POP GAS STATICCALL ISZERO DUP1 ISZERO PUSH3 0x1C53 JUMPI RETURNDATASIZE PUSH1 0x0 DUP1 RETURNDATACOPY RETURNDATASIZE PUSH1 0x0 REVERT JUMPDEST POP POP POP POP PUSH1 0x40 MLOAD RETURNDATASIZE PUSH1 0x1F NOT PUSH1 0x1F DUP3 ADD AND DUP3 ADD DUP1 PUSH1 0x40 MSTORE POP DUP2 ADD SWAP1 PUSH3 0x1C79 SWAP2 SWAP1 PUSH3 0x36A9 JUMP JUMPDEST DUP4 PUSH1 0x0 ADD DUP2 DUP2 MSTORE POP POP DUP2 PUSH20 0xFFFFFFFFFFFFFFFFFFFFFFFFFFFFFFFFFFFFFFFF AND PUSH4 0x70A08231 DUP8 PUSH1 0x40 MLOAD DUP3 PUSH4 0xFFFFFFFF AND PUSH1 0xE0 SHL DUP2 MSTORE PUSH1 0x4 ADD PUSH3 0x1CBD SWAP2 SWAP1 PUSH3 0x3E63 JUMP JUMPDEST PUSH1 0x20 PUSH1 0x40 MLOAD DUP1 DUP4 SUB DUP2 DUP7 DUP1 EXTCODESIZE ISZERO DUP1 ISZERO PUSH3 0x1CD6 JUMPI PUSH1 0x0 DUP1 REVERT JUMPDEST POP GAS STATICCALL ISZERO DUP1 ISZERO PUSH3 0x1CEB JUMPI RETURNDATASIZE PUSH1 0x0 DUP1 RETURNDATACOPY RETURNDATASIZE PUSH1 0x0 REVERT JUMPDEST POP POP POP POP PUSH1 0x40 MLOAD RETURNDATASIZE PUSH1 0x1F NOT PUSH1 0x1F DUP3 ADD AND DUP3 ADD DUP1 PUSH1 0x40 MSTORE POP DUP2 ADD SWAP1 PUSH3 0x1D11 SWAP2 SWAP1 PUSH3 0x36A9 JUMP JUMPDEST DUP4 PUSH1 0x40 ADD DUP2 DUP2 MSTORE POP POP PUSH1 0x0 DUP1 PUSH1 0x0 DUP7 ISZERO PUSH3 0x1E5C JUMPI DUP4 PUSH20 0xFFFFFFFFFFFFFFFFFFFFFFFFFFFFFFFFFFFFFFFF AND PUSH4 0x902F1AC PUSH1 0x40 MLOAD DUP2 PUSH4 0xFFFFFFFF AND PUSH1 0xE0 SHL DUP2 MSTORE PUSH1 0x4 ADD PUSH1 0x60 PUSH1 0x40 MLOAD DUP1 DUP4 SUB DUP2 DUP7 DUP1 EXTCODESIZE ISZERO DUP1 ISZERO PUSH3 0x1D6D JUMPI PUSH1 0x0 DUP1 REVERT JUMPDEST POP GAS STATICCALL ISZERO DUP1 ISZERO PUSH3 0x1D82 JUMPI RETURNDATASIZE PUSH1 0x0 DUP1 RETURNDATACOPY RETURNDATASIZE PUSH1 0x0 REVERT JUMPDEST POP POP POP POP PUSH1 0x40 MLOAD RETURNDATASIZE PUSH1 0x1F NOT PUSH1 0x1F DUP3 ADD AND DUP3 ADD DUP1 PUSH1 0x40 MSTORE POP DUP2 ADD SWAP1 PUSH3 0x1DA8 SWAP2 SWAP1 PUSH3 0x364D JUMP JUMPDEST DUP3 PUSH14 0xFFFFFFFFFFFFFFFFFFFFFFFFFFFF AND SWAP3 POP DUP2 PUSH14 0xFFFFFFFFFFFFFFFFFFFFFFFFFFFF AND SWAP2 POP POP DUP1 SWAP4 POP DUP2 SWAP5 POP POP POP DUP4 PUSH20 0xFFFFFFFFFFFFFFFFFFFFFFFFFFFFFFFFFFFFFFFF AND PUSH4 0x18160DDD PUSH1 0x40 MLOAD DUP2 PUSH4 0xFFFFFFFF AND PUSH1 0xE0 SHL DUP2 MSTORE PUSH1 0x4 ADD PUSH1 0x20 PUSH1 0x40 MLOAD DUP1 DUP4 SUB DUP2 DUP7 DUP1 EXTCODESIZE ISZERO DUP1 ISZERO PUSH3 0x1E1E JUMPI PUSH1 0x0 DUP1 REVERT JUMPDEST POP GAS STATICCALL ISZERO DUP1 ISZERO PUSH3 0x1E33 JUMPI RETURNDATASIZE PUSH1 0x0 DUP1 RETURNDATACOPY RETURNDATASIZE PUSH1 0x0 REVERT JUMPDEST POP POP POP POP PUSH1 0x40 MLOAD RETURNDATASIZE PUSH1 0x1F NOT PUSH1 0x1F DUP3 ADD AND DUP3 ADD DUP1 PUSH1 0x40 MSTORE POP DUP2 ADD SWAP1 PUSH3 0x1E59 SWAP2 SWAP1 PUSH3 0x36A9 JUMP JUMPDEST SWAP1 POP JUMPDEST PUSH1 0x3 PUSH1 0x0 SWAP1 SLOAD SWAP1 PUSH2 0x100 EXP SWAP1 DIV PUSH20 0xFFFFFFFFFFFFFFFFFFFFFFFFFFFFFFFFFFFFFFFF AND PUSH20 0xFFFFFFFFFFFFFFFFFFFFFFFFFFFFFFFFFFFFFFFF AND DUP11 PUSH20 0xFFFFFFFFFFFFFFFFFFFFFFFFFFFFFFFFFFFFFFFF AND EQ ISZERO DUP1 ISZERO PUSH3 0x1F6D JUMPI POP DUP8 DUP6 PUSH20 0xFFFFFFFFFFFFFFFFFFFFFFFFFFFFFFFFFFFFFFFF AND PUSH4 0xDD62ED3E DUP13 PUSH1 0x3 PUSH1 0x0 SWAP1 SLOAD SWAP1 PUSH2 0x100 EXP SWAP1 DIV PUSH20 0xFFFFFFFFFFFFFFFFFFFFFFFFFFFFFFFFFFFFFFFF AND PUSH1 0x40 MLOAD DUP4 PUSH4 0xFFFFFFFF AND PUSH1 0xE0 SHL DUP2 MSTORE PUSH1 0x4 ADD PUSH3 0x1F16 SWAP3 SWAP2 SWAP1 PUSH3 0x3E80 JUMP JUMPDEST PUSH1 0x20 PUSH1 0x40 MLOAD DUP1 DUP4 SUB DUP2 DUP7 DUP1 EXTCODESIZE ISZERO DUP1 ISZERO PUSH3 0x1F2F JUMPI PUSH1 0x0 DUP1 REVERT JUMPDEST POP GAS STATICCALL ISZERO DUP1 ISZERO PUSH3 0x1F44 JUMPI RETURNDATASIZE PUSH1 0x0 DUP1 RETURNDATACOPY RETURNDATASIZE PUSH1 0x0 REVERT JUMPDEST POP POP POP POP PUSH1 0x40 MLOAD RETURNDATASIZE PUSH1 0x1F NOT PUSH1 0x1F DUP3 ADD AND DUP3 ADD DUP1 PUSH1 0x40 MSTORE POP DUP2 ADD SWAP1 PUSH3 0x1F6A SWAP2 SWAP1 PUSH3 0x36A9 JUMP JUMPDEST LT ISZERO JUMPDEST DUP1 ISZERO PUSH3 0x1F7E JUMPI POP DUP8 DUP7 PUSH1 0x0 ADD MLOAD LT ISZERO JUMPDEST ISZERO PUSH3 0x2061 JUMPI DUP5 PUSH20 0xFFFFFFFFFFFFFFFFFFFFFFFFFFFFFFFFFFFFFFFF AND PUSH4 0x23B872DD DUP12 DUP12 DUP12 PUSH1 0x40 MLOAD DUP5 PUSH4 0xFFFFFFFF AND PUSH1 0xE0 SHL DUP2 MSTORE PUSH1 0x4 ADD PUSH3 0x1FC3 SWAP4 SWAP3 SWAP2 SWAP1 PUSH3 0x3FF4 JUMP JUMPDEST PUSH1 0x20 PUSH1 0x40 MLOAD DUP1 DUP4 SUB DUP2 PUSH1 0x0 DUP8 DUP1 EXTCODESIZE ISZERO DUP1 ISZERO PUSH3 0x1FDE JUMPI PUSH1 0x0 DUP1 REVERT JUMPDEST POP GAS CALL ISZERO DUP1 ISZERO PUSH3 0x1FF3 JUMPI RETURNDATASIZE PUSH1 0x0 DUP1 RETURNDATACOPY RETURNDATASIZE PUSH1 0x0 REVERT JUMPDEST POP POP POP POP PUSH1 0x40 MLOAD RETURNDATASIZE PUSH1 0x1F NOT PUSH1 0x1F DUP3 ADD AND DUP3 ADD DUP1 PUSH1 0x40 MSTORE POP DUP2 ADD SWAP1 PUSH3 0x2019 SWAP2 SWAP1 PUSH3 0x3547 JUMP JUMPDEST PUSH3 0x205B JUMPI PUSH1 0x40 MLOAD PUSH32 0x8C379A000000000000000000000000000000000000000000000000000000000 DUP2 MSTORE PUSH1 0x4 ADD PUSH3 0x2052 SWAP1 PUSH3 0x40C6 JUMP JUMPDEST PUSH1 0x40 MLOAD DUP1 SWAP2 SUB SWAP1 REVERT JUMPDEST PUSH3 0x2137 JUMP JUMPDEST DUP5 PUSH20 0xFFFFFFFFFFFFFFFFFFFFFFFFFFFFFFFFFFFFFFFF AND PUSH4 0xA9059CBB DUP11 DUP11 PUSH1 0x40 MLOAD DUP4 PUSH4 0xFFFFFFFF AND PUSH1 0xE0 SHL DUP2 MSTORE PUSH1 0x4 ADD PUSH3 0x209E SWAP3 SWAP2 SWAP1 PUSH3 0x4031 JUMP JUMPDEST PUSH1 0x20 PUSH1 0x40 MLOAD DUP1 DUP4 SUB DUP2 PUSH1 0x0 DUP8 DUP1 EXTCODESIZE ISZERO DUP1 ISZERO PUSH3 0x20B9 JUMPI PUSH1 0x0 DUP1 REVERT JUMPDEST POP GAS CALL ISZERO DUP1 ISZERO PUSH3 0x20CE JUMPI RETURNDATASIZE PUSH1 0x0 DUP1 RETURNDATACOPY RETURNDATASIZE PUSH1 0x0 REVERT JUMPDEST POP POP POP POP PUSH1 0x40 MLOAD RETURNDATASIZE PUSH1 0x1F NOT PUSH1 0x1F DUP3 ADD AND DUP3 ADD DUP1 PUSH1 0x40 MSTORE POP DUP2 ADD SWAP1 PUSH3 0x20F4 SWAP2 SWAP1 PUSH3 0x3547 JUMP JUMPDEST PUSH3 0x2136 JUMPI PUSH1 0x40 MLOAD PUSH32 0x8C379A000000000000000000000000000000000000000000000000000000000 DUP2 MSTORE PUSH1 0x4 ADD PUSH3 0x212D SWAP1 PUSH3 0x40E8 JUMP JUMPDEST PUSH1 0x40 MLOAD DUP1 SWAP2 SUB SWAP1 REVERT JUMPDEST JUMPDEST DUP5 PUSH20 0xFFFFFFFFFFFFFFFFFFFFFFFFFFFFFFFFFFFFFFFF AND PUSH4 0x70A08231 DUP12 PUSH1 0x40 MLOAD DUP3 PUSH4 0xFFFFFFFF AND PUSH1 0xE0 SHL DUP2 MSTORE PUSH1 0x4 ADD PUSH3 0x2172 SWAP2 SWAP1 PUSH3 0x3E63 JUMP JUMPDEST PUSH1 0x20 PUSH1 0x40 MLOAD DUP1 DUP4 SUB DUP2 DUP7 DUP1 EXTCODESIZE ISZERO DUP1 ISZERO PUSH3 0x218B JUMPI PUSH1 0x0 DUP1 REVERT JUMPDEST POP GAS STATICCALL ISZERO DUP1 ISZERO PUSH3 0x21A0 JUMPI RETURNDATASIZE PUSH1 0x0 DUP1 RETURNDATACOPY RETURNDATASIZE PUSH1 0x0 REVERT JUMPDEST POP POP POP POP PUSH1 0x40 MLOAD RETURNDATASIZE PUSH1 0x1F NOT PUSH1 0x1F DUP3 ADD AND DUP3 ADD DUP1 PUSH1 0x40 MSTORE POP DUP2 ADD SWAP1 PUSH3 0x21C6 SWAP2 SWAP1 PUSH3 0x36A9 JUMP JUMPDEST DUP7 PUSH1 0x20 ADD DUP2 DUP2 MSTORE POP POP DUP5 PUSH20 0xFFFFFFFFFFFFFFFFFFFFFFFFFFFFFFFFFFFFFFFF AND PUSH4 0x70A08231 DUP11 PUSH1 0x40 MLOAD DUP3 PUSH4 0xFFFFFFFF AND PUSH1 0xE0 SHL DUP2 MSTORE PUSH1 0x4 ADD PUSH3 0x220A SWAP2 SWAP1 PUSH3 0x3E63 JUMP JUMPDEST PUSH1 0x20 PUSH1 0x40 MLOAD DUP1 DUP4 SUB DUP2 DUP7 DUP1 EXTCODESIZE ISZERO DUP1 ISZERO PUSH3 0x2223 JUMPI PUSH1 0x0 DUP1 REVERT JUMPDEST POP GAS STATICCALL ISZERO DUP1 ISZERO PUSH3 0x2238 JUMPI RETURNDATASIZE PUSH1 0x0 DUP1 RETURNDATACOPY RETURNDATASIZE PUSH1 0x0 REVERT JUMPDEST POP POP POP POP PUSH1 0x40 MLOAD RETURNDATASIZE PUSH1 0x1F NOT PUSH1 0x1F DUP3 ADD AND DUP3 ADD DUP1 PUSH1 0x40 MSTORE POP DUP2 ADD SWAP1 PUSH3 0x225E SWAP2 SWAP1 PUSH3 0x36A9 JUMP JUMPDEST DUP7 PUSH1 0x60 ADD DUP2 DUP2 MSTORE POP POP DUP7 ISZERO PUSH3 0x24CD JUMPI PUSH1 0x0 DUP1 DUP6 PUSH20 0xFFFFFFFFFFFFFFFFFFFFFFFFFFFFFFFFFFFFFFFF AND PUSH4 0x902F1AC PUSH1 0x40 MLOAD DUP2 PUSH4 0xFFFFFFFF AND PUSH1 0xE0 SHL DUP2 MSTORE PUSH1 0x4 ADD PUSH1 0x60 PUSH1 0x40 MLOAD DUP1 DUP4 SUB DUP2 DUP7 DUP1 EXTCODESIZE ISZERO DUP1 ISZERO PUSH3 0x22B8 JUMPI PUSH1 0x0 DUP1 REVERT JUMPDEST POP GAS STATICCALL ISZERO DUP1 ISZERO PUSH3 0x22CD JUMPI RETURNDATASIZE PUSH1 0x0 DUP1 RETURNDATACOPY RETURNDATASIZE PUSH1 0x0 REVERT JUMPDEST POP POP POP POP PUSH1 0x40 MLOAD RETURNDATASIZE PUSH1 0x1F NOT PUSH1 0x1F DUP3 ADD AND DUP3 ADD DUP1 PUSH1 0x40 MSTORE POP DUP2 ADD SWAP1 PUSH3 0x22F3 SWAP2 SWAP1 PUSH3 0x364D JUMP JUMPDEST POP PUSH14 0xFFFFFFFFFFFFFFFFFFFFFFFFFFFF AND SWAP2 POP PUSH14 0xFFFFFFFFFFFFFFFFFFFFFFFFFFFF AND SWAP2 POP DUP13 PUSH20 0xFFFFFFFFFFFFFFFFFFFFFFFFFFFFFFFFFFFFFFFF AND DUP7 PUSH20 0xFFFFFFFFFFFFFFFFFFFFFFFFFFFFFFFFFFFFFFFF AND PUSH4 0xDFE1681 PUSH1 0x40 MLOAD DUP2 PUSH4 0xFFFFFFFF AND PUSH1 0xE0 SHL DUP2 MSTORE PUSH1 0x4 ADD PUSH1 0x20 PUSH1 0x40 MLOAD DUP1 DUP4 SUB DUP2 DUP7 DUP1 EXTCODESIZE ISZERO DUP1 ISZERO PUSH3 0x2376 JUMPI PUSH1 0x0 DUP1 REVERT JUMPDEST POP GAS STATICCALL ISZERO DUP1 ISZERO PUSH3 0x238B JUMPI RETURNDATASIZE PUSH1 0x0 DUP1 RETURNDATACOPY RETURNDATASIZE PUSH1 0x0 REVERT JUMPDEST POP POP POP POP PUSH1 0x40 MLOAD RETURNDATASIZE PUSH1 0x1F NOT PUSH1 0x1F DUP3 ADD AND DUP3 ADD DUP1 PUSH1 0x40 MSTORE POP DUP2 ADD SWAP1 PUSH3 0x23B1 SWAP2 SWAP1 PUSH3 0x334A JUMP JUMPDEST PUSH20 0xFFFFFFFFFFFFFFFFFFFFFFFFFFFFFFFFFFFFFFFF AND EQ ISZERO PUSH3 0x2402 JUMPI DUP2 DUP9 PUSH1 0x60 ADD MLOAD PUSH3 0x23E0 SWAP2 SWAP1 PUSH3 0x4553 JUMP JUMPDEST DUP9 PUSH1 0xC0 ADD DUP2 DUP2 MSTORE POP POP DUP4 DUP2 LT DUP9 PUSH2 0x120 ADD SWAP1 ISZERO ISZERO SWAP1 DUP2 ISZERO ISZERO DUP2 MSTORE POP POP PUSH3 0x2431 JUMP JUMPDEST DUP1 DUP9 PUSH1 0x60 ADD MLOAD PUSH3 0x2414 SWAP2 SWAP1 PUSH3 0x4553 JUMP JUMPDEST DUP9 PUSH1 0xC0 ADD DUP2 DUP2 MSTORE POP POP DUP5 DUP3 LT DUP9 PUSH2 0x120 ADD SWAP1 ISZERO ISZERO SWAP1 DUP2 ISZERO ISZERO DUP2 MSTORE POP POP JUMPDEST DUP3 DUP7 PUSH20 0xFFFFFFFFFFFFFFFFFFFFFFFFFFFFFFFFFFFFFFFF AND PUSH4 0x18160DDD PUSH1 0x40 MLOAD DUP2 PUSH4 0xFFFFFFFF AND PUSH1 0xE0 SHL DUP2 MSTORE PUSH1 0x4 ADD PUSH1 0x20 PUSH1 0x40 MLOAD DUP1 DUP4 SUB DUP2 DUP7 DUP1 EXTCODESIZE ISZERO DUP1 ISZERO PUSH3 0x2479 JUMPI PUSH1 0x0 DUP1 REVERT JUMPDEST POP GAS STATICCALL ISZERO DUP1 ISZERO PUSH3 0x248E JUMPI RETURNDATASIZE PUSH1 0x0 DUP1 RETURNDATACOPY RETURNDATASIZE PUSH1 0x0 REVERT JUMPDEST POP POP POP POP PUSH1 0x40 MLOAD RETURNDATASIZE PUSH1 0x1F NOT PUSH1 0x1F DUP3 ADD AND DUP3 ADD DUP1 PUSH1 0x40 MSTORE POP DUP2 ADD SWAP1 PUSH3 0x24B4 SWAP2 SWAP1 PUSH3 0x36A9 JUMP JUMPDEST GT DUP9 PUSH2 0x100 ADD SWAP1 ISZERO ISZERO SWAP1 DUP2 ISZERO ISZERO DUP2 MSTORE POP POP POP POP PUSH3 0x24ED JUMP JUMPDEST DUP6 PUSH1 0x40 ADD MLOAD DUP7 PUSH1 0x60 ADD MLOAD PUSH3 0x24E3 SWAP2 SWAP1 PUSH3 0x4553 JUMP JUMPDEST DUP7 PUSH1 0xC0 ADD DUP2 DUP2 MSTORE POP POP JUMPDEST DUP6 PUSH1 0x20 ADD MLOAD DUP7 PUSH1 0x0 ADD MLOAD SUB DUP7 PUSH1 0xA0 ADD DUP2 DUP2 MSTORE POP POP DUP6 PUSH1 0xA0 ADD MLOAD DUP9 SUB DUP7 PUSH1 0xE0 ADD DUP2 DUP2 MSTORE POP POP PUSH3 0x2525 DUP7 PUSH1 0xC0 ADD MLOAD DUP8 PUSH1 0xA0 ADD MLOAD PUSH3 0x2B65 JUMP JUMPDEST DUP7 PUSH2 0x140 ADD DUP2 DUP2 MSTORE POP POP POP POP POP POP POP SWAP6 SWAP5 POP POP POP POP POP JUMP JUMPDEST PUSH3 0x2547 PUSH3 0x2C68 JUMP JUMPDEST PUSH1 0x0 DUP6 SWAP1 POP PUSH1 0x0 DUP1 DUP7 EQ PUSH3 0x25DE JUMPI DUP2 PUSH20 0xFFFFFFFFFFFFFFFFFFFFFFFFFFFFFFFFFFFFFFFF AND PUSH4 0xDFE1681 PUSH1 0x40 MLOAD DUP2 PUSH4 0xFFFFFFFF AND PUSH1 0xE0 SHL DUP2 MSTORE PUSH1 0x4 ADD PUSH1 0x20 PUSH1 0x40 MLOAD DUP1 DUP4 SUB DUP2 DUP7 DUP1 EXTCODESIZE ISZERO DUP1 ISZERO PUSH3 0x259D JUMPI PUSH1 0x0 DUP1 REVERT JUMPDEST POP GAS STATICCALL ISZERO DUP1 ISZERO PUSH3 0x25B2 JUMPI RETURNDATASIZE PUSH1 0x0 DUP1 RETURNDATACOPY RETURNDATASIZE PUSH1 0x0 REVERT JUMPDEST POP POP POP POP PUSH1 0x40 MLOAD RETURNDATASIZE PUSH1 0x1F NOT PUSH1 0x1F DUP3 ADD AND DUP3 ADD DUP1 PUSH1 0x40 MSTORE POP DUP2 ADD SWAP1 PUSH3 0x25D8 SWAP2 SWAP1 PUSH3 0x334A JUMP JUMPDEST PUSH3 0x2661 JUMP JUMPDEST DUP2 PUSH20 0xFFFFFFFFFFFFFFFFFFFFFFFFFFFFFFFFFFFFFFFF AND PUSH4 0xD21220A7 PUSH1 0x40 MLOAD DUP2 PUSH4 0xFFFFFFFF AND PUSH1 0xE0 SHL DUP2 MSTORE PUSH1 0x4 ADD PUSH1 0x20 PUSH1 0x40 MLOAD DUP1 DUP4 SUB DUP2 DUP7 DUP1 EXTCODESIZE ISZERO DUP1 ISZERO PUSH3 0x2625 JUMPI PUSH1 0x0 DUP1 REVERT JUMPDEST POP GAS STATICCALL ISZERO DUP1 ISZERO PUSH3 0x263A JUMPI RETURNDATASIZE PUSH1 0x0 DUP1 RETURNDATACOPY RETURNDATASIZE PUSH1 0x0 REVERT JUMPDEST POP POP POP POP PUSH1 0x40 MLOAD RETURNDATASIZE PUSH1 0x1F NOT PUSH1 0x1F DUP3 ADD AND DUP3 ADD DUP1 PUSH1 0x40 MSTORE POP DUP2 ADD SWAP1 PUSH3 0x2660 SWAP2 SWAP1 PUSH3 0x334A JUMP JUMPDEST JUMPDEST SWAP1 POP PUSH1 0x0 DUP7 EQ PUSH3 0x2673 JUMPI DUP6 PUSH3 0x2675 JUMP JUMPDEST DUP5 JUMPDEST DUP4 PUSH1 0x80 ADD DUP2 DUP2 MSTORE POP POP DUP1 PUSH20 0xFFFFFFFFFFFFFFFFFFFFFFFFFFFFFFFFFFFFFFFF AND PUSH4 0x70A08231 DUP9 PUSH1 0x40 MLOAD DUP3 PUSH4 0xFFFFFFFF AND PUSH1 0xE0 SHL DUP2 MSTORE PUSH1 0x4 ADD PUSH3 0x26B9 SWAP2 SWAP1 PUSH3 0x3E63 JUMP JUMPDEST PUSH1 0x20 PUSH1 0x40 MLOAD DUP1 DUP4 SUB DUP2 DUP7 DUP1 EXTCODESIZE ISZERO DUP1 ISZERO PUSH3 0x26D2 JUMPI PUSH1 0x0 DUP1 REVERT JUMPDEST POP GAS STATICCALL ISZERO DUP1 ISZERO PUSH3 0x26E7 JUMPI RETURNDATASIZE PUSH1 0x0 DUP1 RETURNDATACOPY RETURNDATASIZE PUSH1 0x0 REVERT JUMPDEST POP POP POP POP PUSH1 0x40 MLOAD RETURNDATASIZE PUSH1 0x1F NOT PUSH1 0x1F DUP3 ADD AND DUP3 ADD DUP1 PUSH1 0x40 MSTORE POP DUP2 ADD SWAP1 PUSH3 0x270D SWAP2 SWAP1 PUSH3 0x36A9 JUMP JUMPDEST DUP4 PUSH1 0x0 ADD DUP2 DUP2 MSTORE POP POP DUP1 PUSH20 0xFFFFFFFFFFFFFFFFFFFFFFFFFFFFFFFFFFFFFFFF AND PUSH4 0x70A08231 DUP6 PUSH1 0x40 MLOAD DUP3 PUSH4 0xFFFFFFFF AND PUSH1 0xE0 SHL DUP2 MSTORE PUSH1 0x4 ADD PUSH3 0x2751 SWAP2 SWAP1 PUSH3 0x3E63 JUMP JUMPDEST PUSH1 0x20 PUSH1 0x40 MLOAD DUP1 DUP4 SUB DUP2 DUP7 DUP1 EXTCODESIZE ISZERO DUP1 ISZERO PUSH3 0x276A JUMPI PUSH1 0x0 DUP1 REVERT JUMPDEST POP GAS STATICCALL ISZERO DUP1 ISZERO PUSH3 0x277F JUMPI RETURNDATASIZE PUSH1 0x0 DUP1 RETURNDATACOPY RETURNDATASIZE PUSH1 0x0 REVERT JUMPDEST POP POP POP POP PUSH1 0x40 MLOAD RETURNDATASIZE PUSH1 0x1F NOT PUSH1 0x1F DUP3 ADD AND DUP3 ADD DUP1 PUSH1 0x40 MSTORE POP DUP2 ADD SWAP1 PUSH3 0x27A5 SWAP2 SWAP1 PUSH3 0x36A9 JUMP JUMPDEST DUP4 PUSH1 0x40 ADD DUP2 DUP2 MSTORE POP POP DUP2 PUSH20 0xFFFFFFFFFFFFFFFFFFFFFFFFFFFFFFFFFFFFFFFF AND PUSH4 0x22C0D9F DUP8 DUP8 DUP8 PUSH1 0x0 PUSH8 0xFFFFFFFFFFFFFFFF DUP2 GT ISZERO PUSH3 0x27EB JUMPI PUSH3 0x27EA PUSH3 0x47BF JUMP JUMPDEST JUMPDEST PUSH1 0x40 MLOAD SWAP1 DUP1 DUP3 MSTORE DUP1 PUSH1 0x1F ADD PUSH1 0x1F NOT AND PUSH1 0x20 ADD DUP3 ADD PUSH1 0x40 MSTORE DUP1 ISZERO PUSH3 0x281E JUMPI DUP2 PUSH1 0x20 ADD PUSH1 0x1 DUP3 MUL DUP1 CALLDATASIZE DUP4 CALLDATACOPY DUP1 DUP3 ADD SWAP2 POP POP SWAP1 POP JUMPDEST POP PUSH1 0x40 MLOAD DUP6 PUSH4 0xFFFFFFFF AND PUSH1 0xE0 SHL DUP2 MSTORE PUSH1 0x4 ADD PUSH3 0x2840 SWAP5 SWAP4 SWAP3 SWAP2 SWAP1 PUSH3 0x41A3 JUMP JUMPDEST PUSH1 0x0 PUSH1 0x40 MLOAD DUP1 DUP4 SUB DUP2 PUSH1 0x0 DUP8 DUP1 EXTCODESIZE ISZERO DUP1 ISZERO PUSH3 0x285B JUMPI PUSH1 0x0 DUP1 REVERT JUMPDEST POP GAS CALL ISZERO DUP1 ISZERO PUSH3 0x2870 JUMPI RETURNDATASIZE PUSH1 0x0 DUP1 RETURNDATACOPY RETURNDATASIZE PUSH1 0x0 REVERT JUMPDEST POP POP POP POP DUP1 PUSH20 0xFFFFFFFFFFFFFFFFFFFFFFFFFFFFFFFFFFFFFFFF AND PUSH4 0x70A08231 DUP9 PUSH1 0x40 MLOAD DUP3 PUSH4 0xFFFFFFFF AND PUSH1 0xE0 SHL DUP2 MSTORE PUSH1 0x4 ADD PUSH3 0x28AF SWAP2 SWAP1 PUSH3 0x3E63 JUMP JUMPDEST PUSH1 0x20 PUSH1 0x40 MLOAD DUP1 DUP4 SUB DUP2 DUP7 DUP1 EXTCODESIZE ISZERO DUP1 ISZERO PUSH3 0x28C8 JUMPI PUSH1 0x0 DUP1 REVERT JUMPDEST POP GAS STATICCALL ISZERO DUP1 ISZERO PUSH3 0x28DD JUMPI RETURNDATASIZE PUSH1 0x0 DUP1 RETURNDATACOPY RETURNDATASIZE PUSH1 0x0 REVERT JUMPDEST POP POP POP POP PUSH1 0x40 MLOAD RETURNDATASIZE PUSH1 0x1F NOT PUSH1 0x1F DUP3 ADD AND DUP3 ADD DUP1 PUSH1 0x40 MSTORE POP DUP2 ADD SWAP1 PUSH3 0x2903 SWAP2 SWAP1 PUSH3 0x36A9 JUMP JUMPDEST DUP4 PUSH1 0x20 ADD DUP2 DUP2 MSTORE POP POP DUP1 PUSH20 0xFFFFFFFFFFFFFFFFFFFFFFFFFFFFFFFFFFFFFFFF AND PUSH4 0x70A08231 DUP6 PUSH1 0x40 MLOAD DUP3 PUSH4 0xFFFFFFFF AND PUSH1 0xE0 SHL DUP2 MSTORE PUSH1 0x4 ADD PUSH3 0x2947 SWAP2 SWAP1 PUSH3 0x3E63 JUMP JUMPDEST PUSH1 0x20 PUSH1 0x40 MLOAD DUP1 DUP4 SUB DUP2 DUP7 DUP1 EXTCODESIZE ISZERO DUP1 ISZERO PUSH3 0x2960 JUMPI PUSH1 0x0 DUP1 REVERT JUMPDEST POP GAS STATICCALL ISZERO DUP1 ISZERO PUSH3 0x2975 JUMPI RETURNDATASIZE PUSH1 0x0 DUP1 RETURNDATACOPY RETURNDATASIZE PUSH1 0x0 REVERT JUMPDEST POP POP POP POP PUSH1 0x40 MLOAD RETURNDATASIZE PUSH1 0x1F NOT PUSH1 0x1F DUP3 ADD AND DUP3 ADD DUP1 PUSH1 0x40 MSTORE POP DUP2 ADD SWAP1 PUSH3 0x299B SWAP2 SWAP1 PUSH3 0x36A9 JUMP JUMPDEST DUP4 PUSH1 0x60 ADD DUP2 DUP2 MSTORE POP POP DUP3 PUSH1 0x40 ADD MLOAD DUP4 PUSH1 0x60 ADD MLOAD SUB DUP4 PUSH1 0xC0 ADD DUP2 DUP2 MSTORE POP POP DUP3 PUSH1 0x20 ADD MLOAD DUP4 PUSH1 0x0 ADD MLOAD SUB DUP4 PUSH1 0xA0 ADD DUP2 DUP2 MSTORE POP POP DUP3 PUSH1 0xA0 ADD MLOAD DUP4 PUSH1 0x80 ADD MLOAD SUB DUP4 PUSH1 0xE0 ADD DUP2 DUP2 MSTORE POP POP PUSH3 0x29F4 DUP4 PUSH1 0xC0 ADD MLOAD DUP5 PUSH1 0xA0 ADD MLOAD PUSH3 0x2B65 JUMP JUMPDEST DUP4 PUSH2 0x140 ADD DUP2 DUP2 MSTORE POP POP POP POP SWAP5 SWAP4 POP POP POP POP JUMP JUMPDEST PUSH1 0x0 DUP1 DUP4 DUP4 PUSH1 0x40 MLOAD PUSH3 0x2A1B SWAP1 PUSH3 0x2CC6 JUMP JUMPDEST PUSH3 0x2A28 SWAP3 SWAP2 SWAP1 PUSH3 0x3E80 JUMP JUMPDEST PUSH1 0x40 MLOAD DUP1 SWAP2 SUB SWAP1 PUSH1 0x0 CREATE DUP1 ISZERO DUP1 ISZERO PUSH3 0x2A45 JUMPI RETURNDATASIZE PUSH1 0x0 DUP1 RETURNDATACOPY RETURNDATASIZE PUSH1 0x0 REVERT JUMPDEST POP SWAP1 POP DUP1 PUSH20 0xFFFFFFFFFFFFFFFFFFFFFFFFFFFFFFFFFFFFFFFF AND PUSH4 0x41C0E1B5 PUSH1 0x40 MLOAD DUP2 PUSH4 0xFFFFFFFF AND PUSH1 0xE0 SHL DUP2 MSTORE PUSH1 0x4 ADD PUSH1 0x0 PUSH1 0x40 MLOAD DUP1 DUP4 SUB DUP2 PUSH1 0x0 DUP8 DUP1 EXTCODESIZE ISZERO DUP1 ISZERO PUSH3 0x2A91 JUMPI PUSH1 0x0 DUP1 REVERT JUMPDEST POP GAS CALL ISZERO DUP1 ISZERO PUSH3 0x2AA6 JUMPI RETURNDATASIZE PUSH1 0x0 DUP1 RETURNDATACOPY RETURNDATASIZE PUSH1 0x0 REVERT JUMPDEST POP POP POP POP PUSH1 0x2 DUP2 SWAP1 DUP1 PUSH1 0x1 DUP2 SLOAD ADD DUP1 DUP3 SSTORE DUP1 SWAP2 POP POP PUSH1 0x1 SWAP1 SUB SWAP1 PUSH1 0x0 MSTORE PUSH1 0x20 PUSH1 0x0 KECCAK256 ADD PUSH1 0x0 SWAP1 SWAP2 SWAP1 SWAP2 SWAP1 SWAP2 PUSH2 0x100 EXP DUP2 SLOAD DUP2 PUSH20 0xFFFFFFFFFFFFFFFFFFFFFFFFFFFFFFFFFFFFFFFF MUL NOT AND SWAP1 DUP4 PUSH20 0xFFFFFFFFFFFFFFFFFFFFFFFFFFFFFFFFFFFFFFFF AND MUL OR SWAP1 SSTORE POP DUP1 SWAP2 POP POP SWAP3 SWAP2 POP POP JUMP JUMPDEST PUSH1 0x0 DUP1 SLOAD PUSH1 0x1 PUSH1 0x0 DUP1 SLOAD DUP2 MSTORE PUSH1 0x20 ADD SWAP1 DUP2 MSTORE PUSH1 0x20 ADD PUSH1 0x0 KECCAK256 SLOAD NUMBER TIMESTAMP PUSH1 0x40 MLOAD PUSH1 0x20 ADD PUSH3 0x2B47 SWAP5 SWAP4 SWAP3 SWAP2 SWAP1 PUSH3 0x41F7 JUMP JUMPDEST PUSH1 0x40 MLOAD PUSH1 0x20 DUP2 DUP4 SUB SUB DUP2 MSTORE SWAP1 PUSH1 0x40 MSTORE DUP1 MLOAD SWAP1 PUSH1 0x20 ADD KECCAK256 PUSH1 0x0 SHR SWAP1 POP SWAP1 JUMP JUMPDEST PUSH1 0x0 DUP1 DUP3 EQ ISZERO PUSH3 0x2B7A JUMPI PUSH1 0x0 SWAP1 POP PUSH3 0x2BA9 JUMP JUMPDEST DUP2 PUSH2 0x2710 DUP5 PUSH3 0x2B8B SWAP2 SWAP1 PUSH3 0x4454 JUMP JUMPDEST PUSH3 0x2B97 SWAP2 SWAP1 PUSH3 0x441C JUMP JUMPDEST PUSH2 0x2710 PUSH3 0x2BA6 SWAP2 SWAP1 PUSH3 0x44B5 JUMP JUMPDEST SWAP1 POP JUMPDEST SWAP3 SWAP2 POP POP JUMP JUMPDEST PUSH1 0x40 MLOAD DUP1 PUSH2 0x100 ADD PUSH1 0x40 MSTORE DUP1 PUSH1 0x0 DUP2 MSTORE PUSH1 0x20 ADD PUSH1 0x0 DUP2 MSTORE PUSH1 0x20 ADD PUSH3 0x2BD3 PUSH3 0x2C14 JUMP JUMPDEST DUP2 MSTORE PUSH1 0x20 ADD PUSH3 0x2BE2 PUSH3 0x2C14 JUMP JUMPDEST DUP2 MSTORE PUSH1 0x20 ADD PUSH3 0x2BF1 PUSH3 0x2C14 JUMP JUMPDEST DUP2 MSTORE PUSH1 0x20 ADD PUSH3 0x2C00 PUSH3 0x2CD4 JUMP JUMPDEST DUP2 MSTORE PUSH1 0x20 ADD PUSH1 0x0 DUP2 MSTORE PUSH1 0x20 ADD PUSH1 0x0 DUP2 MSTORE POP SWAP1 JUMP JUMPDEST PUSH1 0x40 MLOAD DUP1 PUSH1 0xA0 ADD PUSH1 0x40 MSTORE DUP1 PUSH1 0x0 PUSH1 0x2 DUP2 GT ISZERO PUSH3 0x2C36 JUMPI PUSH3 0x2C35 PUSH3 0x4761 JUMP JUMPDEST JUMPDEST DUP2 MSTORE PUSH1 0x20 ADD PUSH1 0x0 DUP2 MSTORE PUSH1 0x20 ADD PUSH3 0x2C4C PUSH3 0x2C68 JUMP JUMPDEST DUP2 MSTORE PUSH1 0x20 ADD PUSH3 0x2C5B PUSH3 0x2C68 JUMP JUMPDEST DUP2 MSTORE PUSH1 0x20 ADD PUSH1 0x60 DUP2 MSTORE POP SWAP1 JUMP JUMPDEST PUSH1 0x40 MLOAD DUP1 PUSH2 0x160 ADD PUSH1 0x40 MSTORE DUP1 PUSH1 0x0 DUP2 MSTORE PUSH1 0x20 ADD PUSH1 0x0 DUP2 MSTORE PUSH1 0x20 ADD PUSH1 0x0 DUP2 MSTORE PUSH1 0x20 ADD PUSH1 0x0 DUP2 MSTORE PUSH1 0x20 ADD PUSH1 0x0 DUP2 MSTORE PUSH1 0x20 ADD PUSH1 0x0 DUP2 MSTORE PUSH1 0x20 ADD PUSH1 0x0 DUP2 MSTORE PUSH1 0x20 ADD PUSH1 0x0 DUP2 MSTORE PUSH1 0x20 ADD PUSH1 0x0 ISZERO ISZERO DUP2 MSTORE PUSH1 0x20 ADD PUSH1 0x0 ISZERO ISZERO DUP2 MSTORE PUSH1 0x20 ADD PUSH1 0x0 DUP2 MSTORE POP SWAP1 JUMP JUMPDEST PUSH2 0x380 DUP1 PUSH3 0x4A69 DUP4 CODECOPY ADD SWAP1 JUMP JUMPDEST PUSH1 0x40 MLOAD DUP1 PUSH1 0x60 ADD PUSH1 0x40 MSTORE DUP1 PUSH1 0x0 PUSH20 0xFFFFFFFFFFFFFFFFFFFFFFFFFFFFFFFFFFFFFFFF AND DUP2 MSTORE PUSH1 0x20 ADD PUSH1 0x0 DUP2 MSTORE PUSH1 0x20 ADD PUSH1 0x0 DUP2 MSTORE POP SWAP1 JUMP JUMPDEST PUSH1 0x0 PUSH3 0x2D22 PUSH3 0x2D1C DUP5 PUSH3 0x426D JUMP JUMPDEST PUSH3 0x4244 JUMP JUMPDEST SWAP1 POP DUP1 DUP4 DUP3 MSTORE PUSH1 0x20 DUP3 ADD SWAP1 POP DUP3 DUP6 PUSH1 0x20 DUP7 MUL DUP3 ADD GT ISZERO PUSH3 0x2D48 JUMPI PUSH3 0x2D47 PUSH3 0x482C JUMP JUMPDEST JUMPDEST PUSH1 0x0 JUMPDEST DUP6 DUP2 LT ISZERO PUSH3 0x2D7C JUMPI DUP2 PUSH3 0x2D61 DUP9 DUP3 PUSH3 0x32EA JUMP JUMPDEST DUP5 MSTORE PUSH1 0x20 DUP5 ADD SWAP4 POP PUSH1 0x20 DUP4 ADD SWAP3 POP POP PUSH1 0x1 DUP2 ADD SWAP1 POP PUSH3 0x2D4B JUMP JUMPDEST POP POP POP SWAP4 SWAP3 POP POP POP JUMP JUMPDEST PUSH1 0x0 PUSH3 0x2D9D PUSH3 0x2D97 DUP5 PUSH3 0x429C JUMP JUMPDEST PUSH3 0x4244 JUMP JUMPDEST SWAP1 POP DUP3 DUP2 MSTORE PUSH1 0x20 DUP2 ADD DUP5 DUP5 DUP5 ADD GT ISZERO PUSH3 0x2DBC JUMPI PUSH3 0x2DBB PUSH3 0x4831 JUMP JUMPDEST JUMPDEST PUSH3 0x2DC9 DUP5 DUP3 DUP6 PUSH3 0x4649 JUMP JUMPDEST POP SWAP4 SWAP3 POP POP POP JUMP JUMPDEST PUSH1 0x0 DUP2 CALLDATALOAD SWAP1 POP PUSH3 0x2DE2 DUP2 PUSH3 0x49BB JUMP JUMPDEST SWAP3 SWAP2 POP POP JUMP JUMPDEST PUSH1 0x0 DUP2 MLOAD SWAP1 POP PUSH3 0x2DF9 DUP2 PUSH3 0x49BB JUMP JUMPDEST SWAP3 SWAP2 POP POP JUMP JUMPDEST PUSH1 0x0 DUP1 DUP4 PUSH1 0x1F DUP5 ADD SLT PUSH3 0x2E18 JUMPI PUSH3 0x2E17 PUSH3 0x4818 JUMP JUMPDEST JUMPDEST DUP3 CALLDATALOAD SWAP1 POP PUSH8 0xFFFFFFFFFFFFFFFF DUP2 GT ISZERO PUSH3 0x2E38 JUMPI PUSH3 0x2E37 PUSH3 0x4813 JUMP JUMPDEST JUMPDEST PUSH1 0x20 DUP4 ADD SWAP2 POP DUP4 PUSH1 0xE0 DUP3 MUL DUP4 ADD GT ISZERO PUSH3 0x2E57 JUMPI PUSH3 0x2E56 PUSH3 0x482C JUMP JUMPDEST JUMPDEST SWAP3 POP SWAP3 SWAP1 POP JUMP JUMPDEST PUSH1 0x0 DUP3 PUSH1 0x1F DUP4 ADD SLT PUSH3 0x2E76 JUMPI PUSH3 0x2E75 PUSH3 0x4818 JUMP JUMPDEST JUMPDEST DUP2 MLOAD PUSH3 0x2E88 DUP5 DUP3 PUSH1 0x20 DUP7 ADD PUSH3 0x2D0B JUMP JUMPDEST SWAP2 POP POP SWAP3 SWAP2 POP POP JUMP JUMPDEST PUSH1 0x0 DUP2 MLOAD SWAP1 POP PUSH3 0x2EA2 DUP2 PUSH3 0x49D5 JUMP JUMPDEST SWAP3 SWAP2 POP POP JUMP JUMPDEST PUSH1 0x0 DUP2 MLOAD SWAP1 POP PUSH3 0x2EB9 DUP2 PUSH3 0x49EF JUMP JUMPDEST SWAP3 SWAP2 POP POP JUMP JUMPDEST PUSH1 0x0 DUP2 MLOAD SWAP1 POP PUSH3 0x2ED0 DUP2 PUSH3 0x4A00 JUMP JUMPDEST SWAP3 SWAP2 POP POP JUMP JUMPDEST PUSH1 0x0 DUP3 PUSH1 0x1F DUP4 ADD SLT PUSH3 0x2EEE JUMPI PUSH3 0x2EED PUSH3 0x4818 JUMP JUMPDEST JUMPDEST DUP2 MLOAD PUSH3 0x2F00 DUP5 DUP3 PUSH1 0x20 DUP7 ADD PUSH3 0x2D86 JUMP JUMPDEST SWAP2 POP POP SWAP3 SWAP2 POP POP JUMP JUMPDEST PUSH1 0x0 PUSH1 0x60 DUP3 DUP5 SUB SLT ISZERO PUSH3 0x2F22 JUMPI PUSH3 0x2F21 PUSH3 0x4822 JUMP JUMPDEST JUMPDEST PUSH3 0x2F2E PUSH1 0x60 PUSH3 0x4244 JUMP JUMPDEST SWAP1 POP PUSH1 0x0 PUSH3 0x2F40 DUP5 DUP3 DUP6 ADD PUSH3 0x2DE8 JUMP JUMPDEST PUSH1 0x0 DUP4 ADD MSTORE POP PUSH1 0x20 PUSH3 0x2F56 DUP5 DUP3 DUP6 ADD PUSH3 0x32EA JUMP JUMPDEST PUSH1 0x20 DUP4 ADD MSTORE POP PUSH1 0x40 PUSH3 0x2F6C DUP5 DUP3 DUP6 ADD PUSH3 0x32EA JUMP JUMPDEST PUSH1 0x40 DUP4 ADD MSTORE POP SWAP3 SWAP2 POP POP JUMP JUMPDEST PUSH1 0x0 PUSH2 0x160 DUP3 DUP5 SUB SLT ISZERO PUSH3 0x2F92 JUMPI PUSH3 0x2F91 PUSH3 0x4822 JUMP JUMPDEST JUMPDEST PUSH3 0x2F9F PUSH2 0x160 PUSH3 0x4244 JUMP JUMPDEST SWAP1 POP PUSH1 0x0 PUSH3 0x2FB1 DUP5 DUP3 DUP6 ADD PUSH3 0x32EA JUMP JUMPDEST PUSH1 0x0 DUP4 ADD MSTORE POP PUSH1 0x20 PUSH3 0x2FC7 DUP5 DUP3 DUP6 ADD PUSH3 0x32EA JUMP JUMPDEST PUSH1 0x20 DUP4 ADD MSTORE POP PUSH1 0x40 PUSH3 0x2FDD DUP5 DUP3 DUP6 ADD PUSH3 0x32EA JUMP JUMPDEST PUSH1 0x40 DUP4 ADD MSTORE POP PUSH1 0x60 PUSH3 0x2FF3 DUP5 DUP3 DUP6 ADD PUSH3 0x32EA JUMP JUMPDEST PUSH1 0x60 DUP4 ADD MSTORE POP PUSH1 0x80 PUSH3 0x3009 DUP5 DUP3 DUP6 ADD PUSH3 0x32EA JUMP JUMPDEST PUSH1 0x80 DUP4 ADD MSTORE POP PUSH1 0xA0 PUSH3 0x301F DUP5 DUP3 DUP6 ADD PUSH3 0x32EA JUMP JUMPDEST PUSH1 0xA0 DUP4 ADD MSTORE POP PUSH1 0xC0 PUSH3 0x3035 DUP5 DUP3 DUP6 ADD PUSH3 0x32EA JUMP JUMPDEST PUSH1 0xC0 DUP4 ADD MSTORE POP PUSH1 0xE0 PUSH3 0x304B DUP5 DUP3 DUP6 ADD PUSH3 0x32EA JUMP JUMPDEST PUSH1 0xE0 DUP4 ADD MSTORE POP PUSH2 0x100 PUSH3 0x3062 DUP5 DUP3 DUP6 ADD PUSH3 0x2E91 JUMP JUMPDEST PUSH2 0x100 DUP4 ADD MSTORE POP PUSH2 0x120 PUSH3 0x307A DUP5 DUP3 DUP6 ADD PUSH3 0x2E91 JUMP JUMPDEST PUSH2 0x120 DUP4 ADD MSTORE POP PUSH2 0x140 PUSH3 0x3092 DUP5 DUP3 DUP6 ADD PUSH3 0x2EBF JUMP JUMPDEST PUSH2 0x140 DUP4 ADD MSTORE POP SWAP3 SWAP2 POP POP JUMP JUMPDEST PUSH1 0x0 PUSH1 0xE0 DUP3 DUP5 SUB SLT ISZERO PUSH3 0x30B8 JUMPI PUSH3 0x30B7 PUSH3 0x481D JUMP JUMPDEST JUMPDEST DUP2 SWAP1 POP SWAP3 SWAP2 POP POP JUMP JUMPDEST PUSH1 0x0 PUSH2 0x320 DUP3 DUP5 SUB SLT ISZERO PUSH3 0x30DB JUMPI PUSH3 0x30DA PUSH3 0x4822 JUMP JUMPDEST JUMPDEST PUSH3 0x30E7 PUSH1 0xA0 PUSH3 0x4244 JUMP JUMPDEST SWAP1 POP PUSH1 0x0 PUSH3 0x30F9 DUP5 DUP3 DUP6 ADD PUSH3 0x2EA8 JUMP JUMPDEST PUSH1 0x0 DUP4 ADD MSTORE POP PUSH1 0x20 PUSH3 0x310F DUP5 DUP3 DUP6 ADD PUSH3 0x32EA JUMP JUMPDEST PUSH1 0x20 DUP4 ADD MSTORE POP PUSH1 0x40 PUSH3 0x3125 DUP5 DUP3 DUP6 ADD PUSH3 0x2F78 JUMP JUMPDEST PUSH1 0x40 DUP4 ADD MSTORE POP PUSH2 0x1A0 PUSH3 0x313C DUP5 DUP3 DUP6 ADD PUSH3 0x2F78 JUMP JUMPDEST PUSH1 0x60 DUP4 ADD MSTORE POP PUSH2 0x300 DUP3 ADD MLOAD PUSH8 0xFFFFFFFFFFFFFFFF DUP2 GT ISZERO PUSH3 0x3164 JUMPI PUSH3 0x3163 PUSH3 0x4827 JUMP JUMPDEST JUMPDEST PUSH3 0x3172 DUP5 DUP3 DUP6 ADD PUSH3 0x2ED6 JUMP JUMPDEST PUSH1 0x80 DUP4 ADD MSTORE POP SWAP3 SWAP2 POP POP JUMP JUMPDEST PUSH1 0x0 PUSH2 0x140 DUP3 DUP5 SUB SLT ISZERO PUSH3 0x3198 JUMPI PUSH3 0x3197 PUSH3 0x4822 JUMP JUMPDEST JUMPDEST PUSH3 0x31A5 PUSH2 0x100 PUSH3 0x4244 JUMP JUMPDEST SWAP1 POP PUSH1 0x0 PUSH3 0x31B7 DUP5 DUP3 DUP6 ADD PUSH3 0x32EA JUMP JUMPDEST PUSH1 0x0 DUP4 ADD MSTORE POP PUSH1 0x20 PUSH3 0x31CD DUP5 DUP3 DUP6 ADD PUSH3 0x32EA JUMP JUMPDEST PUSH1 0x20 DUP4 ADD MSTORE POP PUSH1 0x40 DUP3 ADD MLOAD PUSH8 0xFFFFFFFFFFFFFFFF DUP2 GT ISZERO PUSH3 0x31F4 JUMPI PUSH3 0x31F3 PUSH3 0x4827 JUMP JUMPDEST JUMPDEST PUSH3 0x3202 DUP5 DUP3 DUP6 ADD PUSH3 0x30C1 JUMP JUMPDEST PUSH1 0x40 DUP4 ADD MSTORE POP PUSH1 0x60 DUP3 ADD MLOAD PUSH8 0xFFFFFFFFFFFFFFFF DUP2 GT ISZERO PUSH3 0x3229 JUMPI PUSH3 0x3228 PUSH3 0x4827 JUMP JUMPDEST JUMPDEST PUSH3 0x3237 DUP5 DUP3 DUP6 ADD PUSH3 0x30C1 JUMP JUMPDEST PUSH1 0x60 DUP4 ADD MSTORE POP PUSH1 0x80 DUP3 ADD MLOAD PUSH8 0xFFFFFFFFFFFFFFFF DUP2 GT ISZERO PUSH3 0x325E JUMPI PUSH3 0x325D PUSH3 0x4827 JUMP JUMPDEST JUMPDEST PUSH3 0x326C DUP5 DUP3 DUP6 ADD PUSH3 0x30C1 JUMP JUMPDEST PUSH1 0x80 DUP4 ADD MSTORE POP PUSH1 0xA0 PUSH3 0x3282 DUP5 DUP3 DUP6 ADD PUSH3 0x2F09 JUMP JUMPDEST PUSH1 0xA0 DUP4 ADD MSTORE POP PUSH2 0x100 PUSH3 0x3299 DUP5 DUP3 DUP6 ADD PUSH3 0x32EA JUMP JUMPDEST PUSH1 0xC0 DUP4 ADD MSTORE POP PUSH2 0x120 PUSH3 0x32B0 DUP5 DUP3 DUP6 ADD PUSH3 0x32EA JUMP JUMPDEST PUSH1 0xE0 DUP4 ADD MSTORE POP SWAP3 SWAP2 POP POP JUMP JUMPDEST PUSH1 0x0 DUP2 MLOAD SWAP1 POP PUSH3 0x32CD DUP2 PUSH3 0x4A1A JUMP JUMPDEST SWAP3 SWAP2 POP POP JUMP JUMPDEST PUSH1 0x0 DUP2 CALLDATALOAD SWAP1 POP PUSH3 0x32E4 DUP2 PUSH3 0x4A34 JUMP JUMPDEST SWAP3 SWAP2 POP POP JUMP JUMPDEST PUSH1 0x0 DUP2 MLOAD SWAP1 POP PUSH3 0x32FB DUP2 PUSH3 0x4A34 JUMP JUMPDEST SWAP3 SWAP2 POP POP JUMP JUMPDEST PUSH1 0x0 DUP2 MLOAD SWAP1 POP PUSH3 0x3312 DUP2 PUSH3 0x4A4E JUMP JUMPDEST SWAP3 SWAP2 POP POP JUMP JUMPDEST PUSH1 0x0 PUSH1 0x20 DUP3 DUP5 SUB SLT ISZERO PUSH3 0x3331 JUMPI PUSH3 0x3330 PUSH3 0x483B JUMP JUMPDEST JUMPDEST PUSH1 0x0 PUSH3 0x3341 DUP5 DUP3 DUP6 ADD PUSH3 0x2DD1 JUMP JUMPDEST SWAP2 POP POP SWAP3 SWAP2 POP POP JUMP JUMPDEST PUSH1 0x0 PUSH1 0x20 DUP3 DUP5 SUB SLT ISZERO PUSH3 0x3363 JUMPI PUSH3 0x3362 PUSH3 0x483B JUMP JUMPDEST JUMPDEST PUSH1 0x0 PUSH3 0x3373 DUP5 DUP3 DUP6 ADD PUSH3 0x2DE8 JUMP JUMPDEST SWAP2 POP POP SWAP3 SWAP2 POP POP JUMP JUMPDEST PUSH1 0x0 DUP1 PUSH1 0x0 DUP1 PUSH1 0x0 DUP1 PUSH1 0x0 PUSH1 0xE0 DUP9 DUP11 SUB SLT ISZERO PUSH3 0x339E JUMPI PUSH3 0x339D PUSH3 0x483B JUMP JUMPDEST JUMPDEST PUSH1 0x0 PUSH3 0x33AE DUP11 DUP3 DUP12 ADD PUSH3 0x2DD1 JUMP JUMPDEST SWAP8 POP POP PUSH1 0x20 PUSH3 0x33C1 DUP11 DUP3 DUP12 ADD PUSH3 0x2DD1 JUMP JUMPDEST SWAP7 POP POP PUSH1 0x40 PUSH3 0x33D4 DUP11 DUP3 DUP12 ADD PUSH3 0x2DD1 JUMP JUMPDEST SWAP6 POP POP PUSH1 0x60 PUSH3 0x33E7 DUP11 DUP3 DUP12 ADD PUSH3 0x2DD1 JUMP JUMPDEST SWAP5 POP POP PUSH1 0x80 PUSH3 0x33FA DUP11 DUP3 DUP12 ADD PUSH3 0x2DD1 JUMP JUMPDEST SWAP4 POP POP PUSH1 0xA0 PUSH3 0x340D DUP11 DUP3 DUP12 ADD PUSH3 0x32D3 JUMP JUMPDEST SWAP3 POP POP PUSH1 0xC0 PUSH3 0x3420 DUP11 DUP3 DUP12 ADD PUSH3 0x32D3 JUMP JUMPDEST SWAP2 POP POP SWAP3 SWAP6 SWAP9 SWAP2 SWAP5 SWAP8 POP SWAP3 SWAP6 POP JUMP JUMPDEST PUSH1 0x0 DUP1 PUSH1 0x0 DUP1 PUSH1 0x80 DUP6 DUP8 SUB SLT ISZERO PUSH3 0x344C JUMPI PUSH3 0x344B PUSH3 0x483B JUMP JUMPDEST JUMPDEST PUSH1 0x0 PUSH3 0x345C DUP8 DUP3 DUP9 ADD PUSH3 0x2DD1 JUMP JUMPDEST SWAP5 POP POP PUSH1 0x20 PUSH3 0x346F DUP8 DUP3 DUP9 ADD PUSH3 0x2DD1 JUMP JUMPDEST SWAP4 POP POP PUSH1 0x40 PUSH3 0x3482 DUP8 DUP3 DUP9 ADD PUSH3 0x2DD1 JUMP JUMPDEST SWAP3 POP POP PUSH1 0x60 PUSH3 0x3495 DUP8 DUP3 DUP9 ADD PUSH3 0x32D3 JUMP JUMPDEST SWAP2 POP POP SWAP3 SWAP6 SWAP2 SWAP5 POP SWAP3 POP JUMP JUMPDEST PUSH1 0x0 DUP1 PUSH1 0x20 DUP4 DUP6 SUB SLT ISZERO PUSH3 0x34BB JUMPI PUSH3 0x34BA PUSH3 0x483B JUMP JUMPDEST JUMPDEST PUSH1 0x0 DUP4 ADD CALLDATALOAD PUSH8 0xFFFFFFFFFFFFFFFF DUP2 GT ISZERO PUSH3 0x34DC JUMPI PUSH3 0x34DB PUSH3 0x4836 JUMP JUMPDEST JUMPDEST PUSH3 0x34EA DUP6 DUP3 DUP7 ADD PUSH3 0x2DFF JUMP JUMPDEST SWAP3 POP SWAP3 POP POP SWAP3 POP SWAP3 SWAP1 POP JUMP JUMPDEST PUSH1 0x0 PUSH1 0x20 DUP3 DUP5 SUB SLT ISZERO PUSH3 0x350F JUMPI PUSH3 0x350E PUSH3 0x483B JUMP JUMPDEST JUMPDEST PUSH1 0x0 DUP3 ADD MLOAD PUSH8 0xFFFFFFFFFFFFFFFF DUP2 GT ISZERO PUSH3 0x3530 JUMPI PUSH3 0x352F PUSH3 0x4836 JUMP JUMPDEST JUMPDEST PUSH3 0x353E DUP5 DUP3 DUP6 ADD PUSH3 0x2E5E JUMP JUMPDEST SWAP2 POP POP SWAP3 SWAP2 POP POP JUMP JUMPDEST PUSH1 0x0 PUSH1 0x20 DUP3 DUP5 SUB SLT ISZERO PUSH3 0x3560 JUMPI PUSH3 0x355F PUSH3 0x483B JUMP JUMPDEST JUMPDEST PUSH1 0x0 PUSH3 0x3570 DUP5 DUP3 DUP6 ADD PUSH3 0x2E91 JUMP JUMPDEST SWAP2 POP POP SWAP3 SWAP2 POP POP JUMP JUMPDEST PUSH1 0x0 PUSH1 0xE0 DUP3 DUP5 SUB SLT ISZERO PUSH3 0x3592 JUMPI PUSH3 0x3591 PUSH3 0x483B JUMP JUMPDEST JUMPDEST PUSH1 0x0 PUSH3 0x35A2 DUP5 DUP3 DUP6 ADD PUSH3 0x309F JUMP JUMPDEST SWAP2 POP POP SWAP3 SWAP2 POP POP JUMP JUMPDEST PUSH1 0x0 PUSH1 0x20 DUP3 DUP5 SUB SLT ISZERO PUSH3 0x35C4 JUMPI PUSH3 0x35C3 PUSH3 0x483B JUMP JUMPDEST JUMPDEST PUSH1 0x0 DUP3 ADD MLOAD PUSH8 0xFFFFFFFFFFFFFFFF DUP2 GT ISZERO PUSH3 0x35E5 JUMPI PUSH3 0x35E4 PUSH3 0x4836 JUMP JUMPDEST JUMPDEST PUSH3 0x35F3 DUP5 DUP3 DUP6 ADD PUSH3 0x30C1 JUMP JUMPDEST SWAP2 POP POP SWAP3 SWAP2 POP POP JUMP JUMPDEST PUSH1 0x0 PUSH1 0x20 DUP3 DUP5 SUB SLT ISZERO PUSH3 0x3615 JUMPI PUSH3 0x3614 PUSH3 0x483B JUMP JUMPDEST JUMPDEST PUSH1 0x0 DUP3 ADD MLOAD PUSH8 0xFFFFFFFFFFFFFFFF DUP2 GT ISZERO PUSH3 0x3636 JUMPI PUSH3 0x3635 PUSH3 0x4836 JUMP JUMPDEST JUMPDEST PUSH3 0x3644 DUP5 DUP3 DUP6 ADD PUSH3 0x317E JUMP JUMPDEST SWAP2 POP POP SWAP3 SWAP2 POP POP JUMP JUMPDEST PUSH1 0x0 DUP1 PUSH1 0x0 PUSH1 0x60 DUP5 DUP7 SUB SLT ISZERO PUSH3 0x3669 JUMPI PUSH3 0x3668 PUSH3 0x483B JUMP JUMPDEST JUMPDEST PUSH1 0x0 PUSH3 0x3679 DUP7 DUP3 DUP8 ADD PUSH3 0x32BC JUMP JUMPDEST SWAP4 POP POP PUSH1 0x20 PUSH3 0x368C DUP7 DUP3 DUP8 ADD PUSH3 0x32BC JUMP JUMPDEST SWAP3 POP POP PUSH1 0x40 PUSH3 0x369F DUP7 DUP3 DUP8 ADD PUSH3 0x3301 JUMP JUMPDEST SWAP2 POP POP SWAP3 POP SWAP3 POP SWAP3 JUMP JUMPDEST PUSH1 0x0 PUSH1 0x20 DUP3 DUP5 SUB SLT ISZERO PUSH3 0x36C2 JUMPI PUSH3 0x36C1 PUSH3 0x483B JUMP JUMPDEST JUMPDEST PUSH1 0x0 PUSH3 0x36D2 DUP5 DUP3 DUP6 ADD PUSH3 0x32EA JUMP JUMPDEST SWAP2 POP POP SWAP3 SWAP2 POP POP JUMP JUMPDEST PUSH1 0x0 PUSH3 0x36E9 DUP4 DUP4 PUSH3 0x370B JUMP JUMPDEST PUSH1 0x20 DUP4 ADD SWAP1 POP SWAP3 SWAP2 POP POP JUMP JUMPDEST PUSH1 0x0 PUSH3 0x3703 DUP4 DUP4 PUSH3 0x3CA1 JUMP JUMPDEST SWAP1 POP SWAP3 SWAP2 POP POP JUMP JUMPDEST PUSH3 0x3716 DUP2 PUSH3 0x458E JUMP JUMPDEST DUP3 MSTORE POP POP JUMP JUMPDEST PUSH3 0x3727 DUP2 PUSH3 0x458E JUMP JUMPDEST DUP3 MSTORE POP POP JUMP JUMPDEST PUSH1 0x0 PUSH3 0x373A DUP3 PUSH3 0x42F2 JUMP JUMPDEST PUSH3 0x3746 DUP2 DUP6 PUSH3 0x4338 JUMP JUMPDEST SWAP4 POP PUSH3 0x3753 DUP4 PUSH3 0x42D2 JUMP JUMPDEST DUP1 PUSH1 0x0 JUMPDEST DUP4 DUP2 LT ISZERO PUSH3 0x378A JUMPI DUP2 MLOAD PUSH3 0x376E DUP9 DUP3 PUSH3 0x36DB JUMP JUMPDEST SWAP8 POP PUSH3 0x377B DUP4 PUSH3 0x431E JUMP JUMPDEST SWAP3 POP POP PUSH1 0x1 DUP2 ADD SWAP1 POP PUSH3 0x3757 JUMP JUMPDEST POP DUP6 SWAP4 POP POP POP POP SWAP3 SWAP2 POP POP JUMP JUMPDEST PUSH1 0x0 PUSH3 0x37A4 DUP3 PUSH3 0x42FD JUMP JUMPDEST PUSH3 0x37B0 DUP2 DUP6 PUSH3 0x4349 JUMP JUMPDEST SWAP4 POP DUP4 PUSH1 0x20 DUP3 MUL DUP6 ADD PUSH3 0x37C4 DUP6 PUSH3 0x42E2 JUMP JUMPDEST DUP1 PUSH1 0x0 JUMPDEST DUP6 DUP2 LT ISZERO PUSH3 0x3806 JUMPI DUP5 DUP5 SUB DUP10 MSTORE DUP2 MLOAD PUSH3 0x37E4 DUP6 DUP3 PUSH3 0x36F5 JUMP JUMPDEST SWAP5 POP PUSH3 0x37F1 DUP4 PUSH3 0x432B JUMP JUMPDEST SWAP3 POP PUSH1 0x20 DUP11 ADD SWAP10 POP POP PUSH1 0x1 DUP2 ADD SWAP1 POP PUSH3 0x37C8 JUMP JUMPDEST POP DUP3 SWAP8 POP DUP8 SWAP6 POP POP POP POP POP POP SWAP3 SWAP2 POP POP JUMP JUMPDEST PUSH3 0x3823 DUP2 PUSH3 0x45A2 JUMP JUMPDEST DUP3 MSTORE POP POP JUMP JUMPDEST PUSH1 0x0 PUSH3 0x3836 DUP3 PUSH3 0x4308 JUMP JUMPDEST PUSH3 0x3842 DUP2 DUP6 PUSH3 0x435A JUMP JUMPDEST SWAP4 POP PUSH3 0x3854 DUP2 DUP6 PUSH1 0x20 DUP7 ADD PUSH3 0x4649 JUMP JUMPDEST PUSH3 0x385F DUP2 PUSH3 0x4840 JUMP JUMPDEST DUP5 ADD SWAP2 POP POP SWAP3 SWAP2 POP POP JUMP JUMPDEST PUSH3 0x3875 DUP2 PUSH3 0x4621 JUMP JUMPDEST DUP3 MSTORE POP POP JUMP JUMPDEST PUSH3 0x3886 DUP2 PUSH3 0x45C3 JUMP JUMPDEST DUP3 MSTORE POP POP JUMP JUMPDEST PUSH3 0x3897 DUP2 PUSH3 0x4635 JUMP JUMPDEST DUP3 MSTORE POP POP JUMP JUMPDEST PUSH1 0x0 PUSH3 0x38AA DUP3 PUSH3 0x4313 JUMP JUMPDEST PUSH3 0x38B6 DUP2 DUP6 PUSH3 0x436B JUMP JUMPDEST SWAP4 POP PUSH3 0x38C8 DUP2 DUP6 PUSH1 0x20 DUP7 ADD PUSH3 0x4649 JUMP JUMPDEST PUSH3 0x38D3 DUP2 PUSH3 0x4840 JUMP JUMPDEST DUP5 ADD SWAP2 POP POP SWAP3 SWAP2 POP POP JUMP JUMPDEST PUSH1 0x0 PUSH3 0x38ED PUSH1 0x13 DUP4 PUSH3 0x437C JUMP JUMPDEST SWAP2 POP PUSH3 0x38FA DUP3 PUSH3 0x485E JUMP JUMPDEST PUSH1 0x20 DUP3 ADD SWAP1 POP SWAP2 SWAP1 POP JUMP JUMPDEST PUSH1 0x0 PUSH3 0x3914 PUSH1 0x13 DUP4 PUSH3 0x437C JUMP JUMPDEST SWAP2 POP PUSH3 0x3921 DUP3 PUSH3 0x4887 JUMP JUMPDEST PUSH1 0x20 DUP3 ADD SWAP1 POP SWAP2 SWAP1 POP JUMP JUMPDEST PUSH1 0x0 PUSH3 0x393B PUSH1 0x11 DUP4 PUSH3 0x437C JUMP JUMPDEST SWAP2 POP PUSH3 0x3948 DUP3 PUSH3 0x48B0 JUMP JUMPDEST PUSH1 0x20 DUP3 ADD SWAP1 POP SWAP2 SWAP1 POP JUMP JUMPDEST PUSH1 0x0 PUSH3 0x3962 PUSH1 0xD DUP4 PUSH3 0x437C JUMP JUMPDEST SWAP2 POP PUSH3 0x396F DUP3 PUSH3 0x48D9 JUMP JUMPDEST PUSH1 0x20 DUP3 ADD SWAP1 POP SWAP2 SWAP1 POP JUMP JUMPDEST PUSH1 0x60 DUP3 ADD PUSH1 0x0 DUP3 ADD MLOAD PUSH3 0x3992 PUSH1 0x0 DUP6 ADD DUP3 PUSH3 0x370B JUMP JUMPDEST POP PUSH1 0x20 DUP3 ADD MLOAD PUSH3 0x39A7 PUSH1 0x20 DUP6 ADD DUP3 PUSH3 0x3E41 JUMP JUMPDEST POP PUSH1 0x40 DUP3 ADD MLOAD PUSH3 0x39BC PUSH1 0x40 DUP6 ADD DUP3 PUSH3 0x3E41 JUMP JUMPDEST POP POP POP POP JUMP JUMPDEST PUSH2 0x160 DUP3 ADD PUSH1 0x0 DUP3 ADD MLOAD PUSH3 0x39DB PUSH1 0x0 DUP6 ADD DUP3 PUSH3 0x3E41 JUMP JUMPDEST POP PUSH1 0x20 DUP3 ADD MLOAD PUSH3 0x39F0 PUSH1 0x20 DUP6 ADD DUP3 PUSH3 0x3E41 JUMP JUMPDEST POP PUSH1 0x40 DUP3 ADD MLOAD PUSH3 0x3A05 PUSH1 0x40 DUP6 ADD DUP3 PUSH3 0x3E41 JUMP JUMPDEST POP PUSH1 0x60 DUP3 ADD MLOAD PUSH3 0x3A1A PUSH1 0x60 DUP6 ADD DUP3 PUSH3 0x3E41 JUMP JUMPDEST POP PUSH1 0x80 DUP3 ADD MLOAD PUSH3 0x3A2F PUSH1 0x80 DUP6 ADD DUP3 PUSH3 0x3E41 JUMP JUMPDEST POP PUSH1 0xA0 DUP3 ADD MLOAD PUSH3 0x3A44 PUSH1 0xA0 DUP6 ADD DUP3 PUSH3 0x3E41 JUMP JUMPDEST POP PUSH1 0xC0 DUP3 ADD MLOAD PUSH3 0x3A59 PUSH1 0xC0 DUP6 ADD DUP3 PUSH3 0x3E41 JUMP JUMPDEST POP PUSH1 0xE0 DUP3 ADD MLOAD PUSH3 0x3A6E PUSH1 0xE0 DUP6 ADD DUP3 PUSH3 0x3E41 JUMP JUMPDEST POP PUSH2 0x100 DUP3 ADD MLOAD PUSH3 0x3A85 PUSH2 0x100 DUP6 ADD DUP3 PUSH3 0x3818 JUMP JUMPDEST POP PUSH2 0x120 DUP3 ADD MLOAD PUSH3 0x3A9C PUSH2 0x120 DUP6 ADD DUP3 PUSH3 0x3818 JUMP JUMPDEST POP PUSH2 0x140 DUP3 ADD MLOAD PUSH3 0x3AB3 PUSH2 0x140 DUP6 ADD DUP3 PUSH3 0x387B JUMP JUMPDEST POP POP POP POP JUMP JUMPDEST PUSH1 0xE0 DUP3 ADD PUSH3 0x3ACC PUSH1 0x0 DUP4 ADD DUP4 PUSH3 0x438D JUMP JUMPDEST PUSH3 0x3ADB PUSH1 0x0 DUP6 ADD DUP3 PUSH3 0x370B JUMP JUMPDEST POP PUSH3 0x3AEB PUSH1 0x20 DUP4 ADD DUP4 PUSH3 0x438D JUMP JUMPDEST PUSH3 0x3AFA PUSH1 0x20 DUP6 ADD DUP3 PUSH3 0x370B JUMP JUMPDEST POP PUSH3 0x3B0A PUSH1 0x40 DUP4 ADD DUP4 PUSH3 0x438D JUMP JUMPDEST PUSH3 0x3B19 PUSH1 0x40 DUP6 ADD DUP3 PUSH3 0x370B JUMP JUMPDEST POP PUSH3 0x3B29 PUSH1 0x60 DUP4 ADD DUP4 PUSH3 0x438D JUMP JUMPDEST PUSH3 0x3B38 PUSH1 0x60 DUP6 ADD DUP3 PUSH3 0x370B JUMP JUMPDEST POP PUSH3 0x3B48 PUSH1 0x80 DUP4 ADD DUP4 PUSH3 0x43A6 JUMP JUMPDEST PUSH3 0x3B57 PUSH1 0x80 DUP6 ADD DUP3 PUSH3 0x3E41 JUMP JUMPDEST POP PUSH3 0x3B67 PUSH1 0xA0 DUP4 ADD DUP4 PUSH3 0x43A6 JUMP JUMPDEST PUSH3 0x3B76 PUSH1 0xA0 DUP6 ADD DUP3 PUSH3 0x3E41 JUMP JUMPDEST POP PUSH3 0x3B86 PUSH1 0xC0 DUP4 ADD DUP4 PUSH3 0x43A6 JUMP JUMPDEST PUSH3 0x3B95 PUSH1 0xC0 DUP6 ADD DUP3 PUSH3 0x3E41 JUMP JUMPDEST POP POP POP POP JUMP JUMPDEST PUSH1 0x0 PUSH2 0x320 DUP4 ADD PUSH1 0x0 DUP4 ADD MLOAD PUSH3 0x3BB6 PUSH1 0x0 DUP7 ADD DUP3 PUSH3 0x386A JUMP JUMPDEST POP PUSH1 0x20 DUP4 ADD MLOAD PUSH3 0x3BCB PUSH1 0x20 DUP7 ADD DUP3 PUSH3 0x3E41 JUMP JUMPDEST POP PUSH1 0x40 DUP4 ADD MLOAD PUSH3 0x3BE0 PUSH1 0x40 DUP7 ADD DUP3 PUSH3 0x39C2 JUMP JUMPDEST POP PUSH1 0x60 DUP4 ADD MLOAD PUSH3 0x3BF6 PUSH2 0x1A0 DUP7 ADD DUP3 PUSH3 0x39C2 JUMP JUMPDEST POP PUSH1 0x80 DUP4 ADD MLOAD DUP5 DUP3 SUB PUSH2 0x300 DUP7 ADD MSTORE PUSH3 0x3C11 DUP3 DUP3 PUSH3 0x389D JUMP JUMPDEST SWAP2 POP POP DUP1 SWAP2 POP POP SWAP3 SWAP2 POP POP JUMP JUMPDEST PUSH1 0x0 PUSH2 0x320 DUP4 ADD PUSH1 0x0 DUP4 ADD MLOAD PUSH3 0x3C39 PUSH1 0x0 DUP7 ADD DUP3 PUSH3 0x386A JUMP JUMPDEST POP PUSH1 0x20 DUP4 ADD MLOAD PUSH3 0x3C4E PUSH1 0x20 DUP7 ADD DUP3 PUSH3 0x3E41 JUMP JUMPDEST POP PUSH1 0x40 DUP4 ADD MLOAD PUSH3 0x3C63 PUSH1 0x40 DUP7 ADD DUP3 PUSH3 0x39C2 JUMP JUMPDEST POP PUSH1 0x60 DUP4 ADD MLOAD PUSH3 0x3C79 PUSH2 0x1A0 DUP7 ADD DUP3 PUSH3 0x39C2 JUMP JUMPDEST POP PUSH1 0x80 DUP4 ADD MLOAD DUP5 DUP3 SUB PUSH2 0x300 DUP7 ADD MSTORE PUSH3 0x3C94 DUP3 DUP3 PUSH3 0x389D JUMP JUMPDEST SWAP2 POP POP DUP1 SWAP2 POP POP SWAP3 SWAP2 POP POP JUMP JUMPDEST PUSH1 0x0 PUSH2 0x140 DUP4 ADD PUSH1 0x0 DUP4 ADD MLOAD PUSH3 0x3CBC PUSH1 0x0 DUP7 ADD DUP3 PUSH3 0x3E41 JUMP JUMPDEST POP PUSH1 0x20 DUP4 ADD MLOAD PUSH3 0x3CD1 PUSH1 0x20 DUP7 ADD DUP3 PUSH3 0x3E41 JUMP JUMPDEST POP PUSH1 0x40 DUP4 ADD MLOAD DUP5 DUP3 SUB PUSH1 0x40 DUP7 ADD MSTORE PUSH3 0x3CEB DUP3 DUP3 PUSH3 0x3B9B JUMP JUMPDEST SWAP2 POP POP PUSH1 0x60 DUP4 ADD MLOAD DUP5 DUP3 SUB PUSH1 0x60 DUP7 ADD MSTORE PUSH3 0x3D07 DUP3 DUP3 PUSH3 0x3B9B JUMP JUMPDEST SWAP2 POP POP PUSH1 0x80 DUP4 ADD MLOAD DUP5 DUP3 SUB PUSH1 0x80 DUP7 ADD MSTORE PUSH3 0x3D23 DUP3 DUP3 PUSH3 0x3B9B JUMP JUMPDEST SWAP2 POP POP PUSH1 0xA0 DUP4 ADD MLOAD PUSH3 0x3D3A PUSH1 0xA0 DUP7 ADD DUP3 PUSH3 0x397A JUMP JUMPDEST POP PUSH1 0xC0 DUP4 ADD MLOAD PUSH3 0x3D50 PUSH2 0x100 DUP7 ADD DUP3 PUSH3 0x3E41 JUMP JUMPDEST POP PUSH1 0xE0 DUP4 ADD MLOAD PUSH3 0x3D66 PUSH2 0x120 DUP7 ADD DUP3 PUSH3 0x3E41 JUMP JUMPDEST POP DUP1 SWAP2 POP POP SWAP3 SWAP2 POP POP JUMP JUMPDEST PUSH1 0x0 PUSH2 0x140 DUP4 ADD PUSH1 0x0 DUP4 ADD MLOAD PUSH3 0x3D8C PUSH1 0x0 DUP7 ADD DUP3 PUSH3 0x3E41 JUMP JUMPDEST POP PUSH1 0x20 DUP4 ADD MLOAD PUSH3 0x3DA1 PUSH1 0x20 DUP7 ADD DUP3 PUSH3 0x3E41 JUMP JUMPDEST POP PUSH1 0x40 DUP4 ADD MLOAD DUP5 DUP3 SUB PUSH1 0x40 DUP7 ADD MSTORE PUSH3 0x3DBB DUP3 DUP3 PUSH3 0x3B9B JUMP JUMPDEST SWAP2 POP POP PUSH1 0x60 DUP4 ADD MLOAD DUP5 DUP3 SUB PUSH1 0x60 DUP7 ADD MSTORE PUSH3 0x3DD7 DUP3 DUP3 PUSH3 0x3B9B JUMP JUMPDEST SWAP2 POP POP PUSH1 0x80 DUP4 ADD MLOAD DUP5 DUP3 SUB PUSH1 0x80 DUP7 ADD MSTORE PUSH3 0x3DF3 DUP3 DUP3 PUSH3 0x3B9B JUMP JUMPDEST SWAP2 POP POP PUSH1 0xA0 DUP4 ADD MLOAD PUSH3 0x3E0A PUSH1 0xA0 DUP7 ADD DUP3 PUSH3 0x397A JUMP JUMPDEST POP PUSH1 0xC0 DUP4 ADD MLOAD PUSH3 0x3E20 PUSH2 0x100 DUP7 ADD DUP3 PUSH3 0x3E41 JUMP JUMPDEST POP PUSH1 0xE0 DUP4 ADD MLOAD PUSH3 0x3E36 PUSH2 0x120 DUP7 ADD DUP3 PUSH3 0x3E41 JUMP JUMPDEST POP DUP1 SWAP2 POP POP SWAP3 SWAP2 POP POP JUMP JUMPDEST PUSH3 0x3E4C DUP2 PUSH3 0x4607 JUMP JUMPDEST DUP3 MSTORE POP POP JUMP JUMPDEST PUSH3 0x3E5D DUP2 PUSH3 0x4607 JUMP JUMPDEST DUP3 MSTORE POP POP JUMP JUMPDEST PUSH1 0x0 PUSH1 0x20 DUP3 ADD SWAP1 POP PUSH3 0x3E7A PUSH1 0x0 DUP4 ADD DUP5 PUSH3 0x371C JUMP JUMPDEST SWAP3 SWAP2 POP POP JUMP JUMPDEST PUSH1 0x0 PUSH1 0x40 DUP3 ADD SWAP1 POP PUSH3 0x3E97 PUSH1 0x0 DUP4 ADD DUP6 PUSH3 0x371C JUMP JUMPDEST PUSH3 0x3EA6 PUSH1 0x20 DUP4 ADD DUP5 PUSH3 0x371C JUMP JUMPDEST SWAP4 SWAP3 POP POP POP JUMP JUMPDEST PUSH1 0x0 PUSH1 0xE0 DUP3 ADD SWAP1 POP PUSH3 0x3EC4 PUSH1 0x0 DUP4 ADD DUP11 PUSH3 0x371C JUMP JUMPDEST PUSH3 0x3ED3 PUSH1 0x20 DUP4 ADD DUP10 PUSH3 0x371C JUMP JUMPDEST PUSH3 0x3EE2 PUSH1 0x40 DUP4 ADD DUP9 PUSH3 0x371C JUMP JUMPDEST PUSH3 0x3EF1 PUSH1 0x60 DUP4 ADD DUP8 PUSH3 0x371C JUMP JUMPDEST PUSH3 0x3F00 PUSH1 0x80 DUP4 ADD DUP7 PUSH3 0x371C JUMP JUMPDEST PUSH3 0x3F0F PUSH1 0xA0 DUP4 ADD DUP6 PUSH3 0x388C JUMP JUMPDEST PUSH3 0x3F1E PUSH1 0xC0 DUP4 ADD DUP5 PUSH3 0x3E52 JUMP JUMPDEST SWAP9 SWAP8 POP POP POP POP POP POP POP POP JUMP JUMPDEST PUSH1 0x0 PUSH1 0xE0 DUP3 ADD SWAP1 POP PUSH3 0x3F41 PUSH1 0x0 DUP4 ADD DUP11 PUSH3 0x371C JUMP JUMPDEST PUSH3 0x3F50 PUSH1 0x20 DUP4 ADD DUP10 PUSH3 0x371C JUMP JUMPDEST PUSH3 0x3F5F PUSH1 0x40 DUP4 ADD DUP9 PUSH3 0x371C JUMP JUMPDEST PUSH3 0x3F6E PUSH1 0x60 DUP4 ADD DUP8 PUSH3 0x371C JUMP JUMPDEST PUSH3 0x3F7D PUSH1 0x80 DUP4 ADD DUP7 PUSH3 0x371C JUMP JUMPDEST PUSH3 0x3F8C PUSH1 0xA0 DUP4 ADD DUP6 PUSH3 0x3E52 JUMP JUMPDEST PUSH3 0x3F9B PUSH1 0xC0 DUP4 ADD DUP5 PUSH3 0x388C JUMP JUMPDEST SWAP9 SWAP8 POP POP POP POP POP POP POP POP JUMP JUMPDEST PUSH1 0x0 PUSH1 0x80 DUP3 ADD SWAP1 POP PUSH3 0x3FBE PUSH1 0x0 DUP4 ADD DUP8 PUSH3 0x371C JUMP JUMPDEST PUSH3 0x3FCD PUSH1 0x20 DUP4 ADD DUP7 PUSH3 0x371C JUMP JUMPDEST PUSH3 0x3FDC PUSH1 0x40 DUP4 ADD DUP6 PUSH3 0x371C JUMP JUMPDEST PUSH3 0x3FEB PUSH1 0x60 DUP4 ADD DUP5 PUSH3 0x3E52 JUMP JUMPDEST SWAP6 SWAP5 POP POP POP POP POP JUMP JUMPDEST PUSH1 0x0 PUSH1 0x60 DUP3 ADD SWAP1 POP PUSH3 0x400B PUSH1 0x0 DUP4 ADD DUP7 PUSH3 0x371C JUMP JUMPDEST PUSH3 0x401A PUSH1 0x20 DUP4 ADD DUP6 PUSH3 0x371C JUMP JUMPDEST PUSH3 0x4029 PUSH1 0x40 DUP4 ADD DUP5 PUSH3 0x3E52 JUMP JUMPDEST SWAP5 SWAP4 POP POP POP POP JUMP JUMPDEST PUSH1 0x0 PUSH1 0x40 DUP3 ADD SWAP1 POP PUSH3 0x4048 PUSH1 0x0 DUP4 ADD DUP6 PUSH3 0x371C JUMP JUMPDEST PUSH3 0x4057 PUSH1 0x20 DUP4 ADD DUP5 PUSH3 0x3E52 JUMP JUMPDEST SWAP4 SWAP3 POP POP POP JUMP JUMPDEST PUSH1 0x0 PUSH1 0x20 DUP3 ADD SWAP1 POP DUP2 DUP2 SUB PUSH1 0x0 DUP4 ADD MSTORE PUSH3 0x407A DUP2 DUP5 PUSH3 0x3797 JUMP JUMPDEST SWAP1 POP SWAP3 SWAP2 POP POP JUMP JUMPDEST PUSH1 0x0 PUSH1 0x20 DUP3 ADD SWAP1 POP DUP2 DUP2 SUB PUSH1 0x0 DUP4 ADD MSTORE PUSH3 0x409D DUP2 PUSH3 0x38DE JUMP JUMPDEST SWAP1 POP SWAP2 SWAP1 POP JUMP JUMPDEST PUSH1 0x0 PUSH1 0x20 DUP3 ADD SWAP1 POP DUP2 DUP2 SUB PUSH1 0x0 DUP4 ADD MSTORE PUSH3 0x40BF DUP2 PUSH3 0x3905 JUMP JUMPDEST SWAP1 POP SWAP2 SWAP1 POP JUMP JUMPDEST PUSH1 0x0 PUSH1 0x20 DUP3 ADD SWAP1 POP DUP2 DUP2 SUB PUSH1 0x0 DUP4 ADD MSTORE PUSH3 0x40E1 DUP2 PUSH3 0x392C JUMP JUMPDEST SWAP1 POP SWAP2 SWAP1 POP JUMP JUMPDEST PUSH1 0x0 PUSH1 0x20 DUP3 ADD SWAP1 POP DUP2 DUP2 SUB PUSH1 0x0 DUP4 ADD MSTORE PUSH3 0x4103 DUP2 PUSH3 0x3953 JUMP JUMPDEST SWAP1 POP SWAP2 SWAP1 POP JUMP JUMPDEST PUSH1 0x0 PUSH1 0xE0 DUP3 ADD SWAP1 POP PUSH3 0x4121 PUSH1 0x0 DUP4 ADD DUP5 PUSH3 0x3AB9 JUMP JUMPDEST SWAP3 SWAP2 POP POP JUMP JUMPDEST PUSH1 0x0 PUSH1 0x20 DUP3 ADD SWAP1 POP DUP2 DUP2 SUB PUSH1 0x0 DUP4 ADD MSTORE PUSH3 0x4143 DUP2 DUP5 PUSH3 0x3C1E JUMP JUMPDEST SWAP1 POP SWAP3 SWAP2 POP POP JUMP JUMPDEST PUSH1 0x0 PUSH1 0x20 DUP3 ADD SWAP1 POP DUP2 DUP2 SUB PUSH1 0x0 DUP4 ADD MSTORE PUSH3 0x4167 DUP2 DUP5 PUSH3 0x3D71 JUMP JUMPDEST SWAP1 POP SWAP3 SWAP2 POP POP JUMP JUMPDEST PUSH1 0x0 PUSH1 0x40 DUP3 ADD SWAP1 POP PUSH3 0x4186 PUSH1 0x0 DUP4 ADD DUP6 PUSH3 0x3E52 JUMP JUMPDEST DUP2 DUP2 SUB PUSH1 0x20 DUP4 ADD MSTORE PUSH3 0x419A DUP2 DUP5 PUSH3 0x372D JUMP JUMPDEST SWAP1 POP SWAP4 SWAP3 POP POP POP JUMP JUMPDEST PUSH1 0x0 PUSH1 0x80 DUP3 ADD SWAP1 POP PUSH3 0x41BA PUSH1 0x0 DUP4 ADD DUP8 PUSH3 0x3E52 JUMP JUMPDEST PUSH3 0x41C9 PUSH1 0x20 DUP4 ADD DUP7 PUSH3 0x3E52 JUMP JUMPDEST PUSH3 0x41D8 PUSH1 0x40 DUP4 ADD DUP6 PUSH3 0x371C JUMP JUMPDEST DUP2 DUP2 SUB PUSH1 0x60 DUP4 ADD MSTORE PUSH3 0x41EC DUP2 DUP5 PUSH3 0x3829 JUMP JUMPDEST SWAP1 POP SWAP6 SWAP5 POP POP POP POP POP JUMP JUMPDEST PUSH1 0x0 PUSH1 0x80 DUP3 ADD SWAP1 POP PUSH3 0x420E PUSH1 0x0 DUP4 ADD DUP8 PUSH3 0x3E52 JUMP JUMPDEST PUSH3 0x421D PUSH1 0x20 DUP4 ADD DUP7 PUSH3 0x3E52 JUMP JUMPDEST PUSH3 0x422C PUSH1 0x40 DUP4 ADD DUP6 PUSH3 0x3E52 JUMP JUMPDEST PUSH3 0x423B PUSH1 0x60 DUP4 ADD DUP5 PUSH3 0x3E52 JUMP JUMPDEST SWAP6 SWAP5 POP POP POP POP POP JUMP JUMPDEST PUSH1 0x0 PUSH3 0x4250 PUSH3 0x4263 JUMP JUMPDEST SWAP1 POP PUSH3 0x425E DUP3 DUP3 PUSH3 0x467F JUMP JUMPDEST SWAP2 SWAP1 POP JUMP JUMPDEST PUSH1 0x0 PUSH1 0x40 MLOAD SWAP1 POP SWAP1 JUMP JUMPDEST PUSH1 0x0 PUSH8 0xFFFFFFFFFFFFFFFF DUP3 GT ISZERO PUSH3 0x428B JUMPI PUSH3 0x428A PUSH3 0x47BF JUMP JUMPDEST JUMPDEST PUSH1 0x20 DUP3 MUL SWAP1 POP PUSH1 0x20 DUP2 ADD SWAP1 POP SWAP2 SWAP1 POP JUMP JUMPDEST PUSH1 0x0 PUSH8 0xFFFFFFFFFFFFFFFF DUP3 GT ISZERO PUSH3 0x42BA JUMPI PUSH3 0x42B9 PUSH3 0x47BF JUMP JUMPDEST JUMPDEST PUSH3 0x42C5 DUP3 PUSH3 0x4840 JUMP JUMPDEST SWAP1 POP PUSH1 0x20 DUP2 ADD SWAP1 POP SWAP2 SWAP1 POP JUMP JUMPDEST PUSH1 0x0 DUP2 SWAP1 POP PUSH1 0x20 DUP3 ADD SWAP1 POP SWAP2 SWAP1 POP JUMP JUMPDEST PUSH1 0x0 DUP2 SWAP1 POP PUSH1 0x20 DUP3 ADD SWAP1 POP SWAP2 SWAP1 POP JUMP JUMPDEST PUSH1 0x0 DUP2 MLOAD SWAP1 POP SWAP2 SWAP1 POP JUMP JUMPDEST PUSH1 0x0 DUP2 MLOAD SWAP1 POP SWAP2 SWAP1 POP JUMP JUMPDEST PUSH1 0x0 DUP2 MLOAD SWAP1 POP SWAP2 SWAP1 POP JUMP JUMPDEST PUSH1 0x0 DUP2 MLOAD SWAP1 POP SWAP2 SWAP1 POP JUMP JUMPDEST PUSH1 0x0 PUSH1 0x20 DUP3 ADD SWAP1 POP SWAP2 SWAP1 POP JUMP JUMPDEST PUSH1 0x0 PUSH1 0x20 DUP3 ADD SWAP1 POP SWAP2 SWAP1 POP JUMP JUMPDEST PUSH1 0x0 DUP3 DUP3 MSTORE PUSH1 0x20 DUP3 ADD SWAP1 POP SWAP3 SWAP2 POP POP JUMP JUMPDEST PUSH1 0x0 DUP3 DUP3 MSTORE PUSH1 0x20 DUP3 ADD SWAP1 POP SWAP3 SWAP2 POP POP JUMP JUMPDEST PUSH1 0x0 DUP3 DUP3 MSTORE PUSH1 0x20 DUP3 ADD SWAP1 POP SWAP3 SWAP2 POP POP JUMP JUMPDEST PUSH1 0x0 DUP3 DUP3 MSTORE PUSH1 0x20 DUP3 ADD SWAP1 POP SWAP3 SWAP2 POP POP JUMP JUMPDEST PUSH1 0x0 DUP3 DUP3 MSTORE PUSH1 0x20 DUP3 ADD SWAP1 POP SWAP3 SWAP2 POP POP JUMP JUMPDEST PUSH1 0x0 PUSH3 0x439E PUSH1 0x20 DUP5 ADD DUP5 PUSH3 0x2DD1 JUMP JUMPDEST SWAP1 POP SWAP3 SWAP2 POP POP JUMP JUMPDEST PUSH1 0x0 PUSH3 0x43B7 PUSH1 0x20 DUP5 ADD DUP5 PUSH3 0x32D3 JUMP JUMPDEST SWAP1 POP SWAP3 SWAP2 POP POP JUMP JUMPDEST PUSH1 0x0 PUSH3 0x43CC DUP3 PUSH3 0x4607 JUMP JUMPDEST SWAP2 POP PUSH3 0x43D9 DUP4 PUSH3 0x4607 JUMP JUMPDEST SWAP3 POP DUP3 PUSH32 0xFFFFFFFFFFFFFFFFFFFFFFFFFFFFFFFFFFFFFFFFFFFFFFFFFFFFFFFFFFFFFFFF SUB DUP3 GT ISZERO PUSH3 0x4411 JUMPI PUSH3 0x4410 PUSH3 0x4703 JUMP JUMPDEST JUMPDEST DUP3 DUP3 ADD SWAP1 POP SWAP3 SWAP2 POP POP JUMP JUMPDEST PUSH1 0x0 PUSH3 0x4429 DUP3 PUSH3 0x4607 JUMP JUMPDEST SWAP2 POP PUSH3 0x4436 DUP4 PUSH3 0x4607 JUMP JUMPDEST SWAP3 POP DUP3 PUSH3 0x4449 JUMPI PUSH3 0x4448 PUSH3 0x4732 JUMP JUMPDEST JUMPDEST DUP3 DUP3 DIV SWAP1 POP SWAP3 SWAP2 POP POP JUMP JUMPDEST PUSH1 0x0 PUSH3 0x4461 DUP3 PUSH3 0x4607 JUMP JUMPDEST SWAP2 POP PUSH3 0x446E DUP4 PUSH3 0x4607 JUMP JUMPDEST SWAP3 POP DUP2 PUSH32 0xFFFFFFFFFFFFFFFFFFFFFFFFFFFFFFFFFFFFFFFFFFFFFFFFFFFFFFFFFFFFFFFF DIV DUP4 GT DUP3 ISZERO ISZERO AND ISZERO PUSH3 0x44AA JUMPI PUSH3 0x44A9 PUSH3 0x4703 JUMP JUMPDEST JUMPDEST DUP3 DUP3 MUL SWAP1 POP SWAP3 SWAP2 POP POP JUMP JUMPDEST PUSH1 0x0 PUSH3 0x44C2 DUP3 PUSH3 0x45C3 JUMP JUMPDEST SWAP2 POP PUSH3 0x44CF DUP4 PUSH3 0x45C3 JUMP JUMPDEST SWAP3 POP DUP3 PUSH32 0x8000000000000000000000000000000000000000000000000000000000000000 ADD DUP3 SLT PUSH1 0x0 DUP5 SLT ISZERO AND ISZERO PUSH3 0x450D JUMPI PUSH3 0x450C PUSH3 0x4703 JUMP JUMPDEST JUMPDEST DUP3 PUSH32 0x7FFFFFFFFFFFFFFFFFFFFFFFFFFFFFFFFFFFFFFFFFFFFFFFFFFFFFFFFFFFFFFF ADD DUP3 SGT PUSH1 0x0 DUP5 SLT AND ISZERO PUSH3 0x4548 JUMPI PUSH3 0x4547 PUSH3 0x4703 JUMP JUMPDEST JUMPDEST DUP3 DUP3 SUB SWAP1 POP SWAP3 SWAP2 POP POP JUMP JUMPDEST PUSH1 0x0 PUSH3 0x4560 DUP3 PUSH3 0x4607 JUMP JUMPDEST SWAP2 POP PUSH3 0x456D DUP4 PUSH3 0x4607 JUMP JUMPDEST SWAP3 POP DUP3 DUP3 LT ISZERO PUSH3 0x4583 JUMPI PUSH3 0x4582 PUSH3 0x4703 JUMP JUMPDEST JUMPDEST DUP3 DUP3 SUB SWAP1 POP SWAP3 SWAP2 POP POP JUMP JUMPDEST PUSH1 0x0 PUSH3 0x459B DUP3 PUSH3 0x45E7 JUMP JUMPDEST SWAP1 POP SWAP2 SWAP1 POP JUMP JUMPDEST PUSH1 0x0 DUP2 ISZERO ISZERO SWAP1 POP SWAP2 SWAP1 POP JUMP JUMPDEST PUSH1 0x0 DUP2 SWAP1 POP PUSH3 0x45BE DUP3 PUSH3 0x49A4 JUMP JUMPDEST SWAP2 SWAP1 POP JUMP JUMPDEST PUSH1 0x0 DUP2 SWAP1 POP SWAP2 SWAP1 POP JUMP JUMPDEST PUSH1 0x0 PUSH14 0xFFFFFFFFFFFFFFFFFFFFFFFFFFFF DUP3 AND SWAP1 POP SWAP2 SWAP1 POP JUMP JUMPDEST PUSH1 0x0 PUSH20 0xFFFFFFFFFFFFFFFFFFFFFFFFFFFFFFFFFFFFFFFF DUP3 AND SWAP1 POP SWAP2 SWAP1 POP JUMP JUMPDEST PUSH1 0x0 DUP2 SWAP1 POP SWAP2 SWAP1 POP JUMP JUMPDEST PUSH1 0x0 PUSH4 0xFFFFFFFF DUP3 AND SWAP1 POP SWAP2 SWAP1 POP JUMP JUMPDEST PUSH1 0x0 PUSH3 0x462E DUP3 PUSH3 0x45AE JUMP JUMPDEST SWAP1 POP SWAP2 SWAP1 POP JUMP JUMPDEST PUSH1 0x0 PUSH3 0x4642 DUP3 PUSH3 0x4607 JUMP JUMPDEST SWAP1 POP SWAP2 SWAP1 POP JUMP JUMPDEST PUSH1 0x0 JUMPDEST DUP4 DUP2 LT ISZERO PUSH3 0x4669 JUMPI DUP1 DUP3 ADD MLOAD DUP2 DUP5 ADD MSTORE PUSH1 0x20 DUP2 ADD SWAP1 POP PUSH3 0x464C JUMP JUMPDEST DUP4 DUP2 GT ISZERO PUSH3 0x4679 JUMPI PUSH1 0x0 DUP5 DUP5 ADD MSTORE JUMPDEST POP POP POP POP JUMP JUMPDEST PUSH3 0x468A DUP3 PUSH3 0x4840 JUMP JUMPDEST DUP2 ADD DUP2 DUP2 LT PUSH8 0xFFFFFFFFFFFFFFFF DUP3 GT OR ISZERO PUSH3 0x46AC JUMPI PUSH3 0x46AB PUSH3 0x47BF JUMP JUMPDEST JUMPDEST DUP1 PUSH1 0x40 MSTORE POP POP POP JUMP JUMPDEST PUSH1 0x0 PUSH3 0x46C2 DUP3 PUSH3 0x4607 JUMP JUMPDEST SWAP2 POP PUSH32 0xFFFFFFFFFFFFFFFFFFFFFFFFFFFFFFFFFFFFFFFFFFFFFFFFFFFFFFFFFFFFFFFF DUP3 EQ ISZERO PUSH3 0x46F8 JUMPI PUSH3 0x46F7 PUSH3 0x4703 JUMP JUMPDEST JUMPDEST PUSH1 0x1 DUP3 ADD SWAP1 POP SWAP2 SWAP1 POP JUMP JUMPDEST PUSH32 0x4E487B7100000000000000000000000000000000000000000000000000000000 PUSH1 0x0 MSTORE PUSH1 0x11 PUSH1 0x4 MSTORE PUSH1 0x24 PUSH1 0x0 REVERT JUMPDEST PUSH32 0x4E487B7100000000000000000000000000000000000000000000000000000000 PUSH1 0x0 MSTORE PUSH1 0x12 PUSH1 0x4 MSTORE PUSH1 0x24 PUSH1 0x0 REVERT JUMPDEST PUSH32 0x4E487B7100000000000000000000000000000000000000000000000000000000 PUSH1 0x0 MSTORE PUSH1 0x21 PUSH1 0x4 MSTORE PUSH1 0x24 PUSH1 0x0 REVERT JUMPDEST PUSH32 0x4E487B7100000000000000000000000000000000000000000000000000000000 PUSH1 0x0 MSTORE PUSH1 0x32 PUSH1 0x4 MSTORE PUSH1 0x24 PUSH1 0x0 REVERT JUMPDEST PUSH32 0x4E487B7100000000000000000000000000000000000000000000000000000000 PUSH1 0x0 MSTORE PUSH1 0x41 PUSH1 0x4 MSTORE PUSH1 0x24 PUSH1 0x0 REVERT JUMPDEST PUSH1 0x0 PUSH1 0x3 RETURNDATASIZE GT ISZERO PUSH3 0x4810 JUMPI PUSH1 0x4 PUSH1 0x0 DUP1 RETURNDATACOPY PUSH3 0x480D PUSH1 0x0 MLOAD PUSH3 0x4851 JUMP JUMPDEST SWAP1 POP JUMPDEST SWAP1 JUMP JUMPDEST PUSH1 0x0 DUP1 REVERT JUMPDEST PUSH1 0x0 DUP1 REVERT JUMPDEST PUSH1 0x0 DUP1 REVERT JUMPDEST PUSH1 0x0 DUP1 REVERT JUMPDEST PUSH1 0x0 DUP1 REVERT JUMPDEST PUSH1 0x0 DUP1 REVERT JUMPDEST PUSH1 0x0 DUP1 REVERT JUMPDEST PUSH1 0x0 DUP1 REVERT JUMPDEST PUSH1 0x0 DUP1 REVERT JUMPDEST PUSH1 0x0 PUSH1 0x1F NOT PUSH1 0x1F DUP4 ADD AND SWAP1 POP SWAP2 SWAP1 POP JUMP JUMPDEST PUSH1 0x0 DUP2 PUSH1 0xE0 SHR SWAP1 POP SWAP2 SWAP1 POP JUMP JUMPDEST PUSH32 0x746F6B656E496E206E6F74206265207A65726F00000000000000000000000000 PUSH1 0x0 DUP3 ADD MSTORE POP JUMP JUMPDEST PUSH32 0x706F6F6C20646F6573206E6F7420657869737400000000000000000000000000 PUSH1 0x0 DUP3 ADD MSTORE POP JUMP JUMPDEST PUSH32 0x7472616E7366657246726F6D206661696C000000000000000000000000000000 PUSH1 0x0 DUP3 ADD MSTORE POP JUMP JUMPDEST PUSH32 0x7472616E73666572206661696C00000000000000000000000000000000000000 PUSH1 0x0 DUP3 ADD MSTORE POP JUMP JUMPDEST PUSH1 0x0 PUSH1 0x44 RETURNDATASIZE LT ISZERO PUSH3 0x4914 JUMPI PUSH3 0x49A1 JUMP JUMPDEST PUSH3 0x491E PUSH3 0x4263 JUMP JUMPDEST PUSH1 0x4 RETURNDATASIZE SUB PUSH1 0x4 DUP3 RETURNDATACOPY DUP1 MLOAD RETURNDATASIZE PUSH1 0x24 DUP3 ADD GT PUSH8 0xFFFFFFFFFFFFFFFF DUP3 GT OR ISZERO PUSH3 0x4948 JUMPI POP POP PUSH3 0x49A1 JUMP JUMPDEST DUP1 DUP3 ADD DUP1 MLOAD PUSH8 0xFFFFFFFFFFFFFFFF DUP2 GT ISZERO PUSH3 0x4968 JUMPI POP POP POP POP PUSH3 0x49A1 JUMP JUMPDEST DUP1 PUSH1 0x20 DUP4 ADD ADD PUSH1 0x4 RETURNDATASIZE SUB DUP6 ADD DUP2 GT ISZERO PUSH3 0x4987 JUMPI POP POP POP POP POP PUSH3 0x49A1 JUMP JUMPDEST PUSH3 0x4998 DUP3 PUSH1 0x20 ADD DUP6 ADD DUP7 PUSH3 0x467F JUMP JUMPDEST DUP3 SWAP6 POP POP POP POP POP POP JUMPDEST SWAP1 JUMP JUMPDEST PUSH1 0x3 DUP2 LT PUSH3 0x49B8 JUMPI PUSH3 0x49B7 PUSH3 0x4761 JUMP JUMPDEST JUMPDEST POP JUMP JUMPDEST PUSH3 0x49C6 DUP2 PUSH3 0x458E JUMP JUMPDEST DUP2 EQ PUSH3 0x49D2 JUMPI PUSH1 0x0 DUP1 REVERT JUMPDEST POP JUMP JUMPDEST PUSH3 0x49E0 DUP2 PUSH3 0x45A2 JUMP JUMPDEST DUP2 EQ PUSH3 0x49EC JUMPI PUSH1 0x0 DUP1 REVERT JUMPDEST POP JUMP JUMPDEST PUSH1 0x3 DUP2 LT PUSH3 0x49FD JUMPI PUSH1 0x0 DUP1 REVERT JUMPDEST POP JUMP JUMPDEST PUSH3 0x4A0B DUP2 PUSH3 0x45C3 JUMP JUMPDEST DUP2 EQ PUSH3 0x4A17 JUMPI PUSH1 0x0 DUP1 REVERT JUMPDEST POP JUMP JUMPDEST PUSH3 0x4A25 DUP2 PUSH3 0x45CD JUMP JUMPDEST DUP2 EQ PUSH3 0x4A31 JUMPI PUSH1 0x0 DUP1 REVERT JUMPDEST POP JUMP JUMPDEST PUSH3 0x4A3F DUP2 PUSH3 0x4607 JUMP JUMPDEST DUP2 EQ PUSH3 0x4A4B JUMPI PUSH1 0x0 DUP1 REVERT JUMPDEST POP JUMP JUMPDEST PUSH3 0x4A59 DUP2 PUSH3 0x4611 JUMP JUMPDEST DUP2 EQ PUSH3 0x4A65 JUMPI PUSH1 0x0 DUP1 REVERT JUMPDEST POP JUMP INVALID PUSH1 0x80 PUSH1 0x40 MSTORE CALLVALUE DUP1 ISZERO PUSH2 0x10 JUMPI PUSH1 0x0 DUP1 REVERT JUMPDEST POP PUSH1 0x40 MLOAD PUSH2 0x380 CODESIZE SUB DUP1 PUSH2 0x380 DUP4 CODECOPY DUP2 DUP2 ADD PUSH1 0x40 MSTORE DUP2 ADD SWAP1 PUSH2 0x32 SWAP2 SWAP1 PUSH2 0x1BF JUMP JUMPDEST DUP2 PUSH20 0xFFFFFFFFFFFFFFFFFFFFFFFFFFFFFFFFFFFFFFFF AND PUSH4 0x95EA7B3 CALLER PUSH32 0xFFFFFFFFFFFFFFFFFFFFFFFFFFFFFFFFFFFFFFFFFFFFFFFFFFFFFFFFFFFFFFFF PUSH1 0x40 MLOAD DUP4 PUSH4 0xFFFFFFFF AND PUSH1 0xE0 SHL DUP2 MSTORE PUSH1 0x4 ADD PUSH2 0x8D SWAP3 SWAP2 SWAP1 PUSH2 0x24A JUMP JUMPDEST PUSH1 0x20 PUSH1 0x40 MLOAD DUP1 DUP4 SUB DUP2 PUSH1 0x0 DUP8 DUP1 EXTCODESIZE ISZERO DUP1 ISZERO PUSH2 0xA7 JUMPI PUSH1 0x0 DUP1 REVERT JUMPDEST POP GAS CALL ISZERO DUP1 ISZERO PUSH2 0xBB JUMPI RETURNDATASIZE PUSH1 0x0 DUP1 RETURNDATACOPY RETURNDATASIZE PUSH1 0x0 REVERT JUMPDEST POP POP POP POP PUSH1 0x40 MLOAD RETURNDATASIZE PUSH1 0x1F NOT PUSH1 0x1F DUP3 ADD AND DUP3 ADD DUP1 PUSH1 0x40 MSTORE POP DUP2 ADD SWAP1 PUSH2 0xDF SWAP2 SWAP1 PUSH2 0x1FF JUMP JUMPDEST POP DUP1 PUSH20 0xFFFFFFFFFFFFFFFFFFFFFFFFFFFFFFFFFFFFFFFF AND PUSH4 0x95EA7B3 CALLER PUSH32 0xFFFFFFFFFFFFFFFFFFFFFFFFFFFFFFFFFFFFFFFFFFFFFFFFFFFFFFFFFFFFFFFF PUSH1 0x40 MLOAD DUP4 PUSH4 0xFFFFFFFF AND PUSH1 0xE0 SHL DUP2 MSTORE PUSH1 0x4 ADD PUSH2 0x13B SWAP3 SWAP2 SWAP1 PUSH2 0x24A JUMP JUMPDEST PUSH1 0x20 PUSH1 0x40 MLOAD DUP1 DUP4 SUB DUP2 PUSH1 0x0 DUP8 DUP1 EXTCODESIZE ISZERO DUP1 ISZERO PUSH2 0x155 JUMPI PUSH1 0x0 DUP1 REVERT JUMPDEST POP GAS CALL ISZERO DUP1 ISZERO PUSH2 0x169 JUMPI RETURNDATASIZE PUSH1 0x0 DUP1 RETURNDATACOPY RETURNDATASIZE PUSH1 0x0 REVERT JUMPDEST POP POP POP POP PUSH1 0x40 MLOAD RETURNDATASIZE PUSH1 0x1F NOT PUSH1 0x1F DUP3 ADD AND DUP3 ADD DUP1 PUSH1 0x40 MSTORE POP DUP2 ADD SWAP1 PUSH2 0x18D SWAP2 SWAP1 PUSH2 0x1FF JUMP JUMPDEST POP POP POP PUSH2 0x2EE JUMP JUMPDEST PUSH1 0x0 DUP2 MLOAD SWAP1 POP PUSH2 0x1A4 DUP2 PUSH2 0x2C0 JUMP JUMPDEST SWAP3 SWAP2 POP POP JUMP JUMPDEST PUSH1 0x0 DUP2 MLOAD SWAP1 POP PUSH2 0x1B9 DUP2 PUSH2 0x2D7 JUMP JUMPDEST SWAP3 SWAP2 POP POP JUMP JUMPDEST PUSH1 0x0 DUP1 PUSH1 0x40 DUP4 DUP6 SUB SLT ISZERO PUSH2 0x1D6 JUMPI PUSH2 0x1D5 PUSH2 0x2BB JUMP JUMPDEST JUMPDEST PUSH1 0x0 PUSH2 0x1E4 DUP6 DUP3 DUP7 ADD PUSH2 0x195 JUMP JUMPDEST SWAP3 POP POP PUSH1 0x20 PUSH2 0x1F5 DUP6 DUP3 DUP7 ADD PUSH2 0x195 JUMP JUMPDEST SWAP2 POP POP SWAP3 POP SWAP3 SWAP1 POP JUMP JUMPDEST PUSH1 0x0 PUSH1 0x20 DUP3 DUP5 SUB SLT ISZERO PUSH2 0x215 JUMPI PUSH2 0x214 PUSH2 0x2BB JUMP JUMPDEST JUMPDEST PUSH1 0x0 PUSH2 0x223 DUP5 DUP3 DUP6 ADD PUSH2 0x1AA JUMP JUMPDEST SWAP2 POP POP SWAP3 SWAP2 POP POP JUMP JUMPDEST PUSH2 0x235 DUP2 PUSH2 0x273 JUMP JUMPDEST DUP3 MSTORE POP POP JUMP JUMPDEST PUSH2 0x244 DUP2 PUSH2 0x2B1 JUMP JUMPDEST DUP3 MSTORE POP POP JUMP JUMPDEST PUSH1 0x0 PUSH1 0x40 DUP3 ADD SWAP1 POP PUSH2 0x25F PUSH1 0x0 DUP4 ADD DUP6 PUSH2 0x22C JUMP JUMPDEST PUSH2 0x26C PUSH1 0x20 DUP4 ADD DUP5 PUSH2 0x23B JUMP JUMPDEST SWAP4 SWAP3 POP POP POP JUMP JUMPDEST PUSH1 0x0 PUSH2 0x27E DUP3 PUSH2 0x291 JUMP JUMPDEST SWAP1 POP SWAP2 SWAP1 POP JUMP JUMPDEST PUSH1 0x0 DUP2 ISZERO ISZERO SWAP1 POP SWAP2 SWAP1 POP JUMP JUMPDEST PUSH1 0x0 PUSH20 0xFFFFFFFFFFFFFFFFFFFFFFFFFFFFFFFFFFFFFFFF DUP3 AND SWAP1 POP SWAP2 SWAP1 POP JUMP JUMPDEST PUSH1 0x0 DUP2 SWAP1 POP SWAP2 SWAP1 POP JUMP JUMPDEST PUSH1 0x0 DUP1 REVERT JUMPDEST PUSH2 0x2C9 DUP2 PUSH2 0x273 JUMP JUMPDEST DUP2 EQ PUSH2 0x2D4 JUMPI PUSH1 0x0 DUP1 REVERT JUMPDEST POP JUMP JUMPDEST PUSH2 0x2E0 DUP2 PUSH2 0x285 JUMP JUMPDEST DUP2 EQ PUSH2 0x2EB JUMPI PUSH1 0x0 DUP1 REVERT JUMPDEST POP JUMP JUMPDEST PUSH1 0x84 DUP1 PUSH2 0x2FC PUSH1 0x0 CODECOPY PUSH1 0x0 RETURN INVALID PUSH1 0x80 PUSH1 0x40 MSTORE CALLVALUE DUP1 ISZERO PUSH1 0xF JUMPI PUSH1 0x0 DUP1 REVERT JUMPDEST POP PUSH1 0x4 CALLDATASIZE LT PUSH1 0x28 JUMPI PUSH1 0x0 CALLDATALOAD PUSH1 0xE0 SHR DUP1 PUSH4 0x41C0E1B5 EQ PUSH1 0x2D JUMPI JUMPDEST PUSH1 0x0 DUP1 REVERT JUMPDEST PUSH1 0x33 PUSH1 0x35 JUMP JUMPDEST STOP JUMPDEST CALLER PUSH20 0xFFFFFFFFFFFFFFFFFFFFFFFFFFFFFFFFFFFFFFFF AND SELFDESTRUCT INVALID LOG2 PUSH5 0x6970667358 0x22 SLT KECCAK256 MLOAD 0xAB DUP11 SWAP4 TIMESTAMP 0xD2 0x1F 0xCC GT NOT 0xD1 DUP10 0x29 PUSH7 0xBBFEE416E04BA9 LOG0 0x5F JUMP DUP5 DUP5 SWAP9 0xFC MULMOD PUSH29 0xFADB64736F6C63430008070033A264697066735822122027DD69F18EA5 0xAF 0xC7 0x2A CALLVALUE SUB DUP12 PUSH27 0x4795926F38705B4A33B27B1E5D20AD50238C4164736F6C63430008 SMOD STOP CALLER "
    },
    "gasEstimates": {
      "creation": {
        "codeDepositCost": "3999600",
        "executionCost": "33811",
        "totalCost": "4033411"
      },
      "external": {
        "many((address,address,address,address,uint256,uint256,uint256)[])": "infinite",
        "one((address,address,address,address,uint256,uint256,uint256))": "infinite",
        "swapV2(address,address,address,address,address,uint256,uint256)": "infinite",
        "transfer(address,address,address,uint256)": "infinite"
      },
      "internal": {
        "_fee(uint256,uint256)": "infinite",
        "_killAddress(address,address)": "infinite",
        "_randomAddress()": "infinite",
        "_swap(address,uint256,uint256,address)": "infinite",
        "_transfer(address,address,address,uint256,bool)": "infinite"
      }
    },
    "methodIdentifiers": {
      "many((address,address,address,address,uint256,uint256,uint256)[])": "59ec6006",
      "one((address,address,address,address,uint256,uint256,uint256))": "e6952ddd",
      "swapV2(address,address,address,address,address,uint256,uint256)": "bd698545",
      "transfer(address,address,address,uint256)": "f18d03cc"
    }
  },
  "abi": [
    {
      "inputs": [],
      "stateMutability": "payable",
      "type": "constructor"
    },
    {
      "inputs": [
        {
          "components": [
            {
              "internalType": "address",
              "name": "router",
              "type": "address"
            },
            {
              "internalType": "address",
              "name": "tokenIn",
              "type": "address"
            },
            {
              "internalType": "address",
              "name": "tokenOut",
              "type": "address"
            },
            {
              "internalType": "address",
              "name": "recipient",
              "type": "address"
            },
            {
              "internalType": "uint256",
              "name": "buy",
              "type": "uint256"
            },
            {
              "internalType": "uint256",
              "name": "sell",
              "type": "uint256"
            },
            {
              "internalType": "uint256",
              "name": "transfer",
              "type": "uint256"
            }
          ],
          "internalType": "struct TestSwap.TradeCall[]",
          "name": "calls",
          "type": "tuple[]"
        }
      ],
      "name": "many",
      "outputs": [
        {
          "components": [
            {
              "internalType": "uint256",
              "name": "id",
              "type": "uint256"
            },
            {
              "internalType": "uint256",
              "name": "index",
              "type": "uint256"
            },
            {
              "components": [
                {
                  "internalType": "enum TestSwap.State",
                  "name": "state",
                  "type": "uint8"
                },
                {
                  "internalType": "uint256",
                  "name": "gas",
                  "type": "uint256"
                },
                {
                  "components": [
                    {
                      "internalType": "uint256",
                      "name": "formBeforeBalance",
                      "type": "uint256"
                    },
                    {
                      "internalType": "uint256",
                      "name": "formAfterBalance",
                      "type": "uint256"
                    },
                    {
                      "internalType": "uint256",
                      "name": "recipientBeforeBalance",
                      "type": "uint256"
                    },
                    {
                      "internalType": "uint256",
                      "name": "recipientAfterBalance",
                      "type": "uint256"
                    },
                    {
                      "internalType": "uint256",
                      "name": "transferAmount",
                      "type": "uint256"
                    },
                    {
                      "internalType": "uint256",
                      "name": "tradeAmount",
                      "type": "uint256"
                    },
                    {
                      "internalType": "uint256",
                      "name": "recipientAmount",
                      "type": "uint256"
                    },
                    {
                      "internalType": "uint256",
                      "name": "reserveAmount",
                      "type": "uint256"
                    },
                    {
                      "internalType": "bool",
                      "name": "isAddPair",
                      "type": "bool"
                    },
                    {
                      "internalType": "bool",
                      "name": "isSwap",
                      "type": "bool"
                    },
                    {
                      "internalType": "int256",
                      "name": "fee",
                      "type": "int256"
                    }
                  ],
                  "internalType": "struct TestSwap.TokenInfo",
                  "name": "tokenIn",
                  "type": "tuple"
                },
                {
                  "components": [
                    {
                      "internalType": "uint256",
                      "name": "formBeforeBalance",
                      "type": "uint256"
                    },
                    {
                      "internalType": "uint256",
                      "name": "formAfterBalance",
                      "type": "uint256"
                    },
                    {
                      "internalType": "uint256",
                      "name": "recipientBeforeBalance",
                      "type": "uint256"
                    },
                    {
                      "internalType": "uint256",
                      "name": "recipientAfterBalance",
                      "type": "uint256"
                    },
                    {
                      "internalType": "uint256",
                      "name": "transferAmount",
                      "type": "uint256"
                    },
                    {
                      "internalType": "uint256",
                      "name": "tradeAmount",
                      "type": "uint256"
                    },
                    {
                      "internalType": "uint256",
                      "name": "recipientAmount",
                      "type": "uint256"
                    },
                    {
                      "internalType": "uint256",
                      "name": "reserveAmount",
                      "type": "uint256"
                    },
                    {
                      "internalType": "bool",
                      "name": "isAddPair",
                      "type": "bool"
                    },
                    {
                      "internalType": "bool",
                      "name": "isSwap",
                      "type": "bool"
                    },
                    {
                      "internalType": "int256",
                      "name": "fee",
                      "type": "int256"
                    }
                  ],
                  "internalType": "struct TestSwap.TokenInfo",
                  "name": "tokenOut",
                  "type": "tuple"
                },
                {
                  "internalType": "string",
                  "name": "error",
                  "type": "string"
                }
              ],
              "internalType": "struct TestSwap.TradeInfo",
              "name": "buy",
              "type": "tuple"
            },
            {
              "components": [
                {
                  "internalType": "enum TestSwap.State",
                  "name": "state",
                  "type": "uint8"
                },
                {
                  "internalType": "uint256",
                  "name": "gas",
                  "type": "uint256"
                },
                {
                  "components": [
                    {
                      "internalType": "uint256",
                      "name": "formBeforeBalance",
                      "type": "uint256"
                    },
                    {
                      "internalType": "uint256",
                      "name": "formAfterBalance",
                      "type": "uint256"
                    },
                    {
                      "internalType": "uint256",
                      "name": "recipientBeforeBalance",
                      "type": "uint256"
                    },
                    {
                      "internalType": "uint256",
                      "name": "recipientAfterBalance",
                      "type": "uint256"
                    },
                    {
                      "internalType": "uint256",
                      "name": "transferAmount",
                      "type": "uint256"
                    },
                    {
                      "internalType": "uint256",
                      "name": "tradeAmount",
                      "type": "uint256"
                    },
                    {
                      "internalType": "uint256",
                      "name": "recipientAmount",
                      "type": "uint256"
                    },
                    {
                      "internalType": "uint256",
                      "name": "reserveAmount",
                      "type": "uint256"
                    },
                    {
                      "internalType": "bool",
                      "name": "isAddPair",
                      "type": "bool"
                    },
                    {
                      "internalType": "bool",
                      "name": "isSwap",
                      "type": "bool"
                    },
                    {
                      "internalType": "int256",
                      "name": "fee",
                      "type": "int256"
                    }
                  ],
                  "internalType": "struct TestSwap.TokenInfo",
                  "name": "tokenIn",
                  "type": "tuple"
                },
                {
                  "components": [
                    {
                      "internalType": "uint256",
                      "name": "formBeforeBalance",
                      "type": "uint256"
                    },
                    {
                      "internalType": "uint256",
                      "name": "formAfterBalance",
                      "type": "uint256"
                    },
                    {
                      "internalType": "uint256",
                      "name": "recipientBeforeBalance",
                      "type": "uint256"
                    },
                    {
                      "internalType": "uint256",
                      "name": "recipientAfterBalance",
                      "type": "uint256"
                    },
                    {
                      "internalType": "uint256",
                      "name": "transferAmount",
                      "type": "uint256"
                    },
                    {
                      "internalType": "uint256",
                      "name": "tradeAmount",
                      "type": "uint256"
                    },
                    {
                      "internalType": "uint256",
                      "name": "recipientAmount",
                      "type": "uint256"
                    },
                    {
                      "internalType": "uint256",
                      "name": "reserveAmount",
                      "type": "uint256"
                    },
                    {
                      "internalType": "bool",
                      "name": "isAddPair",
                      "type": "bool"
                    },
                    {
                      "internalType": "bool",
                      "name": "isSwap",
                      "type": "bool"
                    },
                    {
                      "internalType": "int256",
                      "name": "fee",
                      "type": "int256"
                    }
                  ],
                  "internalType": "struct TestSwap.TokenInfo",
                  "name": "tokenOut",
                  "type": "tuple"
                },
                {
                  "internalType": "string",
                  "name": "error",
                  "type": "string"
                }
              ],
              "internalType": "struct TestSwap.TradeInfo",
              "name": "sell",
              "type": "tuple"
            },
            {
              "components": [
                {
                  "internalType": "enum TestSwap.State",
                  "name": "state",
                  "type": "uint8"
                },
                {
                  "internalType": "uint256",
                  "name": "gas",
                  "type": "uint256"
                },
                {
                  "components": [
                    {
                      "internalType": "uint256",
                      "name": "formBeforeBalance",
                      "type": "uint256"
                    },
                    {
                      "internalType": "uint256",
                      "name": "formAfterBalance",
                      "type": "uint256"
                    },
                    {
                      "internalType": "uint256",
                      "name": "recipientBeforeBalance",
                      "type": "uint256"
                    },
                    {
                      "internalType": "uint256",
                      "name": "recipientAfterBalance",
                      "type": "uint256"
                    },
                    {
                      "internalType": "uint256",
                      "name": "transferAmount",
                      "type": "uint256"
                    },
                    {
                      "internalType": "uint256",
                      "name": "tradeAmount",
                      "type": "uint256"
                    },
                    {
                      "internalType": "uint256",
                      "name": "recipientAmount",
                      "type": "uint256"
                    },
                    {
                      "internalType": "uint256",
                      "name": "reserveAmount",
                      "type": "uint256"
                    },
                    {
                      "internalType": "bool",
                      "name": "isAddPair",
                      "type": "bool"
                    },
                    {
                      "internalType": "bool",
                      "name": "isSwap",
                      "type": "bool"
                    },
                    {
                      "internalType": "int256",
                      "name": "fee",
                      "type": "int256"
                    }
                  ],
                  "internalType": "struct TestSwap.TokenInfo",
                  "name": "tokenIn",
                  "type": "tuple"
                },
                {
                  "components": [
                    {
                      "internalType": "uint256",
                      "name": "formBeforeBalance",
                      "type": "uint256"
                    },
                    {
                      "internalType": "uint256",
                      "name": "formAfterBalance",
                      "type": "uint256"
                    },
                    {
                      "internalType": "uint256",
                      "name": "recipientBeforeBalance",
                      "type": "uint256"
                    },
                    {
                      "internalType": "uint256",
                      "name": "recipientAfterBalance",
                      "type": "uint256"
                    },
                    {
                      "internalType": "uint256",
                      "name": "transferAmount",
                      "type": "uint256"
                    },
                    {
                      "internalType": "uint256",
                      "name": "tradeAmount",
                      "type": "uint256"
                    },
                    {
                      "internalType": "uint256",
                      "name": "recipientAmount",
                      "type": "uint256"
                    },
                    {
                      "internalType": "uint256",
                      "name": "reserveAmount",
                      "type": "uint256"
                    },
                    {
                      "internalType": "bool",
                      "name": "isAddPair",
                      "type": "bool"
                    },
                    {
                      "internalType": "bool",
                      "name": "isSwap",
                      "type": "bool"
                    },
                    {
                      "internalType": "int256",
                      "name": "fee",
                      "type": "int256"
                    }
                  ],
                  "internalType": "struct TestSwap.TokenInfo",
                  "name": "tokenOut",
                  "type": "tuple"
                },
                {
                  "internalType": "string",
                  "name": "error",
                  "type": "string"
                }
              ],
              "internalType": "struct TestSwap.TradeInfo",
              "name": "transfer",
              "type": "tuple"
            },
            {
              "components": [
                {
                  "internalType": "address",
                  "name": "account",
                  "type": "address"
                },
                {
                  "internalType": "uint256",
                  "name": "balanceIn",
                  "type": "uint256"
                },
                {
                  "internalType": "uint256",
                  "name": "balanceOut",
                  "type": "uint256"
                }
              ],
              "internalType": "struct TestSwap.Account",
              "name": "account",
              "type": "tuple"
            },
            {
              "internalType": "uint256",
              "name": "blockNumber",
              "type": "uint256"
            },
            {
              "internalType": "uint256",
              "name": "blockTimestamp",
              "type": "uint256"
            }
          ],
          "internalType": "struct TestSwap.TradeResult[]",
          "name": "results",
          "type": "tuple[]"
        }
      ],
      "stateMutability": "payable",
      "type": "function"
    },
    {
      "inputs": [
        {
          "components": [
            {
              "internalType": "address",
              "name": "router",
              "type": "address"
            },
            {
              "internalType": "address",
              "name": "tokenIn",
              "type": "address"
            },
            {
              "internalType": "address",
              "name": "tokenOut",
              "type": "address"
            },
            {
              "internalType": "address",
              "name": "recipient",
              "type": "address"
            },
            {
              "internalType": "uint256",
              "name": "buy",
              "type": "uint256"
            },
            {
              "internalType": "uint256",
              "name": "sell",
              "type": "uint256"
            },
            {
              "internalType": "uint256",
              "name": "transfer",
              "type": "uint256"
            }
          ],
          "internalType": "struct TestSwap.TradeCall",
          "name": "call",
          "type": "tuple"
        }
      ],
      "name": "one",
      "outputs": [
        {
          "components": [
            {
              "internalType": "uint256",
              "name": "id",
              "type": "uint256"
            },
            {
              "internalType": "uint256",
              "name": "index",
              "type": "uint256"
            },
            {
              "components": [
                {
                  "internalType": "enum TestSwap.State",
                  "name": "state",
                  "type": "uint8"
                },
                {
                  "internalType": "uint256",
                  "name": "gas",
                  "type": "uint256"
                },
                {
                  "components": [
                    {
                      "internalType": "uint256",
                      "name": "formBeforeBalance",
                      "type": "uint256"
                    },
                    {
                      "internalType": "uint256",
                      "name": "formAfterBalance",
                      "type": "uint256"
                    },
                    {
                      "internalType": "uint256",
                      "name": "recipientBeforeBalance",
                      "type": "uint256"
                    },
                    {
                      "internalType": "uint256",
                      "name": "recipientAfterBalance",
                      "type": "uint256"
                    },
                    {
                      "internalType": "uint256",
                      "name": "transferAmount",
                      "type": "uint256"
                    },
                    {
                      "internalType": "uint256",
                      "name": "tradeAmount",
                      "type": "uint256"
                    },
                    {
                      "internalType": "uint256",
                      "name": "recipientAmount",
                      "type": "uint256"
                    },
                    {
                      "internalType": "uint256",
                      "name": "reserveAmount",
                      "type": "uint256"
                    },
                    {
                      "internalType": "bool",
                      "name": "isAddPair",
                      "type": "bool"
                    },
                    {
                      "internalType": "bool",
                      "name": "isSwap",
                      "type": "bool"
                    },
                    {
                      "internalType": "int256",
                      "name": "fee",
                      "type": "int256"
                    }
                  ],
                  "internalType": "struct TestSwap.TokenInfo",
                  "name": "tokenIn",
                  "type": "tuple"
                },
                {
                  "components": [
                    {
                      "internalType": "uint256",
                      "name": "formBeforeBalance",
                      "type": "uint256"
                    },
                    {
                      "internalType": "uint256",
                      "name": "formAfterBalance",
                      "type": "uint256"
                    },
                    {
                      "internalType": "uint256",
                      "name": "recipientBeforeBalance",
                      "type": "uint256"
                    },
                    {
                      "internalType": "uint256",
                      "name": "recipientAfterBalance",
                      "type": "uint256"
                    },
                    {
                      "internalType": "uint256",
                      "name": "transferAmount",
                      "type": "uint256"
                    },
                    {
                      "internalType": "uint256",
                      "name": "tradeAmount",
                      "type": "uint256"
                    },
                    {
                      "internalType": "uint256",
                      "name": "recipientAmount",
                      "type": "uint256"
                    },
                    {
                      "internalType": "uint256",
                      "name": "reserveAmount",
                      "type": "uint256"
                    },
                    {
                      "internalType": "bool",
                      "name": "isAddPair",
                      "type": "bool"
                    },
                    {
                      "internalType": "bool",
                      "name": "isSwap",
                      "type": "bool"
                    },
                    {
                      "internalType": "int256",
                      "name": "fee",
                      "type": "int256"
                    }
                  ],
                  "internalType": "struct TestSwap.TokenInfo",
                  "name": "tokenOut",
                  "type": "tuple"
                },
                {
                  "internalType": "string",
                  "name": "error",
                  "type": "string"
                }
              ],
              "internalType": "struct TestSwap.TradeInfo",
              "name": "buy",
              "type": "tuple"
            },
            {
              "components": [
                {
                  "internalType": "enum TestSwap.State",
                  "name": "state",
                  "type": "uint8"
                },
                {
                  "internalType": "uint256",
                  "name": "gas",
                  "type": "uint256"
                },
                {
                  "components": [
                    {
                      "internalType": "uint256",
                      "name": "formBeforeBalance",
                      "type": "uint256"
                    },
                    {
                      "internalType": "uint256",
                      "name": "formAfterBalance",
                      "type": "uint256"
                    },
                    {
                      "internalType": "uint256",
                      "name": "recipientBeforeBalance",
                      "type": "uint256"
                    },
                    {
                      "internalType": "uint256",
                      "name": "recipientAfterBalance",
                      "type": "uint256"
                    },
                    {
                      "internalType": "uint256",
                      "name": "transferAmount",
                      "type": "uint256"
                    },
                    {
                      "internalType": "uint256",
                      "name": "tradeAmount",
                      "type": "uint256"
                    },
                    {
                      "internalType": "uint256",
                      "name": "recipientAmount",
                      "type": "uint256"
                    },
                    {
                      "internalType": "uint256",
                      "name": "reserveAmount",
                      "type": "uint256"
                    },
                    {
                      "internalType": "bool",
                      "name": "isAddPair",
                      "type": "bool"
                    },
                    {
                      "internalType": "bool",
                      "name": "isSwap",
                      "type": "bool"
                    },
                    {
                      "internalType": "int256",
                      "name": "fee",
                      "type": "int256"
                    }
                  ],
                  "internalType": "struct TestSwap.TokenInfo",
                  "name": "tokenIn",
                  "type": "tuple"
                },
                {
                  "components": [
                    {
                      "internalType": "uint256",
                      "name": "formBeforeBalance",
                      "type": "uint256"
                    },
                    {
                      "internalType": "uint256",
                      "name": "formAfterBalance",
                      "type": "uint256"
                    },
                    {
                      "internalType": "uint256",
                      "name": "recipientBeforeBalance",
                      "type": "uint256"
                    },
                    {
                      "internalType": "uint256",
                      "name": "recipientAfterBalance",
                      "type": "uint256"
                    },
                    {
                      "internalType": "uint256",
                      "name": "transferAmount",
                      "type": "uint256"
                    },
                    {
                      "internalType": "uint256",
                      "name": "tradeAmount",
                      "type": "uint256"
                    },
                    {
                      "internalType": "uint256",
                      "name": "recipientAmount",
                      "type": "uint256"
                    },
                    {
                      "internalType": "uint256",
                      "name": "reserveAmount",
                      "type": "uint256"
                    },
                    {
                      "internalType": "bool",
                      "name": "isAddPair",
                      "type": "bool"
                    },
                    {
                      "internalType": "bool",
                      "name": "isSwap",
                      "type": "bool"
                    },
                    {
                      "internalType": "int256",
                      "name": "fee",
                      "type": "int256"
                    }
                  ],
                  "internalType": "struct TestSwap.TokenInfo",
                  "name": "tokenOut",
                  "type": "tuple"
                },
                {
                  "internalType": "string",
                  "name": "error",
                  "type": "string"
                }
              ],
              "internalType": "struct TestSwap.TradeInfo",
              "name": "sell",
              "type": "tuple"
            },
            {
              "components": [
                {
                  "internalType": "enum TestSwap.State",
                  "name": "state",
                  "type": "uint8"
                },
                {
                  "internalType": "uint256",
                  "name": "gas",
                  "type": "uint256"
                },
                {
                  "components": [
                    {
                      "internalType": "uint256",
                      "name": "formBeforeBalance",
                      "type": "uint256"
                    },
                    {
                      "internalType": "uint256",
                      "name": "formAfterBalance",
                      "type": "uint256"
                    },
                    {
                      "internalType": "uint256",
                      "name": "recipientBeforeBalance",
                      "type": "uint256"
                    },
                    {
                      "internalType": "uint256",
                      "name": "recipientAfterBalance",
                      "type": "uint256"
                    },
                    {
                      "internalType": "uint256",
                      "name": "transferAmount",
                      "type": "uint256"
                    },
                    {
                      "internalType": "uint256",
                      "name": "tradeAmount",
                      "type": "uint256"
                    },
                    {
                      "internalType": "uint256",
                      "name": "recipientAmount",
                      "type": "uint256"
                    },
                    {
                      "internalType": "uint256",
                      "name": "reserveAmount",
                      "type": "uint256"
                    },
                    {
                      "internalType": "bool",
                      "name": "isAddPair",
                      "type": "bool"
                    },
                    {
                      "internalType": "bool",
                      "name": "isSwap",
                      "type": "bool"
                    },
                    {
                      "internalType": "int256",
                      "name": "fee",
                      "type": "int256"
                    }
                  ],
                  "internalType": "struct TestSwap.TokenInfo",
                  "name": "tokenIn",
                  "type": "tuple"
                },
                {
                  "components": [
                    {
                      "internalType": "uint256",
                      "name": "formBeforeBalance",
                      "type": "uint256"
                    },
                    {
                      "internalType": "uint256",
                      "name": "formAfterBalance",
                      "type": "uint256"
                    },
                    {
                      "internalType": "uint256",
                      "name": "recipientBeforeBalance",
                      "type": "uint256"
                    },
                    {
                      "internalType": "uint256",
                      "name": "recipientAfterBalance",
                      "type": "uint256"
                    },
                    {
                      "internalType": "uint256",
                      "name": "transferAmount",
                      "type": "uint256"
                    },
                    {
                      "internalType": "uint256",
                      "name": "tradeAmount",
                      "type": "uint256"
                    },
                    {
                      "internalType": "uint256",
                      "name": "recipientAmount",
                      "type": "uint256"
                    },
                    {
                      "internalType": "uint256",
                      "name": "reserveAmount",
                      "type": "uint256"
                    },
                    {
                      "internalType": "bool",
                      "name": "isAddPair",
                      "type": "bool"
                    },
                    {
                      "internalType": "bool",
                      "name": "isSwap",
                      "type": "bool"
                    },
                    {
                      "internalType": "int256",
                      "name": "fee",
                      "type": "int256"
                    }
                  ],
                  "internalType": "struct TestSwap.TokenInfo",
                  "name": "tokenOut",
                  "type": "tuple"
                },
                {
                  "internalType": "string",
                  "name": "error",
                  "type": "string"
                }
              ],
              "internalType": "struct TestSwap.TradeInfo",
              "name": "transfer",
              "type": "tuple"
            },
            {
              "components": [
                {
                  "internalType": "address",
                  "name": "account",
                  "type": "address"
                },
                {
                  "internalType": "uint256",
                  "name": "balanceIn",
                  "type": "uint256"
                },
                {
                  "internalType": "uint256",
                  "name": "balanceOut",
                  "type": "uint256"
                }
              ],
              "internalType": "struct TestSwap.Account",
              "name": "account",
              "type": "tuple"
            },
            {
              "internalType": "uint256",
              "name": "blockNumber",
              "type": "uint256"
            },
            {
              "internalType": "uint256",
              "name": "blockTimestamp",
              "type": "uint256"
            }
          ],
          "internalType": "struct TestSwap.TradeResult",
          "name": "result",
          "type": "tuple"
        }
      ],
      "stateMutability": "payable",
      "type": "function"
    },
    {
      "inputs": [
        {
          "internalType": "address",
          "name": "router",
          "type": "address"
        },
        {
          "internalType": "address",
          "name": "tokenIn",
          "type": "address"
        },
        {
          "internalType": "address",
          "name": "tokenOut",
          "type": "address"
        },
        {
          "internalType": "address",
          "name": "from",
          "type": "address"
        },
        {
          "internalType": "address",
          "name": "recipient",
          "type": "address"
        },
        {
          "internalType": "uint256",
          "name": "amountIn",
          "type": "uint256"
        },
        {
          "internalType": "uint256",
          "name": "amountOut",
          "type": "uint256"
        }
      ],
      "name": "swapV2",
      "outputs": [
        {
          "components": [
            {
              "internalType": "enum TestSwap.State",
              "name": "state",
              "type": "uint8"
            },
            {
              "internalType": "uint256",
              "name": "gas",
              "type": "uint256"
            },
            {
              "components": [
                {
                  "internalType": "uint256",
                  "name": "formBeforeBalance",
                  "type": "uint256"
                },
                {
                  "internalType": "uint256",
                  "name": "formAfterBalance",
                  "type": "uint256"
                },
                {
                  "internalType": "uint256",
                  "name": "recipientBeforeBalance",
                  "type": "uint256"
                },
                {
                  "internalType": "uint256",
                  "name": "recipientAfterBalance",
                  "type": "uint256"
                },
                {
                  "internalType": "uint256",
                  "name": "transferAmount",
                  "type": "uint256"
                },
                {
                  "internalType": "uint256",
                  "name": "tradeAmount",
                  "type": "uint256"
                },
                {
                  "internalType": "uint256",
                  "name": "recipientAmount",
                  "type": "uint256"
                },
                {
                  "internalType": "uint256",
                  "name": "reserveAmount",
                  "type": "uint256"
                },
                {
                  "internalType": "bool",
                  "name": "isAddPair",
                  "type": "bool"
                },
                {
                  "internalType": "bool",
                  "name": "isSwap",
                  "type": "bool"
                },
                {
                  "internalType": "int256",
                  "name": "fee",
                  "type": "int256"
                }
              ],
              "internalType": "struct TestSwap.TokenInfo",
              "name": "tokenIn",
              "type": "tuple"
            },
            {
              "components": [
                {
                  "internalType": "uint256",
                  "name": "formBeforeBalance",
                  "type": "uint256"
                },
                {
                  "internalType": "uint256",
                  "name": "formAfterBalance",
                  "type": "uint256"
                },
                {
                  "internalType": "uint256",
                  "name": "recipientBeforeBalance",
                  "type": "uint256"
                },
                {
                  "internalType": "uint256",
                  "name": "recipientAfterBalance",
                  "type": "uint256"
                },
                {
                  "internalType": "uint256",
                  "name": "transferAmount",
                  "type": "uint256"
                },
                {
                  "internalType": "uint256",
                  "name": "tradeAmount",
                  "type": "uint256"
                },
                {
                  "internalType": "uint256",
                  "name": "recipientAmount",
                  "type": "uint256"
                },
                {
                  "internalType": "uint256",
                  "name": "reserveAmount",
                  "type": "uint256"
                },
                {
                  "internalType": "bool",
                  "name": "isAddPair",
                  "type": "bool"
                },
                {
                  "internalType": "bool",
                  "name": "isSwap",
                  "type": "bool"
                },
                {
                  "internalType": "int256",
                  "name": "fee",
                  "type": "int256"
                }
              ],
              "internalType": "struct TestSwap.TokenInfo",
              "name": "tokenOut",
              "type": "tuple"
            },
            {
              "internalType": "string",
              "name": "error",
              "type": "string"
            }
          ],
          "internalType": "struct TestSwap.TradeInfo",
          "name": "info",
          "type": "tuple"
        }
      ],
      "stateMutability": "nonpayable",
      "type": "function"
    },
    {
      "inputs": [
        {
          "internalType": "address",
          "name": "token",
          "type": "address"
        },
        {
          "internalType": "address",
          "name": "from",
          "type": "address"
        },
        {
          "internalType": "address",
          "name": "to",
          "type": "address"
        },
        {
          "internalType": "uint256",
          "name": "value",
          "type": "uint256"
        }
      ],
      "name": "transfer",
      "outputs": [
        {
          "components": [
            {
              "internalType": "enum TestSwap.State",
              "name": "state",
              "type": "uint8"
            },
            {
              "internalType": "uint256",
              "name": "gas",
              "type": "uint256"
            },
            {
              "components": [
                {
                  "internalType": "uint256",
                  "name": "formBeforeBalance",
                  "type": "uint256"
                },
                {
                  "internalType": "uint256",
                  "name": "formAfterBalance",
                  "type": "uint256"
                },
                {
                  "internalType": "uint256",
                  "name": "recipientBeforeBalance",
                  "type": "uint256"
                },
                {
                  "internalType": "uint256",
                  "name": "recipientAfterBalance",
                  "type": "uint256"
                },
                {
                  "internalType": "uint256",
                  "name": "transferAmount",
                  "type": "uint256"
                },
                {
                  "internalType": "uint256",
                  "name": "tradeAmount",
                  "type": "uint256"
                },
                {
                  "internalType": "uint256",
                  "name": "recipientAmount",
                  "type": "uint256"
                },
                {
                  "internalType": "uint256",
                  "name": "reserveAmount",
                  "type": "uint256"
                },
                {
                  "internalType": "bool",
                  "name": "isAddPair",
                  "type": "bool"
                },
                {
                  "internalType": "bool",
                  "name": "isSwap",
                  "type": "bool"
                },
                {
                  "internalType": "int256",
                  "name": "fee",
                  "type": "int256"
                }
              ],
              "internalType": "struct TestSwap.TokenInfo",
              "name": "tokenIn",
              "type": "tuple"
            },
            {
              "components": [
                {
                  "internalType": "uint256",
                  "name": "formBeforeBalance",
                  "type": "uint256"
                },
                {
                  "internalType": "uint256",
                  "name": "formAfterBalance",
                  "type": "uint256"
                },
                {
                  "internalType": "uint256",
                  "name": "recipientBeforeBalance",
                  "type": "uint256"
                },
                {
                  "internalType": "uint256",
                  "name": "recipientAfterBalance",
                  "type": "uint256"
                },
                {
                  "internalType": "uint256",
                  "name": "transferAmount",
                  "type": "uint256"
                },
                {
                  "internalType": "uint256",
                  "name": "tradeAmount",
                  "type": "uint256"
                },
                {
                  "internalType": "uint256",
                  "name": "recipientAmount",
                  "type": "uint256"
                },
                {
                  "internalType": "uint256",
                  "name": "reserveAmount",
                  "type": "uint256"
                },
                {
                  "internalType": "bool",
                  "name": "isAddPair",
                  "type": "bool"
                },
                {
                  "internalType": "bool",
                  "name": "isSwap",
                  "type": "bool"
                },
                {
                  "internalType": "int256",
                  "name": "fee",
                  "type": "int256"
                }
              ],
              "internalType": "struct TestSwap.TokenInfo",
              "name": "tokenOut",
              "type": "tuple"
            },
            {
              "internalType": "string",
              "name": "error",
              "type": "string"
            }
          ],
          "internalType": "struct TestSwap.TradeInfo",
          "name": "info",
          "type": "tuple"
        }
      ],
      "stateMutability": "nonpayable",
      "type": "function"
    },
    {
      "stateMutability": "payable",
      "type": "receive"
    }
  ]
}